0084010015999991992010115504+61450+005867FM-15+0150ENBL V0202301N00771009001CN0112001N1+00101-00101999999ADDAG12999GA1021+004509089GA2051+009009059MA1099491999999OC101391EQDQ01+000000PRSWM2
0069010015999991992010116504+61450+005867FM-15+0150ENBL V0202401N00621009001CN0112001N1+00001+00001999999ADDAG11999GA1051+009009089MA1099491999999MW1851REMMET013PAST MAX 25KT
0063010015999991992010117504+61450+005867FM-15+0150ENBL V0202201N00511009001CN0112001N1+00001+00001999999ADDAG11000GA1011+001509079GA2061+009009089MA1099591999999MW1851
0047010015999991992010118504+61450+005867FM-15+0150ENBL V0202401N00511009001CN0112001N1+00001-00101999999ADDAG12999GA1061+009009059MA1099591999999MW1851
0076010015999991992010119504+61450+005867FM-15+0150ENBL V0202201N00411007501CN0112001N1+00001-00101999999ADDAG12999GA1011+001509079GA2061+007509059MA1099701999999EQDQ01+000000PRSWM2
0047010015999991992010204504+61450+005867FM-15+0150ENBL V0203001N00101220001CN0025001N1+00001+00001999999ADDAG11999GA1031+003009079MA1098821999999MW1711
0063010015999991992010206504+61450+005867FM-15+0150ENBL V0209991C00001004201CN0040001N1+00001+00001999999ADDAG11999GA1021+001209079GA2071+004209059MA1098821999999MW1681
0092010015999991992010208504+61450+005867FM-15+0150ENBL V0202801N00151003901CN0040001N1+00001+00001999999ADDAG12000GA1021+001509079GA2071+003909059GA3021+999999079MA1098821999999EQDQ01+000000PRSWM2
0063010015999991992010211504+61450+005867FM-15+0150ENBL V0202501N00101003301CN0025001N1+00101+00101999999ADDAG11000GA1031+001209079GA2071+003309059MA1098921999999MW1501
0063010015999991992010212504+61450+005867FM-15+0150ENBL V0202601N00151003301CN0025001N1+00201+00201999999ADDAG11999GA1031+001209079GA2071+003309059MA1098821999999MW1501
0079010015999991992010214504+61450+005867FM-15+0150ENBL V0202401N00411003301CN0010001N1+00501+00501999999ADDAG11000GA1011+000159079GA2031+000909079GA3061+003309059MA1098821999999MW1501
0063010015999991992010215504+61450+005867FM-15+0150ENBL V0202401N00571004201CN0112001N1+00601+00601999999ADDAG11999GA1021+001809079GA2071+004209059MA1098711999999MW1601
0087010015999991992010216504+61450+005867FM-15+0150ENBL V0202401N00621003001CN0050001N1+00501+00501999999ADDAG11999GA1021+001509079GA2041+003009059GA3061+004209059MA1098711999999MW1601OC101131
0063010015999991992010217504+61450+005867FM-15+0150ENBL V0202101N00571006001CN0060001N1+00501+00401999999ADDAG11000GA1021+002709079GA2061+006009059MA1098511999999MW1601
0071010015999991992010218504+61450+005867FM-15+0150ENBL V0202201N00771009001CN0112001N1+00601+00401999999ADDAG11999GA1031+006009059GA2061+009009059MA1098511999999MW1211OC101491
0047010015999991992010304504+61450+005867FM-15+0150ENBL V0202401N00411003301CN0020001N1+00001+00001999999ADDAG11999GA1091+003309999MA1098511999999MW1701
0047010015999991992010305504+61450+005867FM-15+0150ENBL V0202201N00261220001CN0010001N1+00001+00001999999ADDAG12000GA1021+000159079MA1098411999999MW1701
0047010015999991992010306504+61450+005867FM-15+0150ENBL V0202401N00261220001CN0022001N1+00001+00001999999ADDAG12999GA1021+000159079MA1098311999999MW1701
0047010015999991992010308504+61450+005867FM-15+0150ENBL V0202501N00771220001CN0112001N1+00101+00101999999ADDAG12000GA1021+001809079MA1098411999999MW1601
0063010015999991992010310504+61450+005867FM-15+0150ENBL V0202301N00511006001CN0112001N1+00101-00101999999ADDAG12999GA1021+003009079GA2061+006009089MA1098611999999MW1261
0063010015999991992010311504+61450+005867FM-15+0150ENBL V0202401N00411006001CN0112001N1+00001+00001999999ADDAG12000GA1021+003009079GA2061+006009089MA1098611999999MW1261
0063010015999991992010314504+61450+005867FM-15+0150ENBL V0202401N00511007501CN0112001N1+00001-00101999999ADDAG11001GA1021+003609079GA2061+007509089MA1098511999999MW1681
0076010015999991992010315504+61450+005867FM-15+0150ENBL V0202001N00511007501CN0112001N1+00001-00101999999ADDAG11999GA1021+003609079GA2061+007509089MA1098511999999EQDQ01+000000PRSWM2
0060010015999991992010316504+61450+005867FM-15+0150ENBL V0202101N00931007501CN0112001N1+00201-00401999999ADDAG11999GA1061+007509089MA1098411999999EQDQ01+000000PRSWM2
0076010015999991992010317504+61450+005867FM-15+0150ENBL V0202201N00931018001CN0112001N1+00201-00501999999ADDAG11000GA1031+009009089GA2061+018009039MA1098411999999EQDQ01+000000PRSWM2
0047010015999991992010318504+61450+005867FM-15+0150ENBL V0202301N00621003001CN0020001N1+00001-00101999999ADDAG12999GA1091+003009999MA1098311999999MW1721
0063010015999991992010319504+61450+005867FM-15+0150ENBL V0202801N00461009001CN0112001N1+00001+00001999999ADDAG12999GA1021+001509079GA2051+009009059MA1098311999999MW1221
0100010015999991992010406504+61450+005867FM-15+0150ENBL V0202701N00771220001CN9999999N9-00101-00701999999ADDAG12999GA1011+002709079GA2041+004509089MA1098821999999OC101391EQDQ01+000002VOVAR Q02+000000PRSWM2
0047010015999991992010407504+61450+005867FM-15+0150ENBL V0209991V00461003001CN0015001N1-00201-00301999999ADDAG12999GA1091+003009999MA1099091999999MW1871
0100010015999991992010408504+61450+005867FM-15+0150ENBL V0203001N00511009001CN0112001N1-00201-00401999999ADDAG12000GA1011+003009079GA2021+004509099GA3051+009009089MA1099191999999OC101031EQDQ01+000000PRSWM2
0094010015999991992010409504+61450+005867FM-15+0150ENBL V0202301N00411009001CN0112001N1-00201-00501999999ADDAG12999GA1031+004509099GA2051+009009089MW1851REMMET037PM 20KT          ?     VIS TOW N 3000
0092010015999991992010410504+61450+005867FM-15+0150ENBL V0202401N00411009001CN0112001N1-00101-00601999999ADDAG12999GA1031+004509099GA2041+009009089MA1099291999999MW1271REMMET020PM         ?     24K
0078010015999991992010411504+61450+005867FM-15+0150ENBL V0202601N00361009001CN0112001N1-00101-00701999999ADDAG12000GA1021+004509099GA2041+009009089MA1099391999999MW1261REMMET006PM18KT
0092010015999991992010412504+61450+005867FM-15+0150ENBL V0202101N00261009001CN0112001N1-00201-00601999999ADDAG12999GA1021+004509099GA2041+009009089MA1099391999999REMMET007PM 21KTEQDQ01+000000PRSWM2
0079010015999991992010413504+61450+005867FM-15+0150ENBL V0202001N00261009001CN0112001N1-00201-00601999999ADDAG12999GA1011+004509099GA2031+005409089GA3061+009009059MA1099391999999MW1851
0095010015999991992010511504+61450+005867FM-15+0150ENBL V0209991V00211060001CN0112001N1-00301-00401999999ADDAG12000GA1021+003009099GA2011+006009089GA3051+060009009MA1101391999999MW1261REMMET007PM 20KT
0079010015999991992010512504+61450+005867FM-15+0150ENBL V0209991V00151006001CN0112001N1-00301-00401999999ADDAG12999GA1031+003009099GA2021+006009089GA3051+060009009MA1101391999999MW1261
0063010015999991992010513504+61450+005867FM-15+0150ENBL V0200301N00211009001CN0112001N1-00301-00301999999ADDAG12999GA1021+006009089GA2051+009009089MA1101391999999MW1261
0076010015999991992010514504+61450+005867FM-15+0150ENBL V0203001N00151027001CN0112001N1-00401-00401999999ADDAG12000GA1031+007509089GA2051+027009039MA1101391999999EQDQ01+000000PRSWM2
0076010015999991992010515504+61450+005867FM-15+0150ENBL V0203301N00211027001CN0112001N1-00401-00401999999ADDAG12999GA1021+007509089GA2051+027009039MA1101391999999EQDQ01+000000PRSWM2
0076010015999991992010516504+61450+005867FM-15+0150ENBL V0209991V00101015001CN0112001N1-00401-00501999999ADDAG12999GA1031+006009089GA2061+015009059MA1101391999999EQDQ01+000000PRSWM2
0076010015999991992010517504+61450+005867FM-15+0150ENBL V0200501N00151015001CN0112001N1-00401-00501999999ADDAG11000GA1021+006009089GA2061+015009059MA1101391999999EQDQ01+000000PRSWM2
0063010015999991992010518504+61450+005867FM-15+0150ENBL V0200201N00261009001CN0112001N1-00301-00401999999ADDAG12999GA1021+006009089GA2061+009009059MA1101491999999MW1851
0047010015999991992010520504+61450+005867FM-15+0150ENBL V0200501N00261004501CN0020001N1-00401-00501999999ADDAG12000GA1091+004509999MA1101491999999MW1851
0047010015999991992010604504+61450+005867FM-15+0150ENBL V0202701N00211004201CN0030001N1-00201-00201999999ADDAG12999GA1091+004209999MA1101391999999MW1851
0092010015999991992010606504+61450+005867FM-15+0150ENBL V0202601N00211004801CN0112001N1-00201-00201999999ADDAG11999GA1011+000909079GA2031+003009079GA3061+004809059MA1101291999999EQDQ01+000000PRSWM2
0079010015999991992010607504+61450+005867FM-15+0150ENBL V0202401N00151005401CN0112001N1-00201-00201999999ADDAG11999GA1011+000909079GA2031+003009079GA3061+005409059MA1101191999999MW1261
0076010015999991992010608504+61450+005867FM-15+0150ENBL V0202601N00151004501CN0112001N1-00201-00201999999ADDAG11000GA1011+001209079GA2061+004509059MA1101191999999EQDQ01+000000PRSWM2
0092010015999991992010610504+61450+005867FM-15+0150ENBL V0209991V00151009001CN0112001N1+00001+00001999999ADDAG11999GA1011+002109079GA2031+005409059GA3061+009009059MA1101021999999EQDQ01+000000PRSWM2
0092010015999991992010611504+61450+005867FM-15+0150ENBL V0201801N00361009001CN0112001N1+00101+00001999999ADDAG11000GA1011+003009079GA2041+006009059GA3061+009009059MA1100811999999EQDQ01+000000PRSWM2
0063010015999991992010612504+61450+005867FM-15+0150ENBL V0201601N00461009001CN0112001N1+00101-00101999999ADDAG11999GA1031+005409059GA2061+009009059MA1100611999999MW1251
0047010015999991992010614504+61450+005867FM-15+0150ENBL V0201801N00151002401CN0020001N1+00001-00101999999ADDAG12000GA1091+002409999MA1100201999999MW1701
0047010015999991992010615504+61450+005867FM-15+0150ENBL V0201201N00461001801CN0015001N1+00001-00101999999ADDAG11999GA1091+001809999MA1099701999999MW1711
0047010015999991992010616504+61450+005867FM-15+0150ENBL V0201801N00411004501CN0030001N1+00101+00001999999ADDAG11999GA1091+004509999MA1099491999999MW1681
0047010015999991992010617504+61450+005867FM-15+0150ENBL V0201701N00621004201CN0040001N1+00101+00001999999ADDAG12001GA1091+004209999MA1099391999999MW1681
0087010015999991992010618504+61450+005867FM-15+0150ENBL V0202201N00621004501CN0070001N1+00301+00301999999ADDAG11999GA1011+002109079GA2031+003009079GA3061+004509059MA1099291999999MW1801OC101241
0047010015999991992010704504+61450+005867FM-15+0150ENBL V0202301N00151004501CN0030001N1+00001-00101999999ADDAG11999GA1091+004509999MA1099701999999MW1701
0047010015999991992010706504+61450+005867FM-15+0150ENBL V0202301N00211002701CN0020001N1+00001+00001999999ADDAG12999GA1091+002709999MA1099701999999MW1851
0063010015999991992010707504+61450+005867FM-15+0150ENBL V0201201N00051004501CN0112001N1+00001+00001999999ADDAG12999GA1021+000159079GA2051+004509059MA1099701999999MW1261
0063010015999991992010708504+61450+005867FM-15+0150ENBL V0201601N00151004501CN0112001N1+00001+00001999999ADDAG12000GA1021+000159079GA2061+004509059MA1099591999999MW1261
0063010015999991992010713504+61450+005867FM-15+0150ENBL V0203201N00101004201CN0080001N1+00101+00101999999ADDAG12999GA1031+001509079GA2071+004209059MA1099391999999MW1261
0076010015999991992010714504+61450+005867FM-15+0150ENBL V0201701N00101004201CN0112001N1+00101+00101999999ADDAG12000GA1031+001509079GA2071+004209059MA1099291999999EQDQ01+000000PRSWM2
0076010015999991992010715504+61450+005867FM-15+0150ENBL V0202201N00101004201CN0112001N1+00101+00101999999ADDAG12999GA1031+001509079GA2071+004209059MA1099291999999EQDQ01+000000PRSWM2
0076010015999991992010716504+61450+005867FM-15+0150ENBL V0209991C00001004501CN0112001N1+00101+00101999999ADDAG11999GA1021+001809079GA2071+004509059MA1099291999999EQDQ01+000000PRSWM2
0063010015999991992010717504+61450+005867FM-15+0150ENBL V0202601N00151004501CN0030001N1+00001+00001999999ADDAG11001GA1031+000309079GA2071+004509059MA1099291999999MW1681
0079010015999991992010718504+61450+005867FM-15+0150ENBL V0202501N00151003601CN0030001N1+00001+00001999999ADDAG11999GA1021+000609079GA2021+002709079GA3061+003609059MA1099291999999MW1681
0060010015999991992010804504+61450+005867FM-15+0150ENBL V0202001N00151001501CN0004001N1+00001+00001999999ADDAG12999GA1091+001509999MA1099191999999MW1471REMMET004SNSH
0047010015999991992010805504+61450+005867FM-15+0150ENBL V0202501N00151001801CN0010001N1+00001+00001999999ADDAG12000GA1091+001809999MA1099191999999MW1851
0047010015999991992010806504+61450+005867FM-15+0150ENBL V0202101N00101001501CN0008001N1+00001+00001999999ADDAG12999GA1091+001509999MA1099191999999MW1721
0063010015999991992010807504+61450+005867FM-15+0150ENBL V0202501N00151003601CN0040001N1+00001+00001999999ADDAG12999GA1021+000909079GA2071+003609089MA1099391999999MW1221
0092010015999991992010808504+61450+005867FM-15+0150ENBL V0202501N00151004501CN0050001N1-00101-00101999999ADDAG12000GA1021+000909079GA2051+004509089GA3021+999999079MA1099391999999EQDQ01+000000PRSWM2
0063010015999991992010809504+61450+005867FM-15+0150ENBL V0202001N00101999999CN0020001N1+00001+00001999999ADDAG12999GA1031+000909079GA2021+999999079MA1099491999999MW1701
0079010015999991992010810504+61450+005867FM-15+0150ENBL V0201901N00101004501CN0020001N1-00101-00101999999ADDAG12999GA1031+000909079GA2051+004509089GA3021+999999079MA1099491999999MW1221
0076010015999991992010812504+61450+005867FM-15+0150ENBL V0203001N00311024001CN0112001N1-00101-00101999999ADDAG12999GA1031+004509089GA2031+024009039MA1099491999999EQDQ01+000000PRSWM2
0063010015999991992010814504+61450+005867FM-15+0150ENBL V0200101N00571220001CN0112001N1+00001-00201999999ADDAG12000GA1011+003009079GA2041+005409089MA1099591999999MW1261
0076010015999991992010815504+61450+005867FM-15+0150ENBL V0203601N00411015001CN0112001N1-00201-00401999999ADDAG12999GA1021+006009089GA2041+015009059MA1099701999999EQDQ01+000000PRSWM2
0063010015999991992010816504+61450+005867FM-15+0150ENBL V0203301N00311012001CN0112001N1-00201-00501999999ADDAG12999GA1021+006009089GA2041+012009059MA1099701999999MW1261
0076010015999991992010817504+61450+005867FM-15+0150ENBL V0203301N00261018001CN0112001N1-00201-00501999999ADDAG12000GA1021+006009089GA2041+018009039MA1099701999999EQDQ01+000000PRSWM2
0076010015999991992010818504+61450+005867FM-15+0150ENBL V0209991V00101015001CN0112001N1-00301-00701999999ADDAG12999GA1021+006009089GA2041+015009039MA1099701999999EQDQ01+000000PRSWM2
0047010015999991992010904504+61450+005867FM-15+0150ENBL V0202301N00211001201CN0010001N1-00201-00301999999ADDAG11999GA1091+001209999MA1099901999999MW1261
0047010015999991992010905504+61450+005867FM-15+0150ENBL V0203201N00511006001CN0040001N1-00101-00201999999ADDAG11000GA1091+006009999MA1099901999999MW1261
0047010015999991992010906504+61450+005867FM-15+0150ENBL V0203001N00261220001CN0050001N1-00101-00201999999ADDAG11999GA1041+006009089MA1100001999999MW1401
0063010015999991992010908504+61450+005867FM-15+0150ENBL V0203501N00411006001CN0112001N1-00101-00201999999ADDAG11000GA1021+002409079GA2051+006009089MA1100311999999MW1261
0093010015999991992010909504+61450+005867FM-15+0150ENBL V0203501N00511220001CN0112001N1-00101-00201999999ADDAG11999GA1011+002409079GA2031+006009089MA1100411999999REMMET008DIST SNSEQDQ01+000000PRSWM2
0076010015999991992010912504+61450+005867FM-15+0150ENBL V0209991V00151220001CN0112001N1-00201-00301999999ADDAG12999GA1011+002409079GA2031+003609059MA1100711999999EQDQ01+000000PRSWM2
0076010015999991992010913504+61450+005867FM-15+0150ENBL V0209991V00101003601CN0112001N1-00201-00301999999ADDAG12999GA1011+002409079GA2051+003609079MA1100811999999EQDQ01+000000PRSWM2
0076010015999991992010914504+61450+005867FM-15+0150ENBL V0209991C00001003601CN0112001N1-00201-00301999999ADDAG11000GA1021+002409079GA2061+003609079MA1100911999999EQDQ01+000000PRSWM2
0076010015999991992010915504+61450+005867FM-15+0150ENBL V0209991V00101003601CN0112001N1-00201-00301999999ADDAG11999GA1021+002109079GA2061+003609079MA1101021999999EQDQ01+000000PRSWM2
0079010015999991992010916504+61450+005867FM-15+0150ENBL V0209991V00151004201CN0112001N1-00201-00201999999ADDAG11999GA1011+001209079GA2031+003009079GA3061+004209059MA1101081999999MW1261
0084010015999991992010917504+61450+005867FM-15+0150ENBL V0202701N00101004201CN0090001N1-00201-00201999999ADDAG11000GA1021+000609079GA2061+004209059MA1101191999999MW1851REMMET012VIS IN SN/ST
0063010015999991992010918504+61450+005867FM-15+0150ENBL V0203201N00151004201CN0112001N1-00201-00201999999ADDAG12999GA1021+000609079GA2061+004209059MA1101291999999MW1851
0076010015999991992011004504+61450+005867FM-15+0150ENBL V0202301N00261007501CN0112001N1-00301-00301999999ADDAG11999GA1021+003009079GA2051+007509059MA1101691999999EQDQ01+000000PRSWM2
0092010015999991992011005504+61450+005867FM-15+0150ENBL V0201901N00311009001CN0112001N1-00201-00201999999ADDAG11000GA1011+003009079GA2031+006009059GA3061+009009059MA1101691999999EQDQ01+000000PRSWM2
0092010015999991992011006504+61450+005867FM-15+0150ENBL V0202001N00461009001CN0112001N1-00201-00301999999ADDAG11999GA1011+003009079GA2031+004509059GA3061+009009059MA1101591999999EQDQ01+000000PRSWM2
0092010015999991992011007504+61450+005867FM-15+0150ENBL V0202101N00461009001CN0112001N1-00101-00201999999ADDAG11999GA1011+003009079GA2031+005409059GA3061+009009059MA1101691999999EQDQ01+000000PRSWM2
0100010015999991992011008504+61450+005867FM-15+0150ENBL V0202101N00671009001CN0112001N1+00001-00301999999ADDAG11000GA1011+003609079GA2031+006009059GA3061+009009059MA1101591999999OC101181EQDQ01+000000PRSWM2
0071010015999991992011010504+61450+005867FM-15+0150ENBL V0202101N01031004501CN0060001N1+00001-00201999999ADDAG11999GA1021+002409079GA2061+004509059MA1101491999999MW1711OC101601
0047010015999991992011011504+61450+005867FM-15+0150ENBL V0202201N00621003001CN0012001N1-00101-00101999999ADDAG11000GA1091+003009999MA1101391999999MW1711
0060010015999991992011012504+61450+005867FM-15+0150ENBL V0202201N00621001201CN0002001N1-00101-00101999999ADDAG11999GA1091+001209999MA1101291999999MW1711REMMET00447FG
0060010015999991992011013504+61450+005867FM-15+0150ENBL V0202201N00511001201CN0002001N1-00101-00101999999ADDAG11999GA1091+001209999MA1101291999999MW1711REMMET00445FG
0047010015999991992011014504+61450+005867FM-15+0150ENBL V0202301N00621001201CN0005001N1+00001+00001999999ADDAG12000GA1091+001209999MA1101191999999MW1711
0047010015999991992011015504+61450+005867FM-15+0150ENBL V0202301N00511001201CN0003001N1+00001+00001999999ADDAG12999GA1091+001209999MA1101191999999MW1731
0047010015999991992011016504+61450+005867FM-15+0150ENBL V0202501N00571001201CN0003001N1+00001+00001999999ADDAG12999GA1091+001209999MA1101191999999MW1731
0047010015999991992011017504+61450+005867FM-15+0150ENBL V0202501N00571001201CN0004001N1+00001+00001999999ADDAG12001GA1091+001209999MA1101081999999MW1731
0060010015999991992011018504+61450+005867FM-15+0150ENBL V0202301N00361001201CN0003001N1+00001+00001999999ADDAG12999GA1091+001209999MA1101021999999MW1731REMMET00445FG
0047010015999991992011019504+61450+005867FM-15+0150ENBL V0202401N00511003601CN0015001N1+00001+00001999999ADDAG12999GA1091+003609999MA1100911999999MW1681
0047010015999991992011020504+61450+005867FM-15+0150ENBL V0202301N00511220001CN0030001N1+00201+00201999999ADDAG12001GA1021+002409079MA1100911999999MW1611
0060010015999991992011106504+61450+005867FM-15+0150ENBL V0202601N00411003001CN0015001N1+00501+00501999999ADDAG12999GA1091+003009999MA1100611999999MW1631REMMET004MIST
0060010015999991992011107504+61450+005867FM-15+0150ENBL V0202701N00511003001CN0015001N1+00501+00501999999ADDAG12999GA1091+003009999MA1100511999999MW1631REMMET004MIST
0047010015999991992011108504+61450+005867FM-15+0150ENBL V0202801N00621220001CN0025001N1+00601+00601999999ADDAG12003GA1031+000609079MA1100511999999MW1631
0063010015999991992011109504+61450+005867FM-15+0150ENBL V0202701N00511220001CN0025001N1+00501+00501999999ADDAG12999GA1021+000609079GA2091+999999999MA1100511999999MW1631
0071010015999991992011110504+61450+005867FM-15+0150ENBL V0202701N00621220001CN0030001N1+00501+00501999999ADDAG12999GA1021+000609079GA2091+999999999MA1100511999999MW1611OC101131
0063010015999991992011111504+61450+005867FM-15+0150ENBL V0202601N00621220001CN0020001N1+00501+00501999999ADDAG12001GA1021+000609079GA2091+999999999MA1100511999999MW1611
0084010015999991992011112504+61450+005867FM-15+0150ENBL V0202901N00881220001CN0030001N1+00501+00401999999ADDAG12999GA1021+000909079MA1100511999999OC101441REMMET007PM33KTSEQDQ01+000000PRSWM2
0071010015999991992011113504+61450+005867FM-15+0150ENBL V0202601N00771006001CN0112001N1+00401+00101999999ADDAG12999GA1011+004509089GA2061+006009089MA1100711999999MW1211OC101291
0084010015999991992011114504+61450+005867FM-15+0150ENBL V0202501N00771007501CN0112001N1+00401+00101999999ADDAG12000GA1011+004509089GA2061+007509089MA1100711999999OC101291EQDQ01+000000PRSWM2
0060010015999991992011210504+61450+005867FM-15+0150ENBL V0203301N00411220001CN0112001N1+00001-00101999999ADDAG12999GA1031+007509089MA1102611999999EQDQ01+000000PRSWM2
0060010015999991992011211504+61450+005867FM-15+0150ENBL V0203101N00361220001CN0112001N1+00101-00401999999ADDAG12000GA1021+007509059MA1102711999999EQDQ01+000000PRSWM2
0060010015999991992011212504+61450+005867FM-15+0150ENBL V0203201N00311220001CN0112001N1+00101-00401999999ADDAG12999GA1031+007509059MA1102711999999EQDQ01+000000PRSWM2
0060010015999991992011213504+61450+005867FM-15+0150ENBL V0203201N00261220001CN0112001N1+00001-00301999999ADDAG12999GA1031+007509059MA1102811999999EQDQ01+000000PRSWM2
0076010015999991992011214504+61450+005867FM-15+0150ENBL V0209991V00151220001CN0112001N1-00101-00301999999ADDAG12000GA1021+009009059GA2011+030009039MA1102811999999EQDQ01+000000PRSWM2
0060010015999991992011215504+61450+005867FM-15+0150ENBL V0209991V00101220001CN0112001N1-00201-00301999999ADDAG12999GA1031+027009039MA1102911999999EQDQ01+000000PRSWM2
0060010015999991992011216504+61450+005867FM-15+0150ENBL V0209991V00101220001CN0112001N1-00201-00301999999ADDAG12999GA1021+024009039MA1102911999999EQDQ01+000000PRSWM2
0060010015999991992011217504+61450+005867FM-15+0150ENBL V0202201N00101220001CN0112001N1-00301-00301999999ADDAG12000GA1031+027009039MA1103011999999EQDQ01+000000PRSWM2
0060010015999991992011218504+61450+005867FM-15+0150ENBL V0202901N00101024001CN0112001N1-00301-00301999999ADDAG12999GA1051+024009039MA1103011999999EQDQ01+000000PRSWM2
0047010015999991992011305504+61450+005867FM-15+0150ENBL V0201901N00211003001CN0009001N1+00001+00001999999ADDAG12000GA1091+003009999MA1102401999999MW1711
0047010015999991992011306504+61450+005867FM-15+0150ENBL V0201901N00101004201CN0010001N1+00001+00001999999ADDAG12999GA1091+004209999MA1102401999999MW1711
0047010015999991992011307504+61450+005867FM-15+0150ENBL V0202001N00151003001CN0007001N1+00001+00001999999ADDAG12999GA1091+003009999MA1102401999999MW1731
0047010015999991992011308504+61450+005867FM-15+0150ENBL V0202201N00151001801CN0010001N1+00001+00001999999ADDAG12001GA1091+001809999MA1102401999999MW1721
0047010015999991992011309504+61450+005867FM-15+0150ENBL V0202201N00151001501CN0010001N1+00001+00001999999ADDAG12999GA1091+001509999MA1102301999999MW1721
0063010015999991992011310504+61450+005867FM-15+0150ENBL V0202301N00211003001CN0050001N1+00101+00101999999ADDAG11999GA1021+000609079GA2061+003009059MA1102301999999MW1831
0063010015999991992011311504+61450+005867FM-15+0150ENBL V0202001N00211003001CN0040001N1+00101+00101999999ADDAG11000GA1021+000159079GA2061+003009059MA1102201999999MW1831
0079010015999991992011312504+61450+005867FM-15+0150ENBL V0202401N00211004501CN0040001N1+00001+00001999999ADDAG11999GA1031+003609079GA2061+004509059GA3091+999999999MA1102101999999MW1831
0100010015999991992011313504+61450+005867FM-15+0150ENBL V0202201N00151003601CN0040001N1+00101+00101999999ADDAG11999GA1021+000609079GA2041+003609079GA3061+006009059MA1102001999999MW1611REMMET01240BCFG     ?
0102010015999991992011314504+61450+005867FM-15+0150ENBL V0202001N00261003601CN0050001N1+00201+00201999999ADDAG11001GA1021+000609079GA2041+003609079GA3061+006009059MA1101901999999MW1611REMMET014VIS TOW W 3000
0079010015999991992011315504+61450+005867FM-15+0150ENBL V0202101N00261003601CN0050001N1+00301+00301999999ADDAG11999GA1021+000609079GA2041+003609079GA3061+006009059MA1101901999999MW1611
0047010015999991992011316504+61450+005867FM-15+0150ENBL V0202001N00261220001CN0025001N1+00301+00301999999ADDAG11999GA1021+000609079MA1101901999999MW1611
0060010015999991992011317504+61450+005867FM-15+0150ENBL V0202001N00311003301CN0010001N1+00301+00301999999ADDAG11003GA1091+003309999MA1101901999999MW1631REMMET004MIST
0063010015999991992011318504+61450+005867FM-15+0150ENBL V0202401N00261005401CN0030001N1+00301+00301999999ADDAG12999GA1021+001509079GA2071+005409059MA1101801999999MW1611
0060010015999991992011319504+61450+005867FM-15+0150ENBL V0202201N00211003301CN0008001N1+00301+00301999999ADDAG12999GA1091+003309999MA1101801999999MW1531REMMET00446FG
0100010015999991992011404504+61450+005867FM-15+0150ENBL V0202501N00211003001CN0010001N1+00501+00501999999ADDAG12999GA1021+000159079GA2041+003009079GA3061+004509059MA1101901999999MW1611REMMET01241BCFG     ?
0062010015999991992011405504+61450+005867FM-15+0150ENBL V0202201N00261003001CN0008001N1+00501+00501999999ADDAG12001GA1091+003009999MA1101901999999MW1611REMMET00641BCFG
0062010015999991992011406504+61450+005867FM-15+0150ENBL V0202401N00211003001CN0018001N1+00501+00501999999ADDAG12999GA1091+003009999MA1101901999999MW1611REMMET00640BCFG
0062010015999991992011407504+61450+005867FM-15+0150ENBL V0202401N00361220001CN0020001N1+00501+00501999999ADDAG12999GA1031+000609079MA1102001999999MW1601REMMET00640BCFG
0084010015999991992011408504+61450+005867FM-15+0150ENBL V0202401N00411220001CN0012001N1+00501+00501999999ADDAG12000GA1031+000609079GA2091+999999999MA1102001999999MW1581REMMET01240BCFG     ?
0060010015999991992011410504+61450+005867FM-15+0150ENBL V0202201N00261000601CN0002001N1+00401+00401999999ADDAG12999GA1091+000609999MA1102101999999MW1581REMMET00447FG
0060010015999991992011411504+61450+005867FM-15+0150ENBL V0202301N00261001201CN0004001N1+00401+00401999999ADDAG12000GA1091+001209999MA1102201999999MW1581REMMET00445FG
0076010015999991992011412504+61450+005867FM-15+0150ENBL V0202601N00361220001CN0008001N1+00401+00401999999ADDAG12999GA1031+000609079GA2091+999999999MA1102201999999MW1581REMMET00443FG
0060010015999991992011413504+61450+005867FM-15+0150ENBL V0202501N00411001201CN0003001N1+00401+00401999999ADDAG12999GA1091+001209999MA1102201999999MW1511REMMET00447FG
0047010015999991992011414504+61450+005867FM-15+0150ENBL V0202401N00411001501CN0010001N1+00401+00401999999ADDAG11000GA1091+001509999MA1102201999999MW1501
0058010015999991992011415504+61450+005867FM-15+0150ENBL V0202501N00411001501CN0012001N1+00401+00401999999ADDAG12999GA1091+001509999MA1102201999999MW1501REMMET002FG
0058010015999991992011416504+61450+005867FM-15+0150ENBL V0202401N00311001201CN0008001N1+00401+00401999999ADDAG12999GA1091+001209999MA1102301999999MW1501REMMET002FG
0058010015999991992011418504+61450+005867FM-15+0150ENBL V0202201N00151000901CN0008001N1+00401+00401999999ADDAG12999GA1091+000909999MA1102401999999MW1501REMMET002FG
0063010015999991992011504504+61450+005867FM-15+0150ENBL V0202201N00361006001CN0080001N1+00301+00301999999ADDAG11999GA1031+004509059GA2061+006009059MA1102511999999MW1101
0063010015999991992011505504+61450+005867FM-15+0150ENBL V0202401N00211006601CN0070001N1+00301+00301999999ADDAG11000GA1031+004509059GA2061+006609059MA1102511999999MW1501
0063010015999991992011506504+61450+005867FM-15+0150ENBL V0202401N00261005701CN0070001N1+00301+00301999999ADDAG11999GA1031+003609059GA2061+005709059MA1102511999999MW1501
0079010015999991992011507504+61450+005867FM-15+0150ENBL V0202101N00261007501CN0080001N1+00301+00301999999ADDAG12999GA1011+002109079GA2031+004509079GA3061+007509059MA1102511999999MW1501
0063010015999991992011508504+61450+005867FM-15+0150ENBL V0202301N00411006001CN0070001N1+00301+00301999999ADDAG11000GA1021+000909079GA2051+006009089MA1102511999999MW1501
0079010015999991992011509504+61450+005867FM-15+0150ENBL V0202001N00311003601CN0050001N1+00401+00401999999ADDAG11999GA1021+000909079GA2041+003609059GA3061+006009089MA1102511999999MW1501
0079010015999991992011510504+61450+005867FM-15+0150ENBL V0201901N00261003001CN0025001N1+00401+00401999999ADDAG11999GA1021+000159079GA2041+003009059GA3061+006009059MA1102511999999MW1501
0079010015999991992011511504+61450+005867FM-15+0150ENBL V0201801N00151003301CN0020001N1+00401+00401999999ADDAG12000GA1011+000159079GA2031+001209079GA3061+003309059MA1102401999999MW1501
0102010015999991992011513504+61450+005867FM-15+0150ENBL V0202201N00211002101CN0025001N1+00401+00401999999ADDAG12999GA1021+000909079GA2051+002109079GA3061+006009059MA1102301999999MW1501REMMET014VIS TOW S 6000
0079010015999991992011514504+61450+005867FM-15+0150ENBL V0209991V00151006001CN0030001N1+00301+00301999999ADDAG12000GA1011+000159079GA2041+001509079GA3061+006009059MA1102301999999MW1501
0100010015999991992011515504+61450+005867FM-15+0150ENBL V0209991V00101003601CN0112001N1+00301+00301999999ADDAG12999GA1021+001509079GA2041+003609079GA3061+006009059MA1102301999999MW1251REMMET012PM14KT     ?
0079010015999991992011516504+61450+005867FM-15+0150ENBL V0202201N00311003601CN0060001N1+00301+00201999999ADDAG12999GA1021+002109079GA2041+003609079GA3061+006009059MA1102301999999MW1801
0079010015999991992011517504+61450+005867FM-15+0150ENBL V0202301N00361003601CN0060001N1+00301+00201999999ADDAG12001GA1021+001509079GA2041+003609079GA3061+006009059MA1102201999999MW1611
0063010015999991992011518504+61450+005867FM-15+0150ENBL V0201901N00211003001CN0060001N1+00301+00201999999ADDAG12999GA1021+001209079GA2061+003009059MA1102201999999MW1601
0079010015999991992011604504+61450+005867FM-15+0150ENBL V0202201N00571001501CN0020001N1+00201+00101999999ADDAG12999GA1021+000609079GA2041+001509079GA3071+003009079MA1101191999999MW1611
0060010015999991992011605504+61450+005867FM-15+0150ENBL V0202101N00261001501CN0005001N1+00201+00101999999ADDAG11001GA1091+001509999MA1101081999999MW1611REMMET00447FG
0062010015999991992011606504+61450+005867FM-15+0150ENBL V0202601N00361003001CN0020001N1+00201+00101999999ADDAG11999GA1091+003009999MA1101021999999MW1611REMMET006PM17KT
0100010015999991992011607504+61450+005867FM-15+0150ENBL V0202401N00571006001CN0020001N1+00201+00101999999ADDAG11999GA1041+000909079GA2061+006009059GA3091+999999999MA1100811999999MW1611REMMET01240BCFG     ?
0110010015999991992011608504+61450+005867FM-15+0150ENBL V0202201N00311002101CN0060001N1+00201+00101999999ADDAG11001GA1021+000609079GA2031+002109079GA3061+004509059MA1100711999999MW1611REMMET022PM 18KT VIS TOW E 2000
0094010015999991992011610504+61450+005867FM-15+0150ENBL V0202601N01131005401CN0112001N1+00401-00301999999ADDAG11999GA1031+003009099GA2061+005409089MA1100511999999MW1871OC101901REMMET014VIS TOW W 3000
0117010015999991992011611504+61450+005867FM-15+0150ENBL V0202601N00931005401CN0112001N1+00301-00201999999ADDAG12001GA1031+003009099GA2061+005409089MA1100611999999MW1801OC101441REMMET037PM 39KT          ?     VIS TOW W 3000
0094010015999991992011612504+61450+005867FM-15+0150ENBL V0202801N00881004801CN0080001N1+00301-00101999999ADDAG12999GA1031+003009099GA2061+004809089MA1100611999999MW1831OC101541REMMET014VIS TOW W 3000
0059010015999991992011613504+61450+005867FM-15+0150ENBL V0202901N00721004501CN0112001N1+00201-00201999999ADDAG12999GA1061+004509089MW1831OC101291EQDQ01+030033APOA  
0072010015999991992011614504+61450+005867FM-15+0150ENBL V0202901N00671004501CN0112001N1+00101-00201999999ADDAG12000GA1061+004509089MA1101021999999MW1831OC101031REMMET008PM 29KTS
0055010015999991992011615504+61450+005867FM-15+0150ENBL V0203001N00981004501CN0112001N1+00001-00601999999ADDAG12999GA1061+004509089MA1101191999999MW1831OC101541
0055010015999991992011616504+61450+005867FM-15+0150ENBL V0202901N00771006001CN0112001N1-00101-00501999999ADDAG12999GA1051+006009089MA1101391999999MW1831OC101291
0047010015999991992011617504+61450+005867FM-15+0150ENBL V0203001N00621006001CN0112001N1-00201-00401999999ADDAG12000GA1051+006009089MA1101591999999MW1851
0055010015999991992011618504+61450+005867FM-15+0150ENBL V0202901N00511003301CN0030001N1-00201-00301999999ADDAG12999GA1091+003309999MA1101691999999MW1721OC100931
0047010015999991992011619504+61450+005867FM-15+0150ENBL V0202901N00771012001CN0050001N1-00101-00601999999ADDAG12999GA1091+012009999MA1101801999999MW1711
0071010015999991992011704504+61450+005867FM-15+0150ENBL V0202901N00461015001CN0112001N1-00201-00801999999ADDAG11999GA1021+006009089GA2041+015009039MA1102301999999MW1261OC100981
0063010015999991992011705504+61450+005867FM-15+0150ENBL V0203001N00361015001CN0112001N1-00201-00601999999ADDAG12000GA1021+006009089GA2041+015009039MA1102401999999MW1261
0076010015999991992011706504+61450+005867FM-15+0150ENBL V0203001N00261015001CN0112001N1-00101-00601999999ADDAG11999GA1021+006009089GA2041+015009039MA1102401999999EQDQ01+000000PRSWM2
0076010015999991992011707504+61450+005867FM-15+0150ENBL V0202901N00311013501CN0112001N1-00101-00601999999ADDAG11999GA1031+007509089GA2051+013509059MA1102401999999EQDQ01+000000PRSWM2
0076010015999991992011708504+61450+005867FM-15+0150ENBL V0202601N00261013501CN0112001N1-00101-00601999999ADDAG12000GA1031+007509059GA2061+013509059MA1102401999999EQDQ01+000000PRSWM2
0076010015999991992011709504+61450+005867FM-15+0150ENBL V0202301N00151013501CN0112001N1-00101-00601999999ADDAG12999GA1031+007509059GA2051+013509059MA1102401999999EQDQ01+000000PRSWM2
0076010015999991992011710504+61450+005867FM-15+0150ENBL V0202101N00101012001CN0112001N1-00101-00601999999ADDAG12999GA1021+007509059GA2051+012009059MA1102401999999EQDQ01+000000PRSWM2
0076010015999991992011711504+61450+005867FM-15+0150ENBL V0209991V00101012001CN0112001N1+00001-00601999999ADDAG12000GA1031+007509059GA2061+012009059MA1102401999999EQDQ01+000000PRSWM2
0092010015999991992011712504+61450+005867FM-15+0150ENBL V0202401N00211012001CN0112001N1+00001-00501999999ADDAG12999GA1011+004509079GA2031+007509059GA3061+012009059MA1102401999999EQDQ01+000000PRSWM2
0076010015999991992011713504+61450+005867FM-15+0150ENBL V0202101N00261012001CN0112001N1+00001-00501999999ADDAG12999GA1031+007509059GA2061+012009059MA1102401999999EQDQ01+000000PRSWM2
0063010015999991992011714504+61450+005867FM-15+0150ENBL V0201901N00051007501CN0080001N1-00101-00301999999ADDAG12000GA1021+003009079GA2061+007509059MA1102301999999MW1701
0047010015999991992011715504+61450+005867FM-15+0150ENBL V0201701N00101006001CN0025001N1-00101-00101999999ADDAG12999GA1091+006009999MA1102301999999MW1711
0047010015999991992011716504+61450+005867FM-15+0150ENBL V0201901N00151001801CN0010001N1-00101-00101999999ADDAG12999GA1091+001809999MA1102301999999MW1731
0047010015999991992011717504+61450+005867FM-15+0150ENBL V0201701N00101002401CN0015001N1-00101-00101999999ADDAG11001GA1091+002409999MA1102201999999MW1731
0059010015999991992011718504+61450+005867FM-15+0150ENBL V0201701N00101001501CN0005001N1-00101-00101999999ADDAG12999GA1091+001509999MA1102201999999MW1731REMMET003FOG
0063010015999991992011806504+61450+005867FM-15+0150ENBL V0209999999999003601CN0025001N1+00301+00301999999ADDAG12999GA1031+001209079GA2061+003609059MA1101591999999MW1531
0063010015999991992011807504+61450+005867FM-15+0150ENBL V0201601N00051003601CN0025001N1+00401+00401999999ADDAG11999GA1031+001209079GA2061+003609059MA1101591999999MW1531
0079010015999991992011808504+61450+005867FM-15+0150ENBL V0202401N00151003301CN0025001N1+00401+00401999999ADDAG11000GA1011+000609079GA2021+001209079GA3061+003309059MA1101591999999MW1501
0063010015999991992011809504+61450+005867FM-15+0150ENBL V0202301N00151999999CN0010001N1+00401+00401999999ADDAG12999GA1031+000609079GA2021+999999079MA1101591999999MW1501
0092010015999991992011810504+61450+005867FM-15+0150ENBL V0202101N001010045019N0015001N1+00401+00401999999ADDAG12999GA1051+004509059GA2021+006009079GA3021+999999079MA1101591999999EQDQ01+000000PRSWM2
0047010015999991992011811504+61450+005867FM-15+0150ENBL V0202101N00151001201CN0005001N1+00401+00401999999ADDAG12000GA1091+001209999MA1101491999999MW1461
0047010015999991992011812504+61450+005867FM-15+0150ENBL V0202201N00101001501CN0005001N1+00401+00401999999ADDAG12999GA1091+001509999MA1101491999999MW1451
0047010015999991992011813504+61450+005867FM-15+0150ENBL V0202001N00101001501CN0005001N1+00401+00401999999ADDAG12999GA1091+001509999MA1101391999999MW1451
0044010015999991992011910504+61450+005867FM-15+0150ENBL V0202001N00151220001CN0112001N1+00301+00001999999ADDAG12999MA1101691999999EQDQ01+000000PRSWM2
0044010015999991992011911504+61450+005867FM-15+0150ENBL V0200201N00151220001CN0112001N1+00401+00001999999ADDAG12000MA1101801999999EQDQ01+000000PRSWM2
0060010015999991992011912504+61450+005867FM-15+0150ENBL V0209991V00151220001CN0112001N1+00401+00001999999ADDAG12999GA1021+060009009MA1101901999999EQDQ01+000000PRSWM2
0060010015999991992011913504+61450+005867FM-15+0150ENBL V0209991V00101220001CN0112001N1+00301+00001999999ADDAG11999GA1021+060009009MA1102001999999EQDQ01+000000PRSWM2
0060010015999991992011914504+61450+005867FM-15+0150ENBL V0200501N00151220001CN0112001N1+00301+00101999999ADDAG11000GA1021+060009009MA1102101999999EQDQ01+000000PRSWM2
0060010015999991992011915504+61450+005867FM-15+0150ENBL V0202801N00151220001CN0112001N1+00101+00001999999ADDAG11999GA1021+060009009MA1102201999999EQDQ01+000000PRSWM2
0060010015999991992011916504+61450+005867FM-15+0150ENBL V0202701N00151220001CN0112001N1+00101+00001999999ADDAG12999GA1021+060009009MA1102301999999EQDQ01+000000PRSWM2
0044010015999991992011917504+61450+005867FM-15+0150ENBL V0202501N00211220001CN0112001N1+00101+00001999999ADDAG11000MA1102301999999EQDQ01+000000PRSWM2
0044010015999991992011918504+61450+005867FM-15+0150ENBL V0202101N00211220001CN0112001N1+00001-00101999999ADDAG11999MA1102401999999EQDQ01+000000PRSWM2
0060010015999991992011919504+61450+005867FM-15+0150ENBL V0202001N00151220001CN0112001N1+00101-00201999999ADDAG12999GA1021+018009039MA1102511999999EQDQ01+000000PRSWM2
0063010015999991992012004504+61450+005867FM-15+0150ENBL V0201901N00261002701CN0030001N1+00101+00101999999ADDAG11999GA1021+000909079GA2071+002709079MA1103121999999MW1511
0047010015999991992012005504+61450+005867FM-15+0150ENBL V0202001N00311220001CN0030001N1+00101+00101999999ADDAG12000GA1021+000909079MA1103121999999MW1511
0063010015999991992012006504+61450+005867FM-15+0150ENBL V0201801N00151004201CN0030001N1+00001+00001999999ADDAG11999GA1021+000909079GA2071+004209059MA1103121999999MW1831
0063010015999991992012007504+61450+005867FM-15+0150ENBL V0202001N00211004501CN0030001N1+00001+00001999999ADDAG11999GA1021+000909079GA2041+004509059MA1103181999999MW1831
0063010015999991992012008504+61450+005867FM-15+0150ENBL V0209991C00001004501CN0050001N1+00001+00001999999ADDAG11000GA1021+000909079GA2061+004509059MA1103181999999MW1601
0063010015999991992012009504+61450+005867FM-15+0150ENBL V0201801N00101004501CN0112001N1+00001+00001999999ADDAG11999GA1021+001509079GA2061+004509059MA1103181999999MW1211
0063010015999991992012010504+61450+005867FM-15+0150ENBL V0201901N00151006001CN0112001N1+00101+00101999999ADDAG11999GA1021+001809079GA2061+006009089MA1103291999999MW1851
0076010015999991992012011504+61450+005867FM-15+0150ENBL V0202101N00151004501CN0112001N1+00101+00101999999ADDAG11000GA1021+001209079GA2071+004509059MA1103291999999EQDQ01+000000PRSWM2
0063010015999991992012012504+61450+005867FM-15+0150ENBL V0202001N00151006001CN0112001N1+00101+00001999999ADDAG11999GA1021+001509079GA2071+006009059MA1103291999999MW1601
0076010015999991992012014504+61450+005867FM-15+0150ENBL V0201901N00211001501CN0112001N1+00101+00001999999ADDAG12000GA1051+001509079GA2071+005109059MA1103291999999EQDQ01+000000PRSWM2
0076010015999991992012015504+61450+005867FM-15+0150ENBL V0209991V00151004501CN0112001N1+00101+00001999999ADDAG12999GA1021+001509079GA2071+004509059MA1103291999999EQDQ01+000000PRSWM2
0076010015999991992012017504+61450+005867FM-15+0150ENBL V0202001N00101004501CN0112001N1+00101+00001999999ADDAG12000GA1011+001509079GA2061+004509059MA1103291999999EQDQ01+000000PRSWM2
0092010015999991992012019504+61450+005867FM-15+0150ENBL V0201801N00051012001CN0112001N1+00101+00001999999ADDAG12999GA1011+001509079GA2031+004509059GA3061+012009039MA1103391999999EQDQ01+000000PRSWM2
0092010015999991992012020504+61450+005867FM-15+0150ENBL V0201701N00101012001CN0112001N1+00101+00001999999ADDAG12000GA1011+003009079GA2031+005409059GA3051+012009039MA1103391999999EQDQ01+000000PRSWM2
0076010015999991992012104504+61450+005867FM-15+0150ENBL V0201101N00101004201CN0112001N1+00001-00101999999ADDAG11999GA1021+002409079GA2071+004209059MA1103391999999EQDQ01+000000PRSWM2
0060010015999991992012105504+61450+005867FM-15+0150ENBL V0201801N00101004501CN0112001N1+00001-00101999999ADDAG12000GA1071+004509059MA1103391999999EQDQ01+000000PRSWM2
0060010015999991992012106504+61450+005867FM-15+0150ENBL V0201801N00101004501CN0112001N1+00001-00101999999ADDAG12999GA1071+004509059MA1103391999999EQDQ01+000000PRSWM2
0047010015999991992012107504+61450+005867FM-15+0150ENBL V0202901N00151004501CN0112001N1+00001-00101999999ADDAG12999GA1071+004509059MA1103491999999MW1851
0063010015999991992012108504+61450+005867FM-15+0150ENBL V0202601N00151004501CN0112001N1+00001-00101999999ADDAG12000GA1021+001809079GA2061+004509059MA1103491999999MW1261
0060010015999991992012109504+61450+005867FM-15+0150ENBL V0202201N00101006001CN0112001N1+00001-00101999999ADDAG12999GA1051+006009059MA1103491999999EQDQ01+000000PRSWM2
0076010015999991992012110504+61450+005867FM-15+0150ENBL V0202301N00151006001CN0112001N1+00101+00001999999ADDAG11999GA1011+003009079GA2051+006009059MA1103491999999EQDQ01+000000PRSWM2
0076010015999991992012111504+61450+005867FM-15+0150ENBL V0202001N00151006001CN0112001N1+00101-00101999999ADDAG11000GA1021+003009079GA2051+006009059MA1103491999999EQDQ01+000000PRSWM2
0076010015999991992012112504+61450+005867FM-15+0150ENBL V0202001N00211007501CN0112001N1+00101-00101999999ADDAG11999GA1021+003009079GA2061+007509059MA1103491999999EQDQ01+000000PRSWM2
0076010015999991992012113504+61450+005867FM-15+0150ENBL V0201801N00261007501CN0112001N1+00101-00201999999ADDAG11999GA1021+003009079GA2061+007509059MA1103391999999EQDQ01+000000PRSWM2
0092010015999991992012114504+61450+005867FM-15+0150ENBL V0201901N00311009001CN0112001N1+00101-00201999999ADDAG11000GA1011+003009079GA2031+006009059GA3061+009009059MA1103391999999EQDQ01+000000PRSWM2
0092010015999991992012115504+61450+005867FM-15+0150ENBL V0201901N00311007501CN0112001N1+00101-00101999999ADDAG11999GA1011+003009079GA2031+004809059GA3061+007509059MA1103391999999EQDQ01+000000PRSWM2
0076010015999991992012116504+61450+005867FM-15+0150ENBL V0201401N00311006901CN0112001N1+00001-00201999999ADDAG11999GA1031+004809059GA2061+006909059MA1103391999999EQDQ01+000000PRSWM2
0076010015999991992012117504+61450+005867FM-15+0150ENBL V0201501N00461007501CN0112001N1+00101-00401999999ADDAG11000GA1031+004809059GA2061+007509059MA1103391999999EQDQ01+000000PRSWM2
0076010015999991992012118504+61450+005867FM-15+0150ENBL V0201601N00211007501CN0112001N1+00001-00401999999ADDAG11999GA1031+004809059GA2061+007509059MA1103391999999EQDQ01+000000PRSWM2
0076010015999991992012204504+61450+005867FM-15+0150ENBL V0201701N00461009001CN0112001N1+00101-00501999999ADDAG11999GA1021+006009059GA2061+009009059MA1103121999999EQDQ01+000000PRSWM2
0076010015999991992012205504+61450+005867FM-15+0150ENBL V0201701N00721009001CN0112001N1+00101-00501999999ADDAG12000GA1021+006009059GA2061+009009059MA1103011999999EQDQ01+000000PRSWM2
0084010015999991992012206504+61450+005867FM-15+0150ENBL V0201901N00671009901CN0112001N1+00101-00601999999ADDAG12999GA1021+006009059GA2061+009909059MA1103011999999OC101181EQDQ01+000000PRSWM2
0084010015999991992012207504+61450+005867FM-15+0150ENBL V0202001N00721010501CN0112001N1+00101-00601999999ADDAG12999GA1021+006009089GA2051+010509059MA1103011999999OC101441EQDQ01+000000PRSWM2
0076010015999991992012208504+61450+005867FM-15+0150ENBL V0202001N00721009001CN0112001N1+00101-00601999999ADDAG11000GA1021+006009089GA2051+009009059MA1103011999999EQDQ01+000000PRSWM2
0076010015999991992012209504+61450+005867FM-15+0150ENBL V0201901N00771009001CN0112001N1+00101-00601999999ADDAG12999GA1021+006009089GA2051+009009059MA1103011999999EQDQ01+000000PRSWM2
0084010015999991992012210504+61450+005867FM-15+0150ENBL V0201901N00931009001CN0112001N1+00101-00601999999ADDAG12999GA1021+006009089GA2051+009009059MA1103011999999OC101441EQDQ01+000000PRSWM2
0084010015999991992012211504+61450+005867FM-15+0150ENBL V0202101N00931060001CN0112001N1+00101-00601999999ADDAG11000GA1021+009009089GA2051+060009009MA1102911999999OC101541EQDQ01+000000PRSWM2
0084010015999991992012212504+61450+005867FM-15+0150ENBL V0202201N00821060001CN0112001N1+00101-00601999999ADDAG11999GA1021+009009089GA2041+060009009MA1102911999999OC101391EQDQ01+000000PRSWM2
0084010015999991992012213504+61450+005867FM-15+0150ENBL V0202201N00931220001CN0112001N1+00101-00601999999ADDAG11999GA1011+009009089GA2031+024009039MA1102811999999OC101391EQDQ01+000000PRSWM2
0060010015999991992012215504+61450+005867FM-15+0150ENBL V0202301N00571220001CN0112001N1+00101-00601999999ADDAG11999GA1021+024009039MA1102911999999EQDQ01+000000PRSWM2
0076010015999991992012216504+61450+005867FM-15+0150ENBL V0202401N00621220001CN0112001N1+00101-00601999999ADDAG11999GA1031+007509089GA2021+024009039MA1103011999999EQDQ01+000000PRSWM2
0076010015999991992012217504+61450+005867FM-15+0150ENBL V0202201N00771024001CN0112001N1+00101-00601999999ADDAG11000GA1031+007509089GA2041+024009039MA1103011999999EQDQ01+000000PRSWM2
0060010015999991992012218504+61450+005867FM-15+0150ENBL V0202101N00821220001CN0112001N1+00101-00601999999ADDAG11999GA1041+024009039MA1103011999999EQDQ01+000000PRSWM2
0076010015999991992012304504+61450+005867FM-15+0150ENBL V0202401N00511220001CN0112001N1+00001-00601999999ADDAG11999GA1011+009009059GA2031+036009039MA1103121999999EQDQ01+000000PRSWM2
0060010015999991992012305504+61450+005867FM-15+0150ENBL V0202401N00361220001CN0112001N1+00001-00901999999ADDAG11000GA1021+036009039MA1103011999999EQDQ01+000000PRSWM2
0060010015999991992012306504+61450+005867FM-15+0150ENBL V0202201N00311220001CN0112001N1+00001-00901999999ADDAG11999GA1021+036009039MA1103121999999EQDQ01+000000PRSWM2
0060010015999991992012307504+61450+005867FM-15+0150ENBL V0202101N00361220001CN0112001N1+00001-01001999999ADDAG11999GA1021+036009059MA1103121999999EQDQ01+000000PRSWM2
0060010015999991992012308504+61450+005867FM-15+0150ENBL V0202401N00361220001CN0112001N1+00001-01001999999ADDAG12000GA1011+012009059MA1103121999999EQDQ01+000000PRSWM2
0060010015999991992012309504+61450+005867FM-15+0150ENBL V0202401N00461220001CN0112001N1+00001-01001999999ADDAG11999GA1011+012009059MA1103011999999EQDQ01+000000PRSWM2
0060010015999991992012312504+61450+005867FM-15+0150ENBL V0202401N00461220001CN0112001N1+00101-01301999999ADDAG11999GA1021+012009059MA1103011999999EQDQ01+000000PRSWM2
0076010015999991992012314504+61450+005867FM-15+0150ENBL V0202301N00511045001CN0112001N1+00201-01301999999ADDAG11000GA1021+012009059GA2061+045009049MA1103011999999EQDQ01+000000PRSWM2
0076010015999991992012316504+61450+005867FM-15+0150ENBL V0202401N00361045001CN0112001N1+00101-01301999999ADDAG11999GA1021+015009059GA2041+045009049MA1102911999999EQDQ01+000000PRSWM2
0076010015999991992012317504+61450+005867FM-15+0150ENBL V0202101N00261220001CN0112001N1+00001-01301999999ADDAG11000GA1011+012009059GA2031+045009049MA1102911999999EQDQ01+000000PRSWM2
0044010015999991992012404504+61450+005867FM-15+0150ENBL V0202701N00511220001CN0112001N1+00201-00701999999ADDAG11999MA1102811999999EQDQ01+000000PRSWM2
0044010015999991992012405504+61450+005867FM-15+0150ENBL V0209991V00101220001CN0112001N1+00101-00701999999ADDAG12000MA1102911999999EQDQ01+000000PRSWM2
0044010015999991992012406504+61450+005867FM-15+0150ENBL V0202901N00261220001CN0112001N1+00101-00601999999ADDAG12999MA1102911999999EQDQ01+000000PRSWM2
0044010015999991992012407504+61450+005867FM-15+0150ENBL V0201901N00151220001CN0112001N1+00001-00601999999ADDAG12999MA1102911999999EQDQ01+000000PRSWM2
0044010015999991992012408504+61450+005867FM-15+0150ENBL V0209991V00151220001CN0112001N1+00001-00601999999ADDAG12000MA1102911999999EQDQ01+000000PRSWM2
0044010015999991992012409504+61450+005867FM-15+0150ENBL V0202601N00211220001CN0112001N1+00101-00601999999ADDAG11999MA1102911999999EQDQ01+000000PRSWM2
0044010015999991992012411504+61450+005867FM-15+0150ENBL V0209991V00151220001CN0112001N1+00201-00501999999ADDAG11000MA1102811999999EQDQ01+000000PRSWM2
0076010015999991992012412504+61450+005867FM-15+0150ENBL V0209991V00151220001CN0112001N1+00201-00601999999ADDAG11999GA1011+012009059GA2031+030009039MA1102811999999EQDQ01+000000PRSWM2
0076010015999991992012413504+61450+005867FM-15+0150ENBL V0202501N00311220001CN0112001N1+00201-00701999999ADDAG11999GA1011+012009059GA2031+030009039MA1102811999999EQDQ01+000000PRSWM2
0060010015999991992012414504+61450+005867FM-15+0150ENBL V0202501N00261220001CN0112001N1+00001-00801999999ADDAG11000GA1021+012009059MA1102811999999EQDQ01+000000PRSWM2
0076010015999991992012415504+61450+005867FM-15+0150ENBL V0202101N00151220001CN0112001N1+00001-00801999999ADDAG12999GA1011+012009059GA2041+024009039MA1102811999999EQDQ01+000000PRSWM2
0076010015999991992012416504+61450+005867FM-15+0150ENBL V0209991V00101220001CN0112001N1-00101-00801999999ADDAG12999GA1011+012009059GA2041+024009039MA1102811999999EQDQ01+000000PRSWM2
0060010015999991992012417504+61450+005867FM-15+0150ENBL V0202201N00461008401CN0112001N1+00101-00701999999ADDAG12000GA1061+008409059MA1102811999999EQDQ01+000000PRSWM2
0068010015999991992012418504+61450+005867FM-15+0150ENBL V0202201N00621006601CN0112001N1+00101-00501999999ADDAG12999GA1061+006609059MA1102711999999OC101131EQDQ01+000000PRSWM2
0068010015999991992012419504+61450+005867FM-15+0150ENBL V0202101N00721005401CN0112001N1+00101-00301999999ADDAG12999GA1061+005409059MA1102711999999OC101241EQDQ01+000000PRSWM2
0071010015999991992012507504+61450+005867FM-15+0150ENBL V0202201N00721005401CN0112001N1+00301-00101999999ADDAG11999GA1021+003009079GA2061+005409059MA1101801999999MW1211OC101391
0087010015999991992012508504+61450+005867FM-15+0150ENBL V0202301N00931005401CN0112001N1+00301-00101999999ADDAG12001GA1021+003609079GA2061+005409059MA1101591999999MW1801OC101441REMMET007PM 38KT
0071010015999991992012509504+61450+005867FM-15+0150ENBL V0202201N00771004501CN0060001N1+00301+00201999999ADDAG12999GA1021+003009079GA2061+004509059MA1101591999999MW1801OC101341
0055010015999991992012510504+61450+005867FM-15+0150ENBL V0202201N00821003601CN0030001N1+00201+00201999999ADDAG12999GA1091+003609999MA1101491999999MW1801OC101441
0062010015999991992012511504+61450+005867FM-15+0150ENBL V0202601N00261220001CN0030001N1+00101+00101999999ADDAG12001GA1031+001209079MA1101391999999MW1801REMMET006PM26KT
0078010015999991992012512504+61450+005867FM-15+0150ENBL V0202601N00461220001CN0030001N1+00101+00101999999ADDAG12999GA1011+001209079MA1101291999999MW1801OC100981REMMET014VIS TOW S 5000
0100010015999991992012513504+61450+005867FM-15+0150ENBL V0202401N00361004201CN0060001N1+00101+00001999999ADDAG12999GA1011+001509079GA2031+003009059GA3061+004209059MA1101291999999MW1801REMMET012PM17KT     ?
0104010015999991992012611504+61450+005867FM-15+0150ENBL V0201901N00101220001CN0012001N1+00001+00001999999ADDAG12000GA1031+001509079GA2091+999999999MA1103491999999MW1701REMMET03240BCFG     ?     VIS TOW SE 5000
0094010015999991992012612504+61450+005867FM-15+0150ENBL V0209991V00101220001CN0012001N1+00001+00001999999ADDAG12999GA1031+001509079GA2091+999999999MA1103491999999MW1681REMMET02240BCFG VIS TOW SE 5000
0079010015999991992012613504+61450+005867FM-15+0150ENBL V0209991V00101003601CN0040001N1+00101+00101999999ADDAG12999GA1031+001509079GA2061+003609059GA3091+999999999MA1103491999999MW1401
0115010015999991992012614504+61450+005867FM-15+0150ENBL V0209991V00151002401CN0112001N1+00101+00101999999ADDAG12000GA1021+000909079GA2031+002409079GA3061+004209059MA1103491999999REMMET014VIS TOW E 4000EQDQ01+000000PRSWM2
0079010015999991992012615504+61450+005867FM-15+0150ENBL V0201601N00151001501CN0030001N1+00101+00101999999ADDAG12999GA1021+000909079GA2031+001509079GA3061+003009059MA1103491999999MW1401
0079010015999991992012616504+61450+005867FM-15+0150ENBL V0201401N00151001501CN0030001N1+00201+00201999999ADDAG12999GA1021+000909079GA2031+001509079GA3061+003009059MA1103491999999MW1401
0079010015999991992012617504+61450+005867FM-15+0150ENBL V0202601N00101006001CN0060001N1+00101+00101999999ADDAG12000GA1011+000909079GA2031+002109079GA3051+006009059MA1103591999999MW1401
0079010015999991992012618504+61450+005867FM-15+0150ENBL V0209991V00101002101CN0030001N1+00101+00101999999ADDAG12999GA1021+000159079GA2041+002109079GA3061+005409059MA1103591999999MW1401
0047010015999991992012619504+61450+005867FM-15+0150ENBL V0209991V00151002401CN0006001N1+00101+00101999999ADDAG12999GA1091+002409999MA1103591999999MW1501
0060010015999991992012704504+61450+005867FM-15+0150ENBL V0202201N00211001801CN0004001N1+00101+00101999999ADDAG11999GA1091+001809999MA1103691999999MW1511REMMET00447FG
0060010015999991992012705504+61450+005867FM-15+0150ENBL V0209991V00051002401CN0006001N1+00101+00101999999ADDAG11000GA1091+002409999MA1103691999999MW1511REMMET00445FG
0060010015999991992012706504+61450+005867FM-15+0150ENBL V0209991V00101002401CN0008001N1+00201+00201999999ADDAG11999GA1091+002409999MA1103691999999MW1501REMMET00443FG
0060010015999991992012708504+61450+005867FM-15+0150ENBL V0201801N00151001201CN0004001N1+00101+00101999999ADDAG11000GA1091+001209999MA1103791999999MW1501REMMET00445FG
0060010015999991992012710504+61450+005867FM-15+0150ENBL V0202001N00311002401CN0005001N1+00201+00201999999ADDAG11999GA1091+002409999MA1103791999999MW1501REMMET00447FG
0120010015999991992012711504+61450+005867FM-15+0150ENBL V0201501N00151003601CN0012001N1+00301+00301999999ADDAG11000GA1041+000609079GA2061+003609079GA3091+999999999MA1103691999999MW1501REMMET03240BCFG     ?     VIS TOW SE 5000
0060010015999991992012712504+61450+005867FM-15+0150ENBL V0202201N00311001501CN0003001N1+00301+00301999999ADDAG11999GA1091+001509999MA1103691999999MW1581REMMET00447FG
0058010015999991992012714504+61450+005867FM-15+0150ENBL V0202001N00211001201CN0005001N1+00301+00201999999ADDAG11000GA1091+001209999MA1103591999999MW1501REMMET002FG
0058010015999991992012716504+61450+005867FM-15+0150ENBL V0202201N00261001501CN0006001N1+00201+00101999999ADDAG11999GA1091+001509999MA1103591999999MW1501REMMET002FG
0092010015999991992012718504+61450+005867FM-15+0150ENBL V0201801N00101002401CN0009001N1+00201+00101999999ADDAG11999GA1031+000909079GA2051+002409079GA3071+003909059MA1103491999999MW1501REMMET004BCFG
0047010015999991992012804504+61450+005867FM-15+0150ENBL V0202001N00311001201CN0006001N1+00301+00201999999ADDAG11999GA1091+001209999MA1103181999999MW1601
0092010015999991992012806504+61450+005867FM-15+0150ENBL V0202301N00361003001CN0012001N1+00301+00201999999ADDAG11999GA1021+001509079GA2041+003009079GA3061+004509059MA1103291999999MW1581REMMET004BCFG
0076010015999991992012807504+61450+005867FM-15+0150ENBL V0202201N00311003001CN0006001N1+00301+00201999999ADDAG11999GA1031+001509079GA2061+003009079MA1103391999999MW1501REMMET004BCFG
0080010015999991992012808504+61450+005867FM-15+0150ENBL V0202301N00311003001CN0010001N1+00401+00301999999ADDAG11000GA1031+001509079GA2061+003009059MW1501REMMET004BCFGEQDQ01+030243APOA  
0076010015999991992012809504+61450+005867FM-15+0150ENBL V0202101N00101003001CN0009001N1+00301+00201999999ADDAG11999GA1031+001509079GA2061+003009059MA1103391999999MW1501REMMET004BCFG
0079010015999991992012810504+61450+005867FM-15+0150ENBL V0202601N00211001501CN0030001N1+00401+00301999999ADDAG11999GA1021+000609079GA2041+001509079GA3061+003009059MA1103491999999MW1401
0076010015999991992012811504+61450+005867FM-15+0150ENBL V0202001N00151002101CN0030001N1+00401+00301999999ADDAG11000GA1021+000909079GA2061+002109079MA1103591999999MW1501REMMET004BCFG
0114010015999991992012812504+61450+005867FM-15+0150ENBL V0202701N00211002401CN0030001N1+00401+00301999999ADDAG11999GA1021+000909079GA2041+002409079GA3061+006009059MA1103591999999MW1401REMMET026VIS        ?     SEC S 10+
0082010015999991992012813504+61450+005867FM-15+0150ENBL V0202501N00261004501CN0030001N1+00401+00301999999ADDAG11999GA1031+000909079GA2041+004509059MA1103591999999MW1401REMMET010VIS S.9999
0093010015999991992012815504+61450+005867FM-15+0150ENBL V0202401N00211004501CN0040001N1+00401+00301999999ADDAG11999GA1031+000909079GA2051+004509089MA1103691999999REMMET008VIS.S.99EQDQ01+000000PRSWM2
0076010015999991992012816504+61450+005867FM-15+0150ENBL V0202201N00261006001CN0112001N1+00401+00301999999ADDAG11999GA1031+001209079GA2061+006009089MA1103791999999EQDQ01+000000PRSWM2
0076010015999991992012817504+61450+005867FM-15+0150ENBL V0202301N00261007801CN0112001N1+00401+00301999999ADDAG11000GA1021+005409059GA2051+007809089MA1103791999999EQDQ01+000000PRSWM2
0076010015999991992012818504+61450+005867FM-15+0150ENBL V0202301N00211005401CN0112001N1+00401+00301999999ADDAG11999GA1021+003609079GA2061+005409059MA1103791999999EQDQ01+000000PRSWM2
0063010015999991992012904504+61450+005867FM-15+0150ENBL V0202101N00101007501CN0060001N1+00201+00101999999ADDAG11999GA1031+002109079GA2071+007509059MA1103791999999MW1501
0062010015999991992012905504+61450+005867FM-15+0150ENBL V0209991V00101003601CN0015001N1+00201+00201999999ADDAG11000GA1091+003609999MA1103791999999MW1511REMMET00640BCFG
0062010015999991992012906504+61450+005867FM-15+0150ENBL V0209991V00101001801CN0010001N1+00201+00201999999ADDAG11999GA1091+001809999MA1103791999999MW1511REMMET00640BCFG
0047010015999991992012907504+61450+005867FM-15+0150ENBL V0201701N00101001501CN0006001N1+00201+00201999999ADDAG11999GA1091+001509999MA1103791999999MW1471
0047010015999991992012908504+61450+005867FM-15+0150ENBL V0202001N00101001501CN0005001N1+00201+00201999999ADDAG11000GA1091+001509999MA1103791999999MW1451
0047010015999991992012909504+61450+005867FM-15+0150ENBL V0202001N00101001201CN0003001N1+00201+00201999999ADDAG11999GA1091+001209999MA1103791999999MW1471
0047010015999991992012910504+61450+005867FM-15+0150ENBL V0202001N00101001201CN0003001N1+00201+00201999999ADDAG11999GA1091+001209999MA1103791999999MW1451
0047010015999991992012911504+61450+005867FM-15+0150ENBL V0209991C00001001201CN0004001N1+00201+00201999999ADDAG11000GA1091+001209999MA1103791999999MW1451
0047010015999991992012912504+61450+005867FM-15+0150ENBL V0201201N00101001201CN0004001N1+00201+00201999999ADDAG11999GA1091+001209999MA1103791999999MW1451
0047010015999991992012913504+61450+005867FM-15+0150ENBL V0201801N00101001501CN0005001N1+00301+00301999999ADDAG11999GA1091+001509999MA1103791999999MW1451
0047010015999991992012914504+61450+005867FM-15+0150ENBL V0202001N00151001201CN0004001N1+00301+00301999999ADDAG11000GA1091+001209999MA1103791999999MW1471
0085010015999991992012915504+61450+005867FM-15+0150ENBL V0209991V00051004201CN0013001N1+00301+00301999999ADDAG11999GA1041+000159079GA2071+004209059MA1103791999999MW1401REMMET013VIS SEC E 4KM
0082010015999991992012916504+61450+005867FM-15+0150ENBL V0203301N00211002101CN0020001N1+00301+00301999999ADDAG11999GA1091+002109999MA1103791999999MW1411REMMET026VIS SEC E        ?     4KM
0063010015999991992012917504+61450+005867FM-15+0150ENBL V0203201N00211002101CN0030001N1+00201+00201999999ADDAG11000GA1031+001209079GA2061+002109079MA1103791999999MW1401
0079010015999991992013004504+61450+005867FM-15+0150ENBL V0209991V00051003001CN0080001N1+00301+00301999999ADDAG11999GA1021+000909079GA2051+003009079GA3071+007509059MA1103391999999MW1401
0079010015999991992013005504+61450+005867FM-15+0150ENBL V0209991V00101003001CN0080001N1+00301+00301999999ADDAG11000GA1021+000909079GA2051+003009079GA3071+007509059MA1103391999999MW1401
0102010015999991992013006504+61450+005867FM-15+0150ENBL V0201401N00101006601CN0012001N1+00201+00201999999ADDAG11999GA1031+003009079GA2061+006609059MA1103391999999MW1411REMMET030VIS SEC          ?     E-S 10+
0085010015999991992013007504+61450+005867FM-15+0150ENBL V0209991V00101006001CN0112001N1+00301+00301999999ADDAG11999GA1021+000609079GA2061+006009059MA1103491999999MW1401REMMET013VIS SEC W 2KM
0063010015999991992013008504+61450+005867FM-15+0150ENBL V0202601N00151006001CN0015001N1+00201+00201999999ADDAG11000GA1031+000159079GA2061+006009059MA1103491999999MW1411
0063010015999991992013009504+61450+005867FM-15+0150ENBL V0209991V00101009001CN0050001N1+00301+00301999999ADDAG11999GA1021+000609079GA2061+009009059MA1103491999999MW1401
0063010015999991992013010504+61450+005867FM-15+0150ENBL V0202501N00151009001CN0112001N1+00301+00301999999ADDAG11999GA1021+000309079GA2061+009009059MA1103491999999MW1401
0102010015999991992013013504+61450+005867FM-15+0150ENBL V0209991V00101007501CN0112001N1+00301+00301999999ADDAG11999GA1021+000609079GA2061+007509059GA3091+999999999MA1103391999999MW1401REMMET014VIS TOW W 5000
0079010015999991992013014504+61450+005867FM-15+0150ENBL V0202101N00101007501CN0112001N1+00301+00301999999ADDAG11000GA1021+000609079GA2061+007509059GA3091+999999999MA1103491999999MW1401
0103010015999991992013015504+61450+005867FM-15+0150ENBL V0202601N00211007501CN0112001N1+00301+00301999999ADDAG11999GA1021+001509079GA2061+007509059GA3091+999999999MA1103391999999MW1401REMMET015VIS TOW E 4000M
0063010015999991992013016504+61450+005867FM-15+0150ENBL V0209991V00151007501CN0112001N1+00301+00301999999ADDAG11999GA1021+001509079GA2061+007509059MA1103391999999MW1401
0079010015999991992013017504+61450+005867FM-15+0150ENBL V0201801N00151006001CN0112001N1+00301+00301999999ADDAG11000GA1011+000159079GA2031+004509059GA3061+006009059MA1103391999999MW1401
0076010015999991992013018504+61450+005867FM-15+0150ENBL V0201901N00101006001CN0112001N1+00301+00301999999ADDAG11999GA1021+004509059GA2061+006009059MA1103391999999EQDQ01+000000PRSWM2
0060010015999991992013104504+61450+005867FM-15+0150ENBL V0209991V00051220001CN0112001N1+00101-00101999999ADDAG11999GA1041+004509059MA1103121999999EQDQ01+000000PRSWM2
0092010015999991992013105504+61450+005867FM-15+0150ENBL V0201901N00261006001CN0112001N1+00101+00001999999ADDAG11000GA1011+003009079GA2031+004509059GA3051+006009059MA1103121999999EQDQ01+000000PRSWM2
0079010015999991992013107504+61450+005867FM-15+0150ENBL V0202001N00261004201CN0112001N1+00101+00001999999ADDAG11999GA1021+003009079GA2051+004209079GA3061+006009059MA1103121999999MW1501
0079010015999991992013108504+61450+005867FM-15+0150ENBL V0201901N00261004201CN0112001N1+00101+00001999999ADDAG11000GA1021+003009079GA2051+004209059GA3071+006009059MA1103011999999MW1501
0076010015999991992013109504+61450+005867FM-15+0150ENBL V0209991V00211006001CN0112001N1+00101+00001999999ADDAG11999GA1031+004509059GA2061+006009059MA1103011999999EQDQ01+000000PRSWM2
0092010015999991992013110504+61450+005867FM-15+0150ENBL V0202001N00211006001CN0112001N1+00101+00001999999ADDAG11999GA1011+003009079GA2031+004209059GA3061+006009059MA1103011999999EQDQ01+000000PRSWM2
0107010015999991992013111504+61450+005867FM-15+0150ENBL V0202101N00211004201CN0112001N1+00101+00001999999ADDAG11000GA1021+003009079GA2041+004209059GA3061+006009059MA1102911999999MW1211REMMET019DIST       ?     RA
0063010015999991992013113504+61450+005867FM-15+0150ENBL V0202601N00151004501CN0112001N1+00101+00001999999ADDAG11999GA1021+001209079GA2061+004509089MA1102811999999MW1501
0063010015999991992013114504+61450+005867FM-15+0150ENBL V0209991V00151004501CN0112001N1+00101+00001999999ADDAG11000GA1021+000909079GA2061+004509089MA1102811999999MW1601
0087010015999991992013115504+61450+005867FM-15+0150ENBL V0201001N00101004501CN0080001N1+00101+00001999999ADDAG11999GA1031+001509079GA2061+004509089MW1601REMMET0301028F      ?     2     ?     E
0063010015999991992013116504+61450+005867FM-15+0150ENBL V0200401N00151004501CN0080001N1+00001-00101999999ADDAG11999GA1031+001509079GA2061+004509089MA1102811999999MW1601
0063010015999991992013117504+61450+005867FM-15+0150ENBL V0200201N00211006001CN0112001N1+00001-00101999999ADDAG11000GA1021+001809079GA2071+006009059MA1102711999999MW1601
0079010015999991992013118504+61450+005867FM-15+0150ENBL V0201301N00101007501CN0090001N1+00001-00101999999ADDAG11999GA1011+001509079GA2021+003609059GA3061+007509059MA1102711999999MW1501
0047010015999991992020106504+61450+005867FM-15+0150ENBL V0202101N00361220001CN0015001N1+00001-00101999999ADDAG11999GA1021+000909079MA1102101999999MW1681
0047010015999991992020107504+61450+005867FM-15+0150ENBL V0202201N00261220001CN0010001N1+00001-00101999999ADDAG11999GA1021+000909079MA1102101999999MW1681
0079010015999991992020108504+61450+005867FM-15+0150ENBL V0201501N00261003601CN0040001N1+00001-00101999999ADDAG11000GA1031+000909079GA2061+003609059GA3091+999999999MA1102201999999MW1831
0113010015999991992020110504+61450+005867FM-15+0150ENBL V0209991V00101004501CN0112001N1+00101+00001999999ADDAG11999GA1011+000909079GA2031+002109079GA3061+004509089MA1102101999999MW1801REMMET025ST BLW STN VIS TOW W 4000
0101010015999991992020113504+61450+005867FM-15+0150ENBL V0202901N00211006001CN0112001N1+00201+00101999999ADDAG13999GA1011+000909079GA2031+003009089GA3051+006009089MA1102201999999MW1251REMMET013DIST SH TOW W
0079010015999991992020120504+61450+005867FM-15+0150ENBL V0202001N00411004801CN0060001N1+00201+00101999999ADDAG11001GA1011+000609079GA2031+003909089GA3061+004809089MA1102001999999MW1801
0079010015999991992020121504+61450+005867FM-15+0150ENBL V0202001N00411004801CN0080001N1+00201+00101999999ADDAG11999GA1011+000609079GA2041+003909089GA3061+004809089MA1101901999999MW1801
0102010015999991992020211504+61450+005867FM-15+0150ENBL V0201901N00411002101CN0112001N1+00101+00001999999ADDAG12000GA1021+000909079GA2031+002109079GA3061+003609059MA1100611999999MW1831REMMET014VIS TOW E 4000
0100010015999991992020215504+61450+005867FM-15+0150ENBL V0202201N00671006001CN0112001N1+00301-00101999999ADDAG12999GA1021+004509089GA2051+006009089GA3071+007509089MA1099801999999OC101181EQDQ01+000000PRSWM2
0063010015999991992020216504+61450+005867FM-15+0150ENBL V0202001N00311220001CN0030001N1+00101+00001999999ADDAG12999GA1031+001509079MA1099591999999MW1831REMMET007PM 26KT
0079010015999991992020217504+61450+005867FM-15+0150ENBL V0202001N00511004201CN0060001N1+00201+00101999999ADDAG12001GA1011+001809079GA2031+002709079GA3061+004209059MA1099291999999MW1611
0108010015999991992020218504+61450+005867FM-15+0150ENBL V0201901N00511005401CN0060001N1+00201+00101999999ADDAG12999GA1011+001509079GA2041+003309059GA3061+005409059MA1099091999999MW1601REMMET020PM         ?     21K
0047010015999991992020219504+61450+005867FM-15+0150ENBL V0202401N00411002701CN0010001N1+00001+00001999999ADDAG11999GA1091+002709999MA1098981999999MW1681
0047010015999991992020304504+61450+005867FM-15+0150ENBL V0201801N00101003001CN0015001N1-00101-00101999999ADDAG12999GA1091+003009999MA1098611999999MW1731
0063010015999991992020305504+61450+005867FM-15+0150ENBL V0201701N00151006001CN0112001N1-00101-00101999999ADDAG11000GA1021+000609079GA2051+006009059MA1098711999999MW1221
0063010015999991992020306504+61450+005867FM-15+0150ENBL V0202901N00621030001CN0112001N1-00101-00201999999ADDAG11999GA1021+001809079GA2061+030009089MA1098711999999MW1851
0047010015999991992020307504+61450+005867FM-15+0150ENBL V0202601N00311006001CN0112001N1-00101-00201999999ADDAG11999GA1051+006009089MA1098821999999MW1851
0087010015999991992020308504+61450+005867FM-15+0150ENBL V0202801N00511006001CN0112001N1-00101-00201999999ADDAG11000GA1021+003009079GA2051+006009089MA1098821999999MW1851REMMET015P.M.20KTS IN SH
0063010015999991992020310504+61450+005867FM-15+0150ENBL V0201201N00151007501CN0112001N1-00101-00201999999ADDAG11999GA1011+003009079GA2051+007509089MA1098921999999MW1851
0076010015999991992020311504+61450+005867FM-15+0150ENBL V0201801N00101006001CN0112001N1-00101-00201999999ADDAG11000GA1021+001509079GA2051+006009059MA1098981999999EQDQ01+000000PRSWM2
0076010015999991992020312504+61450+005867FM-15+0150ENBL V0201801N00101006001CN0112001N1+00001-00101999999ADDAG11999GA1021+001509079GA2031+006009089MA1099091999999EQDQ01+000000PRSWM2
0092010015999991992020313504+61450+005867FM-15+0150ENBL V0209991V00101006001CN0112001N1-00101-00301999999ADDAG11999GA1011+001509079GA2031+004509089GA3051+006009089MA1099191999999EQDQ01+000000PRSWM2
0076010015999991992020314504+61450+005867FM-15+0150ENBL V0209991V00101220001CN0112001N1-00101-00301999999ADDAG11000GA1011+002109079GA2041+006009089MA1099291999999EQDQ01+000000PRSWM2
0070010015999991992020315504+61450+005867FM-15+0150ENBL V0209991V00051003601CN0112001N1-00101-00401999999ADDAG11999GA1051+003609099MA1099391999999MW1851REMMET014VIS TOW E 1000
0068010015999991992020316504+61450+005867FM-15+0150ENBL V0202301N00261003601CN0030001N1+99999+99999999999ADDAG11999GA1091+003609999MA1099491999999MW1851REMMET012RJCT40  2722
0087010015999991992020317504+61450+005867FM-15+0150ENBL V0203001N00671006001CN0112001N1+00001-00301999999ADDAG11000GA1011+001509079GA2031+004209089GA3051+006009089MA1099591999999MW1261OC101181
0087010015999991992020318504+61450+005867FM-15+0150ENBL V0202801N00821006001CN0112001N1+00001-00401999999ADDAG12999GA1011+001509079GA2031+004209089GA3061+006009089MA1099701999999MW1261OC101341
0121010015999991992020404504+61450+005867FM-15+0150ENBL V0202801N00311010501CN0112001N1-00201-00801999999ADDAG11999GA1011+004509089GA2031+006009089GA3051+010509089MA1100101999999REMMET020PM         ?     16KEQDQ01+000000PRSWM2
0092010015999991992020405504+61450+005867FM-15+0150ENBL V0209991V00151010501CN0112001N1-00301-00701999999ADDAG11000GA1011+004509089GA2031+006009089GA3051+010509089MA1100201999999EQDQ01+000000PRSWM2
0076010015999991992020406504+61450+005867FM-15+0150ENBL V0200901N00151010501CN0112001N1-00401-00701999999ADDAG11999GA1021+006009089GA2061+010509089MA1100101999999EQDQ01+000000PRSWM2
0086010015999991992020407504+61450+005867FM-15+0150ENBL V0202401N00101006001CN0080001N1-00301-00501999999ADDAG11999GA1021+003609089GA2061+006009089MA1100201999999MW1851REMMET014VIS TOW W 3000
0063010015999991992020408504+61450+005867FM-15+0150ENBL V0201801N00151004801CN0040001N1-00401-00501999999ADDAG11000GA1031+003609089GA2061+004809089MA1100201999999MW1851
0047010015999991992020409504+61450+005867FM-15+0150ENBL V0202001N00151003001CN0012001N1-00301-00401999999ADDAG11999GA1091+003009999MA1100201999999MW1731
0079010015999991992020410504+61450+005867FM-15+0150ENBL V0202001N00211005401CN0040001N1-00301-00401999999ADDAG11999GA1021+000609079GA2031+005409089GA3051+012009059MA1100101999999MW1851
0079010015999991992020411504+61450+005867FM-15+0150ENBL V0202101N00151004501CN0112001N1-00301-00401999999ADDAG11000GA1021+001209079GA2031+004509089GA3051+012009059MA1100101999999MW1261
0092010015999991992020412504+61450+005867FM-15+0150ENBL V0201701N00151012001CN0112001N1-00301-00401999999ADDAG11999GA1011+000909079GA2031+004509089GA3051+012009059MA1100101999999EQDQ01+000000PRSWM2
0063010015999991992020418504+61450+005867FM-15+0150ENBL V0202801N00671004801CN0112001N1-00201-00701999999ADDAG11999GA1021+003609079GA2061+004809059MA1100101999999MW1261
0076010015999991992020504504+61450+005867FM-15+0150ENBL V0202901N00211012001CN0112001N1-00301-00701999999ADDAG11999GA1021+006009059GA2061+012009059MA1100411999999EQDQ01+000000PRSWM2
0063010015999991992020505504+61450+005867FM-15+0150ENBL V0203601N00211010501CN0112001N1-00301-00601999999ADDAG11000GA1021+006009059GA2061+010509059MA1100411999999MW1701
0063010015999991992020506504+61450+005867FM-15+0150ENBL V0203301N00211010501CN0112001N1-00401-00701999999ADDAG11999GA1021+006009059GA2051+010509059MA1100411999999MW1261
0076010015999991992020508504+61450+005867FM-15+0150ENBL V0209991V00101012001CN0112001N1-00401-00601999999ADDAG11000GA1031+008409059GA2061+012009059MA1100511999999EQDQ01+000000PRSWM2
0076010015999991992020509504+61450+005867FM-15+0150ENBL V0202301N00101015001CN0112001N1-00401-00601999999ADDAG11999GA1021+009009059GA2051+015009039MA1100611999999EQDQ01+000000PRSWM2
0076010015999991992020511504+61450+005867FM-15+0150ENBL V0201601N00151220001CN0112001N1-00301-00701999999ADDAG11000GA1011+009009059GA2041+015009039MA1100711999999EQDQ01+000000PRSWM2
0076010015999991992020512504+61450+005867FM-15+0150ENBL V0200901N00151220001CN0112001N1-00301-00701999999ADDAG11999GA1011+009009059GA2031+015009039MA1100711999999EQDQ01+000000PRSWM2
0076010015999991992020513504+61450+005867FM-15+0150ENBL V0200501N00211220001CN0112001N1-00301-00801999999ADDAG11999GA1011+009009059GA2031+018009039MA1100811999999EQDQ01+000000PRSWM2
0060010015999991992020514504+61450+005867FM-15+0150ENBL V0200401N00211220001CN0112001N1-00401-00801999999ADDAG11000GA1021+009009059MA1100811999999EQDQ01+000000PRSWM2
0060010015999991992020515504+61450+005867FM-15+0150ENBL V0209991V00151220001CN0112001N1-00601-00801999999ADDAG11999GA1021+009009059MA1100811999999EQDQ01+000000PRSWM2
0060010015999991992020516504+61450+005867FM-15+0150ENBL V0209991V00261220001CN0112001N1-00601-00801999999ADDAG11999GA1021+009009059MA1100811999999EQDQ01+000000PRSWM2
0060010015999991992020517504+61450+005867FM-15+0150ENBL V0200601N00211220001CN0112001N1-00601-00901999999ADDAG11000GA1021+009009059MA1100911999999EQDQ01+000000PRSWM2
0060010015999991992020518504+61450+005867FM-15+0150ENBL V0200601N00211220001CN0112001N1-00701-00901999999ADDAG11999GA1021+009009059MA1100911999999EQDQ01+000000PRSWM2
0060010015999991992020520504+61450+005867FM-15+0150ENBL V0200501N00311009001CN0112001N1-00501-00801999999ADDAG12000GA1051+009009059MA1100911999999EQDQ01+000000PRSWM2
0047010015999991992020522004+61450+005867FM-15+0150ENBL V0209999999999010501CN0031001N1-00501-00801999999ADDAG11999GA1061+010509059MA1100911999999MW1701
0047010015999991992020604504+61450+005867FM-15+0150ENBL V0202301N00151003001CN0012001N1-00301-00301999999ADDAG11999GA1091+003009999MA1100411999999MW1731
0047010015999991992020605504+61450+005867FM-15+0150ENBL V0209991V00211003001CN0010001N1-00101-00101999999ADDAG11001GA1091+003009999MA1100311999999MW1731
0047010015999991992020606504+61450+005867FM-15+0150ENBL V0209991V00101003601CN0020001N1+00001+00001999999ADDAG12999GA1091+003609999MA1100201999999MW1681
0060010015999991992020607504+61450+005867FM-15+0150ENBL V0202001N00151002401CN0006001N1+00001+00001999999ADDAG12999GA1091+002409999MA1100311999999MW1611REMMET00447FG
0047010015999991992020608504+61450+005867FM-15+0150ENBL V0209991V00101003001CN0010001N1+00001+00001999999ADDAG12001GA1091+003009999MA1100311999999MW1611
0047010015999991992020609504+61450+005867FM-15+0150ENBL V0209991V00151220001CN0012001N1+00101+00101999999ADDAG12999GA1031+000609079MA1100411999999MW1581
0076010015999991992020610504+61450+005867FM-15+0150ENBL V0201901N00311220001CN0003001N1+00301+00301999999ADDAG12999GA1031+000609079GA2091+999999999MA1100511999999MW1611REMMET00447FG
0084010015999991992020611504+61450+005867FM-15+0150ENBL V0202201N00361220001CN0015001N1+00301+00301999999ADDAG12000GA1031+000609079GA2091+999999999MA1100611999999MW1581REMMET01240BCFG     ?
0060010015999991992020612504+61450+005867FM-15+0150ENBL V0202001N00261001201CN0002001N1+00401+00401999999ADDAG12999GA1091+001209999MA1100611999999MW1581REMMET00447FG
0047010015999991992020613504+61450+005867FM-15+0150ENBL V0202101N00261001201CN0004001N1+00401+00401999999ADDAG12999GA1091+001209999MA1100711999999MW1581
0079010015999991992020615504+61450+005867FM-15+0150ENBL V0202001N00101003301CN0040001N1+00401+00401999999ADDAG12999GA1031+000609079GA2011+001509079GA3061+003309059MA1100811999999MW1581
0060010015999991992020616504+61450+005867FM-15+0150ENBL V0202101N00261001201CN0005001N1+00401+00401999999ADDAG12999GA1091+001209999MA1100811999999MW1501REMMET00447FG
0079010015999991992020617504+61450+005867FM-15+0150ENBL V0202001N00261001501CN0015001N1+00401+00401999999ADDAG12000GA1021+000609079GA2031+001509079GA3061+003309059MA1100911999999MW1531
0079010015999991992020618504+61450+005867FM-15+0150ENBL V0202101N00261001501CN0012001N1+00501+00501999999ADDAG12999GA1021+000609079GA2031+001509079GA3061+003309059MA1100911999999MW1531
0063010015999991992020704504+61450+005867FM-15+0150ENBL V0202001N00411003601CN0112001N1+00501+00501999999ADDAG12999GA1021+002409079GA2071+003609059MA1100811999999MW1601
0079010015999991992020705504+61450+005867FM-15+0150ENBL V0202801N00411003601CN0050001N1+00401+00401999999ADDAG12001GA1021+000159079GA2021+002409079GA3061+003609059MA1100911999999MW1621
0092010015999991992020706504+61450+005867FM-15+0150ENBL V0202101N00461003601CN0080001N1+00401+00401999999ADDAG12999GA1011+000609079GA2021+002409079GA3061+003609059MA1100911999999EQDQ01+000000PRSWM2
0060010015999991992020707504+61450+005867FM-15+0150ENBL V0202101N00571001801CN0006001N1+00401+00401999999ADDAG12999GA1091+001809999MA1100911999999MW1511REMMET00447FG
0060010015999991992020708504+61450+005867FM-15+0150ENBL V0202001N00411001501CN0006001N1+00401+00401999999ADDAG11000GA1091+001509999MA1100911999999MW1511REMMET00445FG
0060010015999991992020710504+61450+005867FM-15+0150ENBL V0202101N00311001501CN0006001N1+00401+00401999999ADDAG11999GA1091+001509999MA1100911999999MW1511REMMET00447FG
0060010015999991992020711504+61450+005867FM-15+0150ENBL V0202001N00311001501CN0006001N1+00401+00401999999ADDAG12000GA1091+001509999MA1101021999999MW1511REMMET00445FG
0047010015999991992020712504+61450+005867FM-15+0150ENBL V0202401N00411220001CN0010001N1+00501+00501999999ADDAG12999GA1031+000609079MA1101021999999MW1511
0120010015999991992020713504+61450+005867FM-15+0150ENBL V0202201N00361001501CN0050001N1+00501+00501999999ADDAG12999GA1021+000159079GA2041+001509079GA3061+004209059MA1101021999999MW1501REMMET032VIS        ?     SEC W TO N 1200
0058010015999991992020714504+61450+005867FM-15+0150ENBL V0202401N00211001801CN0010001N1+00501+00501999999ADDAG12000GA1091+001809999MA1101021999999MW1501REMMET002FG
0082010015999991992020715504+61450+005867FM-15+0150ENBL V0202201N00361002101CN0008001N1+00501+00501999999ADDAG12999GA1091+002109999MA1101021999999MW1501REMMET026VIS SEC S        ?     4KM
0079010015999991992020716504+61450+005867FM-15+0150ENBL V0202401N00311003001CN0080001N1+00501+00501999999ADDAG12999GA1021+000159079GA2041+003009079GA3061+006009059MA1101081999999MW1501
0047010015999991992020717504+61450+005867FM-15+0150ENBL V0202401N00261220001CN0070001N1+00501+00501999999ADDAG12000GA1021+000909079MA1101081999999MW1501
0079010015999991992020718504+61450+005867FM-15+0150ENBL V0202501N00361003001CN0070001N1+00401+00401999999ADDAG12999GA1021+000909079GA2041+003009079GA3061+006009059MA1101081999999MW1201
0063010015999991992020719504+61450+005867FM-15+0150ENBL V0202201N00311003001CN0030001N1+00401+00401999999ADDAG12999GA1021+000909079GA2061+003009079MA1101191999999MW1581
0058010015999991992020806504+61450+005867FM-15+0150ENBL V0209991C00001003001CN0015001N1+00301+00301999999ADDAG11999GA1091+003009999MA1101081999999MW1501REMMET002FG
0047010015999991992020807504+61450+005867FM-15+0150ENBL V0202201N00211002401CN0006001N1+00301+00301999999ADDAG11999GA1091+002409999MA1101081999999MW1501
0082010015999991992020808504+61450+005867FM-15+0150ENBL V0202201N00211003001CN0006001N1+00401+00401999999ADDAG11000GA1091+003009999MA1101191999999MW1501REMMET026VIS SEC S        ?     5KM
0082010015999991992020809504+61450+005867FM-15+0150ENBL V0202201N00101003001CN0006001N1+00401+00401999999ADDAG11999GA1091+003009999MA1101291999999MW1501REMMET026VIS SEC S        ?     3KM
0103010015999991992020810504+61450+005867FM-15+0150ENBL V0201901N00151003001CN0010001N1+00401+00401999999ADDAG11999GA1031+000159079GA2061+003009059MA1101291999999MW1501REMMET031VIS SEC          ?     E-SW 4KM
0104010015999991992020811504+61450+005867FM-15+0150ENBL V0202001N00261003001CN0080001N1+00401+00401999999ADDAG11000GA1031+001509079GA2061+003009059MA1101291999999MW1581REMMET032BCFG VIS SEC W         ?     4KM
0104010015999991992020812504+61450+005867FM-15+0150ENBL V0202101N00211002701CN0060001N1+00401+00401999999ADDAG11999GA1031+000909079GA2061+002709059MA1101291999999MW1581REMMET032BCFG VIS SEC W         ?     3KM
0063010015999991992020813504+61450+005867FM-15+0150ENBL V0201801N00211004501CN0112001N1+00401+00401999999ADDAG11999GA1011+000909079GA2061+004509059MA1101291999999MW1401
0076010015999991992020814504+61450+005867FM-15+0150ENBL V0209991V00101004201CN0112001N1+00401+00401999999ADDAG11000GA1021+002709079GA2061+004209059MA1101291999999EQDQ01+000000PRSWM2
0076010015999991992020817504+61450+005867FM-15+0150ENBL V0202001N00261004501CN0112001N1+00501+00501999999ADDAG12000GA1031+003009079GA2061+004509059MA1101191999999EQDQ01+000000PRSWM2
0092010015999991992020818504+61450+005867FM-15+0150ENBL V0209991V00101005701CN0112001N1+00401+00401999999ADDAG12999GA1011+003009079GA2031+004809059GA3061+005709059MA1101191999999EQDQ01+000000PRSWM2
0076010015999991992020911504+61450+005867FM-15+0150ENBL V0202101N00261220001CN0112001N1+00901-00601999999ADDAG12000GA1011+009009059GA2041+060009049MA1099801999999EQDQ01+000000PRSWM2
0092010015999991992020912504+61450+005867FM-15+0150ENBL V0202701N00821060001CN0112001N1+00501-00401999999ADDAG12999GA1011+009009059GA2031+021009039GA3051+060009049MA1099801999999EQDQ01+000000PRSWM2
0079010015999991992020913504+61450+005867FM-15+0150ENBL V0202501N00461045001CN0112001N1+00401-00101999999ADDAG11999GA1011+008709059GA2031+015009039GA3051+045009049MA1099801999999MW1101
0063010015999991992020914504+61450+005867FM-15+0150ENBL V0202501N00361045001CN0112001N1+00401+00001999999ADDAG11000GA1021+007509089GA2051+045009049MA1099801999999MW1101
0063010015999991992020915504+61450+005867FM-15+0150ENBL V0202101N00261030001CN0112001N1+00301+00001999999ADDAG12999GA1021+006009089GA2041+030009039MA1099801999999MW1101
0063010015999991992020916504+61450+005867FM-15+0150ENBL V0202201N00311036001CN0090001N1+00301+00001999999ADDAG12999GA1021+006009059GA2041+036009039MA1099701999999MW1101
0063010015999991992020918504+61450+005867FM-15+0150ENBL V0202001N00361012001CN0090001N1+00301-00201999999ADDAG12999GA1021+007509059GA2051+012009059MA1099591999999MW1101
0071010015999991992020919504+61450+005867FM-15+0150ENBL V0202101N00671005701CN0060001N1+00301+00301999999ADDAG12999GA1031+003609059GA2061+005709059MA1099701999999MW1581OC101181
0063010015999991992021004504+61450+005867FM-15+0150ENBL V0201901N00411005701CN0112001N1+00201+00101999999ADDAG11999GA1021+003609089GA2061+005709059MA1098981999999MW1251
0063010015999991992021005504+61450+005867FM-15+0150ENBL V0202001N00511005401CN0080001N1+00201+00101999999ADDAG12000GA1021+003609089GA2061+005409059MA1098981999999MW1581
0063010015999991992021006504+61450+005867FM-15+0150ENBL V0202001N00311005401CN0112001N1+00201+00201999999ADDAG12999GA1031+003609089GA2061+005409059MA1098981999999MW1211
0079010015999991992021007504+61450+005867FM-15+0150ENBL V0202201N00311004501CN0070001N1+00201+00201999999ADDAG11999GA1011+000909079GA2031+003009089GA3061+004509059MA1099091999999MW1581
0079010015999991992021008504+61450+005867FM-15+0150ENBL V0202201N00261004501CN0112001N1+00101+00101999999ADDAG11000GA1011+000909079GA2031+003009089GA3061+004509059MA1099091999999MW1231
0079010015999991992021009504+61450+005867FM-15+0150ENBL V0202001N00151004801CN0080001N1+00101+00101999999ADDAG11999GA1011+000909079GA2031+003609089GA3061+004809059MA1099091999999MW1831
0076010015999991992021011504+61450+005867FM-15+0150ENBL V0201601N00261005101CN0112001N1+00201+00101999999ADDAG11000GA1021+003009079GA2051+005109089MA1099191999999EQDQ01+000000PRSWM2
0076010015999991992021012504+61450+005867FM-15+0150ENBL V0209991V00211005101CN0112001N1+00301-00101999999ADDAG11999GA1021+003609079GA2051+005109089MA1099091999999EQDQ01+000000PRSWM2
0063010015999991992021013504+61450+005867FM-15+0150ENBL V0202001N00261005401CN0112001N1+00201-00101999999ADDAG11999GA1011+003009079GA2051+005409089MA1099091999999MW1801
0063010015999991992021014504+61450+005867FM-15+0150ENBL V0201801N00511005401CN0040001N1+00101-00101999999ADDAG11000GA1021+002409079GA2051+005409089MA1098981999999MW1701
0063010015999991992021015504+61450+005867FM-15+0150ENBL V0201801N00511004501CN0080001N1+00001-00101999999ADDAG11999GA1021+001209079GA2061+004509089MA1098981999999MW1701
0063010015999991992021017504+61450+005867FM-15+0150ENBL V0202601N00101003601CN0112001N1-00101-00101999999ADDAG11000GA1021+001809079GA2061+003609059MA1098981999999MW1221
0048010015999991992021018504+61450+005867FM-15+0150ENBL V0201901N00361002101CN0010001N1-00101-00101999999ADDAG11999GA1091+002109999MW1731REMMET007989F 13
0079010015999991992021104504+61450+005867FM-15+0150ENBL V0202201N00261006001CN0112001N1-00201-00301999999ADDAG12999GA1011+002109079GA2031+003609089GA3051+006009059MA1099291999999MW1261
0076010015999991992021106504+61450+005867FM-15+0150ENBL V0202201N00311001501CN0008001N1-00201-00301999999ADDAG11999GA1091+001509999MA1099291999999MW1851REMMET020ST BLW     ?     STN
0074010015999991992021107504+61450+005867FM-15+0150ENBL V0202301N00461001801CN0008001N1-00201-00301999999ADDAG11999GA1091+001809999MA1099391999999MW1851REMMET018PM 23KT ST BLW STN
0086010015999991992021108504+61450+005867FM-15+0150ENBL V0202401N00311007501CN0112001N1-00201-00301999999ADDAG11000GA1021+002109079GA2051+007509089MA1099391999999MW1261REMMET014VIS TOW E 8000
0086010015999991992021109504+61450+005867FM-15+0150ENBL V0202401N00361007501CN0112001N1-00201-00201999999ADDAG11999GA1021+003009099GA2051+007509089MA1099491999999MW1261REMMET014VIS TOW W 6000
0079010015999991992021110504+61450+005867FM-15+0150ENBL V0202401N00361008401CN0112001N1-00101-00101999999ADDAG11999GA1021+003009079GA2051+008409089MA1099491999999MW1261REMMET007PM 17KT
0093010015999991992021111504+61450+005867FM-15+0150ENBL V0202601N00411003001CN0040001N1-00101-00101999999ADDAG11000GA1091+003009999MA1099491999999MW1851REMMET037PM 19KT          ?     VIS TOW W 1000
0104010015999991992021112504+61450+005867FM-15+0150ENBL V0202201N00211006001CN0080001N1+99999+99999999999ADDAG11999GA1021+003009099GA2061+006009089MA1099591999999MW1851REMMET032VISTOW W 2000     7@@@@@*@@@@@@@
0063010015999991992021113504+61450+005867FM-15+0150ENBL V0202301N00261006001CN0112001N1-00101-00201999999ADDAG11999GA1021+003009079GA2061+006009089MA1099591999999MW1851
0062010015999991992021114504+61450+005867FM-15+0150ENBL V0202301N00311002401CN0010001N1+00001-00101999999ADDAG11000GA1091+002409999MA1099701999999MW1711REMMET00640BCFG
0062010015999991992021115504+61450+005867FM-15+0150ENBL V0202001N00151002401CN0015001N1+00001+00001999999ADDAG11999GA1091+002409999MA1099701999999MW1711REMMET00640BCFG
0063010015999991992021116504+61450+005867FM-15+0150ENBL V0202301N00211004501CN0040001N1+00001+00001999999ADDAG11999GA1031+000909079GA2071+004509059MA1099701999999MW1221
0092010015999991992021117504+61450+005867FM-15+0150ENBL V0202101N00151005401CN0112001N1+00001+00001999999ADDAG11000GA1021+001209079GA2011+002109079GA3061+005409059MA1099701999999EQDQ01+000000PRSWM2
0076010015999991992021118504+61450+005867FM-15+0150ENBL V0202701N00101004501CN0112001N1+00001+00001999999ADDAG12999GA1021+001509079GA2071+004509059MA1099701999999EQDQ01+000000PRSWM2
0063010015999991992021204504+61450+005867FM-15+0150ENBL V0209991V00261003901CN0080001N1+00201+00201999999ADDAG11999GA1031+002409079GA2061+003909059MA1099491999999MW1601
0079010015999991992021205504+61450+005867FM-15+0150ENBL V0209991V00211002401CN0060001N1+00101+00101999999ADDAG11001GA1021+000909079GA2041+002409079GA3061+003609059MA1099591999999MW1611
0098010015999991992021206504+61450+005867FM-15+0150ENBL V0201401N00151003601CN0080001N1+00101+00101999999ADDAG11999GA1011+000909079GA2041+002409079GA3061+003609059MA1099591999999MW1601REMMET010ST BLW STN
0109010015999991992021207504+61450+005867FM-15+0150ENBL V0200801N00151004501CN0112001N1+00201+00201999999ADDAG13999GA1031+003009099GA2041+004509089MA1099591999999REMMET024DIST SH TOW      ?     WEQDQ01+000000PRSWM2
0063010015999991992021208504+61450+005867FM-15+0150ENBL V0202101N00261004801CN0112001N1+00201+00201999999ADDAG12000GA1021+003609089GA2041+004809089MA1099701999999MW1251
0063010015999991992021210504+61450+005867FM-15+0150ENBL V0209991V00211004801CN0112001N1+00201+00101999999ADDAG12999GA1021+003009079GA2061+004809089MA1099701999999MW1801
0063010015999991992021211504+61450+005867FM-15+0150ENBL V0209991V00151006001CN0112001N1+00301+00201999999ADDAG12000GA1021+003009079GA2051+006009089MA1099801999999MW1251
0076010015999991992021212504+61450+005867FM-15+0150ENBL V0202401N00151006001CN0112001N1+00401+00301999999ADDAG12999GA1021+003009079GA2051+006009089MA1099801999999EQDQ01+000000PRSWM2
0076010015999991992021213504+61450+005867FM-15+0150ENBL V0202401N00151006001CN0112001N1+00301+00201999999ADDAG12999GA1011+003009079GA2051+006009089MA1099701999999EQDQ01+000000PRSWM2
0076010015999991992021214504+61450+005867FM-15+0150ENBL V0209991V00101006001CN0112001N1+00301+00201999999ADDAG12000GA1021+003009079GA2051+006009089MA1099701999999EQDQ01+000000PRSWM2
0076010015999991992021215504+61450+005867FM-15+0150ENBL V0202201N00101006001CN0112001N1+00301+00201999999ADDAG12999GA1021+003009079GA2071+006009089MA1099701999999EQDQ01+000000PRSWM2
0076010015999991992021216504+61450+005867FM-15+0150ENBL V0209991V00101006001CN0112001N1+00301+00201999999ADDAG12999GA1021+003009079GA2061+006009089MA1099701999999EQDQ01+000000PRSWM2
0063010015999991992021217504+61450+005867FM-15+0150ENBL V0209991V00101006001CN0112001N1+00201+00101999999ADDAG12000GA1021+003009079GA2071+006009089MA1099701999999MW1601
0079010015999991992021218504+61450+005867FM-15+0150ENBL V0202001N00101004501CN0080001N1+00201+00201999999ADDAG12999GA1021+001209079GA2011+002409079GA3071+004509089MA1099591999999MW1611
0063010015999991992021220004+61450+005867FM-15+0150ENBL V0209999999999006001CN0112001N1+00201+00201999999ADDAG11999GA1011+003009079GA2071+006009089MA1099591999999MW1211
0047010015999991992021304504+61450+005867FM-15+0150ENBL V0201001N00461007801CN0112001N1+00301-00301999999ADDAG11999GA1071+007809059MA1098711999999MW1611
0047010015999991992021305504+61450+005867FM-15+0150ENBL V0200701N00361007801CN0112001N1+00201-00101999999ADDAG11001GA1071+007809059MA1098611999999MW1611
0047010015999991992021306504+61450+005867FM-15+0150ENBL V0200701N00411007801CN0112001N1+00201+00001999999ADDAG11999GA1071+007809059MA1098511999999MW1611
0063010015999991992021307504+61450+005867FM-15+0150ENBL V0200601N00261007801CN0112001N1+00201+00001999999ADDAG11999GA1021+003609079GA2071+007809059MA1098511999999MW1611
0063010015999991992021309504+61450+005867FM-15+0150ENBL V0201801N00771007501CN0112001N1+00201+00101999999ADDAG11999GA1021+002409079GA2071+007509059MA1098611999999MW1611
0063010015999991992021310504+61450+005867FM-15+0150ENBL V0202301N00361006001CN0112001N1+00301+00301999999ADDAG11999GA1021+001809079GA2051+006009089MA1098711999999MW1211
0076010015999991992021311504+61450+005867FM-15+0150ENBL V0202101N00211004501CN0112001N1+00301+00301999999ADDAG12000GA1011+002709079GA2061+004509089MA1098821999999EQDQ01+000000PRSWM2
0093010015999991992021312504+61450+005867FM-15+0150ENBL V0201901N00311004501CN0112001N1+00301+00201999999ADDAG10999GA1021+002709079GA2061+004509089MA1098821999999REMMET008DIST.SH.EQDQ01+000000PRSWM2
0079010015999991992021313504+61450+005867FM-15+0150ENBL V0202501N00361003601CN0015001N1+00101+00101999999ADDAG12999GA1021+000159079GA2061+003609089MA1098921999999MW1811REMMET007PM 22KT
0063010015999991992021314504+61450+005867FM-15+0150ENBL V0202701N00211004801CN0112001N1+00201+00201999999ADDAG12000GA1021+001509079GA2061+004809089MA1098921999999MW1271
0063010015999991992021315504+61450+005867FM-15+0150ENBL V0209991V00311004801CN0112001N1+00201+00201999999ADDAG12999GA1021+001509079GA2061+004809089MA1098981999999MW1271
0079010015999991992021316504+61450+005867FM-15+0150ENBL V0202301N00311004501CN0040001N1+00201+00201999999ADDAG12999GA1011+000909079GA2021+003009099GA3061+004509089MA1098981999999MW1271
0079010015999991992021319504+61450+005867FM-15+0150ENBL V0202301N00311004501CN0112001N1+00101+00101999999ADDAG12999GA1021+001509079GA2021+003009099GA3061+004509089MA1099091999999MW1251
0047010015999991992021404504+61450+005867FM-15+0150ENBL V0203301N00151004501CN0025001N1+00001+00001999999ADDAG12999GA1091+004509999MA1099291999999MW1851
0098010015999991992021405504+61450+005867FM-15+0150ENBL V0203301N00151004801CN0009001N1+00001+00001999999ADDAG11000GA1021+003009079GA2061+004809059MA1099291999999MW1411REMMET026VIS SEC S        ?     6KM
0085010015999991992021407504+61450+005867FM-15+0150ENBL V0202301N00151003301CN0030001N1+00001+00001999999ADDAG11999GA1031+000609079GA2061+003309059MA1099291999999MW1401REMMET013VIS SEC S 10+
0082010015999991992021408504+61450+005867FM-15+0150ENBL V0202001N00151003001CN0006001N1+00001+00001999999ADDAG11000GA1091+003009999MA1099291999999MW1471REMMET026VIS SEC S        ?     4KM
0063010015999991992021410504+61450+005867FM-15+0150ENBL V0201901N00211003001CN0015001N1+00001+00001999999ADDAG11999GA1031+000609079GA2061+003009059MA1099391999999MW1411
0047010015999991992021411504+61450+005867FM-15+0150ENBL V0201801N00211000601CN0013001N1+00101+00101999999ADDAG11000GA1061+000609079MA1099391999999MW1401
0103010015999991992021413504+61450+005867FM-15+0150ENBL V0209991V00101220001CN0008001N1+00101+00101999999ADDAG11999GA1031+000909079GA2091+999999999MA1099391999999MW1511REMMET03140BCFG     ?     VIS TOW E 2000
0088010015999991992021414504+61450+005867FM-15+0150ENBL V0200301N00211220001CN0020001N1+00101+00101999999ADDAG11000GA1031+000909079GA2091+999999999MW1851REMMET03140BCFG     ?     VIS TOW E 4000
0079010015999991992021415504+61450+005867FM-15+0150ENBL V0200401N00361002401CN0050001N1+00001+00001999999ADDAG11999GA1021+000909079GA2031+002409079GA3061+003609059MA1099391999999MW1851
0079010015999991992021416504+61450+005867FM-15+0150ENBL V0200101N00411003601CN0040001N1-00101-00201999999ADDAG11999GA1011+000909079GA2031+002409079GA3061+003609089MA1099391999999MW1851
0063010015999991992021417504+61450+005867FM-15+0150ENBL V0203501N00511007501CN0112001N1-00101-00501999999ADDAG11000GA1031+004509089GA2051+007509089MA1099391999999MW1261
0076010015999991992021418504+61450+005867FM-15+0150ENBL V0200101N00461007501CN0112001N1-00201-00601999999ADDAG12999GA1031+004509089GA2051+007509089MA1099391999999EQDQ01+000000PRSWM2
0079010015999991992021506504+61450+005867FM-15+0150ENBL V0200601N00461007501CN0112001N1-00501-00801999999ADDAG12999GA1011+000609079GA2031+003009079GA3061+007509089MA1099391999999MW1851
0076010015999991992021507504+61450+005867FM-15+0150ENBL V0200701N00511009001CN0112001N1-00501-00901999999ADDAG12999GA1011+004509089GA2051+009009089MA1099391999999EQDQ01+000000PRSWM2
0068010015999991992021508504+61450+005867FM-15+0150ENBL V0201201N00621220001CN0112001N1-00301-01201999999ADDAG12000GA1031+009009089MA1099391999999OC101131EQDQ01+000000PRSWM2
0060010015999991992021509504+61450+005867FM-15+0150ENBL V0201001N00511220001CN0112001N1-00401-01401999999ADDAG12999GA1021+009009089MA1099391999999EQDQ01+000000PRSWM2
0060010015999991992021510504+61450+005867FM-15+0150ENBL V0200901N00511220001CN0112001N1-00301-01401999999ADDAG12999GA1011+009009089MA1099491999999EQDQ01+000000PRSWM2
0044010015999991992021511504+61450+005867FM-15+0150ENBL V0200901N00511220001CN0112001N1-00301-01401999999ADDAG12000MA1099491999999EQDQ01+000000PRSWM2
0052010015999991992021512504+61450+005867FM-15+0150ENBL V0200801N00511220001CN0112001N1-00401-01601999999ADDAG12999MA1099391999999OC101031EQDQ01+000000PRSWM2
0044010015999991992021513504+61450+005867FM-15+0150ENBL V0200901N00621220001CN0112001N1-00401-01601999999ADDAG12999MA1099391999999EQDQ01+000000PRSWM2
0044010015999991992021514504+61450+005867FM-15+0150ENBL V0200801N00621220001CN0112001N1-00401-01601999999ADDAG11000MA1099391999999EQDQ01+000000PRSWM2
0044010015999991992021612504+61450+005867FM-15+0150ENBL V0200401N00261220001CN0112001N1-00401-01501999999ADDAG12999MA1101291999999EQDQ01+000000PRSWM2
0044010015999991992021613504+61450+005867FM-15+0150ENBL V0200601N00311220001CN0112001N1-00301-01701999999ADDAG12999MA1101491999999EQDQ01+000000PRSWM2
0044010015999991992021614504+61450+005867FM-15+0150ENBL V0200401N00261220001CN0112001N1-00401-01601999999ADDAG11000MA1101691999999EQDQ01+000000PRSWM2
0044010015999991992021615504+61450+005867FM-15+0150ENBL V0200401N00261220001CN0112001N1-00401-01601999999ADDAG12999MA1101801999999EQDQ01+000000PRSWM2
0044010015999991992021616504+61450+005867FM-15+0150ENBL V0200401N00311220001CN0112001N1-00601-01701999999ADDAG12999MA1101901999999EQDQ01+000000PRSWM2
0044010015999991992021617504+61450+005867FM-15+0150ENBL V0200201N00311220001CN0112001N1-00601-01601999999ADDAG11000MA1102001999999EQDQ01+000000PRSWM2
0044010015999991992021618504+61450+005867FM-15+0150ENBL V0200601N00261220001CN0112001N1-00701-01601999999ADDAG11999MA1102101999999EQDQ01+000000PRSWM2
0044010015999991992021619504+61450+005867FM-15+0150ENBL V0200201N00211220001CN0112001N1-00701-01601999999ADDAG11999MA1102101999999EQDQ01+000000PRSWM2
0044010015999991992021704504+61450+005867FM-15+0150ENBL V0203501N00101220001CN0112001N1-01001-01601999999ADDAG11999MA1102511999999EQDQ01+000000PRSWM2
0044010015999991992021705504+61450+005867FM-15+0150ENBL V0203201N00101220001CN0112001N1-01001-01601999999ADDAG11000MA1102511999999EQDQ01+000000PRSWM2
0044010015999991992021707504+61450+005867FM-15+0150ENBL V0203101N00151220001CN0112001N1-01001-01601999999ADDAG11999MA1102611999999EQDQ01+000000PRSWM2
0044010015999991992021708504+61450+005867FM-15+0150ENBL V0203501N00101220001CN0112001N1-00801-01601999999ADDAG12000MA1102611999999EQDQ01+000000PRSWM2
0044010015999991992021709504+61450+005867FM-15+0150ENBL V0203301N00101220001CN0112001N1-00601-01601999999ADDAG12999MA1102611999999EQDQ01+000000PRSWM2
0044010015999991992021710504+61450+005867FM-15+0150ENBL V0203101N00151220001CN0112001N1-00501-01601999999ADDAG12999MA1102611999999EQDQ01+000000PRSWM2
0044010015999991992021711504+61450+005867FM-15+0150ENBL V0209991V00101220001CN0112001N1-00301-01601999999ADDAG11000MA1102611999999EQDQ01+000000PRSWM2
0044010015999991992021712504+61450+005867FM-15+0150ENBL V0209991V00101220001CN0112001N1-00201-01601999999ADDAG11999MA1102711999999EQDQ01+000000PRSWM2
0044010015999991992021714504+61450+005867FM-15+0150ENBL V0201701N00211220001CN0112001N1-00301-01601999999ADDAG11000MA1102611999999EQDQ01+000000PRSWM2
0044010015999991992021715504+61450+005867FM-15+0150ENBL V0201801N00151220001CN0112001N1-00401-01601999999ADDAG11999MA1102611999999EQDQ01+000000PRSWM2
0044010015999991992021716504+61450+005867FM-15+0150ENBL V0203001N00101220001CN0112001N1-00601-01601999999ADDAG11999MA1102611999999EQDQ01+000000PRSWM2
0044010015999991992021718504+61450+005867FM-15+0150ENBL V0202801N00151220001CN0112001N1-00901-01401999999ADDAG12999MA1102611999999EQDQ01+000000PRSWM2
0060010015999991992021804504+61450+005867FM-15+0150ENBL V0209991V00151009001CN0112001N1-00501-01301999999ADDAG12999GA1061+009009059MA1102511999999EQDQ01+000000PRSWM2
0060010015999991992021806504+61450+005867FM-15+0150ENBL V0203301N00261009001CN0112001N1-00401-01101999999ADDAG12999GA1061+009009059MA1102511999999EQDQ01+000000PRSWM2
0076010015999991992021807504+61450+005867FM-15+0150ENBL V0200101N00361012001CN0112001N1-00301-01101999999ADDAG12999GA1031+009009059GA2061+012009059MA1102511999999EQDQ01+000000PRSWM2
0076010015999991992021808504+61450+005867FM-15+0150ENBL V0209991V00211012001CN0112001N1-00201-01101999999ADDAG12000GA1031+009009059GA2061+012009059MA1102401999999EQDQ01+000000PRSWM2
0063010015999991992021809504+61450+005867FM-15+0150ENBL V0209991V00101012001CN0112001N1-00301-01101999999ADDAG12999GA1031+009009059GA2061+012009059MA1102401999999MW1701
0063010015999991992021810504+61450+005867FM-15+0150ENBL V0202901N00151010501CN0070001N1-00301-00801999999ADDAG12999GA1031+006009059GA2061+010509059MA1102401999999MW1701
0047010015999991992021812504+61450+005867FM-15+0150ENBL V0203601N00151220001CN0035001N1-00301-00401999999ADDAG11999GA1021+002409079MA1102401999999MW1701
0063010015999991992021813504+61450+005867FM-15+0150ENBL V0209991V00101007501CN0112001N1-00301-00401999999ADDAG11999GA1021+002409079GA2061+007509059MA1102511999999MW1221
0063010015999991992021814504+61450+005867FM-15+0150ENBL V0202301N00151009001CN0112001N1-00301-00401999999ADDAG11000GA1021+002409079GA2061+009009059MA1102511999999MW1221
0076010015999991992021815504+61450+005867FM-15+0150ENBL V0201901N00151007501CN0112001N1-00301-00401999999ADDAG11999GA1021+001809079GA2051+007509059MA1102511999999EQDQ01+000000PRSWM2
0076010015999991992021816504+61450+005867FM-15+0150ENBL V0203001N00101220001CN0112001N1-00401-00401999999ADDAG11999GA1011+001509079GA2011+009009059MA1102611999999EQDQ01+000000PRSWM2
0076010015999991992021817504+61450+005867FM-15+0150ENBL V0202901N00211009001CN0112001N1-00501-00501999999ADDAG11000GA1011+001509079GA2051+009009059MA1102611999999EQDQ01+000000PRSWM2
0047010015999991992021818504+61450+005867FM-15+0150ENBL V0203001N00211006001CN0040001N1-00401-00401999999ADDAG11999GA1091+006009999MA1102611999999MW1701
0047010015999991992021819504+61450+005867FM-15+0150ENBL V0209991V00101003001CN0015001N1-00401-00401999999ADDAG11999GA1091+003009999MA1102711999999MW1711
