0047010015999991991010110504+61450+005867FM-15+0150ENBL V0203201N00151003601CN0030001N1-00101-00201999999ADDAG12999GA1091+003609999MA1099901999999MW1851
0063010015999991991010111504+61450+005867FM-15+0150ENBL V0200501N00261003601CN0060001N1+00001-00101999999ADDAG12001GA1021+001509079GA2061+003609059MA1099901999999MW1701
0063010015999991991010112504+61450+005867FM-15+0150ENBL V0209991V00211003601CN0080001N1+00001-00101999999ADDAG12999GA1011+000309079GA2061+003609059MA1099801999999MW1701
0076010015999991991010113504+61450+005867FM-15+0150ENBL V0202001N00361004501CN0112001N1+00001-00101999999ADDAG12999GA1021+003009079GA2061+004509059MA1099801999999EQDQ01+000000PRSWM2
0067010015999991991010114504+61450+005867FM-15+0150ENBL V0201901N00411004801CN0112001N1+00001-00101999999ADDAG12000GA1021+003009079GA2061+004809059MW1851EQDQ01+029183APOA  
0076010015999991991010116504+61450+005867FM-15+0150ENBL V0202001N00311004801CN0112001N1+00101-00201999999ADDAG12999GA1021+003009079GA2051+004809059MA1099701999999EQDQ01+000000PRSWM2
0076010015999991991010117504+61450+005867FM-15+0150ENBL V0209991V00151005101CN0112001N1+00101-00301999999ADDAG12000GA1011+003009079GA2051+005109059MA1099491999999EQDQ01+000000PRSWM2
0076010015999991991010118504+61450+005867FM-15+0150ENBL V0209991V00461220001CN0112001N1+00201-00301999999ADDAG12999GA1011+003609059GA2041+006009059MA1099391999999EQDQ01+000000PRSWM2
0084010015999991991010204504+61450+005867FM-15+0150ENBL V0201301N00881009001CN0112001N1+00301-00301999999ADDAG12999GA1021+006009089GA2061+009009059MA1097391999999OC101651EQDQ01+000000PRSWM2
0084010015999991991010205504+61450+005867FM-15+0150ENBL V0201201N00771009001CN0112001N1+00301-00301999999ADDAG12000GA1021+006009089GA2051+009009059MA1097191999999OC101491EQDQ01+000000PRSWM2
0084010015999991991010206504+61450+005867FM-15+0150ENBL V0201101N00931010501CN0112001N1+00301-00301999999ADDAG12999GA1021+007509059GA2051+010509059MA1096991999999OC101651EQDQ01+000000PRSWM2
0084010015999991991010207504+61450+005867FM-15+0150ENBL V0201101N00881010501CN0112001N1+00301-00301999999ADDAG12999GA1021+007509059GA2061+010509059MA1096991999999OC101651EQDQ01+000000PRSWM2
0071010015999991991010208504+61450+005867FM-15+0150ENBL V0201101N00981010501CN0112001N1+00301+00301999999ADDAG12002GA1021+007509059GA2061+010509059MA1096821999999MW1601OC101701
0084010015999991991010209504+61450+005867FM-15+0150ENBL V0201001N00771010501CN0112001N1+00401-00201999999ADDAG12999GA1021+007509059GA2051+010509059MA1096821999999OC101291EQDQ01+000000PRSWM2
0071010015999991991010210504+61450+005867FM-15+0150ENBL V0201101N00771010501CN0112001N1+00401-00301999999ADDAG12999GA1021+007509059GA2061+010509059MA1096721999999MW1801OC101441
0063010015999991991010211504+61450+005867FM-15+0150ENBL V0201301N00571009001CN0090001N1+00301-00301999999ADDAG12002GA1021+006009059GA2061+009009059MA1096721999999MW1601
0047010015999991991010212504+61450+005867FM-15+0150ENBL V0201701N00621004801CN0050001N1+00201-00101999999ADDAG12999GA1091+004809999MA1096721999999MW1681
0063010015999991991010213504+61450+005867FM-15+0150ENBL V0209991V00261220001CN0050001N1+00201+00001999999ADDAG12999GA1021+001509079MA1096821999999MW1681REMMET007PM 19KT
0047010015999991991010214504+61450+005867FM-15+0150ENBL V0209991V00211220001CN0040001N1+00101+00101999999ADDAG12006GA1021+000309079MA1096881999999MW1681
0047010015999991991010215504+61450+005867FM-15+0150ENBL V0202901N00151220001CN0030001N1+00001+00001999999ADDAG12999GA1021+000909079MA1096881999999MW1711
0063010015999991991010217504+61450+005867FM-15+0150ENBL V0209991V00101004501CN0080001N1+00001+00001999999ADDAG12006GA1021+001209079GA2061+004509059MA1096991999999MW1681
0079010015999991991010219504+61450+005867FM-15+0150ENBL V0201801N00361004501CN0060001N1+00101+00101999999ADDAG12999GA1021+000609079GA2071+004509059MA1097091999999MW1681REMMET007PM 17KT
0047010015999991991010304504+61450+005867FM-15+0150ENBL V0209991V00211220001CN0030001N1-00101-00101999999ADDAG12999GA1021+000609079MA1097701999999MW1851
0047010015999991991010305504+61450+005867FM-15+0150ENBL V0201901N00261002701CN0035001N1-00101-00101999999ADDAG12000GA1091+002709999MA1097801999999MW1851
0063010015999991991010306504+61450+005867FM-15+0150ENBL V0201901N00261006601CN0112001N1+00001+00001999999ADDAG12999GA1021+005109089GA2061+006609089MA1097801999999MW1271
0076010015999991991010307504+61450+005867FM-15+0150ENBL V0201701N00311006601CN0112001N1+00001+00001999999ADDAG12999GA1021+004509099GA2051+006609089MA1097801999999EQDQ01+000000PRSWM2
0047010015999991991010308504+61450+005867FM-15+0150ENBL V0202201N00261003001CN0020001N1+00001-00101999999ADDAG12000GA1091+003009999MA1097901999999MW1851
0047010015999991991010310504+61450+005867FM-15+0150ENBL V0201901N00311003001CN0020001N1-00101-00201999999ADDAG12999GA1091+003009999MA1098001999999MW1851
0103010015999991991010311504+61450+005867FM-15+0150ENBL V0209991V00261006601CN0112001N1+00001-00101999999ADDAG12000GA1011+003009079GA2021+004509099GA3051+006609089MA1098101999999MW1851REMMET015VIS TOW NE 4000
0047010015999991991010312504+61450+005867FM-15+0150ENBL V0202301N00411003601CN0035001N1+00001-00101999999ADDAG12999GA1091+003609999MA1098101999999MW1851
0063010015999991991010313504+61450+005867FM-15+0150ENBL V0201801N01031007501CN0112001N1+00001-00101999999ADDAG12999GA1021+004509089GA2061+007509089MA1098101999999MW1851
0063010015999991991010314504+61450+005867FM-15+0150ENBL V0201901N00361007501CN0112001N1+00001-00101999999ADDAG12000GA1021+004509089GA2061+007509089MA1098101999999MW1851
0063010015999991991010315504+61450+005867FM-15+0150ENBL V0201901N00361007501CN0112001N1+00001-00101999999ADDAG12999GA1021+004509089GA2061+007509089MA1098101999999MW1851
0063010015999991991010317504+61450+005867FM-15+0150ENBL V0201901N00261010501CN0112001N1+00001-00101999999ADDAG12000GA1021+003009079GA2061+010509089MA1098211999999MW1851
0047010015999991991010318504+61450+005867FM-15+0150ENBL V0201701N00361006001CN0040001N1+00001-00101999999ADDAG12999GA1091+006009999MA1098311999999MW1701
0060010015999991991010319504+61450+005867FM-15+0150ENBL V0201801N00411220001CN0112001N1+00001-00301999999ADDAG12999GA1041+009009089MA1098311999999EQDQ01+000000PRSWM2
0079010015999991991010404504+61450+005867FM-15+0150ENBL V0202001N00261008401CN0112001N1-00101-00201999999ADDAG12999GA1011+002409079GA2021+004509089GA3051+008409089MA1098211999999MW1851
0079010015999991991010405504+61450+005867FM-15+0150ENBL V0201801N00261009001CN0112001N1-00101-00101999999ADDAG12000GA1011+002409079GA2021+004509089GA3051+009009089MA1098211999999MW1851
0063010015999991991010406504+61450+005867FM-15+0150ENBL V0201701N00311007501CN0112001N1-00101-00101999999ADDAG12999GA1011+001509079GA2051+007509089MA1098101999999MW1851
0063010015999991991010407504+61450+005867FM-15+0150ENBL V0201701N00511007501CN0112001N1-00101-00201999999ADDAG12999GA1021+003009079GA2041+007509089MA1098101999999MW1851
0063010015999991991010408504+61450+005867FM-15+0150ENBL V0201701N00211007501CN0112001N1-00101-00201999999ADDAG12000GA1021+003009079GA2041+007509089MA1098211999999MW1851
0063010015999991991010410504+61450+005867FM-15+0150ENBL V0201701N00411007501CN0112001N1-00101-00201999999ADDAG12999GA1021+003009079GA2061+007509089MA1098211999999MW1851
0060010015999991991010411504+61450+005867FM-15+0150ENBL V0201701N00361220001CN0112001N1+00001-00301999999ADDAG12000GA1041+007509089MA1098211999999EQDQ01+000000PRSWM2
0060010015999991991010412504+61450+005867FM-15+0150ENBL V0201501N00261220001CN0112001N1-00101-00301999999ADDAG12999GA1041+007509089MA1098211999999EQDQ01+000000PRSWM2
0076010015999991991010413504+61450+005867FM-15+0150ENBL V0200601N00211012001CN0112001N1-00101-00401999999ADDAG12999GA1011+006009059GA2051+012009059MA1098101999999EQDQ01+000000PRSWM2
0076010015999991991010415504+61450+005867FM-15+0150ENBL V0200601N00411013501CN0112001N1+00001-00501999999ADDAG12999GA1011+006009059GA2061+013509059MA1097901999999EQDQ01+000000PRSWM2
0071010015999991991010416504+61450+005867FM-15+0150ENBL V0201201N00461013501CN0080001N1+00001-00501999999ADDAG12999GA1021+006009089GA2061+013509059MA1097901999999MW1851OC100981
0047010015999991991010418504+61450+005867FM-15+0150ENBL V0200601N00411003601CN0035001N1-00201-00301999999ADDAG12999GA1091+003609999MA1097901999999MW1701
0047010015999991991010419504+61450+005867FM-15+0150ENBL V0200701N00511003301CN0030001N1-00201-00301999999ADDAG12999GA1091+003309999MA1097801999999MW1851
0063010015999991991010506504+61450+005867FM-15+0150ENBL V0201601N00361004501CN0112001N1+00101+00001999999ADDAG12999GA1011+001509079GA2061+004509089MA1097601999999MW1251
0079010015999991991010509504+61450+005867FM-15+0150ENBL V0201801N00361004501CN0112001N1+00101+00101999999ADDAG12999GA1011+000909079GA2031+003009089GA3061+004509089MA1097701999999MW1601
0079010015999991991010510504+61450+005867FM-15+0150ENBL V0202101N00511004501CN0112001N1+00101+00101999999ADDAG12999GA1011+001209079GA2031+003009089GA3061+004509089MA1097901999999MW1601
0063010015999991991010511504+61450+005867FM-15+0150ENBL V0202101N00511220001CN0112001N1+00201+00001999999ADDAG12003GA1011+003609079GA2041+004509089MA1097901999999MW1211
0063010015999991991010512504+61450+005867FM-15+0150ENBL V0201901N00571004501CN0090001N1+00101-00101999999ADDAG12999GA1021+002409079GA2061+004509089MA1097901999999MW1801
0063010015999991991010513504+61450+005867FM-15+0150ENBL V0202101N00461004501CN0112001N1+00101+00001999999ADDAG12999GA1021+003009089GA2061+004509089MA1097901999999MW1251
0076010015999991991010611504+61450+005867FM-15+0150ENBL V0209991V00101220001CN0112001N1-00101-00401999999ADDAG12000GA1011+010509059GA2031+015009039MA1097091999999EQDQ01+000000PRSWM2
0060010015999991991010612504+61450+005867FM-15+0150ENBL V0200401N00261220001CN0112001N1+00001-00501999999ADDAG12999GA1021+013509039MA1097091999999EQDQ01+000000PRSWM2
0060010015999991991010613504+61450+005867FM-15+0150ENBL V0200201N00151220001CN0112001N1-00101-00501999999ADDAG12999GA1021+015009039MA1097191999999EQDQ01+000000PRSWM2
0060010015999991991010615504+61450+005867FM-15+0150ENBL V0200301N00361220001CN0112001N1-00201-00601999999ADDAG12999GA1021+012009059MA1097291999999EQDQ01+000000PRSWM2
0060010015999991991010617504+61450+005867FM-15+0150ENBL V0200201N00311220001CN0112001N1-00201-00501999999ADDAG12000GA1011+012009059MA1097491999999EQDQ01+000000PRSWM2
0060010015999991991010618504+61450+005867FM-15+0150ENBL V0200201N00151220001CN0112001N1-00401-00601999999ADDAG12999GA1011+012009059MA1097601999999EQDQ01+000000PRSWM2
0044010015999991991010704504+61450+005867FM-15+0150ENBL V0209991V00101220001CN0112001N1-00601-00601999999ADDAG12999MA1098001999999EQDQ01+000000PRSWM2
0060010015999991991010707504+61450+005867FM-15+0150ENBL V0202601N00211220001CN0112001N1-00701-00801999999ADDAG12999GA1011+030009039MA1098101999999EQDQ01+000000PRSWM2
0076010015999991991010708504+61450+005867FM-15+0150ENBL V0202801N00211220001CN0112001N1-00701-00801999999ADDAG12000GA1011+030009039GA2031+060009009MA1098211999999EQDQ01+000000PRSWM2
0076010015999991991010709504+61450+005867FM-15+0150ENBL V0209991V00151220001CN0112001N1-00601-00701999999ADDAG12999GA1011+030009039GA2041+060009009MA1098211999999EQDQ01+000000PRSWM2
0076010015999991991010710504+61450+005867FM-15+0150ENBL V0202801N00151220001CN0112001N1-00701-00801999999ADDAG12999GA1011+030009039GA2041+060009009MA1098211999999EQDQ01+000000PRSWM2
0076010015999991991010711504+61450+005867FM-15+0150ENBL V0202901N00151220001CN0112001N1-00701-00801999999ADDAG12000GA1011+024009039GA2041+060009009MA1098211999999EQDQ01+000000PRSWM2
0076010015999991991010712504+61450+005867FM-15+0150ENBL V0209991V00101220001CN0112001N1-00601-00801999999ADDAG12999GA1011+021009039GA2041+054009009MA1098211999999EQDQ01+000000PRSWM2
0076010015999991991010713504+61450+005867FM-15+0150ENBL V0200101N00151220001CN0112001N1-00601-00901999999ADDAG12999GA1021+024009039GA2021+060009009MA1098101999999EQDQ01+000000PRSWM2
0076010015999991991010714504+61450+005867FM-15+0150ENBL V0200301N00311220001CN0112001N1-00501-00901999999ADDAG12000GA1021+024009039GA2021+060009009MA1098101999999EQDQ01+000000PRSWM2
0076010015999991991010715504+61450+005867FM-15+0150ENBL V0200301N00211024001CN0112001N1-00501-01001999999ADDAG12999GA1021+012009089GA2041+024009039MA1098101999999EQDQ01+000000PRSWM2
0076010015999991991010716504+61450+005867FM-15+0150ENBL V0200401N00261220001CN0112001N1-00401-00901999999ADDAG12999GA1021+012009089GA2031+024009039MA1098101999999EQDQ01+000000PRSWM2
0076010015999991991010717504+61450+005867FM-15+0150ENBL V0200301N00311220001CN0112001N1-00301-01001999999ADDAG12000GA1021+012009089GA2031+024009039MA1098101999999EQDQ01+000000PRSWM2
0047010015999991991010718504+61450+005867FM-15+0150ENBL V0203001N00151012001CN0112001N1-00301-00901999999ADDAG12999GA1061+012009089MA1098101999999MW1701
0047010015999991991010719504+61450+005867FM-15+0150ENBL V0203201N00151004501CN0030001N1-00401-00501999999ADDAG12999GA1091+004509999MA1098101999999MW1711
0076010015999991991010804504+61450+005867FM-15+0150ENBL V0209991V00101220001CN0112001N1-00301-00501999999ADDAG12999GA1011+012009089GA2021+060009009MA1098101999999EQDQ01+000000PRSWM2
0060010015999991991010805504+61450+005867FM-15+0150ENBL V0200901N00101220001CN0112001N1-00401-00601999999ADDAG12000GA1021+012009089MA1098001999999EQDQ01+000000PRSWM2
0060010015999991991010806504+61450+005867FM-15+0150ENBL V0203101N00151220001CN0112001N1-00301-00501999999ADDAG12999GA1021+012009089MA1098001999999EQDQ01+000000PRSWM2
0060010015999991991010807504+61450+005867FM-15+0150ENBL V0202601N00151220001CN0112001N1-00401-00601999999ADDAG12999GA1021+012009089MA1098001999999EQDQ01+000000PRSWM2
0060010015999991991010808504+61450+005867FM-15+0150ENBL V0209991V00101220001CN0112001N1-00601-00801999999ADDAG12000GA1031+012009089MA1098101999999EQDQ01+000000PRSWM2
0076010015999991991010809504+61450+005867FM-15+0150ENBL V0202601N00151220001CN0112001N1-00501-00701999999ADDAG12999GA1021+012009089GA2031+024009039MA1098101999999EQDQ01+000000PRSWM2
0076010015999991991010810504+61450+005867FM-15+0150ENBL V0203001N00211220001CN0112001N1-00501-00701999999ADDAG12999GA1031+012009089GA2021+024009039MA1098211999999EQDQ01+000000PRSWM2
0076010015999991991010811504+61450+005867FM-15+0150ENBL V0203201N00151220001CN0112001N1-00401-00601999999ADDAG12000GA1031+012009089GA2021+024009039MA1098101999999EQDQ01+000000PRSWM2
0076010015999991991010812504+61450+005867FM-15+0150ENBL V0202901N00151220001CN0112001N1-00301-00701999999ADDAG12999GA1021+009009089GA2021+012009089MA1098211999999EQDQ01+000000PRSWM2
0076010015999991991010813504+61450+005867FM-15+0150ENBL V0202901N00151012001CN0112001N1-00301-00701999999ADDAG12999GA1011+006009089GA2051+012009059MA1098311999999EQDQ01+000000PRSWM2
0076010015999991991010814504+61450+005867FM-15+0150ENBL V0203201N00151220001CN0112001N1-00301-00601999999ADDAG12000GA1011+006009089GA2031+012009059MA1098311999999EQDQ01+000000PRSWM2
0076010015999991991010815504+61450+005867FM-15+0150ENBL V0203101N00151220001CN0112001N1-00401-00801999999ADDAG12999GA1011+004509089GA2031+012009059MA1098411999999EQDQ01+000000PRSWM2
0076010015999991991010816504+61450+005867FM-15+0150ENBL V0203001N00151220001CN0112001N1-00501-00801999999ADDAG12999GA1011+004509089GA2031+012009059MA1098411999999EQDQ01+000000PRSWM2
0076010015999991991010818504+61450+005867FM-15+0150ENBL V0209991V00151220001CN0112001N1-00301-00701999999ADDAG12999GA1011+007509089GA2031+012009059MA1098511999999EQDQ01+000000PRSWM2
0076010015999991991010819504+61450+005867FM-15+0150ENBL V0203401N00261220001CN0112001N1-00401-00801999999ADDAG12999GA1011+007509089GA2031+012009059MA1098511999999EQDQ01+000000PRSWM2
0060010015999991991010904504+61450+005867FM-15+0150ENBL V0200401N00511220001CN0112001N1-00301-01001999999ADDAG12999GA1011+015009059MA1097901999999EQDQ01+000000PRSWM2
0060010015999991991010905504+61450+005867FM-15+0150ENBL V0203601N00411220001CN0112001N1-00101-01001999999ADDAG12000GA1011+015009059MA1097801999999EQDQ01+000000PRSWM2
0060010015999991991010906504+61450+005867FM-15+0150ENBL V0203501N00411220001CN0112001N1-00201-01101999999ADDAG12999GA1021+015009059MA1097801999999EQDQ01+000000PRSWM2
0075010015999991991010907504+61450+005867FM-15+0150ENBL V0200701N00511220001CN0112001N1-00101-01101999999ADDAG12999GA1031+015009059MA1097801999999REMMET006PM18KTEQDQ01+000000PRSWM2
0076010015999991991010908504+61450+005867FM-15+0150ENBL V0200201N00311021001CN0112001N1-00101-00901999999ADDAG12000GA1011+006009089GA2051+021009039MA1097801999999EQDQ01+000000PRSWM2
0076010015999991991010909504+61450+005867FM-15+0150ENBL V0200401N00151021001CN0112001N1-00101-01001999999ADDAG12999GA1021+010509059GA2051+021009039MA1097801999999EQDQ01+000000PRSWM2
0076010015999991991010910504+61450+005867FM-15+0150ENBL V0200801N00151015001CN0112001N1-00101-01001999999ADDAG12999GA1021+009009059GA2051+015009059MA1097901999999EQDQ01+000000PRSWM2
0063010015999991991010911504+61450+005867FM-15+0150ENBL V0209991V00151012001CN0112001N1-00101-00901999999ADDAG12003GA1021+007509059GA2071+012009059MA1098001999999MW1711
0086010015999991991010912504+61450+005867FM-15+0150ENBL V0201301N00211015001CN0112001N1-00101-00701999999ADDAG12999GA1021+007509059GA2071+015009059MA1098101999999MW1711REMMET014VIS TOW W 6000
0076010015999991991010913504+61450+005867FM-15+0150ENBL V0202101N00101013501CN0112001N1-00201-00501999999ADDAG12999GA1021+006009089GA2061+013509089MA1098101999999EQDQ01+000000PRSWM2
0076010015999991991010914504+61450+005867FM-15+0150ENBL V0203301N00101015001CN0112001N1-00201-00301999999ADDAG12000GA1011+009009089GA2051+015009089MA1098211999999EQDQ01+000000PRSWM2
0076010015999991991010915504+61450+005867FM-15+0150ENBL V0200901N00211013501CN0112001N1-00201-00301999999ADDAG12999GA1021+009009089GA2061+013509089MA1098211999999EQDQ01+000000PRSWM2
0063010015999991991010916504+61450+005867FM-15+0150ENBL V0200201N00101013501CN0112001N1-00201-00401999999ADDAG12999GA1021+009009089GA2061+013509089MA1098311999999MW1701
0076010015999991991010918504+61450+005867FM-15+0150ENBL V0202201N00211018001CN0112001N1-00201-00701999999ADDAG12999GA1021+009009089GA2031+018009089MA1098311999999EQDQ01+000000PRSWM2
0060010015999991991011004504+61450+005867FM-15+0150ENBL V0200401N00621220001CN0112001N1-00101-00901999999ADDAG12999GA1031+015009039MA1097701999999EQDQ01+000000PRSWM2
0060010015999991991011005504+61450+005867FM-15+0150ENBL V0200301N00511013501CN0112001N1-00101-00801999999ADDAG12000GA1051+013509059MA1097601999999EQDQ01+000000PRSWM2
0076010015999991991011007504+61450+005867FM-15+0150ENBL V0200501N00671013501CN0112001N1-00101-00801999999ADDAG12999GA1021+009009059GA2061+013509059MA1097391999999EQDQ01+000000PRSWM2
0092010015999991991011009504+61450+005867FM-15+0150ENBL V0200701N00881013501CN0112001N1-00101-00701999999ADDAG12999GA1021+009009059GA2061+013509059MA1097191999999REMMET007DIST SNEQDQ01+000000PRSWM2
0076010015999991991011010504+61450+005867FM-15+0150ENBL V0200601N00361013501CN0112001N1-00101-00601999999ADDAG12999GA1021+009009059GA2061+013509059MA1097091999999EQDQ01+000000PRSWM2
0076010015999991991011011504+61450+005867FM-15+0150ENBL V0200301N00211013501CN0112001N1-00101-00601999999ADDAG12000GA1021+009009059GA2061+013509059MA1096991999999EQDQ01+000000PRSWM2
0092010015999991991011012504+61450+005867FM-15+0150ENBL V0200301N00261013501CN0112001N1-00101-00601999999ADDAG12999GA1021+009009059GA2061+013509059MA1097091999999REMMET007DIST SNEQDQ01+000000PRSWM2
0076010015999991991011013504+61450+005867FM-15+0150ENBL V0200901N00151013501CN0112001N1-00101-00601999999ADDAG12999GA1021+009009059GA2061+013509059MA1097191999999EQDQ01+000000PRSWM2
0076010015999991991011014504+61450+005867FM-15+0150ENBL V0202501N00101013501CN0112001N1-00201-00601999999ADDAG12000GA1021+009009059GA2061+013509059MA1097291999999EQDQ01+000000PRSWM2
0076010015999991991011015504+61450+005867FM-15+0150ENBL V0202401N00151013501CN0112001N1-00201-00501999999ADDAG12999GA1021+009009059GA2061+013509059MA1097391999999EQDQ01+000000PRSWM2
0076010015999991991011016504+61450+005867FM-15+0150ENBL V0202001N00101013501CN0112001N1-00201-00401999999ADDAG12999GA1021+009009059GA2051+013509059MA1097491999999EQDQ01+000000PRSWM2
0076010015999991991011017504+61450+005867FM-15+0150ENBL V0203101N00101013501CN0112001N1-00301-00501999999ADDAG12000GA1021+009009059GA2031+013509059MA1097601999999EQDQ01+000000PRSWM2
0060010015999991991011018504+61450+005867FM-15+0150ENBL V0203101N00101220001CN0112001N1-00301-00401999999ADDAG12999GA1041+013509059MA1097801999999EQDQ01+000000PRSWM2
0076010015999991991011107504+61450+005867FM-15+0150ENBL V0200401N00361045001CN0112001N1-00301-00701999999ADDAG12999GA1021+018009039GA2051+045009009MA1098711999999EQDQ01+000000PRSWM2
0092010015999991991011108504+61450+005867FM-15+0150ENBL V0200601N00261021001CN0112001N1-00201-00501999999ADDAG12000GA1031+012009059GA2061+021009039MA1098821999999REMMET007DIST SNEQDQ01+000000PRSWM2
0092010015999991991011109504+61450+005867FM-15+0150ENBL V0209991V00211015001CN0112001N1-00301-00601999999ADDAG12999GA1031+010509059GA2061+015009059MA1098821999999REMMET007DIST SNEQDQ01+000000PRSWM2
0063010015999991991011110504+61450+005867FM-15+0150ENBL V0200201N00261015001CN0112001N1-00201-00601999999ADDAG12999GA1031+009009059GA2061+015009059MA1098821999999MW1261
0047010015999991991011111504+61450+005867FM-15+0150ENBL V0209991V00101220001CN0030001N1-00201-00301999999ADDAG12000GA1021+002409079MA1098921999999MW1851
0047010015999991991011112504+61450+005867FM-15+0150ENBL V0200301N00261220001CN0040001N1-00201-00301999999ADDAG12999GA1021+002409079MA1098921999999MW1851
0047010015999991991011113504+61450+005867FM-15+0150ENBL V0209991V00151220001CN0030001N1-00201-00201999999ADDAG12999GA1021+000909079MA1098981999999MW1851
0047010015999991991011114504+61450+005867FM-15+0150ENBL V0209991V00101220001CN0030001N1-00201-00201999999ADDAG12000GA1021+000159079MA1099091999999MW1851
0063010015999991991011115504+61450+005867FM-15+0150ENBL V0209991V00101007501CN0030001N1-00201-00201999999ADDAG12999GA1041+000309079GA2061+007509059MA1099191999999MW1261
0070010015999991991011117504+61450+005867FM-15+0150ENBL V0201201N00051000151CN0010001N1-00201-00201999999ADDAG12000GA1051+000159079MA1099391999999MW1851REMMET014VIS TOW E 3000
0063010015999991991011118504+61450+005867FM-15+0150ENBL V0201601N00051002401CN0015001N1-00201-00201999999ADDAG12999GA1031+000159079GA2051+002409079MA1099491999999MW1261
0047010015999991991011119504+61450+005867FM-15+0150ENBL V0203101N00101220001CN0010001N1-00201-00201999999ADDAG12999GA1041+000159079MA1099491999999MW1851
0047010015999991991011120504+61450+005867FM-15+0150ENBL V0202001N00151220001CN0012001N1-00201-00201999999ADDAG12000GA1031+000159079MA1099591999999MW1851
0047010015999991991011206504+61450+005867FM-15+0150ENBL V0201601N00151003001CN0012001N1-00301-00301999999ADDAG12999GA1091+003009999MA1100311999999MW1851
0047010015999991991011207504+61450+005867FM-15+0150ENBL V0201401N00151001501CN0005001N1-00201-00201999999ADDAG12999GA1091+001509999MA1100311999999MW1851
0047010015999991991011208504+61450+005867FM-15+0150ENBL V0201701N00151220001CN0010001N1-00201-00201999999ADDAG12000GA1041+000159079MA1100511999999MW1851
0063010015999991991011209504+61450+005867FM-15+0150ENBL V0202001N00211999999CN0010001N1-00201-00201999999ADDAG12999GA1041+000309079GA2021+999999079MA1100611999999MW1851
0106010015999991991011210504+61450+005867FM-15+0150ENBL V0202101N00261002401CN0112001N1-00201-00201999999ADDAG12999GA1031+000609079GA2051+002409079GA3071+006009059MA1100611999999MW1261REMMET018VIS TOW NW-NE 3000
0047010015999991991011211504+61450+005867FM-15+0150ENBL V0209991V00101220001CN0005001N1-00201-00201999999ADDAG12000GA1031+000159079MA1100711999999MW1851
0047010015999991991011212504+61450+005867FM-15+0150ENBL V0201701N00151220001CN0005001N1-00201-00201999999ADDAG12999GA1031+000159079MA1100811999999MW1851
0047010015999991991011213504+61450+005867FM-15+0150ENBL V0202101N00151220001CN0025001N1-00201-00201999999ADDAG12999GA1031+000609079MA1100811999999MW1851
0092010015999991991011311504+61450+005867FM-15+0150ENBL V0202501N00151009001CN0112001N1-00101-00101999999ADDAG12000GA1021+002409079GA2051+009009059GA3011+999999079MA1103181999999EQDQ01+000000PRSWM2
0092010015999991991011312504+61450+005867FM-15+0150ENBL V0209991V00101009001CN0112001N1+00001+00001999999ADDAG12999GA1011+002409079GA2031+006009059GA3051+009009059MA1103181999999EQDQ01+000000PRSWM2
0076010015999991991011313504+61450+005867FM-15+0150ENBL V0209991V00101220001CN0112001N1-00101-00101999999ADDAG12999GA1011+002409079GA2041+009009059MA1103291999999EQDQ01+000000PRSWM2
0060010015999991991011314504+61450+005867FM-15+0150ENBL V0203401N00101009001CN0112001N1-00301-00301999999ADDAG12000GA1051+009009059MA1103391999999EQDQ01+000000PRSWM2
0097010015999991991011315504+61450+005867FM-15+0150ENBL V0200301N00051220001CN0112001N1+99999+99999999999ADDAG12999GA1011+009009059GA2041+060009009MA1103391999999REMMET012RJCT40  2702EQDQ01+000000PRSWM2
0097010015999991991011316504+61450+005867FM-15+0150ENBL V0209991V00211220001CN0112001N1+99999+99999999999ADDAG12999GA1011+012009059GA2031+060009009MA1103491999999REMMET012RJCT40  2692EQDQ01+000000PRSWM2
0081010015999991991011317504+61450+005867FM-15+0150ENBL V0203601N00151220001CN0112001N1+99999+99999999999ADDAG12000GA1011+012009059MA1103591999999REMMET012RJCT40  2682EQDQ01+000000PRSWM2
0060010015999991991011319504+61450+005867FM-15+0150ENBL V0203401N00151220001CN0112001N1-00501-00601999999ADDAG12999GA1041+009009059MA1103691999999EQDQ01+000000PRSWM2
0044010015999991991011406504+61450+005867FM-15+0150ENBL V0203201N00211220001CN0112001N1-00701-00801999999ADDAG12999MA1103891999999EQDQ01+000000PRSWM2
0076010015999991991011407504+61450+005867FM-15+0150ENBL V0209991V00151220001CN0112001N1-00601-00701999999ADDAG12999GA1011+006009059GA2041+015009059MA1104001999999EQDQ01+000000PRSWM2
0076010015999991991011408504+61450+005867FM-15+0150ENBL V0209991V00151220001CN0112001N1-00501-00601999999ADDAG12000GA1011+006009059GA2031+015009059MA1104001999999EQDQ01+000000PRSWM2
0092010015999991991011409504+61450+005867FM-15+0150ENBL V0209991V00151024001CN0112001N1-00501-00701999999ADDAG12999GA1011+006009059GA2031+015009059GA3051+024009039MA1104101999999EQDQ01+000000PRSWM2
0076010015999991991011410504+61450+005867FM-15+0150ENBL V0209991V00151024001CN0112001N1-00401-00601999999ADDAG12999GA1021+006009059GA2051+024009039MA1104001999999EQDQ01+000000PRSWM2
0076010015999991991011411504+61450+005867FM-15+0150ENBL V0203001N00211024001CN0112001N1-00501-00701999999ADDAG12000GA1011+006009089GA2051+024009039MA1104001999999EQDQ01+000000PRSWM2
0076010015999991991011412504+61450+005867FM-15+0150ENBL V0209991V00101024001CN0112001N1-00401-00601999999ADDAG12999GA1011+006009089GA2051+024009039MA1104001999999EQDQ01+000000PRSWM2
0076010015999991991011414504+61450+005867FM-15+0150ENBL V0209991V00101220001CN0112001N1-00501-00601999999ADDAG12000GA1011+006009089GA2041+010509059MA1104001999999EQDQ01+000000PRSWM2
0076010015999991991011415504+61450+005867FM-15+0150ENBL V0201801N00361010501CN0112001N1-00201-00501999999ADDAG12999GA1011+006009089GA2051+010509059MA1104001999999EQDQ01+000000PRSWM2
0076010015999991991011416504+61450+005867FM-15+0150ENBL V0201801N00411010501CN0112001N1-00301-00501999999ADDAG12999GA1021+006009089GA2051+010509059MA1104001999999EQDQ01+000000PRSWM2
0077010015999991991011417504+61450+005867FM-15+0150ENBL V0201901N00361007501CN0112001N1-00201-00501999999ADDAG12000GA1021+006009089GA2061+007509059EQDQ01+029653APOA  Q02+000000PRSWM2
0076010015999991991011418504+61450+005867FM-15+0150ENBL V0201801N00411007501CN0112001N1-00201-00501999999ADDAG12999GA1021+006009059GA2061+007509059MA1104001999999EQDQ01+000000PRSWM2
0076010015999991991011504504+61450+005867FM-15+0150ENBL V0201801N00621010501CN0112001N1+00001-00401999999ADDAG12999GA1031+007509059GA2061+010509059MA1103791999999EQDQ01+000000PRSWM2
0076010015999991991011505504+61450+005867FM-15+0150ENBL V0201701N00571011101CN0112001N1+00001-00401999999ADDAG12000GA1021+008109059GA2061+011109059MA1103691999999EQDQ01+000000PRSWM2
0076010015999991991011507504+61450+005867FM-15+0150ENBL V0201801N00461010801CN0112001N1-00101-00401999999ADDAG12999GA1021+007809059GA2061+010809059MA1103691999999EQDQ01+000000PRSWM2
0076010015999991991011508504+61450+005867FM-15+0150ENBL V0201801N00511012001CN0112001N1-00101-00401999999ADDAG12000GA1021+009009059GA2061+012009059MA1103691999999EQDQ01+000000PRSWM2
0076010015999991991011512504+61450+005867FM-15+0150ENBL V0201801N00261220001CN0112001N1-00101-00701999999ADDAG12999GA1011+009009059GA2031+012009059MA1103591999999EQDQ01+000000PRSWM2
0060010015999991991011513504+61450+005867FM-15+0150ENBL V0201801N00311220001CN0112001N1-00101-00701999999ADDAG12999GA1011+012009089MA1103491999999EQDQ01+000000PRSWM2
0060010015999991991011514504+61450+005867FM-15+0150ENBL V0209991V00101220001CN0112001N1-00301-00801999999ADDAG12000GA1011+012009089MA1103491999999EQDQ01+000000PRSWM2
0044010015999991991011515504+61450+005867FM-15+0150ENBL V0203501N00151220001CN0112001N1-00501-00901999999ADDAG12999MA1103391999999EQDQ01+000000PRSWM2
0044010015999991991011516504+61450+005867FM-15+0150ENBL V0200101N00101220001CN0112001N1-00601-00901999999ADDAG12999MA1103391999999EQDQ01+000000PRSWM2
0044010015999991991011517504+61450+005867FM-15+0150ENBL V0200201N00151220001CN0112001N1-00701-01001999999ADDAG12000MA1103291999999EQDQ01+000000PRSWM2
0044010015999991991011604504+61450+005867FM-15+0150ENBL V0209991V00211220001CN0112001N1-00201-01301999999ADDAG12999MA1102811999999EQDQ01+000000PRSWM2
0044010015999991991011605504+61450+005867FM-15+0150ENBL V0202001N00511220001CN0112001N1-00101-01201999999ADDAG12000MA1102811999999EQDQ01+000000PRSWM2
0044010015999991991011606504+61450+005867FM-15+0150ENBL V0201801N00511220001CN0112001N1-00101-01201999999ADDAG12999MA1102811999999EQDQ01+000000PRSWM2
0044010015999991991011608504+61450+005867FM-15+0150ENBL V0201701N00461220001CN0112001N1+00101-01301999999ADDAG12000MA1102711999999EQDQ01+000000PRSWM2
0044010015999991991011610504+61450+005867FM-15+0150ENBL V0202201N00311220001CN0112001N1+00101-01401999999ADDAG12999MA1102811999999EQDQ01+000000PRSWM2
0044010015999991991011611504+61450+005867FM-15+0150ENBL V0202201N00261220001CN0112001N1+00201-01401999999ADDAG12000MA1102711999999EQDQ01+000000PRSWM2
0044010015999991991011612504+61450+005867FM-15+0150ENBL V0202201N00361220001CN0112001N1+00201-01401999999ADDAG12999MA1102711999999EQDQ01+000000PRSWM2
0044010015999991991011613504+61450+005867FM-15+0150ENBL V0202101N00461220001CN0112001N1+00101-01401999999ADDAG12999MA1102711999999EQDQ01+000000PRSWM2
0044010015999991991011614504+61450+005867FM-15+0150ENBL V0209991V00311220001CN0112001N1-00101-01401999999ADDAG12000MA1102711999999EQDQ01+000000PRSWM2
0044010015999991991011615504+61450+005867FM-15+0150ENBL V0209991V00261220001CN0112001N1-00201-01501999999ADDAG12999MA1102611999999EQDQ01+000000PRSWM2
0044010015999991991011618504+61450+005867FM-15+0150ENBL V0209991V00101220001CN0112001N1-00401-01501999999ADDAG12999MA1102511999999EQDQ01+000000PRSWM2
0044010015999991991011704504+61450+005867FM-15+0150ENBL V0200101N00101220001CN0112001N1-00601-01101999999ADDAG12999MA1102301999999EQDQ01+000000PRSWM2
0044010015999991991011707504+61450+005867FM-15+0150ENBL V0209991V00101220001CN0112001N1-00301-01601999999ADDAG12999MA1102001999999EQDQ01+000000PRSWM2
0044010015999991991011708504+61450+005867FM-15+0150ENBL V0209991V00261220001CN0112001N1-00301-01601999999ADDAG12000MA1101901999999EQDQ01+000000PRSWM2
0060010015999991991011709504+61450+005867FM-15+0150ENBL V0209991V00101220001CN0112001N1-00201-01601999999ADDAG12999GA1011+018009039MA1101901999999EQDQ01+000000PRSWM2
0060010015999991991011710504+61450+005867FM-15+0150ENBL V0209991V00101220001CN0112001N1+00201-01501999999ADDAG12999GA1011+018009039MA1101901999999EQDQ01+000000PRSWM2
0060010015999991991011711504+61450+005867FM-15+0150ENBL V0209991V00151220001CN0112001N1+00001-01501999999ADDAG12000GA1011+018009039MA1101801999999EQDQ01+000000PRSWM2
0060010015999991991011712504+61450+005867FM-15+0150ENBL V0209991V00311220001CN0112001N1-00201-01201999999ADDAG12999GA1011+018009039MA1101801999999EQDQ01+000000PRSWM2
0060010015999991991011713504+61450+005867FM-15+0150ENBL V0202401N00211220001CN0112001N1-00101-01001999999ADDAG12999GA1011+018009039MA1101801999999EQDQ01+000000PRSWM2
0060010015999991991011714504+61450+005867FM-15+0150ENBL V0202501N00211220001CN0112001N1-00301-01101999999ADDAG12000GA1011+018009039MA1101691999999EQDQ01+000000PRSWM2
0060010015999991991011715504+61450+005867FM-15+0150ENBL V0200101N00151220001CN0112001N1+00101-01001999999ADDAG12999GA1021+018009039MA1101691999999EQDQ01+000000PRSWM2
0060010015999991991011716504+61450+005867FM-15+0150ENBL V0209991V00151220001CN0112001N1+00001-01101999999ADDAG12999GA1021+018009039MA1101591999999EQDQ01+000000PRSWM2
0060010015999991991011717504+61450+005867FM-15+0150ENBL V0201601N00571220001CN0112001N1+00301-00701999999ADDAG12000GA1021+018009039MA1101491999999EQDQ01+000000PRSWM2
0060010015999991991011718504+61450+005867FM-15+0150ENBL V0201501N00621018001CN0112001N1+00401-00601999999ADDAG12999GA1061+018009039MA1101491999999EQDQ01+000000PRSWM2
0071010015999991991011719504+61450+005867FM-15+0150ENBL V0201801N00721007501CN0060001N1+00301-00101999999ADDAG12999GA1031+004509059GA2071+007509059MA1101591999999MW1601OC101391
0087010015999991991011804504+61450+005867FM-15+0150ENBL V0202101N00771006001CN0112001N1+00301+00201999999ADDAG12999GA1011+003609089GA2031+004509059GA3061+006009059MA1101691999999MW1801OC101441
0103010015999991991011805504+61450+005867FM-15+0150ENBL V0202401N00511004501CN0112001N1+00301+00201999999ADDAG12001GA1011+002409079GA2031+003609089GA3061+004509059MA1101901999999MW1251OC101031REMMET007PM 32KT
0063010015999991991011806504+61450+005867FM-15+0150ENBL V0202201N00671006001CN0112001N1+00301+00001999999ADDAG12999GA1061+006009059MA1102001999999MW1801REMMET007PM 28KT
0063010015999991991011807504+61450+005867FM-15+0150ENBL V0202201N00511006001CN0112001N1+00201+00201999999ADDAG12999GA1061+006009059MA1102201999999MW1801REMMET007PM 30KT
0063010015999991991011808504+61450+005867FM-15+0150ENBL V0202201N00411006001CN0112001N1+00301+00101999999ADDAG12001GA1061+006009089MA1102301999999MW1251REMMET007PM 18KT
0063010015999991991011810504+61450+005867FM-15+0150ENBL V0202201N00361006001CN0112001N1+00301+00201999999ADDAG12999GA1021+003609089GA2051+006009089MA1102401999999MW1251
0060010015999991991011811504+61450+005867FM-15+0150ENBL V0202101N00361220001CN0112001N1+00301+00001999999ADDAG12000GA1031+006009089MA1102401999999EQDQ01+000000PRSWM2
0060010015999991991011812504+61450+005867FM-15+0150ENBL V0202001N00361220001CN0112001N1+00301-00101999999ADDAG12999GA1021+007509089MA1102401999999EQDQ01+000000PRSWM2
0076010015999991991011813504+61450+005867FM-15+0150ENBL V0209991V00151220001CN0112001N1+00301-00101999999ADDAG12999GA1011+007509089GA2031+060009009MA1102301999999EQDQ01+000000PRSWM2
0076010015999991991011814504+61450+005867FM-15+0150ENBL V0209991V00151060001CN0112001N1+00201-00101999999ADDAG12000GA1021+012009059GA2041+060009009MA1102301999999EQDQ01+000000PRSWM2
0076010015999991991011816504+61450+005867FM-15+0150ENBL V0209991V00151060001CN0112001N1+00001-00301999999ADDAG12999GA1021+015009059GA2041+060009009MA1102101999999EQDQ01+000000PRSWM2
0076010015999991991011817504+61450+005867FM-15+0150ENBL V0209991V00211060001CN0112001N1+00101-00601999999ADDAG12000GA1021+015009059GA2041+060009009MA1101901999999EQDQ01+000000PRSWM2
0076010015999991991011818504+61450+005867FM-15+0150ENBL V0203201N00211060001CN0112001N1+00101-00601999999ADDAG12999GA1021+015009059GA2041+060009009MA1101801999999EQDQ01+000000PRSWM2
0068010015999991991011906504+61450+005867FM-15+0150ENBL V0201801N00981012001CN0112001N1+00501-00401999999ADDAG12999GA1061+012009059MA1100811999999OC101491EQDQ01+000000PRSWM2
0087010015999991991011907504+61450+005867FM-15+0150ENBL V0202001N00821006001CN0090001N1+00301-00201999999ADDAG12999GA1021+004809059GA2061+006009059MA1100811999999MW1501OC101541REMMET007PM 36KT
0079010015999991991011908504+61450+005867FM-15+0150ENBL V0202001N00571005401CN0050001N1+00101+00101999999ADDAG12002GA1031+003009079GA2061+005409059MA1100911999999MW1601REMMET007PM 31KT
0104010015999991991011909504+61450+005867FM-15+0150ENBL V0209991V00621004501CN0050001N1+00101+00101999999ADDAG12999GA1031+003009079GA2061+004509059MA1100911999999MW1601OC101131REMMET024VRB 160-25       ?     0
0079010015999991991011910504+61450+005867FM-15+0150ENBL V0202001N00671004801CN0112001N1+00101+00101999999ADDAG12999GA1021+003309079GA2061+004809059MA1101021999999MW1211REMMET007PM 22KT
0063010015999991991011911504+61450+005867FM-15+0150ENBL V0202101N00571004501CN0050001N1+00101+00101999999ADDAG12004GA1021+003009079GA2061+004509059MA1101081999999MW1801
0063010015999991991011912504+61450+005867FM-15+0150ENBL V0202201N00461004801CN0080001N1+00101+00101999999ADDAG12999GA1021+003609079GA2061+004809059MA1101081999999MW1801
0079010015999991991011913504+61450+005867FM-15+0150ENBL V0202401N00671004801CN0112001N1+00101+00001999999ADDAG12999GA1011+000909079GA2021+003009099GA3051+004809089MA1101081999999MW1801
0079010015999991991011914504+61450+005867FM-15+0150ENBL V0202101N00671004801CN0112001N1+00101+00001999999ADDAG12004GA1011+001509079GA2021+003009099GA3051+004809089MA1101191999999MW1801
0063010015999991991012011504+61450+005867FM-15+0150ENBL V0202101N00361003301CN0070001N1+00401+00401999999ADDAG12007GA1021+000609079GA2061+003309059MA1100511999999MW1611
0063010015999991991012012504+61450+005867FM-15+0150ENBL V0202001N00261003301CN0060001N1+00401+00401999999ADDAG12999GA1021+000609079GA2061+003309059MA1100511999999MW1601
0063010015999991991012013504+61450+005867FM-15+0150ENBL V0202301N00411003301CN0060001N1+00401+00401999999ADDAG12999GA1021+000609079GA2061+003309059MA1100511999999MW1601
0063010015999991991012015504+61450+005867FM-15+0150ENBL V0203101N00311003001CN0060001N1+00401+00401999999ADDAG12999GA1021+000609079GA2061+003009059MA1100611999999MW1801
0079010015999991991012016504+61450+005867FM-15+0150ENBL V0202801N00311002401CN0050001N1+00301+00301999999ADDAG12999GA1021+000609079GA2041+002409079GA3061+004809089MA1100611999999MW1801
0063010015999991991012017504+61450+005867FM-15+0150ENBL V0203001N00311004501CN0112001N1+00201+00101999999ADDAG12001GA1031+001509079GA2061+004509089MA1100811999999MW1251
0079010015999991991012018504+61450+005867FM-15+0150ENBL V0202801N00361010501CN0112001N1+00101+00001999999ADDAG12999GA1011+001509079GA2041+004509089GA3061+010509059MA1101021999999MW1251
0092010015999991991012019504+61450+005867FM-15+0150ENBL V0209991V00211012001CN0112001N1+00101-00101999999ADDAG12999GA1011+002409079GA2031+005109089GA3051+012009059MA1101021999999EQDQ01+000000PRSWM2
0031010015999991991012104504+61450+005867FM-15+0150ENBL V0203401N00511220001CN0112001N1+00001-00301999999ADDAG12999MA1102301999999MW1701
0031010015999991991012105504+61450+005867FM-15+0150ENBL V0203401N00311220001CN0112001N1+00001-00301999999ADDAG12001MA1102511999999MW1701
0047010015999991991012106504+61450+005867FM-15+0150ENBL V0203401N00361220001CN0112001N1-00101-00201999999ADDAG12999GA1031+007509089MA1102711999999MW1851
0063010015999991991012107504+61450+005867FM-15+0150ENBL V0200301N00261010501CN0112001N1-00101-00201999999ADDAG12999GA1011+006009089GA2051+010509089MA1102811999999MW1851
0060010015999991991012108504+61450+005867FM-15+0150ENBL V0203401N00261220001CN0112001N1-00101-00401999999ADDAG12000GA1031+009009089MA1102911999999EQDQ01+000000PRSWM2
0060010015999991991012109504+61450+005867FM-15+0150ENBL V0200401N00261220001CN0112001N1-00101-00301999999ADDAG12999GA1031+009009089MA1103011999999EQDQ01+000000PRSWM2
0060010015999991991012110504+61450+005867FM-15+0150ENBL V0203301N00101220001CN0112001N1-00101-00501999999ADDAG12999GA1031+009009089MA1103121999999EQDQ01+000000PRSWM2
0060010015999991991012111504+61450+005867FM-15+0150ENBL V0203301N00101220001CN0112001N1+00001-00501999999ADDAG12000GA1031+009009089MA1103181999999EQDQ01+000000PRSWM2
0060010015999991991012112504+61450+005867FM-15+0150ENBL V0209991V00101220001CN0112001N1+00101-00501999999ADDAG12999GA1011+009009089MA1103291999999EQDQ01+000000PRSWM2
0060010015999991991012113504+61450+005867FM-15+0150ENBL V0200401N00211220001CN0112001N1+00001-00501999999ADDAG12999GA1011+009009089MA1103291999999EQDQ01+000000PRSWM2
0060010015999991991012114504+61450+005867FM-15+0150ENBL V0200401N00151220001CN0112001N1-00101-00601999999ADDAG12000GA1011+030009039MA1103391999999EQDQ01+000000PRSWM2
0076010015999991991012115504+61450+005867FM-15+0150ENBL V0203301N00151220001CN0112001N1-00401-00601999999ADDAG12999GA1011+015009059GA2031+060009009MA1103391999999EQDQ01+000000PRSWM2
0060010015999991991012116504+61450+005867FM-15+0150ENBL V0209991V00151220001CN0112001N1-00301-00401999999ADDAG12999GA1021+015009059MA1103491999999EQDQ01+000000PRSWM2
0076010015999991991012117504+61450+005867FM-15+0150ENBL V0200201N00101060001CN0112001N1-00401-00501999999ADDAG12000GA1031+015009059GA2051+060009009MA1103491999999EQDQ01+000000PRSWM2
0076010015999991991012118504+61450+005867FM-15+0150ENBL V0202901N00211024001CN0112001N1-00301-00401999999ADDAG12999GA1031+015009059GA2071+024009039MA1103491999999EQDQ01+000000PRSWM2
0076010015999991991012119504+61450+005867FM-15+0150ENBL V0203301N00101024001CN0112001N1-00301-00401999999ADDAG12999GA1031+015009059GA2071+024009039MA1103591999999EQDQ01+000000PRSWM2
0063010015999991991012204504+61450+005867FM-15+0150ENBL V0202201N00461004501CN0112001N1+00001-00101999999ADDAG12999GA1021+002409079GA2071+004509059MA1103591999999MW1501
0063010015999991991012205504+61450+005867FM-15+0150ENBL V0202301N00411004501CN0060001N1-00101-00101999999ADDAG12001GA1021+002409079GA2071+004509059MA1103591999999MW1511
0063010015999991991012206504+61450+005867FM-15+0150ENBL V0202201N00361004501CN0010001N1+00001+00001999999ADDAG12999GA1041+000159079GA2071+004509059MA1103491999999MW1561
0047010015999991991012207504+61450+005867FM-15+0150ENBL V0202101N00311000151CN0008001N1+00001+00001999999ADDAG12999GA1071+000159079MA1103491999999MW1561
0047010015999991991012208504+61450+005867FM-15+0150ENBL V0202201N00311000151CN0003001N1+00001+00001999999ADDAG12000GA1071+000159079MA1103591999999MW1561
0047010015999991991012209504+61450+005867FM-15+0150ENBL V0202201N00361000151CN0005001N1+00001+00001999999ADDAG12999GA1051+000159079MA1103591999999MW1511
0047010015999991991012210504+61450+005867FM-15+0150ENBL V0202301N00411000151CN0004001N1+00101+00101999999ADDAG12999GA1071+000159079MA1103591999999MW1511
0108010015999991991012211504+61450+005867FM-15+0150ENBL V0202301N00311002101CN0040001N1+00101+00101999999ADDAG12001GA1031+000159079GA2051+002109079GA3071+003609059MA1103491999999MW1511REMMET020VIS TOW W AND N 2000
0104010015999991991012213504+61450+005867FM-15+0150ENBL V0202401N00151003601CN0012001N1+00101+00101999999ADDAG12999GA1031+000159079GA2071+003609059MA1103391999999REMMET019VIS TO E.AND S.3000EQDQ01+000000PRSWM2
0066010015999991991012214504+61450+005867FM-15+0150ENBL V0201501N00151220001CN0010001N1+99999+99999999999ADDAG11001GA1031+000159079MW1511REMMET0252AST004 7SC012 01/01 1034
0079010015999991991012215504+61450+005867FM-15+0150ENBL V0201601N00151003601CN0015001N1+00201+00201999999ADDAG11999GA1021+000309079GA2021+001209079GA3071+003609059MA1103291999999MW1511
0079010015999991991012216504+61450+005867FM-15+0150ENBL V0209991C00001003601CN0015001N1+00201+00201999999ADDAG11999GA1021+000309079GA2021+001209079GA3071+003609059MA1103291999999MW1511
0047010015999991991012217504+61450+005867FM-15+0150ENBL V0202401N00211001801CN0005001N1+00201+00201999999ADDAG12000GA1091+001809999MA1103291999999MW1471
0047010015999991991012218504+61450+005867FM-15+0150ENBL V0202501N00151001801CN0006001N1+00201+00201999999ADDAG12999GA1091+001809999MA1103291999999MW1441
0079010015999991991012304504+61450+005867FM-15+0150ENBL V0202501N00311002401CN0050001N1+00301+00301999999ADDAG12999GA1021+000909079GA2041+002409079GA3061+003009059MA1102911999999MW1801
0092010015999991991012305504+61450+005867FM-15+0150ENBL V0209991V00211001801CN0030001N1+00301+00301999999ADDAG12001GA1021+000609079GA2041+001809079GA3061+003009059MA1102911999999MW1501REMMET004BCFG
0126010015999991991012307504+61450+005867FM-15+0150ENBL V0201901N00151001801CN0008001N1+00301+00301999999ADDAG12999GA1021+000159079GA2041+001809079GA3061+003009059MA1102911999999MW1501REMMET038VIS SEC E        ?     TO SW 3000 BCFG
0047010015999991991012308504+61450+005867FM-15+0150ENBL V0202101N00211220001CN0005001N1+00201+00201999999ADDAG12000GA1041+000159079MA1102911999999MW1461
0069010015999991991012310504+61450+005867FM-15+0150ENBL V0202201N00211220001CN0008001N1+00301+00301999999ADDAG12999GA1031+000159079MA1102811999999MW1501REMMET013VIS SEC S 3KM
0060010015999991991012311504+61450+005867FM-15+0150ENBL V0201901N00211001201CN0005001N1+00301+00301999999ADDAG12000GA1091+001209999MA1102811999999EQDQ01+000482PRSWM2
0047010015999991991012313504+61450+005867FM-15+0150ENBL V0202401N00211220001CN0007001N1+00301+00301999999ADDAG12999GA1041+000159079MA1102711999999MW1581
0079010015999991991012315504+61450+005867FM-15+0150ENBL V0201301N00211002401CN0050001N1+00401+00401999999ADDAG12999GA1041+000159079GA2061+002409079GA3021+999999079MA1102811999999MW1501
0079010015999991991012316504+61450+005867FM-15+0150ENBL V0200701N00151002101CN0025001N1+00301+00301999999ADDAG12999GA1041+000609079GA2071+002109079GA3021+999999079MA1102811999999MW1511
0070010015999991991012317504+61450+005867FM-15+0150ENBL V0200801N00151220001CN0010001N1+00301+00301999999ADDAG12003GA1041+000159079MA1102911999999MW1581REMMET014VIS TOW E 4000
0086010015999991991012318504+61450+005867FM-15+0150ENBL V0203001N00211003601CN0040001N1+00301+00301999999ADDAG12999GA1041+000159079GA2061+003609059MA1102911999999MW1401REMMET014VIS TOW E 1000
0047010015999991991012319504+61450+005867FM-15+0150ENBL V0203501N00311001501CN0003001N1+00401+00401999999ADDAG12999GA1091+001509999MA1102911999999MW1461
0076010015999991991012404504+61450+005867FM-15+0150ENBL V0200701N00151003001CN0112001N1+00001+00001999999ADDAG12999GA1021+002409079GA2041+003009079MA1103291999999EQDQ01+000000PRSWM2
0076010015999991991012405504+61450+005867FM-15+0150ENBL V0200201N00101220001CN0112001N1+00001+00001999999ADDAG12000GA1041+002409079GA2091+999999999MA1103181999999EQDQ01+000000PRSWM2
0092010015999991991012406504+61450+005867FM-15+0150ENBL V0200301N00101002101CN0112001N1-00101-00101999999ADDAG12999GA1021+000609079GA2041+002109079GA3061+018009039MA1103181999999EQDQ01+000000PRSWM2
0092010015999991991012407504+61450+005867FM-15+0150ENBL V0203501N00101002101CN0112001N1-00101-00101999999ADDAG12999GA1021+000609079GA2031+002109079GA3061+021009039MA1103291999999EQDQ01+000000PRSWM2
0047010015999991991012408504+61450+005867FM-15+0150ENBL V0202801N00101000151CN0008001N1-00101-00101999999ADDAG12000GA1061+000159079MA1103291999999MW1461
0063010015999991991012410504+61450+005867FM-15+0150ENBL V0209991V00151000151CN0005001N1-00101-00101999999ADDAG12999GA1051+000159079GA2061+009009059MA1103291999999MW1411
0116010015999991991012411504+61450+005867FM-15+0150ENBL V0209991V00101009001CN0112001N1+00001+00001999999ADDAG12000GA1021+000609079GA2061+009009059GA3091+999999999MA1103181999999REMMET015VIS TOW SW 2000EQDQ01+000000PRSWM2
0104010015999991991012412504+61450+005867FM-15+0150ENBL V0202301N00211006001CN0112001N1+00001+00001999999ADDAG12999GA1031+000159079GA2061+006009059GA3091+999999999MA1103291999999MW1401REMMET016VIS TOW S-E 1000
0108010015999991991012413504+61450+005867FM-15+0150ENBL V0201001N00101006001CN9999999N9+00001+00001999999ADDAG12999GA1031+002409079GA2061+006009059GA3021+999999079MA1103181999999EQDQ01+000002VOVAR Q02+000000PRSWM2
0079010015999991991012414504+61450+005867FM-15+0150ENBL V0200101N00101005401CN0020001N1+00001+00001999999ADDAG12001GA1031+000909079GA2061+005409059GA3021+999999079MA1103181999999MW1501
0092010015999991991012415504+61450+005867FM-15+0150ENBL V0203001N00151004501CN0020001N1+00001+00001999999ADDAG12999GA1031+000609079GA2061+004509059GA3021+999999079MA1103181999999EQDQ01+000000PRSWM2
0079010015999991991012416504+61450+005867FM-15+0150ENBL V0202701N00151003001CN0012001N1+00001+00001999999ADDAG12999GA1031+000609079GA2051+003009079GA3021+999999079MA1103121999999MW1501
0079010015999991991012417504+61450+005867FM-15+0150ENBL V0203201N00101003001CN0020001N1+00001+00001999999ADDAG12001GA1031+000609079GA2051+003009079GA3021+999999079MA1103121999999MW1501
0047010015999991991012418504+61450+005867FM-15+0150ENBL V0202701N00101001501CN0005001N1+00001+00001999999ADDAG12999GA1091+001509999MA1103121999999MW1471
0079010015999991991012504504+61450+005867FM-15+0150ENBL V0202401N00211002701CN0015001N1+00201+00201999999ADDAG12999GA1031+001209079GA2041+002709079GA3031+999999079MA1102811999999MW1411
0079010015999991991012505504+61450+005867FM-15+0150ENBL V0202401N00211002401CN0010001N1+00201+00201999999ADDAG12001GA1031+001209079GA2051+002409079GA3031+999999079MA1102811999999MW1501
0047010015999991991012506504+61450+005867FM-15+0150ENBL V0202301N00151001801CN0006001N1+00201+00201999999ADDAG12999GA1091+001809999MA1102811999999MW1551
0047010015999991991012507504+61450+005867FM-15+0150ENBL V0202201N00151001801CN0008001N1+00201+00201999999ADDAG12999GA1091+001809999MA1102811999999MW1551
0047010015999991991012509504+61450+005867FM-15+0150ENBL V0202101N00151001801CN0008001N1+00201+00201999999ADDAG12999GA1091+001809999MA1102811999999MW1551
0047010015999991991012510504+61450+005867FM-15+0150ENBL V0202101N00151001801CN0008001N1+00201+00201999999ADDAG12999GA1091+001809999MA1102811999999MW1551
0047010015999991991012511504+61450+005867FM-15+0150ENBL V0202201N00151001801CN0008001N1+00201+00201999999ADDAG12012GA1091+001809999MA1102711999999MW1551
0047010015999991991012512504+61450+005867FM-15+0150ENBL V0202101N00151001801CN0006001N1+00201+00201999999ADDAG12999GA1091+001809999MA1102711999999MW1551
0047010015999991991012513504+61450+005867FM-15+0150ENBL V0202101N00261001801CN0006001N1+00201+00201999999ADDAG12999GA1091+001809999MA1102711999999MW1531
0047010015999991991012515504+61450+005867FM-15+0150ENBL V0202101N00261001501CN0005001N1+00201+00201999999ADDAG12999GA1091+001509999MA1102611999999MW1521
0047010015999991991012516504+61450+005867FM-15+0150ENBL V0202001N00151001801CN0008001N1+00201+00201999999ADDAG12999GA1091+001809999MA1102611999999MW1531
0047010015999991991012517504+61450+005867FM-15+0150ENBL V0200101N00101001201CN0008001N1+00201+00201999999ADDAG12001GA1091+001209999MA1102511999999MW1511
0047010015999991991012518504+61450+005867FM-15+0150ENBL V0201701N00101002401CN0015001N1+00201+00201999999ADDAG12999GA1091+002409999MA1102511999999MW1501
0079010015999991991012605504+61450+005867FM-15+0150ENBL V0200901N00151012001CN0112001N1+00101+00101999999ADDAG12002GA1011+000309079GA2021+002409079GA3071+012009059MA1102401999999MW1601
0063010015999991991012606504+61450+005867FM-15+0150ENBL V0200301N00151012001CN0112001N1+00101+00101999999ADDAG12999GA1021+002409079GA2071+012009059MA1102401999999MW1601
0063010015999991991012607504+61450+005867FM-15+0150ENBL V0202001N00101012001CN0112001N1+00101+00101999999ADDAG12999GA1021+003009079GA2071+012009059MA1102401999999MW1601
0076010015999991991012608504+61450+005867FM-15+0150ENBL V0209991C00001009001CN0112001N1+00101+00101999999ADDAG12000GA1021+003009079GA2061+009009089MA1102401999999EQDQ01+000000PRSWM2
0079010015999991991012609504+61450+005867FM-15+0150ENBL V0203001N00151007501CN0050001N1+00101+00101999999ADDAG12999GA1021+000909079GA2011+003009079GA3061+007509089MA1102511999999MW1611
0079010015999991991012610504+61450+005867FM-15+0150ENBL V0203001N00151006001CN0050001N1+00101+00101999999ADDAG12999GA1021+000909079GA2011+003009079GA3061+006009089MA1102511999999MW1211
0076010015999991991012611504+61450+005867FM-15+0150ENBL V0202201N00211006001CN0112001N1+00101+00101999999ADDAG12000GA1021+002409079GA2061+006009089MA1102611999999EQDQ01+000000PRSWM2
0076010015999991991012612504+61450+005867FM-15+0150ENBL V0202101N00361006001CN0112001N1+00101+00101999999ADDAG12999GA1021+002409079GA2071+006009089MA1102511999999EQDQ01+000000PRSWM2
0076010015999991991012613504+61450+005867FM-15+0150ENBL V0202301N00461006001CN0112001N1+00201+00201999999ADDAG12999GA1021+002409079GA2061+006009089MA1102511999999EQDQ01+000000PRSWM2
0092010015999991991012711504+61450+005867FM-15+0150ENBL V0203501N00211004501CN0060001N1+00001+00001999999ADDAG12000GA1021+000909079GA2011+003009079GA3061+004509059MA1103181999999EQDQ01+000000PRSWM2
0076010015999991991012712504+61450+005867FM-15+0150ENBL V0203401N00151004501CN0112001N1+00001+00001999999ADDAG12999GA1021+001509079GA2071+004509059MA1103181999999EQDQ01+000000PRSWM2
0076010015999991991012713504+61450+005867FM-15+0150ENBL V0203001N00101004501CN0112001N1+00001+00001999999ADDAG12999GA1021+001509079GA2071+004509059MA1103181999999EQDQ01+000000PRSWM2
0092010015999991991012715504+61450+005867FM-15+0150ENBL V0203401N00101004501CN0112001N1+00001+00001999999ADDAG12999GA1031+001509079GA2011+003009079GA3071+004509059MA1103181999999EQDQ01+000000PRSWM2
0079010015999991991012717004+61450+005867FM-15+0150ENBL V0209999999999004501CN0080001N1+00001+00001999999ADDAG12999GA1031+001509079GA2011+003009079GA3071+004509059MA1103181999999MW1601
0063010015999991991012717504+61450+005867FM-15+0150ENBL V0202901N00151003001CN0050001N1+00001+00001999999ADDAG12002GA1031+001509079GA2021+003009079MA1103181999999MW1601
0076010015999991991012719504+61450+005867FM-15+0150ENBL V0202701N00151004501CN0112001N1+00001+00001999999ADDAG12999GA1031+001509079GA2071+004509059MA1103181999999EQDQ01+000000PRSWM2
0063010015999991991012804504+61450+005867FM-15+0150ENBL V0203301N00151003301CN0040001N1+00101+00101999999ADDAG12999GA1041+001209079GA2061+003309059MA1103011999999MW1401
0063010015999991991012805504+61450+005867FM-15+0150ENBL V0209991V00151001801CN0012001N1+00101+00101999999ADDAG12000GA1021+000909079GA2061+001809059MA1103011999999MW1411
0079010015999991991012807504+61450+005867FM-15+0150ENBL V0200101N00101001801CN0070001N1+00101+00101999999ADDAG12999GA1021+000159079GA2041+001809079GA3061+002709079MA1102911999999MW1401
0063010015999991991012808504+61450+005867FM-15+0150ENBL V0209991V00101004501CN0080001N1+00101+00001999999ADDAG12000GA1021+000159079GA2061+004509059MA1102911999999MW1411
0047010015999991991012810504+61450+005867FM-15+0150ENBL V0209991V00151001501CN0005001N1+00101+00001999999ADDAG12999GA1091+001509999MA1102911999999MW1461
0063010015999991991012811504+61450+005867FM-15+0150ENBL V0200901N00101012001CN0015001N1+00101+00001999999ADDAG12000GA1031+000609079GA2061+012009059MA1102811999999MW1411
0047010015999991991012812504+61450+005867FM-15+0150ENBL V0201001N00151001501CN0005001N1+00201+00101999999ADDAG12999GA1091+001509999MA1102811999999MW1461
0044010015999991991012813504+61450+005867FM-15+0150ENBL V0200101N00101220001CN0005001N1+00201+00101999999ADDAG12999MA1102811999999EQDQ01+000000PRSWM2
0047010015999991991012814504+61450+005867FM-15+0150ENBL V0200201N00101001501CN0005001N1+00201+00101999999ADDAG12000GA1091+001509999MA1102811999999MW1451
0047010015999991991012815504+61450+005867FM-15+0150ENBL V0201201N00101001501CN0005001N1+00201+00201999999ADDAG12999GA1091+001509999MA1102711999999MW1451
0047010015999991991012816504+61450+005867FM-15+0150ENBL V0203501N00151001801CN0008001N1+00201+00201999999ADDAG12999GA1091+001809999MA1102711999999MW1451
0079010015999991991012818504+61450+005867FM-15+0150ENBL V0202701N00151003001CN0015001N1+00101+00101999999ADDAG12999GA1031+000609079GA2051+003009079GA3021+999999079MA1102611999999MW1411
0079010015999991991012904504+61450+005867FM-15+0150ENBL V0202601N00151004201CN0012001N1+00101+00101999999ADDAG12999GA1031+000609079GA2011+002409079GA3061+004209059MA1102401999999MW1121
0063010015999991991012905504+61450+005867FM-15+0150ENBL V0202401N00101004501CN0080001N1+00101+00101999999ADDAG12001GA1021+002409079GA2061+004509059MA1102401999999MW1501
0063010015999991991012906504+61450+005867FM-15+0150ENBL V0201801N00101006001CN0080001N1+00101+00101999999ADDAG12999GA1021+002409079GA2071+006009059MA1102401999999MW1501
0076010015999991991012907504+61450+005867FM-15+0150ENBL V0200501N00101006001CN0112001N1+00101+00101999999ADDAG12999GA1021+002409079GA2071+006009059MA1102511999999EQDQ01+000000PRSWM2
0092010015999991991012910504+61450+005867FM-15+0150ENBL V0203301N00101007501CN9999999N9+00101+00101999999ADDAG12999GA1021+002409079GA2061+007509089MA1102511999999EQDQ01+000002VOVAR Q02+000000PRSWM2
0076010015999991991012911504+61450+005867FM-15+0150ENBL V0209991V00151007501CN0112001N1+00101+00101999999ADDAG12000GA1021+002409079GA2061+007509089MA1102401999999EQDQ01+000000PRSWM2
0076010015999991991012912504+61450+005867FM-15+0150ENBL V0203301N00151006001CN0112001N1+00201+00101999999ADDAG12999GA1011+002409079GA2061+006009089MA1102511999999EQDQ01+000000PRSWM2
0092010015999991991012913504+61450+005867FM-15+0150ENBL V0209991V00211012001CN0112001N1+00201-00101999999ADDAG12999GA1011+004509089GA2031+007509089GA3061+012009059MA1102401999999EQDQ01+000000PRSWM2
0092010015999991991012914504+61450+005867FM-15+0150ENBL V0209991V00051012001CN0112001N1+00101-00101999999ADDAG12000GA1011+004509089GA2031+007509089GA3061+012009059MA1102511999999EQDQ01+000000PRSWM2
0092010015999991991012915504+61450+005867FM-15+0150ENBL V0209991V00051012001CN0112001N1+00101+00001999999ADDAG12999GA1011+004509089GA2031+007509089GA3061+012009059MA1102511999999EQDQ01+000000PRSWM2
0092010015999991991012916504+61450+005867FM-15+0150ENBL V0209991V00151012001CN0112001N1+00101+00001999999ADDAG12999GA1011+004509089GA2031+007509089GA3061+012009059MA1102511999999EQDQ01+000000PRSWM2
0076010015999991991012917504+61450+005867FM-15+0150ENBL V0209991V00051015001CN0112001N1+00101-00201999999ADDAG12000GA1031+007509089GA2061+015009059MA1102511999999EQDQ01+000000PRSWM2
0076010015999991991012918504+61450+005867FM-15+0150ENBL V0201401N00261015001CN0112001N1+00201-00301999999ADDAG12999GA1021+007509089GA2061+015009059MA1102511999999EQDQ01+000000PRSWM2
0076010015999991991012919504+61450+005867FM-15+0150ENBL V0209991V00151015001CN0112001N1+00201-00301999999ADDAG12999GA1021+007509089GA2061+015009059MA1102511999999EQDQ01+000000PRSWM2
0076010015999991991013004504+61450+005867FM-15+0150ENBL V0201701N00311012001CN0112001N1+00101-00701999999ADDAG12999GA1021+006009089GA2061+012009059MA1102611999999EQDQ01+000000PRSWM2
0076010015999991991013005504+61450+005867FM-15+0150ENBL V0209991V00211012001CN0112001N1+00201-00801999999ADDAG12000GA1021+006009089GA2061+012009059MA1102611999999EQDQ01+000000PRSWM2
0076010015999991991013006504+61450+005867FM-15+0150ENBL V0201901N00311012001CN0112001N1+00201-00601999999ADDAG12999GA1021+006009089GA2061+012009059MA1102611999999EQDQ01+000000PRSWM2
0076010015999991991013007504+61450+005867FM-15+0150ENBL V0201701N00361012001CN0112001N1+00101-00701999999ADDAG12999GA1031+009009089GA2061+012009059MA1102611999999EQDQ01+000000PRSWM2
0076010015999991991013008504+61450+005867FM-15+0150ENBL V0201801N00311012001CN0112001N1+00101-00601999999ADDAG12000GA1041+009009059GA2061+012009059MA1102711999999EQDQ01+000000PRSWM2
0076010015999991991013010504+61450+005867FM-15+0150ENBL V0202001N00361012001CN0112001N1+00101-00601999999ADDAG12999GA1031+009009059GA2061+012009059MA1102711999999EQDQ01+000000PRSWM2
0076010015999991991013011504+61450+005867FM-15+0150ENBL V0202101N00211012001CN0112001N1+00201-00501999999ADDAG12000GA1031+008409089GA2061+012009059MA1102711999999EQDQ01+000000PRSWM2
0076010015999991991013012504+61450+005867FM-15+0150ENBL V0202101N00261012001CN0112001N1+00201-00501999999ADDAG12999GA1031+008409089GA2061+012009059MA1102711999999EQDQ01+000000PRSWM2
0076010015999991991013013504+61450+005867FM-15+0150ENBL V0201901N00411012001CN0112001N1+00201-00501999999ADDAG12999GA1021+007509089GA2061+012009089MA1102711999999EQDQ01+000000PRSWM2
0076010015999991991013014504+61450+005867FM-15+0150ENBL V0201701N00411012001CN0112001N1+00101-00501999999ADDAG12000GA1021+007509089GA2061+012009089MA1102711999999EQDQ01+000000PRSWM2
0076010015999991991013015504+61450+005867FM-15+0150ENBL V0203501N00211012001CN0112001N1+00101-00501999999ADDAG12999GA1021+007509089GA2061+012009089MA1102711999999EQDQ01+000000PRSWM2
0076010015999991991013016504+61450+005867FM-15+0150ENBL V0203201N00261013501CN0112001N1+00101-00501999999ADDAG12999GA1021+007509089GA2061+013509059MA1102711999999EQDQ01+000000PRSWM2
0076010015999991991013017504+61450+005867FM-15+0150ENBL V0202101N00311013501CN0112001N1+00101-00501999999ADDAG12000GA1021+007509089GA2061+013509059MA1102711999999EQDQ01+000000PRSWM2
0076010015999991991013018504+61450+005867FM-15+0150ENBL V0201701N00261013501CN0112001N1+00101-00601999999ADDAG12999GA1021+007509089GA2061+013509059MA1102711999999EQDQ01+000000PRSWM2
0076010015999991991013104504+61450+005867FM-15+0150ENBL V0202401N00361013501CN0112001N1+00101-00601999999ADDAG12999GA1011+009009089GA2071+013509089MA1102611999999EQDQ01+000000PRSWM2
0076010015999991991013105504+61450+005867FM-15+0150ENBL V0202601N00151013501CN0112001N1+00101-00601999999ADDAG12000GA1011+009009089GA2071+013509089MA1102611999999EQDQ01+000000PRSWM2
0076010015999991991013106504+61450+005867FM-15+0150ENBL V0202301N00311013501CN0112001N1+00101-00601999999ADDAG12999GA1011+009009089GA2071+013509089MA1102611999999EQDQ01+000000PRSWM2
0076010015999991991013107504+61450+005867FM-15+0150ENBL V0202101N00511013501CN0112001N1+00001-00601999999ADDAG12999GA1011+009009089GA2071+013509089MA1102611999999EQDQ01+000000PRSWM2
0076010015999991991013108504+61450+005867FM-15+0150ENBL V0201901N00511013501CN0112001N1+00001-00601999999ADDAG12000GA1011+009009089GA2071+013509089MA1102711999999EQDQ01+000000PRSWM2
0063010015999991991013110504+61450+005867FM-15+0150ENBL V0201901N00411009001CN0080001N1+00001-00501999999ADDAG12999GA1021+004509079GA2071+009009089MA1102711999999MW1701
0063010015999991991013112504+61450+005867FM-15+0150ENBL V0201901N00571009001CN0112001N1+00001-00501999999ADDAG12999GA1021+006009089GA2061+009009089MA1102711999999MW1221
0063010015999991991013115504+61450+005867FM-15+0150ENBL V0201901N00881009001CN0070001N1+00001-00401999999ADDAG12999GA1031+006009089GA2061+009009089MA1102611999999MW1701
0047010015999991991013116504+61450+005867FM-15+0150ENBL V0202001N00571002401CN0025001N1-00101-00101999999ADDAG12999GA1091+002409999MA1102611999999MW1711
0063010015999991991020104504+61450+005867FM-15+0150ENBL V0202201N00151004201CN0112001N1-00101-00101999999ADDAG12999GA1021+001509079GA2061+004209059MA1102811999999MW1261
0063010015999991991020105504+61450+005867FM-15+0150ENBL V0202401N00261004201CN0090001N1-00101-00101999999ADDAG12001GA1021+001509079GA2061+004209059MA1102811999999MW1701
0063010015999991991020106504+61450+005867FM-15+0150ENBL V0202301N00151004201CN0090001N1-00101-00101999999ADDAG12999GA1021+001509079GA2061+004209059MA1102811999999MW1701
0079010015999991991020107504+61450+005867FM-15+0150ENBL V0209991V00101009001CN0090001N1-00101-00101999999ADDAG12999GA1011+001509079GA2041+004209059GA3061+009009059MA1102811999999MW1701
0079010015999991991020108504+61450+005867FM-15+0150ENBL V0209991V00101009001CN0090001N1+00101+00101999999ADDAG12001GA1011+001509079GA2041+004509059GA3061+009009059MA1102811999999MW1701
0079010015999991991020110504+61450+005867FM-15+0150ENBL V0202001N00101007501CN0050001N1-00101-00101999999ADDAG12999GA1011+000159079GA2041+004509059GA3061+007509059MA1102911999999MW1401
0079010015999991991020111504+61450+005867FM-15+0150ENBL V0203401N00101009001CN0090001N1-00101-00101999999ADDAG12000GA1011+000609079GA2041+004209059GA3061+009009059MA1102911999999MW1401
0092010015999991991020113504+61450+005867FM-15+0150ENBL V0209991C00001015001CN0112001N1+00001-00101999999ADDAG12999GA1011+000909079GA2031+003609059GA3051+015009039MA1102911999999EQDQ01+000000PRSWM2
0092010015999991991020114504+61450+005867FM-15+0150ENBL V0202301N00101005401CN0112001N1-00101-00201999999ADDAG12000GA1021+000909079GA2051+005409059GA3091+999999999MA1102911999999EQDQ01+000000PRSWM2
0115010015999991991020115504+61450+005867FM-15+0150ENBL V0209991V00101006001CN0112001N1-00101-00201999999ADDAG12999GA1021+000609079GA2061+006009059GA3091+999999999MA1102911999999REMMET014VIS TOW N 2000EQDQ01+000000PRSWM2
0092010015999991991020116504+61450+005867FM-15+0150ENBL V0209991V00051007501CN0112001N1-00101-00201999999ADDAG12999GA1011+000309079GA2031+004509059GA3061+007509059MA1102911999999EQDQ01+000000PRSWM2
0076010015999991991020117504+61450+005867FM-15+0150ENBL V0200101N00101006001CN0112001N1-00201-00301999999ADDAG12000GA1021+004509059GA2061+006009059MA1103011999999EQDQ01+000000PRSWM2
0076010015999991991020118504+61450+005867FM-15+0150ENBL V0200501N00151006001CN0112001N1-00201-00301999999ADDAG12999GA1021+004509059GA2061+006009059MA1103011999999EQDQ01+000000PRSWM2
0060010015999991991020119504+61450+005867FM-15+0150ENBL V0209991V00051006001CN0112001N1-00201-00301999999ADDAG12999GA1061+006009059MA1103011999999EQDQ01+000000PRSWM2
0060010015999991991020206504+61450+005867FM-15+0150ENBL V0200201N00211006001CN0112001N1-00201-00801999999ADDAG12999GA1071+006009059MA1103391999999EQDQ01+000000PRSWM2
0060010015999991991020207504+61450+005867FM-15+0150ENBL V0200901N00151007501CN0112001N1-00301-00601999999ADDAG12999GA1071+007509059MA1103391999999EQDQ01+000000PRSWM2
0060010015999991991020208504+61450+005867FM-15+0150ENBL V0201201N00151006001CN0112001N1-00301-00701999999ADDAG12000GA1051+006009059MA1103391999999EQDQ01+000000PRSWM2
0060010015999991991020209504+61450+005867FM-15+0150ENBL V0200501N00151220001CN0112001N1-00201-00701999999ADDAG12999GA1021+006009059MA1103491999999EQDQ01+000000PRSWM2
0060010015999991991020210504+61450+005867FM-15+0150ENBL V0209999999999220001CN0112001N1-00201-00701999999ADDAG12999GA1011+006009059MA1103491999999EQDQ01+000000PRSWM2
0060010015999991991020211504+61450+005867FM-15+0150ENBL V0201701N00101220001CN0112001N1-00101-00701999999ADDAG12000GA1011+005109089MA1103491999999EQDQ01+000000PRSWM2
0060010015999991991020212504+61450+005867FM-15+0150ENBL V0201501N00151220001CN0112001N1-00201-00801999999ADDAG12999GA1011+005109089MA1103491999999EQDQ01+000000PRSWM2
0076010015999991991020213504+61450+005867FM-15+0150ENBL V0202101N00151220001CN0112001N1-00201-00701999999ADDAG12999GA1011+004509089GA2031+007509089MA1103591999999EQDQ01+000000PRSWM2
0060010015999991991020214504+61450+005867FM-15+0150ENBL V0202701N00311220001CN0112001N1-00301-00701999999ADDAG12000GA1031+007509089MA1103591999999EQDQ01+000000PRSWM2
0076010015999991991020311504+61450+005867FM-15+0150ENBL V0209991V00211220001CN0112001N1-00501-01901999999ADDAG12000GA1021+012009059MA1104001999999REMMET007PM 14KTEQDQ01+000000PRSWM2
0068010015999991991020312504+61450+005867FM-15+0150ENBL V0209991V00261220001CN0112001N1-00401-01701999999ADDAG12999GA1011+012009059MA1103891999999OC100821EQDQ01+000000PRSWM2
0068010015999991991020313504+61450+005867FM-15+0150ENBL V0209991V00361220001CN0112001N1-00401-01601999999ADDAG12999GA1011+012009059MA1103891999999OC100881EQDQ01+000000PRSWM2
0052010015999991991020314504+61450+005867FM-15+0150ENBL V0201401N00461220001CN0112001N1-00401-01601999999ADDAG12000MA1103891999999OC100981EQDQ01+000000PRSWM2
0052010015999991991020315504+61450+005867FM-15+0150ENBL V0201401N00361220001CN0112001N1-00401-01601999999ADDAG12999MA1103891999999OC100981EQDQ01+000000PRSWM2
0052010015999991991020316504+61450+005867FM-15+0150ENBL V0209991V00261220001CN0112001N1-00501-01601999999ADDAG12999MA1103891999999OC100771EQDQ01+000000PRSWM2
0060010015999991991020317504+61450+005867FM-15+0150ENBL V0209991V00311220001CN0112001N1-00401-01601999999ADDAG12000MA1104001999999REMMET007PM 14KTEQDQ01+000000PRSWM2
0060010015999991991020318504+61450+005867FM-15+0150ENBL V0209991V00261220001CN0112001N1-00501-01601999999ADDAG12999MA1104001999999REMMET007PM 15KTEQDQ01+000000PRSWM2
0060010015999991991020319504+61450+005867FM-15+0150ENBL V0201501N00311220001CN0112001N1-00401-01501999999ADDAG12999MA1104001999999REMMET007PM 14KTEQDQ01+000000PRSWM2
0044010015999991991020404504+61450+005867FM-15+0150ENBL V0209991V00211220001CN0112001N1-00201-02001999999ADDAG12999MA1104201999999EQDQ01+000000PRSWM2
0060010015999991991020405504+61450+005867FM-15+0150ENBL V0201401N00361220001CN0112001N1-00101-02001999999ADDAG12000MA1104201999999REMMET007PM 22KTEQDQ01+000000PRSWM2
0044010015999991991020406504+61450+005867FM-15+0150ENBL V0201301N00311220001CN0112001N1-00101-02101999999ADDAG12999MA1104201999999EQDQ01+000000PRSWM2
0044010015999991991020407504+61450+005867FM-15+0150ENBL V0201401N00211220001CN0112001N1-00101-02101999999ADDAG12999MA1104301999999EQDQ01+000000PRSWM2
0044010015999991991020408504+61450+005867FM-15+0150ENBL V0201201N00311220001CN0112001N1-00101-02201999999ADDAG12000MA1104301999999EQDQ01+000000PRSWM2
0052010015999991991020410504+61450+005867FM-15+0150ENBL V0201401N00361220001CN0112001N1+00101-02401999999ADDAG12999MA1104401999999OC100881EQDQ01+000000PRSWM2
0044010015999991991020411504+61450+005867FM-15+0150ENBL V0201501N00461220001CN0112001N1+00101-02401999999ADDAG12000MA1104401999999EQDQ01+000000PRSWM2
0044010015999991991020412504+61450+005867FM-15+0150ENBL V0201501N00461220001CN0112001N1+00101-02401999999ADDAG12999MA1104401999999EQDQ01+000000PRSWM2
0044010015999991991020413504+61450+005867FM-15+0150ENBL V0201501N00311220001CN0112001N1+00101-02401999999ADDAG12999MA1104401999999EQDQ01+000000PRSWM2
0044010015999991991020414504+61450+005867FM-15+0150ENBL V0209991V00151220001CN0112001N1+00101-02401999999ADDAG12000MA1104401999999EQDQ01+000000PRSWM2
0044010015999991991020416504+61450+005867FM-15+0150ENBL V0200901N00211220001CN0112001N1-00201-02401999999ADDAG12999MA1104501999999EQDQ01+000000PRSWM2
0044010015999991991020418504+61450+005867FM-15+0150ENBL V0209991V00261220001CN0112001N1-00101-02401999999ADDAG12999MA1104611999999EQDQ01+000000PRSWM2
0076010015999991991020505504+61450+005867FM-15+0150ENBL V0209991V00101220001CN0112001N1-00501-02001999999ADDAG12000GA1011+030009049GA2031+060009009MA1104611999999EQDQ01+000000PRSWM2
0076010015999991991020506504+61450+005867FM-15+0150ENBL V0203401N00151220001CN0112001N1-00501-02001999999ADDAG12999GA1011+024009039GA2031+045009009MA1104501999999EQDQ01+000000PRSWM2
0060010015999991991020507504+61450+005867FM-15+0150ENBL V0209991C00001220001CN0112001N1-00401-02001999999ADDAG12999GA1011+024009039MA1104501999999EQDQ01+000000PRSWM2
0060010015999991991020508504+61450+005867FM-15+0150ENBL V0203201N00151220001CN0112001N1-00301-02101999999ADDAG12000GA1011+024009039MA1104501999999EQDQ01+000000PRSWM2
0060010015999991991020509504+61450+005867FM-15+0150ENBL V0203401N00101220001CN0112001N1-00201-02101999999ADDAG12999GA1011+024009039MA1104501999999EQDQ01+000000PRSWM2
0060010015999991991020510504+61450+005867FM-15+0150ENBL V0209991V00151220001CN0112001N1+00001-02001999999ADDAG12999GA1011+024009039MA1104611999999EQDQ01+000000PRSWM2
0060010015999991991020511504+61450+005867FM-15+0150ENBL V0209991V00101220001CN0112001N1+00201-02101999999ADDAG12000GA1011+024009039MA1104611999999EQDQ01+000000PRSWM2
0060010015999991991020512504+61450+005867FM-15+0150ENBL V0201801N00211220001CN0112001N1+00101-02101999999ADDAG12999GA1011+024009039MA1104611999999EQDQ01+000000PRSWM2
0060010015999991991020513504+61450+005867FM-15+0150ENBL V0201801N00151220001CN0112001N1+00201-02001999999ADDAG12999GA1021+060009009MA1104401999999EQDQ01+000000PRSWM2
0060010015999991991020514504+61450+005867FM-15+0150ENBL V0200801N00211220001CN0112001N1+00101-02001999999ADDAG12000GA1021+060009009MA1104401999999EQDQ01+000000PRSWM2
0060010015999991991020515504+61450+005867FM-15+0150ENBL V0203201N00151220001CN0112001N1-00201-01901999999ADDAG12999GA1021+045009009MA1104401999999EQDQ01+000000PRSWM2
0060010015999991991020516504+61450+005867FM-15+0150ENBL V0200101N00151220001CN0112001N1-00301-01901999999ADDAG12999GA1021+006009009MA1104301999999EQDQ01+000000PRSWM2
0044010015999991991020517504+61450+005867FM-15+0150ENBL V0202401N00101220001CN0112001N1-00301-01901999999ADDAG12000MA1104301999999EQDQ01+000000PRSWM2
0044010015999991991020518504+61450+005867FM-15+0150ENBL V0200201N00101220001CN0112001N1-00301-01901999999ADDAG12999MA1104301999999EQDQ01+000000PRSWM2
0044010015999991991020604504+61450+005867FM-15+0150ENBL V0203201N00151220001CN0112001N1-00301-02001999999ADDAG12999MA1104201999999EQDQ01+000000PRSWM2
0044010015999991991020605504+61450+005867FM-15+0150ENBL V0203301N00211220001CN0112001N1-00301-01901999999ADDAG12000MA1104101999999EQDQ01+000000PRSWM2
0060010015999991991020606504+61450+005867FM-15+0150ENBL V0203001N00151220001CN0112001N1-00401-01901999999ADDAG12999GA1021+060009009MA1104101999999EQDQ01+000000PRSWM2
0060010015999991991020607504+61450+005867FM-15+0150ENBL V0203501N00151220001CN0112001N1-00301-01901999999ADDAG12999GA1021+030009039MA1104201999999EQDQ01+000000PRSWM2
0060010015999991991020608504+61450+005867FM-15+0150ENBL V0203001N00211220001CN0112001N1-00501-01901999999ADDAG12000GA1021+030009039MA1104201999999EQDQ01+000000PRSWM2
0060010015999991991020609504+61450+005867FM-15+0150ENBL V0209991V00101220001CN0112001N1-00201-01801999999ADDAG12999GA1021+030009039MA1104201999999EQDQ01+000000PRSWM2
0060010015999991991020610504+61450+005867FM-15+0150ENBL V0200601N00101220001CN0112001N1-00101-01801999999ADDAG12999GA1021+030009039MA1104301999999EQDQ01+000000PRSWM2
0060010015999991991020611504+61450+005867FM-15+0150ENBL V0201701N00151220001CN0112001N1+00101-01801999999ADDAG12000GA1011+060009009MA1104301999999EQDQ01+000000PRSWM2
0060010015999991991020612504+61450+005867FM-15+0150ENBL V0201901N00151220001CN0112001N1+00001-01801999999ADDAG12999GA1011+060009009MA1104201999999EQDQ01+000000PRSWM2
0060010015999991991020614504+61450+005867FM-15+0150ENBL V0202801N00151220001CN0112001N1-00101-01901999999ADDAG12000GA1021+060009009MA1104201999999EQDQ01+000000PRSWM2
0076010015999991991020617504+61450+005867FM-15+0150ENBL V0200501N00101220001CN0112001N1-00501-01201999999ADDAG12000GA1011+018009039GA2031+045009009MA1104201999999EQDQ01+000000PRSWM2
0076010015999991991020618504+61450+005867FM-15+0150ENBL V0203501N00051220001CN0112001N1-00501-00901999999ADDAG12999GA1011+018009039GA2031+060009009MA1104201999999EQDQ01+000000PRSWM2
0044010015999991991020704504+61450+005867FM-15+0150ENBL V0200401N00151220001CN0112001N1-00801-01301999999ADDAG12999MA1103791999999EQDQ01+000000PRSWM2
0044010015999991991020705504+61450+005867FM-15+0150ENBL V0200201N00211220001CN0112001N1-00801-01301999999ADDAG12000MA1103791999999EQDQ01+000000PRSWM2
0076010015999991991020706504+61450+005867FM-15+0150ENBL V0209991V00101220001CN0112001N1-00901-01301999999ADDAG12999GA1011+018009039GA2031+045009009MA1103691999999EQDQ01+000000PRSWM2
0076010015999991991020711504+61450+005867FM-15+0150ENBL V0200501N00151220001CN0112001N1-00501-01301999999ADDAG12000GA1011+018009039GA2031+030009049MA1103591999999EQDQ01+000000PRSWM2
0076010015999991991020712504+61450+005867FM-15+0150ENBL V0200601N00311220001CN0112001N1-00501-01401999999ADDAG12999GA1011+018009039GA2031+030009049MA1103591999999EQDQ01+000000PRSWM2
0076010015999991991020713504+61450+005867FM-15+0150ENBL V0200501N00311030001CN0112001N1-00501-01301999999ADDAG12999GA1021+018009039GA2051+030009049MA1103491999999EQDQ01+000000PRSWM2
0076010015999991991020714504+61450+005867FM-15+0150ENBL V0200501N00311030001CN0112001N1-00501-01401999999ADDAG12000GA1021+018009039GA2051+030009049MA1103391999999EQDQ01+000000PRSWM2
0076010015999991991020715504+61450+005867FM-15+0150ENBL V0200601N00411030001CN0112001N1-00401-01301999999ADDAG12999GA1031+018009039GA2051+030009049MA1103391999999EQDQ01+000000PRSWM2
0060010015999991991020716504+61450+005867FM-15+0150ENBL V0200501N00411220001CN0112001N1-00401-01401999999ADDAG12999GA1041+018009039MA1103291999999EQDQ01+000000PRSWM2
0060010015999991991020717504+61450+005867FM-15+0150ENBL V0200701N00311018001CN0112001N1-00501-01401999999ADDAG12000GA1051+018009039MA1103291999999EQDQ01+000000PRSWM2
0060010015999991991020718504+61450+005867FM-15+0150ENBL V0200301N00211018001CN0112001N1-00601-01401999999ADDAG12999GA1051+018009039MA1103291999999EQDQ01+000000PRSWM2
0060010015999991991020719504+61450+005867FM-15+0150ENBL V0209991V00101018001CN0112001N1-00501-01601999999ADDAG12999GA1051+018009039MA1103181999999EQDQ01+000000PRSWM2
0060010015999991991020720504+61450+005867FM-15+0150ENBL V0209991V00311220001CN0112001N1-00501-01601999999ADDAG12000GA1031+018009039MA1103181999999EQDQ01+000000PRSWM2
0060010015999991991020721504+61450+005867FM-15+0150ENBL V0200401N00361220001CN0112001N1-00101-01501999999ADDAG12999GA1041+018009039MA1103181999999EQDQ01+000000PRSWM2
0060010015999991991020804504+61450+005867FM-15+0150ENBL V0200401N00411220001CN0112001N1-00101-01901999999ADDAG12999GA1031+021009039MA1102911999999EQDQ01+000000PRSWM2
0060010015999991991020805504+61450+005867FM-15+0150ENBL V0200401N00311220001CN0112001N1-00201-02101999999ADDAG12000GA1021+021009039MA1102811999999EQDQ01+000000PRSWM2
0060010015999991991020806504+61450+005867FM-15+0150ENBL V0209991V00151220001CN0112001N1-00501-01801999999ADDAG12999GA1021+024009039MA1102811999999EQDQ01+000000PRSWM2
0044010015999991991020807504+61450+005867FM-15+0150ENBL V0200401N00411220001CN0112001N1-00201-02101999999ADDAG12999MA1102811999999EQDQ01+000000PRSWM2
0044010015999991991020808504+61450+005867FM-15+0150ENBL V0200501N00461220001CN0112001N1-00201-02101999999ADDAG12000MA1102811999999EQDQ01+000000PRSWM2
0044010015999991991020809504+61450+005867FM-15+0150ENBL V0200301N00261220001CN0112001N1-00101-02201999999ADDAG12999MA1102711999999EQDQ01+000000PRSWM2
0044010015999991991020810504+61450+005867FM-15+0150ENBL V0200701N00151220001CN0112001N1+00001-02401999999ADDAG12999MA1102711999999EQDQ01+000000PRSWM2
0044010015999991991020811504+61450+005867FM-15+0150ENBL V0203001N00361220001CN0112001N1+00101-02501999999ADDAG12000MA1102611999999EQDQ01+000000PRSWM2
0044010015999991991020812504+61450+005867FM-15+0150ENBL V0200301N00261220001CN0112001N1+00101-02501999999ADDAG12999MA1102511999999EQDQ01+000000PRSWM2
0060010015999991991020813504+61450+005867FM-15+0150ENBL V0201001N00311220001CN0112001N1+00001-02401999999ADDAG12999GA1011+060009009MA1102401999999EQDQ01+000000PRSWM2
0060010015999991991020814504+61450+005867FM-15+0150ENBL V0200901N00411220001CN0112001N1+00001-02401999999ADDAG12000GA1011+060009009MA1102401999999EQDQ01+000000PRSWM2
0060010015999991991020815504+61450+005867FM-15+0150ENBL V0200701N00311220001CN0112001N1-00201-02301999999ADDAG12999GA1011+060009009MA1102301999999EQDQ01+000000PRSWM2
0044010015999991991020816504+61450+005867FM-15+0150ENBL V0209991V00101220001CN0112001N1-00201-02301999999ADDAG12999MA1102301999999EQDQ01+000000PRSWM2
0044010015999991991020817504+61450+005867FM-15+0150ENBL V0200801N00151220001CN0112001N1-00301-02401999999ADDAG12000MA1102301999999EQDQ01+000000PRSWM2
0044010015999991991020818504+61450+005867FM-15+0150ENBL V0203401N00151220001CN0112001N1-00301-02201999999ADDAG12999MA1102201999999EQDQ01+000000PRSWM2
0060010015999991991020905504+61450+005867FM-15+0150ENBL V0201601N00511220001CN0112001N1-00501-01801999999ADDAG12000GA1021+024009039MA1102001999999EQDQ01+000000PRSWM2
0060010015999991991020906504+61450+005867FM-15+0150ENBL V0203001N00151220001CN0112001N1-00601-01901999999ADDAG12999GA1031+021009039MA1102001999999EQDQ01+000000PRSWM2
0060010015999991991020908504+61450+005867FM-15+0150ENBL V0200101N00261220001CN0112001N1-00601-01801999999ADDAG12000GA1021+024009039MA1102101999999EQDQ01+000000PRSWM2
0060010015999991991020909504+61450+005867FM-15+0150ENBL V0201201N00511220001CN0112001N1-00501-01801999999ADDAG12999GA1031+024009039MA1102101999999EQDQ01+000000PRSWM2
0060010015999991991020910504+61450+005867FM-15+0150ENBL V0201001N00361220001CN0112001N1-00501-01801999999ADDAG12999GA1031+024009039MA1102101999999EQDQ01+000000PRSWM2
0060010015999991991020911504+61450+005867FM-15+0150ENBL V0201001N00461220001CN0112001N1-00501-01601999999ADDAG12000GA1031+024009039MA1102101999999EQDQ01+000000PRSWM2
0060010015999991991020912504+61450+005867FM-15+0150ENBL V0201001N00721220001CN0112001N1-00501-01601999999ADDAG12999GA1041+024009039MA1102001999999EQDQ01+000000PRSWM2
0060010015999991991020913504+61450+005867FM-15+0150ENBL V0201001N00461024001CN0112001N1-00501-01601999999ADDAG12999GA1051+024009039MA1102001999999EQDQ01+000000PRSWM2
0060010015999991991021011504+61450+005867FM-15+0150ENBL V0201001N00261024001CN0112001N1-00401-01501999999ADDAG12000GA1051+024009039MA1101901999999EQDQ01+000000PRSWM2
0076010015999991991021012504+61450+005867FM-15+0150ENBL V0201301N00211220001CN0112001N1-00401-01501999999ADDAG12999GA1011+012009089GA2031+024009039MA1101801999999EQDQ01+000000PRSWM2
0076010015999991991021013504+61450+005867FM-15+0150ENBL V0201201N00261220001CN0112001N1-00501-01501999999ADDAG12999GA1021+012009089GA2031+024009039MA1101801999999EQDQ01+000000PRSWM2
0076010015999991991021015504+61450+005867FM-15+0150ENBL V0201001N00361024001CN0112001N1-00501-01501999999ADDAG12999GA1021+012009089GA2041+024009039MA1101691999999EQDQ01+000000PRSWM2
0060010015999991991021016504+61450+005867FM-15+0150ENBL V0201201N00411024001CN0112001N1-00601-01601999999ADDAG12999GA1051+024009039MA1101691999999EQDQ01+000000PRSWM2
0060010015999991991021017504+61450+005867FM-15+0150ENBL V0200801N00461220001CN0112001N1-00601-01601999999ADDAG12000GA1031+024009039MA1101801999999EQDQ01+000000PRSWM2
0060010015999991991021018504+61450+005867FM-15+0150ENBL V0200701N00311220001CN0112001N1-00701-01601999999ADDAG12999GA1021+024009039MA1101801999999EQDQ01+000000PRSWM2
0060010015999991991021019504+61450+005867FM-15+0150ENBL V0201201N00211220001CN0112001N1-00601-01601999999ADDAG12999GA1021+024009039MA1101801999999EQDQ01+000000PRSWM2
0044010015999991991021104504+61450+005867FM-15+0150ENBL V0200701N00211220001CN0112001N1-00901-01701999999ADDAG12999MA1101801999999EQDQ01+000000PRSWM2
0044010015999991991021105504+61450+005867FM-15+0150ENBL V0200501N00101220001CN0112001N1-00901-01701999999ADDAG12000MA1101801999999EQDQ01+000000PRSWM2
0060010015999991991021106504+61450+005867FM-15+0150ENBL V0200901N00211220001CN0112001N1-00901-01701999999ADDAG12999GA1041+024009039MA1101801999999EQDQ01+000000PRSWM2
0060010015999991991021107504+61450+005867FM-15+0150ENBL V0203501N00151220001CN0112001N1-01001-01601999999ADDAG12999GA1031+024009039MA1101801999999EQDQ01+000000PRSWM2
0060010015999991991021108504+61450+005867FM-15+0150ENBL V0200801N00151220001CN0112001N1-00801-01501999999ADDAG12000GA1031+024009039MA1101801999999EQDQ01+000000PRSWM2
0060010015999991991021109504+61450+005867FM-15+0150ENBL V0202801N00101220001CN0112001N1-00701-01501999999ADDAG12999GA1021+060009009MA1101801999999EQDQ01+000000PRSWM2
0060010015999991991021110504+61450+005867FM-15+0150ENBL V0200201N00051220001CN0112001N1-00701-01501999999ADDAG12999GA1021+060009009MA1101801999999EQDQ01+000000PRSWM2
0060010015999991991021111504+61450+005867FM-15+0150ENBL V0201001N00211220001CN0112001N1-00601-01501999999ADDAG12000GA1021+030009039MA1101801999999EQDQ01+000000PRSWM2
0060010015999991991021112504+61450+005867FM-15+0150ENBL V0201001N00151220001CN0112001N1-00601-01501999999ADDAG12999GA1021+060009009MA1101801999999EQDQ01+000000PRSWM2
0076010015999991991021113504+61450+005867FM-15+0150ENBL V0209991V00151220001CN0112001N1-00601-01401999999ADDAG12999GA1011+030009039GA2041+060009009MA1101801999999EQDQ01+000000PRSWM2
0076010015999991991021114504+61450+005867FM-15+0150ENBL V0209991V00101220001CN0112001N1-00601-01501999999ADDAG12000GA1011+015009059GA2041+060009009MA1101691999999EQDQ01+000000PRSWM2
0076010015999991991021115504+61450+005867FM-15+0150ENBL V0200201N00101060001CN0112001N1-00701-01501999999ADDAG12999GA1021+015009059GA2051+060009009MA1101691999999EQDQ01+000000PRSWM2
0076010015999991991021116504+61450+005867FM-15+0150ENBL V0200601N00211060001CN0112001N1-00801-01501999999ADDAG12999GA1021+021009039GA2051+060009009MA1101691999999EQDQ01+000000PRSWM2
0076010015999991991021117504+61450+005867FM-15+0150ENBL V0209991V00101021001CN0112001N1-00801-01401999999ADDAG12000GA1031+007509059GA2051+021009039MA1101691999999EQDQ01+000000PRSWM2
0060010015999991991021118504+61450+005867FM-15+0150ENBL V0209991V00151220001CN0112001N1-00801-01401999999ADDAG12999GA1031+007509059MA1101691999999EQDQ01+000000PRSWM2
0060010015999991991021119504+61450+005867FM-15+0150ENBL V0209991V00101220001CN0112001N1-00901-01501999999ADDAG12999GA1021+007509059MA1101691999999EQDQ01+000000PRSWM2
0044010015999991991021204504+61450+005867FM-15+0150ENBL V0203501N00151220001CN0112001N1-01201-01501999999ADDAG12999MA1101391999999EQDQ01+000000PRSWM2
0044010015999991991021205504+61450+005867FM-15+0150ENBL V0209991V00101220001CN0112001N1-01101-01401999999ADDAG12000MA1101391999999EQDQ01+000000PRSWM2
0060010015999991991021206504+61450+005867FM-15+0150ENBL V0200301N00101220001CN0112001N1-01101-01401999999ADDAG12999GA1011+013509059MA1101491999999EQDQ01+000000PRSWM2
0060010015999991991021207504+61450+005867FM-15+0150ENBL V0209991V00101220001CN0112001N1-01101-01401999999ADDAG12999GA1021+015009059MA1101491999999EQDQ01+000000PRSWM2
0060010015999991991021208504+61450+005867FM-15+0150ENBL V0202601N00101220001CN0112001N1-01101-01401999999ADDAG12000GA1011+015009059MA1101491999999EQDQ01+000000PRSWM2
0060010015999991991021209504+61450+005867FM-15+0150ENBL V0203001N00101220001CN0112001N1-00901-01301999999ADDAG12999GA1011+015009059MA1101491999999EQDQ01+000000PRSWM2
0044010015999991991021210504+61450+005867FM-15+0150ENBL V0209991V00101220001CN0112001N1-00701-01301999999ADDAG12999MA1101491999999EQDQ01+000000PRSWM2
0060010015999991991021211504+61450+005867FM-15+0150ENBL V0209991V00101220001CN0112001N1-00601-01401999999ADDAG12000GA1011+015009059MA1101491999999EQDQ01+000000PRSWM2
0060010015999991991021212504+61450+005867FM-15+0150ENBL V0201801N00151220001CN0112001N1-00601-01501999999ADDAG12999GA1011+015009059MA1101491999999EQDQ01+000000PRSWM2
0060010015999991991021214504+61450+005867FM-15+0150ENBL V0209991V00151220001CN0112001N1-00501-01401999999ADDAG12000GA1011+009009059MA1101391999999EQDQ01+000000PRSWM2
0060010015999991991021216504+61450+005867FM-15+0150ENBL V0209991V00211220001CN0112001N1-00801-01401999999ADDAG12999GA1011+009009059MA1101491999999EQDQ01+000000PRSWM2
0060010015999991991021217504+61450+005867FM-15+0150ENBL V0209991V00151220001CN0112001N1-01001-01501999999ADDAG12000GA1011+009009059MA1101491999999EQDQ01+000000PRSWM2
0060010015999991991021218504+61450+005867FM-15+0150ENBL V0209991V00151220001CN0112001N1-01001-01501999999ADDAG12999GA1021+015009059MA1101491999999EQDQ01+000000PRSWM2
0060010015999991991021219504+61450+005867FM-15+0150ENBL V0203001N00311220001CN0112001N1-01001-01501999999ADDAG12999GA1021+024009059MA1101591999999EQDQ01+000000PRSWM2
0044010015999991991021304504+61450+005867FM-15+0150ENBL V0203401N00211220001CN0112001N1-01101-01401999999ADDAG12999MA1101801999999EQDQ01+000000PRSWM2
0044010015999991991021305504+61450+005867FM-15+0150ENBL V0203201N00151220001CN0112001N1-01001-01301999999ADDAG12000MA1101801999999EQDQ01+000000PRSWM2
0044010015999991991021307504+61450+005867FM-15+0150ENBL V0200201N00151220001CN0112001N1-01101-01301999999ADDAG12999MA1101801999999EQDQ01+000000PRSWM2
0044010015999991991021309504+61450+005867FM-15+0150ENBL V0209991V00101220001CN0112001N1-00801-01201999999ADDAG12999MA1101901999999EQDQ01+000000PRSWM2
0044010015999991991021310504+61450+005867FM-15+0150ENBL V0209991V00151220001CN0112001N1-00501-01201999999ADDAG12999MA1101901999999EQDQ01+000000PRSWM2
0044010015999991991021311504+61450+005867FM-15+0150ENBL V0201801N00101220001CN0112001N1-00501-01301999999ADDAG12000MA1101901999999EQDQ01+000000PRSWM2
0044010015999991991021312504+61450+005867FM-15+0150ENBL V0201801N00151220001CN0112001N1-00501-01301999999ADDAG12999MA1101901999999EQDQ01+000000PRSWM2
0044010015999991991021313504+61450+005867FM-15+0150ENBL V0201801N00101220001CN0112001N1-00401-01401999999ADDAG12999MA1101801999999EQDQ01+000000PRSWM2
0044010015999991991021315504+61450+005867FM-15+0150ENBL V0201601N00101220001CN0112001N1-00501-01501999999ADDAG12999MA1101801999999EQDQ01+000000PRSWM2
0044010015999991991021316504+61450+005867FM-15+0150ENBL V0209991V00151220001CN0112001N1-00901-01501999999ADDAG12999MA1101801999999EQDQ01+000000PRSWM2
0044010015999991991021317504+61450+005867FM-15+0150ENBL V0203401N00151220001CN0112001N1-00901-01401999999ADDAG12000MA1101901999999EQDQ01+000000PRSWM2
0044010015999991991021318504+61450+005867FM-15+0150ENBL V0200401N00101220001CN0112001N1-01001-01401999999ADDAG12999MA1101801999999EQDQ01+000000PRSWM2
0044010015999991991021319504+61450+005867FM-15+0150ENBL V0202801N00151220001CN0112001N1-01001-01401999999ADDAG12999MA1101801999999EQDQ01+000000PRSWM2
0060010015999991991021404504+61450+005867FM-15+0150ENBL V0203101N00151007501CN0112001N1-00901-01301999999ADDAG12999GA1061+007509059MA1101591999999EQDQ01+000000PRSWM2
0076010015999991991021405504+61450+005867FM-15+0150ENBL V0209991V00051007201CN0112001N1-00901-01201999999ADDAG12000GA1021+005409059GA2061+007209059MA1101491999999EQDQ01+000000PRSWM2
0076010015999991991021406504+61450+005867FM-15+0150ENBL V0203001N00211007201CN0112001N1-00801-01201999999ADDAG12999GA1021+005409059GA2061+007209059MA1101491999999EQDQ01+000000PRSWM2
0076010015999991991021407504+61450+005867FM-15+0150ENBL V0202901N00211007201CN0112001N1-00801-01301999999ADDAG12999GA1031+005409059GA2061+007209059MA1101491999999EQDQ01+000000PRSWM2
0076010015999991991021408504+61450+005867FM-15+0150ENBL V0202401N00101007201CN0112001N1-00801-01301999999ADDAG12000GA1031+005409059GA2051+007209059MA1101391999999EQDQ01+000000PRSWM2
0063010015999991991021410504+61450+005867FM-15+0150ENBL V0202501N00151006601CN0112001N1-00701-01201999999ADDAG12999GA1031+005409059GA2061+006609059MA1101291999999MW1711
0047010015999991991021411504+61450+005867FM-15+0150ENBL V0202401N00151005401CN0112001N1-00601-01201999999ADDAG12003GA1061+005409059MA1101191999999MW1711
0047010015999991991021412504+61450+005867FM-15+0150ENBL V0202901N00101005401CN0112001N1-00601-01001999999ADDAG12999GA1061+005409059MA1101191999999MW1711
0047010015999991991021413504+61450+005867FM-15+0150ENBL V0203101N00151005401CN0060001N1-00601-01001999999ADDAG12999GA1091+005409999MA1101021999999MW1711
0063010015999991991021414504+61450+005867FM-15+0150ENBL V0203101N00211005401CN0050001N1-00601-00701999999ADDAG12003GA1021+001509079GA2071+005409059MA1100911999999MW1711
0063010015999991991021415504+61450+005867FM-15+0150ENBL V0203101N00211004501CN0050001N1-00601-00601999999ADDAG12999GA1021+001509079GA2071+004509059MA1100811999999MW1711
0063010015999991991021416504+61450+005867FM-15+0150ENBL V0202901N00211004501CN0030001N1-00601-00601999999ADDAG12999GA1021+001209079GA2071+004509059MA1100711999999MW1701
0047010015999991991021417504+61450+005867FM-15+0150ENBL V0203001N00151002701CN0015001N1-00601-00601999999ADDAG12009GA1091+002709999MA1100611999999MW1731
0047010015999991991021418504+61450+005867FM-15+0150ENBL V0202401N00151002701CN0015001N1-00601-00601999999ADDAG12999GA1091+002709999MA1100511999999MW1731
0047010015999991991021419504+61450+005867FM-15+0150ENBL V0202601N00101002701CN0015001N1-00601-00601999999ADDAG12999GA1091+002709999MA1100511999999MW1731
0047010015999991991021504504+61450+005867FM-15+0150ENBL V0202901N00211003601CN0020001N1-00301-00301999999ADDAG12999GA1091+003609999MA1099391999999MW1731
0047010015999991991021505504+61450+005867FM-15+0150ENBL V0203501N00101002101CN0010001N1-00301-00301999999ADDAG12010GA1091+002109999MA1099291999999MW1751
0047010015999991991021506504+61450+005867FM-15+0150ENBL V0200901N00101003001CN0015001N1-00301-00301999999ADDAG12999GA1091+003009999MA1099191999999MW1731
0079010015999991991021507504+61450+005867FM-15+0150ENBL V0209991V00101004201CN0020001N1-00301-00301999999ADDAG12999GA1021+000909079GA2071+004209059GA3021+999999079MA1099191999999MW1711
0063010015999991991021508504+61450+005867FM-15+0150ENBL V0202601N00101004201CN0025001N1-00301-00301999999ADDAG12003GA1021+000909079GA2071+004209059MA1099191999999MW1711
0063010015999991991021510504+61450+005867FM-15+0150ENBL V0202101N00101004201CN0025001N1-00301-00301999999ADDAG12999GA1021+000909079GA2071+004209059MA1099091999999MW1711
0063010015999991991021511504+61450+005867FM-15+0150ENBL V0202201N00051004201CN0030001N1-00201-00301999999ADDAG12003GA1021+000909079GA2071+004209059MA1099091999999MW1711
0063010015999991991021512504+61450+005867FM-15+0150ENBL V0202801N00101004201CN0030001N1-00201-00301999999ADDAG12999GA1021+000909079GA2071+004209059MA1098981999999MW1711
0063010015999991991021514504+61450+005867FM-15+0150ENBL V0209991C00001004201CN0020001N1-00201-00301999999ADDAG12003GA1021+000609079GA2061+004209059MA1098981999999MW1711
0063010015999991991021515504+61450+005867FM-15+0150ENBL V0209991C00001004201CN0030001N1-00201-00301999999ADDAG12999GA1021+000159079GA2051+004209059MA1098981999999MW1711
0063010015999991991021516504+61450+005867FM-15+0150ENBL V0209991C00001003001CN0112001N1-00201-00301999999ADDAG12999GA1021+000159079GA2051+003009059MA1098981999999MW1221
0076010015999991991021606504+61450+005867FM-15+0150ENBL V0209991V00051007501CN0112001N1-00301-00301999999ADDAG12999GA1021+000159079GA2051+007509089MA1099391999999EQDQ01+000000PRSWM2
0076010015999991991021608504+61450+005867FM-15+0150ENBL V0200501N00311007501CN0112001N1-00301-00301999999ADDAG12000GA1021+000609079GA2041+007509089MA1099491999999EQDQ01+000000PRSWM2
0076010015999991991021609504+61450+005867FM-15+0150ENBL V0209991V00211220001CN0112001N1-00201-00301999999ADDAG12999GA1011+000159079GA2041+009009089MA1099591999999EQDQ01+000000PRSWM2
0060010015999991991021610504+61450+005867FM-15+0150ENBL V0200101N00261220001CN0112001N1-00101-00201999999ADDAG12999GA1021+009009089MA1099701999999EQDQ01+000000PRSWM2
0060010015999991991021611504+61450+005867FM-15+0150ENBL V0203001N00211220001CN0112001N1-00101-00301999999ADDAG12000GA1021+007509089MA1099701999999EQDQ01+000000PRSWM2
0076010015999991991021612504+61450+005867FM-15+0150ENBL V0203601N00411220001CN0112001N1+00001-00201999999ADDAG12999GA1011+003009079GA2021+006009089MA1099801999999EQDQ01+000000PRSWM2
0060010015999991991021613504+61450+005867FM-15+0150ENBL V0203301N00361220001CN0112001N1+00001-00601999999ADDAG12999GA1021+006009089MA1099801999999EQDQ01+000000PRSWM2
0076010015999991991021614504+61450+005867FM-15+0150ENBL V0203301N00261220001CN0112001N1+00001-00601999999ADDAG12000GA1011+003009079GA2031+006009089MA1099901999999EQDQ01+000000PRSWM2
0060010015999991991021711504+61450+005867FM-15+0150ENBL V0203401N00511220001CN0112001N1-00101-00501999999ADDAG12000GA1031+007509089MA1100001999999EQDQ01+000000PRSWM2
0063010015999991991021712504+61450+005867FM-15+0150ENBL V0203401N00771220001CN0112001N1-00101-00501999999ADDAG12999GA1011+006009099GA2041+007509089MA1100001999999MW1851
0063010015999991991021714504+61450+005867FM-15+0150ENBL V0203601N00571220001CN0112001N1-00201-00701999999ADDAG12000GA1011+006009099GA2041+007509089MA1100201999999MW1851
0060010015999991991021716504+61450+005867FM-15+0150ENBL V0203601N00571220001CN0112001N1-00301-00701999999ADDAG12999GA1031+007509089MA1100311999999EQDQ01+000000PRSWM2
0047010015999991991021717504+61450+005867FM-15+0150ENBL V0200201N00571220001CN0112001N1-00401-00801999999ADDAG12000GA1031+007509089MA1100411999999MW1261
0060010015999991991021719504+61450+005867FM-15+0150ENBL V0200401N00311220001CN0112001N1-00501-01001999999ADDAG12999GA1021+007509089MA1100611999999EQDQ01+000000PRSWM2
0044010015999991991021805504+61450+005867FM-15+0150ENBL V0203601N00151220001CN0112001N1-00801-00901999999ADDAG12000MA1101081999999EQDQ01+000000PRSWM2
0076010015999991991021807504+61450+005867FM-15+0150ENBL V0209991V00101030001CN0112001N1-00901-01001999999ADDAG12999GA1011+015009059GA2051+030009049MA1101081999999EQDQ01+000000PRSWM2
0060010015999991991021808504+61450+005867FM-15+0150ENBL V0209991V00101015001CN0112001N1-00701-00801999999ADDAG12000GA1051+015009059MA1101291999999EQDQ01+000000PRSWM2
0076010015999991991021810504+61450+005867FM-15+0150ENBL V0202801N00211024001CN0112001N1-00501-00901999999ADDAG12999GA1021+015009059GA2041+024009039MA1101291999999EQDQ01+000000PRSWM2
0076010015999991991021811504+61450+005867FM-15+0150ENBL V0209991V00101027001CN0112001N1-00301-00801999999ADDAG12000GA1021+015009059GA2051+027009039MA1101291999999EQDQ01+000000PRSWM2
0076010015999991991021812504+61450+005867FM-15+0150ENBL V0203001N00211018001CN0112001N1-00401-01001999999ADDAG12999GA1021+006009059GA2061+018009039MA1101191999999EQDQ01+000000PRSWM2
0076010015999991991021813504+61450+005867FM-15+0150ENBL V0203101N00101018001CN0112001N1-00301-00901999999ADDAG12999GA1021+005409059GA2061+018009039MA1101191999999EQDQ01+000000PRSWM2
0076010015999991991021814504+61450+005867FM-15+0150ENBL V0202901N00101018001CN0112001N1-00301-00901999999ADDAG12000GA1021+006009059GA2051+018009039MA1101081999999EQDQ01+000000PRSWM2
0076010015999991991021815504+61450+005867FM-15+0150ENBL V0203001N00101018001CN0112001N1-00401-00901999999ADDAG12999GA1021+006009059GA2051+018009039MA1101081999999EQDQ01+000000PRSWM2
0092010015999991991021816504+61450+005867FM-15+0150ENBL V0202601N00101018001CN0112001N1-00401-00901999999ADDAG12999GA1021+006009059GA2011+012009089GA3051+018009039MA1101021999999EQDQ01+000000PRSWM2
0076010015999991991021817504+61450+005867FM-15+0150ENBL V0202501N00151015001CN0112001N1-00401-00801999999ADDAG12000GA1021+006009059GA2061+015009039MA1100911999999EQDQ01+000000PRSWM2
0076010015999991991021818504+61450+005867FM-15+0150ENBL V0209991V00101015001CN0112001N1-00401-00901999999ADDAG12999GA1021+007509059GA2061+015009039MA1100911999999EQDQ01+000000PRSWM2
0076010015999991991021819504+61450+005867FM-15+0150ENBL V0209991V00101015001CN0112001N1-00401-00801999999ADDAG12999GA1021+007509059GA2061+015009039MA1100911999999EQDQ01+000000PRSWM2
0047010015999991991021904504+61450+005867FM-15+0150ENBL V0202401N00361004501CN0020001N1-00301-00301999999ADDAG12999GA1091+004509999MA1100001999999MW1731
0047010015999991991021905504+61450+005867FM-15+0150ENBL V0202501N00361004501CN0020001N1-00301-00301999999ADDAG12009GA1091+004509999MA1100001999999MW1731
0047010015999991991021906504+61450+005867FM-15+0150ENBL V0202501N00361004501CN0035001N1-00301-00301999999ADDAG12999GA1091+004509999MA1099801999999MW1731
0063010015999991991021907504+61450+005867FM-15+0150ENBL V0202301N00311004501CN0050001N1-00201-00301999999ADDAG12999GA1021+001509079GA2071+004509059MA1099701999999MW1711
0063010015999991991021908504+61450+005867FM-15+0150ENBL V0202201N00461004501CN0030001N1-00201-00201999999ADDAG12003GA1021+001509079GA2071+004509059MA1099701999999MW1711
0063010015999991991021910504+61450+005867FM-15+0150ENBL V0202201N00461000601CN0005001N1-00101-00101999999ADDAG12999GA1061+000609079GA2021+999999079MA1099591999999MW1731
0047010015999991991021911504+61450+005867FM-15+0150ENBL V0202001N00511001201CN0005001N1-00101-00101999999ADDAG12009GA1091+001209999MA1099591999999MW1731
0059010015999991991021912504+61450+005867FM-15+0150ENBL V0202101N00361001201CN0004001N1+00001+00001999999ADDAG12999GA1091+001209999MA1099591999999MW1731REMMET003FOG
0059010015999991991021913504+61450+005867FM-15+0150ENBL V0202101N00361000601CN0002001N1-00101-00101999999ADDAG12999GA1091+000609999MA1099491999999MW1731REMMET003FOG
0047010015999991991021914504+61450+005867FM-15+0150ENBL V0202201N00411001201CN0012001N1+00001+00001999999ADDAG12009GA1091+001209999MA1099391999999MW1731
0063010015999991991021916504+61450+005867FM-15+0150ENBL V0202101N00261220001CN0040001N1+00001+00001999999ADDAG12999GA1031+000609079GA2091+999999999MA1099291999999MW1731
0063010015999991991021917504+61450+005867FM-15+0150ENBL V0202201N00261220001CN0020001N1+00001+00001999999ADDAG12009GA1031+000609079GA2091+999999999MA1099291999999MW1731
0063010015999991991021918504+61450+005867FM-15+0150ENBL V0202101N00261220001CN0012001N1+00001+00001999999ADDAG12999GA1041+000159079GA2091+999999999MA1099291999999MW1711
0063010015999991991021919504+61450+005867FM-15+0150ENBL V0202201N00211220001CN0012001N1+00001+00001999999ADDAG12999GA1041+000159079GA2091+999999999MA1099291999999MW1711
0079010015999991991022004504+61450+005867FM-15+0150ENBL V0202301N00311001801CN0030001N1+00301+00201999999ADDAG12999GA1021+000909079GA2031+001809079GA3071+003009079MA1099091999999MW1611
0063010015999991991022005504+61450+005867FM-15+0150ENBL V0202501N00361003601CN0060001N1+00201+00101999999ADDAG12007GA1021+000909079GA2071+003609059MA1099091999999MW1611
