0076010017999991991010206504+59933+002000FM-15+9999ENFR V0202301N01031003001CN0112001N1+00701+00501999999ADDAG12999GA1051+003009079GA2061+012009059MA1096411999999EQDQ01+000000PRSWM2
0034010017999991991010207504+59933+002000FM-15+9999ENFR V0202401N01031220001CN0060001N1+99999+99999999999ADDAG12999MW1621REMMET00908/06 965
0060010017999991991010208504+59933+002000FM-15+9999ENFR V0202501N01291006001CN0112001N1+99999+99999999999ADDAG12000GA1081+006009079MA1096611999999EQDQ01+000000PRSWM2
0060010017999991991010211504+59933+002000FM-15+9999ENFR V0202401N01541007501CN0112001N1+00801+00501999999ADDAG12000GA1071+007509059MA1096881999999EQDQ01+000000PRSWM2
0060010017999991991010304504+59933+002000FM-15+9999ENFR V0202201N01961220001CN0112001N1+00601+00101999999ADDAG12999GA1031+007509089MA1097901999999EQDQ01+000000PRSWM2
0060010017999991991010307504+59933+002000FM-15+9999ENFR V0202301N02061006001CN0112001N1+00601+00201999999ADDAG12999GA1081+006009079MA1098101999999EQDQ01+000000PRSWM2
0060010017999991991010311504+59933+002000FM-15+9999ENFR V0202201N02061220001CN0112001N1+00601+00201999999ADDAG12000GA1041+004509089MA1098211999999EQDQ01+000000PRSWM2
0060010017999991991010312504+59933+002000FM-15+9999ENFR V0202201N02161220001CN0112001N1+00601+00301999999ADDAG12999GA1031+004509089MA1098211999999EQDQ01+000000PRSWM2
0081010017999991991010313504+59933+002000FM-15+9999ENFR V0209999999999220001CN0112001N1+00601+00101999999ADDAG12999GA1031+004509089MA1098211999999REMMET012RJCT42  0540EQDQ01+000000PRSWM2
0060010017999991991010314504+59933+002000FM-15+9999ENFR V0202301N02271004501CN0112001N1+00601+00201999999ADDAG12000GA1051+004509089MA1098211999999EQDQ01+000000PRSWM2
0060010017999991991010406504+59933+002000FM-15+9999ENFR V0201901N01851220001CN0112001N1+00601+00101999999ADDAG12999GA1031+006009089MA1098001999999EQDQ01+000000PRSWM2
0060010017999991991010407504+59933+002000FM-15+9999ENFR V0201801N01541220001CN0112001N1+00501+00201999999ADDAG12999GA1031+006009089MA1098001999999EQDQ01+000000PRSWM2
0076010017999991991010408504+59933+002000FM-15+9999ENFR V0201801N01541007501CN0112001N1+00601+00201999999ADDAG12000GA1031+004509089GA2051+007509079MA1097901999999EQDQ01+000000PRSWM2
0060010017999991991010409504+59933+002000FM-15+9999ENFR V0201801N01851003601CN0112001N1+00601+00301999999ADDAG12999GA1061+003609059MA1097901999999EQDQ01+000000PRSWM2
0060010017999991991010410504+59933+002000FM-15+9999ENFR V0201601N01241003601CN0112001N1+00401+00301999999ADDAG12999GA1081+003609059MA1097801999999EQDQ01+000000PRSWM2
0047010017999991991010411504+59933+002000FM-15+9999ENFR V0201201N02161004501CN0112001N1+00401+00301999999ADDAG12007GA1081+004509059MA1097701999999MW1621
0047010017999991991010412504+59933+002000FM-15+9999ENFR V0201801N01031004501CN0112001N1+00501+00401999999ADDAG12999GA1081+004509059MA1097601999999MW1621
0047010017999991991010413504+59933+002000FM-15+9999ENFR V0202401N00311003601CN0112001N1+00401+00301999999ADDAG12999GA1081+003609059MA1097601999999MW1621
0060010017999991991010414504+59933+002000FM-15+9999ENFR V0202301N02061004501CN0112001N1+00801+00501999999ADDAG12000GA1061+004509059MA1097601999999EQDQ01+000000PRSWM2
0060010017999991991010416504+59933+002000FM-15+9999ENFR V0202201N01961004501CN0112001N1+00701+00501999999ADDAG12999GA1051+004509059MA1097701999999EQDQ01+000000PRSWM2
0060010017999991991010417504+59933+002000FM-15+9999ENFR V0202201N02061220001CN0112001N1+00801+00601999999ADDAG12000GA1031+004509059MA1097701999999EQDQ01+000000PRSWM2
0060010017999991991010510504+59933+002000FM-15+9999ENFR V0201701N01541004501CN0112001N1+00601+00301999999ADDAG12999GA1051+004509059MA1097901999999EQDQ01+000000PRSWM2
0060010017999991991010511504+59933+002000FM-15+9999ENFR V0201601N01851003001CN0080001N1+00601+00501999999ADDAG12000GA1081+003009059MA1097701999999EQDQ01+000000PRSWM2
0047010017999991991010512504+59933+002000FM-15+9999ENFR V0201301N02061003001CN0080001N1+00601+00501999999ADDAG12999GA1081+003009059MA1097391999999MW1621
0055010017999991991010513504+59933+002000FM-15+9999ENFR V0201301N02061003001CN0070001N1+00601+00501999999ADDAG12999GA1081+003009059MA1097191999999MW1621OC102571
0055010017999991991010514504+59933+002000FM-15+9999ENFR V0201701N01541003001CN0112001N1+00601+00501999999ADDAG12007GA1061+003009079MA1096991999999MW1611OC102061
0060010017999991991010515504+59933+002000FM-15+9999ENFR V0202001N01541003601CN0112001N1+00701+00401999999ADDAG12999GA1051+003609059MA1097091999999EQDQ01+000000PRSWM2
0060010017999991991010608504+59933+002000FM-15+9999ENFR V0200301N00821004501CN0112001N1+00701+00301999999ADDAG12000GA1061+004509059MA1097091999999EQDQ01+000000PRSWM2
0060010017999991991010609504+59933+002000FM-15+9999ENFR V0200301N00621220001CN0112001N1+00701+00401999999ADDAG12999GA1031+006009059MA1097191999999EQDQ01+000000PRSWM2
0060010017999991991010610504+59933+002000FM-15+9999ENFR V0200101N00821220001CN0112001N1+00701+00301999999ADDAG12999GA1031+006009059MA1097291999999EQDQ01+000000PRSWM2
0060010017999991991010611504+59933+002000FM-15+9999ENFR V0209991V00311220001CN0112001N1+00701+00301999999ADDAG12000GA1041+006009059MA1097391999999EQDQ01+000000PRSWM2
0060010017999991991010612504+59933+002000FM-15+9999ENFR V0209991V00511006001CN0112001N1+00701+00401999999ADDAG12999GA1051+006009059MA1097491999999EQDQ01+000000PRSWM2
0060010017999991991010613504+59933+002000FM-15+9999ENFR V0203501N00411220001CN0112001N1+00601+00401999999ADDAG12999GA1031+006009059MA1097601999999EQDQ01+000000PRSWM2
0060010017999991991010614504+59933+002000FM-15+9999ENFR V0203301N00311220001CN0112001N1+00601+00401999999ADDAG12000GA1031+006009059MA1097601999999EQDQ01+000000PRSWM2
0060010017999991991010615504+59933+002000FM-15+9999ENFR V0203201N00621004501CN0112001N1+00601+00301999999ADDAG12999GA1051+004509059MA1097701999999EQDQ01+000000PRSWM2
0080010017999991991010700504+59933+002000FM-15+9999ENFR V0209999999999004501CN0060001N1-01401-01801999999ADDAG11999GA1091+004509999MA1099591999999MW1711REMMET00638BLSNMET012RJCT00  0000
0047010017999991991010707504+59933+002000FM-15+9999ENFR V0201901N00621002401CN0112001N1+00501+00401999999ADDAG12999GA1091+999999999MA1098101999999MW1601
0063010017999991991010708504+59933+002000FM-15+9999ENFR V0201401N00621007501CN0112001N1+00401+00301999999ADDAG12001GA1021+003009059GA2081+007509079MA1098101999999MW1501
0060010017999991991010709504+59933+002000FM-15+9999ENFR V0201301N00511004501CN0112001N1+00401+00301999999ADDAG12999GA1061+004509059MA1098101999999EQDQ01+000000PRSWM2
0060010017999991991010710504+59933+002000FM-15+9999ENFR V0200901N00511006001CN0112001N1+00501+00301999999ADDAG12999GA1061+006009059MA1098101999999EQDQ01+000000PRSWM2
0047010017999991991010711504+59933+002000FM-15+9999ENFR V0202701N00721004501CN0112001N1+00301+00201999999ADDAG12007GA1081+004509079MA1098101999999MW1611
0060010017999991991010712504+59933+002000FM-15+9999ENFR V0202701N00511004501CN0112001N1+00401+00301999999ADDAG12999GA1061+004509059MA1098101999999EQDQ01+000000PRSWM2
0060010017999991991010713504+59933+002000FM-15+9999ENFR V0202501N00621220001CN0112001N1+00501+00301999999ADDAG12999GA1031+006009059MA1098101999999EQDQ01+000000PRSWM2
0060010017999991991010714504+59933+002000FM-15+9999ENFR V0202301N00621220001CN0112001N1+00601+00401999999ADDAG12000GA1041+006009059MA1098101999999EQDQ01+000000PRSWM2
0047010017999991991010715504+59933+002000FM-15+9999ENFR V0202801N01031004501CN0112001N1+00401+00301999999ADDAG12999GA1051+004509059MA1098101999999MW1801
0060010017999991991010806504+59933+002000FM-15+9999ENFR V0203301N00211220001CN0112001N1+00401+00201999999ADDAG12999GA1031+006009059MA1098101999999EQDQ01+000000PRSWM2
0060010017999991991010807504+59933+002000FM-15+9999ENFR V0203201N00511220001CN0112001N1+00501+00001999999ADDAG12999GA1031+006009059MA1098211999999EQDQ01+000000PRSWM2
0060010017999991991010808504+59933+002000FM-15+9999ENFR V0203201N00511220001CN0112001N1+00501+00101999999ADDAG12000GA1031+006009059MA1098211999999EQDQ01+000000PRSWM2
0060010017999991991010809504+59933+002000FM-15+9999ENFR V0203001N00411220001CN0112001N1+00501+00101999999ADDAG12999GA1031+006009059MA1098311999999EQDQ01+000000PRSWM2
0060010017999991991010810504+59933+002000FM-15+9999ENFR V0202701N00411220001CN0112001N1+00601+00101999999ADDAG12999GA1021+007509059MA1098311999999EQDQ01+000000PRSWM2
0060010017999991991010811504+59933+002000FM-15+9999ENFR V0202501N00511220001CN0112001N1+00601-00101999999ADDAG12000GA1031+007509059MA1098411999999EQDQ01+000000PRSWM2
0060010017999991991010812504+59933+002000FM-15+9999ENFR V0202401N00511220001CN0112001N1+00601-00101999999ADDAG12999GA1021+006009089MA1098511999999EQDQ01+000000PRSWM2
0060010017999991991010813504+59933+002000FM-15+9999ENFR V0202401N00931220001CN0112001N1+00601+00301999999ADDAG12999GA1041+006009059MA1098511999999EQDQ01+000000PRSWM2
0044010017999991991010814504+59933+002000FM-15+9999ENFR V0202701N01031220001CN0112001N1+00401+00301999999ADDAG12000MA1098511999999EQDQ01+000000PRSWM2
0060010017999991991010815504+59933+002000FM-15+9999ENFR V0202801N00621220001CN0112001N1+00401+00301999999ADDAG12999GA1041+006009089MA1098511999999EQDQ01+000000PRSWM2
0060010017999991991010906504+59933+002000FM-15+9999ENFR V0203501N00511003601CN0112001N1+00501+00101999999ADDAG12999GA1091+003609999MA1097901999999EQDQ01+000000PRSWM2
0060010017999991991010907504+59933+002000FM-15+9999ENFR V0203501N00511220001CN0112001N1+00501+00201999999ADDAG12999GA1031+004509059MA1098001999999EQDQ01+000000PRSWM2
0060010017999991991010908504+59933+002000FM-15+9999ENFR V0203301N00511004501CN0112001N1+00501+00201999999ADDAG12000GA1051+004509059MA1098101999999EQDQ01+000000PRSWM2
0047010017999991991010909504+59933+002000FM-15+9999ENFR V0202801N01031004501CN0112001N1+00401+00201999999ADDAG12999GA1081+004509059MA1098211999999MW1601
0060010017999991991010910504+59933+002000FM-15+9999ENFR V0202701N00311220001CN0112001N1+00401+00201999999ADDAG12999GA1031+004509059MA1098211999999EQDQ01+000000PRSWM2
0060010017999991991010911504+59933+002000FM-15+9999ENFR V0203101N00511220001CN0112001N1+00301+00101999999ADDAG12000GA1031+007509059MA1098311999999EQDQ01+000000PRSWM2
0060010017999991991010912504+59933+002000FM-15+9999ENFR V0202701N00211220001CN0112001N1+00401+00101999999ADDAG12999GA1031+006009059MA1098311999999EQDQ01+000000PRSWM2
0060010017999991991010913504+59933+002000FM-15+9999ENFR V0202201N00211220001CN0112001N1+00501+00101999999ADDAG12999GA1021+007509059MA1098311999999EQDQ01+000000PRSWM2
0076010017999991991010914504+59933+002000FM-15+9999ENFR V0202301N00621006001CN0112001N1+00501-00101999999ADDAG12000GA1021+004509099GA2031+006009059MA1098411999999EQDQ01+000000PRSWM2
0060010017999991991011006504+59933+002000FM-15+9999ENFR V0203001N00101220001CN0112001N1+00401+00201999999ADDAG12999GA1021+006009059MA1097291999999EQDQ01+000000PRSWM2
0060010017999991991011007504+59933+002000FM-15+9999ENFR V0202901N00411220001CN0112001N1+00401+00201999999ADDAG12999GA1041+004509059MA1097291999999EQDQ01+000000PRSWM2
0060010017999991991011008504+59933+002000FM-15+9999ENFR V0202901N00721220001CN0112001N1+00401+00201999999ADDAG12000GA1041+004509059MA1097291999999EQDQ01+000000PRSWM2
0060010017999991991011009504+59933+002000FM-15+9999ENFR V0203001N00821220001CN0112001N1+00501+00201999999ADDAG12999GA1031+004509059MA1097291999999EQDQ01+000000PRSWM2
0060010017999991991011107504+59933+002000FM-15+9999ENFR V0202701N01131003001CN0112001N1+00601+00301999999ADDAG12999GA1061+003009059MA1098821999999EQDQ01+000000PRSWM2
0060010017999991991011108504+59933+002000FM-15+9999ENFR V0202801N00771003001CN0112001N1+00601+00401999999ADDAG12000GA1061+003009059MA1098981999999EQDQ01+000000PRSWM2
0076010017999991991011111504+59933+002000FM-15+9999ENFR V0202701N00621003001CN0112001N1+00501+00301999999ADDAG12000GA1021+003009099GA2061+003009059MA1099291999999EQDQ01+000000PRSWM2
0076010017999991991011112504+59933+002000FM-15+9999ENFR V0202901N00771003001CN0112001N1+00601+00201999999ADDAG12999GA1021+003009099GA2041+003009059MA1099291999999EQDQ01+000000PRSWM2
0060010017999991991011408504+59933+002000FM-15+9999ENFR V0201801N01131220001CN0112001N1+00701+00101999999ADDAG12000GA1041+007509059MA1104001999999EQDQ01+000000PRSWM2
0060010017999991991011409504+59933+002000FM-15+9999ENFR V0201801N01291220001CN0112001N1+00701+00201999999ADDAG12999GA1041+007509059MA1104001999999EQDQ01+000000PRSWM2
0060010017999991991011411504+59933+002000FM-15+9999ENFR V0201901N01391220001CN0112001N1+00701+00101999999ADDAG12000GA1041+009009059MA1103891999999EQDQ01+000000PRSWM2
0060010017999991991011413504+59933+002000FM-15+9999ENFR V0201901N01441010501CN0112001N1+00701+00101999999ADDAG12999GA1051+010509059MA1103891999999EQDQ01+000000PRSWM2
0060010017999991991011414504+59933+002000FM-15+9999ENFR V0202001N01391010501CN0112001N1+00701+00201999999ADDAG12000GA1061+010509059MA1103891999999EQDQ01+000000PRSWM2
0097010017999991991011508504+59933+002000FM-15+9999ENFR V0209999999999010501CN0112001N1+00501+00101999999ADDAG12000GA1031+006009089GA2041+010509059MA1103691999999REMMET012RJCT42  0520EQDQ01+000000PRSWM2
0060010017999991991011510504+59933+002000FM-15+9999ENFR V0201701N01391220001CN0112001N1+00601+00201999999ADDAG12999GA1031+009009089MA1103591999999EQDQ01+000000PRSWM2
0060010017999991991011511504+59933+002000FM-15+9999ENFR V0201601N01341220001CN0112001N1+00501+00201999999ADDAG12000GA1031+009009089MA1103491999999EQDQ01+000000PRSWM2
0060010017999991991011512504+59933+002000FM-15+9999ENFR V0201601N01541220001CN0112001N1+00601+00301999999ADDAG12999GA1031+009009089MA1103391999999EQDQ01+000000PRSWM2
0060010017999991991011515504+59933+002000FM-15+9999ENFR V0201601N01651220001CN0112001N1+00601+00201999999ADDAG12999GA1031+009009089MA1103181999999EQDQ01+000000PRSWM2
0060010017999991991011607504+59933+002000FM-15+9999ENFR V0201701N02321007501CN0112001N1+00601+00301999999ADDAG12999GA1061+007509059MA1102401999999EQDQ01+000000PRSWM2
0060010017999991991011608504+59933+002000FM-15+9999ENFR V0201701N02321006001CN0112001N1+00601+00201999999ADDAG12000GA1071+006009059MA1102401999999EQDQ01+000000PRSWM2
0060010017999991991011609504+59933+002000FM-15+9999ENFR V0201701N02321220001CN0112001N1+00601+00301999999ADDAG12999GA1041+009009059MA1102511999999EQDQ01+000000PRSWM2
0068010017999991991011610504+59933+002000FM-15+9999ENFR V0201701N02061220001CN0112001N1+00601+00301999999ADDAG12999GA1041+007509089MA1102401999999OC102571EQDQ01+000000PRSWM2
0060010017999991991011611504+59933+002000FM-15+9999ENFR V0201701N02061220001CN0112001N1+00601+00301999999ADDAG12000GA1031+007509089MA1102401999999EQDQ01+000000PRSWM2
0060010017999991991011613504+59933+002000FM-15+9999ENFR V0201701N02061007501CN0112001N1+00601+00301999999ADDAG12999GA1061+007509059MA1102401999999EQDQ01+000000PRSWM2
0060010017999991991011707504+59933+002000FM-15+9999ENFR V0201601N02321007501CN0112001N1+00501+00201999999ADDAG12999GA1061+007509059MA1101691999999EQDQ01+000000PRSWM2
0076010017999991991011709504+59933+002000FM-15+9999ENFR V0201601N01961006001CN0112001N1+00501+00301999999ADDAG12999GA1031+003009089GA2081+006009079MA1101591999999EQDQ01+000000PRSWM2
0060010017999991991011808504+59933+002000FM-15+9999ENFR V0201901N01291007501CN0112001N1+00801+00601999999ADDAG12000GA1061+007509079MA1102401999999EQDQ01+000000PRSWM2
0060010017999991991011811504+59933+002000FM-15+9999ENFR V0201401N01291220001CN0112001N1+00701+00601999999ADDAG12000GA1031+007509079MA1102201999999EQDQ01+000000PRSWM2
0058010017999991991012113504+59933+002000FM-15+9999ENFR V0203201N00511999991CY0099001N1+00501+99999999999ADDAG12999MA1103691999999REMMET005CAVOKEQDQ01+000000PRSWM2
0058010017999991991012114504+59933+002000FM-15+9999ENFR V0203001N00261999991CY0099001N1+00501-00101999999ADDAG12000MA1103691999999REMMET005CAVOKEQDQ01+000000PRSWM2
0047010017999991991012208504+59933+002000FM-15+9999ENFR V0202201N01291001801CN0060001N1+00701+00701999999ADDAG12001GA1081+001809079MA1103791999999MW1511
0047010017999991991012209504+59933+002000FM-15+9999ENFR V0202301N01291001801CN0070001N1+00801+00801999999ADDAG12999GA1081+001809079MA1103791999999MW1511
0047010017999991991012210504+59933+002000FM-15+9999ENFR V0202401N01131001501CN0070001N1+00801+00801999999ADDAG12999GA1081+001509079MA1103791999999MW1511
0060010017999991991012307504+59933+002000FM-15+9999ENFR V0202401N00771006001CN0112001N1+00801+00701999999ADDAG12999GA1081+006009079MA1103181999999EQDQ01+000000PRSWM2
0047010017999991991012308504+59933+002000FM-15+9999ENFR V0202301N00931002401CN0112001N1+00801+00701999999ADDAG12001GA1081+002409079MA1103181999999MW1511
0063010017999991991012309504+59933+002000FM-15+9999ENFR V0202501N00771001801CN0112001N1+00801+00601999999ADDAG12999GA1041+001209089GA2081+001809079MA1103181999999MW1511
0047010017999991991012310504+59933+002000FM-15+9999ENFR V0202401N00931003001CN0112001N1+00801+00601999999ADDAG12999GA1081+003009079MA1103291999999MW1511
0047010017999991991012311504+59933+002000FM-15+9999ENFR V0202401N00931001501CN0060001N1+00701+00601999999ADDAG12001GA1081+001509079MA1103181999999MW1511
0047010017999991991012312504+59933+002000FM-15+9999ENFR V0202601N00931001801CN0070001N1+00701+00701999999ADDAG12999GA1081+001809079MA1103181999999MW1511
0060010017999991991012313504+59933+002000FM-15+9999ENFR V0202701N00931001201CN0080001N1+00801+00801999999ADDAG12999GA1081+001209079MA1103121999999EQDQ01+000000PRSWM2
0058010017999991991012406504+59933+002000FM-15+9999ENFR V0202401N00411999991CY0099001N1+00801+00701999999ADDAG12999MA1103491999999REMMET005CAVOKEQDQ01+000000PRSWM2
0060010017999991991012407504+59933+002000FM-15+9999ENFR V0202401N00771003601CN0112001N1+00801+00601999999ADDAG12999GA1061+003609059MA1103491999999EQDQ01+000000PRSWM2
0060010017999991991012408504+59933+002000FM-15+9999ENFR V0202601N00771003601CN0112001N1+00701+00701999999ADDAG12000GA1061+003609059MA1103491999999EQDQ01+000000PRSWM2
0060010017999991991012511504+59933+002000FM-15+9999ENFR V0202301N00621007501CN0112001N1+00701+00401999999ADDAG12000GA1081+007509079MA1103121999999EQDQ01+000000PRSWM2
0060010017999991991012810504+59933+002000FM-15+9999ENFR V0202001N00511003601CN0112001N1+00501+00401999999ADDAG12999GA1071+003609079MA1103121999999EQDQ01+000000PRSWM2
0060010017999991991012814504+59933+002000FM-15+9999ENFR V0201901N00511004501CN0112001N1+00601+00401999999ADDAG12000GA1081+004509059MA1103011999999EQDQ01+000000PRSWM2
0060010017999991991012908504+59933+002000FM-15+9999ENFR V0201701N01031003601CN0112001N1+00601+00401999999ADDAG12000GA1081+003609079MA1102401999999EQDQ01+000000PRSWM2
0060010017999991991012909504+59933+002000FM-15+9999ENFR V0201701N01031003001CN0112001N1+00601+00401999999ADDAG12999GA1081+003009079MA1102401999999EQDQ01+000000PRSWM2
0060010017999991991012911504+59933+002000FM-15+9999ENFR V0201901N01031003001CN0112001N1+00601+00301999999ADDAG12000GA1081+003009079MA1102401999999EQDQ01+000000PRSWM2
0060010017999991991012913504+59933+002000FM-15+9999ENFR V0201801N01291003001CN0112001N1+00601+00501999999ADDAG12999GA1081+003009079MA1102401999999EQDQ01+000000PRSWM2
0047010017999991991013008504+59933+002000FM-15+9999ENFR V0201801N01291002401CN0040001N1+00501+00401999999ADDAG12000GA1081+002409079MA1102511999999MW1101
0060010017999991991013009504+59933+002000FM-15+9999ENFR V0201601N01541003601CN0112001N1+00601+00301999999ADDAG12999GA1081+003609059MA1102511999999EQDQ01+000000PRSWM2
0060010017999991991013012504+59933+002000FM-15+9999ENFR V0201701N01291003601CN0112001N1+00601+00201999999ADDAG12999GA1081+003609059MA1102611999999EQDQ01+000000PRSWM2
0060010017999991991013107504+59933+002000FM-15+9999ENFR V0202401N01031220001CN0112001N1+00601+00301999999ADDAG12999GA1021+006009089MA1102711999999EQDQ01+000000PRSWM2
0060010017999991991013108504+59933+002000FM-15+9999ENFR V0202401N00881220001CN0112001N1+00601+00201999999ADDAG12000GA1031+004509089MA1102711999999EQDQ01+000000PRSWM2
0060010017999991991013109504+59933+002000FM-15+9999ENFR V0202401N00881220001CN0112001N1+00601+00301999999ADDAG12999GA1031+004509059MA1102711999999EQDQ01+000000PRSWM2
0081010017999991991013110504+59933+002000FM-15+9999ENFR V0209999999999220001CN0112001N1+00601+00301999999ADDAG12999GA1041+004509059MA1102811999999REMMET012RJCT42  0513EQDQ01+000000PRSWM2
0081010017999991991013112504+59933+002000FM-15+9999ENFR V0209999999999003001CN0112001N1+00601+00201999999ADDAG12999GA1051+003009059MA1102811999999REMMET012RJCT42  0513EQDQ01+000000PRSWM2
0081010017999991991020108504+59933+002000FM-15+9999ENFR V0209999999999003601CN0112001N1+00301-00201999999ADDAG12000GA1071+003609089MA1102911999999REMMET012RJCT42  0318EQDQ01+000000PRSWM2
0060010017999991991020109504+59933+002000FM-15+9999ENFR V0201501N00881006001CN0112001N1+00301-00301999999ADDAG12999GA1051+006009089MA1102911999999EQDQ01+000000PRSWM2
0081010017999991991020110504+59933+002000FM-15+9999ENFR V0209999999999006001CN0112001N1+00301-00301999999ADDAG12999GA1051+006009089MA1103011999999REMMET012RJCT42  0518EQDQ01+000000PRSWM2
0081010017999991991020111504+59933+002000FM-15+9999ENFR V0209999999999006001CN0112001N1+00301-00201999999ADDAG12000GA1061+006009089MA1103011999999REMMET012RJCT42  0515EQDQ01+000000PRSWM2
0060010017999991991020208504+59933+002000FM-15+9999ENFR V0201301N00931004501CN0112001N1+00201-00101999999ADDAG12000GA1071+004509059MA1103491999999EQDQ01+000000PRSWM2
0060010017999991991020408504+59933+002000FM-15+9999ENFR V0201601N01801006001CN0112001N1+00301-00101999999ADDAG12000GA1081+006009079MA1104101999999EQDQ01+000000PRSWM2
0060010017999991991020409504+59933+002000FM-15+9999ENFR V0201601N01541006001CN0112001N1+00401-00201999999ADDAG12999GA1081+006009059MA1104101999999EQDQ01+000000PRSWM2
0060010017999991991020410504+59933+002000FM-15+9999ENFR V0201701N01651006001CN0112001N1+00401-00101999999ADDAG12999GA1081+006009059MA1104201999999EQDQ01+000000PRSWM2
0060010017999991991020411504+59933+002000FM-15+9999ENFR V0201601N01541006001CN0112001N1+00401-00101999999ADDAG12000GA1081+006009059MA1104201999999EQDQ01+000000PRSWM2
0060010017999991991020414504+59933+002000FM-15+9999ENFR V0201701N01541007501CN0112001N1+00401+99999999999ADDAG12000GA1081+007509059MA1104301999999EQDQ01+000000PRSWM2
0058010017999991991020508504+59933+002000FM-15+9999ENFR V0201401N01031999991CY0099001N1+00301-00401999999ADDAG12000MA1104501999999REMMET005CAVOKEQDQ01+000000PRSWM2
0058010017999991991020510504+59933+002000FM-15+9999ENFR V0201501N00821999991CY0099001N1+00301-00101999999ADDAG12999MA1104501999999REMMET005CAVOKEQDQ01+000000PRSWM2
0060010017999991991020511504+59933+002000FM-15+9999ENFR V0201301N00931009001CN0112001N1+00401+00001999999ADDAG12000GA1051+009009089MA1104501999999EQDQ01+000000PRSWM2
0060010017999991991020608504+59933+002000FM-15+9999ENFR V0201401N01291007501CN0112001N1+00301-00101999999ADDAG12000GA1081+007509059MA1104201999999EQDQ01+000000PRSWM2
0060010017999991991020611504+59933+002000FM-15+9999ENFR V0201401N01441007501CN0112001N1+00301-00201999999ADDAG12000GA1081+007509059MA1104201999999EQDQ01+000000PRSWM2
0060010017999991991020612504+59933+002000FM-15+9999ENFR V0201401N01291220001CN0112001N1+00301-00201999999ADDAG12999GA1041+010509089MA1104201999999EQDQ01+000000PRSWM2
0060010017999991991020710504+59933+002000FM-15+9999ENFR V0200801N00261220001CN0112001N1+00201-00401999999ADDAG12999GA1031+009009089MA1103891999999EQDQ01+000000PRSWM2
0060010017999991991020713504+59933+002000FM-15+9999ENFR V0200601N00511220001CN0112001N1+00301-00501999999ADDAG12999GA1041+009009089MA1103691999999EQDQ01+000000PRSWM2
0058010017999991991020806504+59933+002000FM-15+9999ENFR V0200901N00721999991CY0099001N1+00301-00501999999ADDAG12999MA1102811999999REMMET005CAVOKEQDQ01+000000PRSWM2
0058010017999991991020808504+59933+002000FM-15+9999ENFR V0201001N00881999991CY0099001N1+00301-00501999999ADDAG12000MA1102711999999REMMET005CAVOKEQDQ01+000000PRSWM2
0058010017999991991020810504+59933+002000FM-15+9999ENFR V0201001N00671999991CY0099001N1+00401-00701999999ADDAG12999MA1102711999999REMMET005CAVOKEQDQ01+000000PRSWM2
0058010017999991991020812504+59933+002000FM-15+9999ENFR V0201101N00721999991CY0099001N1+00401-00701999999ADDAG12999MA1102611999999REMMET005CAVOKEQDQ01+000000PRSWM2
0060010017999991991020909504+59933+002000FM-15+9999ENFR V0201201N00771007501CN0112001N1+00001-00601999999ADDAG12999GA1061+007509089MA1102101999999EQDQ01+000000PRSWM2
0060010017999991991021107504+59933+002000FM-15+9999ENFR V0201601N00361220001CN0112001N1+00101-00101999999ADDAG12999GA1021+006009089MA1101901999999EQDQ01+000000PRSWM2
0081010017999991991021108504+59933+002000FM-15+9999ENFR V0209999999999220001CN0112001N1+00201-00101999999ADDAG12000GA1021+006009089MA1101901999999REMMET012RJCT42  0507EQDQ01+000000PRSWM2
0081010017999991991021109504+59933+002000FM-15+9999ENFR V0209999999999220001CN0112001N1+00201-00101999999ADDAG12999GA1021+006009089MA1101901999999REMMET012RJCT42  0512EQDQ01+000000PRSWM2
0081010017999991991021110504+59933+002000FM-15+9999ENFR V0209999999999220001CN0112001N1+00201-00301999999ADDAG12999GA1011+009009089MA1101901999999REMMET012RJCT42  0508EQDQ01+000000PRSWM2
0060010017999991991021111504+59933+002000FM-15+9999ENFR V0202201N00411220001CN0112001N1+00201-00201999999ADDAG12000GA1041+006009089MA1101901999999EQDQ01+000000PRSWM2
0060010017999991991021112504+59933+002000FM-15+9999ENFR V0202001N00511220001CN0112001N1+00201-00101999999ADDAG12999GA1031+006009089MA1101901999999EQDQ01+000000PRSWM2
0081010017999991991021114504+59933+002000FM-15+9999ENFR V0209999999999220001CN0112001N1+00301-00301999999ADDAG12000GA1021+006009089MA1101901999999REMMET012RJCT42  0509EQDQ01+000000PRSWM2
0081010017999991991021115504+59933+002000FM-15+9999ENFR V0209999999999220001CN0112001N1+00301-00301999999ADDAG12999GA1021+006009089MA1101901999999REMMET012RJCT42  0510EQDQ01+000000PRSWM2
0060010017999991991021207504+59933+002000FM-15+9999ENFR V0203601N00821002401CN0112001N1+00301+00101999999ADDAG12999GA1081+002409059MA1101591999999EQDQ01+000000PRSWM2
0060010017999991991021208504+59933+002000FM-15+9999ENFR V0200201N00721220001CN0112001N1+00301+00101999999ADDAG12000GA1021+003009089MA1101591999999EQDQ01+000000PRSWM2
0060010017999991991021209504+59933+002000FM-15+9999ENFR V0200201N00621220001CN0112001N1+00301+00001999999ADDAG12999GA1021+009009059MA1101591999999EQDQ01+000000PRSWM2
0060010017999991991021210504+59933+002000FM-15+9999ENFR V0200401N00821220001CN0112001N1+00301-00101999999ADDAG12999GA1021+007509059MA1101591999999EQDQ01+000000PRSWM2
0060010017999991991021212504+59933+002000FM-15+9999ENFR V0200601N00621220001CN0112001N1+00201-00301999999ADDAG12999GA1011+000309079MA1101691999999EQDQ01+000000PRSWM2
0060010017999991991021306504+59933+002000FM-15+9999ENFR V0203401N00621220001CN0112001N1+00401+00101999999ADDAG12999GA1021+002409079MA1102001999999EQDQ01+000000PRSWM2
0060010017999991991021310504+59933+002000FM-15+9999ENFR V0203401N00621001801CN0112001N1+00301+00201999999ADDAG12999GA1081+001809059MA1102101999999EQDQ01+000000PRSWM2
0081010017999991991021312504+59933+002000FM-15+9999ENFR V0209999999999002101CN0112001N1+00401+00201999999ADDAG12999GA1081+002109059MA1102001999999REMMET012RJCT42  0515EQDQ01+000000PRSWM2
0058010017999991991021407504+59933+002000FM-15+9999ENFR V0201701N00511999991CY0099001N1+00401+00201999999ADDAG12999MA1101591999999REMMET005CAVOKEQDQ01+000000PRSWM2
0060010017999991991021409504+59933+002000FM-15+9999ENFR V0201701N00571006001CN0112001N1+00501+00201999999ADDAG12999GA1081+006009059MA1101491999999EQDQ01+000000PRSWM2
0076010017999991991021410504+59933+002000FM-15+9999ENFR V0201801N00671009001CN0112001N1+00501+00201999999ADDAG12999GA1041+001809059GA2081+009009079MA1101391999999EQDQ01+000000PRSWM2
0060010017999991991021411504+59933+002000FM-15+9999ENFR V0202001N00721012001CN0112001N1+00401+00101999999ADDAG12000GA1081+012009079MA1101391999999EQDQ01+000000PRSWM2
0060010017999991991021506504+59933+002000FM-15+9999ENFR V0203401N01441009001CN0112001N1+00501+00201999999ADDAG12999GA1071+009009079MA1099591999999EQDQ01+000000PRSWM2
0076010017999991991021507504+59933+002000FM-15+9999ENFR V0203401N01341010501CN0112001N1+00501+00101999999ADDAG12999GA1021+006009089GA2061+010509059MA1099591999999EQDQ01+000000PRSWM2
0076010017999991991021508504+59933+002000FM-15+9999ENFR V0203401N01181010501CN0112001N1+00501-00101999999ADDAG12000GA1021+006009089GA2071+010509059MA1099591999999EQDQ01+000000PRSWM2
0076010017999991991021511504+59933+002000FM-15+9999ENFR V0203401N01291009001CN0112001N1+00301+00301999999ADDAG12000GA1021+006009089GA2061+009009059MA1099491999999EQDQ01+000000PRSWM2
0076010017999991991021515504+59933+002000FM-15+9999ENFR V0203501N01701010501CN0112001N1+00401+00001999999ADDAG12999GA1041+007509089GA2071+010509059MA1099491999999EQDQ01+000000PRSWM2
0060010017999991991021713504+59933+002000FM-15+9999ENFR V0203401N01181009001CN0112001N1+00401+00001999999ADDAG12999GA1061+009009059MA1100711999999EQDQ01+000000PRSWM2
0060010017999991991021807504+59933+002000FM-15+9999ENFR V0200801N00361006001CN0112001N1+00401-00201999999ADDAG12999GA1081+006009059MA1101391999999EQDQ01+000000PRSWM2
0060010017999991991021809504+59933+002000FM-15+9999ENFR V0203101N00151007501CN0112001N1+00401-00301999999ADDAG12999GA1081+007509059MA1101591999999EQDQ01+000000PRSWM2
0060010017999991991021810504+59933+002000FM-15+9999ENFR V0203501N00211007501CN0112001N1+00401-00201999999ADDAG12999GA1081+007509059MA1101591999999EQDQ01+000000PRSWM2
0060010017999991991021815504+59933+002000FM-15+9999ENFR V0202001N00671007501CN0112001N1+00401-00301999999ADDAG12999GA1081+007509059MA1101291999999EQDQ01+000000PRSWM2
0063010017999991991021906504+59933+002000FM-15+9999ENFR V0202201N01751003601CN0050001N1+00501+00401999999ADDAG12999GA1041+001809079GA2061+003609059MA1100001999999MW1631
0092010017999991991021908504+59933+002000FM-15+9999ENFR V0202101N01801001501CN0060001N1+00501+00401999999ADDAG12000GA1031+001209079GA2061+001509079GA3081+003609059MA1099901999999EQDQ01+000000PRSWM2
0079010017999991991021909504+59933+002000FM-15+9999ENFR V0202201N01801002401CN0070001N1+00601+00501999999ADDAG12999GA1041+001209079GA2061+002409079GA3081+003609059MA1099901999999MW1601
0060010017999991991022008504+59933+002000FM-15+9999ENFR V0202401N01241003001CN0112001N1+00701+00501999999ADDAG12000GA1061+003009059MA1099491999999EQDQ01+000000PRSWM2
0076010017999991991022009504+59933+002000FM-15+9999ENFR V0202401N01291006001CN0112001N1+00701+00501999999ADDAG12999GA1021+003009079GA2041+006009089MA1099591999999EQDQ01+000000PRSWM2
0073010017999991991022010504+59933+002000FM-15+9999ENFR V0209999999999999991CY0099001N1+00701+00401999999ADDAG12999MA1099701999999REMMET020CAVOK 7@@@@@%@@@@@@@EQDQ01+000000PRSWM2
0044010017999991991022106504+59933+002000FM-15+9999ENFR V0202401N01291220001CN0112001N1+00601+00301999999ADDAG12999MA1099591999999EQDQ01+000000PRSWM2
0060010017999991991022107504+59933+002000FM-15+9999ENFR V0202301N01291220001CN0112001N1+00601+00301999999ADDAG12999GA1031+006009089MA1099701999999EQDQ01+000000PRSWM2
0060010017999991991022108504+59933+002000FM-15+9999ENFR V0202401N01131006001CN0112001N1+00601+00201999999ADDAG12000GA1051+006009089MA1099801999999EQDQ01+000000PRSWM2
0060010017999991991022111504+59933+002000FM-15+9999ENFR V0201901N01031220001CN0112001N1+00701+00301999999ADDAG12000GA1021+004509089MA1099901999999EQDQ01+000000PRSWM2
0058010017999991991022112504+59933+002000FM-15+9999ENFR V0201901N01031999991CY0099001N1+00701+00401999999ADDAG12999MA1099901999999REMMET005CAVOKEQDQ01+000000PRSWM2
0058010017999991991022113504+59933+002000FM-15+9999ENFR V0201801N01131999991CY0099001N1+00701+00201999999ADDAG12999MA1099901999999REMMET005CAVOKEQDQ01+000000PRSWM2
0047010017999991991022206504+59933+002000FM-15+9999ENFR V0201301N01541002401CN0050001N1+00601+00501999999ADDAG12999GA1081+002409079MA1098711999999MW1621
0047010017999991991022207504+59933+002000FM-15+9999ENFR V0201401N01651002401CN0050001N1+00601+00601999999ADDAG12999GA1081+002409079MA1098711999999MW1621
0060010017999991991022209504+59933+002000FM-15+9999ENFR V0201401N01541003001CN0080001N1+00601+00201999999ADDAG12999GA1081+003009059MA1098711999999EQDQ01+000000PRSWM2
0060010017999991991022210504+59933+002000FM-15+9999ENFR V0201301N01441003601CN0112001N1+00601+00201999999ADDAG12999GA1061+003609059MA1098611999999EQDQ01+000000PRSWM2
0076010017999991991022211504+59933+002000FM-15+9999ENFR V0201301N01291003001CN0112001N1+00401+00301999999ADDAG12000GA1021+003009099GA2061+003009059MA1098611999999EQDQ01+000000PRSWM2
0060010017999991991022212504+59933+002000FM-15+9999ENFR V0201101N00771003601CN0112001N1+00401+00301999999ADDAG12999GA1061+003609089MA1098511999999EQDQ01+000000PRSWM2
0060010017999991991022213504+59933+002000FM-15+9999ENFR V0202301N00261220001CN0112001N1+00501+00401999999ADDAG12999GA1041+003609089MA1098511999999EQDQ01+000000PRSWM2
0058010017999991991022311504+59933+002000FM-15+9999ENFR V0202201N01031999991CY0099001N1+00801+00701999999ADDAG12000MA1098921999999REMMET005CAVOKEQDQ01+000000PRSWM2
0058010017999991991022312504+59933+002000FM-15+9999ENFR V0202201N01291999991CY0099001N1+00801+00701999999ADDAG12999MA1098981999999REMMET005CAVOKEQDQ01+000000PRSWM2
0076010017999991991022508504+59933+002000FM-15+9999ENFR V0203301N00101030001CN0112001N1+00701+00501999999ADDAG12000GA1021+007509089GA2041+030009039MA1101591999999EQDQ01+000000PRSWM2
0076010017999991991022511504+59933+002000FM-15+9999ENFR V0200501N00211015001CN0112001N1+00701+00401999999ADDAG12000GA1021+007509089GA2041+015009059MA1101901999999EQDQ01+000000PRSWM2
0060010017999991991022608504+59933+002000FM-15+9999ENFR V0201401N01291220001CN0112001N1+00601+00401999999ADDAG12000GA1031+009009089MA1102301999999EQDQ01+000000PRSWM2
0060010017999991991022609504+59933+002000FM-15+9999ENFR V0201401N01441220001CN0112001N1+00601+00501999999ADDAG12999GA1021+009009089MA1102301999999EQDQ01+000000PRSWM2
0060010017999991991022610504+59933+002000FM-15+9999ENFR V0201501N01441220001CN0112001N1+00701+00501999999ADDAG12999GA1031+009009089MA1102301999999EQDQ01+000000PRSWM2
0060010017999991991022612504+59933+002000FM-15+9999ENFR V0201501N01601220001CN0112001N1+00701+00501999999ADDAG12999GA1031+009009089MA1102301999999EQDQ01+000000PRSWM2
0060010017999991991022707504+59933+002000FM-15+9999ENFR V0201501N02371004501CN0112001N1+00401+00101999999ADDAG12999GA1081+004509059MA1102401999999EQDQ01+000000PRSWM2
0060010017999991991022708504+59933+002000FM-15+9999ENFR V0201501N02371003601CN0112001N1+00301+00101999999ADDAG12000GA1081+003609059MA1102511999999EQDQ01+000000PRSWM2
0060010017999991991022709504+59933+002000FM-15+9999ENFR V0201501N02211004501CN0112001N1+00301+00101999999ADDAG12999GA1081+004509059MA1102511999999EQDQ01+000000PRSWM2
0060010017999991991022710504+59933+002000FM-15+9999ENFR V0201501N02271004501CN0112001N1+00301+00001999999ADDAG12999GA1081+004509059MA1102511999999EQDQ01+000000PRSWM2
0060010017999991991022711504+59933+002000FM-15+9999ENFR V0201501N02061004501CN0112001N1+00301+00001999999ADDAG12000GA1081+004509059MA1102611999999EQDQ01+000000PRSWM2
0060010017999991991022712504+59933+002000FM-15+9999ENFR V0201401N02061004501CN0112001N1+00201-00101999999ADDAG12999GA1081+004509059MA1102511999999EQDQ01+000000PRSWM2
0060010017999991991022713504+59933+002000FM-15+9999ENFR V0201401N02061004501CN0112001N1+00301+00101999999ADDAG12999GA1081+004509059MA1102511999999EQDQ01+000000PRSWM2
0060010017999991991022807504+59933+002000FM-15+9999ENFR V0201401N02061004501CN0112001N1+00201-00201999999ADDAG12999GA1081+004509059MA1102001999999EQDQ01+000000PRSWM2
0060010017999991991022808504+59933+002000FM-15+9999ENFR V0201401N01961004501CN0112001N1+00201-00201999999ADDAG12000GA1081+004509059MA1102001999999EQDQ01+000000PRSWM2
0060010017999991991022809504+59933+002000FM-15+9999ENFR V0201401N01801004501CN0112001N1+00201-00101999999ADDAG12999GA1081+004509059MA1102001999999EQDQ01+000000PRSWM2
0060010017999991991022810504+59933+002000FM-15+9999ENFR V0201301N02321004501CN0112001N1+00201-00101999999ADDAG12999GA1081+004509059MA1102001999999EQDQ01+000000PRSWM2
0060010017999991991022812504+59933+002000FM-15+9999ENFR V0201301N02321004501CN0112001N1+00101-00101999999ADDAG12999GA1081+004509059MA1102001999999EQDQ01+000000PRSWM2
0060010017999991991022816504+59933+002000FM-15+9999ENFR V0201301N01801004501CN0112001N1+00201-00201999999ADDAG12999GA1081+004509059MA1102001999999EQDQ01+000000PRSWM2
0060010017999991991030107504+59933+002000FM-15+9999ENFR V0201201N01801004501CN0112001N1+00301+00201999999ADDAG12999GA1081+004509059MA1101901999999EQDQ01+000000PRSWM2
0060010017999991991030111504+59933+002000FM-15+9999ENFR V0201201N01801004501CN0112001N1+00301+00101999999ADDAG12000GA1081+004509059MA1101801999999EQDQ01+000000PRSWM2
0058010017999991991030410504+59933+002000FM-15+9999ENFR V0202401N00411999991CY0099001N1+00701+00601999999ADDAG12999MA1102101999999REMMET005CAVOKEQDQ01+000000PRSWM2
0058010017999991991030411504+59933+002000FM-15+9999ENFR V0202201N00261999991CY0099001N1+00701+00601999999ADDAG12000MA1102101999999REMMET005CAVOKEQDQ01+000000PRSWM2
0047010017999991991030415504+59933+002000FM-15+9999ENFR V0201301N00511220001CN0080001N1+00701+00601999999ADDAG12999GA1041+001509079MA1102101999999MW1101
0031010017999991991030416504+59933+002000FM-15+9999ENFR V0201201N00771220001CN0080001N1+00701+00601999999ADDAG12999MA1102001999999MW1101
0068010017999991991030507504+59933+002000FM-15+9999ENFR V0201201N02321002401CN0060001N1+00601+00401999999ADDAG12999GA1081+002409059MA1100811999999OC103091EQDQ01+000000PRSWM2
0076010017999991991030508504+59933+002000FM-15+9999ENFR V0201201N03091002401CN0060001N1+00501+00401999999ADDAG12000GA1081+002409059MA1100412999999EQDQ01+029653APOA  Q02+000000PRSWM2
0060010017999991991030509504+59933+002000FM-15+9999ENFR V0201301N03091001801CN0050001N1+00501+00401999999ADDAG12999GA1081+001809059MA1100511999999EQDQ01+000000PRSWM2
0068010017999991991030510504+59933+002000FM-15+9999ENFR V0201301N03091001801CN0050001N1+00501+00401999999ADDAG12999GA1081+001809059MA1100511999999OC103601EQDQ01+000000PRSWM2
0068010017999991991030511504+59933+002000FM-15+9999ENFR V0201301N02571002401CN0060001N1+00601+00401999999ADDAG12000GA1081+002409059MA1100411999999OC103091EQDQ01+000000PRSWM2
0060010017999991991030512504+59933+002000FM-15+9999ENFR V0201301N02831003001CN0060001N1+00601+00401999999ADDAG12999GA1081+003009059MA1100411999999EQDQ01+000000PRSWM2
0060010017999991991030513504+59933+002000FM-15+9999ENFR V0201301N02831003001CN0060001N1+00601+00401999999ADDAG12999GA1081+003009059MA1100311999999EQDQ01+000000PRSWM2
0060010017999991991030514504+59933+002000FM-15+9999ENFR V0201401N02571003001CN0060001N1+00601+00501999999ADDAG12000GA1081+003009059MA1100311999999EQDQ01+000000PRSWM2
0060010017999991991030606504+59933+002000FM-15+9999ENFR V0201301N01801003001CN0060001N1+00601+00501999999ADDAG12999GA1081+003009079MA1100411999999EQDQ01+000000PRSWM2
0047010017999991991030607504+59933+002000FM-15+9999ENFR V0201501N01541002401CN0050001N1+00701+00501999999ADDAG12999GA1081+002409079MA1100511999999MW1101
0047010017999991991030608504+59933+002000FM-15+9999ENFR V0201501N01961002401CN0050001N1+00601+00501999999ADDAG12000GA1081+002409079MA1100511999999MW1101
0047010017999991991030609504+59933+002000FM-15+9999ENFR V0201501N01291002401CN0050001N1+00601+00501999999ADDAG12999GA1091+002409999MA1100511999999MW1101
0076010017999991991030610504+59933+002000FM-15+9999ENFR V0201601N01441002401CN9999999N9+00601+00501999999ADDAG12999GA1081+002409079MA1100511999999EQDQ01+000002VOVAR Q02+000000PRSWM2
0047010017999991991030612504+59933+002000FM-15+9999ENFR V0201501N01541002401CN0040001N1+00601+00501999999ADDAG12999GA1081+002409079MA1100511999999MW1101
0047010017999991991030615504+59933+002000FM-15+9999ENFR V0201401N01441002401CN0050001N1+00501+00501999999ADDAG12999GA1081+002409079MA1100411999999MW1101
0047010017999991991030616504+59933+002000FM-15+9999ENFR V0201501N01291002401CN0050001N1+00501+00401999999ADDAG12999GA1081+002409079MA1100411999999MW1101
0047010017999991991030707504+59933+002000FM-15+9999ENFR V0201201N01031002401CN0060001N1+00501+00401999999ADDAG12999GA1081+002409059MA1100311999999MW1101
0060010017999991991030708504+59933+002000FM-15+9999ENFR V0201201N01291003001CN0080001N1+00501+00401999999ADDAG12000GA1081+003009059MA1100311999999EQDQ01+000000PRSWM2
0060010017999991991030709504+59933+002000FM-15+9999ENFR V0201201N01031003001CN0080001N1+00501+00401999999ADDAG12999GA1081+003009059MA1100311999999EQDQ01+000000PRSWM2
0047010017999991991030810504+59933+002000FM-15+9999ENFR V0201501N01801002101CN0020001N1+00601+00501999999ADDAG12999GA1081+002109079MA1099901999999MW1101
0047010017999991991030811504+59933+002000FM-15+9999ENFR V0201501N01801002101CN0010001N1+00601+00501999999ADDAG12000GA1081+002109079MA1100001999999MW1101
0047010017999991991030812504+59933+002000FM-15+9999ENFR V0201501N01801002101CN0009001N1+00601+00501999999ADDAG12999GA1081+002109079MA1100001999999MW1101
0047010017999991991031110504+59933+002000FM-15+9999ENFR V0201801N00411000301CN0001001N1+00701+00701999999ADDAG12999GA1091+000309999MA1100911999999MW1451
0047010017999991991031111504+59933+002000FM-15+9999ENFR V0201901N00411000301CN0001001N1+00701+00701999999ADDAG12000GA1091+000309999MA1100911999999MW1451
0060010017999991991031203504+59933+002000FM-15+9999ENFR V0209999999999004501CN0112001N1+00501+00401999999ADDAG12999GA1081+004509079MA1101191999999EQDQ01+000000PRSWM2
0060010017999991991031204504+59933+002000FM-15+9999ENFR V0209999999999003001CN0112001N1+00501+00401999999ADDAG11999GA1081+003009079MA1101191999999EQDQ01+000000PRSWM2
0060010017999991991031515504+59933+002000FM-15+9999ENFR V0201501N00261007501CN0112001N1+00701+00601999999ADDAG12999GA1081+007509079MA1100611999999EQDQ01+000000PRSWM2
0066010017999991991031620504+59933+002000FM-15+9999ENFR V0201701N01291000301CN9999999N9+00701+00701999999ADDAG12000GA1091+000309999MA1100001999999MW1471EQDQ01+000002VOVAR 
0047010017999991991031707504+59933+002000FM-15+9999ENFR V0201401N01541000301CN0003001N1+00601+00601999999ADDAG12999GA1091+000309999MA1099901999999MW1451
0047010017999991991031708504+59933+002000FM-15+9999ENFR V0201401N01751000901CN0007001N1+00601+00601999999ADDAG12000GA1091+000909999MA1099901999999MW1431
0047010017999991991031709504+59933+002000FM-15+9999ENFR V0201301N01851000901CN0007001N1+00601+00501999999ADDAG12999GA1091+000909999MA1099801999999MW1451
0047010017999991991031711504+59933+002000FM-15+9999ENFR V0201401N01961001201CN0007001N1+00601+00601999999ADDAG12000GA1091+001209999MA1099801999999MW1451
0081010017999991991031807504+59933+002000FM-15+9999ENFR V0202101N00771007501CN0090001N1+99999+99999999999ADDAG12999GA1061+007509059MA1100711999999REMMET012RJCT40  3702EQDQ01+000000PRSWM2
0060010017999991991031808504+59933+002000FM-15+9999ENFR V0202001N00771007501CN0112001N1+00701+00601999999ADDAG12000GA1081+007509079MA1100811999999EQDQ01+000000PRSWM2
0060010017999991991031809504+59933+002000FM-15+9999ENFR V0202001N00721009001CN0112001N1+00701+00701999999ADDAG12999GA1081+009009079MA1100811999999EQDQ01+000000PRSWM2
0047010017999991991031909004+59933+002000FM-15+9999ENFR V0209999999999003001CN0050001N1+00701+00601999999ADDAG12007GA1081+003009079MA1098101999999MW1621
0047010017999991991031909504+59933+002000FM-15+9999ENFR V0202201N01291001201CN0040001N1+00701+00601999999ADDAG12999GA1081+001209079MA1098211999999MW1621
0047010017999991991031910504+59933+002000FM-15+9999ENFR V0202201N01541001501CN0040001N1+00701+00601999999ADDAG12999GA1081+001509079MA1098311999999MW1621
0060010017999991991032008504+59933+002000FM-15+9999ENFR V0202501N01031009001CN0112001N1+00701+00601999999ADDAG12000GA1071+009009079MA1099901999999EQDQ01+000000PRSWM2
0060010017999991991032009504+59933+002000FM-15+9999ENFR V0202401N01291009001CN0112001N1+00701+00601999999ADDAG12999GA1071+009009079MA1100001999999EQDQ01+000000PRSWM2
0047010017999991991032107504+59933+002000FM-15+9999ENFR V0201501N00721002101CN0040001N1+00601+00401999999ADDAG12999GA1081+002109079MA1098981999999MW1601
0047010017999991991032109504+59933+002000FM-15+9999ENFR V0201501N00261002101CN0050001N1+00601+00301999999ADDAG12999GA1081+002109079MA1098981999999MW1601
0060010017999991991032113504+59933+002000FM-15+9999ENFR V0203201N01031009001CN0112001N1+00701+00501999999ADDAG12999GA1061+009009059MA1099091999999EQDQ01+000000PRSWM2
0047010017999991991032209504+59933+002000FM-15+9999ENFR V0203201N00881007501CN0112001N1+00401+00301999999ADDAG12999GA1061+007509059MA1099801999999MW1801
0060010017999991991032210504+59933+002000FM-15+9999ENFR V0203201N00671220001CN0112001N1+00501+00301999999ADDAG12999GA1041+007509089MA1099801999999EQDQ01+000000PRSWM2
0060010017999991991032308504+59933+002000FM-15+9999ENFR V0200101N00771012001CN0112001N1+00701+00301999999ADDAG12000GA1071+012009059MA1100811999999EQDQ01+000000PRSWM2
0060010017999991991032312504+59933+002000FM-15+9999ENFR V0200401N00621012001CN0112001N1+00701+00501999999ADDAG12999GA1061+012009059MA1101021999999EQDQ01+000000PRSWM2
0058010017999991991032506504+59933+002000FM-15+9999ENFR V0202401N00311999991CY0099001N1+00701+00501999999ADDAG12999MA1103291999999REMMET005CAVOKEQDQ01+000000PRSWM2
0058010017999991991032510504+59933+002000FM-15+9999ENFR V0202001N00411999991CY0099001N1+00801+00601999999ADDAG12999MA1103491999999REMMET005CAVOKEQDQ01+000000PRSWM2
0058010017999991991032514504+59933+002000FM-15+9999ENFR V0202001N00411999991CY0099001N1+00801+00601999999ADDAG12000MA1103591999999REMMET005CAVOKEQDQ01+000000PRSWM2
0090010017999991991032606504+59933+002000FM-15+9999ENFR V0201701N00411999991CY0099001N1+00701+00601999999ADDAG10999MA1103591999999REMMET037CAVOK DIST FG PATCHES TO     ?     SEEQDQ01+000000PRSWM2
0058010017999991991032610504+59933+002000FM-15+9999ENFR V0201801N00511999991CY0099001N1+00701+00601999999ADDAG12999MA1103491999999REMMET005CAVOKEQDQ01+000000PRSWM2
0058010017999991991032611504+59933+002000FM-15+9999ENFR V0201701N00411999991CY0099001N1+00801+00601999999ADDAG12000MA1103491999999REMMET005CAVOKEQDQ01+000000PRSWM2
0058010017999991991032612504+59933+002000FM-15+9999ENFR V0201701N00411999991CY0099001N1+00901+00701999999ADDAG12999MA1103491999999REMMET005CAVOKEQDQ01+000000PRSWM2
0060010017999991991032706504+59933+002000FM-15+9999ENFR V0202001N00621010501CN0112001N1+00701+00601999999ADDAG12999GA1061+010509059MA1103011999999EQDQ01+000000PRSWM2
0076010017999991991032707504+59933+002000FM-15+9999ENFR V0202001N00771018001CN0112001N1+00701+00601999999ADDAG12999GA1041+010509059GA2051+018009039MA1103011999999EQDQ01+000000PRSWM2
0058010017999991991032711504+59933+002000FM-15+9999ENFR V0202101N00771999991CY0099001N1+00701+00601999999ADDAG12000MA1103011999999REMMET005CAVOKEQDQ01+000000PRSWM2
0058010017999991991032712504+59933+002000FM-15+9999ENFR V0202101N00621999991CY0099001N1+00701+00601999999ADDAG12999MA1103011999999REMMET005CAVOKEQDQ01+000000PRSWM2
0058010017999991991032713504+59933+002000FM-15+9999ENFR V0202001N00771999991CY0099001N1+00701+00601999999ADDAG12999MA1102911999999REMMET005CAVOKEQDQ01+000000PRSWM2
0058010017999991991032807504+59933+002000FM-15+9999ENFR V0203501N00771999991CY0099001N1+00801+00601999999ADDAG12999MA1103591999999REMMET005CAVOKEQDQ01+000000PRSWM2
0058010017999991991032808504+59933+002000FM-15+9999ENFR V0203401N00621999991CY0099001N1+00801+00601999999ADDAG12000MA1103591999999REMMET005CAVOKEQDQ01+000000PRSWM2
0058010017999991991032809504+59933+002000FM-15+9999ENFR V0203401N00621999991CY0099001N1+00801+00601999999ADDAG12999MA1103691999999REMMET005CAVOKEQDQ01+000000PRSWM2
0058010017999991991032810504+59933+002000FM-15+9999ENFR V0203401N00771999991CY0099001N1+00801+00601999999ADDAG12999MA1103691999999REMMET005CAVOKEQDQ01+000000PRSWM2
0060010017999991991032911504+59933+002000FM-15+9999ENFR V0202001N01291220001CN0112001N1+00601+00501999999ADDAG12000GA1041+007509089MA1103121999999EQDQ01+000000PRSWM2
0060010017999991991032912504+59933+002000FM-15+9999ENFR V0202001N01441220001CN0112001N1+00601+00601999999ADDAG12999GA1041+006009089MA1102911999999EQDQ01+000000PRSWM2
0060010017999991991033012504+59933+002000FM-15+9999ENFR V0203101N01291004501CN0112001N1+00301-00101999999ADDAG12999GA1061+004509089MA1102511999999EQDQ01+000000PRSWM2
0060010017999991991033013504+59933+002000FM-15+9999ENFR V0203101N01291006001CN0112001N1+00401-00201999999ADDAG12999GA1061+006009059MA1102511999999EQDQ01+000000PRSWM2
0076010017999991991040106504+59933+002000FM-15+9999ENFR V0202201N01241007501CN9999999N9+00701+00701999999ADDAG12999GA1081+007509079MA1099591999999EQDQ01+000002VOVAR Q02+000000PRSWM2
0060010017999991991040107504+59933+002000FM-15+9999ENFR V0202101N01341007501CN0112001N1+00701+00501999999ADDAG12999GA1061+007509079MA1099391999999EQDQ01+000000PRSWM2
0060010017999991991040108504+59933+002000FM-15+9999ENFR V0202001N01391007501CN0112001N1+00801+00501999999ADDAG12000GA1081+007509079MA1099291999999EQDQ01+000000PRSWM2
0047010017999991991040111504+59933+002000FM-15+9999ENFR V0202001N01391004501CN0050001N1+00701+00501999999ADDAG12019GA1081+004509079MA1098821999999MW1631
0076010017999991991040206504+59933+002000FM-15+9999ENFR V0202101N01181042001CN0112001N1+00801+00701999999ADDAG12999GA1011+012009059GA2061+042009049MA1098101999999EQDQ01+000000PRSWM2
0076010017999991991040207504+59933+002000FM-15+9999ENFR V0202201N01341042001CN0112001N1+00801+00701999999ADDAG12999GA1041+009009059GA2061+042009049MA1098101999999EQDQ01+000000PRSWM2
0047010017999991991040211504+59933+002000FM-15+9999ENFR V0201901N01241006001CN0090001N1+00801+00701999999ADDAG12000GA1081+006009079MA1098711999999MW1101
0066010017999991991040212504+59933+002000FM-15+9999ENFR V0202001N01291006001CN0090001N1+00801+00601999999ADDAG12999GA1081+006009079MA1097802999999MW1101EQDQ01+028883APOA  
0076010017999991991040306504+59933+002000FM-15+9999ENFR V0202301N01441012001CN0112001N1+00701+00501999999ADDAG12999GA1041+006009089GA2061+012009059MA1098311999999EQDQ01+000000PRSWM2
0060010017999991991040310504+59933+002000FM-15+9999ENFR V0202401N00671009001CN0112001N1+00601+00501999999ADDAG12999GA1051+009009059MA1098611999999EQDQ01+000000PRSWM2
0081010017999991991040315504+59933+002000FM-15+9999ENFR V0202301N00621009001CN0112001N1+99999+99999999999ADDAG12999GA1051+009009059MA1098981999999REMMET012RJCT40  2802EQDQ01+000000PRSWM2
0060010017999991991040405504+59933+002000FM-15+9999ENFR V0201901N01181220001CN0112001N1+00701+00601999999ADDAG12000GA1041+009009089MA1098981999999EQDQ01+000000PRSWM2
0060010017999991991040408504+59933+002000FM-15+9999ENFR V0201701N01291220001CN0112001N1+00701+00601999999ADDAG12000GA1031+009009089MA1098981999999EQDQ01+000000PRSWM2
0060010017999991991040409504+59933+002000FM-15+9999ENFR V0201601N01441220001CN0112001N1+00701+00601999999ADDAG12999GA1041+010509089MA1098981999999EQDQ01+000000PRSWM2
0060010017999991991040410504+59933+002000FM-15+9999ENFR V0201601N01651220001CN0112001N1+00801+00601999999ADDAG12999GA1041+010509089MA1098981999999EQDQ01+000000PRSWM2
0060010017999991991040412504+59933+002000FM-15+9999ENFR V0201601N01801009001CN0112001N1+00801+00601999999ADDAG12999GA1061+009009089MA1098981999999EQDQ01+000000PRSWM2
0047010017999991991040506504+59933+002000FM-15+9999ENFR V0201401N01961006001CN0090001N1+00701+00701999999ADDAG12999GA1081+006009079MA1098821999999MW1101
0047010017999991991040507504+59933+002000FM-15+9999ENFR V0201501N01801006001CN0090001N1+00701+00701999999ADDAG12999GA1081+006009079MA1098921999999MW1101
0047010017999991991040510504+59933+002000FM-15+9999ENFR V0201401N01651003001CN0090001N1+00701+00701999999ADDAG12999GA1081+003009079MA1098981999999MW1101
0047010017999991991040511504+59933+002000FM-15+9999ENFR V0201501N01541004501CN0090001N1+00701+00701999999ADDAG12000GA1081+004509079MA1099091999999MW1101
0047010017999991991040710504+59933+002000FM-15+9999ENFR V0201601N01701004501CN0090001N1+00701+00701999999ADDAG12999GA1081+004509079MA1099091999999MW1101
0047010017999991991040712504+59933+002000FM-15+9999ENFR V0201601N01801004501CN0090001N1+00701+00701999999ADDAG12999GA1081+004509079MA1099091999999MW1101
0047010017999991991040713504+59933+002000FM-15+9999ENFR V0201701N01751004501CN0090001N1+00801+00701999999ADDAG12999GA1081+004509079MA1099091999999MW1101
0076010017999991991040806504+59933+002000FM-15+9999ENFR V0202401N01491009001CN0112001N1+00701+00401999999ADDAG12999GA1021+006009089GA2071+009009059MA1099901999999EQDQ01+000000PRSWM2
0092010017999991991040906504+59933+002000FM-15+9999ENFR V0202101N00981036001CN0112001N1+00701+00601999999ADDAG12999GA1021+009009089GA2041+036009999GA3071+048009049MA1101591999999EQDQ01+000000PRSWM2
0060010017999991991040912504+59933+002000FM-15+9999ENFR V0201701N01541220001CN0112001N1+00801+00701999999ADDAG12999GA1041+004509089MA1101391999999EQDQ01+000000PRSWM2
0060010017999991991040913504+59933+002000FM-15+9999ENFR V0201701N01541004501CN0112001N1+00801+00701999999ADDAG12999GA1061+004509059MA1101291999999EQDQ01+000000PRSWM2
0060010017999991991041004504+59933+002000FM-15+9999ENFR V0202001N01031001501CN0040001N1+00701+00701999999ADDAG12999GA1081+001509079MA1101291999999EQDQ01+000000PRSWM2
0060010017999991991041006504+59933+002000FM-15+9999ENFR V0201701N01031002401CN0060001N1+00801+00701999999ADDAG12999GA1081+002409079MA1101291999999EQDQ01+000000PRSWM2
0060010017999991991041007504+59933+002000FM-15+9999ENFR V0201801N01031002401CN0050001N1+00801+00701999999ADDAG12999GA1081+002409079MA1101291999999EQDQ01+000000PRSWM2
0060010017999991991041009504+59933+002000FM-15+9999ENFR V0201801N01291003001CN0050001N1+00801+00701999999ADDAG12999GA1081+003009079MA1101291999999EQDQ01+000000PRSWM2
0060010017999991991041014504+59933+002000FM-15+9999ENFR V0201701N01541002401CN0040001N1+00801+00601999999ADDAG12000GA1081+002409079MA1101291999999EQDQ01+000000PRSWM2
0060010017999991991041015504+59933+002000FM-15+9999ENFR V0201701N01801002401CN0050001N1+00801+00601999999ADDAG12999GA1081+002409079MA1101291999999EQDQ01+000000PRSWM2
0060010017999991991041016504+59933+002000FM-15+9999ENFR V0201701N01801002401CN0040001N1+00801+00701999999ADDAG12999GA1081+002409079MA1101291999999EQDQ01+000000PRSWM2
0060010017999991991041106504+59933+002000FM-15+9999ENFR V0201601N02061002401CN0050001N1+00901+00801999999ADDAG12999GA1081+002409079MA1101021999999EQDQ01+000000PRSWM2
0060010017999991991041107504+59933+002000FM-15+9999ENFR V0201501N02061002401CN0040001N1+00901+00801999999ADDAG12999GA1081+002409079MA1100911999999EQDQ01+000000PRSWM2
0060010017999991991041108504+59933+002000FM-15+9999ENFR V0201501N02061002401CN0040001N1+00901+00801999999ADDAG12000GA1081+002409079MA1100911999999EQDQ01+000000PRSWM2
0060010017999991991041109504+59933+002000FM-15+9999ENFR V0201601N02061002401CN0050001N1+00901+00801999999ADDAG12999GA1081+002409079MA1100911999999EQDQ01+000000PRSWM2
0047010017999991991041111504+59933+002000FM-15+9999ENFR V0201601N02321003001CN0020001N1+00901+00801999999ADDAG12000GA1081+003009079MA1100911999999MW1101
0060010017999991991041205504+59933+002000FM-15+9999ENFR V0202101N01291007501CN0112001N1+00801+00701999999ADDAG12000GA1071+007509059MA1101291999999EQDQ01+000000PRSWM2
0060010017999991991041210504+59933+002000FM-15+9999ENFR V0202101N00411007501CN0112001N1+00801+00701999999ADDAG12999GA1071+007509059MA1101691999999EQDQ01+000000PRSWM2
0060010017999991991041509504+59933+002000FM-15+9999ENFR V0203001N00771004501CN0112001N1+00801+00501999999ADDAG12999GA1061+004509089MA1103011999999EQDQ01+000000PRSWM2
0060010017999991991041510504+59933+002000FM-15+9999ENFR V0203001N01031004501CN0112001N1+00701+00501999999ADDAG12999GA1061+004509089MA1103011999999EQDQ01+000000PRSWM2
0060010017999991991041514504+59933+002000FM-15+9999ENFR V0203001N01291007501CN0112001N1+00801+00401999999ADDAG12000GA1051+007509089MA1102911999999EQDQ01+000000PRSWM2
0060010017999991991041515504+59933+002000FM-15+9999ENFR V0203001N01291006001CN0112001N1+00801+00401999999ADDAG12999GA1051+006009089MA1102811999999EQDQ01+000000PRSWM2
0060010017999991991041607504+59933+002000FM-15+9999ENFR V0203301N02321004501CN0112001N1+00301-00301999999ADDAG12999GA1071+004509089MA1102611999999EQDQ01+000000PRSWM2
0060010017999991991041608504+59933+002000FM-15+9999ENFR V0203301N02321004501CN0112001N1+00301-00101999999ADDAG12000GA1061+004509089MA1102611999999EQDQ01+000000PRSWM2
0060010017999991991041612504+59933+002000FM-15+9999ENFR V0203401N02571004501CN0112001N1+00501-00101999999ADDAG12999GA1071+004509089MA1102611999999EQDQ01+000000PRSWM2
0060010017999991991041614504+59933+002000FM-15+9999ENFR V0203401N02321004501CN0112001N1+00501+00101999999ADDAG12000GA1071+004509089MA1102611999999EQDQ01+000000PRSWM2
0060010017999991991041707504+59933+002000FM-15+9999ENFR V0203401N01541004501CN0112001N1+00301-00101999999ADDAG12999GA1071+004509089MA1102711999999EQDQ01+000000PRSWM2
0060010017999991991041708504+59933+002000FM-15+9999ENFR V0203301N01541004501CN0112001N1+00301+00101999999ADDAG12000GA1071+004509089MA1102611999999EQDQ01+000000PRSWM2
0060010017999991991041714504+59933+002000FM-15+9999ENFR V0203201N01291004501CN0112001N1+00401-00101999999ADDAG12000GA1061+004509089MA1102301999999EQDQ01+000000PRSWM2
0060010017999991991041806504+59933+002000FM-15+9999ENFR V0201301N01031004501CN0112001N1+00301+00301999999ADDAG12999GA1081+004509059MA1100711999999EQDQ01+000000PRSWM2
0060010017999991991041808504+59933+002000FM-15+9999ENFR V0201001N01031004501CN0112001N1+00301+00201999999ADDAG12000GA1081+004509059MA1100811999999EQDQ01+000000PRSWM2
0060010017999991991041911504+59933+002000FM-15+9999ENFR V0200101N01031007501CN0112001N1+00401-00101999999ADDAG12000GA1071+007509089MA1102001999999EQDQ01+000000PRSWM2
0060010017999991991041912504+59933+002000FM-15+9999ENFR V0200101N01291012001CN0112001N1+00401-00201999999ADDAG12999GA1051+012009089MA1102001999999EQDQ01+000000PRSWM2
0060010017999991991042205504+59933+002000FM-15+9999ENFR V0203201N01961002101CN0112001N1+00501+00201999999ADDAG12000GA1061+002109059MA1100711999999EQDQ01+000000PRSWM2
0060010017999991991042206504+59933+002000FM-15+9999ENFR V0203201N01961220001CN0112001N1+00501+00301999999ADDAG12999GA1021+001809059MA1100811999999EQDQ01+000000PRSWM2
0060010017999991991042207504+59933+002000FM-15+9999ENFR V0203201N02061001801CN0112001N1+00501+00301999999ADDAG12999GA1071+001809059MA1100811999999EQDQ01+000000PRSWM2
0060010017999991991042208504+59933+002000FM-15+9999ENFR V0203401N02161001201CN0080001N1+00501+00301999999ADDAG12000GA1081+001209079MA1100811999999EQDQ01+000000PRSWM2
0060010017999991991042209504+59933+002000FM-15+9999ENFR V0203401N02161001801CN0080001N1+00601+00401999999ADDAG12999GA1061+001809059MA1100911999999EQDQ01+000000PRSWM2
0076010017999991991042210504+59933+002000FM-15+9999ENFR V0203401N01901002101CN0060001N1+00601+00401999999ADDAG12999GA1031+001209079GA2081+002109059MA1101021999999EQDQ01+000000PRSWM2
0058010017999991991042305504+59933+002000FM-15+9999ENFR V0202301N00361999991CY0099001N1+00501+00201999999ADDAG12000MA1101801999999REMMET005CAVOKEQDQ01+000000PRSWM2
0058010017999991991042306504+59933+002000FM-15+9999ENFR V0202001N00511999991CY0099001N1+00601+00201999999ADDAG12999MA1101801999999REMMET005CAVOKEQDQ01+000000PRSWM2
0060010017999991991042307504+59933+002000FM-15+9999ENFR V0202001N00671220001CN0112001N1+00601+00201999999ADDAG12999GA1031+006009079MA1101801999999EQDQ01+000000PRSWM2
0081010017999991991042308504+59933+002000FM-15+9999ENFR V0209999999999220001CN0112001N1+00601+00201999999ADDAG12000GA1031+006009059MA1101901999999REMMET012RJCT42  0514EQDQ01+000000PRSWM2
0081010017999991991042309504+59933+002000FM-15+9999ENFR V0209999999999220001CN0112001N1+00601+00201999999ADDAG12999GA1031+003009089MA1101901999999REMMET012RJCT42  0516EQDQ01+000000PRSWM2
0060010017999991991042310504+59933+002000FM-15+9999ENFR V0202001N00881220001CN0112001N1+00601+00301999999ADDAG12999GA1041+003609059MA1101901999999EQDQ01+000000PRSWM2
0060010017999991991042311504+59933+002000FM-15+9999ENFR V0201901N00881220001CN0112001N1+00601+00301999999ADDAG12000GA1041+006009089MA1101901999999EQDQ01+000000PRSWM2
0060010017999991991042312504+59933+002000FM-15+9999ENFR V0201901N01031220001CN0112001N1+00601+00201999999ADDAG12999GA1031+006009089MA1101901999999EQDQ01+000000PRSWM2
0076010017999991991042405504+59933+002000FM-15+9999ENFR V0201701N01541003601CN0112001N1+00701+00601999999ADDAG12000GA1041+001209079GA2081+003609059MA1101691999999EQDQ01+000000PRSWM2
0076010017999991991042406504+59933+002000FM-15+9999ENFR V0201701N01541004501CN0112001N1+00701+00601999999ADDAG12999GA1031+001209079GA2081+004509059MA1101691999999EQDQ01+000000PRSWM2
0076010017999991991042407504+59933+002000FM-15+9999ENFR V0201701N01541004501CN0112001N1+00701+00501999999ADDAG12999GA1031+001209079GA2081+004509059MA1101691999999EQDQ01+000000PRSWM2
0076010017999991991042408504+59933+002000FM-15+9999ENFR V0201701N01541003001CN0112001N1+00701+00501999999ADDAG12000GA1031+001209079GA2081+003009059MA1101691999999EQDQ01+000000PRSWM2
0076010017999991991042411504+59933+002000FM-15+9999ENFR V0201601N01801001201CN0112001N1+00701+00501999999ADDAG12000GA1051+001209079GA2081+003009059MA1101801999999EQDQ01+000000PRSWM2
0081010017999991991042506504+59933+002000FM-15+9999ENFR V0209999999999220001CN0112001N1+00601+00301999999ADDAG12999GA1041+012009089MA1101901999999REMMET012RJCT42  0521EQDQ01+000000PRSWM2
0081010017999991991042508504+59933+002000FM-15+9999ENFR V0209999999999220001CN0112001N1+00701+00301999999ADDAG12000GA1031+009009089MA1102001999999REMMET012RJCT42  0517EQDQ01+000000PRSWM2
0060010017999991991042509504+59933+002000FM-15+9999ENFR V0201601N01031220001CN0112001N1+00801+00401999999ADDAG12999GA1031+006009089MA1102001999999EQDQ01+000000PRSWM2
0058010017999991991042608504+59933+002000FM-15+9999ENFR V0201701N00411999991CY0099001N1+00801+00601999999ADDAG12000MA1102301999999REMMET005CAVOKEQDQ01+000000PRSWM2
0058010017999991991042609504+59933+002000FM-15+9999ENFR V0201701N00411999991CY0099001N1+00801+00601999999ADDAG12999MA1102301999999REMMET005CAVOKEQDQ01+000000PRSWM2
0058010017999991991042610504+59933+002000FM-15+9999ENFR V0201601N00411999991CY0099001N1+00801+00601999999ADDAG12999MA1102301999999REMMET005CAVOKEQDQ01+000000PRSWM2
0058010017999991991042611504+59933+002000FM-15+9999ENFR V0201601N00261999991CY0099001N1+00901+00601999999ADDAG12000MA1102301999999REMMET005CAVOKEQDQ01+000000PRSWM2
0058010017999991991042905504+59933+002000FM-15+9999ENFR V0201201N00931999991CY0099001N1+00901+00501999999ADDAG12000MA1102511999999REMMET005CAVOKEQDQ01+000000PRSWM2
0058010017999991991042906504+59933+002000FM-15+9999ENFR V0201201N00931999991CY0099001N1+00901+00501999999ADDAG12999MA1102511999999REMMET005CAVOKEQDQ01+000000PRSWM2
0058010017999991991042907504+59933+002000FM-15+9999ENFR V0201201N01031999991CY0099001N1+00901+00501999999ADDAG12999MA1102511999999REMMET005CAVOKEQDQ01+000000PRSWM2
0058010017999991991042909504+59933+002000FM-15+9999ENFR V0201201N01031999991CY0099001N1+00901+00501999999ADDAG12999MA1102611999999REMMET005CAVOKEQDQ01+000000PRSWM2
0058010017999991991042912504+59933+002000FM-15+9999ENFR V0201301N01031999991CY0099001N1+00901+00401999999ADDAG12999MA1102611999999REMMET005CAVOKEQDQ01+000000PRSWM2
0058010017999991991042913504+59933+002000FM-15+9999ENFR V0201501N00931999991CY0099001N1+01001+00301999999ADDAG12999MA1102611999999REMMET005CAVOKEQDQ01+000000PRSWM2
0058010017999991991042914504+59933+002000FM-15+9999ENFR V0201501N00621999991CY0099001N1+01001+00301999999ADDAG12000MA1102611999999REMMET005CAVOKEQDQ01+000000PRSWM2
0058010017999991991043007504+59933+002000FM-15+9999ENFR V0201101N00511999991CY0099001N1+00901+00501999999ADDAG12999MA1102611999999REMMET005CAVOKEQDQ01+000000PRSWM2
0058010017999991991043008504+59933+002000FM-15+9999ENFR V0200901N00411999991CY0099001N1+00901+00601999999ADDAG12000MA1102611999999REMMET005CAVOKEQDQ01+000000PRSWM2
0058010017999991991043009504+59933+002000FM-15+9999ENFR V0200901N00311999991CY0099001N1+00901+00601999999ADDAG12999MA1102611999999REMMET005CAVOKEQDQ01+000000PRSWM2
0060010017999991991050105504+59933+002000FM-15+9999ENFR V0203601N01031007501CN0112001N1+00801+00701999999ADDAG12000GA1061+007509089MA1102611999999EQDQ01+000000PRSWM2
0060010017999991991050106504+59933+002000FM-15+9999ENFR V0201601N01541009001CN0112001N1+00801+00701999999ADDAG12999GA1061+009009089MA1102611999999EQDQ01+000000PRSWM2
0060010017999991991050107504+59933+002000FM-15+9999ENFR V0203501N01291009001CN0112001N1+00801+00701999999ADDAG12999GA1061+009009089MA1102611999999EQDQ01+000000PRSWM2
0060010017999991991050205504+59933+002000FM-15+9999ENFR V0203301N01441006001CN0112001N1+00601+00501999999ADDAG12000GA1061+006009089MA1102201999999EQDQ01+000000PRSWM2
0060010017999991991050206504+59933+002000FM-15+9999ENFR V0203301N01291006001CN0112001N1+00701+00401999999ADDAG12999GA1061+006009089MA1102201999999EQDQ01+000000PRSWM2
0060010017999991991050207504+59933+002000FM-15+9999ENFR V0203301N01541007501CN0112001N1+00701+00401999999ADDAG12999GA1061+007509089MA1102201999999EQDQ01+000000PRSWM2
0060010017999991991050307504+59933+002000FM-15+9999ENFR V0203601N00411007501CN0112001N1+00601+00301999999ADDAG12999GA1061+007509089MA1102301999999EQDQ01+000000PRSWM2
0060010017999991991050308504+59933+002000FM-15+9999ENFR V0203501N00771009001CN0112001N1+00601+00301999999ADDAG12000GA1061+009009089MA1102301999999EQDQ01+000000PRSWM2
0058010017999991991050309504+59933+002000FM-15+9999ENFR V0203501N00621999991CY0099001N1+00701+00201999999ADDAG12999MA1102301999999REMMET005CAVOKEQDQ01+000000PRSWM2
0060010017999991991050310504+59933+002000FM-15+9999ENFR V0203501N00721007501CN0112001N1+00701+00301999999ADDAG12999GA1081+007509059MA1102201999999EQDQ01+000000PRSWM2
0060010017999991991050605504+59933+002000FM-15+9999ENFR V0203501N01031220001CN0112001N1+00601+00401999999ADDAG12000GA1031+012009089MA1101491999999EQDQ01+000000PRSWM2
0060010017999991991050606504+59933+002000FM-15+9999ENFR V0203501N00821220001CN0112001N1+00701+00301999999ADDAG12999GA1041+012009089MA1101491999999EQDQ01+000000PRSWM2
0060010017999991991050607504+59933+002000FM-15+9999ENFR V0203501N00771220001CN0112001N1+00701+00301999999ADDAG12999GA1041+012009089MA1101491999999EQDQ01+000000PRSWM2
0060010017999991991050608504+59933+002000FM-15+9999ENFR V0203501N00511220001CN0112001N1+00801+00401999999ADDAG12000GA1041+012009089MA1101491999999EQDQ01+000000PRSWM2
0060010017999991991050609504+59933+002000FM-15+9999ENFR V0203501N00411006001CN0112001N1+00801+00401999999ADDAG12999GA1071+006009059MA1101491999999EQDQ01+000000PRSWM2
0060010017999991991050610504+59933+002000FM-15+9999ENFR V0209999999999007501CN0112001N1+00701+00301999999ADDAG12999GA1081+007509079MA1101491999999EQDQ01+000000PRSWM2
0060010017999991991050706504+59933+002000FM-15+9999ENFR V0203301N00411004501CN0112001N1+00701+00401999999ADDAG12999GA1061+004509089MA1101691999999EQDQ01+000000PRSWM2
0076010017999991991050707504+59933+002000FM-15+9999ENFR V0203301N00411009001CN0112001N1+00801+00501999999ADDAG12999GA1031+004509089GA2061+009009059MA1101691999999EQDQ01+000000PRSWM2
0060010017999991991050709504+59933+002000FM-15+9999ENFR V0203301N00411007501CN0112001N1+00801+00401999999ADDAG12999GA1061+007509059MA1101801999999EQDQ01+000000PRSWM2
0060010017999991991050712504+59933+002000FM-15+9999ENFR V0203201N00411009001CN0112001N1+00801+00201999999ADDAG12999GA1061+009009059MA1101801999999EQDQ01+000000PRSWM2
0060010017999991991050805504+59933+002000FM-15+9999ENFR V0203401N00411003001CN0112001N1+00701+00501999999ADDAG12000GA1081+003009059MA1101801999999EQDQ01+000000PRSWM2
0076010017999991991050810504+59933+002000FM-15+9999ENFR V0202701N00211005401CN0112001N1+00801+00601999999ADDAG12999GA1041+003009079GA2081+005409059MA1101801999999EQDQ01+000000PRSWM2
0076010017999991991050906504+59933+002000FM-15+9999ENFR V0201901N01031005401CN0112001N1+00801+00701999999ADDAG12999GA1031+001809079GA2081+005409079MA1101491999999EQDQ01+000000PRSWM2
0076010017999991991050907504+59933+002000FM-15+9999ENFR V0201901N01131006001CN0112001N1+00801+00701999999ADDAG12999GA1031+001809079GA2081+006009059MA1101491999999EQDQ01+000000PRSWM2
0076010017999991991050909504+59933+002000FM-15+9999ENFR V0202101N00931001501CN0112001N1+00801+00801999999ADDAG12999GA1061+001509079GA2081+003009079MA1101491999999EQDQ01+000000PRSWM2
0063010017999991991050911504+59933+002000FM-15+9999ENFR V0202201N00721001501CN0050001N1+00801+00801999999ADDAG12000GA1031+000909079GA2061+001509079MA1101591999999MW1101
0079010017999991991050912504+59933+002000FM-15+9999ENFR V0202201N00721002401CN0050001N1+00801+00801999999ADDAG12999GA1041+000909079GA2061+002409079GA3081+003009079MA1101591999999MW1101
0060010017999991991051005504+59933+002000FM-15+9999ENFR V0202201N00821009001CN0112001N1+00801+00701999999ADDAG12000GA1061+009009089MA1101491999999EQDQ01+000000PRSWM2
0076010017999991991051007504+59933+002000FM-15+9999ENFR V0202401N00931006001CN0112001N1+00801+00701999999ADDAG12999GA1031+001809079GA2081+006009059MA1101491999999EQDQ01+000000PRSWM2
0076010017999991991051008504+59933+002000FM-15+9999ENFR V0202301N00771004501CN0112001N1+00801+00301999999ADDAG12000GA1041+002409079GA2071+004509079MA1101491999999EQDQ01+000000PRSWM2
0058010017999991991051015504+59933+002000FM-15+9999ENFR V0202101N00931999991CY0099001N1+00801+00601999999ADDAG12999MA1101081999999REMMET005CAVOKEQDQ01+000000PRSWM2
0076010017999991991051308504+59933+002000FM-15+9999ENFR V0202601N00771036001CN0112001N1+00801+00701999999ADDAG12000GA1041+009009059GA2061+036009039MA1101391999999EQDQ01+000000PRSWM2
0076010017999991991051309504+59933+002000FM-15+9999ENFR V0202701N01031036001CN0112001N1+00801+00701999999ADDAG12999GA1041+009009059GA2061+036009039MA1101391999999EQDQ01+000000PRSWM2
0076010017999991991051312504+59933+002000FM-15+9999ENFR V0202701N00981036001CN0112001N1+00801+00701999999ADDAG12999GA1021+009009089GA2041+036009039MA1101491999999EQDQ01+000000PRSWM2
0076010017999991991051313504+59933+002000FM-15+9999ENFR V0202601N00881036001CN0112001N1+00801+00701999999ADDAG12999GA1021+009009089GA2051+036009039MA1101491999999EQDQ01+000000PRSWM2
0076010017999991991051406504+59933+002000FM-15+9999ENFR V0202901N01181015001CN0112001N1+00701+00501999999ADDAG12999GA1031+009009089GA2051+015009059MA1101901999999EQDQ01+000000PRSWM2
0076010017999991991051407504+59933+002000FM-15+9999ENFR V0203101N01541012001CN0112001N1+00701+00301999999ADDAG12999GA1031+006009089GA2041+012009059MA1101901999999EQDQ01+000000PRSWM2
0060010017999991991051411504+59933+002000FM-15+9999ENFR V0203201N01181220001CN0112001N1+00601+00401999999ADDAG12000GA1041+006009089MA1102101999999EQDQ01+000000PRSWM2
0060010017999991991051413504+59933+002000FM-15+9999ENFR V0203201N01541220001CN0112001N1+00701+00401999999ADDAG12999GA1031+006009089MA1102201999999EQDQ01+000000PRSWM2
0076010017999991991051506504+59933+002000FM-15+9999ENFR V0203301N01031048001CN0112001N1+00701+00301999999ADDAG12999GA1021+007509089GA2051+048009039MA1102101999999EQDQ01+000000PRSWM2
0076010017999991991051507504+59933+002000FM-15+9999ENFR V0203501N01081048001CN0112001N1+00801+00301999999ADDAG12999GA1021+007509089GA2051+048009039MA1102401999999EQDQ01+000000PRSWM2
0076010017999991991051508504+59933+002000FM-15+9999ENFR V0203501N01081048001CN0112001N1+00801+00301999999ADDAG12000GA1031+007509089GA2041+048009039MA1102101999999EQDQ01+000000PRSWM2
0060010017999991991051509504+59933+002000FM-15+9999ENFR V0203501N01241220001CN0112001N1+00801+00301999999ADDAG12999GA1031+007509089MA1102101999999EQDQ01+000000PRSWM2
0060010017999991991051510504+59933+002000FM-15+9999ENFR V0203401N01291220001CN0112001N1+00701+00401999999ADDAG12999GA1041+007509089MA1102101999999EQDQ01+000000PRSWM2
0060010017999991991051608504+59933+002000FM-15+9999ENFR V0203501N01391220001CN0112001N1+00801+00401999999ADDAG12000GA1031+009009089MA1102301999999EQDQ01+000000PRSWM2
0060010017999991991051611504+59933+002000FM-15+9999ENFR V0203501N01541220001CN0112001N1+00801+00301999999ADDAG12000GA1031+007509089MA1102301999999EQDQ01+000000PRSWM2
0060010017999991991051710504+59933+002000FM-15+9999ENFR V0203401N00621220001CN0112001N1+00801+00501999999ADDAG12999GA1041+007509089MA1102401999999EQDQ01+000000PRSWM2
0060010017999991991052009504+59933+002000FM-15+9999ENFR V0202601N01291004501CN0080001N1+00801+00601999999ADDAG12999GA1081+004509059MA1100611999999EQDQ01+000000PRSWM2
0060010017999991991052010504+59933+002000FM-15+9999ENFR V0202601N01961004501CN0080001N1+00901+00701999999ADDAG12999GA1061+004509059MA1100711999999EQDQ01+000000PRSWM2
0060010017999991991052014504+59933+002000FM-15+9999ENFR V0202701N01541003601CN0080001N1+01001+00701999999ADDAG12000GA1081+003609059MA1100911999999EQDQ01+000000PRSWM2
0060010017999991991052015504+59933+002000FM-15+9999ENFR V0202801N01291003601CN0080001N1+00901+00701999999ADDAG12999GA1081+003609059MA1100911999999EQDQ01+000000PRSWM2
0060010017999991991052106504+59933+002000FM-15+9999ENFR V0202101N00771003001CN0060001N1+00801+00801999999ADDAG12999GA1081+003009079MA1101591999999EQDQ01+000000PRSWM2
0047010017999991991052107504+59933+002000FM-15+9999ENFR V0201901N01031002401CN0050001N1+00801+00801999999ADDAG12999GA1081+002409079MA1101491999999MW1581
0047010017999991991052108504+59933+002000FM-15+9999ENFR V0201901N01291002401CN0060001N1+00801+00801999999ADDAG12003GA1081+002409079MA1101391999999MW1581
0047010017999991991052109504+59933+002000FM-15+9999ENFR V0202001N01441000901CN0020001N1+00901+00901999999ADDAG12999GA1081+000909079MA1101291999999MW1101
0060010017999991991052112504+59933+002000FM-15+9999ENFR V0202401N01961220001CN0080001N1+01001+00901999999ADDAG12999GA1041+003009059MA1101191999999EQDQ01+000000PRSWM2
0047010017999991991052113504+59933+002000FM-15+9999ENFR V0202501N02321220001CN0060001N1+01001+00801999999ADDAG12999GA1041+003009089MA1101191999999MW1101
0060010017999991991052205504+59933+002000FM-15+9999ENFR V0202901N02321004501CN0080001N1+00801+00601999999ADDAG12000GA1081+004509059MA1101691999999EQDQ01+000000PRSWM2
0060010017999991991052206504+59933+002000FM-15+9999ENFR V0203101N01801004501CN0080001N1+00801+00701999999ADDAG12999GA1081+004509059MA1101901999999EQDQ01+000000PRSWM2
0060010017999991991052207504+59933+002000FM-15+9999ENFR V0203101N01801220001CN0112001N1+00801+00701999999ADDAG12999GA1041+004509059MA1102001999999EQDQ01+000000PRSWM2
0060010017999991991052208504+59933+002000FM-15+9999ENFR V0203001N01291003001CN0080001N1+00801+00701999999ADDAG12000GA1061+003009089MA1102101999999EQDQ01+000000PRSWM2
0060010017999991991052209504+59933+002000FM-15+9999ENFR V0203001N01541003001CN0112001N1+00801+00701999999ADDAG12999GA1061+003009089MA1102201999999EQDQ01+000000PRSWM2
0060010017999991991052305504+59933+002000FM-15+9999ENFR V0203201N00931220001CN0112001N1+00701+00501999999ADDAG12000GA1041+003609089MA1102811999999EQDQ01+000000PRSWM2
0060010017999991991052306504+59933+002000FM-15+9999ENFR V0203401N00621220001CN0112001N1+00801+00501999999ADDAG12999GA1041+003609089MA1102911999999EQDQ01+000000PRSWM2
0060010017999991991052307504+59933+002000FM-15+9999ENFR V0203401N00511220001CN0112001N1+00801+00501999999ADDAG12999GA1041+003609089MA1102911999999EQDQ01+000000PRSWM2
0060010017999991991052410504+59933+002000FM-15+9999ENFR V0202801N00771009001CN0112001N1+00801+00801999999ADDAG12999GA1061+009009089MA1102711999999EQDQ01+000000PRSWM2
0060010017999991991052411504+59933+002000FM-15+9999ENFR V0202801N00821007501CN0112001N1+00901+00801999999ADDAG12000GA1081+007509079MA1102711999999EQDQ01+000000PRSWM2
0060010017999991991052507504+59933+002000FM-15+9999ENFR V0202801N00311012001CN0112001N1+00901+00801999999ADDAG12999GA1071+012009059MA1102511999999EQDQ01+000000PRSWM2
0060010017999991991052508504+59933+002000FM-15+9999ENFR V0202801N00311010501CN0112001N1+00901+00801999999ADDAG12000GA1081+010509059MA1102511999999EQDQ01+000000PRSWM2
0060010017999991991052710504+59933+002000FM-15+9999ENFR V0203301N00771004501CN0112001N1+01001+00801999999ADDAG12999GA1071+004509089MA1103011999999EQDQ01+000000PRSWM2
0060010017999991991052714504+59933+002000FM-15+9999ENFR V0203201N00771006001CN0112001N1+01001+00701999999ADDAG12000GA1051+006009059MA1103011999999EQDQ01+000000PRSWM2
0044010017999991991052803504+59933+002000FM-15+9999ENFR V0203201N00931220001CN0112001N1+00901+00801999999ADDAG12999MA1102911999999EQDQ01+000000PRSWM2
0060010017999991991052804504+59933+002000FM-15+9999ENFR V0203301N00931009001CN0112001N1+00901+00801999999ADDAG12999GA1061+009009089MA1102911999999EQDQ01+000000PRSWM2
0060010017999991991052807504+59933+002000FM-15+9999ENFR V0203301N00771004501CN0112001N1+01001+00901999999ADDAG12999GA1061+004509089MA1102911999999EQDQ01+000000PRSWM2
0060010017999991991052811504+59933+002000FM-15+9999ENFR V0203301N00771012001CN0112001N1+01001+00901999999ADDAG12000GA1061+012009059MA1102911999999EQDQ01+000000PRSWM2
0060010017999991991052812504+59933+002000FM-15+9999ENFR V0203201N00771220001CN0112001N1+01001+00901999999ADDAG12999GA1041+012009059MA1102911999999EQDQ01+000000PRSWM2
0058010017999991991052814504+59933+002000FM-15+9999ENFR V0203401N00771999991CY0099001N1+01101+01001999999ADDAG12000MA1102811999999REMMET005CAVOKEQDQ01+000000PRSWM2
0060010017999991991052815504+59933+002000FM-15+9999ENFR V0203301N00821006001CN0112001N1+01101+01001999999ADDAG12999GA1051+006009059MA1102811999999EQDQ01+000000PRSWM2
0047010017999991991052907504+59933+002000FM-15+9999ENFR V0203501N01291006001CN0080001N1+01001+00901999999ADDAG12999GA1051+006009059MA1102711999999MW1101
0047010017999991991052908504+59933+002000FM-15+9999ENFR V0203501N01291002401CN0080001N1+01001+00801999999ADDAG12000GA1081+002409059MA1102711999999MW1101
0060010017999991991053004504+59933+002000FM-15+9999ENFR V0203501N01031006001CN0090001N1+00801+00701999999ADDAG12999GA1061+006009089MA1102611999999EQDQ01+000000PRSWM2
0060010017999991991053005504+59933+002000FM-15+9999ENFR V0203601N01031004501CN0080001N1+00901+00701999999ADDAG12000GA1051+004509089MA1102611999999EQDQ01+000000PRSWM2
0058010017999991991053006504+59933+002000FM-15+9999ENFR V0203601N01031999991CY0099001N1+01001+00801999999ADDAG12999MA1102611999999REMMET005CAVOKEQDQ01+000000PRSWM2
0058010017999991991053007504+59933+002000FM-15+9999ENFR V0203601N01031999991CY0099001N1+01101+00801999999ADDAG12999MA1102611999999REMMET005CAVOKEQDQ01+000000PRSWM2
0058010017999991991053009504+59933+002000FM-15+9999ENFR V0203601N01031999991CY0099001N1+01101+01001999999ADDAG12999MA1102611999999REMMET005CAVOKEQDQ01+000000PRSWM2
0063010017999991991053011504+59933+002000FM-15+9999ENFR V0203501N01031000601CN0003001N1+00901+00801999999ADDAG12000GA1061+000609079GA2081+001509079MA1102711999999MW1461
0060010017999991991053109504+59933+002000FM-15+9999ENFR V0203501N01441007501CN0112001N1+00801+00401999999ADDAG12999GA1071+007509059MA1102511999999EQDQ01+000000PRSWM2
0060010017999991991053110504+59933+002000FM-15+9999ENFR V0203501N01291007501CN0112001N1+00801+00301999999ADDAG12999GA1071+007509059MA1102511999999EQDQ01+000000PRSWM2
0081010017999991991053114504+59933+002000FM-15+9999ENFR V0209999999999010501CN0112001N1+00801+00401999999ADDAG12000GA1061+010509059MA1102401999999REMMET012RJCT42  0534EQDQ01+000000PRSWM2
0068010017999991991060306504+59933+002000FM-15+9999ENFR V0209999999999006001CN0080001N1+00801+00701999999ADDAG12999GA1081+006009079MA1100811999999MW1601REMMET012RJCT42  0532
0060010017999991991060307504+59933+002000FM-15+9999ENFR V0200401N01031007501CN0112001N1+00801+00601999999ADDAG12999GA1081+007509059MA1100811999999EQDQ01+000000PRSWM2
0060010017999991991060309504+59933+002000FM-15+9999ENFR V0200101N01131220001CN0112001N1+00801+00601999999ADDAG12999GA1041+009009089MA1100811999999EQDQ01+000000PRSWM2
0060010017999991991060310504+59933+002000FM-15+9999ENFR V0200101N01291220001CN0112001N1+00801+00601999999ADDAG12999GA1031+012009089MA1100911999999EQDQ01+000000PRSWM2
0060010017999991991060406504+59933+002000FM-15+9999ENFR V0203501N01291009001CN0112001N1+00801+00501999999ADDAG12999GA1061+009009089MA1100811999999EQDQ01+000000PRSWM2
0060010017999991991060407504+59933+002000FM-15+9999ENFR V0203501N01291007501CN0112001N1+00801+00501999999ADDAG12999GA1071+007509059MA1100811999999EQDQ01+000000PRSWM2
0060010017999991991060408504+59933+002000FM-15+9999ENFR V0203501N01341220001CN0112001N1+00801+00601999999ADDAG12000GA1041+010509089MA1100811999999EQDQ01+000000PRSWM2
0060010017999991991060409504+59933+002000FM-15+9999ENFR V0203501N01181009001CN0112001N1+00801+00501999999ADDAG12999GA1061+009009059MA1100811999999EQDQ01+000000PRSWM2
0060010017999991991060506504+59933+002000FM-15+9999ENFR V0202801N00771012001CN0112001N1+00601+00401999999ADDAG12999GA1061+012009059MA1100711999999EQDQ01+000000PRSWM2
0060010017999991991060507504+59933+002000FM-15+9999ENFR V0202701N00621010501CN0112001N1+00701+00401999999ADDAG12999GA1061+010509089MA1100711999999EQDQ01+000000PRSWM2
0076010017999991991060604504+59933+002000FM-15+9999ENFR V0202201N01031003001CN0112001N1+00901+00801999999ADDAG12999GA1041+001809079GA2061+003009079MA1100411999999EQDQ01+000000PRSWM2
0063010017999991991060605504+59933+002000FM-15+9999ENFR V0202101N00821007501CN0080001N1+00601+00601999999ADDAG12006GA1031+000909079GA2061+007509099MA1100511999999MW1291
0047010017999991991060606504+59933+002000FM-15+9999ENFR V0202101N00931006001CN0080001N1+00701+00601999999ADDAG12999GA1081+006009079MA1100511999999MW1951
0060010017999991991060607504+59933+002000FM-15+9999ENFR V0202501N00461009001CN0112001N1+00701+00701999999ADDAG12999GA1081+009009079MA1100511999999EQDQ01+000000PRSWM2
0076010017999991991060611504+59933+002000FM-15+9999ENFR V0202601N00621012001CN0112001N1+00801+00501999999ADDAG12000GA1031+007509089GA2041+012009059MA1100511999999EQDQ01+000000PRSWM2
0060010017999991991060612504+59933+002000FM-15+9999ENFR V0202701N00621220001CN0112001N1+00801+00401999999ADDAG12999GA1031+009009089MA1100511999999EQDQ01+000000PRSWM2
0060010017999991991060707504+59933+002000FM-15+9999ENFR V0203201N00671220001CN0112001N1+00801+00501999999ADDAG12999GA1041+010509059MA1100511999999EQDQ01+000000PRSWM2
0076010017999991991060710504+59933+002000FM-15+9999ENFR V0203301N00571220001CN0112001N1+00801+00301999999ADDAG12999GA1031+009009089GA2021+030009039MA1100611999999EQDQ01+000000PRSWM2
0060010017999991991060711504+59933+002000FM-15+9999ENFR V0203201N00511220001CN0112001N1+00801+00301999999ADDAG12000GA1031+009009089MA1100611999999EQDQ01+000000PRSWM2
0060010017999991991060715504+59933+002000FM-15+9999ENFR V0203201N00511220001CN0112001N1+00901+00401999999ADDAG12999GA1041+009009089MA1100711999999EQDQ01+000000PRSWM2
0079010017999991991061007504+59933+002000FM-15+9999ENFR V0201401N01341001201CN0045001N1+01001+00901999999ADDAG12999GA1021+000909079GA2041+001209079GA3081+001809079MA1099801999999MW1611
0063010017999991991061010504+59933+002000FM-15+9999ENFR V0201401N01291002401CN0080001N1+01001+00901999999ADDAG12999GA1031+001209079GA2081+002409079MA1099901999999MW1101
0063010017999991991061012504+59933+002000FM-15+9999ENFR V0201401N01131001801CN0070001N1+01001+00901999999ADDAG12999GA1031+001209079GA2081+001809079MA1100001999999MW1101
0063010017999991991061015504+59933+002000FM-15+9999ENFR V0201401N00771001801CN0035001N1+01001+00901999999ADDAG12999GA1041+001209079GA2081+001809079MA1100001999999MW1631
0076010017999991991061107504+59933+002000FM-15+9999ENFR V0200901N00361001201CN0112001N1+01001+01001999999ADDAG12999GA1021+000609079GA2031+001209079MA1100311999999EQDQ01+000000PRSWM2
0076010017999991991061109504+59933+002000FM-15+9999ENFR V0202001N00101001501CN0112001N1+01001+01001999999ADDAG12999GA1041+001209079GA2081+001509079MA1100411999999EQDQ01+000000PRSWM2
0059010017999991991061111504+59933+002000FM-15+9999ENFR V0203001N00821001501CN0112001N1+00901+00801999999ADDAG12000GA1081+001509079REMMET00510045EQDQ01+000000PRSWM2
0076010017999991991061204504+59933+002000FM-15+9999ENFR V0201301N01181220001CN0112001N1+01001+00901999999ADDAG12999GA1011+003009089GA2031+007509079MA1100101999999EQDQ01+000000PRSWM2
0076010017999991991061205504+59933+002000FM-15+9999ENFR V0201301N01441007501CN0112001N1+01001+00901999999ADDAG12000GA1021+003009089GA2061+007509079MA1100001999999EQDQ01+000000PRSWM2
0076010017999991991061206504+59933+002000FM-15+9999ENFR V0201301N01441001501CN0112001N1+01001+00901999999ADDAG12999GA1061+001509079GA2081+003009079MA1099901999999EQDQ01+000000PRSWM2
0076010017999991991061207504+59933+002000FM-15+9999ENFR V0201301N01651001801CN0112001N1+01001+00901999999ADDAG12999GA1041+000909079GA2081+001809079MA1099801999999EQDQ01+000000PRSWM2
0076010017999991991061208504+59933+002000FM-15+9999ENFR V0201201N01241002101CN0112001N1+00901+00801999999ADDAG12000GA1031+000909079GA2071+002109079MA1099701999999EQDQ01+000000PRSWM2
0063010017999991991061210504+59933+002000FM-15+9999ENFR V0201301N01651002101CN0060001N1+01001+01001999999ADDAG12999GA1031+000909079GA2071+002109079MA1099491999999MW1601
0076010017999991991061307504+59933+002000FM-15+9999ENFR V0201301N01291007501CN0112001N1+01001+00801999999ADDAG12999GA1031+003009079GA2061+007509059MA1098981999999EQDQ01+000000PRSWM2
0076010017999991991061308504+59933+002000FM-15+9999ENFR V0201301N01341009001CN0112001N1+01001+00701999999ADDAG12000GA1041+004509059GA2071+009009059MA1098981999999EQDQ01+000000PRSWM2
0060010017999991991061312504+59933+002000FM-15+9999ENFR V0201301N01541002101CN0060001N1+01001+00801999999ADDAG12999GA1081+002109079MA1098981999999EQDQ01+000000PRSWM2
0060010017999991991061409504+59933+002000FM-15+9999ENFR V0200501N00261220001CN0112001N1+01101+00901999999ADDAG12999GA1041+003009089MA1099701999999EQDQ01+000000PRSWM2
0060010017999991991061410504+59933+002000FM-15+9999ENFR V0200401N00261220001CN0112001N1+01101+00901999999ADDAG12999GA1021+003009089MA1099801999999EQDQ01+000000PRSWM2
0060010017999991991061411504+59933+002000FM-15+9999ENFR V0203601N00261003001CN0112001N1+01201+01001999999ADDAG12000GA1061+003009089MA1099801999999EQDQ01+000000PRSWM2
0060010017999991991061505504+59933+002000FM-15+9999ENFR V0202801N00931003001CN0112001N1+00901+00701999999ADDAG12000GA1081+003009079MA1100201999999EQDQ01+000000PRSWM2
0060010017999991991061506504+59933+002000FM-15+9999ENFR V0202901N00931003001CN0112001N1+00901+00701999999ADDAG12999GA1081+003009059MA1100201999999EQDQ01+000000PRSWM2
0060010017999991991061610504+59933+002000FM-15+9999ENFR V0202901N00931002401CN0060001N1+00901+00801999999ADDAG12999GA1081+002409079MA1100311999999EQDQ01+000000PRSWM2
0060010017999991991061611504+59933+002000FM-15+9999ENFR V0203001N00881006001CN0112001N1+00901+00801999999ADDAG12000GA1061+006009059MA1100411999999EQDQ01+000000PRSWM2
0060010017999991991061703504+59933+002000FM-15+9999ENFR V0202601N00771003001CN0112001N1+01001+00801999999ADDAG12999GA1081+003009059MA1100411999999EQDQ01+000000PRSWM2
0060010017999991991061704504+59933+002000FM-15+9999ENFR V0202601N00771003001CN0112001N1+01001+00801999999ADDAG12999GA1081+003009059MA1100411999999EQDQ01+000000PRSWM2
0076010017999991991061706504+59933+002000FM-15+9999ENFR V0202901N00671007501CN0112001N1+01001+00801999999ADDAG12999GA1041+001509079GA2081+007509079MA1100511999999EQDQ01+000000PRSWM2
0076010017999991991061708504+59933+002000FM-15+9999ENFR V0202601N00571007501CN0112001N1+01001+00901999999ADDAG12000GA1041+001509079GA2081+007509079MA1100611999999EQDQ01+000000PRSWM2
0076010017999991991061712504+59933+002000FM-15+9999ENFR V0202701N00411009001CN0112001N1+01001+00701999999ADDAG12999GA1041+001509079GA2081+009009079MA1100711999999EQDQ01+000000PRSWM2
0076010017999991991061714504+59933+002000FM-15+9999ENFR V0203001N00411009001CN0112001N1+00901+00701999999ADDAG12000GA1031+001509079GA2081+009009079MA1100811999999EQDQ01+000000PRSWM2
0076010017999991991061715504+59933+002000FM-15+9999ENFR V0203001N00261036001CN0112001N1+01001+00701999999ADDAG12999GA1041+010509059GA2041+036009039MA1100811999999EQDQ01+000000PRSWM2
0060010017999991991061806504+59933+002000FM-15+9999ENFR V0201701N00311220001CN0112001N1+01001+00601999999ADDAG12999GA1041+009009059MA1101081999999EQDQ01+000000PRSWM2
0076010017999991991061811504+59933+002000FM-15+9999ENFR V0200901N00311220001CN0112001N1+01101+00901999999ADDAG12000GA1011+009009089GA2041+036009039MA1101191999999EQDQ01+000000PRSWM2
0060010017999991991061813504+59933+002000FM-15+9999ENFR V0200701N00101220001CN0112001N1+01101+00901999999ADDAG12999GA1031+009009089MA1101081999999EQDQ01+000000PRSWM2
0076010017999991991061905504+59933+002000FM-15+9999ENFR V0203401N01291021001CN0112001N1+01101+01001999999ADDAG12000GA1021+006009089GA2061+021009059MA1100311999999EQDQ01+000000PRSWM2
0076010017999991991061907504+59933+002000FM-15+9999ENFR V0203401N01441007501CN0112001N1+01101+01001999999ADDAG12999GA1051+007509059GA2071+018009079MA1100201999999EQDQ01+000000PRSWM2
0060010017999991991061909504+59933+002000FM-15+9999ENFR V0203401N01441006001CN0112001N1+01101+01001999999ADDAG12999GA1061+006009059MA1100201999999EQDQ01+000000PRSWM2
0060010017999991991061912504+59933+002000FM-15+9999ENFR V0203401N01291006001CN0112001N1+01101+01001999999ADDAG12999GA1071+006009059MA1100311999999EQDQ01+000000PRSWM2
0060010017999991991061913504+59933+002000FM-15+9999ENFR V0203401N01291006001CN0112001N1+01101+01001999999ADDAG12999GA1071+006009059MA1100311999999EQDQ01+000000PRSWM2
0060010017999991991062004504+59933+002000FM-15+9999ENFR V0203001N00931220001CN0112001N1+00901+00601999999ADDAG12999GA1041+003609089MA1100411999999EQDQ01+000000PRSWM2
0060010017999991991062005504+59933+002000FM-15+9999ENFR V0202901N01031010501CN0112001N1+00801+00601999999ADDAG12000GA1071+010509059MA1100511999999EQDQ01+000000PRSWM2
0060010017999991991062006504+59933+002000FM-15+9999ENFR V0203001N00771010501CN0112001N1+00901+00601999999ADDAG12999GA1061+010509059MA1100511999999EQDQ01+000000PRSWM2
0058010017999991991062008504+59933+002000FM-15+9999ENFR V0202801N00511999991CY0099001N1+00901+00601999999ADDAG12000MA1100511999999REMMET005CAVOKEQDQ01+000000PRSWM2
0058010017999991991062009504+59933+002000FM-15+9999ENFR V0202801N00511999991CY0099001N1+00901+00601999999ADDAG12999MA1100511999999REMMET005CAVOKEQDQ01+000000PRSWM2
0060010017999991991062011504+59933+002000FM-15+9999ENFR V0202601N00771004501CN0112001N1+00901+00701999999ADDAG12000GA1071+004509089MA1100511999999EQDQ01+000000PRSWM2
0060010017999991991062110504+59933+002000FM-15+9999ENFR V0202801N00621004501CN0112001N1+01001+00801999999ADDAG12999GA1051+004509089MA1100711999999EQDQ01+000000PRSWM2
0060010017999991991062113504+59933+002000FM-15+9999ENFR V0202201N00261006001CN0112001N1+01101+00801999999ADDAG12999GA1051+006009059MA1100811999999EQDQ01+000000PRSWM2
0060010017999991991062304504+59933+002000FM-15+9999ENFR V0201601N00411006001CN0112001N1+01101+00901999999ADDAG12999GA1081+006009059MA1100811999999EQDQ01+000000PRSWM2
0060010017999991991062409504+59933+002000FM-15+9999ENFR V0203101N00511220001CN0112001N1+01101+00901999999ADDAG12999GA1041+003609089MA1101191999999EQDQ01+000000PRSWM2
0060010017999991991062410504+59933+002000FM-15+9999ENFR V0203001N00511220001CN0112001N1+01101+00901999999ADDAG12999GA1041+003609089MA1101191999999EQDQ01+000000PRSWM2
0060010017999991991062414504+59933+002000FM-15+9999ENFR V0203001N00411220001CN0112001N1+01201+01001999999ADDAG12000GA1041+003609089MA1101191999999EQDQ01+000000PRSWM2
0060010017999991991062415504+59933+002000FM-15+9999ENFR V0203001N00261220001CN0112001N1+01201+01001999999ADDAG12999GA1041+003609089MA1101191999999EQDQ01+000000PRSWM2
0060010017999991991062506504+59933+002000FM-15+9999ENFR V0200601N00511220001CN0112001N1+01101+01001999999ADDAG12999GA1021+004509089MA1101021999999EQDQ01+000000PRSWM2
0060010017999991991062507504+59933+002000FM-15+9999ENFR V0200601N00511220001CN0112001N1+01201+01001999999ADDAG12999GA1021+004509089MA1101021999999EQDQ01+000000PRSWM2
0060010017999991991062508504+59933+002000FM-15+9999ENFR V0200601N00511220001CN0112001N1+01201+01001999999ADDAG12000GA1021+004509089MA1101021999999EQDQ01+000000PRSWM2
0060010017999991991062509504+59933+002000FM-15+9999ENFR V0200601N00511220001CN0112001N1+01201+01001999999ADDAG12999GA1021+004509089MA1101021999999EQDQ01+000000PRSWM2
0060010017999991991062512504+59933+002000FM-15+9999ENFR V0200801N00511220001CN0112001N1+01201+01001999999ADDAG12999GA1021+004509089MA1100911999999EQDQ01+000000PRSWM2
0060010017999991991062513504+59933+002000FM-15+9999ENFR V0200901N00511220001CN0112001N1+01201+01001999999ADDAG12999GA1021+004509089MA1100911999999EQDQ01+000000PRSWM2
0060010017999991991062605504+59933+002000FM-15+9999ENFR V0200301N00771220001CN0112001N1+01201+01101999999ADDAG12000GA1041+004509089MA1100101999999EQDQ01+000000PRSWM2
0060010017999991991062606504+59933+002000FM-15+9999ENFR V0200301N00931220001CN0112001N1+01201+01101999999ADDAG12999GA1041+004509089MA1100201999999EQDQ01+000000PRSWM2
0060010017999991991062607504+59933+002000FM-15+9999ENFR V0200201N00931220001CN0112001N1+01201+01001999999ADDAG12999GA1041+004509089MA1100101999999EQDQ01+000000PRSWM2
0060010017999991991062608504+59933+002000FM-15+9999ENFR V0203601N01031220001CN0112001N1+01301+01101999999ADDAG12000GA1041+004509089MA1100101999999EQDQ01+000000PRSWM2
0060010017999991991062609504+59933+002000FM-15+9999ENFR V0200101N01291220001CN0112001N1+01201+01101999999ADDAG12999GA1041+004509089MA1100101999999EQDQ01+000000PRSWM2
0060010017999991991062706504+59933+002000FM-15+9999ENFR V0203501N01131006001CN0112001N1+01101+00901999999ADDAG12999GA1081+006009059MA1100411999999EQDQ01+000000PRSWM2
0060010017999991991062707504+59933+002000FM-15+9999ENFR V0203501N01031006001CN0112001N1+01201+00801999999ADDAG12999GA1081+006009059MA1100511999999EQDQ01+000000PRSWM2
0060010017999991991062708504+59933+002000FM-15+9999ENFR V0203301N01291006001CN0112001N1+01201+00901999999ADDAG12000GA1081+006009059MA1100511999999EQDQ01+000000PRSWM2
0060010017999991991062805504+59933+002000FM-15+9999ENFR V0203401N00821007501CN0112001N1+01001+00701999999ADDAG12000GA1081+007509079MA1101081999999EQDQ01+000000PRSWM2
0060010017999991991062807504+59933+002000FM-15+9999ENFR V0203401N00771006001CN0112001N1+01001+00701999999ADDAG12999GA1081+006009079MA1101191999999EQDQ01+000000PRSWM2
0060010017999991991062808504+59933+002000FM-15+9999ENFR V0203401N01031009001CN0112001N1+01001+00701999999ADDAG12000GA1081+009009079MA1101191999999EQDQ01+000000PRSWM2
0060010017999991991062809504+59933+002000FM-15+9999ENFR V0203501N00931009001CN0112001N1+01101+00701999999ADDAG12999GA1081+009009079MA1101291999999EQDQ01+000000PRSWM2
0060010017999991991062905504+59933+002000FM-15+9999ENFR V0203301N01031007501CN0112001N1+00901+00701999999ADDAG12000GA1081+007509079MA1101391999999EQDQ01+000000PRSWM2
0058010017999991991070109504+59933+002000FM-15+9999ENFR V0200701N00411999991CY0099001N1+01201+01001999999ADDAG12999MA1101801999999REMMET005CAVOKEQDQ01+000000PRSWM2
0060010017999991991070207504+59933+002000FM-15+9999ENFR V0200601N00621006001CN0112001N1+01201+01101999999ADDAG12999GA1081+006009059MA1102401999999EQDQ01+000000PRSWM2
0060010017999991991070208504+59933+002000FM-15+9999ENFR V0200701N00771006001CN0112001N1+01301+01101999999ADDAG12000GA1071+006009059MA1102511999999EQDQ01+000000PRSWM2
0058010017999991991070307504+59933+002000FM-15+9999ENFR V0200801N00261999991CY0099001N1+01501+01301999999ADDAG12999MA1103011999999REMMET005CAVOKEQDQ01+000000PRSWM2
0058010017999991991070308504+59933+002000FM-15+9999ENFR V0200901N00511999991CY0099001N1+01501+01201999999ADDAG12000MA1103011999999REMMET005CAVOKEQDQ01+000000PRSWM2
0058010017999991991070407504+59933+002000FM-15+9999ENFR V0200801N00311999991CY0099001N1+01501+01301999999ADDAG12999MA1103391999999REMMET005CAVOKEQDQ01+000000PRSWM2
0058010017999991991070408504+59933+002000FM-15+9999ENFR V0200801N00411999991CY0099001N1+01601+01401999999ADDAG12000MA1103391999999REMMET005CAVOKEQDQ01+000000PRSWM2
0058010017999991991070411504+59933+002000FM-15+9999ENFR V0200901N00311999991CY0099001N1+01601+01301999999ADDAG12000MA1103391999999REMMET005CAVOKEQDQ01+000000PRSWM2
0058010017999991991070510504+59933+002000FM-15+9999ENFR V0200101N00511999991CY0099001N1+01701+01501999999ADDAG12999MA1103011999999REMMET005CAVOKEQDQ01+000000PRSWM2
0058010017999991991070809504+59933+002000FM-15+9999ENFR V0200901N00411999991CY0099001N1+01401+01401999999ADDAG12999MA1101391999999REMMET005CAVOKEQDQ01+000000PRSWM2
0058010017999991991070814504+59933+002000FM-15+9999ENFR V0201001N01031999991CY0099001N1+01601+01501999999ADDAG12000MA1101081999999REMMET005CAVOKEQDQ01+000000PRSWM2
0047010017999991991070910504+59933+002000FM-15+9999ENFR V0201701N01291001501CN0030001N1+01601+01601999999ADDAG12999GA1081+001509079MA1100611999999MW1101
0047010017999991991070911504+59933+002000FM-15+9999ENFR V0201701N01291002101CN0050001N1+01601+01601999999ADDAG12000GA1051+002109079MA1100611999999MW1101
0060010017999991991071006504+59933+002000FM-15+9999ENFR V0202601N01291220001CN0112001N1+01401+01201999999ADDAG12999GA1041+009009089MA1101691999999EQDQ01+000000PRSWM2
0060010017999991991071007504+59933+002000FM-15+9999ENFR V0202601N01291220001CN0112001N1+01401+01201999999ADDAG12999GA1031+010509089MA1101801999999EQDQ01+000000PRSWM2
0058010017999991991071008504+59933+002000FM-15+9999ENFR V0202601N01031999991CY0099001N1+01401+01201999999ADDAG12000MA1101901999999REMMET005CAVOKEQDQ01+000000PRSWM2
0060010017999991991071105504+59933+002000FM-15+9999ENFR V0201401N00931012001CN0112001N1+01501+01201999999ADDAG12000GA1081+012009079MA1101901999999EQDQ01+000000PRSWM2
0060010017999991991071106504+59933+002000FM-15+9999ENFR V0201401N00931010501CN0112001N1+01501+01201999999ADDAG12999GA1081+010509079MA1101901999999EQDQ01+000000PRSWM2
0060010017999991991071112504+59933+002000FM-15+9999ENFR V0201301N01291009001CN0112001N1+01501+01301999999ADDAG12999GA1061+009009059MA1101591999999EQDQ01+000000PRSWM2
0047010017999991991071205504+59933+002000FM-15+9999ENFR V0201701N01441000301CN0001001N1+01501+01501999999ADDAG12000GA1091+000309999MA1100101999999MW1471
0060010017999991991071207504+59933+002000FM-15+9999ENFR V0202001N01291220001CN0112001N1+01401+01301999999ADDAG12999GA1031+001509079MA1100101999999EQDQ01+000000PRSWM2
0060010017999991991071208504+59933+002000FM-15+9999ENFR V0202001N01131003001CN0112001N1+01401+01201999999ADDAG12000GA1061+003009079MA1100311999999EQDQ01+000000PRSWM2
0060010017999991991071210504+59933+002000FM-15+9999ENFR V0202001N01291003001CN0112001N1+01401+01201999999ADDAG12999GA1061+003009089MA1100311999999EQDQ01+000000PRSWM2
0060010017999991991071211504+59933+002000FM-15+9999ENFR V0202001N01291220001CN0112001N1+01401+01201999999ADDAG12000GA1041+003009089MA1100311999999EQDQ01+000000PRSWM2
0076010017999991991071306504+59933+002000FM-15+9999ENFR V0202001N00721004501CN0112001N1+01301+01101999999ADDAG12999GA1021+003009089GA2041+004509089MA1100311999999EQDQ01+000000PRSWM2
0060010017999991991071506504+59933+002000FM-15+9999ENFR V0201301N00411002401CN0112001N1+01101+01001999999ADDAG12999GA1081+002409059MA1100711999999EQDQ01+000000PRSWM2
0076010017999991991071507504+59933+002000FM-15+9999ENFR V0201401N00311003001CN0112001N1+01201+01001999999ADDAG12999GA1031+001809079GA2081+003009059MA1100711999999EQDQ01+000000PRSWM2
0076010017999991991071508504+59933+002000FM-15+9999ENFR V0201701N00311002701CN0112001N1+01301+01001999999ADDAG12000GA1041+001809059GA2081+002709059MA1100711999999EQDQ01+000000PRSWM2
0076010017999991991071509504+59933+002000FM-15+9999ENFR V0201701N00311001801CN0112001N1+01301+01101999999ADDAG12999GA1061+001809059GA2081+003009079MA1100711999999EQDQ01+000000PRSWM2
0076010017999991991071511504+59933+002000FM-15+9999ENFR V0202601N00151002401CN0112001N1+01201+01101999999ADDAG12000GA1021+001809079GA2081+002409059MA1100711999999EQDQ01+000000PRSWM2
0076010017999991991071512504+59933+002000FM-15+9999ENFR V0202001N00101006001CN0112001N1+01301+01101999999ADDAG12999GA1021+001509079GA2081+006009059MA1100711999999EQDQ01+000000PRSWM2
0076010017999991991071514504+59933+002000FM-15+9999ENFR V0202201N00101006001CN0112001N1+01301+01101999999ADDAG12000GA1031+002409059GA2071+006009059MA1100711999999EQDQ01+000000PRSWM2
0076010017999991991071606504+59933+002000FM-15+9999ENFR V0203001N00621002401CN0112001N1+01301+01101999999ADDAG12999GA1051+002409059GA2081+004509079MA1100511999999EQDQ01+000000PRSWM2
0076010017999991991071607504+59933+002000FM-15+9999ENFR V0202901N00721002401CN0112001N1+01201+01101999999ADDAG12999GA1051+002409059GA2071+006009079MA1100511999999EQDQ01+000000PRSWM2
0076010017999991991071608504+59933+002000FM-15+9999ENFR V0202801N00511002401CN0112001N1+01201+01101999999ADDAG12000GA1061+002409059GA2071+006009079MA1100511999999EQDQ01+000000PRSWM2
0076010017999991991071706504+59933+002000FM-15+9999ENFR V0202901N00511002401CN0112001N1+01301+01101999999ADDAG12999GA1061+002409059GA2081+009009079MA1100711999999EQDQ01+000000PRSWM2
0076010017999991991071709504+59933+002000FM-15+9999ENFR V0203101N00511012001CN0112001N1+01301+01101999999ADDAG12999GA1041+002409059GA2031+012009089MA1100811999999EQDQ01+000000PRSWM2
