0071010014999991991010204504+59800+005350FM-15+0049ENSO V0201301N01131015001CN0112001N1+00501-00101999999ADDAG12999GA1021+005409059GA2061+015009059MA1097291999999MW1591OC101651
0071010014999991991010205504+59800+005350FM-15+0049ENSO V0201301N01291006901CN0112001N1+00601+00001999999ADDAG12001GA1021+005409059GA2061+006909059MA1097091999999MW1511OC101851
0071010014999991991010206504+59800+005350FM-15+0049ENSO V0201401N00981004801CN0080001N1+00401+00201999999ADDAG12999GA1021+003009079GA2061+004809059MA1096991999999MW1631OC101541
0071010014999991991010207504+59800+005350FM-15+0049ENSO V0201101N00931005101CN0080001N1+00301+00101999999ADDAG12999GA1021+003009079GA2061+005109059MA1096991999999MW1631OC101441
0071010014999991991010208504+59800+005350FM-15+0049ENSO V0201201N00771006001CN0112001N1+00401+00101999999ADDAG12007GA1021+003009079GA2051+006009059MA1096881999999MW1611OC101291
0079010014999991991010209504+59800+005350FM-15+0049ENSO V0201201N00671004201CN0080001N1+00401+00201999999ADDAG12999GA1021+003009079GA2031+004209079GA3051+006009059MA1096881999999MW1591
0079010014999991991010210504+59800+005350FM-15+0049ENSO V0201201N00571003301CN0112001N1+00401+00201999999ADDAG12999GA1021+002709079GA2031+003309079GA3051+005109059MA1096881999999MW1601
0079010014999991991010211504+59800+005350FM-15+0049ENSO V0202301N00461003001CN0080001N1+00501+00401999999ADDAG12007GA1021+002109079GA2031+003009079GA3061+004509059MA1096991999999MW1621
0071010014999991991010213504+59800+005350FM-15+0049ENSO V0202501N00511004501CN0112001N1+00601+00401999999ADDAG12999GA1021+003609099GA2041+004509089MA1097191999999MW1801OC101291
0063010014999991991010214504+59800+005350FM-15+0049ENSO V0202501N00571004501CN0112001N1+00601+00201999999ADDAG12001GA1011+003609099GA2051+004509089MA1097291999999MW1251
0076010014999991991010215504+59800+005350FM-15+0049ENSO V0202501N00411004501CN0112001N1+00501+00101999999ADDAG12999GA1021+003009089GA2051+004509089MA1097291999999EQDQ01+000000PRSWM2
0087010014999991991010216504+59800+005350FM-15+0049ENSO V0202501N00361003601CN0050001N1+00601+00301999999ADDAG12999GA1021+002409079GA2031+003609099GA3051+004509089MA1097391999999MW1871OC100931
0079010014999991991010306504+59800+005350FM-15+0049ENSO V0202301N00361036001CN0112001N1+00501-00201999999ADDAG12999GA1011+003609099GA2011+006009089GA3041+036009039MA1098211999999MW1271
0071010014999991991010307504+59800+005350FM-15+0049ENSO V0202401N00621007501CN0112001N1+00601-00301999999ADDAG12999GA1021+004509099GA2051+007509089MA1098311999999MW1931OC101341
0071010014999991991010308504+59800+005350FM-15+0049ENSO V0202501N00671006001CN0112001N1+00401-00201999999ADDAG12001GA1031+004509099GA2041+006009089MA1098311999999MW1871OC101241
0063010014999991991010309504+59800+005350FM-15+0049ENSO V0202601N00461220001CN0112001N1+00401-00101999999ADDAG12999GA1011+004509099GA2041+006009089MA1098411999999MW1271
0098010014999991991010310504+59800+005350FM-15+0049ENSO V0202301N00511220001CN0112001N1+00601-00201999999ADDAG12999GA1011+004509099GA2031+007509089MA1098511999999REMMET013PAST MAX 26KTEQDQ01+000000PRSWM2
0076010014999991991010311504+59800+005350FM-15+0049ENSO V0202401N00511007501CN0112001N1+00601-00201999999ADDAG12000GA1011+004509099GA2051+007509089MA1098511999999EQDQ01+000000PRSWM2
0084010014999991991010312504+59800+005350FM-15+0049ENSO V0202401N00621006001CN0112001N1+00601-00201999999ADDAG12999GA1011+004509099GA2051+006009089MA1098511999999OC101181EQDQ01+000000PRSWM2
0084010014999991991010313504+59800+005350FM-15+0049ENSO V0202301N00721006001CN0112001N1+00501-00301999999ADDAG12999GA1011+004509099GA2051+006009089MA1098611999999OC101241EQDQ01+000000PRSWM2
0076010014999991991010314504+59800+005350FM-15+0049ENSO V0202301N00671006001CN0112001N1+00501-00201999999ADDAG12000GA1021+004509099GA2051+006009089MA1098611999999EQDQ01+000000PRSWM2
0079010014999991991010315504+59800+005350FM-15+0049ENSO V0202301N00511006001CN0112001N1+00501-00201999999ADDAG12999GA1021+004509099GA2051+006009089MA1098611999999MW1271REMMET007DIST TS
0079010014999991991010316504+59800+005350FM-15+0049ENSO V0202301N00461006001CN0112001N1+00401-00101999999ADDAG12999GA1021+004509099GA2051+006009089MA1098611999999MW1271REMMET007DIST TS
0063010014999991991010406504+59800+005350FM-15+0049ENSO V0209991V00311005401CN0050001N1+00201+00001999999ADDAG12999GA1031+003609099GA2061+005409089MA1098411999999MW1961
0079010014999991991010408504+59800+005350FM-15+0049ENSO V0201501N00511012001CN0112001N1+00201+00101999999ADDAG12002GA1011+003609099GA2031+005409089GA3051+012009059MA1098411999999MW1271
0092010014999991991010410504+59800+005350FM-15+0049ENSO V0201501N00571021001CN0112001N1+00301-00101999999ADDAG12999GA1011+003609099GA2021+006009089GA3041+021009039MA1098411999999EQDQ01+000000PRSWM2
0092010014999991991010411504+59800+005350FM-15+0049ENSO V0201201N00461021001CN0112001N1+00301-00101999999ADDAG12000GA1011+003609099GA2021+006009089GA3051+021009039MA1098311999999EQDQ01+000000PRSWM2
0063010014999991991010412504+59800+005350FM-15+0049ENSO V0201501N00771005401CN0112001N1+00301+00001999999ADDAG12999GA1031+003009079GA2061+005409089MA1098211999999MW1801
0079010014999991991010413504+59800+005350FM-15+0049ENSO V0201301N00721003001CN0080001N1+00201+00001999999ADDAG12999GA1021+002409079GA2031+003009079GA3061+004209089MA1098101999999MW1831
0079010014999991991010414504+59800+005350FM-15+0049ENSO V0201201N00931002101CN0080001N1+00101+00001999999ADDAG12001GA1021+001509079GA2031+002109079GA3061+002709079MA1098001999999MW1831
0076010014999991991010415504+59800+005350FM-15+0049ENSO V0201501N00671005401CN0112001N1+00201+00101999999ADDAG12999GA1031+003009079GA2061+005409089MA1098001999999EQDQ01+000000PRSWM2
0063010014999991991010416504+59800+005350FM-15+0049ENSO V0202101N00511006001CN0112001N1+00601+00401999999ADDAG12999GA1021+003009079GA2061+006009089MA1098001999999MW1801
0076010014999991991010705504+59800+005350FM-15+0049ENSO V0201201N00361220001CN0112001N1+00101-00201999999ADDAG12000GA1011+004509089GA2031+060009019MA1098211999999EQDQ01+000000PRSWM2
0092010014999991991010706504+59800+005350FM-15+0049ENSO V0201101N00411054001CN0112001N1+00201-00201999999ADDAG12999GA1021+004509089GA2031+021009039GA3051+054009029MA1098211999999EQDQ01+000000PRSWM2
0092010014999991991010707504+59800+005350FM-15+0049ENSO V0201001N00461009001CN0112001N1+00201-00201999999ADDAG12999GA1021+003909089GA2031+009009059GA3051+021009039MA1098211999999EQDQ01+000000PRSWM2
0079010014999991991010708504+59800+005350FM-15+0049ENSO V0201001N00461009001CN0112001N1+00201-00201999999ADDAG12003GA1021+004509089GA2031+009009059GA3051+015009059MA1098211999999MW1211
0079010014999991991010710504+59800+005350FM-15+0049ENSO V0201001N00461004501CN0112001N1+00201+00001999999ADDAG12999GA1021+003009079GA2031+004509089GA3051+007509059MA1098211999999MW1581
0063010014999991991010711504+59800+005350FM-15+0049ENSO V0201401N00361006001CN0112001N1+00101+00001999999ADDAG12003GA1031+003009079GA2061+006009059MA1098211999999MW1581
0079010014999991991010712504+59800+005350FM-15+0049ENSO V0201201N00511003001CN0080001N1+00101+00001999999ADDAG12999GA1021+002109079GA2031+003009079GA3061+005409059MA1098211999999MW1581
0079010014999991991010713504+59800+005350FM-15+0049ENSO V0201101N00411003001CN0112001N1+00101+00001999999ADDAG12999GA1021+002109079GA2031+003009079GA3061+003909079MA1098211999999MW1831
0079010014999991991010714504+59800+005350FM-15+0049ENSO V0201501N00261004201CN0112001N1+00201+00101999999ADDAG12003GA1021+003009079GA2031+004209079GA3061+005409059MA1098211999999MW1211
0079010014999991991010715504+59800+005350FM-15+0049ENSO V0201501N00361004201CN0112001N1+00201+00101999999ADDAG12999GA1021+003009079GA2031+004209079GA3061+006009059MA1098211999999MW1581
0079010014999991991010716504+59800+005350FM-15+0049ENSO V0201401N00311004201CN0112001N1+00201+00101999999ADDAG12999GA1021+003009079GA2031+004209079GA3061+006009059MA1098211999999MW1211
0076010014999991991010805504+59800+005350FM-15+0049ENSO V0201201N00411220001CN0112001N1+00201-00101999999ADDAG12000GA1011+003009079GA2041+007509089MA1098101999999EQDQ01+000000PRSWM2
0076010014999991991010806504+59800+005350FM-15+0049ENSO V0201101N00361220001CN0112001N1+00201-00101999999ADDAG12999GA1011+003009079GA2041+007509089MA1098101999999EQDQ01+000000PRSWM2
0092010014999991991010807504+59800+005350FM-15+0049ENSO V0201101N00461007501CN0112001N1+00201-00101999999ADDAG12999GA1011+003609079GA2031+004509089GA3051+007509059MA1098101999999EQDQ01+000000PRSWM2
0063010014999991991010808504+59800+005350FM-15+0049ENSO V0201101N00361006001CN0112001N1+00201+00001999999ADDAG12002GA1021+003609079GA2061+006009059MA1098211999999MW1231
0063010014999991991010809504+59800+005350FM-15+0049ENSO V0201001N00411005401CN0112001N1+00101+00001999999ADDAG12999GA1031+003609079GA2061+005409059MA1098211999999MW1501
0063010014999991991010810504+59800+005350FM-15+0049ENSO V0201301N00211007501CN0112001N1+00201+00001999999ADDAG12999GA1021+003609079GA2051+007509059MA1098311999999MW1201
0079010014999991991010811504+59800+005350FM-15+0049ENSO V0201401N00311006001CN0112001N1+00201-00101999999ADDAG12001GA1021+003609079GA2031+006009089GA3051+009009059MA1098311999999MW1201
0063010014999991991010812504+59800+005350FM-15+0049ENSO V0201601N00261006001CN0070001N1+00201-00101999999ADDAG12999GA1041+002109079GA2061+006009059MA1098411999999MW1681
0079010014999991991010813504+59800+005350FM-15+0049ENSO V0201301N00261005401CN0112001N1+00101+00001999999ADDAG12999GA1011+001209079GA2031+002709079GA3051+005409059MA1098411999999MW1231
0092010014999991991010814504+59800+005350FM-15+0049ENSO V0201401N00361003601CN0112001N1+00101+00001999999ADDAG12000GA1021+001809079GA2031+003609089GA3051+006009059MA1098511999999EQDQ01+000000PRSWM2
0047010014999991991010815504+59800+005350FM-15+0049ENSO V0201701N00261001201CN0015001N1+00001-00101999999ADDAG12999GA1091+001209999MA1098511999999MW1731
0079010014999991991010816504+59800+005350FM-15+0049ENSO V0201401N00211003001CN0112001N1+00001-00101999999ADDAG12999GA1021+001809079GA2031+003009079GA3051+006009059MA1098511999999MW1221
0047010014999991991010905504+59800+005350FM-15+0049ENSO V0200101N00211001501CN0015001N1+00001-00101999999ADDAG12005GA1091+001509999MA1097601999999MW1721
0047010014999991991010906504+59800+005350FM-15+0049ENSO V0203501N00461002101CN0030001N1+00001-00101999999ADDAG12999GA1091+002109999MA1097601999999MW1711
0047010014999991991010907504+59800+005350FM-15+0049ENSO V0203601N00411002401CN0030001N1+00001-00101999999ADDAG12999GA1091+002409999MA1097701999999MW1711
0079010014999991991010908504+59800+005350FM-15+0049ENSO V0203501N00311003901CN0112001N1+00001-00101999999ADDAG12000GA1021+002409079GA2031+003909079GA3061+005409059MA1097801999999MW1221
0076010014999991991010909504+59800+005350FM-15+0049ENSO V0203501N00361009001CN0112001N1+00101+00001999999ADDAG12999GA1011+003009079GA2051+009009059MA1097901999999EQDQ01+000000PRSWM2
0076010014999991991010910504+59800+005350FM-15+0049ENSO V0209991V00051010501CN0112001N1+00101-00301999999ADDAG12999GA1011+003009079GA2051+010509059MA1098001999999EQDQ01+000000PRSWM2
0092010014999991991010911504+59800+005350FM-15+0049ENSO V0201801N00101015001CN0112001N1+00101-00101999999ADDAG12000GA1011+004509089GA2031+010509059GA3051+015009059MA1098211999999EQDQ01+000000PRSWM2
0092010014999991991010912504+59800+005350FM-15+0049ENSO V0201601N00261021001CN0112001N1+00101+00001999999ADDAG12999GA1011+004509089GA2031+009009059GA3051+021009039MA1098211999999EQDQ01+000000PRSWM2
0092010014999991991010913504+59800+005350FM-15+0049ENSO V0201501N00311021001CN0112001N1+00101+00001999999ADDAG12999GA1011+004509089GA2031+009009059GA3051+021009039MA1098311999999EQDQ01+000000PRSWM2
0079010014999991991010914504+59800+005350FM-15+0049ENSO V0201501N00361005401CN0112001N1+00101-00101999999ADDAG12001GA1011+002109079GA2031+003609079GA3061+005409059MA1098411999999MW1251
0079010014999991991010915504+59800+005350FM-15+0049ENSO V0201301N00361003601CN0112001N1+00001-00101999999ADDAG12999GA1021+002109079GA2031+003609079GA3061+004509059MA1098511999999MW1261
0076010014999991991010916504+59800+005350FM-15+0049ENSO V0201401N00361005401CN0112001N1+00101+00001999999ADDAG12999GA1021+002709079GA2041+005409059MA1098511999999EQDQ01+000000PRSWM2
0063010014999991991011005504+59800+005350FM-15+0049ENSO V0201101N00311007501CN0112001N1+00201-00201999999ADDAG12006GA1021+003009079GA2051+007509059MA1097491999999MW1681
0071010014999991991011006504+59800+005350FM-15+0049ENSO V0201101N00721006001CN0112001N1+00201-00201999999ADDAG12999GA1021+003009079GA2061+006009059MA1097291999999MW1681OC101241
0055010014999991991011007504+59800+005350FM-15+0049ENSO V0200801N00771002101CN0050001N1+00101-00101999999ADDAG12999GA1091+002109999MA1096991999999MW1691OC101291
0047010014999991991011008504+59800+005350FM-15+0049ENSO V0200401N00411001501CN0025001N1+00001-00101999999ADDAG12001GA1091+001509999MA1096881999999MW1701
0047010014999991991011009504+59800+005350FM-15+0049ENSO V0203501N00361001501CN0030001N1+00001-00101999999ADDAG12999GA1091+001509999MA1096821999999MW1711
0047010014999991991011010504+59800+005350FM-15+0049ENSO V0203501N00411000901CN0010001N1+00001-00101999999ADDAG12999GA1091+000909999MA1096881999999MW1711
0047010014999991991011011504+59800+005350FM-15+0049ENSO V0203301N00411002101CN0112001N1+00101-00101999999ADDAG12000GA1061+002109079MA1097091999999MW1221
0092010014999991991011012504+59800+005350FM-15+0049ENSO V0203501N00261006001CN0112001N1+00101+00001999999ADDAG12999GA1011+002409079GA2031+003609089GA3051+006009059MA1097291999999EQDQ01+000000PRSWM2
0076010014999991991011013504+59800+005350FM-15+0049ENSO V0209991V00051006601CN0112001N1+00101+00001999999ADDAG12999GA1031+003609089GA2051+006609059MA1097391999999EQDQ01+000000PRSWM2
0085010014999991991011014504+59800+005350FM-15+0049ENSO V0200901N00101005401CN0060001N1+00101+00001999999ADDAG12001GA1031+002409079GA2051+005409059MA1097491999999MW1701REMMET013VIS TO N 9999
0063010014999991991011015504+59800+005350FM-15+0049ENSO V0201001N00211005401CN0090001N1+00101+00001999999ADDAG12999GA1031+002409079GA2051+005409059MA1097701999999MW1701
0079010014999991991011016504+59800+005350FM-15+0049ENSO V0201201N00261005401CN0070001N1+00101+00001999999ADDAG12999GA1021+002409079GA2021+003009099GA3051+005409059MA1097801999999MW1871
0063010014999991991011017504+59800+005350FM-15+0049ENSO V0201501N00101006001CN0112001N1+00101+00001999999ADDAG12002GA1021+002409079GA2041+006009089MA1097801999999MW1271
0071010014999991991011019504+59800+005350FM-15+0049ENSO V0202801N00461004501CN0070001N1+00201+00101999999ADDAG12999GA1021+003009099GA2041+004509089MA1098001999999MW1871OC101031
0076010014999991991011105504+59800+005350FM-15+0049ENSO V0201401N00411220001CN0112001N1+00201+00101999999ADDAG12000GA1011+003009079GA2041+007509089MA1098821999999EQDQ01+000000PRSWM2
0063010014999991991011106504+59800+005350FM-15+0049ENSO V0201401N00511006001CN0112001N1+00201+00101999999ADDAG12999GA1011+003009079GA2051+006009089MA1098921999999MW1251
0076010014999991991011107504+59800+005350FM-15+0049ENSO V0201501N00361005401CN0112001N1+00201+00101999999ADDAG12999GA1021+003009079GA2051+005409089MA1098981999999EQDQ01+000000PRSWM2
0092010014999991991011108504+59800+005350FM-15+0049ENSO V0202301N00511021001CN0112001N1+00401+00101999999ADDAG12000GA1011+003609099GA2031+005409089GA3051+021009039MA1098981999999EQDQ01+000000PRSWM2
0076010014999991991011109504+59800+005350FM-15+0049ENSO V0202201N00361006001CN0112001N1+00501+00101999999ADDAG12999GA1011+003609099GA2051+006009089MA1099091999999EQDQ01+000000PRSWM2
0079010014999991991011110504+59800+005350FM-15+0049ENSO V0202201N00411004501CN0112001N1+00501+00101999999ADDAG12999GA1021+003609099GA2031+004509089GA3051+006009089MA1099191999999MW1251
0087010014999991991011111504+59800+005350FM-15+0049ENSO V0202401N00571004501CN0112001N1+00401+00001999999ADDAG12001GA1021+003609099GA2031+004509089GA3051+007509059MA1099191999999MW1251OC101131
0092010014999991991011112504+59800+005350FM-15+0049ENSO V0202501N00311009001CN0112001N1+00501+00001999999ADDAG12999GA1011+003609099GA2031+004509089GA3041+009009059MA1099291999999EQDQ01+000000PRSWM2
0092010014999991991011113504+59800+005350FM-15+0049ENSO V0202501N00361007501CN0112001N1+00501+00101999999ADDAG12999GA1011+003609099GA2021+004509089GA3051+007509059MA1099291999999EQDQ01+000000PRSWM2
0079010014999991991011114504+59800+005350FM-15+0049ENSO V0202501N00311005401CN0112001N1+00401+00101999999ADDAG12004GA1011+003009099GA2031+004209089GA3051+005409059MA1099391999999MW1801
0063010014999991991011115504+59800+005350FM-15+0049ENSO V0203401N00211004501CN0080001N1+00301+00101999999ADDAG12999GA1031+003009099GA2051+004509059MA1099391999999MW1871
0092010014999991991011116504+59800+005350FM-15+0049ENSO V0209991V00211005401CN0112001N1+00301+00201999999ADDAG12999GA1011+002409079GA2031+003609089GA3051+005409059MA1099491999999EQDQ01+000000PRSWM2
0060010014999991991011406504+59800+005350FM-15+0049ENSO V0201301N00311220001CN0112001N1-00101-00301999999ADDAG12999GA1011+009009059MA1104101999999EQDQ01+000000PRSWM2
0060010014999991991011407504+59800+005350FM-15+0049ENSO V0201401N00261220001CN0112001N1-00101-00201999999ADDAG12999GA1011+009009059MA1104201999999EQDQ01+000000PRSWM2
0076010014999991991011408504+59800+005350FM-15+0049ENSO V0201201N00361220001CN0112001N1-00101-00301999999ADDAG12000GA1021+009009059GA2031+021009039MA1104201999999EQDQ01+000000PRSWM2
0060010014999991991011409504+59800+005350FM-15+0049ENSO V0201201N00461009001CN0112001N1+00001-00501999999ADDAG12999GA1051+009009059MA1104301999999EQDQ01+000000PRSWM2
0060010014999991991011410504+59800+005350FM-15+0049ENSO V0201201N00361220001CN0112001N1+00001-00501999999ADDAG12999GA1041+024009039MA1104301999999EQDQ01+000000PRSWM2
0076010014999991991011411504+59800+005350FM-15+0049ENSO V0201101N00411024001CN0112001N1+00001-00501999999ADDAG12000GA1011+009009059GA2051+024009039MA1104201999999EQDQ01+000000PRSWM2
0076010014999991991011412504+59800+005350FM-15+0049ENSO V0201201N00261054001CN0112001N1+00001-00601999999ADDAG12999GA1021+009009059GA2041+054009029MA1104201999999EQDQ01+000000PRSWM2
0060010014999991991011414504+59800+005350FM-15+0049ENSO V0201401N00211009001CN0112001N1+00101-00501999999ADDAG12000GA1051+009009059MA1104201999999EQDQ01+000000PRSWM2
0060010014999991991011415504+59800+005350FM-15+0049ENSO V0201201N00411009001CN0112001N1+00101-00501999999ADDAG12999GA1051+009009059MA1104201999999EQDQ01+000000PRSWM2
0060010014999991991011416504+59800+005350FM-15+0049ENSO V0201101N00511007501CN0112001N1+00101-00501999999ADDAG12999GA1051+007509059MA1104201999999EQDQ01+000000PRSWM2
0076010014999991991011506504+59800+005350FM-15+0049ENSO V0201101N00361009001CN0112001N1+00201-00401999999ADDAG12999GA1021+004209089GA2051+009009059MA1103891999999EQDQ01+000000PRSWM2
0076010014999991991011507504+59800+005350FM-15+0049ENSO V0201201N00411009001CN0112001N1+00201-00401999999ADDAG12999GA1011+005409089GA2051+009009059MA1103891999999EQDQ01+000000PRSWM2
0076010014999991991011508504+59800+005350FM-15+0049ENSO V0201201N00311009001CN0112001N1+00201-00401999999ADDAG12000GA1011+005409089GA2051+009009059MA1103891999999EQDQ01+000000PRSWM2
0076010014999991991011509504+59800+005350FM-15+0049ENSO V0201101N00411009001CN0112001N1+00201-00401999999ADDAG12999GA1011+005409089GA2051+009009059MA1103891999999EQDQ01+000000PRSWM2
0060010014999991991011511504+59800+005350FM-15+0049ENSO V0201201N00461220001CN0112001N1+00101-00501999999ADDAG12000GA1041+009009059MA1103791999999EQDQ01+000000PRSWM2
0060010014999991991011512504+59800+005350FM-15+0049ENSO V0201401N00461220001CN0112001N1+00201-00501999999ADDAG12999GA1031+009009059MA1103791999999EQDQ01+000000PRSWM2
0060010014999991991011513504+59800+005350FM-15+0049ENSO V0201501N00461220001CN0112001N1+00101-00501999999ADDAG12999GA1011+009009059MA1103791999999EQDQ01+000000PRSWM2
0060010014999991991011514504+59800+005350FM-15+0049ENSO V0201401N00571220001CN0112001N1+00101-00501999999ADDAG12000GA1021+009009059MA1103691999999EQDQ01+000000PRSWM2
0060010014999991991011515504+59800+005350FM-15+0049ENSO V0201301N00461220001CN0112001N1-00101-00501999999ADDAG12999GA1021+009009059MA1103691999999EQDQ01+000000PRSWM2
0060010014999991991011516504+59800+005350FM-15+0049ENSO V0201401N00361220001CN0112001N1-00101-00501999999ADDAG12999GA1021+009009059MA1103591999999EQDQ01+000000PRSWM2
0060010014999991991011606504+59800+005350FM-15+0049ENSO V0201501N00461220001CN0112001N1+00201-01001999999ADDAG12999GA1011+009009059MA1102911999999EQDQ01+000000PRSWM2
0060010014999991991011607504+59800+005350FM-15+0049ENSO V0201401N00461220001CN0112001N1+00101-00901999999ADDAG12999GA1011+009009059MA1103011999999EQDQ01+000000PRSWM2
0060010014999991991011608504+59800+005350FM-15+0049ENSO V0201501N00461220001CN0112001N1+00101-00901999999ADDAG12000GA1011+009009059MA1103011999999EQDQ01+000000PRSWM2
0060010014999991991011609504+59800+005350FM-15+0049ENSO V0201601N00361220001CN0112001N1+00201-00901999999ADDAG12999GA1011+009009059MA1103011999999EQDQ01+000000PRSWM2
0060010014999991991011610504+59800+005350FM-15+0049ENSO V0201601N00461220001CN0112001N1+00301-00801999999ADDAG12999GA1011+009009059MA1103011999999EQDQ01+000000PRSWM2
0060010014999991991011612504+59800+005350FM-15+0049ENSO V0201801N00571220001CN0112001N1+00401-01001999999ADDAG12999GA1011+010509059MA1103011999999EQDQ01+000000PRSWM2
0060010014999991991011613504+59800+005350FM-15+0049ENSO V0201601N00461220001CN0112001N1+00301-01101999999ADDAG12999GA1011+010509059MA1102911999999EQDQ01+000000PRSWM2
0060010014999991991011614504+59800+005350FM-15+0049ENSO V0201601N00411220001CN0112001N1+00201-01101999999ADDAG12000GA1011+009009059MA1102911999999EQDQ01+000000PRSWM2
0060010014999991991011615504+59800+005350FM-15+0049ENSO V0201701N00411220001CN0112001N1+00201-00901999999ADDAG12999GA1011+006009089MA1102911999999EQDQ01+000000PRSWM2
0060010014999991991011616504+59800+005350FM-15+0049ENSO V0201501N00311220001CN0112001N1+00101-01001999999ADDAG12999GA1011+006009089MA1102911999999EQDQ01+000000PRSWM2
0081010014999991991011705504+59800+005350FM-15+0049ENSO V0201501N00211220001CN0112001N1+99999+99999999999ADDAG12000GA1011+007509059MA1102301999999REMMET012RJCT40  2712EQDQ01+000000PRSWM2
0060010014999991991011706504+59800+005350FM-15+0049ENSO V0201501N00361220001CN0112001N1-00201-00301999999ADDAG12999GA1011+007509059MA1102301999999EQDQ01+000000PRSWM2
0060010014999991991011707504+59800+005350FM-15+0049ENSO V0201501N00411220001CN0112001N1-00201-00301999999ADDAG12999GA1011+007509059MA1102201999999EQDQ01+000000PRSWM2
0060010014999991991011708504+59800+005350FM-15+0049ENSO V0201501N00361220001CN0112001N1-00101-00301999999ADDAG12000GA1011+009009059MA1102201999999EQDQ01+000000PRSWM2
0060010014999991991011709504+59800+005350FM-15+0049ENSO V0201401N00311220001CN0112001N1-00101-00401999999ADDAG12999GA1011+009009059MA1102201999999EQDQ01+000000PRSWM2
0060010014999991991011710504+59800+005350FM-15+0049ENSO V0201701N00461220001CN0112001N1+00101-00501999999ADDAG12999GA1011+009009059MA1102201999999EQDQ01+000000PRSWM2
0060010014999991991011711504+59800+005350FM-15+0049ENSO V0201501N00621220001CN0112001N1+00201-00401999999ADDAG12000GA1011+009009059MA1102201999999EQDQ01+000000PRSWM2
0060010014999991991011712504+59800+005350FM-15+0049ENSO V0201501N00571220001CN0112001N1+00301-00601999999ADDAG12999GA1011+009009059MA1102101999999EQDQ01+000000PRSWM2
0060010014999991991011713504+59800+005350FM-15+0049ENSO V0201501N00881220001CN0112001N1+00301-00601999999ADDAG12999GA1011+054009029MA1102001999999EQDQ01+000000PRSWM2
0060010014999991991011714504+59800+005350FM-15+0049ENSO V0201501N00671220001CN0112001N1+00301-00701999999ADDAG12000GA1011+045009039MA1102001999999EQDQ01+000000PRSWM2
0060010014999991991011715504+59800+005350FM-15+0049ENSO V0201401N00511220001CN0112001N1+00201-00601999999ADDAG12999GA1011+045009039MA1101901999999EQDQ01+000000PRSWM2
0060010014999991991011716504+59800+005350FM-15+0049ENSO V0201401N00671220001CN0112001N1+00301-00601999999ADDAG12999GA1011+036009039MA1101901999999EQDQ01+000000PRSWM2
0076010014999991991011806504+59800+005350FM-15+0049ENSO V0201501N00211220001CN0112001N1+00401+00301999999ADDAG12999GA1011+003609079GA2031+006009089MA1102511999999EQDQ01+000000PRSWM2
0063010014999991991011807504+59800+005350FM-15+0049ENSO V0201301N00361220001CN0090001N1+00301+00201999999ADDAG12999GA1011+002109079GA2031+004209059MA1102511999999MW1101
0079010014999991991011808504+59800+005350FM-15+0049ENSO V0201401N00261004501CN0090001N1+00401+00301999999ADDAG12000GA1031+002109079GA2031+004509059GA3041+027009039MA1102611999999MW1101
0079010014999991991011809504+59800+005350FM-15+0049ENSO V0201601N00211003001CN0080001N1+00401+00301999999ADDAG12999GA1011+000909079GA2031+001509079GA3051+003009079MA1102711999999MW1101
0079010014999991991011810504+59800+005350FM-15+0049ENSO V0201401N00511003601CN0090001N1+00501+00301999999ADDAG12999GA1011+000909079GA2031+002109079GA3051+003609059MA1102711999999MW1101
0076010014999991991011811504+59800+005350FM-15+0049ENSO V0201501N00511006001CN0112001N1+00501+00401999999ADDAG12000GA1021+003009079GA2041+006009059MA1102611999999EQDQ01+000000PRSWM2
0060010014999991991011812504+59800+005350FM-15+0049ENSO V0201301N00511220001CN0112001N1+00501+00201999999ADDAG12999GA1021+007509059MA1102611999999EQDQ01+000000PRSWM2
0060010014999991991011813504+59800+005350FM-15+0049ENSO V0201501N00461007501CN0112001N1+00601+00101999999ADDAG12999GA1051+007509059MA1102511999999EQDQ01+000000PRSWM2
0076010014999991991011814504+59800+005350FM-15+0049ENSO V0201501N00621007501CN0112001N1+00601+00101999999ADDAG12000GA1021+005409059GA2051+007509059MA1102511999999EQDQ01+000000PRSWM2
0076010014999991991011815504+59800+005350FM-15+0049ENSO V0201601N00621007501CN0112001N1+00501+00001999999ADDAG12999GA1021+006009089GA2041+007509059MA1102401999999EQDQ01+000000PRSWM2
0060010014999991991011816504+59800+005350FM-15+0049ENSO V0201601N00571220001CN0112001N1+00401+00101999999ADDAG12999GA1011+006009089MA1102301999999EQDQ01+000000PRSWM2
0060010014999991991012104504+59800+005350FM-15+0049ENSO V0203501N00771220001CN0112001N1+00201-00201999999ADDAG12999GA1011+005409089MA1102201999999EQDQ01+000000PRSWM2
0060010014999991991012105504+59800+005350FM-15+0049ENSO V0203501N00721220001CN0112001N1+00201-00201999999ADDAG12000GA1011+005409089MA1102401999999EQDQ01+000000PRSWM2
0060010014999991991012106504+59800+005350FM-15+0049ENSO V0203501N00771220001CN0112001N1+00201-00201999999ADDAG12999GA1011+006009089MA1102511999999EQDQ01+000000PRSWM2
0060010014999991991012107504+59800+005350FM-15+0049ENSO V0203501N00771220001CN0112001N1+00201-00301999999ADDAG12999GA1011+006009089MA1102711999999EQDQ01+000000PRSWM2
0060010014999991991012108504+59800+005350FM-15+0049ENSO V0203601N00571220001CN0112001N1+00201-00301999999ADDAG12000GA1011+006009089MA1102911999999EQDQ01+000000PRSWM2
0060010014999991991012109504+59800+005350FM-15+0049ENSO V0203501N00461220001CN0112001N1+00201-00401999999ADDAG12999GA1011+006009059MA1103011999999EQDQ01+000000PRSWM2
0060010014999991991012110504+59800+005350FM-15+0049ENSO V0203501N00621220001CN0112001N1+00301-00301999999ADDAG12999GA1011+006009059MA1103121999999EQDQ01+000000PRSWM2
0060010014999991991012111504+59800+005350FM-15+0049ENSO V0203501N00461220001CN0112001N1+00301-00301999999ADDAG12000GA1011+006009059MA1103181999999EQDQ01+000000PRSWM2
0060010014999991991012112504+59800+005350FM-15+0049ENSO V0200101N00361220001CN0112001N1+00401-00201999999ADDAG12999GA1011+006009089MA1103291999999EQDQ01+000000PRSWM2
0060010014999991991012113504+59800+005350FM-15+0049ENSO V0203401N00311220001CN0112001N1+00401-00201999999ADDAG12999GA1011+006009089MA1103391999999EQDQ01+000000PRSWM2
0060010014999991991012114504+59800+005350FM-15+0049ENSO V0203301N00361220001CN0112001N1+00301-00301999999ADDAG12000GA1011+006009089MA1103491999999EQDQ01+000000PRSWM2
0060010014999991991012115504+59800+005350FM-15+0049ENSO V0200401N00151220001CN0112001N1+00201-00301999999ADDAG12999GA1011+006009089MA1103491999999EQDQ01+000000PRSWM2
0060010014999991991012116504+59800+005350FM-15+0049ENSO V0202401N00051220001CN0112001N1+00201-00201999999ADDAG12999GA1011+006009089MA1103591999999EQDQ01+000000PRSWM2
0060010014999991991012117504+59800+005350FM-15+0049ENSO V0203101N00051220001CN0112001N1+00101-00301999999ADDAG12000GA1011+006009089MA1103691999999EQDQ01+000000PRSWM2
0060010014999991991012118504+59800+005350FM-15+0049ENSO V0203501N00101220001CN0112001N1-00101-00501999999ADDAG12999GA1011+006009089MA1103791999999EQDQ01+000000PRSWM2
0076010014999991991012205504+59800+005350FM-15+0049ENSO V0201401N00361009001CN0112001N1+00201-00301999999ADDAG12000GA1021+006009059GA2051+009009059MA1103891999999EQDQ01+000000PRSWM2
0076010014999991991012206504+59800+005350FM-15+0049ENSO V0201301N00311009001CN0112001N1+00201-00301999999ADDAG12999GA1021+006009059GA2051+009009059MA1103891999999EQDQ01+000000PRSWM2
0060010014999991991012207504+59800+005350FM-15+0049ENSO V0201301N00361007501CN0112001N1+00201-00401999999ADDAG12999GA1051+007509059MA1103891999999EQDQ01+000000PRSWM2
0060010014999991991012208504+59800+005350FM-15+0049ENSO V0201201N00361006001CN0112001N1+00201-00401999999ADDAG12000GA1061+006009059MA1103891999999EQDQ01+000000PRSWM2
0079010014999991991012209504+59800+005350FM-15+0049ENSO V0201201N00361004201CN0080001N1+00201-00201999999ADDAG12999GA1021+003009079GA2031+004209059GA3061+005409059MA1103891999999MW1511
0047010014999991991012210504+59800+005350FM-15+0049ENSO V0201301N00361001801CN0050001N1+00201+00101999999ADDAG12999GA1091+001809999MA1103891999999MW1511
0063010014999991991012211504+59800+005350FM-15+0049ENSO V0201201N00511002101CN0090001N1+00201+00101999999ADDAG12001GA1021+001209079GA2061+002109079MA1103891999999MW1201
0063010014999991991012212504+59800+005350FM-15+0049ENSO V0201401N00571001801CN0070001N1+00201+00101999999ADDAG12999GA1031+000909079GA2061+001809079MA1103791999999MW1101
0047010014999991991012213504+59800+005350FM-15+0049ENSO V0201401N00511001201CN0060001N1+00201+00101999999ADDAG12999GA1091+001209999MA1103691999999MW1101
0079010014999991991012214504+59800+005350FM-15+0049ENSO V0201401N00571002101CN0070001N1+00301+00201999999ADDAG11003GA1011+000609079GA2031+001209079GA3051+002109079MA1103691999999MW1581
0063010014999991991012215504+59800+005350FM-15+0049ENSO V0201401N00411001501CN0020001N1+00301+00201999999ADDAG11999GA1011+000159079GA2051+001509079MA1103691999999MW1591
0079010014999991991012216504+59800+005350FM-15+0049ENSO V0201401N00511001501CN0040001N1+00301+00201999999ADDAG11999GA1021+000609079GA2041+001509079GA3061+002409079MA1103591999999MW1591
0047010014999991991012306504+59800+005350FM-15+0049ENSO V0201501N00211000301CN0003001N1+00401+00301999999ADDAG12999GA1091+000309999MA1103181999999MW1471
0047010014999991991012307504+59800+005350FM-15+0049ENSO V0201401N00261000151CN0001001N1+00401+00301999999ADDAG12999GA1091+000159999MA1103181999999MW1471
0079010014999991991012308504+59800+005350FM-15+0049ENSO V0209991V00261001501CN0050001N1+00601+00401999999ADDAG12001GA1011+000309079GA2031+000909079GA3061+001509079MA1103181999999MW1511
0079010014999991991012309504+59800+005350FM-15+0049ENSO V0202601N00151007501CN0112001N1+00601+00401999999ADDAG12999GA1011+000609079GA2031+002409089GA3051+007509059MA1103181999999MW1201
0076010014999991991012310504+59800+005350FM-15+0049ENSO V0202701N00151001801CN0112001N1+00601+00401999999ADDAG12999GA1021+000909079GA2051+001809079MA1103181999999EQDQ01+000000PRSWM2
0076010014999991991012312504+59800+005350FM-15+0049ENSO V0209991V00101002401CN0112001N1+00701+00501999999ADDAG12999GA1021+001809079GA2051+002409079MA1103121999999EQDQ01+000000PRSWM2
0063010014999991991012313504+59800+005350FM-15+0049ENSO V0202901N00101002401CN0112001N1+00601+00401999999ADDAG12999GA1021+001509079GA2061+002409079MA1103011999999MW1101
0047010014999991991012314504+59800+005350FM-15+0049ENSO V0202901N00101001201CN0025001N1+00601+00401999999ADDAG12000GA1091+001209999MA1103011999999MW1101
0083010014999991991012315504+59800+005350FM-15+0049ENSO V0203201N00261002101CN0050001N1+00601+00401999999ADDAG12999GA1091+002109999MA1103011999999MW1101REMMET027VIS TO N         ?     7000
0047010014999991991012316504+59800+005350FM-15+0049ENSO V0209991V00101001501CN0045001N1+00601+00401999999ADDAG12999GA1091+001509999MA1103011999999MW1101
0047010014999991991012317504+59800+005350FM-15+0049ENSO V0209991V00051000601CN0015001N1+00601+00401999999ADDAG12001GA1091+000609999MA1103011999999MW1501
0047010014999991991012318504+59800+005350FM-15+0049ENSO V0203101N00101000901CN0012001N1+00601+00401999999ADDAG12999GA1091+000909999MA1103121999999MW1501
0047010014999991991012406504+59800+005350FM-15+0049ENSO V0203301N00261220001CN0112001N1+00201+00101999999ADDAG12999GA1011+003609089MA1103391999999MW1401
0063010014999991991012407504+59800+005350FM-15+0049ENSO V0209991C00001220001CN0112001N1+00101+00001999999ADDAG12999GA1011+003009079GA2031+054009029MA1103391999999MW1111
0063010014999991991012409504+59800+005350FM-15+0049ENSO V0202001N00101220001CN0112001N1+00201+00101999999ADDAG12999GA1011+001809079GA2031+060009009MA1103391999999MW1111
0063010014999991991012410504+59800+005350FM-15+0049ENSO V0201701N00051220001CN0112001N1+00401+00301999999ADDAG12999GA1011+002409079GA2031+060009009MA1103491999999MW1111
0076010014999991991012411504+59800+005350FM-15+0049ENSO V0209991C00001009001CN0112001N1+00401+00201999999ADDAG12000GA1021+002109079GA2041+009009059MA1103491999999EQDQ01+000000PRSWM2
0076010014999991991012412504+59800+005350FM-15+0049ENSO V0201401N00151009001CN0112001N1+00501+00301999999ADDAG12999GA1021+002109079GA2051+009009059MA1103391999999EQDQ01+000000PRSWM2
0076010014999991991012413504+59800+005350FM-15+0049ENSO V0202301N00101009001CN0112001N1+00401+00301999999ADDAG12999GA1021+001509079GA2051+009009059MA1103391999999EQDQ01+000000PRSWM2
0079010014999991991012414504+59800+005350FM-15+0049ENSO V0201801N00101002101CN0080001N1+00301+00201999999ADDAG12000GA1021+001209079GA2031+002109079GA3061+004509059MA1103391999999MW1101
0114010014999991991012415504+59800+005350FM-15+0049ENSO V0201401N00261002101CN0060001N1+00301+00201999999ADDAG12999GA1021+000909079GA2031+002109079GA3061+003009079MA1103391999999MW1101REMMET026VIS        ?     TO N 8000
0079010014999991991012416504+59800+005350FM-15+0049ENSO V0201601N00151001801CN0060001N1+00301+00201999999ADDAG12999GA1021+000909079GA2031+001809079GA3061+003009079MA1103391999999MW1101
0079010014999991991012505504+59800+005350FM-15+0049ENSO V0201501N00051001801CN0070001N1+00301+00201999999ADDAG12001GA1021+001209079GA2031+001809079GA3061+002709079MA1103121999999MW1511
0079010014999991991012506504+59800+005350FM-15+0049ENSO V0201401N00211001801CN0040001N1+00301+00201999999ADDAG12999GA1021+001209079GA2031+001809079GA3061+002709079MA1103121999999MW1511
0047010014999991991012507504+59800+005350FM-15+0049ENSO V0209991C00001001501CN0030001N1+00401+00201999999ADDAG12999GA1091+001509999MA1103121999999MW1511
0079010014999991991012508504+59800+005350FM-15+0049ENSO V0209991C00001001501CN0070001N1+00301+00201999999ADDAG12000GA1021+000609079GA2031+001509079GA3061+002109079MA1103121999999MW1101
0114010014999991991012509504+59800+005350FM-15+0049ENSO V0201401N00211001201CN0040001N1+00401+00301999999ADDAG12999GA1021+000609079GA2031+001209079GA3061+002409079MA1103121999999MW1101REMMET026VIS        ?     TO N 8000
0085010014999991991012510504+59800+005350FM-15+0049ENSO V0201401N00211001501CN0030001N1+00401+00301999999ADDAG12999GA1031+000609079GA2061+001509079MA1103011999999MW1101REMMET013VIS TO N 7000
0047010014999991991012511504+59800+005350FM-15+0049ENSO V0201501N00101000901CN0025001N1+00401+00301999999ADDAG12000GA1091+000909999MA1103011999999MW1101
0047010014999991991012512504+59800+005350FM-15+0049ENSO V0202501N00151001801CN0050001N1+00501+00401999999ADDAG12999GA1091+001809999MA1103011999999MW1511
0079010014999991991012513504+59800+005350FM-15+0049ENSO V0209991C00001002701CN0112001N1+00501+00401999999ADDAG12999GA1011+000609079GA2031+001509079GA3061+002709079MA1102911999999MW1201
0063010014999991991012514504+59800+005350FM-15+0049ENSO V0203201N00211003001CN0112001N1+00501+00401999999ADDAG12001GA1031+002109079GA2051+003009079MA1102911999999MW1201
0076010014999991991012515504+59800+005350FM-15+0049ENSO V0203601N00051006001CN0112001N1+00401+00301999999ADDAG12999GA1031+002409079GA2061+006009059MA1102911999999EQDQ01+000000PRSWM2
0063010014999991991012516504+59800+005350FM-15+0049ENSO V0209991V00101002101CN0112001N1+00401+00301999999ADDAG12999GA1031+001209079GA2061+002109079MA1102811999999MW1511
0076010014999991991012806504+59800+005350FM-15+0049ENSO V0201601N00211002401CN0112001N1+00201-00101999999ADDAG12999GA1021+001209079GA2051+002409079MA1103121999999EQDQ01+000000PRSWM2
0079010014999991991012807504+59800+005350FM-15+0049ENSO V0201601N00151001201CN0080001N1+00201+00001999999ADDAG12999GA1021+000309079GA2041+001209079GA3061+001809079MA1103121999999MW1501
0047010014999991991012808504+59800+005350FM-15+0049ENSO V0201401N00101000901CN0010001N1+00201+00101999999ADDAG12000GA1091+000909999MA1103121999999MW1471
0047010014999991991012809504+59800+005350FM-15+0049ENSO V0201201N00051000601CN0008001N1+00301+00201999999ADDAG12999GA1091+000609999MA1103121999999MW1471
0079010014999991991012810504+59800+005350FM-15+0049ENSO V0201401N00101004501CN0080001N1+00301+00101999999ADDAG12999GA1011+000609079GA2031+001809079GA3051+004509059MA1103011999999MW1401
0085010014999991991012811504+59800+005350FM-15+0049ENSO V0201501N00101001801CN0030001N1+00301+00101999999ADDAG12000GA1031+000609079GA2061+001809079MA1103011999999MW1401REMMET013VIS TO N 7000
0047010014999991991012812504+59800+005350FM-15+0049ENSO V0201401N00151000901CN0025001N1+00301+00101999999ADDAG12999GA1091+000909999MA1102911999999MW1471
0047010014999991991012813504+59800+005350FM-15+0049ENSO V0200601N00101001201CN0020001N1+00301+00101999999ADDAG12999GA1091+001209999MA1102911999999MW1471
0047010014999991991012814504+59800+005350FM-15+0049ENSO V0201501N00151000601CN0012001N1+00301+00101999999ADDAG12000GA1091+000609999MA1102911999999MW1471
0047010014999991991012815504+59800+005350FM-15+0049ENSO V0201401N00101000301CN0010001N1+00301+00101999999ADDAG12999GA1091+000309999MA1102811999999MW1471
0047010014999991991012816504+59800+005350FM-15+0049ENSO V0201401N00211000901CN0020001N1+00301+00101999999ADDAG12999GA1091+000909999MA1102811999999MW1471
0079010014999991991012905504+59800+005350FM-15+0049ENSO V0201301N00261003001CN0112001N1+00201+00101999999ADDAG12001GA1021+002109079GA2031+003009079GA3061+006009059MA1102611999999MW1201
0076010014999991991012906504+59800+005350FM-15+0049ENSO V0201301N00361007501CN0112001N1+00201+00101999999ADDAG12999GA1021+002109079GA2061+007509059MA1102611999999EQDQ01+000000PRSWM2
0076010014999991991012907504+59800+005350FM-15+0049ENSO V0201201N00311006001CN0112001N1+00201+00001999999ADDAG12999GA1021+002409079GA2061+006009059MA1102711999999EQDQ01+000000PRSWM2
0076010014999991991012908504+59800+005350FM-15+0049ENSO V0201201N00411009001CN0112001N1+00201+00001999999ADDAG12000GA1011+002409079GA2061+009009059MA1102711999999EQDQ01+000000PRSWM2
0076010014999991991012909504+59800+005350FM-15+0049ENSO V0201101N00311009001CN0112001N1+00201+00001999999ADDAG12999GA1011+002409079GA2061+009009059MA1102711999999EQDQ01+000000PRSWM2
0076010014999991991012910504+59800+005350FM-15+0049ENSO V0201201N00211009001CN0112001N1+00301+00001999999ADDAG12999GA1011+002409079GA2061+009009059MA1102711999999EQDQ01+000000PRSWM2
0076010014999991991012911504+59800+005350FM-15+0049ENSO V0201301N00311007501CN0112001N1+00301+00001999999ADDAG12000GA1011+003009079GA2051+007509059MA1102711999999EQDQ01+000000PRSWM2
0076010014999991991012912504+59800+005350FM-15+0049ENSO V0201301N00361007501CN0112001N1+00301+00001999999ADDAG12999GA1021+003609089GA2051+007509059MA1102511999999EQDQ01+000000PRSWM2
0076010014999991991012913504+59800+005350FM-15+0049ENSO V0201401N00361007501CN0112001N1+00301+00001999999ADDAG12999GA1021+003609089GA2051+007509059MA1102611999999EQDQ01+000000PRSWM2
0076010014999991991012914504+59800+005350FM-15+0049ENSO V0201401N00311009001CN0112001N1+00301-00101999999ADDAG12000GA1011+003609089GA2051+009009059MA1102711999999EQDQ01+000000PRSWM2
0076010014999991991012915504+59800+005350FM-15+0049ENSO V0201201N00411009001CN0112001N1+00301+00001999999ADDAG12999GA1011+003609089GA2051+009009059MA1102711999999EQDQ01+000000PRSWM2
0076010014999991991012916504+59800+005350FM-15+0049ENSO V0201401N00411009001CN0112001N1+00301-00101999999ADDAG12999GA1011+004509089GA2051+009009059MA1102711999999EQDQ01+000000PRSWM2
0063010014999991991013006504+59800+005350FM-15+0049ENSO V0201701N00311007501CN0112001N1+00201+00001999999ADDAG12999GA1011+003009079GA2051+007509059MA1102811999999MW1511
0092010014999991991013008504+59800+005350FM-15+0049ENSO V0201501N00261010501CN0112001N1+00201+00001999999ADDAG12000GA1011+003609089GA2031+007509059GA3051+010509059MA1102911999999EQDQ01+000000PRSWM2
0076010014999991991013009504+59800+005350FM-15+0049ENSO V0201201N00261010501CN0112001N1+00301-00301999999ADDAG12999GA1011+004509089GA2051+010509059MA1102911999999EQDQ01+000000PRSWM2
0076010014999991991013010504+59800+005350FM-15+0049ENSO V0201101N00411012001CN0112001N1+00401-00401999999ADDAG12999GA1011+005409089GA2051+012009059MA1102911999999EQDQ01+000000PRSWM2
0076010014999991991013011504+59800+005350FM-15+0049ENSO V0201201N00311012001CN0112001N1+00301-00501999999ADDAG12000GA1011+005409089GA2061+012009059MA1102911999999EQDQ01+000000PRSWM2
0076010014999991991013012504+59800+005350FM-15+0049ENSO V0201301N00311012001CN0112001N1+00301-00501999999ADDAG12999GA1011+006009059GA2051+012009059MA1102911999999EQDQ01+000000PRSWM2
0060010014999991991013013504+59800+005350FM-15+0049ENSO V0201401N00211012001CN0112001N1+00301-00501999999ADDAG12999GA1061+012009059MA1102911999999EQDQ01+000000PRSWM2
0076010014999991991013014504+59800+005350FM-15+0049ENSO V0201401N00261012001CN0112001N1+00301-00501999999ADDAG12000GA1021+007509059GA2061+012009059MA1102911999999EQDQ01+000000PRSWM2
0076010014999991991013015504+59800+005350FM-15+0049ENSO V0201601N00261012001CN0112001N1+00301-00501999999ADDAG12999GA1021+007509059GA2051+012009059MA1102911999999EQDQ01+000000PRSWM2
0076010014999991991013016504+59800+005350FM-15+0049ENSO V0201701N00311012001CN0112001N1+00301-00201999999ADDAG12999GA1021+007509059GA2051+012009059MA1102911999999EQDQ01+000000PRSWM2
0063010014999991991013105504+59800+005350FM-15+0049ENSO V0201401N00461006901CN0112001N1+00201-00601999999ADDAG12001GA1011+006009059GA2061+006909059MA1102911999999MW1701
0079010014999991991013106504+59800+005350FM-15+0049ENSO V0201601N00621010501CN0112001N1+00201-00601999999ADDAG12999GA1011+006009059GA2031+007509059GA3061+010509059MA1102911999999MW1701
0079010014999991991013107504+59800+005350FM-15+0049ENSO V0201601N00461010501CN0112001N1+00201-00601999999ADDAG12999GA1011+006009059GA2031+007509059GA3061+010509059MA1103011999999MW1221
0076010014999991991013108504+59800+005350FM-15+0049ENSO V0201601N00051010501CN0112001N1+00201-00601999999ADDAG12000GA1021+007509059GA2051+010509059MA1103011999999EQDQ01+000000PRSWM2
0076010014999991991013109504+59800+005350FM-15+0049ENSO V0201601N00411010501CN0112001N1+00201-00401999999ADDAG12999GA1021+007509059GA2061+010509059MA1103011999999EQDQ01+000000PRSWM2
0092010014999991991013110504+59800+005350FM-15+0049ENSO V0201601N00571015001CN0112001N1+00301-00301999999ADDAG12999GA1011+005409089GA2031+009009059GA3051+015009039MA1103011999999EQDQ01+000000PRSWM2
0076010014999991991013111504+59800+005350FM-15+0049ENSO V0201601N00621012001CN0112001N1+00301-00401999999ADDAG12000GA1011+005409089GA2051+012009059MA1103011999999EQDQ01+000000PRSWM2
0100010014999991991013112504+59800+005350FM-15+0049ENSO V0201701N00511018001CN0112001N1+00301-00401999999ADDAG12999GA1011+004509089GA2031+009009059GA3051+018009039MA1103011999999OC101031EQDQ01+000000PRSWM2
0076010014999991991013113504+59800+005350FM-15+0049ENSO V0201801N00511012001CN0112001N1+00201-00301999999ADDAG12999GA1021+004509089GA2051+012009059MA1103011999999EQDQ01+000000PRSWM2
0063010014999991991013114504+59800+005350FM-15+0049ENSO V0201701N00461007501CN0112001N1+00201-00301999999ADDAG12001GA1031+003909059GA2051+007509059MA1103011999999MW1701
0099010014999991991013115504+59800+005350FM-15+0049ENSO V0201701N00571006001CN0080001N1+00101-00101999999ADDAG12999GA1031+003609059GA2051+006009059MA1103011999999MW1711REMMET027PAST MAX         ?     22KT
0079010014999991991013116504+59800+005350FM-15+0049ENSO V0201801N00571006001CN0112001N1+00101-00101999999ADDAG12999GA1021+003609089GA2031+006009059GA3061+015009059MA1103011999999MW1701
0076010014999991991020106504+59800+005350FM-15+0049ENSO V0201701N00211010501CN0112001N1-00101-00801999999ADDAG12999GA1021+006009089GA2041+010509059MA1103011999999EQDQ01+000000PRSWM2
0076010014999991991020109504+59800+005350FM-15+0049ENSO V0201901N00211220001CN0112001N1+00001-00801999999ADDAG12999GA1011+005409089GA2031+009009059MA1103011999999EQDQ01+000000PRSWM2
0076010014999991991020110504+59800+005350FM-15+0049ENSO V0201601N00101220001CN0112001N1+00001-01001999999ADDAG12999GA1011+006009089GA2031+010509059MA1103121999999EQDQ01+000000PRSWM2
0076010014999991991020111504+59800+005350FM-15+0049ENSO V0201901N00151220001CN0112001N1+00001-01001999999ADDAG12000GA1011+006009089GA2031+009009059MA1103121999999EQDQ01+000000PRSWM2
0076010014999991991020112504+59800+005350FM-15+0049ENSO V0201901N00211220001CN0112001N1+00101-00901999999ADDAG12999GA1011+006009089GA2031+009009059MA1103121999999EQDQ01+000000PRSWM2
0076010014999991991020113504+59800+005350FM-15+0049ENSO V0202001N00211220001CN0112001N1+00101-00901999999ADDAG12999GA1011+006009089GA2031+012009059MA1103121999999EQDQ01+000000PRSWM2
0060010014999991991020114504+59800+005350FM-15+0049ENSO V0202101N00211220001CN0112001N1+00001-00901999999ADDAG12000GA1031+012009059MA1103121999999EQDQ01+000000PRSWM2
0060010014999991991020115504+59800+005350FM-15+0049ENSO V0202101N00051220001CN0112001N1-00101-00901999999ADDAG12999GA1021+012009059MA1103121999999EQDQ01+000000PRSWM2
0060010014999991991020116504+59800+005350FM-15+0049ENSO V0202801N00051220001CN0112001N1-00201-01001999999ADDAG12999GA1021+012009059MA1103121999999EQDQ01+000000PRSWM2
0044010014999991991020404504+59800+005350FM-15+0049ENSO V0201401N00261220001CN0112001N1-00301-01201999999ADDAG12999MA1104301999999EQDQ01+000000PRSWM2
0044010014999991991020406504+59800+005350FM-15+0049ENSO V0201401N00261220001CN0112001N1-00301-01001999999ADDAG12999MA1104301999999EQDQ01+000000PRSWM2
0044010014999991991020407504+59800+005350FM-15+0049ENSO V0201301N00211220001CN0112001N1-00301-01001999999ADDAG12999MA1104401999999EQDQ01+000000PRSWM2
0044010014999991991020408504+59800+005350FM-15+0049ENSO V0201601N00151220001CN0112001N1-00201-00901999999ADDAG12000MA1104501999999EQDQ01+000000PRSWM2
0060010014999991991020409504+59800+005350FM-15+0049ENSO V0200901N00101220001CN0112001N1-00201-00901999999ADDAG12999GA1011+006009089MA1104501999999EQDQ01+000000PRSWM2
0060010014999991991020410504+59800+005350FM-15+0049ENSO V0201901N00101220001CN0112001N1-00101-00901999999ADDAG12999GA1011+006009089MA1104501999999EQDQ01+000000PRSWM2
0060010014999991991020411504+59800+005350FM-15+0049ENSO V0201501N00261220001CN0112001N1+00301-01501999999ADDAG12000GA1011+006009089MA1104501999999EQDQ01+000000PRSWM2
0060010014999991991020412504+59800+005350FM-15+0049ENSO V0201501N00411220001CN0112001N1+00401-02001999999ADDAG12999GA1011+006009089MA1104501999999EQDQ01+000000PRSWM2
0060010014999991991020413504+59800+005350FM-15+0049ENSO V0201301N00411220001CN0112001N1+00401-02201999999ADDAG12999GA1011+045009039MA1104501999999EQDQ01+000000PRSWM2
0060010014999991991020414504+59800+005350FM-15+0049ENSO V0201101N00261220001CN0112001N1+00401-02401999999ADDAG12000GA1011+045009039MA1104501999999EQDQ01+000000PRSWM2
0060010014999991991020415504+59800+005350FM-15+0049ENSO V0201201N00151220001CN0112001N1+00301-02601999999ADDAG12999GA1011+045009039MA1104501999999EQDQ01+000000PRSWM2
0060010014999991991020416504+59800+005350FM-15+0049ENSO V0201201N00211220001CN0112001N1+00101-02401999999ADDAG12999GA1011+045009039MA1104501999999EQDQ01+000000PRSWM2
0060010014999991991020506504+59800+005350FM-15+0049ENSO V0200901N00211220001CN0112001N1-00101-01401999999ADDAG12999GA1011+021009039MA1104611999999EQDQ01+000000PRSWM2
0060010014999991991020507504+59800+005350FM-15+0049ENSO V0201801N00051220001CN0112001N1-00101-01201999999ADDAG12999GA1011+021009039MA1104611999999EQDQ01+000000PRSWM2
0076010014999991991020508504+59800+005350FM-15+0049ENSO V0202101N00151220001CN0112001N1-00101-00701999999ADDAG12000GA1011+021009039GA2031+060009019MA1104611999999EQDQ01+000000PRSWM2
0076010014999991991020510504+59800+005350FM-15+0049ENSO V0202101N00151220001CN0112001N1+00201-00901999999ADDAG12999GA1011+030009039GA2031+060009019MA1104501999999EQDQ01+000000PRSWM2
0076010014999991991020511504+59800+005350FM-15+0049ENSO V0202101N00101220001CN0112001N1+00401-00801999999ADDAG12000GA1011+030009039GA2031+060009019MA1104501999999EQDQ01+000000PRSWM2
0044010014999991991020512504+59800+005350FM-15+0049ENSO V0202401N00051220001CN0112001N1+00401-00801999999ADDAG12999MA1104501999999EQDQ01+000000PRSWM2
0044010014999991991020513504+59800+005350FM-15+0049ENSO V0203201N00101220001CN0112001N1+00301-00901999999ADDAG12999MA1104401999999EQDQ01+000000PRSWM2
0044010014999991991020514504+59800+005350FM-15+0049ENSO V0203301N00051220001CN0112001N1+00301-01101999999ADDAG12000MA1104401999999EQDQ01+000000PRSWM2
0044010014999991991020515504+59800+005350FM-15+0049ENSO V0209991C00001220001CN0112001N1+00301-01101999999ADDAG12999MA1104301999999EQDQ01+000000PRSWM2
0044010014999991991020516504+59800+005350FM-15+0049ENSO V0209991C00001220001CN0112001N1+00001-00901999999ADDAG12999MA1104301999999EQDQ01+000000PRSWM2
0060010014999991991020606504+59800+005350FM-15+0049ENSO V0201801N00211220001CN0112001N1-00201-01101999999ADDAG12999GA1011+027009039MA1104301999999EQDQ01+000000PRSWM2
0060010014999991991020607404+59800+005350FM-15+0049ENSO V0201601N00461220001CN0112001N1-00201-01301999999ADDAG12999GA1011+036009039MA1104401999999EQDQ01+000000PRSWM2
0060010014999991991020607504+59800+005350FM-15+0049ENSO V0201601N00461220001CN0112001N1-00201-01301999999ADDAG12999GA1011+036009039MA1104401999999EQDQ01+000000PRSWM2
0068010014999991991020608504+59800+005350FM-15+0049ENSO V0201301N00571220001CN0112001N1-00101-01201999999ADDAG12000GA1011+054009029MA1104401999999OC101081EQDQ01+000000PRSWM2
0082010014999991991020609504+59800+005350FM-15+0049ENSO V0201301N00461220001CN0112001N1+00001-01501999999ADDAG12999GA1011+060009019MA1104401999999REMMET013PAST MAX 24KTEQDQ01+000000PRSWM2
0060010014999991991020611504+59800+005350FM-15+0049ENSO V0201201N00511220001CN0112001N1+00101-01201999999ADDAG12000GA1011+075009009MA1104501999999EQDQ01+000000PRSWM2
0060010014999991991020612504+59800+005350FM-15+0049ENSO V0201301N00511220001CN0112001N1+00101+99999999999ADDAG12999MA1104501999999EQDQ01+027123ATOD  Q02+000000PRSWM2
0060010014999991991020613504+59800+005350FM-15+0049ENSO V0201301N00461220001CN0112001N1+00101-01201999999ADDAG12999GA1011+006009089MA1104401999999EQDQ01+000000PRSWM2
0060010014999991991020614504+59800+005350FM-15+0049ENSO V0201301N00461220001CN0112001N1+00101-01201999999ADDAG12000GA1011+006009089MA1104401999999EQDQ01+000000PRSWM2
0060010014999991991020615504+59800+005350FM-15+0049ENSO V0201401N00261220001CN0112001N1-00101-01301999999ADDAG12999GA1011+009009059MA1104401999999EQDQ01+000000PRSWM2
0060010014999991991020616504+59800+005350FM-15+0049ENSO V0201301N00211220001CN0112001N1-00201-01301999999ADDAG12999GA1011+009009059MA1104401999999EQDQ01+000000PRSWM2
0044010014999991991020705504+59800+005350FM-15+0049ENSO V0201501N00311220001CN0112001N1-00501-00701999999ADDAG12000MA1104001999999EQDQ01+000000PRSWM2
0044010014999991991020706504+59800+005350FM-15+0049ENSO V0201401N00311220001CN0112001N1-00501-00701999999ADDAG12999MA1104001999999EQDQ01+000000PRSWM2
0060010014999991991020707504+59800+005350FM-15+0049ENSO V0201401N00261220001CN0112001N1-00601-00901999999ADDAG12999GA1011+006009059MA1103891999999EQDQ01+000000PRSWM2
0060010014999991991020708504+59800+005350FM-15+0049ENSO V0201501N00311220001CN0112001N1-00501-00901999999ADDAG12000GA1011+006009059MA1103891999999EQDQ01+000000PRSWM2
0060010014999991991020709504+59800+005350FM-15+0049ENSO V0201401N00261220001CN0112001N1-00401-00801999999ADDAG12999GA1011+006009059MA1103891999999EQDQ01+000000PRSWM2
0060010014999991991020711504+59800+005350FM-15+0049ENSO V0201401N00261220001CN0112001N1-00201-01301999999ADDAG12000GA1011+060009009MA1103791999999EQDQ01+000000PRSWM2
0060010014999991991020712504+59800+005350FM-15+0049ENSO V0201201N00101220001CN0112001N1-00101-01201999999ADDAG12999GA1011+060009009MA1103691999999EQDQ01+000000PRSWM2
0060010014999991991020713504+59800+005350FM-15+0049ENSO V0202901N00101220001CN0112001N1-00101-01301999999ADDAG12999GA1011+060009019MA1103591999999EQDQ01+000000PRSWM2
0076010014999991991020714504+59800+005350FM-15+0049ENSO V0203501N00151220001CN0112001N1-00201-01201999999ADDAG12000GA1011+036009039GA2031+060009009MA1103491999999EQDQ01+000000PRSWM2
0060010014999991991020805504+59800+005350FM-15+0049ENSO V0200201N00101220001CN0112001N1-00401-01401999999ADDAG12000GA1011+006009059MA1102711999999EQDQ01+000000PRSWM2
0076010014999991991020806504+59800+005350FM-15+0049ENSO V0200701N00101220001CN0112001N1-00201-01601999999ADDAG12999GA1011+007509059GA2031+024009039MA1102711999999EQDQ01+000000PRSWM2
0076010014999991991020807504+59800+005350FM-15+0049ENSO V0203501N00151220001CN0112001N1-00301-01501999999ADDAG12999GA1011+007509059GA2031+024009039MA1102711999999EQDQ01+000000PRSWM2
0076010014999991991020808504+59800+005350FM-15+0049ENSO V0203001N00101220001CN0112001N1-00301-00801999999ADDAG12000GA1011+007509059GA2031+024009039MA1102711999999EQDQ01+000000PRSWM2
0076010014999991991020809504+59800+005350FM-15+0049ENSO V0203401N00151012001CN0112001N1-00301-01101999999ADDAG12999GA1021+007509059GA2031+012009059MA1102611999999EQDQ01+000000PRSWM2
0076010014999991991020810504+59800+005350FM-15+0049ENSO V0203201N00211220001CN0112001N1-00101-01001999999ADDAG12999GA1021+012009059GA2031+021009039MA1102611999999EQDQ01+000000PRSWM2
0060010014999991991020811504+59800+005350FM-15+0049ENSO V0200901N00151220001CN0112001N1+00301-01901999999ADDAG12000GA1031+021009039MA1102511999999EQDQ01+000000PRSWM2
0060010014999991991020812504+59800+005350FM-15+0049ENSO V0201001N00461220001CN0112001N1+00301-02101999999ADDAG12999GA1011+021009039MA1102401999999EQDQ01+000000PRSWM2
0060010014999991991020813504+59800+005350FM-15+0049ENSO V0200901N00361220001CN0112001N1+00401-02101999999ADDAG12999GA1011+021009039MA1102401999999EQDQ01+000000PRSWM2
0060010014999991991020814504+59800+005350FM-15+0049ENSO V0201001N00311220001CN0112001N1+00301-02101999999ADDAG12000GA1011+021009039MA1102401999999EQDQ01+000000PRSWM2
0060010014999991991020816504+59800+005350FM-15+0049ENSO V0200801N00261220001CN0112001N1+00101-02001999999ADDAG12999GA1011+021009039MA1102301999999EQDQ01+000000PRSWM2
0060010014999991991021105504+59800+005350FM-15+0049ENSO V0200401N00051220001CN0112001N1-00601-01401999999ADDAG12000GA1011+027009039MA1101901999999EQDQ01+000000PRSWM2
0060010014999991991021106504+59800+005350FM-15+0049ENSO V0202801N00101220001CN0112001N1-00501-01301999999ADDAG12999GA1011+027009039MA1101901999999EQDQ01+000000PRSWM2
0076010014999991991021107504+59800+005350FM-15+0049ENSO V0209991V00051220001CN0112001N1-00501-00901999999ADDAG12999GA1011+027009039GA2031+060009019MA1101901999999EQDQ01+000000PRSWM2
0076010014999991991021108504+59800+005350FM-15+0049ENSO V0202601N00101220001CN0112001N1-00301-00901999999ADDAG12000GA1011+036009039GA2031+060009019MA1101901999999EQDQ01+000000PRSWM2
0060010014999991991021111504+59800+005350FM-15+0049ENSO V0202801N00101220001CN0112001N1-00101-01101999999ADDAG12000GA1031+060009009MA1101901999999EQDQ01+000000PRSWM2
0044010014999991991021112504+59800+005350FM-15+0049ENSO V0209991V00051220001CN0112001N1+00001-01101999999ADDAG12999MA1101901999999EQDQ01+000000PRSWM2
0044010014999991991021113504+59800+005350FM-15+0049ENSO V0202901N00101220001CN0112001N1-00101-01201999999ADDAG12999MA1101901999999EQDQ01+000000PRSWM2
0044010014999991991021114504+59800+005350FM-15+0049ENSO V0203101N00211220001CN0112001N1-00101-01201999999ADDAG12000MA1101901999999EQDQ01+000000PRSWM2
0060010014999991991021115504+59800+005350FM-15+0049ENSO V0209991V00051220001CN0112001N1-00201-01201999999ADDAG12999GA1011+007509059MA1101901999999EQDQ01+000000PRSWM2
0060010014999991991021116504+59800+005350FM-15+0049ENSO V0201001N00211220001CN0112001N1-00301-01301999999ADDAG12999GA1021+010509059MA1101801999999EQDQ01+000000PRSWM2
0060010014999991991021117504+59800+005350FM-15+0049ENSO V0200601N00151220001CN0112001N1-00301-01201999999ADDAG12000GA1031+010509059MA1101901999999EQDQ01+000000PRSWM2
0079010014999991991021206504+59800+005350FM-15+0049ENSO V0201201N00361004501CN0112001N1-00501-00601999999ADDAG12999GA1021+002709079GA2031+004509059GA3051+009009059MA1101591999999MW1221
0076010014999991991021207504+59800+005350FM-15+0049ENSO V0201001N00571006601CN0112001N1-00401-00601999999ADDAG12999GA1031+003009079GA2051+006609059MA1101491999999EQDQ01+000000PRSWM2
0063010014999991991021208504+59800+005350FM-15+0049ENSO V0201301N00461007501CN0112001N1-00401-00601999999ADDAG12001GA1031+003609079GA2051+007509059MA1101591999999MW1701
0063010014999991991021209504+59800+005350FM-15+0049ENSO V0201101N00461009001CN0112001N1-00401-00601999999ADDAG12999GA1021+003009079GA2051+009009059MA1101591999999MW1701
0079010014999991991021210504+59800+005350FM-15+0049ENSO V0209991V00211010501CN0112001N1-00301-00601999999ADDAG12999GA1011+003009079GA2031+004509089GA3051+010509059MA1101591999999MW1221
0063010014999991991021211504+59800+005350FM-15+0049ENSO V0200901N00151010501CN0112001N1-00201-00701999999ADDAG12000GA1031+004509089GA2051+010509059MA1101591999999MW1221
0047010014999991991021212504+59800+005350FM-15+0049ENSO V0201101N00151010501CN0112001N1-00201-00701999999ADDAG12999GA1051+010509059MA1101591999999MW1221
0060010014999991991021213504+59800+005350FM-15+0049ENSO V0200601N00101010501CN0112001N1-00101-00701999999ADDAG12999GA1051+010509059MA1101591999999EQDQ01+000000PRSWM2
0060010014999991991021214504+59800+005350FM-15+0049ENSO V0203001N00101220001CN0112001N1-00201-00701999999ADDAG12000GA1041+010509059MA1101591999999EQDQ01+000000PRSWM2
0076010014999991991021215504+59800+005350FM-15+0049ENSO V0203101N00051010501CN0112001N1-00201-00601999999ADDAG12999GA1021+006009059GA2041+010509059MA1101591999999EQDQ01+000000PRSWM2
0076010014999991991021216504+59800+005350FM-15+0049ENSO V0200301N00051009001CN0112001N1-00301-00501999999ADDAG12999GA1021+006009059GA2041+009009059MA1101691999999EQDQ01+000000PRSWM2
0060010014999991991021306504+59800+005350FM-15+0049ENSO V0209991V00101220001CN0112001N1-00701-01201999999ADDAG12999GA1011+021009039MA1102001999999EQDQ01+000000PRSWM2
0060010014999991991021307504+59800+005350FM-15+0049ENSO V0200701N00211220001CN0112001N1-00601-01201999999ADDAG12999GA1011+021009039MA1102001999999EQDQ01+000000PRSWM2
0060010014999991991021308504+59800+005350FM-15+0049ENSO V0200601N00101220001CN0112001N1-00601-01201999999ADDAG12000GA1011+027009039MA1102001999999EQDQ01+000000PRSWM2
0060010014999991991021309504+59800+005350FM-15+0049ENSO V0200701N00051220001CN0112001N1-00401-01201999999ADDAG12999GA1011+036009039MA1102001999999EQDQ01+000000PRSWM2
0060010014999991991021311504+59800+005350FM-15+0049ENSO V0203501N00101220001CN0112001N1-00201-01201999999ADDAG12000GA1011+007509059MA1102001999999EQDQ01+000000PRSWM2
0060010014999991991021312504+59800+005350FM-15+0049ENSO V0203401N00101220001CN0112001N1-00201-01201999999ADDAG12999GA1011+007509059MA1102001999999EQDQ01+000000PRSWM2
0060010014999991991021313504+59800+005350FM-15+0049ENSO V0203001N00101220001CN0112001N1-00201-01201999999ADDAG12999GA1011+009009059MA1102001999999EQDQ01+000000PRSWM2
0060010014999991991021314504+59800+005350FM-15+0049ENSO V0202801N00101220001CN0112001N1-00101-01101999999ADDAG12000GA1011+009009059MA1102001999999EQDQ01+000000PRSWM2
0044010014999991991021315504+59800+005350FM-15+0049ENSO V0203001N00051220001CN0112001N1-00201-01001999999ADDAG12999MA1102001999999EQDQ01+000000PRSWM2
0044010014999991991021316504+59800+005350FM-15+0049ENSO V0209991C00001220001CN0112001N1-00401-01201999999ADDAG12999MA1102001999999EQDQ01+000000PRSWM2
0060010014999991991021405504+59800+005350FM-15+0049ENSO V0201401N00261220001CN0112001N1-00601-00901999999ADDAG12000GA1011+009009059MA1101801999999EQDQ01+000000PRSWM2
0060010014999991991021406504+59800+005350FM-15+0049ENSO V0201401N00261220001CN0112001N1-00701-00901999999ADDAG12999GA1011+009009059MA1101801999999EQDQ01+000000PRSWM2
0060010014999991991021407504+59800+005350FM-15+0049ENSO V0201501N00211220001CN0112001N1-00601-00801999999ADDAG12999GA1021+012009059MA1101691999999EQDQ01+000000PRSWM2
0060010014999991991021408504+59800+005350FM-15+0049ENSO V0201401N00361012001CN0112001N1-00501-00801999999ADDAG12000GA1051+012009059MA1101691999999EQDQ01+000000PRSWM2
0060010014999991991021409504+59800+005350FM-15+0049ENSO V0201401N00261012001CN0112001N1-00401-00801999999ADDAG12999GA1051+012009059MA1101591999999EQDQ01+000000PRSWM2
0076010014999991991021410504+59800+005350FM-15+0049ENSO V0201501N00311010501CN0112001N1-00401-00801999999ADDAG12999GA1021+009009059GA2051+010509059MA1101591999999EQDQ01+000000PRSWM2
0060010014999991991021411504+59800+005350FM-15+0049ENSO V0201401N00261009001CN0112001N1-00301-00801999999ADDAG12000GA1051+009009059MA1101491999999EQDQ01+000000PRSWM2
0076010014999991991021414504+59800+005350FM-15+0049ENSO V0201501N00361021001CN0112001N1-00301-00801999999ADDAG12000GA1031+007509059GA2061+021009049MA1101191999999EQDQ01+000000PRSWM2
0076010014999991991021415504+59800+005350FM-15+0049ENSO V0201401N00361220001CN0112001N1-00301-00801999999ADDAG12999GA1021+007509059GA2031+021009049MA1101191999999EQDQ01+000000PRSWM2
0047010014999991991021505504+59800+005350FM-15+0049ENSO V0201401N00511002401CN0035001N1-00101-00201999999ADDAG12003GA1091+002409999MA1099701999999MW1711
0047010014999991991021506504+59800+005350FM-15+0049ENSO V0201401N00621003001CN0050001N1-00101-00201999999ADDAG12999GA1091+003009999MA1099591999999MW1711
0047010014999991991021507504+59800+005350FM-15+0049ENSO V0201601N00461002401CN0070001N1-00101-00201999999ADDAG12999GA1091+002409999MA1099491999999MW1701
0079010014999991991021508504+59800+005350FM-15+0049ENSO V0201501N00511002401CN0050001N1-00101-00201999999ADDAG12005GA1021+001509079GA2031+002409079GA3061+003609079MA1099391999999MW1721
0047010014999991991021509504+59800+005350FM-15+0049ENSO V0201501N00411001201CN0030001N1-00101-00201999999ADDAG12999GA1091+001209999MA1099391999999MW1721
0079010014999991991021510504+59800+005350FM-15+0049ENSO V0201501N00411002101CN0060001N1+00001-00101999999ADDAG12999GA1021+001209079GA2031+002109079GA3061+003009079MA1099291999999MW1711
0047010014999991991021511504+59800+005350FM-15+0049ENSO V0201401N00411001801CN0030001N1+00001-00101999999ADDAG12003GA1091+001809999MA1099191999999MW1711
0047010014999991991021512504+59800+005350FM-15+0049ENSO V0201501N00311001201CN0060001N1+00001-00101999999ADDAG12999GA1091+001209999MA1099191999999MW1681
0047010014999991991021513504+59800+005350FM-15+0049ENSO V0201601N00361001201CN0050001N1+00001-00101999999ADDAG12999GA1091+001209999MA1099091999999MW1711
0063010014999991991021514504+59800+005350FM-15+0049ENSO V0201501N00411001501CN0060001N1+00001-00101999999ADDAG12003GA1031+000609079GA2061+001509079MA1098981999999MW1711
0063010014999991991021515504+59800+005350FM-15+0049ENSO V0201101N00411001501CN0080001N1+00001-00101999999ADDAG12999GA1021+000609079GA2051+001509079MA1098981999999MW1221
0076010014999991991021516504+59800+005350FM-15+0049ENSO V0200701N00211001501CN0070001N1+00001-00101999999ADDAG12999GA1031+000609079GA2061+001509079MA1098981999999EQDQ01+000000PRSWM2
0060010014999991991021805504+59800+005350FM-15+0049ENSO V0209991C00001220001CN0112001N1-00401-01101999999ADDAG12000GA1021+003609089MA1101191999999EQDQ01+000000PRSWM2
0076010014999991991021807504+59800+005350FM-15+0049ENSO V0209991V00261220001CN0112001N1-00401-01001999999ADDAG12999GA1011+012009059GA2041+027009039MA1101291999999EQDQ01+000000PRSWM2
0060010014999991991021811504+59800+005350FM-15+0049ENSO V0209991C00001220001CN0112001N1+00201-01301999999ADDAG12000GA1021+066009009MA1101491999999EQDQ01+000000PRSWM2
0060010014999991991021812504+59800+005350FM-15+0049ENSO V0201601N00151220001CN0112001N1+00001-01101999999ADDAG12999GA1041+060009029MA1101391999999EQDQ01+000000PRSWM2
0076010014999991991021813504+59800+005350FM-15+0049ENSO V0201401N00261060001CN0112001N1+00001-01101999999ADDAG12999GA1011+021009039GA2061+060009029MA1101391999999EQDQ01+000000PRSWM2
0076010014999991991021814504+59800+005350FM-15+0049ENSO V0201401N00261060001CN0112001N1+00001-01101999999ADDAG12000GA1011+012009059GA2061+060009029MA1101391999999EQDQ01+000000PRSWM2
0076010014999991991021815504+59800+005350FM-15+0049ENSO V0201501N00151060001CN0112001N1-00101-01101999999ADDAG12999GA1021+012009059GA2051+060009019MA1101291999999EQDQ01+000000PRSWM2
0092010014999991991021816504+59800+005350FM-15+0049ENSO V0201601N00261054001CN0112001N1-00201-01201999999ADDAG12999GA1011+007509059GA2031+021009039GA3051+054009029MA1101291999999EQDQ01+000000PRSWM2
0047010014999991991021906504+59800+005350FM-15+0049ENSO V0201501N00571001201CN0030001N1+00001-00101999999ADDAG12999GA1091+001209999MA1100311999999MW1711
0047010014999991991021907504+59800+005350FM-15+0049ENSO V0201601N00261001201CN0040001N1+00001-00101999999ADDAG12999GA1091+001209999MA1100311999999MW1711
0063010014999991991021908504+59800+005350FM-15+0049ENSO V0201501N00411001501CN0070001N1+00001-00101999999ADDAG12003GA1021+000909079GA2051+001509079MA1100201999999MW1711
0063010014999991991021909504+59800+005350FM-15+0049ENSO V0201501N00361001801CN0070001N1+00101+00001999999ADDAG12999GA1021+001209079GA2051+001809079MA1100201999999MW1681
0063010014999991991021910504+59800+005350FM-15+0049ENSO V0201701N00411002101CN0080001N1+00201+00101999999ADDAG12999GA1021+001209079GA2061+002109079MA1100101999999MW1611
0063010014999991991021911504+59800+005350FM-15+0049ENSO V0201501N00411001801CN0090001N1+00201+00101999999ADDAG12007GA1031+000909079GA2061+001809079MA1100101999999MW1611
0063010014999991991021912504+59800+005350FM-15+0049ENSO V0201601N00211002101CN0060001N1+00301+00201999999ADDAG12999GA1031+001209079GA2061+002109079MA1100001999999MW1611
0079010014999991991021913504+59800+005350FM-15+0049ENSO V0201601N00361002101CN0070001N1+00301+00201999999ADDAG12999GA1011+000309079GA2031+001209079GA3061+002109079MA1100001999999MW1631
0063010014999991991021914504+59800+005350FM-15+0049ENSO V0201601N00511001801CN0070001N1+00201+00101999999ADDAG12007GA1031+000909079GA2061+001809079MA1099901999999MW1611
0079010014999991991021915504+59800+005350FM-15+0049ENSO V0201501N00621001801CN0070001N1+00201+00101999999ADDAG12999GA1011+000309079GA2031+000909079GA3061+001809079MA1099901999999MW1611
0092010014999991991022008504+59800+005350FM-15+0049ENSO V0201701N00311002401CN0112001N1+00401+00301999999ADDAG12000GA1021+000309079GA2031+002409079GA3051+006009059MA1099591999999EQDQ01+000000PRSWM2
0092010014999991991022010504+59800+005350FM-15+0049ENSO V0202301N00361005401CN0112001N1+00501+00301999999ADDAG12999GA1021+001209079GA2031+005409089GA3051+060009019MA1099591999999EQDQ01+000000PRSWM2
0092010014999991991022011504+59800+005350FM-15+0049ENSO V0202301N00361005401CN0112001N1+00601+00401999999ADDAG12000GA1021+001809079GA2031+005409089GA3051+027009039MA1099701999999EQDQ01+000000PRSWM2
0076010014999991991022012504+59800+005350FM-15+0049ENSO V0202001N00211021001CN0112001N1+00501+00301999999ADDAG12999GA1031+001209079GA2051+021009039MA1099701999999EQDQ01+000000PRSWM2
0076010014999991991022013504+59800+005350FM-15+0049ENSO V0202301N00361021001CN0112001N1+00601+00301999999ADDAG12999GA1031+001209079GA2051+021009039MA1099701999999EQDQ01+000000PRSWM2
0076010014999991991022014504+59800+005350FM-15+0049ENSO V0202301N00311021001CN0112001N1+00501+00301999999ADDAG12000GA1031+001509079GA2051+021009039MA1099701999999EQDQ01+000000PRSWM2
0076010014999991991022016504+59800+005350FM-15+0049ENSO V0201901N00151012001CN0112001N1+00401+00201999999ADDAG12999GA1031+000909079GA2051+012009059MA1099701999999EQDQ01+000000PRSWM2
0092010014999991991022106504+59800+005350FM-15+0049ENSO V0201801N00461045001CN0112001N1+00401+00101999999ADDAG12999GA1011+005409089GA2031+009009059GA3051+045009039MA1099801999999EQDQ01+000000PRSWM2
0076010014999991991022107504+59800+005350FM-15+0049ENSO V0201801N00411220001CN0112001N1+00401+00101999999ADDAG12999GA1011+005409089GA2041+009009059MA1099901999999EQDQ01+000000PRSWM2
0076010014999991991022108504+59800+005350FM-15+0049ENSO V0201601N00361220001CN0112001N1+00301+00001999999ADDAG12000GA1011+005409089GA2031+009009059MA1100001999999EQDQ01+000000PRSWM2
0076010014999991991022109504+59800+005350FM-15+0049ENSO V0201701N00361013501CN0112001N1+00401+00001999999ADDAG12999GA1021+005409089GA2031+013509059MA1100001999999EQDQ01+000000PRSWM2
0076010014999991991022110504+59800+005350FM-15+0049ENSO V0201701N00361220001CN0112001N1+00601+00101999999ADDAG11999GA1011+005409089GA2031+012009059MA1100101999999EQDQ01+000000PRSWM2
0060010014999991991022112504+59800+005350FM-15+0049ENSO V0201901N00361220001CN0112001N1+00601+00001999999ADDAG12999GA1041+006009089MA1100101999999EQDQ01+000000PRSWM2
0060010014999991991022113504+59800+005350FM-15+0049ENSO V0201701N00261220001CN0112001N1+00601+00101999999ADDAG12999GA1041+006009089MA1100201999999EQDQ01+000000PRSWM2
0076010014999991991022114504+59800+005350FM-15+0049ENSO V0201501N00571060001CN0112001N1+00501+00101999999ADDAG12000GA1031+006009089GA2031+060009019MA1100101999999EQDQ01+000000PRSWM2
0092010014999991991022116504+59800+005350FM-15+0049ENSO V0201401N00361060001CN0112001N1+00401-00101999999ADDAG12999GA1011+004509089GA2031+021009039GA3051+060009009MA1100101999999EQDQ01+000000PRSWM2
0063010014999991991022206504+59800+005350FM-15+0049ENSO V0201301N00571009001CN0112001N1+00601+00001999999ADDAG12999GA1021+004509059GA2051+009009059MA1099091999999MW1611
0047010014999991991022207504+59800+005350FM-15+0049ENSO V0209999999999004501CN0112001N1+00501+00101999999ADDAG12999GA1051+004509059MA1099191999999MW1611
0099010014999991991022208504+59800+005350FM-15+0049ENSO V0201601N00511004501CN0112001N1+00501+00101999999ADDAG12002GA1021+003609059GA2051+004509059MA1099191999999MW1601REMMET027PAST MAX         ?     25KT
0063010014999991991022209504+59800+005350FM-15+0049ENSO V0201401N00621007501CN0112001N1+00501+00001999999ADDAG12999GA1021+004509059GA2041+007509059MA1099191999999MW1211
0098010014999991991022210504+59800+005350FM-15+0049ENSO V0201601N00721009001CN0112001N1+00501-00401999999ADDAG12999GA1021+004509059GA2041+009009059MA1098981999999REMMET013PAST MAX 25KTEQDQ01+000000PRSWM2
0098010014999991991022211504+59800+005350FM-15+0049ENSO V0201401N00881015001CN0112001N1+00501-00601999999ADDAG12000GA1021+006009089GA2051+015009059MA1098921999999REMMET013PAST MAX 29KTEQDQ01+000000PRSWM2
0071010014999991991022212504+59800+005350FM-15+0049ENSO V0201401N01131006001CN0112001N1+00401-00201999999ADDAG12999GA1021+003609079GA2051+006009059MA1098821999999MW1601OC101701
0099010014999991991022213504+59800+005350FM-15+0049ENSO V0201501N01081005401CN0080001N1+00301+00101999999ADDAG12999GA1031+003609079GA2061+005409059MA1098711999999MW1631REMMET027PAST MAX         ?     35KT
0071010014999991991022214504+59800+005350FM-15+0049ENSO V0201601N00981005401CN0112001N1+00401+00301999999ADDAG12007GA1031+003609079GA2061+005409059MA1098711999999MW1621OC101541
0063010014999991991022215504+59800+005350FM-15+0049ENSO V0201901N00821006001CN0112001N1+00401+00201999999ADDAG12999GA1021+003009079GA2051+006009059MA1098921999999MW1211
0076010014999991991022216504+59800+005350FM-15+0049ENSO V0201901N00571007501CN0112001N1+00401+00201999999ADDAG12999GA1021+003609079GA2051+007509059MA1098981999999EQDQ01+000000PRSWM2
0092010014999991991022504504+59800+005350FM-15+0049ENSO V0209991C00001009001CN0112001N1+00401+00301999999ADDAG12999GA1011+001509079GA2031+005409059GA3051+009009059MA1101081999999EQDQ01+000000PRSWM2
0079010014999991991022505504+59800+005350FM-15+0049ENSO V0203301N00101007501CN0112001N1+00401+00301999999ADDAG12001GA1011+001509079GA2031+004509059GA3051+007509059MA1101081999999MW1501
0079010014999991991022506504+59800+005350FM-15+0049ENSO V0202901N00101002101CN0070001N1+00401+00301999999ADDAG12999GA1021+000909079GA2031+002109079GA3061+006009059MA1101191999999MW1101
0079010014999991991022507504+59800+005350FM-15+0049ENSO V0203301N00101002101CN0070001N1+00401+00101999999ADDAG12999GA1021+000909079GA2031+002109079GA3051+007509059MA1101291999999MW1101
0092010014999991991022508504+59800+005350FM-15+0049ENSO V0209991C00001002101CN0070001N1+00401+00101999999ADDAG12000GA1021+000609079GA2031+002109079GA3041+009009059MA1101391999999EQDQ01+000000PRSWM2
0114010014999991991022509504+59800+005350FM-15+0049ENSO V0203501N00211001501CN0050001N1+00401+00101999999ADDAG12999GA1021+000609079GA2031+001509079GA3041+009009059MA1101491999999MW1401REMMET026VIS        ?     TO N 9999
0076010014999991991022510504+59800+005350FM-15+0049ENSO V0203501N00151003001CN0112001N1+00501+00401999999ADDAG12999GA1021+002109079GA2031+003009079MA1101591999999EQDQ01+000000PRSWM2
0060010014999991991022511504+59800+005350FM-15+0049ENSO V0203201N00211220001CN0112001N1+00501+00201999999ADDAG12000GA1021+004209059MA1101691999999EQDQ01+000000PRSWM2
0060010014999991991022515504+59800+005350FM-15+0049ENSO V0203401N00361220001CN0112001N1+00501-00201999999ADDAG12999GA1011+006009089MA1102001999999EQDQ01+000000PRSWM2
0076010014999991991022516504+59800+005350FM-15+0049ENSO V0203401N00311220001CN0112001N1+00401-00101999999ADDAG12999GA1011+004209089GA2031+030009039MA1102101999999EQDQ01+000000PRSWM2
0060010014999991991022606504+59800+005350FM-15+0049ENSO V0201001N00311220001CN0112001N1+00101-01301999999ADDAG12999GA1021+036009039MA1102511999999EQDQ01+000000PRSWM2
0076010014999991991022609504+59800+005350FM-15+0049ENSO V0201301N00361220001CN0112001N1+00401-01101999999ADDAG12999GA1011+024009039GA2031+060009009MA1102611999999EQDQ01+000000PRSWM2
0060010014999991991022611504+59800+005350FM-15+0049ENSO V0201301N00411220001CN0112001N1+00601-01001999999ADDAG12000GA1011+030009039MA1102611999999EQDQ01+000000PRSWM2
0060010014999991991022612504+59800+005350FM-15+0049ENSO V0201501N00361220001CN0112001N1+00701-01101999999ADDAG12999GA1011+030009039MA1102611999999EQDQ01+000000PRSWM2
0044010014999991991022613504+59800+005350FM-15+0049ENSO V0201401N00311220001CN0112001N1+00801-01001999999ADDAG12999MA1102611999999EQDQ01+000000PRSWM2
0044010014999991991022614504+59800+005350FM-15+0049ENSO V0201201N00411220001CN0112001N1+00701-01001999999ADDAG12000MA1102611999999EQDQ01+000000PRSWM2
0044010014999991991022616504+59800+005350FM-15+0049ENSO V0201301N00311220001CN0112001N1+00501-01001999999ADDAG12999MA1102611999999EQDQ01+000000PRSWM2
0076010014999991991022706504+59800+005350FM-15+0049ENSO V0201301N00771220001CN0112001N1+00301-01601999999ADDAG12999GA1011+015009059GA2041+030009039MA1102711999999EQDQ01+000000PRSWM2
0076010014999991991022707504+59800+005350FM-15+0049ENSO V0201201N00671220001CN0112001N1+00301-01701999999ADDAG12999GA1021+012009059GA2031+024009039MA1102811999999EQDQ01+000000PRSWM2
0128010014999991991022709504+59800+005350FM-15+0049ENSO V0201101N00621060001CN0112001N1+00401-01801999999ADDAG12999GA1011+015009059GA2031+045009039GA3051+060009019MA1102811999999REMMET027PASTMAX          ?     23KTEQDQ01+000000PRSWM2
0076010014999991991022710504+59800+005350FM-15+0049ENSO V0201201N00511060001CN0112001N1+00401-01801999999ADDAG12999GA1021+027009039GA2041+060009019MA1102811999999EQDQ01+000000PRSWM2
0076010014999991991022711504+59800+005350FM-15+0049ENSO V0201301N00621220001CN0112001N1+00501-01901999999ADDAG12000GA1011+012009059GA2041+045009039MA1102811999999EQDQ01+000000PRSWM2
0058010014999991991022712504+59800+005350FM-15+0049ENSO V0201401N00571999991CY0099001N1+00401-02301999999ADDAG12999MA1102811999999REMMET005CAVOKEQDQ01+000000PRSWM2
0076010014999991991022713504+59800+005350FM-15+0049ENSO V0201201N00461024001CN0112001N1+00401-02301999999ADDAG12999GA1021+013509059GA2051+024009039MA1102711999999EQDQ01+000000PRSWM2
0076010014999991991022714504+59800+005350FM-15+0049ENSO V0201201N00621024001CN0112001N1+00401-02301999999ADDAG12000GA1021+013509059GA2051+024009039MA1102711999999EQDQ01+000000PRSWM2
0058010014999991991022715504+59800+005350FM-15+0049ENSO V0201401N00411999991CY0099001N1+00401-02101999999ADDAG12999MA1102711999999REMMET005CAVOKEQDQ01+000000PRSWM2
0058010014999991991022716504+59800+005350FM-15+0049ENSO V0201001N00361999991CY0099001N1+00301-01901999999ADDAG12999MA1102711999999REMMET005CAVOKEQDQ01+000000PRSWM2
0058010014999991991022806504+59800+005350FM-15+0049ENSO V0201001N00411999991CY0099001N1-00201-01401999999ADDAG12999MA1102201999999REMMET005CAVOKEQDQ01+000000PRSWM2
0058010014999991991022807504+59800+005350FM-15+0049ENSO V0201001N00361999991CY0099001N1-00201-01401999999ADDAG12999MA1102201999999REMMET005CAVOKEQDQ01+000000PRSWM2
0058010014999991991022808504+59800+005350FM-15+0049ENSO V0201101N00361999991CY0099001N1+00001-01301999999ADDAG12000MA1102201999999REMMET005CAVOKEQDQ01+000000PRSWM2
0058010014999991991022809504+59800+005350FM-15+0049ENSO V0201201N00411999991CY0099001N1+00101-01701999999ADDAG12999MA1102201999999REMMET005CAVOKEQDQ01+000000PRSWM2
0058010014999991991022810504+59800+005350FM-15+0049ENSO V0201201N00721999991CY0099001N1+00101-01801999999ADDAG12999MA1102201999999REMMET005CAVOKEQDQ01+000000PRSWM2
0058010014999991991022812504+59800+005350FM-15+0049ENSO V0201301N00671999991CY0099001N1+00201-01801999999ADDAG12999MA1102201999999REMMET005CAVOKEQDQ01+000000PRSWM2
0058010014999991991022813504+59800+005350FM-15+0049ENSO V0201301N00571999991CY0099001N1+00301-01701999999ADDAG12999MA1102101999999REMMET005CAVOKEQDQ01+000000PRSWM2
0058010014999991991022814504+59800+005350FM-15+0049ENSO V0201301N00621999991CY0099001N1+00201-01801999999ADDAG12000MA1102101999999REMMET005CAVOKEQDQ01+000000PRSWM2
0058010014999991991022815504+59800+005350FM-15+0049ENSO V0201201N00621999991CY0099001N1+00201-01701999999ADDAG12999MA1102101999999REMMET005CAVOKEQDQ01+000000PRSWM2
0058010014999991991022816504+59800+005350FM-15+0049ENSO V0201201N00461999991CY0099001N1+00101-01501999999ADDAG12999MA1102101999999REMMET005CAVOKEQDQ01+000000PRSWM2
0058010014999991991030106504+59800+005350FM-15+0049ENSO V0201301N00361999991CY0099001N1+00001-01001999999ADDAG12999MA1102101999999REMMET005CAVOKEQDQ01+000000PRSWM2
0058010014999991991030107504+59800+005350FM-15+0049ENSO V0201001N00261999991CY0099001N1+00101-00901999999ADDAG12999MA1102101999999REMMET005CAVOKEQDQ01+000000PRSWM2
0058010014999991991030108504+59800+005350FM-15+0049ENSO V0201301N00311999991CY0099001N1+00201-00901999999ADDAG12000MA1102101999999REMMET005CAVOKEQDQ01+000000PRSWM2
0058010014999991991030109504+59800+005350FM-15+0049ENSO V0201201N00461999991CY0099001N1+00301-00801999999ADDAG12999MA1102101999999REMMET005CAVOKEQDQ01+000000PRSWM2
0076010014999991991030110504+59800+005350FM-15+0049ENSO V0201001N00511220001CN0112001N1+00401-00801999999ADDAG12999GA1011+015009059GA2041+036009039MA1102001999999EQDQ01+000000PRSWM2
0076010014999991991030111504+59800+005350FM-15+0049ENSO V0201101N00621220001CN0112001N1+00401-00801999999ADDAG12000GA1011+015009059GA2041+036009039MA1102001999999EQDQ01+000000PRSWM2
0084010014999991991030112504+59800+005350FM-15+0049ENSO V0201101N00771024001CN0112001N1+00401-01001999999ADDAG12999GA1021+012009059GA2041+024009039MA1102001999999OC101341EQDQ01+000000PRSWM2
0076010014999991991030113504+59800+005350FM-15+0049ENSO V0201201N00621018001CN0112001N1+00401-01001999999ADDAG12999GA1021+012009059GA2051+018009059MA1102001999999EQDQ01+000000PRSWM2
0076010014999991991030114504+59800+005350FM-15+0049ENSO V0201201N00621060001CN0112001N1+00501-00901999999ADDAG12000GA1021+012009059GA2051+060009009MA1101901999999EQDQ01+000000PRSWM2
0100010014999991991030115504+59800+005350FM-15+0049ENSO V0201201N00571060001CN0112001N1+00401-01001999999ADDAG12999GA1011+012009059GA2031+024009039GA3051+060009009MA1101901999999OC101081EQDQ01+000000PRSWM2
0092010014999991991030116504+59800+005350FM-15+0049ENSO V0201101N00461060001CN0112001N1+00301-00901999999ADDAG12999GA1011+012009059GA2031+024009039GA3051+060009009MA1101901999999EQDQ01+000000PRSWM2
0076010014999991991030405504+59800+005350FM-15+0049ENSO V0201501N00511004501CN0112001N1+00201+00101999999ADDAG12000GA1031+003009079GA2061+004509079MA1101901999999EQDQ01+000000PRSWM2
0047010014999991991030406504+59800+005350FM-15+0049ENSO V0201501N00461002101CN0050001N1+00201+00101999999ADDAG12999GA1091+002109999MA1101901999999MW1681
0063010014999991991030407504+59800+005350FM-15+0049ENSO V0201601N00461003901CN0070001N1+00201+00101999999ADDAG12999GA1031+002109079GA2061+003909079MA1102001999999MW1611
0079010014999991991030408504+59800+005350FM-15+0049ENSO V0201701N00511003001CN0112001N1+00201+00101999999ADDAG12003GA1021+002109079GA2031+003009079GA3061+004209079MA1102101999999MW1211
0063010014999991991030409504+59800+005350FM-15+0049ENSO V0201701N00461003001CN0112001N1+00301+00201999999ADDAG12999GA1031+002109079GA2051+003009079MA1102101999999MW1801
0063010014999991991030410504+59800+005350FM-15+0049ENSO V0201701N00311003001CN0112001N1+00401+00301999999ADDAG12999GA1031+002109079GA2061+003009079MA1102101999999MW1251
0076010014999991991030412504+59800+005350FM-15+0049ENSO V0201401N00311004501CN0112001N1+00601+00401999999ADDAG12999GA1021+002409079GA2051+004509059MA1102201999999EQDQ01+000000PRSWM2
0092010014999991991030414504+59800+005350FM-15+0049ENSO V0201901N00411005401CN0112001N1+00501+00201999999ADDAG12000GA1011+001209079GA2031+003009079GA3051+005409059MA1102201999999EQDQ01+000000PRSWM2
0092010014999991991030415504+59800+005350FM-15+0049ENSO V0201401N00311003601CN0112001N1+00501+00301999999ADDAG12999GA1021+002409079GA2041+003609079GA3051+005409059MA1102201999999EQDQ01+000000PRSWM2
0060010014999991991030416504+59800+005350FM-15+0049ENSO V0201201N00261220001CN0112001N1+00501+00301999999ADDAG12999GA1031+003609079MA1102201999999EQDQ01+000000PRSWM2
0076010014999991991030505504+59800+005350FM-15+0049ENSO V0201101N00571021001CN0112001N1+00501-00801999999ADDAG12000GA1021+012009059GA2051+021009039MA1101191999999EQDQ01+000000PRSWM2
0076010014999991991030506504+59800+005350FM-15+0049ENSO V0201201N00511021001CN0112001N1+00501-00801999999ADDAG12999GA1021+009009059GA2051+021009039MA1101191999999EQDQ01+000000PRSWM2
0076010014999991991030507504+59800+005350FM-15+0049ENSO V0201101N00461021001CN0112001N1+00501-01001999999ADDAG12999GA1021+010509059GA2051+021009039MA1101081999999EQDQ01+000000PRSWM2
0076010014999991991030508504+59800+005350FM-15+0049ENSO V0201201N00671021001CN0112001N1+00601-01001999999ADDAG12000GA1021+010509059GA2051+021009039MA1101081999999EQDQ01+000000PRSWM2
0076010014999991991030509504+59800+005350FM-15+0049ENSO V0201301N00771021001CN0112001N1+00701-00901999999ADDAG12999GA1021+010509059GA2051+021009039MA1101021999999EQDQ01+000000PRSWM2
0076010014999991991030510504+59800+005350FM-15+0049ENSO V0201301N00821015001CN0112001N1+00701-00901999999ADDAG12999GA1021+009009059GA2051+015009059MA1101021999999EQDQ01+000000PRSWM2
0076010014999991991030511504+59800+005350FM-15+0049ENSO V0201301N01031012001CN0112001N1+00601-01001999999ADDAG12000GA1021+007509059GA2051+012009059MA1100911999999EQDQ01+000000PRSWM2
0084010014999991991030512504+59800+005350FM-15+0049ENSO V0201301N01031010501CN0112001N1+00601-01001999999ADDAG12999GA1021+007509059GA2051+010509059MA1100911999999OC101541EQDQ01+000000PRSWM2
0076010014999991991030513504+59800+005350FM-15+0049ENSO V0201401N01031009001CN0112001N1+00601-01001999999ADDAG12999GA1031+006009059GA2051+009009059MA1100911999999EQDQ01+000000PRSWM2
0076010014999991991030514504+59800+005350FM-15+0049ENSO V0201501N00821009001CN0112001N1+00501-00501999999ADDAG12000GA1031+005409059GA2051+009009059MA1100911999999EQDQ01+000000PRSWM2
0063010014999991991030515504+59800+005350FM-15+0049ENSO V0201401N00881007501CN0112001N1+00401-00301999999ADDAG12999GA1031+004209059GA2051+007509059MA1100911999999MW1211
0084010014999991991030516504+59800+005350FM-15+0049ENSO V0201301N00771010501CN0112001N1+00401-00301999999ADDAG12999GA1021+006009059GA2041+010509059MA1100911999999OC101291EQDQ01+000000PRSWM2
0076010014999991991030606504+59800+005350FM-15+0049ENSO V0201101N00571018001CN0112001N1+00401+00001999999ADDAG12999GA1021+010509059GA2061+018009039MA1100711999999EQDQ01+000000PRSWM2
0076010014999991991030607504+59800+005350FM-15+0049ENSO V0201101N00621021001CN0112001N1+00501-00101999999ADDAG12999GA1021+009009059GA2051+021009039MA1100611999999EQDQ01+000000PRSWM2
0076010014999991991030608504+59800+005350FM-15+0049ENSO V0201101N00721024001CN0112001N1+00601-00101999999ADDAG12000GA1021+012009059GA2051+024009039MA1100611999999EQDQ01+000000PRSWM2
0076010014999991991030609504+59800+005350FM-15+0049ENSO V0201101N00571024001CN0112001N1+00601-00301999999ADDAG12999GA1011+012009059GA2051+024009039MA1100611999999EQDQ01+000000PRSWM2
0076010014999991991030610504+59800+005350FM-15+0049ENSO V0201201N00571220001CN0112001N1+00801-00201999999ADDAG12999GA1011+015009059GA2041+027009039MA1100611999999EQDQ01+000000PRSWM2
0076010014999991991030611504+59800+005350FM-15+0049ENSO V0201201N00511220001CN0112001N1+00801-00201999999ADDAG12000GA1011+015009059GA2041+027009039MA1100611999999EQDQ01+000000PRSWM2
0076010014999991991030612504+59800+005350FM-15+0049ENSO V0201401N00571027001CN0112001N1+00801-00401999999ADDAG12999GA1021+007509059GA2051+027009039MA1100611999999EQDQ01+000000PRSWM2
0076010014999991991030613504+59800+005350FM-15+0049ENSO V0201201N00571220001CN0112001N1+00701-00401999999ADDAG12999GA1011+007509059GA2041+012009059MA1100611999999EQDQ01+000000PRSWM2
0076010014999991991030614504+59800+005350FM-15+0049ENSO V0201401N00511220001CN0112001N1+00701-00301999999ADDAG12000GA1011+007509059GA2041+012009059MA1100611999999EQDQ01+000000PRSWM2
0076010014999991991030615504+59800+005350FM-15+0049ENSO V0201401N00511015001CN0112001N1+00501-00301999999ADDAG12999GA1021+009009059GA2051+015009059MA1100511999999EQDQ01+000000PRSWM2
0076010014999991991030616504+59800+005350FM-15+0049ENSO V0201301N00411012001CN0112001N1+00501-00101999999ADDAG12999GA1021+009009059GA2051+012009059MA1100511999999EQDQ01+000000PRSWM2
0076010014999991991030706504+59800+005350FM-15+0049ENSO V0200101N00051010501CN0112001N1+00401+00101999999ADDAG12999GA1031+006009059GA2051+010509059MA1100411999999EQDQ01+000000PRSWM2
0063010014999991991030707504+59800+005350FM-15+0049ENSO V0209991C00001009001CN0112001N1+00401+00101999999ADDAG12999GA1031+006009059GA2051+009009059MA1100411999999MW1611
0079010014999991991030708504+59800+005350FM-15+0049ENSO V0202701N00051009001CN0112001N1+00301+00101999999ADDAG12007GA1011+001209079GA2031+005409059GA3051+009009059MA1100411999999MW1611
0079010014999991991030709504+59800+005350FM-15+0049ENSO V0202601N00101015001CN0112001N1+00401+00201999999ADDAG12999GA1011+000609079GA2031+006009059GA3061+015009049MA1100411999999MW1631
0063010014999991991030710504+59800+005350FM-15+0049ENSO V0202801N00051018001CN0112001N1+00401+00201999999ADDAG12999GA1021+007509059GA2061+018009049MA1100411999999MW1631
0063010014999991991030711504+59800+005350FM-15+0049ENSO V0202301N00261015001CN0112001N1+00401+00301999999ADDAG12002GA1021+007509059GA2051+015009059MA1100311999999MW1601
0047010014999991991030712504+59800+005350FM-15+0049ENSO V0203101N00101010501CN0112001N1+00501+00301999999ADDAG12999GA1061+010509059MA1100311999999MW1211
0063010014999991991030713504+59800+005350FM-15+0049ENSO V0203001N00151015001CN0112001N1+00501+00301999999ADDAG12999GA1031+010509059GA2061+015009059MA1100311999999MW1591
0063010014999991991030714504+59800+005350FM-15+0049ENSO V0203001N00151015001CN0112001N1+00501+00301999999ADDAG12014GA1031+010509059GA2061+015009059MA1100201999999MW1591
0063010014999991991030715504+59800+005350FM-15+0049ENSO V0209991V00101015001CN0112001N1+00501+00301999999ADDAG12999GA1031+012009059GA2061+015009059MA1100201999999MW1211
0063010014999991991030716504+59800+005350FM-15+0049ENSO V0200901N00361010501CN0112001N1+00601+00101999999ADDAG12999GA1031+009009059GA2061+010509059MA1100201999999MW1601
0079010014999991991030805504+59800+005350FM-15+0049ENSO V0201101N00721005401CN0070001N1+00701+00501999999ADDAG12016GA1011+001209079GA2031+003009079GA3061+005409059MA1100001999999MW1641
0047010014999991991030806504+59800+005350FM-15+0049ENSO V0201101N00721009001CN0112001N1+00701+00501999999ADDAG12999GA1051+009009059MA1100001999999MW1211
0063010014999991991030807504+59800+005350FM-15+0049ENSO V0201101N00721012001CN0112001N1+00701+00501999999ADDAG12999GA1031+007509059GA2061+012009059MA1100001999999MW1591
0071010014999991991030808504+59800+005350FM-15+0049ENSO V0201101N00721012001CN0112001N1+00801+00301999999ADDAG12003GA1031+007509059GA2051+012009059MA1100001999999MW1211OC101241
0060010014999991991030810504+59800+005350FM-15+0049ENSO V0201001N00881220001CN0112001N1+01101+00301999999ADDAG12999GA1021+010509059MA1100001999999EQDQ01+000000PRSWM2
0076010014999991991030811504+59800+005350FM-15+0049ENSO V0201101N00721024001CN0112001N1+01101+00201999999ADDAG12000GA1021+012009059GA2051+024009039MA1100001999999EQDQ01+000000PRSWM2
0076010014999991991030812504+59800+005350FM-15+0049ENSO V0201201N00461220001CN0112001N1+01301+00101999999ADDAG12999GA1011+015009059GA2041+060009019MA1100001999999EQDQ01+000000PRSWM2
0092010014999991991030813504+59800+005350FM-15+0049ENSO V0201301N00461054001CN0112001N1+01301+00101999999ADDAG12999GA1011+015009059GA2031+027009039GA3051+054009029MA1100001999999EQDQ01+000000PRSWM2
0076010014999991991030814504+59800+005350FM-15+0049ENSO V0201201N00411024001CN0112001N1+01201+00001999999ADDAG12000GA1011+015009059GA2051+024009039MA1100001999999EQDQ01+000000PRSWM2
0076010014999991991030815504+59800+005350FM-15+0049ENSO V0201201N00461027001CN0112001N1+01201-00101999999ADDAG12999GA1021+015009059GA2051+027009039MA1100001999999EQDQ01+000000PRSWM2
0076010014999991991030816504+59800+005350FM-15+0049ENSO V0201101N00411027001CN0112001N1+01201+00001999999ADDAG12999GA1011+015009059GA2051+027009039MA1100001999999EQDQ01+000000PRSWM2
0047010014999991991031105504+59800+005350FM-15+0049ENSO V0201601N00511001501CN0030001N1+00501+00301999999ADDAG12000GA1091+001509999MA1100911999999MW1101
0047010014999991991031106504+59800+005350FM-15+0049ENSO V0201501N00511001801CN0025001N1+00501+00301999999ADDAG12999GA1091+001809999MA1100911999999MW1101
0063010014999991991031107504+59800+005350FM-15+0049ENSO V0201401N00511001501CN0025001N1+00501+00301999999ADDAG12999GA1031+000909079GA2061+001509079MA1100911999999MW1591
0079010014999991991031108504+59800+005350FM-15+0049ENSO V0201701N00261001501CN0050001N1+00501+00301999999ADDAG12014GA1021+000909079GA2031+001509079GA3061+002109079MA1101021999999MW1591
0076010014999991991031109504+59800+005350FM-15+0049ENSO V0201501N00211002701CN0080001N1+00601+00401999999ADDAG12999GA1031+001509079GA2061+002709079MA1101021999999EQDQ01+000000PRSWM2
0076010014999991991031110504+59800+005350FM-15+0049ENSO V0201401N00261004501CN0112001N1+00601+00401999999ADDAG12999GA1031+003009079GA2061+004509059MA1101021999999EQDQ01+000000PRSWM2
0076010014999991991031111504+59800+005350FM-15+0049ENSO V0201401N00311006001CN0112001N1+00601+00501999999ADDAG12000GA1021+004209079GA2051+006009059MA1101021999999EQDQ01+000000PRSWM2
0076010014999991991031112504+59800+005350FM-15+0049ENSO V0201401N00311006001CN0112001N1+00701+00501999999ADDAG12999GA1021+004209079GA2051+006009059MA1101021999999EQDQ01+000000PRSWM2
0076010014999991991031113504+59800+005350FM-15+0049ENSO V0201501N00211006001CN0112001N1+00701+00301999999ADDAG12999GA1021+004209079GA2051+006009059MA1101021999999EQDQ01+000000PRSWM2
0079010014999991991031114504+59800+005350FM-15+0049ENSO V0209991V00101003001CN0112001N1+00601+00301999999ADDAG12001GA1021+001209079GA2031+003009079GA3061+006009059MA1101021999999MW1501
0079010014999991991031115504+59800+005350FM-15+0049ENSO V0209999999999001801CN0070001N1+00601+00301999999ADDAG12999GA1021+001209079GA2031+001809079GA3061+002109079MA1101021999999MW1521
0063010014999991991031116504+59800+005350FM-15+0049ENSO V0200501N00051001801CN0050001N1+00501+00301999999ADDAG12999GA1021+000909079GA2061+001809079MA1101021999999MW1501
0047010014999991991031205504+59800+005350FM-15+0049ENSO V0201401N00211000601CN0012001N1+00301+00101999999ADDAG12001GA1091+000609999MA1101191999999MW1501
0047010014999991991031206504+59800+005350FM-15+0049ENSO V0201601N00101000601CN0004001N1+00401+00301999999ADDAG12999GA1091+000609999MA1101191999999MW1431
0047010014999991991031207504+59800+005350FM-15+0049ENSO V0201601N00151000601CN0008001N1+00401+00301999999ADDAG12999GA1091+000609999MA1101191999999MW1411
0047010014999991991031208504+59800+005350FM-15+0049ENSO V0201601N00211000601CN0006001N1+00401+00301999999ADDAG12000GA1091+000609999MA1101191999999MW1451
0047010014999991991031209504+59800+005350FM-15+0049ENSO V0201701N00101000601CN0007001N1+00401+00301999999ADDAG12999GA1091+000609999MA1101291999999MW1451
0082010014999991991031210504+59800+005350FM-15+0049ENSO V0202501N00261001201CN0025001N1+00501+00301999999ADDAG11999GA1021+000609079GA2061+001209079MA1101291999999MW1441EQDQ01+000452PRSWM2
0063010014999991991031211504+59800+005350FM-15+0049ENSO V0201501N00151001801CN0060001N1+00501+00301999999ADDAG12000GA1031+001209079GA2061+001809079MA1101291999999MW1401
0063010014999991991031212504+59800+005350FM-15+0049ENSO V0201901N00101002101CN0070001N1+00501+00301999999ADDAG12999GA1031+001209079GA2061+002109079MA1101291999999MW1401
0114010014999991991031213504+59800+005350FM-15+0049ENSO V0202101N00151001801CN0070001N1+00501+00301999999ADDAG12999GA1021+001209079GA2031+001809079GA3061+002409079MA1101291999999MW1401REMMET026VIS        ?     TO N 9999
0114010014999991991031214504+59800+005350FM-15+0049ENSO V0202801N00151001501CN0070001N1+00501+00301999999ADDAG12000GA1021+000909079GA2031+001509079GA3061+002409079MA1101291999999MW1101REMMET026VIS        ?     TO N 9999
0047010014999991991031215504+59800+005350FM-15+0049ENSO V0202501N00101001501CN0050001N1+00401+00201999999ADDAG12999GA1091+001509999MA1101291999999MW1451
0047010014999991991031216504+59800+005350FM-15+0049ENSO V0201201N00051001201CN0050001N1+00501+00401999999ADDAG12999GA1091+001209999MA1101191999999MW1451
0047010014999991991031305504+59800+005350FM-15+0049ENSO V0201501N00511001501CN0040001N1+00301+00201999999ADDAG12000GA1091+001509999MA1101081999999MW1101
0047010014999991991031306504+59800+005350FM-15+0049ENSO V0201601N00461001501CN0050001N1+00201+00101999999ADDAG12999GA1091+001509999MA1101081999999MW1501
0063010014999991991031307504+59800+005350FM-15+0049ENSO V0201501N00571002101CN0070001N1+00301+00201999999ADDAG12999GA1031+001509079GA2061+002109079MA1101081999999MW1601
0063010014999991991031308504+59800+005350FM-15+0049ENSO V0201501N00461002101CN0070001N1+00301+00201999999ADDAG12002GA1031+001509079GA2061+002109079MA1101081999999MW1601
0063010014999991991031309504+59800+005350FM-15+0049ENSO V0201501N00571002101CN0080001N1+00301+00201999999ADDAG12999GA1031+001509079GA2061+002109079MA1101081999999MW1601
0047010014999991991031310504+59800+005350FM-15+0049ENSO V0201501N00571001801CN0070001N1+00401+00301999999ADDAG12999GA1091+001809999MA1101021999999MW1611
0063010014999991991031311504+59800+005350FM-15+0049ENSO V0201401N00721002401CN0080001N1+00401+00201999999ADDAG12007GA1021+001809079GA2061+002409079MA1101021999999MW1611
0047010014999991991031312504+59800+005350FM-15+0049ENSO V0201401N00571002101CN0070001N1+00401+00201999999ADDAG12999GA1091+002109999MA1101021999999MW1611
0063010014999991991031313504+59800+005350FM-15+0049ENSO V0201401N00511001801CN0060001N1+00501+00201999999ADDAG12999GA1021+001209079GA2061+001809079MA1101021999999MW1611
0047010014999991991031314504+59800+005350FM-15+0049ENSO V0201401N00411001501CN0040001N1+00501+00201999999ADDAG12007GA1091+001509999MA1100911999999MW1621
0063010014999991991031315504+59800+005350FM-15+0049ENSO V0201301N00361002101CN0070001N1+00501+00401999999ADDAG12999GA1021+001509079GA2061+002109079MA1100911999999MW1621
0063010014999991991031316504+59800+005350FM-15+0049ENSO V0201501N00311002101CN0080001N1+00501+00401999999ADDAG12999GA1021+001509079GA2061+002109079MA1100811999999MW1601
0087010014999991991031406504+59800+005350FM-15+0049ENSO V0201401N00311005401CN0090001N1+00501+00301999999ADDAG12999GA1031+000609079GA2061+005409059MA1100611999999MW1401REMMET015VIS TO SSE 3000
0092010014999991991031407504+59800+005350FM-15+0049ENSO V0201601N00261009001CN0112001N1+00501+00301999999ADDAG12999GA1011+000609079GA2031+004509059GA3061+009009059MA1100611999999EQDQ01+000000PRSWM2
0092010014999991991031408504+59800+005350FM-15+0049ENSO V0201401N00311004501CN0112001N1+00501+00401999999ADDAG12000GA1011+000159079GA2031+002409079GA3061+004509059MA1100711999999EQDQ01+000000PRSWM2
0079010014999991991031409504+59800+005350FM-15+0049ENSO V0201501N00311001201CN0112001N1+00501+00401999999ADDAG12999GA1021+000309079GA2031+001209079GA3061+003609059MA1100711999999MW1211
0063010014999991991031410504+59800+005350FM-15+0049ENSO V0201501N00361002401CN0112001N1+00501+00401999999ADDAG12999GA1031+001209079GA2061+002409079MA1100711999999MW1601
0047010014999991991031411504+59800+005350FM-15+0049ENSO V0201501N00211000601CN0070001N1+00501+00401999999ADDAG12001GA1091+000609999MA1100711999999MW1501
0079010014999991991031412504+59800+005350FM-15+0049ENSO V0201601N00211002101CN0035001N1+00601+00501999999ADDAG12999GA1011+000309079GA2031+001509079GA3061+002109079MA1100611999999MW1401
0047010014999991991031413504+59800+005350FM-15+0049ENSO V0201401N00211000601CN0030001N1+00601+00501999999ADDAG12999GA1091+000609999MA1100611999999MW1101
0047010014999991991031414504+59800+005350FM-15+0049ENSO V0201701N00211000601CN0025001N1+00601+00501999999ADDAG12000GA1091+000609999MA1100611999999MW1101
0047010014999991991031415504+59800+005350FM-15+0049ENSO V0201701N00261000301CN0005001N1+00601+00501999999ADDAG12999GA1091+000309999MA1100611999999MW1451
0079010014999991991031506504+59800+005350FM-15+0049ENSO V0209991C00001007501CN0112001N1+00401+00301999999ADDAG12999GA1011+000159079GA2031+003009059GA3051+007509059MA1100611999999MW1401
0092010014999991991031507504+59800+005350FM-15+0049ENSO V0201601N00101009001CN0112001N1+00501+00301999999ADDAG12999GA1011+000609079GA2031+003909059GA3051+009009059MA1100611999999EQDQ01+000000PRSWM2
0076010014999991991031509504+59800+005350FM-15+0049ENSO V0201401N00211009001CN0112001N1+00601+00401999999ADDAG12999GA1021+002109079GA2051+009009059MA1100711999999EQDQ01+000000PRSWM2
0076010014999991991031511504+59800+005350FM-15+0049ENSO V0201401N00211007501CN0112001N1+00601+00401999999ADDAG12000GA1031+003609079GA2051+007509059MA1100711999999EQDQ01+000000PRSWM2
0076010014999991991031512504+59800+005350FM-15+0049ENSO V0201701N00211007501CN0112001N1+00701+00201999999ADDAG12999GA1021+004509089GA2041+007509059MA1100711999999EQDQ01+000000PRSWM2
0076010014999991991031513504+59800+005350FM-15+0049ENSO V0202001N00211009001CN0112001N1+00701+00201999999ADDAG12999GA1021+004509089GA2041+009009059MA1100711999999EQDQ01+000000PRSWM2
0076010014999991991031514504+59800+005350FM-15+0049ENSO V0201601N00211009001CN0112001N1+00701+00201999999ADDAG12000GA1021+004509089GA2051+009009059MA1100711999999EQDQ01+000000PRSWM2
0076010014999991991031515504+59800+005350FM-15+0049ENSO V0201601N00211007501CN0112001N1+00601+00201999999ADDAG12999GA1021+004509089GA2051+007509059MA1100711999999EQDQ01+000000PRSWM2
0076010014999991991031516504+59800+005350FM-15+0049ENSO V0201401N00311009001CN0112001N1+00601+00301999999ADDAG12999GA1021+004509089GA2051+009009059MA1100711999999EQDQ01+000000PRSWM2
0063010014999991991031805504+59800+005350FM-15+0049ENSO V0201701N00511005401CN0112001N1+00601+00301999999ADDAG12014GA1021+003609079GA2061+005409059MA1100711999999MW1591
0079010014999991991031806504+59800+005350FM-15+0049ENSO V0201901N00511003601CN0112001N1+00601+00401999999ADDAG12999GA1021+002709079GA2031+003609079GA3061+004209079MA1100811999999MW1591
0079010014999991991031807504+59800+005350FM-15+0049ENSO V0201701N00461002101CN0080001N1+00501+00401999999ADDAG12999GA1021+001509079GA2031+002109079GA3061+002709079MA1100911999999MW1601
