0087010014999991992010208504+59800+005350FM-15+0049ENSO V0202501N00881001801CN0070001N1+00901+00801999999ADDAG12000GA1011+000309079GA2041+000909079GA3071+001809079MA1099291999999MW1211OC101441
0079010014999991992010209504+59800+005350FM-15+0049ENSO V0202501N00881001201CN0070001N1+00901+00801999999ADDAG12999GA1021+000609079GA2041+001209079GA3061+001809079MA1099391999999MW1511
0084010014999991992010211504+59800+005350FM-15+0049ENSO V0202501N00821003001CN0112001N1+01001+00901999999ADDAG11000GA1021+001509079GA2061+003009079MA1099491999999OC101441EQDQ01+000000PRSWM2
0076010014999991992010605504+59800+005350FM-15+0049ENSO V0201501N00461220001CN0112001N1+00301+00201999999ADDAG11000GA1011+003009079GA2041+005409089MA1101591999999EQDQ01+000000PRSWM2
0076010014999991992010606504+59800+005350FM-15+0049ENSO V0201501N00361220001CN0112001N1+00301+00201999999ADDAG11999GA1011+003009079GA2041+005409089MA1101491999999EQDQ01+000000PRSWM2
0076010014999991992010607504+59800+005350FM-15+0049ENSO V0201601N00411005401CN0112001N1+00301+00201999999ADDAG11999GA1021+003009079GA2051+005409089MA1101491999999EQDQ01+000000PRSWM2
0063010014999991992010608504+59800+005350FM-15+0049ENSO V0201701N00361005401CN0112001N1+00301+00201999999ADDAG11001GA1021+003009079GA2051+005409089MA1101391999999MW1801
0063010014999991992010609504+59800+005350FM-15+0049ENSO V0201601N00571005401CN0112001N1+00401+00301999999ADDAG11999GA1021+003009079GA2051+005409089MA1101291999999MW1251
0092010014999991992010610504+59800+005350FM-15+0049ENSO V0201501N00621015001CN0112001N1+00401+00201999999ADDAG11999GA1011+003009079GA2031+004509089GA3061+015009059MA1101291999999EQDQ01+000000PRSWM2
0079010014999991992010611504+59800+005350FM-15+0049ENSO V0201501N00771004501CN0112001N1+00401+00101999999ADDAG11001GA1021+003009079GA2031+004509089GA3061+007509059MA1101081999999MW1801
0063010014999991992010612504+59800+005350FM-15+0049ENSO V0201501N00821006001CN0112001N1+00401+00201999999ADDAG11999GA1031+003009079GA2061+006009059MA1100911999999MW1611
0097010014999991992010613504+59800+005350FM-15+0049ENSO V0201501N00981004501CN0090001N1+00401+00301999999ADDAG11999GA1031+002409079GA2051+004509079MA1100611999999MW1611REMMET025PAST MAX         ?     30
0099010014999991992010614504+59800+005350FM-15+0049ENSO V0201601N01081003601CN0070001N1+00301+00201999999ADDAG12001GA1031+001809079GA2051+003609079MA1100411999999MW1611REMMET027PAST MAX         ?     33KT
0071010014999991992010615504+59800+005350FM-15+0049ENSO V0201601N00881003001CN0060001N1+00301+00201999999ADDAG11999GA1031+001509079GA2051+003009079MA1100201999999MW1681OC101441
0063010014999991992010616504+59800+005350FM-15+0049ENSO V0201601N00771003001CN0070001N1+00401+00301999999ADDAG11999GA1041+001809079GA2061+003009079MA1100001999999MW1611
0087010014999991992010617504+59800+005350FM-15+0049ENSO V0202001N00621001801CN0112001N1+00801+00701999999ADDAG12000GA1021+001209079GA2031+001809079GA3051+003009079MA1100001999999MW1211OC101131
0079010014999991992010619504+59800+005350FM-15+0049ENSO V0202801N00411005401CN0112001N1+00801+00601999999ADDAG11999GA1011+002409079GA2031+003609089GA3051+005409059MA1100101999999MW1501
0063010014999991992010706504+59800+005350FM-15+0049ENSO V0201701N00411007501CN0090001N1+00501+00401999999ADDAG12999GA1031+003609079GA2051+007509059MA1100001999999MW1611
0063010014999991992010707504+59800+005350FM-15+0049ENSO V0201901N00361003601CN0080001N1+00501+00401999999ADDAG12999GA1031+002409079GA2051+003609059MA1100001999999MW1611
0063010014999991992010709504+59800+005350FM-15+0049ENSO V0201701N00361005401CN0112001N1+00301+00201999999ADDAG12999GA1031+003009079GA2051+005409059MA1099901999999MW1611
0063010014999991992010710504+59800+005350FM-15+0049ENSO V0201401N00411005401CN0112001N1+00301+00201999999ADDAG12999GA1031+003009079GA2051+005409059MA1099801999999MW1611
0079010014999991992010711504+59800+005350FM-15+0049ENSO V0201201N00621004501CN0112001N1+00301+00201999999ADDAG12000GA1011+001809079GA2031+003009079GA3051+004509059MA1099591999999MW1211
0079010014999991992010712504+59800+005350FM-15+0049ENSO V0201401N00461004201CN0112001N1+00401+00301999999ADDAG12999GA1011+002109079GA2031+003009079GA3061+004209059MA1099491999999MW1601
0079010014999991992010713504+59800+005350FM-15+0049ENSO V0201601N00411002701CN0080001N1+00601+00501999999ADDAG12999GA1021+002109079GA2031+002709079GA3061+003609079MA1099391999999MW1601
0079010014999991992010714504+59800+005350FM-15+0049ENSO V0201601N00211002101CN0090001N1+00601+00501999999ADDAG12000GA1021+001509079GA2031+002109079GA3061+002709079MA1099391999999MW1601
0079010014999991992010715504+59800+005350FM-15+0049ENSO V0201501N00211002101CN0070001N1+00601+00501999999ADDAG12999GA1021+001509079GA2031+002109079GA3061+002709079MA1099391999999MW1591
0063010014999991992010716504+59800+005350FM-15+0049ENSO V0202101N00211003001CN0080001N1+00701+00601999999ADDAG11999GA1021+002109079GA2061+003009079MA1099391999999MW1211
0092010014999991992010717504+59800+005350FM-15+0049ENSO V0202701N00261003001CN0112001N1+00701+00601999999ADDAG11000GA1021+002109079GA2031+003009079GA3061+005109059MA1099391999999EQDQ01+000000PRSWM2
0092010014999991992010718504+59800+005350FM-15+0049ENSO V0209991V00151003901CN0112001N1+00501+00401999999ADDAG11999GA1021+002709079GA2031+003909079GA3061+005109059MA1099491999999EQDQ01+000000PRSWM2
0076010014999991992010719504+59800+005350FM-15+0049ENSO V0203101N00211003601CN0112001N1+00501+00401999999ADDAG12999GA1021+002409079GA2061+003609079MA1099491999999EQDQ01+000000PRSWM2
0079010014999991992010806504+59800+005350FM-15+0049ENSO V0200201N00211005401CN0112001N1+00301+00201999999ADDAG12999GA1011+002409079GA2031+003609079GA3051+005409059MA1099491999999MW1601
0063010014999991992010807504+59800+005350FM-15+0049ENSO V0209991C00001007501CN0112001N1+00301+00201999999ADDAG12999GA1021+004509059GA2051+007509059MA1099591999999MW1211
0076010014999991992010808504+59800+005350FM-15+0049ENSO V0209991C00001015001CN0112001N1+00301+00201999999ADDAG12000GA1021+004509089GA2061+015009049MA1099591999999EQDQ01+000000PRSWM2
0079010014999991992010809504+59800+005350FM-15+0049ENSO V0209991C00001009001CN0112001N1+00201+00101999999ADDAG12999GA1011+000309079GA2031+003609089GA3051+009009059MA1099591999999MW1401
0076010014999991992010811504+59800+005350FM-15+0049ENSO V0203001N00051021001CN0112001N1+00301+00201999999ADDAG12000GA1021+003609089GA2051+021009039MA1099591999999EQDQ01+000000PRSWM2
0076010014999991992010812504+59800+005350FM-15+0049ENSO V0203601N00051021001CN0112001N1+00301+00201999999ADDAG12999GA1021+003609089GA2051+021009039MA1099591999999EQDQ01+000000PRSWM2
0092010014999991992010813504+59800+005350FM-15+0049ENSO V0200101N00051007501CN0112001N1+00301+00201999999ADDAG12999GA1021+004509089GA2031+007509059GA3061+021009039MA1099591999999EQDQ01+000000PRSWM2
0076010014999991992010814504+59800+005350FM-15+0049ENSO V0203501N00361021001CN0112001N1+00301+00201999999ADDAG12000GA1021+004509089GA2061+021009039MA1099701999999EQDQ01+000000PRSWM2
0076010014999991992010815504+59800+005350FM-15+0049ENSO V0203601N00361021001CN0112001N1+00201+00001999999ADDAG12999GA1021+004509089GA2061+021009039MA1099701999999EQDQ01+000000PRSWM2
0076010014999991992010816504+59800+005350FM-15+0049ENSO V0203501N00511021001CN0112001N1+00201-00101999999ADDAG12999GA1021+006009089GA2061+021009039MA1099801999999EQDQ01+000000PRSWM2
0076010014999991992010817504+59800+005350FM-15+0049ENSO V0200101N00411021001CN0112001N1+00201-00201999999ADDAG12000GA1021+006009089GA2061+021009039MA1099801999999EQDQ01+000000PRSWM2
0076010014999991992010818504+59800+005350FM-15+0049ENSO V0203601N00411024001CN0112001N1+00201-00301999999ADDAG12999GA1021+006009089GA2041+024009039MA1099901999999EQDQ01+000000PRSWM2
0076010014999991992010819504+59800+005350FM-15+0049ENSO V0203601N00411220001CN0112001N1+00201-00401999999ADDAG12999GA1021+006009089GA2031+024009039MA1099901999999EQDQ01+000000PRSWM2
0063010014999991992010905504+59800+005350FM-15+0049ENSO V0203501N00461220001CN0112001N1+00101-00101999999ADDAG11000GA1011+006009089GA2031+021009039MA1100201999999MW1261
0076010014999991992010906504+59800+005350FM-15+0049ENSO V0203401N00411220001CN0112001N1+00101-00101999999ADDAG11999GA1011+006009089GA2041+021009039MA1100311999999EQDQ01+000000PRSWM2
0047010014999991992010907504+59800+005350FM-15+0049ENSO V0203501N00671220001CN0112001N1+00101+00001999999ADDAG11999GA1041+006009089MA1100311999999MW1261
0063010014999991992010908504+59800+005350FM-15+0049ENSO V0203401N00821006001CN0112001N1+00201+00001999999ADDAG11000GA1021+004509089GA2051+006009089MA1100311999999MW1261
0071010014999991992010909504+59800+005350FM-15+0049ENSO V0203501N00931005401CN0112001N1+00201-00101999999ADDAG11999GA1021+003909089GA2051+005409089MA1100411999999MW1261OC101441
0060010014999991992010910504+59800+005350FM-15+0049ENSO V0200101N00621220001CN0112001N1+00201-00201999999ADDAG12999GA1031+005409089MA1100511999999EQDQ01+000000PRSWM2
0060010014999991992010911504+59800+005350FM-15+0049ENSO V0203301N00461220001CN0112001N1+00201-00201999999ADDAG12000GA1021+005409089MA1100711999999EQDQ01+000000PRSWM2
0060010014999991992010913504+59800+005350FM-15+0049ENSO V0200101N00311220001CN0112001N1+00201-00301999999ADDAG12999GA1011+006009089MA1100911999999EQDQ01+000000PRSWM2
0060010014999991992010914504+59800+005350FM-15+0049ENSO V0203601N00361220001CN0112001N1+00201-00101999999ADDAG11000GA1011+006009089MA1101021999999EQDQ01+000000PRSWM2
0076010014999991992010915504+59800+005350FM-15+0049ENSO V0203601N00361220001CN0112001N1+00101-00301999999ADDAG11999GA1011+006009089GA2031+054009009MA1101081999999EQDQ01+000000PRSWM2
0076010014999991992010916504+59800+005350FM-15+0049ENSO V0203501N00261220001CN0112001N1+00101-00301999999ADDAG11999GA1021+006009089GA2031+054009009MA1101191999999EQDQ01+000000PRSWM2
0076010014999991992010917504+59800+005350FM-15+0049ENSO V0203601N00261054001CN0112001N1+00101-00301999999ADDAG11000GA1021+006009089GA2041+054009009MA1101391999999EQDQ01+000000PRSWM2
0076010014999991992010918504+59800+005350FM-15+0049ENSO V0200201N00211054001CN0112001N1+00101-00201999999ADDAG12999GA1021+006009089GA2041+054009009MA1101491999999EQDQ01+000000PRSWM2
0076010014999991992010919504+59800+005350FM-15+0049ENSO V0203501N00101220001CN0112001N1+00101-00301999999ADDAG12999GA1011+006009089GA2031+054009009MA1101591999999EQDQ01+000000PRSWM2
0076010014999991992011005504+59800+005350FM-15+0049ENSO V0201401N00461220001CN0112001N1+00001-00201999999ADDAG11000GA1011+009009059GA2031+021009039MA1102101999999EQDQ01+000000PRSWM2
0076010014999991992011006504+59800+005350FM-15+0049ENSO V0201501N00461021001CN0112001N1+00001-00201999999ADDAG11999GA1031+012009059GA2051+021009039MA1102101999999EQDQ01+000000PRSWM2
0076010014999991992011007504+59800+005350FM-15+0049ENSO V0201301N00361012001CN0112001N1+00101-00101999999ADDAG11999GA1021+007509059GA2051+012009059MA1102101999999EQDQ01+000000PRSWM2
0076010014999991992011008504+59800+005350FM-15+0049ENSO V0201501N00461013501CN0112001N1+00101-00301999999ADDAG11000GA1021+007509059GA2051+013509059MA1102201999999EQDQ01+000000PRSWM2
0076010014999991992011009504+59800+005350FM-15+0049ENSO V0201501N00461012001CN0112001N1+00201-00201999999ADDAG11999GA1031+007509059GA2051+012009059MA1102201999999EQDQ01+000000PRSWM2
0076010014999991992011010504+59800+005350FM-15+0049ENSO V0201501N00511012001CN0112001N1+00201-00201999999ADDAG11999GA1031+007509059GA2051+012009059MA1102201999999EQDQ01+000000PRSWM2
0076010014999991992011011504+59800+005350FM-15+0049ENSO V0201501N00511009001CN0112001N1+00201-00201999999ADDAG11000GA1021+006009089GA2051+009009059MA1102101999999EQDQ01+000000PRSWM2
0084010014999991992011013504+59800+005350FM-15+0049ENSO V0202201N00571009001CN0112001N1+00501-00201999999ADDAG11999GA1021+006009089GA2051+009009059MA1102001999999OC101081EQDQ01+000000PRSWM2
0076010014999991992011014504+59800+005350FM-15+0049ENSO V0202201N00671009001CN0112001N1+00501-00201999999ADDAG12000GA1021+006009089GA2051+009009059MA1102001999999EQDQ01+000000PRSWM2
0063010014999991992011015504+59800+005350FM-15+0049ENSO V0202101N00461007501CN0112001N1+00501+00001999999ADDAG12999GA1021+004509089GA2051+007509059MA1101901999999MW1581
0071010014999991992011016504+59800+005350FM-15+0049ENSO V0202101N00461009001CN0112001N1+00601+00101999999ADDAG12999GA1021+004509089GA2051+009009059MA1101901999999MW1211OC100511
0093010014999991992011017504+59800+005350FM-15+0049ENSO V0202101N00511009001CN0112001N1+00601+00101999999ADDAG12000GA1021+005409089GA2051+009009059MA1101801999999REMMET008PAST MAXEQDQ01+000000PRSWM2
0063010014999991992011018504+59800+005350FM-15+0049ENSO V0202101N00361007501CN0070001N1+00501+00301999999ADDAG12999GA1031+004509059GA2051+007509059MA1101801999999MW1611
0071010014999991992011106504+59800+005350FM-15+0049ENSO V0202601N00771001801CN0060001N1+00801+00701999999ADDAG12999GA1021+001209079GA2061+001809079MA1101291999999MW1611OC101341
0063010014999991992011107504+59800+005350FM-15+0049ENSO V0202601N00771001501CN0045001N1+00801+00701999999ADDAG12999GA1021+000909079GA2061+001509079MA1101291999999MW1611
0063010014999991992011305504+59800+005350FM-15+0049ENSO V0201401N00261002401CN0070001N1+00201+00101999999ADDAG12001GA1031+000909079GA2061+002409079MA1102811999999MW1611
0071010014999991992011306504+59800+005350FM-15+0049ENSO V0201201N00151002101CN0060001N1+00201+00201999999ADDAG12999GA1041+000909079GA2061+002109079MA1102711999999MW1591OC100721
0047010014999991992011307504+59800+005350FM-15+0049ENSO V0201401N00151001501CN0045001N1+00301+00301999999ADDAG12999GA1091+001509999MA1102711999999MW1531
0047010014999991992011308504+59800+005350FM-15+0049ENSO V0201401N00051001501CN0050001N1+00301+00201999999ADDAG12000GA1091+001509999MA1102711999999MW1531
0079010014999991992011309504+59800+005350FM-15+0049ENSO V0201401N00151001501CN0060001N1+00301+00201999999ADDAG12999GA1011+000309079GA2031+000909079GA3061+001509079MA1102711999999MW1611
0079010014999991992011310504+59800+005350FM-15+0049ENSO V0201401N00101001501CN0112001N1+00401+00301999999ADDAG11999GA1011+000309079GA2041+000909079GA3061+001509079MA1102611999999MW1211
0063010014999991992011311504+59800+005350FM-15+0049ENSO V0201301N00151001501CN0112001N1+00401+00301999999ADDAG11000GA1021+000609079GA2061+001509079MA1102611999999MW1211
0063010014999991992011312504+59800+005350FM-15+0049ENSO V0201601N00051001801CN0070001N1+00401+00301999999ADDAG11999GA1021+000609079GA2061+001809079MA1102511999999MW1591
0079010014999991992011313504+59800+005350FM-15+0049ENSO V0209991V00051000901CN0030001N1+00501+00401999999ADDAG11999GA1021+000609079GA2031+000909079GA3061+001509079MA1102511999999MW1591
0063010014999991992011314504+59800+005350FM-15+0049ENSO V0203001N00051002101CN0070001N1+00601+00501999999ADDAG11002GA1021+001209079GA2061+002109079MA1102401999999MW1591
0063010014999991992011315504+59800+005350FM-15+0049ENSO V0202801N00261001801CN0050001N1+00701+00601999999ADDAG11999GA1021+001209079GA2061+001809079MA1102401999999MW1601
0063010014999991992011316504+59800+005350FM-15+0049ENSO V0202701N00151001801CN0070001N1+00701+00601999999ADDAG11999GA1031+001209079GA2061+001809079MA1102301999999MW1601
0063010014999991992011317504+59800+005350FM-15+0049ENSO V0202801N00151002101CN0070001N1+00701+00601999999ADDAG11001GA1031+001209079GA2061+002109079MA1102301999999MW1611
0079010014999991992011318504+59800+005350FM-15+0049ENSO V0209991V00101003001CN0050001N1+00701+00601999999ADDAG12999GA1021+002109079GA2031+003009079GA3061+004509059MA1102301999999MW1611
0079010014999991992011319504+59800+005350FM-15+0049ENSO V0203001N00151003001CN0070001N1+00701+00601999999ADDAG12999GA1021+002109079GA2031+003009079GA3061+004509059MA1102201999999MW1611
0071010014999991992011405504+59800+005350FM-15+0049ENSO V0203201N00461001501CN0030001N1+00801+00701999999ADDAG12000GA1041+000909079GA2061+001509079MA1102201999999MW1531OC100981
0047010014999991992011406504+59800+005350FM-15+0049ENSO V0203201N00461000601CN0020001N1+00701+00601999999ADDAG12999GA1091+000609999MA1102201999999MW1511
0055010014999991992011407504+59800+005350FM-15+0049ENSO V0203201N00461000601CN0012001N1+00701+00701999999ADDAG12999GA1091+000609999MA1102201999999MW1511OC101131
0100010014999991992011408504+59800+005350FM-15+0049ENSO V0203201N00461001501CN0080001N1+00701+00601999999ADDAG12000GA1011+000309079GA2041+000909079GA3071+001509079MA1102301999999OC101181EQDQ01+000000PRSWM2
0071010014999991992011409504+59800+005350FM-15+0049ENSO V0203201N00571001501CN0080001N1+00701+00601999999ADDAG12999GA1041+000909079GA2061+001509079MA1102301999999MW1511OC101081
0071010014999991992011410504+59800+005350FM-15+0049ENSO V0203201N00411001501CN0080001N1+00701+00601999999ADDAG12999GA1041+000909079GA2061+001509079MA1102401999999MW1101OC100931
0063010014999991992011411504+59800+005350FM-15+0049ENSO V0203101N00311001801CN0070001N1+00701+00601999999ADDAG12000GA1041+000909079GA2061+001809079MA1102511999999MW1501
0071010014999991992011412504+59800+005350FM-15+0049ENSO V0203201N00461002101CN0050001N1+00701+00601999999ADDAG12999GA1031+001509079GA2061+002109079MA1102401999999MW1501OC100981
0071010014999991992011413504+59800+005350FM-15+0049ENSO V0203201N00461002401CN0070001N1+00701+00601999999ADDAG12999GA1031+001809079GA2061+002409079MA1102511999999MW1501OC101031
0071010014999991992011414504+59800+005350FM-15+0049ENSO V0203201N00411002401CN0070001N1+00701+00601999999ADDAG11000GA1031+001809079GA2061+002409079MA1102511999999MW1501OC100981
0063010014999991992011415504+59800+005350FM-15+0049ENSO V0203201N00361002101CN0070001N1+00701+00601999999ADDAG12999GA1031+001509079GA2061+002109079MA1102511999999MW1201
0084010014999991992011416504+59800+005350FM-15+0049ENSO V0203201N00311002101CN0070001N1+00701+00601999999ADDAG12999GA1031+001509079GA2061+002109079MA1102511999999OC100821EQDQ01+000000PRSWM2
0055010014999991992011417504+59800+005350FM-15+0049ENSO V0203301N00311001501CN0070001N1+00701+00601999999ADDAG12000GA1091+001509999MA1102611999999MW1211OC100821
0076010014999991992011418504+59800+005350FM-15+0049ENSO V0203301N00261002101CN0060001N1+00701+00601999999ADDAG12999GA1031+001509079GA2061+002109079MA1102611999999EQDQ01+000000PRSWM2
0076010014999991992011419504+59800+005350FM-15+0049ENSO V0203401N00211002101CN0070001N1+00701+00601999999ADDAG11999GA1031+001509079GA2061+002109079MA1102711999999EQDQ01+000000PRSWM2
0063010014999991992011506504+59800+005350FM-15+0049ENSO V0203301N00211009001CN0112001N1+00701+00501999999ADDAG11999GA1011+003609079GA2051+009009059MA1102711999999MW1101
0076010014999991992011508504+59800+005350FM-15+0049ENSO V0203201N00361007501CN0112001N1+00701+00501999999ADDAG11000GA1021+004209089GA2051+007509059MA1102711999999EQDQ01+000000PRSWM2
0076010014999991992011509504+59800+005350FM-15+0049ENSO V0203201N00311009001CN0112001N1+00701+00501999999ADDAG11999GA1011+003609089GA2051+009009059MA1102711999999EQDQ01+000000PRSWM2
0084010014999991992011510504+59800+005350FM-15+0049ENSO V0203201N00311009001CN0112001N1+00701+00501999999ADDAG11999GA1021+004209089GA2051+009009059MA1102711999999OC100821EQDQ01+000000PRSWM2
0100010014999991992011511504+59800+005350FM-15+0049ENSO V0203201N00311009001CN0112001N1+00701+00501999999ADDAG12000GA1011+002109079GA2031+004509089GA3051+009009059MA1102711999999OC100821EQDQ01+000000PRSWM2
0076010014999991992011512504+59800+005350FM-15+0049ENSO V0203101N00261007501CN0112001N1+00701+00501999999ADDAG12999GA1031+004509089GA2051+007509059MA1102711999999EQDQ01+000000PRSWM2
0076010014999991992011513504+59800+005350FM-15+0049ENSO V0203101N00151007501CN0112001N1+00701+00501999999ADDAG12999GA1021+004509089GA2061+007509059MA1102611999999EQDQ01+000000PRSWM2
0076010014999991992011514504+59800+005350FM-15+0049ENSO V0203101N00151009001CN0112001N1+00701+00501999999ADDAG12000GA1031+005409089GA2061+009009059MA1102611999999EQDQ01+000000PRSWM2
0076010014999991992011515504+59800+005350FM-15+0049ENSO V0203101N00211007501CN0112001N1+00701+00401999999ADDAG12999GA1031+004509089GA2061+007509059MA1102611999999EQDQ01+000000PRSWM2
0076010014999991992011516504+59800+005350FM-15+0049ENSO V0203201N00101009001CN0112001N1+00701+00401999999ADDAG12999GA1031+004509089GA2061+009009059MA1102611999999EQDQ01+000000PRSWM2
0076010014999991992011517504+59800+005350FM-15+0049ENSO V0203001N00211009001CN0112001N1+00701+00401999999ADDAG12000GA1031+004509089GA2061+009009059MA1102511999999EQDQ01+000000PRSWM2
0076010014999991992011518504+59800+005350FM-15+0049ENSO V0203001N00151009001CN0112001N1+00701+00401999999ADDAG12999GA1031+004509089GA2061+009009059MA1102511999999EQDQ01+000000PRSWM2
0071010014999991992011519504+59800+005350FM-15+0049ENSO V0203201N00211009001CN0112001N1+00701+00501999999ADDAG12999GA1031+004509089GA2061+009009059MA1102401999999MW1801OC100721
0063010014999991992011605504+59800+005350FM-15+0049ENSO V0202801N00101004501CN0112001N1+00601+00401999999ADDAG11000GA1021+002409079GA2061+004509059MA1101591999999MW1601
0071010014999991992011607504+59800+005350FM-15+0049ENSO V0203101N00101007501CN0112001N1+00601+00401999999ADDAG11999GA1021+004509089GA2051+007509059MA1101391999999MW1501OC100721
0071010014999991992011608504+59800+005350FM-15+0049ENSO V0202801N00101005401CN0112001N1+00601+00401999999ADDAG11000GA1031+003909089GA2051+005409059MA1101291999999MW1501OC100621
0079010014999991992011609504+59800+005350FM-15+0049ENSO V0203101N00211006001CN0112001N1+00501+00301999999ADDAG11999GA1021+004509089GA2031+006009059GA3051+009009059MA1101191999999MW1201
0076010014999991992011610504+59800+005350FM-15+0049ENSO V0203001N00151006001CN0112001N1+00601+00301999999ADDAG11999GA1031+004509089GA2051+006009059MA1101191999999EQDQ01+000000PRSWM2
0071010014999991992011611504+59800+005350FM-15+0049ENSO V0203101N00361005401CN0080001N1+00601+00401999999ADDAG12002GA1031+003609089GA2061+005409059MA1101021999999MW1811OC101291
0108010014999991992011612504+59800+005350FM-15+0049ENSO V0203201N01031220001CN9999999N9+00601+00101999999ADDAG12999GA1041+004509089MA1101021999999OC101801REMMET015WIND EST DUE TOEQDQ01+000002VOVAR Q02+000000PRSWM2
0090010014999991992011613504+59800+005350FM-15+0049ENSO V0203201N01241220001CN0112001N1+00601+00201999999ADDAG12999GA1041+005409089MA1101081999999OC101751REMMET013PAST MAX 45KTEQDQ01+000000PRSWM2
0084010014999991992011614504+59800+005350FM-15+0049ENSO V0203301N01291220001CN0112001N1+00501+00301999999ADDAG12000GA1011+004509099GA2031+005409089MA1101191999999OC101801EQDQ01+000000PRSWM2
0084010014999991992011615504+59800+005350FM-15+0049ENSO V0203301N01291004501CN0112001N1+00501+00001999999ADDAG12999GA1021+003609099GA2031+004509089MA1101291999999OC101851EQDQ01+000000PRSWM2
0071010014999991992011616504+59800+005350FM-15+0049ENSO V0203401N01181220001CN0112001N1+00401+00101999999ADDAG12999GA1011+003609099GA2041+004509089MA1101491999999MW1251OC101701
0068010014999991992011617504+59800+005350FM-15+0049ENSO V0203501N01291220001CN0112001N1+00301-00501999999ADDAG12000GA1021+005409089MA1101591999999OC101801EQDQ01+000000PRSWM2
0068010014999991992011618504+59800+005350FM-15+0049ENSO V0203401N01341220001CN0112001N1+00301-00601999999ADDAG12999GA1011+006009089MA1101801999999OC101961EQDQ01+000000PRSWM2
0068010014999991992011619504+59800+005350FM-15+0049ENSO V0203401N01131220001CN0112001N1+00301-00401999999ADDAG12999GA1011+006009089MA1101901999999OC101751EQDQ01+000000PRSWM2
0100010014999991992011705504+59800+005350FM-15+0049ENSO V0203501N00361009001CN0112001N1+00301-00501999999ADDAG12000GA1021+005409089GA2031+009009089GA3051+021009039MA1102611999999OC101031EQDQ01+000000PRSWM2
0084010014999991992011706504+59800+005350FM-15+0049ENSO V0203501N00361021001CN0112001N1+00301-00501999999ADDAG11999GA1021+007509089GA2051+021009039MA1102611999999OC100931EQDQ01+000000PRSWM2
0084010014999991992011707504+59800+005350FM-15+0049ENSO V0203401N00571010501CN0112001N1+00301-00601999999ADDAG11999GA1021+006009089GA2051+010509059MA1102611999999OC101181EQDQ01+000000PRSWM2
0084010014999991992011708504+59800+005350FM-15+0049ENSO V0203501N00511013501CN0112001N1+00301-00601999999ADDAG12000GA1021+004509089GA2051+013509059MA1102711999999OC101031EQDQ01+000000PRSWM2
0084010014999991992011709504+59800+005350FM-15+0049ENSO V0203501N00361013501CN0112001N1+00301-00601999999ADDAG12999GA1021+006009089GA2051+013509059MA1102711999999OC100881EQDQ01+000000PRSWM2
0076010014999991992011710504+59800+005350FM-15+0049ENSO V0203501N00361013501CN0112001N1+00301-00501999999ADDAG12999GA1021+007509089GA2051+013509059MA1102711999999EQDQ01+000000PRSWM2
0076010014999991992011711504+59800+005350FM-15+0049ENSO V0203401N00361012001CN0112001N1+00301-00201999999ADDAG12000GA1031+007509089GA2051+012009059MA1102611999999EQDQ01+000000PRSWM2
0076010014999991992011713504+59800+005350FM-15+0049ENSO V0203501N00361012001CN0112001N1+00301-00201999999ADDAG12999GA1031+009009089GA2051+012009059MA1102611999999EQDQ01+000000PRSWM2
0092010014999991992011714504+59800+005350FM-15+0049ENSO V0203201N00621009001CN0112001N1+00301-00101999999ADDAG12000GA1011+003609079GA2031+005409089GA3051+009009059MA1102611999999EQDQ01+000000PRSWM2
0092010014999991992011715504+59800+005350FM-15+0049ENSO V0203301N00411012001CN0112001N1+00301-00101999999ADDAG12999GA1011+003609079GA2031+007509089GA3051+012009059MA1102611999999EQDQ01+000000PRSWM2
0076010014999991992011716504+59800+005350FM-15+0049ENSO V0200101N00211007501CN0112001N1+00301-00101999999ADDAG12999GA1031+006009089GA2051+007509059MA1102611999999EQDQ01+000000PRSWM2
0063010014999991992011717504+59800+005350FM-15+0049ENSO V0209991C00001009001CN0112001N1+00201-00101999999ADDAG11000GA1021+004509089GA2051+009009059MA1102511999999MW1211
0076010014999991992011719504+59800+005350FM-15+0049ENSO V0201301N00211009001CN0112001N1+00301+00001999999ADDAG12999GA1031+006009089GA2051+009009059MA1102401999999EQDQ01+000000PRSWM2
0076010014999991992012006504+59800+005350FM-15+0049ENSO V0201701N00261007501CN0112001N1+00301+00101999999ADDAG11999GA1011+003609079GA2051+007509059MA1103391999999EQDQ01+000000PRSWM2
0076010014999991992012008504+59800+005350FM-15+0049ENSO V0201501N00311012001CN0112001N1+00301+00001999999ADDAG11000GA1021+004509089GA2051+012009059MA1103391999999EQDQ01+000000PRSWM2
0076010014999991992012009504+59800+005350FM-15+0049ENSO V0201401N00211012001CN0112001N1+00301+00001999999ADDAG11999GA1011+005409089GA2051+012009059MA1103491999999EQDQ01+000000PRSWM2
0076010014999991992012010504+59800+005350FM-15+0049ENSO V0201401N00151010501CN0112001N1+00301+00001999999ADDAG11999GA1011+006009089GA2051+010509059MA1103491999999EQDQ01+000000PRSWM2
0076010014999991992012011504+59800+005350FM-15+0049ENSO V0201401N00311009001CN0112001N1+00301+00001999999ADDAG11000GA1011+006009089GA2051+009009059MA1103491999999EQDQ01+000000PRSWM2
0076010014999991992012012504+59800+005350FM-15+0049ENSO V0201401N00151012001CN0112001N1+00301+00001999999ADDAG11999GA1021+006009089GA2051+012009059MA1103491999999EQDQ01+000000PRSWM2
0076010014999991992012013504+59800+005350FM-15+0049ENSO V0201401N00101012001CN0112001N1+00301+00101999999ADDAG11999GA1021+006009059GA2051+012009059MA1103491999999EQDQ01+000000PRSWM2
0063010014999991992012014504+59800+005350FM-15+0049ENSO V0201201N00101009001CN0112001N1+00301+00101999999ADDAG12000GA1031+007509059GA2061+009009059MA1103491999999MW1501
0079010014999991992012015504+59800+005350FM-15+0049ENSO V0201101N00101006001CN0112001N1+00201+00101999999ADDAG12999GA1011+003909079GA2031+004509059GA3061+006009059MA1103491999999MW1501
0063010014999991992012016504+59800+005350FM-15+0049ENSO V0201101N00101007501CN0112001N1+00201+00101999999ADDAG12999GA1031+005409059GA2061+007509059MA1103491999999MW1501
0076010014999991992012017504+59800+005350FM-15+0049ENSO V0201401N00051012001CN0112001N1+00201+00101999999ADDAG12000GA1031+006009059GA2061+012009059MA1103491999999EQDQ01+000000PRSWM2
0076010014999991992012018504+59800+005350FM-15+0049ENSO V0201601N00051012001CN0112001N1+00201+00101999999ADDAG12999GA1021+007509059GA2051+012009059MA1103491999999EQDQ01+000000PRSWM2
0076010014999991992012019504+59800+005350FM-15+0049ENSO V0209991C00001012001CN0112001N1+00201+00101999999ADDAG12999GA1021+007509059GA2051+012009059MA1103491999999EQDQ01+000000PRSWM2
0076010014999991992012105504+59800+005350FM-15+0049ENSO V0201601N00101012001CN0112001N1+00201+00101999999ADDAG12000GA1031+005409089GA2061+012009059MA1103591999999EQDQ01+000000PRSWM2
0063010014999991992012106504+59800+005350FM-15+0049ENSO V0201501N00101010501CN0112001N1+00201+00101999999ADDAG12999GA1031+005409089GA2061+010509059MA1103591999999MW1581
0079010014999991992012107504+59800+005350FM-15+0049ENSO V0201201N00101009001CN0112001N1+00201+00101999999ADDAG12999GA1011+003909079GA2031+006009059GA3051+009009059MA1103591999999MW1211
0076010014999991992012108504+59800+005350FM-15+0049ENSO V0209991C00001007501CN0112001N1+00201+00101999999ADDAG11000GA1011+003909079GA2061+007509059MA1103591999999EQDQ01+000000PRSWM2
0092010014999991992012109504+59800+005350FM-15+0049ENSO V0201401N00261007501CN0112001N1+00201+00101999999ADDAG12999GA1021+006009059GA2031+007509059GA3061+012009059MA1103691999999EQDQ01+000000PRSWM2
0092010014999991992012110504+59800+005350FM-15+0049ENSO V0201401N00261007501CN0112001N1+00201+00001999999ADDAG11999GA1021+006009059GA2031+007509059GA3061+010509059MA1103691999999EQDQ01+000000PRSWM2
0076010014999991992012111504+59800+005350FM-15+0049ENSO V0201401N00261012001CN0112001N1+00301+00001999999ADDAG11000GA1031+007509059GA2061+012009059MA1103691999999EQDQ01+000000PRSWM2
0076010014999991992012113504+59800+005350FM-15+0049ENSO V0201201N00101010501CN0112001N1+00301+00001999999ADDAG11999GA1021+003909089GA2051+010509059MA1103591999999EQDQ01+000000PRSWM2
0092010014999991992012114504+59800+005350FM-15+0049ENSO V0201201N00101009001CN0112001N1+00301+00001999999ADDAG11000GA1011+002709079GA2031+003609089GA3051+009009059MA1103591999999EQDQ01+000000PRSWM2
0092010014999991992012115504+59800+005350FM-15+0049ENSO V0201301N00101009001CN0112001N1+00201+00101999999ADDAG11999GA1011+002409079GA2031+003609089GA3051+009009059MA1103591999999EQDQ01+000000PRSWM2
0092010014999991992012116504+59800+005350FM-15+0049ENSO V0201101N00311007501CN0112001N1+00201+00101999999ADDAG11999GA1011+002409079GA2031+003609079GA3051+007509059MA1103591999999EQDQ01+000000PRSWM2
0084010014999991992012205504+59800+005350FM-15+0049ENSO V0201501N00211009001CN0112001N1+00301-00201999999ADDAG12000GA1021+006009089GA2051+009009059MA1103291999999OC100721EQDQ01+000000PRSWM2
0076010014999991992012206504+59800+005350FM-15+0049ENSO V0201601N00411009001CN0112001N1+00301-00201999999ADDAG12999GA1021+006009089GA2051+009009059MA1103291999999EQDQ01+000000PRSWM2
0060010014999991992012207504+59800+005350FM-15+0049ENSO V0201601N00511220001CN0112001N1+00301-00201999999ADDAG12999GA1041+007509059MA1103291999999EQDQ01+000000PRSWM2
0060010014999991992012208504+59800+005350FM-15+0049ENSO V0201501N00621220001CN0112001N1+00301-00201999999ADDAG11000GA1021+009009059MA1103291999999EQDQ01+000000PRSWM2
0060010014999991992012209504+59800+005350FM-15+0049ENSO V0201401N00621220001CN0112001N1+00301-00201999999ADDAG12999GA1021+009009059MA1103291999999EQDQ01+000000PRSWM2
0060010014999991992012210504+59800+005350FM-15+0049ENSO V0201501N00621220001CN0112001N1+00401-00301999999ADDAG11999GA1031+009009059MA1103291999999EQDQ01+000000PRSWM2
0060010014999991992012211504+59800+005350FM-15+0049ENSO V0201501N00621220001CN0112001N1+00401-00201999999ADDAG11000GA1031+009009059MA1103291999999EQDQ01+000000PRSWM2
0060010014999991992012212504+59800+005350FM-15+0049ENSO V0201501N00771220001CN0112001N1+00401-00201999999ADDAG11999GA1031+007509059MA1103291999999EQDQ01+000000PRSWM2
0076010014999991992012214504+59800+005350FM-15+0049ENSO V0201501N00771220001CN0112001N1+00401-00201999999ADDAG11000GA1011+007509089GA2031+030009039MA1103291999999EQDQ01+000000PRSWM2
0076010014999991992012215504+59800+005350FM-15+0049ENSO V0201501N00571030001CN0112001N1+00401-00101999999ADDAG11999GA1031+006009089GA2031+030009039MA1103291999999EQDQ01+000000PRSWM2
0076010014999991992012216504+59800+005350FM-15+0049ENSO V0201501N00721024001CN0112001N1+00401-00101999999ADDAG11999GA1031+006009089GA2041+024009039MA1103291999999EQDQ01+000000PRSWM2
0076010014999991992012217504+59800+005350FM-15+0049ENSO V0201501N00671024001CN0112001N1+00401-00101999999ADDAG11000GA1031+006009089GA2051+024009039MA1103391999999EQDQ01+000000PRSWM2
0076010014999991992012218504+59800+005350FM-15+0049ENSO V0201501N00511024001CN0112001N1+00401-00101999999ADDAG11999GA1021+006009089GA2041+024009039MA1103391999999EQDQ01+000000PRSWM2
0076010014999991992012219504+59800+005350FM-15+0049ENSO V0201501N00931024001CN0112001N1+00401-00201999999ADDAG11999GA1031+005409089GA2051+024009039MA1103391999999EQDQ01+000000PRSWM2
0060010014999991992012305504+59800+005350FM-15+0049ENSO V0201401N00671220001CN0112001N1+00301-00301999999ADDAG11000GA1041+009009059MA1103391999999EQDQ01+000000PRSWM2
0060010014999991992012306504+59800+005350FM-15+0049ENSO V0201501N00821220001CN0112001N1+00201-00301999999ADDAG11999GA1041+009009059MA1103291999999EQDQ01+000000PRSWM2
0060010014999991992012307504+59800+005350FM-15+0049ENSO V0201501N00821220001CN0112001N1+00201-00301999999ADDAG11999GA1021+009009059MA1103291999999EQDQ01+000000PRSWM2
0060010014999991992012308504+59800+005350FM-15+0049ENSO V0201501N00771220001CN0112001N1+00201-00301999999ADDAG12000GA1031+009009059MA1103391999999EQDQ01+000000PRSWM2
0060010014999991992012309504+59800+005350FM-15+0049ENSO V0201501N00881220001CN0112001N1+00301-00501999999ADDAG11999GA1041+009009059MA1103291999999EQDQ01+000000PRSWM2
0060010014999991992012310504+59800+005350FM-15+0049ENSO V0201501N00881220001CN0112001N1+00301-00601999999ADDAG12999GA1021+007509059MA1103291999999EQDQ01+000000PRSWM2
0060010014999991992012311504+59800+005350FM-15+0049ENSO V0201501N01031220001CN0112001N1+00301-00601999999ADDAG11000GA1011+007509059MA1103291999999EQDQ01+000000PRSWM2
0060010014999991992012313504+59800+005350FM-15+0049ENSO V0201601N00311220001CN0112001N1+00401-01101999999ADDAG11999GA1011+009009059MA1103181999999EQDQ01+000000PRSWM2
0060010014999991992012314504+59800+005350FM-15+0049ENSO V0201601N00511220001CN0112001N1+00301-01101999999ADDAG11000GA1011+009009059MA1103181999999EQDQ01+000000PRSWM2
0060010014999991992012316504+59800+005350FM-15+0049ENSO V0201401N00571220001CN0112001N1+00201-01201999999ADDAG11999GA1011+006009059MA1103181999999EQDQ01+000000PRSWM2
0060010014999991992012317504+59800+005350FM-15+0049ENSO V0201601N00311220001CN0112001N1+00201-01101999999ADDAG11000GA1011+006009059MA1103181999999EQDQ01+000000PRSWM2
0060010014999991992012319504+59800+005350FM-15+0049ENSO V0201401N00411220001CN0112001N1+00101-00801999999ADDAG11999GA1011+006009059MA1103121999999EQDQ01+000000PRSWM2
0060010014999991992012408504+59800+005350FM-15+0049ENSO V0201601N00361220001CN0112001N1+00201-00401999999ADDAG12000GA1011+007509059MA1103121999999EQDQ01+000000PRSWM2
0060010014999991992012409504+59800+005350FM-15+0049ENSO V0201801N00411220001CN0112001N1+00201-00601999999ADDAG11999GA1011+007509089MA1103121999999EQDQ01+000000PRSWM2
0060010014999991992012410504+59800+005350FM-15+0049ENSO V0201501N00511220001CN0112001N1+00301-00601999999ADDAG11999GA1011+007509089MA1103121999999EQDQ01+000000PRSWM2
0060010014999991992012411504+59800+005350FM-15+0049ENSO V0201601N00461220001CN0112001N1+00401-00301999999ADDAG11000GA1021+007509089MA1103121999999EQDQ01+000000PRSWM2
0060010014999991992012412504+59800+005350FM-15+0049ENSO V0201701N00461220001CN0112001N1+00401-00201999999ADDAG11999GA1021+007509089MA1103121999999EQDQ01+000000PRSWM2
0076010014999991992012413504+59800+005350FM-15+0049ENSO V0201601N00571006001CN0112001N1+00401+00101999999ADDAG11999GA1021+003909079GA2051+006009059MA1103121999999EQDQ01+000000PRSWM2
0063010014999991992012414504+59800+005350FM-15+0049ENSO V0201601N00821005401CN0090001N1+00401+00101999999ADDAG11000GA1031+003909079GA2051+005409059MA1103121999999MW1101
0063010014999991992012415504+59800+005350FM-15+0049ENSO V0201601N01031004501CN0070001N1+00401+00201999999ADDAG12999GA1031+003009079GA2061+004509059MA1103011999999MW1101
0063010014999991992012416504+59800+005350FM-15+0049ENSO V0201501N00931003301CN0070001N1+00401+00201999999ADDAG12999GA1021+002409079GA2061+003309079MA1103011999999MW1101
0063010014999991992012417504+59800+005350FM-15+0049ENSO V0201501N01031003601CN0070001N1+00401+00201999999ADDAG12000GA1021+002409079GA2061+003609079MA1103011999999MW1501
0063010014999991992012418504+59800+005350FM-15+0049ENSO V0201501N01031004801CN0070001N1+00401+00101999999ADDAG12999GA1021+003909079GA2061+004809059MA1103011999999MW1501
0063010014999991992012419504+59800+005350FM-15+0049ENSO V0201501N01081004801CN0080001N1+00401+00101999999ADDAG12999GA1021+003909079GA2061+004809059MA1103011999999MW1501
0076010014999991992012606504+59800+005350FM-15+0049ENSO V0201701N00051009001CN0112001N1+00201-00101999999ADDAG11999GA1021+006009999GA2051+009009059MA1103591999999EQDQ01+000000PRSWM2
0076010014999991992012607504+59800+005350FM-15+0049ENSO V0201701N00101010501CN0112001N1+00301+00001999999ADDAG11999GA1021+007509089GA2051+010509059MA1103691999999EQDQ01+000000PRSWM2
0092010014999991992012705504+59800+005350FM-15+0049ENSO V0209991C00001009001CN0112001N1+00401+00301999999ADDAG11000GA1021+003009079GA2031+009009059GA3061+012009059MA1103891999999EQDQ01+000000PRSWM2
0076010014999991992012706504+59800+005350FM-15+0049ENSO V0201401N00101009001CN0112001N1+00401+00301999999ADDAG11999GA1021+003009079GA2041+009009059MA1103891999999EQDQ01+000000PRSWM2
0076010014999991992012707504+59800+005350FM-15+0049ENSO V0201601N00101006001CN0112001N1+00301+00201999999ADDAG11999GA1021+000609079GA2051+006009059MA1103891999999EQDQ01+000000PRSWM2
0092010014999991992012708504+59800+005350FM-15+0049ENSO V0201701N00051005401CN0112001N1+00401+00301999999ADDAG11000GA1021+000609079GA2031+005409059GA3051+006009059MA1104001999999EQDQ01+000000PRSWM2
0079010014999991992012709504+59800+005350FM-15+0049ENSO V0209991C00001001501CN0050001N1+00401+00301999999ADDAG11999GA1021+000609079GA2031+001509079GA3051+003009079MA1104001999999MW1501
0114010014999991992012710504+59800+005350FM-15+0049ENSO V0201501N00051001501CN0025001N1+00401+00301999999ADDAG11999GA1021+000609079GA2031+001509079GA3061+003009079MA1104001999999MW1501REMMET026VIS        ?     TO N 6000
0101010014999991992012711504+59800+005350FM-15+0049ENSO V0202001N00051001501CN0040001N1+00501+00401999999ADDAG11000GA1021+000609079GA2031+001509079GA3051+003009079MA1103891999999MW1201REMMET013VIS TO S 9999
0079010014999991992012712504+59800+005350FM-15+0049ENSO V0209991C00001001501CN0112001N1+00501+00401999999ADDAG11999GA1021+000609079GA2031+001509079GA3051+002409079MA1103891999999MW1401
0092010014999991992012713504+59800+005350FM-15+0049ENSO V0209991C00001002401CN0112001N1+00501+00401999999ADDAG11999GA1011+000609079GA2041+001209079GA3071+002409079MA1103891999999EQDQ01+000000PRSWM2
0063010014999991992012714504+59800+005350FM-15+0049ENSO V0201201N00151001201CN0112001N1+00401+00301999999ADDAG11000GA1031+000609079GA2061+001209079MA1103791999999MW1101
0047010014999991992012716504+59800+005350FM-15+0049ENSO V0201301N00261220001CN0090001N1+00401+00301999999ADDAG11999GA1021+000909079MA1103691999999MW1411
0044010014999991992012718504+59800+005350FM-15+0049ENSO V0200301N00151220001CN0004001N1+00201+00101999999ADDAG11999MA1103691999999EQDQ01+000000PRSWM2
0047010014999991992012719504+59800+005350FM-15+0049ENSO V0200201N00151000151CN0002001N1+00401+00301999999ADDAG11999GA1091+000159999MA1103691999999MW1451
0079010014999991992012805504+59800+005350FM-15+0049ENSO V0201401N00411000901CN0090001N1+00401+00301999999ADDAG11000GA1021+000309079GA2031+000909079GA3051+001509079MA1103591999999MW1201
0063010014999991992012806504+59800+005350FM-15+0049ENSO V0201401N00361000901CN0015001N1+00401+00301999999ADDAG11999GA1031+000309079GA2061+000909079MA1103591999999MW1591
0063010014999991992012807504+59800+005350FM-15+0049ENSO V0201401N00461000901CN0020001N1+00401+00301999999ADDAG11999GA1031+000309079GA2061+000909079MA1103591999999MW1581
0047010014999991992012808504+59800+005350FM-15+0049ENSO V0201401N00361000901CN0025001N1+00401+00301999999ADDAG11000GA1091+000909999MA1103591999999MW1531
0047010014999991992012812504+59800+005350FM-15+0049ENSO V0201401N00411000601CN0020001N1+00501+00401999999ADDAG11999GA1091+000609999MA1103791999999MW1511
0047010014999991992012813504+59800+005350FM-15+0049ENSO V0201401N00361000301CN0008001N1+00501+00401999999ADDAG11999GA1091+000309999MA1103791999999MW1511
0047010014999991992012814504+59800+005350FM-15+0049ENSO V0201401N00311000301CN0005001N1+00501+00401999999ADDAG11000GA1091+000309999MA1103891999999MW1511
0047010014999991992012815504+59800+005350FM-15+0049ENSO V0201401N00311000301CN0005001N1+00501+00401999999ADDAG11999GA1091+000309999MA1103891999999MW1511
0047010014999991992012816504+59800+005350FM-15+0049ENSO V0201501N00311000301CN0006001N1+00501+00401999999ADDAG11999GA1091+000309999MA1104001999999MW1431
0047010014999991992012905504+59800+005350FM-15+0049ENSO V0203301N00151220001CN0050001N1+00401+00301999999ADDAG11000GA1031+000609079MA1103791999999MW1411
0076010014999991992012906504+59800+005350FM-15+0049ENSO V0202901N00101009001CN0112001N1+00401+00301999999ADDAG11999GA1021+000609079GA2051+009009059MA1103791999999EQDQ01+000000PRSWM2
0076010014999991992012907504+59800+005350FM-15+0049ENSO V0209991C00001006001CN0112001N1+00401+00301999999ADDAG11999GA1021+000609079GA2051+006009059MA1103891999999EQDQ01+000000PRSWM2
0076010014999991992012908504+59800+005350FM-15+0049ENSO V0209991C00001007501CN0112001N1+00401+00301999999ADDAG11000GA1021+000609079GA2051+007509059MA1103891999999EQDQ01+000000PRSWM2
0076010014999991992012909504+59800+005350FM-15+0049ENSO V0209991C00001009001CN0112001N1+00401+00301999999ADDAG11999GA1021+000609079GA2051+009009059MA1103891999999EQDQ01+000000PRSWM2
0076010014999991992012910504+59800+005350FM-15+0049ENSO V0202901N00051009001CN0112001N1+00501+00301999999ADDAG11999GA1021+000609079GA2051+009009059MA1103891999999EQDQ01+000000PRSWM2
0076010014999991992012911504+59800+005350FM-15+0049ENSO V0203301N00101007501CN0112001N1+00601+00501999999ADDAG11000GA1021+000609079GA2051+007509059MA1103891999999EQDQ01+000000PRSWM2
0076010014999991992012912504+59800+005350FM-15+0049ENSO V0203301N00311220001CN0112001N1+00601+00501999999ADDAG11999GA1011+002409079GA2031+006009089MA1103891999999EQDQ01+000000PRSWM2
0076010014999991992012913504+59800+005350FM-15+0049ENSO V0203401N00361220001CN0112001N1+00601+00501999999ADDAG11999GA1011+004509089GA2031+009009059MA1103891999999EQDQ01+000000PRSWM2
0060010014999991992012914504+59800+005350FM-15+0049ENSO V0203501N00261220001CN0112001N1+00601+00501999999ADDAG11000GA1011+005409089MA1103791999999EQDQ01+000000PRSWM2
0060010014999991992012915504+59800+005350FM-15+0049ENSO V0203401N00311220001CN0112001N1+00501+00401999999ADDAG11999GA1011+003609089MA1103791999999EQDQ01+000000PRSWM2
0060010014999991992012916504+59800+005350FM-15+0049ENSO V0203301N00411220001CN0112001N1+00401+00301999999ADDAG11999GA1011+003609089MA1103791999999EQDQ01+000000PRSWM2
0060010014999991992012917504+59800+005350FM-15+0049ENSO V0203401N00411220001CN0112001N1+00401+00301999999ADDAG11000GA1011+003609089MA1103791999999EQDQ01+000000PRSWM2
0047010014999991992012918504+59800+005350FM-15+0049ENSO V0203301N00411220001CN0112001N1+00401+00301999999ADDAG11999GA1011+000309079MA1103691999999MW1111
0060010014999991992012919504+59800+005350FM-15+0049ENSO V0203201N00361220001CN0112001N1+00401+00301999999ADDAG11999GA1011+000909079MA1103691999999EQDQ01+000000PRSWM2
0047010014999991992013005504+59800+005350FM-15+0049ENSO V0209991C00001000301CN0003001N1+00401+00301999999ADDAG11000GA1091+000309999MA1103491999999MW1451
0047010014999991992013006504+59800+005350FM-15+0049ENSO V0209991C00001000301CN0005001N1+00301+00201999999ADDAG11999GA1091+000309999MA1103491999999MW1451
0047010014999991992013007504+59800+005350FM-15+0049ENSO V0200201N00051000301CN0004001N1+00301+00201999999ADDAG11999GA1091+000309999MA1103491999999MW1461
0047010014999991992013008504+59800+005350FM-15+0049ENSO V0201601N00101000301CN0004001N1+00201+00101999999ADDAG11000GA1091+000309999MA1103591999999MW1461
0047010014999991992013009504+59800+005350FM-15+0049ENSO V0201501N00101000301CN0004001N1+00101+00001999999ADDAG11999GA1091+000309999MA1103591999999MW1461
0047010014999991992013010504+59800+005350FM-15+0049ENSO V0201401N00101000301CN0005001N1+00201+00101999999ADDAG11999GA1091+000309999MA1103591999999MW1461
0047010014999991992013011504+59800+005350FM-15+0049ENSO V0201501N00051000601CN0012001N1+00301+00101999999ADDAG11000GA1091+000609999MA1103591999999MW1451
0079010014999991992013012504+59800+005350FM-15+0049ENSO V0201701N00101002701CN0012001N1+00301+00201999999ADDAG11999GA1011+000159079GA2041+001209079GA3061+002709079MA1103491999999MW1411
0079010014999991992013013504+59800+005350FM-15+0049ENSO V0201501N00261001201CN0070001N1+00301+00201999999ADDAG11999GA1021+000309079GA2041+001209079GA3061+002409079MA1103491999999MW1411
0079010014999991992013014504+59800+005350FM-15+0049ENSO V0201701N00211002101CN0060001N1+00201+00101999999ADDAG11000GA1011+000309079GA2041+001209079GA3051+002109079MA1103491999999MW1411
0079010014999991992013015504+59800+005350FM-15+0049ENSO V0201501N00261001501CN0090001N1+00301+00201999999ADDAG11999GA1021+000909079GA2031+001509079GA3061+003009079MA1103491999999MW1401
0079010014999991992013016504+59800+005350FM-15+0049ENSO V0201501N00211000901CN0112001N1+00301+00201999999ADDAG11999GA1021+000309079GA2041+000909079GA3061+001509079MA1103491999999MW1401
0092010014999991992013017504+59800+005350FM-15+0049ENSO V0201601N00261004501CN0112001N1+00301+00201999999ADDAG11000GA1011+000909079GA2031+002409079GA3051+004509059MA1103491999999EQDQ01+000000PRSWM2
0079010014999991992013105504+59800+005350FM-15+0049ENSO V0201301N00311002401CN0090001N1+00301+00201999999ADDAG11000GA1011+000909079GA2041+001809079GA3061+002409079MA1103291999999MW1511
0079010014999991992013106504+59800+005350FM-15+0049ENSO V0201401N00361002101CN0080001N1+00301+00201999999ADDAG11999GA1011+000609079GA2031+001209079GA3061+002109079MA1103181999999MW1501
0063010014999991992013107504+59800+005350FM-15+0049ENSO V0201301N00361001201CN0060001N1+00301+00201999999ADDAG11999GA1031+000609079GA2061+001209079MA1103181999999MW1501
0063010014999991992013108504+59800+005350FM-15+0049ENSO V0201401N00261001801CN0070001N1+00301+00201999999ADDAG11000GA1031+000909079GA2061+001809079MA1103181999999MW1501
0063010014999991992013109504+59800+005350FM-15+0049ENSO V0201401N00361001801CN0060001N1+00301+00201999999ADDAG11999GA1031+000909079GA2061+001809079MA1103181999999MW1511
0063010014999991992013111504+59800+005350FM-15+0049ENSO V0201001N00511002101CN0112001N1+00301+00201999999ADDAG11000GA1031+001209079GA2061+002109079MA1103181999999MW1201
0063010014999991992013112504+59800+005350FM-15+0049ENSO V0201101N00211002101CN0112001N1+00301+00201999999ADDAG11999GA1031+001509079GA2061+002109079MA1103011999999MW1501
0063010014999991992013113504+59800+005350FM-15+0049ENSO V0201201N00261002401CN0112001N1+00301+00201999999ADDAG11999GA1031+001509079GA2061+002409079MA1103011999999MW1201
0063010014999991992013114504+59800+005350FM-15+0049ENSO V0201201N00151002401CN0112001N1+00301+00201999999ADDAG11000GA1031+001809079GA2051+002409079MA1103011999999MW1501
0063010014999991992013115504+59800+005350FM-15+0049ENSO V0201401N00151003001CN0112001N1+00301+00201999999ADDAG11999GA1031+002109079GA2061+003009079MA1103011999999MW1501
0063010014999991992013116504+59800+005350FM-15+0049ENSO V0201401N00211003001CN0112001N1+00301+00201999999ADDAG11999GA1031+002109079GA2061+003009079MA1103011999999MW1501
0079010014999991992013117504+59800+005350FM-15+0049ENSO V0201201N00211003001CN0112001N1+00301+00201999999ADDAG11000GA1021+002109079GA2031+003009079GA3051+004509059MA1102911999999MW1501
0063010014999991992013118504+59800+005350FM-15+0049ENSO V0201401N00311005101CN0112001N1+00301+00201999999ADDAG11999GA1031+002409079GA2061+005109059MA1102911999999MW1501
0063010014999991992013119504+59800+005350FM-15+0049ENSO V0201201N00361004501CN0112001N1+00301+00201999999ADDAG11999GA1031+002409079GA2061+004509059MA1102811999999MW1511
0071010014999991992020217504+59800+005350FM-15+0049ENSO V0202201N00511002701CN0070001N1+00601+00501999999ADDAG12001GA1031+001809079GA2061+002709079MA1100001999999MW1611OC101031
0071010014999991992020218504+59800+005350FM-15+0049ENSO V0202201N00771002701CN0070001N1+00601+00501999999ADDAG12999GA1031+001809079GA2061+002709079MA1099701999999MW1621OC101341
0107010014999991992020219504+59800+005350FM-15+0049ENSO V0202601N00511007501CN0112001N1+00401+00201999999ADDAG11999GA1031+003009079GA2051+007509089MA1099701999999MW1251OC101031REMMET027PAST MAX         ?     50KT
0063010014999991992020305504+59800+005350FM-15+0049ENSO V0202901N00621009001CN0112001N1+00301+00001999999ADDAG11000GA1031+006009089GA2051+009009059MA1098981999999MW1251
0063010014999991992020306504+59800+005350FM-15+0049ENSO V0202801N00671006001CN0112001N1+00401-00101999999ADDAG11999GA1021+003609099GA2051+006009089MA1098981999999MW1251
0063010014999991992020307504+59800+005350FM-15+0049ENSO V0202801N00461005401CN0112001N1+00301+00001999999ADDAG11999GA1021+003009099GA2051+005409089MA1098981999999MW1251
0063010014999991992020308504+59800+005350FM-15+0049ENSO V0203301N00211006001CN0112001N1+00201+00001999999ADDAG11000GA1021+003009099GA2051+006009089MA1099091999999MW1251
0079010014999991992020309504+59800+005350FM-15+0049ENSO V0202801N00261007501CN0112001N1+00301+00001999999ADDAG11999GA1031+003009099GA2051+007509089MA1099191999999MW1251REMMET007DIST TS
0079010014999991992020310504+59800+005350FM-15+0049ENSO V0203501N00511007501CN0112001N1+00101+00001999999ADDAG11999GA1011+003009079GA2021+003609099GA3051+007509089MA1099291999999MW1231
0079010014999991992020311504+59800+005350FM-15+0049ENSO V0203201N00771003601CN0112001N1+00201-00101999999ADDAG11000GA1021+003009079GA2031+003609099GA3051+006009089MA1099291999999MW1271
0079010014999991992020312504+59800+005350FM-15+0049ENSO V0203601N00511003601CN0112001N1+00201-00101999999ADDAG11999GA1021+003009079GA2031+003609099GA3051+006009089MA1099391999999MW1271
0079010014999991992020313504+59800+005350FM-15+0049ENSO V0203301N00621006001CN0112001N1+00101+00001999999ADDAG11999GA1011+002409079GA2031+003609099GA3051+006009089MA1099391999999MW1851
0079010014999991992020314504+59800+005350FM-15+0049ENSO V0203301N00771006001CN0112001N1+00201-00101999999ADDAG11000GA1011+002409079GA2021+003609099GA3041+006009089MA1099491999999MW1261
0063010014999991992020315504+59800+005350FM-15+0049ENSO V0203401N00621220001CN0112001N1+00201+00001999999ADDAG11999GA1011+003009079GA2041+006009089MA1099701999999MW1271
0055010014999991992020316504+59800+005350FM-15+0049ENSO V0203501N00621003001CN0050001N1+00201-00101999999ADDAG11999GA1051+003009099MA1099801999999MW1851OC101131
0079010014999991992020317504+59800+005350FM-15+0049ENSO V0203401N00721005401CN0080001N1+00101-00101999999ADDAG11000GA1011+003009079GA2021+003609099GA3051+005409089MA1100001999999MW1851
0063010014999991992020318504+59800+005350FM-15+0049ENSO V0203401N00821005401CN0050001N1+00101+00001999999ADDAG12999GA1041+003009099GA2051+005409089MA1100001999999MW1871
0063010014999991992020319504+59800+005350FM-15+0049ENSO V0203501N00671220001CN0112001N1+00201+00001999999ADDAG12999GA1011+003609099GA2031+004509089MA1100101999999MW1271
0076010014999991992020405504+59800+005350FM-15+0049ENSO V0200601N00051220001CN0112001N1+00001-00201999999ADDAG11000GA1011+003009079GA2041+006009089MA1100411999999EQDQ01+000000PRSWM2
0047010014999991992020407504+59800+005350FM-15+0049ENSO V0209991C00001003001CN0050001N1+00001-00201999999ADDAG11999GA1091+003009999MA1100611999999MW1851
0063010014999991992020408504+59800+005350FM-15+0049ENSO V0200901N00101006001CN0112001N1+00001-00101999999ADDAG11000GA1031+003009079GA2051+006009089MA1100511999999MW1851
0047010014999991992020409504+59800+005350FM-15+0049ENSO V0201401N00151002401CN0030001N1+00001-00101999999ADDAG11999GA1091+002409999MA1100511999999MW1731
0047010014999991992020410504+59800+005350FM-15+0049ENSO V0201501N00261001201CN0012001N1+00001-00101999999ADDAG11999GA1091+001209999MA1100411999999MW1731
0063010014999991992020411504+59800+005350FM-15+0049ENSO V0201601N00101004501CN0070001N1+00001-00101999999ADDAG11000GA1031+001509079GA2051+004509089MA1100311999999MW1221
0076010014999991992020412504+59800+005350FM-15+0049ENSO V0201601N00101004501CN0112001N1+00101+00001999999ADDAG11999GA1031+002709079GA2051+004509089MA1100311999999EQDQ01+000000PRSWM2
0076010014999991992020413504+59800+005350FM-15+0049ENSO V0202401N00101018001CN0112001N1+00101+00001999999ADDAG11999GA1011+001209079GA2051+018009039MA1100311999999EQDQ01+000000PRSWM2
0079010014999991992020417504+59800+005350FM-15+0049ENSO V0203201N00571007501CN0112001N1+00201+00101999999ADDAG11000GA1011+003009099GA2021+004509089GA3051+007509059MA1100411999999MW1251
0076010014999991992020418504+59800+005350FM-15+0049ENSO V0203501N00361007501CN0112001N1+00201+00001999999ADDAG11999GA1031+003609089GA2051+007509059MA1100411999999EQDQ01+000000PRSWM2
0076010014999991992020419504+59800+005350FM-15+0049ENSO V0203301N00771009001CN0112001N1+00301-00201999999ADDAG11999GA1021+004509089GA2051+009009059MA1100411999999EQDQ01+000000PRSWM2
0076010014999991992020506504+59800+005350FM-15+0049ENSO V0203601N00211220001CN0112001N1+00001-00501999999ADDAG11999GA1011+004509089GA2041+009009059MA1100611999999EQDQ01+000000PRSWM2
0076010014999991992020507504+59800+005350FM-15+0049ENSO V0203501N00151220001CN0112001N1-00101-00601999999ADDAG11999GA1011+005409089GA2031+021009039MA1100611999999EQDQ01+000000PRSWM2
0060010014999991992020508504+59800+005350FM-15+0049ENSO V0203301N00051220001CN0112001N1+00001-00601999999ADDAG11000GA1011+006009089MA1100611999999EQDQ01+000000PRSWM2
0060010014999991992020509504+59800+005350FM-15+0049ENSO V0209991C00001220001CN0112001N1+00101-00601999999ADDAG11999GA1011+007509089MA1100711999999EQDQ01+000000PRSWM2
0076010014999991992020510504+59800+005350FM-15+0049ENSO V0209991C00001220001CN0112001N1+00201-00701999999ADDAG11999GA1011+007509089GA2031+027009039MA1100811999999EQDQ01+000000PRSWM2
0076010014999991992020511504+59800+005350FM-15+0049ENSO V0209991C00001027001CN0112001N1+00201-00701999999ADDAG11000GA1031+015009089GA2061+027009039MA1100811999999EQDQ01+000000PRSWM2
0076010014999991992020512504+59800+005350FM-15+0049ENSO V0209991C00001021001CN0112001N1+00201-00601999999ADDAG11999GA1011+012009059GA2051+021009039MA1100911999999EQDQ01+000000PRSWM2
0076010014999991992020513504+59800+005350FM-15+0049ENSO V0209991C00001021001CN0112001N1+00201-00701999999ADDAG11999GA1031+009009059GA2051+021009039MA1100911999999EQDQ01+000000PRSWM2
0076010014999991992020514504+59800+005350FM-15+0049ENSO V0201301N00101021001CN0112001N1+00101-00601999999ADDAG11000GA1031+009009059GA2051+021009039MA1100911999999EQDQ01+000000PRSWM2
0076010014999991992020515504+59800+005350FM-15+0049ENSO V0201101N00101021001CN0112001N1+00101-00601999999ADDAG11999GA1031+009009059GA2051+021009039MA1101021999999EQDQ01+000000PRSWM2
0076010014999991992020516504+59800+005350FM-15+0049ENSO V0201401N00101021001CN0112001N1+00001-00601999999ADDAG11999GA1031+009009059GA2051+021009039MA1101021999999EQDQ01+000000PRSWM2
0076010014999991992020517504+59800+005350FM-15+0049ENSO V0201201N00261021001CN0112001N1+00001-00601999999ADDAG11000GA1031+009009059GA2051+021009039MA1101021999999EQDQ01+000000PRSWM2
0060010014999991992020518504+59800+005350FM-15+0049ENSO V0201301N00311220001CN0112001N1+00001-00601999999ADDAG11999GA1031+009009059MA1101081999999EQDQ01+000000PRSWM2
0060010014999991992020519504+59800+005350FM-15+0049ENSO V0201401N00361220001CN0112001N1+00001-00401999999ADDAG12999GA1031+009009059MA1101081999999EQDQ01+000000PRSWM2
0063010014999991992020605504+59800+005350FM-15+0049ENSO V0201901N00261003001CN0080001N1+00501+00401999999ADDAG11003GA1031+001509079GA2061+003009079MA1100811999999MW1631
0063010014999991992020606504+59800+005350FM-15+0049ENSO V0202701N00621001201CN0050001N1+00701+00601999999ADDAG12999GA1031+000609079GA2061+001209079MA1100711999999MW1611
0063010014999991992020607504+59800+005350FM-15+0049ENSO V0202801N00771001501CN0050001N1+00801+00701999999ADDAG12999GA1041+000909079GA2071+001509079MA1100711999999MW1611
0101010014999991992020608504+59800+005350FM-15+0049ENSO V0202801N00621001801CN0070001N1+00801+00701999999ADDAG12002GA1011+000309079GA2041+000909079GA3061+001809079MA1100811999999MW1591REMMET013PAST MAX 24KT
0087010014999991992020609504+59800+005350FM-15+0049ENSO V0203001N00361001801CN0080001N1+00801+00701999999ADDAG12999GA1011+000609079GA2031+001209079GA3061+001809079MA1100911999999MW1581OC100881
0079010014999991992020610504+59800+005350FM-15+0049ENSO V0202801N00461002101CN0090001N1+00801+00701999999ADDAG12999GA1011+000609079GA2041+001209079GA3061+002109079MA1101021999999MW1611
0063010014999991992020612504+59800+005350FM-15+0049ENSO V0202801N00511001801CN0070001N1+00801+00701999999ADDAG12999GA1031+001209079GA2061+001809079MA1101081999999MW1591
0047010014999991992020613504+59800+005350FM-15+0049ENSO V0202801N00461001501CN0040001N1+00801+00701999999ADDAG12999GA1091+001509999MA1101191999999MW1601
0047010014999991992020614504+59800+005350FM-15+0049ENSO V0202801N00571001501CN0040001N1+00801+00701999999ADDAG12002GA1091+001509999MA1101191999999MW1591
0047010014999991992020615504+59800+005350FM-15+0049ENSO V0202801N00461000901CN0035001N1+00801+00701999999ADDAG12999GA1091+000909999MA1101191999999MW1581
0047010014999991992020616504+59800+005350FM-15+0049ENSO V0202801N00511000901CN0030001N1+00801+00701999999ADDAG12999GA1091+000909999MA1101191999999MW1581
0047010014999991992020617504+59800+005350FM-15+0049ENSO V0202801N00411001201CN0040001N1+00801+00701999999ADDAG12001GA1091+001209999MA1101191999999MW1611
0047010014999991992020618504+59800+005350FM-15+0049ENSO V0202801N00411001201CN0030001N1+00801+00701999999ADDAG12999GA1091+001209999MA1101291999999MW1611
0047010014999991992020619504+59800+005350FM-15+0049ENSO V0202801N00511001501CN0060001N1+00801+00701999999ADDAG12999GA1091+001509999MA1101291999999MW1591
0082010014999991992020705504+59800+005350FM-15+0049ENSO V0201901N00571001501CN9999999N9+00601+00501999999ADDAG12000GA1031+000909079GA2061+001509079MA1101291999999MW1101EQDQ01+000002VOVAR 
0063010014999991992020706504+59800+005350FM-15+0049ENSO V0201701N00361001501CN0060001N1+00601+00501999999ADDAG12999GA1031+000909079GA2061+001509079MA1101391999999MW1591
0063010014999991992020707504+59800+005350FM-15+0049ENSO V0201901N00411001501CN0030001N1+00601+00501999999ADDAG12999GA1031+001209079GA2061+001509079MA1101391999999MW1611
0063010014999991992020708504+59800+005350FM-15+0049ENSO V0201801N00311001501CN0050001N1+00601+00501999999ADDAG11001GA1031+001209079GA2061+001509079MA1101391999999MW1611
0063010014999991992020709504+59800+005350FM-15+0049ENSO V0201801N00311001501CN0030001N1+00601+00501999999ADDAG11999GA1031+001209079GA2061+001509079MA1101391999999MW1611
0063010014999991992020710504+59800+005350FM-15+0049ENSO V0201801N00361001501CN0030001N1+00601+00501999999ADDAG11999GA1031+001209079GA2061+001509079MA1101391999999MW1611
0079010014999991992020711504+59800+005350FM-15+0049ENSO V0201901N00311001801CN0112001N1+00701+00501999999ADDAG12001GA1031+001509079GA2041+001809079GA3061+003009079MA1101391999999MW1611
0079010014999991992020714504+59800+005350FM-15+0049ENSO V0202501N00411001501CN0040001N1+00701+00601999999ADDAG12000GA1011+000309079GA2031+000909079GA3051+001509079MA1101391999999MW1581
0079010014999991992020715504+59800+005350FM-15+0049ENSO V0202601N00361001501CN0070001N1+00701+00601999999ADDAG12999GA1021+000909079GA2041+001509079GA3061+006009059MA1101491999999MW1211
0079010014999991992020716504+59800+005350FM-15+0049ENSO V0202201N00151001501CN0090001N1+00701+00601999999ADDAG12999GA1031+000909079GA2041+001509079GA3061+004209079MA1101491999999MW1101
0063010014999991992020717504+59800+005350FM-15+0049ENSO V0201701N00101002401CN0080001N1+00701+00601999999ADDAG12000GA1041+001209079GA2061+002409079MA1101491999999MW1101
0047010014999991992020718504+59800+005350FM-15+0049ENSO V0202301N00151001501CN0035001N1+00701+00601999999ADDAG12999GA1091+001509999MA1101591999999MW1511
0076010014999991992021006504+59800+005350FM-15+0049ENSO V0202301N00361006001CN0112001N1+00601+00501999999ADDAG12999GA1031+003909059GA2051+006009059MA1099391999999EQDQ01+000000PRSWM2
0063010014999991992021007504+59800+005350FM-15+0049ENSO V0202301N00361007501CN0112001N1+00501+00401999999ADDAG11999GA1031+003609059GA2051+007509059MA1099391999999MW1211
0079010014999991992021008504+59800+005350FM-15+0049ENSO V0202301N00211021001CN0112001N1+00501+00401999999ADDAG11000GA1011+003609099GA2031+004509089GA3051+021009039MA1099391999999MW1251
0076010014999991992021010504+59800+005350FM-15+0049ENSO V0202301N00311030001CN0112001N1+00601+00301999999ADDAG11999GA1021+004509089GA2041+030009039MA1099491999999EQDQ01+000000PRSWM2
0076010014999991992021011504+59800+005350FM-15+0049ENSO V0202201N00311030001CN0112001N1+00601-00101999999ADDAG11000GA1021+005409089GA2041+030009039MA1099491999999EQDQ01+000000PRSWM2
0060010014999991992021012504+59800+005350FM-15+0049ENSO V0201901N00211006001CN0112001N1+00601+00101999999ADDAG11999GA1051+006009089MA1099391999999EQDQ01+000000PRSWM2
0047010014999991992021013504+59800+005350FM-15+0049ENSO V0201901N00461006001CN0112001N1+00601+00101999999ADDAG11999GA1051+006009089MA1099391999999MW1801
0060010014999991992021014504+59800+005350FM-15+0049ENSO V0202001N00361006001CN0112001N1+00601+00101999999ADDAG11000GA1051+006009089MA1099391999999EQDQ01+000000PRSWM2
0079010014999991992021015504+59800+005350FM-15+0049ENSO V0201901N00411005401CN0112001N1+00501+00101999999ADDAG11999GA1011+002409079GA2021+003009099GA3051+005409089MA1099291999999MW1801
0063010014999991992021016504+59800+005350FM-15+0049ENSO V0202301N00361005401CN0112001N1+00401+00201999999ADDAG12999GA1021+003009099GA2051+005409089MA1099391999999MW1271
0063010014999991992021017504+59800+005350FM-15+0049ENSO V0202301N00461006001CN0112001N1+00401+00201999999ADDAG11000GA1021+003009099GA2041+006009089MA1099391999999MW1251
0063010014999991992021018504+59800+005350FM-15+0049ENSO V0202101N00361007501CN0112001N1+00401+00201999999ADDAG11999GA1021+003009099GA2051+007509089MA1099291999999MW1271
0060010014999991992021105504+59800+005350FM-15+0049ENSO V0201501N00151220001CN0112001N1+00101+00001999999ADDAG11000GA1011+006009059MA1099701999999EQDQ01+000000PRSWM2
0060010014999991992021106504+59800+005350FM-15+0049ENSO V0203601N00211220001CN0112001N1+00101+00001999999ADDAG11999GA1031+007509059MA1099801999999EQDQ01+000000PRSWM2
0060010014999991992021107504+59800+005350FM-15+0049ENSO V0200301N00361220001CN0112001N1+00101+00001999999ADDAG11999GA1031+007509089MA1099901999999EQDQ01+000000PRSWM2
0094010014999991992021108504+59800+005350FM-15+0049ENSO V0201201N00101006001CN0112001N1+00201+00101999999ADDAG13000GA1021+003009099GA2031+006009089MA1099901999999REMMET009DIST SHWREQDQ01+000000PRSWM2
0094010014999991992021109504+59800+005350FM-15+0049ENSO V0201401N00261005401CN0112001N1+00201+00101999999ADDAG13999GA1021+003009099GA2051+005409089MA1099901999999REMMET009DIST SHWREQDQ01+000000PRSWM2
0094010014999991992021110504+59800+005350FM-15+0049ENSO V0202301N00211006001CN0112001N1+00301+00101999999ADDAG13999GA1021+003009099GA2041+006009089MA1099901999999REMMET009DIST SHWREQDQ01+000000PRSWM2
0063010014999991992021111504+59800+005350FM-15+0049ENSO V0202401N00151006001CN0112001N1+00101+00001999999ADDAG11000GA1021+003009099GA2041+006009089MA1100001999999MW1831
0063010014999991992021112504+59800+005350FM-15+0049ENSO V0201301N00101006001CN0112001N1+00201+00101999999ADDAG11999GA1021+003009099GA2041+006009089MA1100001999999MW1251
0076010014999991992021113504+59800+005350FM-15+0049ENSO V0202301N00151220001CN0112001N1+00401+00101999999ADDAG11999GA1011+003609099GA2041+006009089MA1100001999999EQDQ01+000000PRSWM2
0076010014999991992021114504+59800+005350FM-15+0049ENSO V0202401N00261220001CN0112001N1+00501+00101999999ADDAG11000GA1011+003609099GA2031+006009089MA1100001999999EQDQ01+000000PRSWM2
0079010014999991992021115504+59800+005350FM-15+0049ENSO V0202201N00151015001CN0112001N1+00401+00201999999ADDAG11999GA1011+003609099GA2031+004509089GA3041+015009059MA1100001999999MW1251
0063010014999991992021116504+59800+005350FM-15+0049ENSO V0202301N00151006001CN0112001N1+00401+00201999999ADDAG11999GA1021+004509099GA2051+006009089MA1100001999999MW1251
0079010014999991992021117504+59800+005350FM-15+0049ENSO V0202501N00361004501CN0080001N1+00301+00101999999ADDAG11001GA1021+003609099GA2031+004509089GA3051+007509059MA1100101999999MW1801
0079010014999991992021118504+59800+005350FM-15+0049ENSO V0201101N00151007501CN0112001N1+00301+00201999999ADDAG12999GA1011+003009099GA2031+004509089GA3051+007509059MA1100101999999MW1251
0076010014999991992021119504+59800+005350FM-15+0049ENSO V0201601N00211220001CN0112001N1+00301+00201999999ADDAG12999GA1011+003609099GA2041+005409089MA1100101999999EQDQ01+000000PRSWM2
0076010014999991992021205504+59800+005350FM-15+0049ENSO V0202301N00461005401CN0112001N1+00601+00501999999ADDAG11000GA1021+002709079GA2061+005409059MA1100001999999EQDQ01+000000PRSWM2
0076010014999991992021206504+59800+005350FM-15+0049ENSO V0202301N00361004201CN0112001N1+00601+00501999999ADDAG11999GA1021+002709079GA2061+004209079MA1100001999999EQDQ01+000000PRSWM2
0076010014999991992021207504+59800+005350FM-15+0049ENSO V0202101N00311003001CN0112001N1+00601+00501999999ADDAG11999GA1021+002409079GA2061+003009079MA1100001999999EQDQ01+000000PRSWM2
0076010014999991992021208504+59800+005350FM-15+0049ENSO V0201901N00261003001CN0112001N1+00601+00401999999ADDAG12000GA1021+002409079GA2051+003009079MA1100001999999EQDQ01+000000PRSWM2
0076010014999991992021209504+59800+005350FM-15+0049ENSO V0201701N00261003001CN0112001N1+00601+00401999999ADDAG12999GA1021+002109079GA2051+003009079MA1100001999999EQDQ01+000000PRSWM2
0076010014999991992021211504+59800+005350FM-15+0049ENSO V0201601N00311003001CN0112001N1+00601+00501999999ADDAG12000GA1021+002109079GA2051+003009079MA1100001999999EQDQ01+000000PRSWM2
0076010014999991992021212504+59800+005350FM-15+0049ENSO V0201601N00411003601CN0112001N1+00601+00401999999ADDAG12999GA1021+003009079GA2051+003609089MA1100001999999EQDQ01+000000PRSWM2
0063010014999991992021214504+59800+005350FM-15+0049ENSO V0201501N00411003901CN0112001N1+00601+00301999999ADDAG12000GA1021+002409079GA2051+003909089MA1099901999999MW1201
0092010014999991992021215504+59800+005350FM-15+0049ENSO V0201501N00511007501CN0112001N1+00601+00301999999ADDAG12999GA1011+003009079GA2031+004509089GA3051+007509059MA1099901999999EQDQ01+000000PRSWM2
0076010014999991992021216504+59800+005350FM-15+0049ENSO V0201501N00571007501CN0112001N1+00601+00201999999ADDAG12999GA1021+004209089GA2051+007509059MA1099801999999EQDQ01+000000PRSWM2
0063010014999991992021219504+59800+005350FM-15+0049ENSO V0201301N00671007501CN0090001N1+00501-00101999999ADDAG12999GA1021+004509089GA2051+007509059MA1099701999999MW1101
0063010014999991992021305504+59800+005350FM-15+0049ENSO V0201501N00511004501CN0090001N1+00601+00501999999ADDAG11001GA1031+002409079GA2051+004509059MA1098611999999MW1611
0071010014999991992021306504+59800+005350FM-15+0049ENSO V0201801N00511004501CN0080001N1+00601+00501999999ADDAG11999GA1031+002409079GA2051+004509059MA1098711999999MW1611OC101031
0063010014999991992021307504+59800+005350FM-15+0049ENSO V0202601N00411003601CN0112001N1+00701+00601999999ADDAG11999GA1021+003009079GA2051+003609059MA1098821999999MW1211
0092010014999991992021308504+59800+005350FM-15+0049ENSO V0202501N00361005401CN0112001N1+00701+00501999999ADDAG11000GA1011+003009079GA2011+003609099GA3051+005409089MA1098981999999EQDQ01+000000PRSWM2
0079010014999991992021309504+59800+005350FM-15+0049ENSO V0202501N00411005401CN0112001N1+00701+00501999999ADDAG11999GA1011+003009079GA2011+003609099GA3031+005409089MA1099091999999MW1211
0099010014999991992021310504+59800+005350FM-15+0049ENSO V0202301N00361220001CN0112001N1+00701+00401999999ADDAG11999GA1011+003609099GA2031+005409089MA1099191999999MW1251REMMET027PAST MAX         ?     18KT
0076010014999991992021312504+59800+005350FM-15+0049ENSO V0202301N00511220001CN0112001N1+00701+00301999999ADDAG12999GA1011+003609099GA2041+005409089MA1099291999999EQDQ01+000000PRSWM2
0084010014999991992021313504+59800+005350FM-15+0049ENSO V0202201N00411220001CN0112001N1+00701+00301999999ADDAG12999GA1011+003609099GA2041+006009089MA1099291999999OC100931EQDQ01+000000PRSWM2
0076010014999991992021314504+59800+005350FM-15+0049ENSO V0202301N00461220001CN0112001N1+00701+00401999999ADDAG12000GA1011+003609099GA2041+006009089MA1099291999999EQDQ01+000000PRSWM2
0076010014999991992021315504+59800+005350FM-15+0049ENSO V0202101N00211220001CN0112001N1+00601+00201999999ADDAG12999GA1011+003609099GA2031+006009089MA1099391999999EQDQ01+000000PRSWM2
0092010014999991992021316504+59800+005350FM-15+0049ENSO V0201901N00361005401CN0112001N1+00601+00301999999ADDAG12999GA1011+003609099GA2031+004509089GA3051+005409089MA1099391999999EQDQ01+000000PRSWM2
0079010014999991992021317504+59800+005350FM-15+0049ENSO V0201801N00361005401CN0112001N1+00501+00301999999ADDAG12000GA1011+003609099GA2021+004509089GA3041+005409089MA1099391999999MW1251
0079010014999991992021318504+59800+005350FM-15+0049ENSO V0201901N00621006001CN0112001N1+00401+00301999999ADDAG12999GA1011+003609099GA2031+004509089GA3051+006009089MA1099391999999MW1801
0079010014999991992021319504+59800+005350FM-15+0049ENSO V0201801N00411006001CN0112001N1+00401+00301999999ADDAG12999GA1011+003609099GA2031+004509089GA3051+006009089MA1099391999999MW1251
0063010014999991992021405504+59800+005350FM-15+0049ENSO V0201401N00261003601CN0080001N1+00401+00301999999ADDAG11001GA1021+002409079GA2051+003609059MA1099491999999MW1611
0079010014999991992021406504+59800+005350FM-15+0049ENSO V0201101N00211003001CN0112001N1+00401+00301999999ADDAG11999GA1021+001809079GA2031+003009079GA3051+003609059MA1099491999999MW1211
0092010014999991992021407504+59800+005350FM-15+0049ENSO V0201401N00211007501CN0112001N1+00301+00201999999ADDAG11999GA1011+001509079GA2031+002409079GA3051+007509059MA1099491999999EQDQ01+000000PRSWM2
0092010014999991992021408504+59800+005350FM-15+0049ENSO V0201401N00101005401CN0112001N1+00401+00301999999ADDAG11000GA1011+000609079GA2031+002109079GA3051+005409089MA1099591999999EQDQ01+000000PRSWM2
0079010014999991992021409504+59800+005350FM-15+0049ENSO V0201501N00101007501CN0112001N1+00401+00301999999ADDAG11999GA1011+000609079GA2031+001509079GA3051+007509059MA1099591999999MW1601
0079010014999991992021410504+59800+005350FM-15+0049ENSO V0201401N00211006001CN0112001N1+00501+00401999999ADDAG11999GA1011+000609079GA2031+001809079GA3051+006009089MA1099701999999MW1211
0092010014999991992021411504+59800+005350FM-15+0049ENSO V0201501N00311005401CN0112001N1+00501+00401999999ADDAG11000GA1011+001509079GA2031+003009079GA3051+005409089MA1099701999999EQDQ01+000000PRSWM2
0063010014999991992021413504+59800+005350FM-15+0049ENSO V0201901N00101006001CN0112001N1+00401+00301999999ADDAG11999GA1031+003609099GA2051+006009089MA1099701999999MW1251
0063010014999991992021414504+59800+005350FM-15+0049ENSO V0202301N00211006001CN0112001N1+00501+00401999999ADDAG11000GA1021+003609099GA2051+006009089MA1099701999999MW1251
0063010014999991992021415504+59800+005350FM-15+0049ENSO V0201901N00051006001CN0112001N1+00501+00401999999ADDAG11999GA1021+003609099GA2051+006009089MA1099701999999MW1251
0079010014999991992021416504+59800+005350FM-15+0049ENSO V0202501N00211003601CN0112001N1+00501+00401999999ADDAG11999GA1021+003009099GA2031+003609079GA3051+005409089MA1099591999999MW1251
0079010014999991992021417504+59800+005350FM-15+0049ENSO V0203201N00671003601CN0112001N1+00401+00301999999ADDAG11000GA1021+003009099GA2031+003609079GA3051+004509079MA1099701999999MW1251
0047010014999991992021418504+59800+005350FM-15+0049ENSO V0203201N00571220001CN0112001N1+00301+00001999999ADDAG12999GA1031+006009089MA1099701999999MW1251
0044010014999991992021705504+59800+005350FM-15+0049ENSO V0201001N00311220001CN0112001N1-00401-01101999999ADDAG11000MA1102611999999EQDQ01+000000PRSWM2
0044010014999991992021706504+59800+005350FM-15+0049ENSO V0201001N00361220001CN0112001N1-00301-00901999999ADDAG11999MA1102711999999EQDQ01+000000PRSWM2
0044010014999991992021707504+59800+005350FM-15+0049ENSO V0201101N00361220001CN0112001N1-00301-00901999999ADDAG11999MA1102711999999EQDQ01+000000PRSWM2
0044010014999991992021708504+59800+005350FM-15+0049ENSO V0201501N00261220001CN0112001N1-00201-00901999999ADDAG12000MA1102811999999EQDQ01+000000PRSWM2
0044010014999991992021709504+59800+005350FM-15+0049ENSO V0201401N00261220001CN0112001N1-00101-00901999999ADDAG12999MA1102811999999EQDQ01+000000PRSWM2
0044010014999991992021710504+59800+005350FM-15+0049ENSO V0201401N00261220001CN0112001N1-00101-00901999999ADDAG12999MA1102811999999EQDQ01+000000PRSWM2
0044010014999991992021711504+59800+005350FM-15+0049ENSO V0201201N00411220001CN0112001N1+00001-01101999999ADDAG11000MA1102911999999EQDQ01+000000PRSWM2
0060010014999991992021717504+59800+005350FM-15+0049ENSO V0201301N00261220001CN0112001N1-00201-01201999999ADDAG11000GA1011+007509089MA1102811999999EQDQ01+000000PRSWM2
0060010014999991992021718504+59800+005350FM-15+0049ENSO V0201101N00311220001CN0112001N1-00201-01301999999ADDAG12999GA1011+007509089MA1102811999999EQDQ01+000000PRSWM2
0060010014999991992021719504+59800+005350FM-15+0049ENSO V0201201N00311220001CN0112001N1-00201-01201999999ADDAG12999GA1011+007509089MA1102811999999EQDQ01+000000PRSWM2
0060010014999991992021805504+59800+005350FM-15+0049ENSO V0201201N00511012001CN0112001N1-00101-01001999999ADDAG12000GA1061+012009059MA1102811999999EQDQ01+000000PRSWM2
0060010014999991992021806504+59800+005350FM-15+0049ENSO V0201201N00511012001CN0112001N1-00101-01001999999ADDAG12999GA1061+012009059MA1102711999999EQDQ01+000000PRSWM2
0060010014999991992021807504+59800+005350FM-15+0049ENSO V0201201N00461012001CN0112001N1+00001-00801999999ADDAG12999GA1061+012009059MA1102711999999EQDQ01+000000PRSWM2
0076010014999991992021808504+59800+005350FM-15+0049ENSO V0201401N00361013501CN0112001N1+00001-00901999999ADDAG12000GA1031+010509059GA2061+013509059MA1102711999999EQDQ01+000000PRSWM2
0060010014999991992021809504+59800+005350FM-15+0049ENSO V0201201N00461013501CN0112001N1+00001-00901999999ADDAG12999GA1061+013509059MA1102711999999EQDQ01+000000PRSWM2
0060010014999991992021810504+59800+005350FM-15+0049ENSO V0201201N00461013501CN0112001N1+00101-00701999999ADDAG12999GA1061+013509059MA1102711999999EQDQ01+000000PRSWM2
0063010014999991992021812504+59800+005350FM-15+0049ENSO V0201401N00511007501CN0112001N1+00101-00501999999ADDAG11999GA1031+006009059GA2061+007509059MA1102711999999MW1701
0063010014999991992021813504+59800+005350FM-15+0049ENSO V0201401N00311007501CN0080001N1+00001-00201999999ADDAG11999GA1031+004509059GA2051+007509059MA1102711999999MW1711
0079010014999991992021814504+59800+005350FM-15+0049ENSO V0201401N00311004501CN0112001N1+00101-00101999999ADDAG11000GA1021+003009079GA2031+004509089GA3051+007509059MA1102711999999MW1221
0079010014999991992021815504+59800+005350FM-15+0049ENSO V0201401N00151003601CN0080001N1+00001-00301999999ADDAG11999GA1021+002409079GA2031+003609089GA3051+009009059MA1102711999999MW1701
0079010014999991992021816504+59800+005350FM-15+0049ENSO V0201301N00151009001CN0112001N1+00001-00201999999ADDAG11999GA1011+002409079GA2031+003609089GA3051+009009059MA1102811999999MW1221
0076010014999991992021817504+59800+005350FM-15+0049ENSO V0201101N00101220001CN0112001N1+00001-00201999999ADDAG11000GA1011+001809079GA2041+006009059MA1102811999999EQDQ01+000000PRSWM2
0060010014999991992021818504+59800+005350FM-15+0049ENSO V0201501N00101220001CN0112001N1-00101-00301999999ADDAG11999GA1011+001809079MA1102811999999EQDQ01+000000PRSWM2
0060010014999991992021819504+59800+005350FM-15+0049ENSO V0201501N00101220001CN0112001N1-00201-00301999999ADDAG11999GA1011+001809079MA1102911999999EQDQ01+000000PRSWM2
0063010014999991992021905504+59800+005350FM-15+0049ENSO V0201401N00261006001CN0080001N1-00201-00301999999ADDAG12000GA1031+001209079GA2041+006009059MA1103011999999MW1111
0063010014999991992021906504+59800+005350FM-15+0049ENSO V0201501N00361005401CN0080001N1-00101-00201999999ADDAG12999GA1031+001209079GA2051+005409059MA1103011999999MW1111
0110010014999991992021907504+59800+005350FM-15+0049ENSO V0201501N00361006001CN0112001N1-00101-00201999999ADDAG12999GA1031+000309079GA2041+006009059MA1103011999999MW1111REMMET038VIS        ?     IN SECTOR S TO W 2500
0099010014999991992021908504+59800+005350FM-15+0049ENSO V0201401N00461002101CN0070001N1-00101-00201999999ADDAG12000GA1031+000609079GA2041+002109079MA1103121999999MW1401REMMET027VIS TO E         ?     9999
0063010014999991992021909504+59800+005350FM-15+0049ENSO V0201401N00411003001CN0070001N1+00001-00101999999ADDAG12999GA1031+001209079GA2051+003009079MA1103121999999MW1401
0063010014999991992021910504+59800+005350FM-15+0049ENSO V0201401N00461007501CN0112001N1+00101+00001999999ADDAG12999GA1031+001209079GA2051+007509059MA1103121999999MW1401
0076010014999991992021911504+59800+005350FM-15+0049ENSO V0201401N00511007501CN0112001N1+00101+00001999999ADDAG11000GA1031+002109079GA2041+007509059MA1103121999999EQDQ01+000000PRSWM2
0076010014999991992021912504+59800+005350FM-15+0049ENSO V0201401N00461006001CN0112001N1+00201+00101999999ADDAG11999GA1021+003009079GA2051+006009059MA1103011999999EQDQ01+000000PRSWM2
0079010014999991992021913504+59800+005350FM-15+0049ENSO V0201501N00311003601CN0090001N1+99999+99999999999ADDAG11999GA1021+003009079GA2031+003609089GA3051+006009059MA1103011999999MW1611
0079010014999991992021914504+59800+005350FM-15+0049ENSO V0201401N00311002401CN0090001N1+00201+00101999999ADDAG11001GA1021+001209079GA2031+002409079GA3051+004509059MA1102911999999MW1611
0079010014999991992021915504+59800+005350FM-15+0049ENSO V0201401N00361009001CN0112001N1+00201+00101999999ADDAG11999GA1011+000609079GA2041+001509079GA3051+009009059MA1102911999999MW1211
0092010014999991992021916504+59800+005350FM-15+0049ENSO V0201401N00411004501CN0112001N1+00201+00101999999ADDAG11999GA1011+000609079GA2041+001209079GA3061+004509059MA1102911999999EQDQ01+000000PRSWM2
0079010014999991992021917504+59800+005350FM-15+0049ENSO V0201401N00411003601CN0112001N1+00201+00101999999ADDAG11000GA1011+000609079GA2031+001209079GA3061+003609059MA1102811999999MW1211
0092010014999991992021918504+59800+005350FM-15+0049ENSO V0201401N00361003601CN0112001N1+00201+00101999999ADDAG12999GA1011+000609079GA2031+001209079GA3061+003609059MA1102811999999EQDQ01+000000PRSWM2
0092010014999991992021919504+59800+005350FM-15+0049ENSO V0201401N00261009001CN0112001N1+00301+00201999999ADDAG12999GA1011+000909079GA2031+001809079GA3051+009009059MA1102811999999EQDQ01+000000PRSWM2
0076010014999991992022005504+59800+005350FM-15+0049ENSO V0201401N00361009001CN0112001N1+00201+00101999999ADDAG12000GA1021+003609089GA2051+009009059MA1102511999999EQDQ01+000000PRSWM2
0076010014999991992022006504+59800+005350FM-15+0049ENSO V0201401N00311007501CN0112001N1+00201+00101999999ADDAG12999GA1021+003609089GA2051+007509059MA1102401999999EQDQ01+000000PRSWM2
0076010014999991992022007504+59800+005350FM-15+0049ENSO V0201401N00311021001CN0112001N1+00201+00101999999ADDAG12999GA1031+003909089GA2051+021009039MA1102401999999EQDQ01+000000PRSWM2
0076010014999991992022008504+59800+005350FM-15+0049ENSO V0201401N00311021001CN0112001N1+00301+00201999999ADDAG12000GA1021+003909089GA2051+021009039MA1102401999999EQDQ01+000000PRSWM2
0076010014999991992022009504+59800+005350FM-15+0049ENSO V0201501N00361021001CN0112001N1+00301+00201999999ADDAG12999GA1031+004509089GA2041+021009039MA1102401999999EQDQ01+000000PRSWM2
0076010014999991992022011504+59800+005350FM-15+0049ENSO V0201701N00311012001CN0112001N1+00501+00001999999ADDAG12000GA1021+003909089GA2041+012009059MA1102301999999EQDQ01+000000PRSWM2
0076010014999991992022012504+59800+005350FM-15+0049ENSO V0201601N00311018001CN0112001N1+00401+00101999999ADDAG12999GA1021+003909089GA2061+018009039MA1102301999999EQDQ01+000000PRSWM2
0076010014999991992022013504+59800+005350FM-15+0049ENSO V0201601N00261021001CN0112001N1+00401+00101999999ADDAG12999GA1021+004209089GA2051+021009039MA1102201999999EQDQ01+000000PRSWM2
0076010014999991992022015504+59800+005350FM-15+0049ENSO V0201501N00461220001CN0112001N1+00401+00201999999ADDAG12999GA1021+003609089GA2021+007509059MA1102101999999EQDQ01+000000PRSWM2
0076010014999991992022016504+59800+005350FM-15+0049ENSO V0201501N00411009001CN0112001N1+00401+00001999999ADDAG12999GA1021+003909089GA2051+009009059MA1102001999999EQDQ01+000000PRSWM2
0076010014999991992022018504+59800+005350FM-15+0049ENSO V0201501N00261007501CN0112001N1+00301+00001999999ADDAG11999GA1021+003609089GA2051+007509059MA1102001999999EQDQ01+000000PRSWM2
0076010014999991992022106504+59800+005350FM-15+0049ENSO V0203201N00101009001CN0112001N1+00301+00201999999ADDAG12999GA1031+003609089GA2051+009009059MA1101801999999EQDQ01+000000PRSWM2
0100010014999991992022108504+59800+005350FM-15+0049ENSO V0203001N00151004501CN9999999N9+00401+00301999999ADDAG12000GA1031+003609099GA2041+004509089MA1102001999999OC100671EQDQ01+000002VOVAR Q02+000000PRSWM2
0079010014999991992022110504+59800+005350FM-15+0049ENSO V0202501N00411054001CN0112001N1+00501+00001999999ADDAG12999GA1011+003609099GA2031+005409089GA3051+054009029MA1102101999999MW1251
0076010014999991992022111504+59800+005350FM-15+0049ENSO V0202401N00311054001CN0112001N1+00601+00001999999ADDAG11000GA1021+005409089GA2061+054009029MA1102101999999EQDQ01+000000PRSWM2
0092010014999991992022112504+59800+005350FM-15+0049ENSO V0202501N00411036001CN0112001N1+00601+00101999999ADDAG11999GA1011+003609099GA2031+005409089GA3051+036009039MA1102101999999EQDQ01+000000PRSWM2
0092010014999991992022113504+59800+005350FM-15+0049ENSO V0202401N00411036001CN0112001N1+00601+00101999999ADDAG11999GA1011+003609099GA2021+005409089GA3061+036009039MA1102101999999EQDQ01+000000PRSWM2
0092010014999991992022114504+59800+005350FM-15+0049ENSO V0202401N00361036001CN0112001N1+00501+00001999999ADDAG11000GA1011+003609099GA2021+005409089GA3051+036009039MA1102101999999EQDQ01+000000PRSWM2
0092010014999991992022115504+59800+005350FM-15+0049ENSO V0202301N00311015001CN0112001N1+00501+00001999999ADDAG11999GA1021+005409089GA2031+015009059GA3051+045009039MA1102101999999EQDQ01+000000PRSWM2
0076010014999991992022116504+59800+005350FM-15+0049ENSO V0202501N00411021001CN0112001N1+00501+00001999999ADDAG11999GA1031+005409089GA2051+021009039MA1102101999999EQDQ01+000000PRSWM2
0076010014999991992022117504+59800+005350FM-15+0049ENSO V0202301N00361021001CN0112001N1+00501+00101999999ADDAG12000GA1031+004509089GA2051+021009039MA1102001999999EQDQ01+000000PRSWM2
0076010014999991992022118504+59800+005350FM-15+0049ENSO V0202301N00261009001CN0112001N1+00501+00001999999ADDAG12999GA1021+005409089GA2031+009009059MA1102001999999EQDQ01+000000PRSWM2
0085010014999991992022406504+59800+005350FM-15+0049ENSO V0201701N00571003301CN0060001N1+00301+00201999999ADDAG12999GA1031+002409079GA2061+003309079MA1101081999999MW1681REMMET013PAST MAX 29KT
0079010014999991992022407504+59800+005350FM-15+0049ENSO V0201701N00671002101CN0035001N1+00501+00501999999ADDAG12999GA1011+000609079GA2041+001209079GA3071+002109079MA1101021999999MW1611
0063010014999991992022408504+59800+005350FM-15+0049ENSO V0201901N00771001201CN0020001N1+00601+00601999999ADDAG12002GA1021+000609079GA2051+001209079MA1101021999999MW1591
0079010014999991992022409504+59800+005350FM-15+0049ENSO V0202101N00621002701CN0080001N1+00701+00701999999ADDAG12999GA1011+000909079GA2041+001509079GA3061+002709079MA1101021999999MW1611
0079010014999991992022410504+59800+005350FM-15+0049ENSO V0202301N00671002101CN0050001N1+00701+00701999999ADDAG12999GA1011+000909079GA2041+001509079GA3061+002109079MA1101021999999MW1611
0063010014999991992022411504+59800+005350FM-15+0049ENSO V0202701N00311002101CN0060001N1+00701+00701999999ADDAG11000GA1031+001209079GA2061+002109079MA1101081999999MW1601
0063010014999991992022412504+59800+005350FM-15+0049ENSO V0202501N00311002101CN0070001N1+00701+00701999999ADDAG11999GA1031+001509079GA2061+002109079MA1101081999999MW1501
0079010014999991992022413504+59800+005350FM-15+0049ENSO V0202601N00261003001CN0112001N1+00701+00701999999ADDAG11999GA1031+002109079GA2041+003009079GA3061+006009059MA1101191999999MW1501
0079010014999991992022414504+59800+005350FM-15+0049ENSO V0202501N00261006001CN0112001N1+00701+00701999999ADDAG11000GA1021+002709079GA2031+006009059GA3061+018009049MA1101191999999MW1501
0092010014999991992022415504+59800+005350FM-15+0049ENSO V0202401N00261006001CN0112001N1+00701+00701999999ADDAG11999GA1021+002709079GA2031+006009059GA3061+018009049MA1101191999999EQDQ01+000000PRSWM2
0092010014999991992022416504+59800+005350FM-15+0049ENSO V0202501N00211006001CN0112001N1+00601+00501999999ADDAG11999GA1021+003009079GA2031+006009059GA3061+010509059MA1101191999999EQDQ01+000000PRSWM2
0079010014999991992022417504+59800+005350FM-15+0049ENSO V0202501N00361006001CN0090001N1+00601+00501999999ADDAG11001GA1021+003009079GA2031+006009089GA3061+012009059MA1101291999999MW1801
0076010014999991992022505504+59800+005350FM-15+0049ENSO V0202201N00311009001CN0112001N1+00501+00201999999ADDAG11000GA1021+006009059GA2051+009009059MA1101491999999EQDQ01+000000PRSWM2
0060010014999991992022506504+59800+005350FM-15+0049ENSO V0202401N00461006001CN0112001N1+00501+00201999999ADDAG11999GA1051+006009089MA1101591999999EQDQ01+000000PRSWM2
0060010014999991992022507504+59800+005350FM-15+0049ENSO V0202601N00411006001CN0112001N1+00501+00201999999ADDAG11999GA1051+006009089MA1101591999999EQDQ01+000000PRSWM2
0060010014999991992022508504+59800+005350FM-15+0049ENSO V0202601N00411220001CN0112001N1+00501+00101999999ADDAG11000GA1041+007509089MA1101801999999EQDQ01+000000PRSWM2
0060010014999991992022509504+59800+005350FM-15+0049ENSO V0203101N00211220001CN0112001N1+00601+00101999999ADDAG11999GA1021+007509089MA1101801999999EQDQ01+000000PRSWM2
0060010014999991992022510504+59800+005350FM-15+0049ENSO V0202901N00051220001CN0112001N1+00701+00101999999ADDAG11999GA1021+007509089MA1101901999999EQDQ01+000000PRSWM2
0060010014999991992022511504+59800+005350FM-15+0049ENSO V0203101N00151220001CN0112001N1+00601+00001999999ADDAG11000GA1031+007509089MA1102001999999EQDQ01+000000PRSWM2
0060010014999991992022512504+59800+005350FM-15+0049ENSO V0203401N00101220001CN0112001N1+00701-00101999999ADDAG11999GA1021+007509089MA1102001999999EQDQ01+000000PRSWM2
0060010014999991992022513504+59800+005350FM-15+0049ENSO V0202001N00101220001CN0112001N1+00801-00201999999ADDAG11999GA1011+009009089MA1102001999999EQDQ01+000000PRSWM2
0060010014999991992022514504+59800+005350FM-15+0049ENSO V0201801N00261220001CN0112001N1+00701-00101999999ADDAG11000GA1011+007509089MA1102001999999EQDQ01+000000PRSWM2
0060010014999991992022515504+59800+005350FM-15+0049ENSO V0202001N00211220001CN0112001N1+00601-00101999999ADDAG11999GA1011+006009089MA1102001999999EQDQ01+000000PRSWM2
0060010014999991992022516504+59800+005350FM-15+0049ENSO V0201701N00211220001CN0112001N1+00501+00001999999ADDAG11999GA1011+006009089MA1102001999999EQDQ01+000000PRSWM2
0076010014999991992022517504+59800+005350FM-15+0049ENSO V0201501N00311220001CN0112001N1+00301+00101999999ADDAG11000GA1011+006009089GA2031+054009009MA1102001999999EQDQ01+000000PRSWM2
0076010014999991992022518504+59800+005350FM-15+0049ENSO V0201401N00361220001CN0112001N1+00301+00101999999ADDAG12999GA1011+006009089GA2031+045009039MA1102001999999EQDQ01+000000PRSWM2
0076010014999991992022605504+59800+005350FM-15+0049ENSO V0201601N00621005101CN0112001N1+00501+00101999999ADDAG11000GA1021+003009079GA2061+005109059MA1101491999999EQDQ01+000000PRSWM2
0071010014999991992022606504+59800+005350FM-15+0049ENSO V0201601N00721004501CN0080001N1+00401+00201999999ADDAG11999GA1031+003009079GA2061+004509059MA1101491999999MW1601OC101241
0071010014999991992022607504+59800+005350FM-15+0049ENSO V0201601N00821005401CN0112001N1+00501+00301999999ADDAG11999GA1031+003009079GA2061+005409059MA1101391999999MW1591OC101341
0071010014999991992022609504+59800+005350FM-15+0049ENSO V0201601N00821007501CN0112001N1+00501+00001999999ADDAG11999GA1031+004509059GA2051+007509059MA1101391999999MW1211OC101391
0087010014999991992022610504+59800+005350FM-15+0049ENSO V0201601N00881004501CN0112001N1+00501+00201999999ADDAG11999GA1021+003009079GA2031+004509059GA3051+006009059MA1101291999999MW1211OC101391
0084010014999991992022611504+59800+005350FM-15+0049ENSO V0201601N00881006001CN0112001N1+00501+00101999999ADDAG11000GA1031+004509059GA2051+006009059MA1101391999999OC101391EQDQ01+000000PRSWM2
0071010014999991992022612504+59800+005350FM-15+0049ENSO V0201601N00931007501CN0112001N1+00601+00201999999ADDAG11999GA1031+004209089GA2051+007509059MA1101291999999MW1101OC101441
0071010014999991992022613504+59800+005350FM-15+0049ENSO V0201601N00721004501CN0070001N1+00501+00301999999ADDAG11999GA1031+003009079GA2051+004509059MA1101291999999MW1611OC101341
0063010014999991992022614504+59800+005350FM-15+0049ENSO V0201701N00821004501CN0070001N1+00401+00301999999ADDAG11001GA1031+003009079GA2051+004509059MA1101291999999MW1611
0063010014999991992022615504+59800+005350FM-15+0049ENSO V0201701N00571003601CN0060001N1+00501+00401999999ADDAG11999GA1031+002409079GA2051+003609059MA1101391999999MW1611
0087010014999991992022616504+59800+005350FM-15+0049ENSO V0201901N00571001501CN0035001N1+00501+00501999999ADDAG11999GA1011+000309079GA2031+000909079GA3061+001509079MA1101491999999MW1591OC101081
0079010014999991992022617504+59800+005350FM-15+0049ENSO V0201801N00411001501CN0060001N1+00601+00601999999ADDAG11000GA1021+000609079GA2041+001509079GA3051+004509059MA1101591999999MW1211
0079010014999991992022618504+59800+005350FM-15+0049ENSO V0201901N00361001501CN0040001N1+00601+00601999999ADDAG11999GA1021+000909079GA2041+001509079GA3061+004509059MA1101691999999MW1101
0063010014999991992022619504+59800+005350FM-15+0049ENSO V0201701N00311004501CN0070001N1+00601+00601999999ADDAG11999GA1031+001509079GA2061+004509059MA1101691999999MW1101
0076010014999991992022705504+59800+005350FM-15+0049ENSO V0201301N00361220001CN0112001N1+00401+00401999999ADDAG12000GA1011+003609089GA2041+009009059MA1102001999999EQDQ01+000000PRSWM2
0076010014999991992022706504+59800+005350FM-15+0049ENSO V0201301N00411021001CN0112001N1+00401+00401999999ADDAG12999GA1011+004209089GA2051+021009039MA1102001999999EQDQ01+000000PRSWM2
0092010014999991992022707504+59800+005350FM-15+0049ENSO V0201401N00571027001CN0112001N1+00501+00201999999ADDAG11999GA1011+004509089GA2031+009009059GA3051+027009039MA1102001999999EQDQ01+000000PRSWM2
0076010014999991992022708504+59800+005350FM-15+0049ENSO V0201501N00621021001CN0112001N1+00601+00101999999ADDAG11000GA1021+007509089GA2051+021009039MA1101901999999EQDQ01+000000PRSWM2
0071010014999991992022710504+59800+005350FM-15+0049ENSO V0201501N00931018001CN0112001N1+00801-00101999999ADDAG11999GA1011+007509089GA2051+018009049MA1101691999999MW1611OC101541
0071010014999991992022711504+59800+005350FM-15+0049ENSO V0201601N00931013501CN0112001N1+00801+00101999999ADDAG11000GA1011+009009089GA2051+013509059MA1101691999999MW1211OC101491
0071010014999991992022712504+59800+005350FM-15+0049ENSO V0201601N00981013501CN0112001N1+00801+00101999999ADDAG11999GA1031+007509089GA2051+013509059MA1101591999999MW1801OC101651
0055010014999991992022713504+59800+005350FM-15+0049ENSO V0201701N00721006001CN0112001N1+00801+00401999999ADDAG11999GA1051+006009059MA1101591999999MW1251OC101291
0068010014999991992022714504+59800+005350FM-15+0049ENSO V0201801N00821005401CN0112001N1+00901+00601999999ADDAG11000GA1051+005409059MA1101591999999OC101541EQDQ01+000000PRSWM2
0106010014999991992022715504+59800+005350FM-15+0049ENSO V0201701N00881005401CN0112001N1+00801+00601999999ADDAG11999GA1031+003009079GA2051+005409059MA1101591999999OC101391REMMET013PAST MAX 32KTEQDQ01+000000PRSWM2
0084010014999991992022716504+59800+005350FM-15+0049ENSO V0201701N00881004501CN0112001N1+00801+00601999999ADDAG11999GA1031+003009079GA2061+004509059MA1101591999999OC101541EQDQ01+000000PRSWM2
0063010014999991992022717504+59800+005350FM-15+0049ENSO V0201701N00771003601CN0050001N1+00701+00601999999ADDAG11001GA1031+002709079GA2061+003609079MA1101491999999MW1611
0071010014999991992022718504+59800+005350FM-15+0049ENSO V0201801N00821003001CN0050001N1+00701+00601999999ADDAG11999GA1031+002109079GA2061+003009079MA1101491999999MW1611OC101341
0071010014999991992022719504+59800+005350FM-15+0049ENSO V0201801N00621002101CN0050001N1+00701+00601999999ADDAG11999GA1031+001509079GA2061+002109079MA1101491999999MW1611OC101131
0076010014999991992022806504+59800+005350FM-15+0049ENSO V0202101N00051220001CN0112001N1+00401+00201999999ADDAG11999GA1011+004509099GA2021+007509089MA1102001999999EQDQ01+000000PRSWM2
0060010014999991992022807504+59800+005350FM-15+0049ENSO V0202501N00211220001CN0112001N1+00401+00201999999ADDAG11999GA1021+006009089MA1102101999999EQDQ01+000000PRSWM2
0060010014999991992022808504+59800+005350FM-15+0049ENSO V0202301N00211220001CN0112001N1+00501+00201999999ADDAG12000GA1011+007509089MA1102101999999EQDQ01+000000PRSWM2
0060010014999991992022811504+59800+005350FM-15+0049ENSO V0202401N00361220001CN0112001N1+00701-00201999999ADDAG11000GA1031+007509089MA1102301999999EQDQ01+000000PRSWM2
0060010014999991992022812504+59800+005350FM-15+0049ENSO V0202501N00361220001CN0112001N1+00701-00201999999ADDAG11999GA1031+007509089MA1102201999999EQDQ01+000000PRSWM2
0060010014999991992022813504+59800+005350FM-15+0049ENSO V0202401N00311007501CN0112001N1+00701-00201999999ADDAG11999GA1051+007509089MA1102301999999EQDQ01+000000PRSWM2
0060010014999991992022814504+59800+005350FM-15+0049ENSO V0202301N00461220001CN0112001N1+00601-00201999999ADDAG11000GA1041+007509089MA1102301999999EQDQ01+000000PRSWM2
0076010014999991992022815504+59800+005350FM-15+0049ENSO V0201901N00361013501CN0112001N1+00601-00101999999ADDAG11999GA1021+007509089GA2041+013509059MA1102301999999EQDQ01+000000PRSWM2
0076010014999991992022816504+59800+005350FM-15+0049ENSO V0201901N00311013501CN0112001N1+00501-00101999999ADDAG11999GA1021+007509089GA2031+013509059MA1102301999999EQDQ01+000000PRSWM2
0076010014999991992022817504+59800+005350FM-15+0049ENSO V0201701N00311220001CN0112001N1+00501+00101999999ADDAG11000GA1011+007509089GA2031+012009059MA1102201999999EQDQ01+000000PRSWM2
0076010014999991992022818504+59800+005350FM-15+0049ENSO V0201701N00361220001CN0112001N1+00401+00101999999ADDAG11999GA1011+007509089GA2041+010509059MA1102301999999EQDQ01+000000PRSWM2
0079010014999991992030206504+59800+005350FM-15+0049ENSO V0201901N00101003001CN0112001N1+00401+00301999999ADDAG12999GA1011+000909079GA2031+001809079GA3051+003009079MA1100201999999MW1251
0063010014999991992030207504+59800+005350FM-15+0049ENSO V0203301N00621002401CN0112001N1+00501+00401999999ADDAG12999GA1031+000909079GA2051+002409079MA1100201999999MW1601
0063010014999991992030209504+59800+005350FM-15+0049ENSO V0203201N00721002401CN0090001N1+00301+00201999999ADDAG12999GA1031+001209079GA2061+002409079MA1100311999999MW1681
0063010014999991992030212504+59800+005350FM-15+0049ENSO V0209991C00001006001CN0112001N1+00401+00301999999ADDAG12999GA1031+003909089GA2051+006009059MA1100411999999MW1251
0063010014999991992030213504+59800+005350FM-15+0049ENSO V0202101N00151007501CN0112001N1+00401+00301999999ADDAG12999GA1031+003909089GA2051+007509059MA1100411999999MW1251
0093010014999991992030214504+59800+005350FM-15+0049ENSO V0202501N00101007501CN0112001N1+00401+00201999999ADDAG10000GA1031+004509089GA2041+007509059MA1100411999999REMMET008DIST SHWEQDQ01+000000PRSWM2
0064010014999991992030215504+59800+005350FM-15+0049ENSO V0202901N00101220001CN0112001N1+00501+00301999999ADDAG10999GA1041+006009089MA1100411999999MW1251REMMET008DIST SHW
0076010014999991992030216504+59800+005350FM-15+0049ENSO V0202801N00361007501CN0112001N1+00401+00201999999ADDAG12999GA1021+003609099GA2031+007509059MA1100411999999EQDQ01+000000PRSWM2
0076010014999991992030217504+59800+005350FM-15+0049ENSO V0202501N00211007501CN0112001N1+00301+00101999999ADDAG12000GA1021+003609099GA2031+007509059MA1100411999999EQDQ01+000000PRSWM2
0076010014999991992030218504+59800+005350FM-15+0049ENSO V0201601N00101007501CN0112001N1+00201+00001999999ADDAG11999GA1021+003609099GA2031+007509059MA1100411999999EQDQ01+000000PRSWM2
0076010014999991992030219504+59800+005350FM-15+0049ENSO V0201501N00261007501CN0112001N1+00301+00101999999ADDAG11999GA1021+003609099GA2031+007509059MA1100311999999EQDQ01+000000PRSWM2
0047010014999991992030305504+59800+005350FM-15+0049ENSO V0202701N00151005401CN0112001N1+00401+00301999999ADDAG12000GA1051+005409089MA1100511999999MW1251
0079010014999991992030306504+59800+005350FM-15+0049ENSO V0200101N00101027001CN0112001N1+00401+00301999999ADDAG12999GA1011+004509089GA2031+009009059GA3061+027009049MA1100511999999MW1251
0092010014999991992030307504+59800+005350FM-15+0049ENSO V0202101N00101024001CN0112001N1+00301+00201999999ADDAG12999GA1011+004509089GA2031+006009089GA3061+024009049MA1100611999999EQDQ01+000000PRSWM2
0063010014999991992030308504+59800+005350FM-15+0049ENSO V0202301N00151024001CN0112001N1+00501+00301999999ADDAG12000GA1031+005409089GA2061+024009049MA1100511999999MW1501
0063010014999991992030309504+59800+005350FM-15+0049ENSO V0201101N00261021001CN0112001N1+00501+00301999999ADDAG12999GA1011+006009089GA2061+021009049MA1100511999999MW1501
0092010014999991992030310504+59800+005350FM-15+0049ENSO V0201201N00311021001CN0112001N1+00501+00201999999ADDAG12999GA1011+004509089GA2031+006009089GA3061+021009049MA1100411999999EQDQ01+000000PRSWM2
0063010014999991992030311504+59800+005350FM-15+0049ENSO V0201701N00411009001CN0112001N1+00501+00301999999ADDAG12000GA1031+004509089GA2061+009009059MA1100411999999MW1501
0063010014999991992030312504+59800+005350FM-15+0049ENSO V0201601N00311004801CN0112001N1+00301+00001999999ADDAG12999GA1031+003009079GA2061+004809059MA1100411999999MW1611
0063010014999991992030313504+59800+005350FM-15+0049ENSO V0201401N00311004501CN0112001N1+00301+00201999999ADDAG12999GA1041+003009079GA2061+004509059MA1100511999999MW1591
0060010014999991992030315504+59800+005350FM-15+0049ENSO V0201101N00571220001CN0112001N1+00401+00201999999ADDAG12999GA1011+002409079MA1100511999999EQDQ01+000000PRSWM2
0076010014999991992030316504+59800+005350FM-15+0049ENSO V0203301N00361009001CN0112001N1+00401+00201999999ADDAG12999GA1021+003609089GA2031+009009059MA1101021999999EQDQ01+000000PRSWM2
0076010014999991992030317504+59800+005350FM-15+0049ENSO V0203501N00461220001CN0112001N1+00301+00201999999ADDAG11000GA1011+003609089GA2031+009009059MA1101081999999EQDQ01+000000PRSWM2
0060010014999991992030318504+59800+005350FM-15+0049ENSO V0203601N00211220001CN0112001N1+00301+00201999999ADDAG12999GA1011+003609089MA1101291999999EQDQ01+000000PRSWM2
0076010014999991992030405504+59800+005350FM-15+0049ENSO V0201201N00461220001CN0112001N1+00401+00301999999ADDAG12000GA1011+003609079GA2041+006009059MA1101901999999EQDQ01+000000PRSWM2
0076010014999991992030406504+59800+005350FM-15+0049ENSO V0201301N00511021001CN0112001N1+00401+00301999999ADDAG12999GA1011+003009079GA2051+021009039MA1101801999999EQDQ01+000000PRSWM2
0076010014999991992030407504+59800+005350FM-15+0049ENSO V0201401N00511021001CN0112001N1+00401+00201999999ADDAG12999GA1031+012009059GA2051+021009039MA1101801999999EQDQ01+000000PRSWM2
0060010014999991992030408504+59800+005350FM-15+0049ENSO V0201501N00571021001CN0112001N1+00401+00201999999ADDAG12000GA1061+021009039MA1101901999999EQDQ01+000000PRSWM2
0078010014999991992030409504+59800+005350FM-15+0049ENSO V0201501N00411007501CN0112001N1+00501+00301999999ADDAG10999GA1051+007509059MA1101901999999REMMET009DIST SHWREQDQ01+000000PRSWM2
0060010014999991992030410504+59800+005350FM-15+0049ENSO V0201401N00511007501CN0112001N1+00501+00201999999ADDAG12999GA1051+007509059MA1101901999999EQDQ01+000000PRSWM2
0060010014999991992030411504+59800+005350FM-15+0049ENSO V0201501N00571009001CN0112001N1+00601+00201999999ADDAG11000GA1051+009009059MA1102001999999EQDQ01+000000PRSWM2
0076010014999991992030412504+59800+005350FM-15+0049ENSO V0201401N00571007501CN0112001N1+00701+00301999999ADDAG11999GA1031+003609079GA2051+007509059MA1101901999999EQDQ01+000000PRSWM2
0079010014999991992030413504+59800+005350FM-15+0049ENSO V0201301N00411007501CN0112001N1+00601+00401999999ADDAG11999GA1011+002409079GA2031+003609079GA3051+007509059MA1101901999999MW1211
0076010014999991992030414504+59800+005350FM-15+0049ENSO V0201301N00571005401CN0112001N1+00601+00401999999ADDAG11000GA1021+003009079GA2061+005409059MA1101901999999EQDQ01+000000PRSWM2
