0092010010999991992010100004+70933-008667FM-12+0009ENJA V0200101N00931012001CN0400001N9-00361-00771096881ADDAA106000091AG14000GF108991081081008001999999MD1310051+9999OA149901801REMSYN011333   91135
0072010010999991992010103004+70933-008667FM-12+0009ENJA V0203601N00821009001CN0200001N9-00551-00841096951ADDAG12001AY181031AY221031GF108991081081004501999999MD1210071+9999MW1851
0133010010999991992010106004+70933-008667FM-12+0009ENJA V0203601N01031009001CN0100001N9-00791-01151097091ADDAA199999929AG19001AY181061AY221061GF108991081081004501999999KA1120N-00801MD1210141+9999MW1851OA149902061REMSYN017333   21080 91140
0072010010999991992010109004+70933-008667FM-12+0009ENJA V0203601N01131009001CN0060001N9-00861-01091097211ADDAG12001AY181031AY281031GF108991081081004501999999MD1210121+9999MW1851
0134010010999991992010112004+70933-008667FM-12+0009ENJA V0203501N00931009001CN0040001N9-00821-01051097431ADDAA106000191AG19001AY181061AY281061GF108991081081004501999999MD1210221+9999MW1851OA149902011SA1-0019REMSYN023222// 01001 333   91139
0072010010999991992010115004+70933-008667FM-12+0009ENJA V0203601N00821009001CN0080001N9-00861-01211097651ADDAG12001AY181031AY281031GF107991071081004501999999MD1210231+9999MW1851
0133010010999991992010118004+70933-008667FM-12+0009ENJA V0203601N00821220001CN0250001N9-00871-01181097761ADDAA199000391AG10001AY181061AY221061GF105991041031004501001011KA1120M-00761MD1210111+9999MW1261OA149901801REMSYN017333   11076 91135
0072010010999991992010121004+70933-008667FM-12+0009ENJA V0200101N00671220001CN0400001N9-00861-01331097921ADDAG12001AY181031AY221031GF105991041031008001001011MD1210161+9999MW1151
0114010010999991992010200004+70933-008667FM-12+0009ENJA V0203501N00871012001CN0200001N9-00891-01241098011ADDAA106000191AG19001AY181061AY221061GF107991061081008001071999MD1110091+9999MW1851OA149901181REMSYN011333   91123
0072010010999991992010203004+70933-008667FM-12+0009ENJA V0200101N00621009001CN0100001N9-00911-01201098011ADDAG12001AY181031AY221031GF107991061081004501999999MD1410001+9999MW1851
0133010010999991992010206004+70933-008667FM-12+0009ENJA V0203601N01031009001CN0080001N9-00981-01301097981ADDAA199000391AG19001AY181061AY231061GF108991071081004501999999KA1120N-00981MD1810031+9999MW1851OA149901901REMSYN017333   21098 91137
0088010010999991992010209004+70933-008667FM-12+0009ENJA V0203501N01441000601CN0010001N9-00991-01291097901ADDAG12002AY181031AY231031GA1091+999999999GF109991091999999999999999MD1710071+9999MW1861
0134010010999991992010212004+70933-008667FM-12+0009ENJA V0203501N01131004201CN0050001N9-01051-01341097881ADDAA106000191AG19001AY181061AY231061GF107991071091004501999999MD1710031+9999MW1261OA149902731SA1-0039REMSYN023222// 01003 333   91153
0072010010999991992010215004+70933-008667FM-12+0009ENJA V0203501N01591004201CN0020001N9-01151-01301097751ADDAG12001AY181031AY231031GF106991061091004501999999MD1810131+9999MW1261
0133010010999991992010218004+70933-008667FM-12+0009ENJA V0203401N01231004201CN0020001N9-01181-01421097631ADDAA199000591AG19001AY181061AY231061GF106991061091004501999999KA1120M-00971MD1710121+9999MW1851OA149902731REMSYN017333   11097 91153
0088010010999991992010221004+70933-008667FM-12+0009ENJA V0203401N01231000601CN0010001N9-01211-01431097581ADDAG12002AY181031AY231031GA1091+999999999GF109991091999999999999999MD1710051+9999MW1861
0099010010999991992010300004+70933-008667FM-12+0009ENJA V0203601N01181000301CN0005001N9-01121-01451097471ADDAA106000591AG19002AY181061AY231061GA1091+999999999GF109991091999999999999999MD1710111+9999MW1861
0088010010999991992010303004+70933-008667FM-12+0009ENJA V0203601N00821000601CN0008001N9-00981-01181097401ADDAG12002AY181031AY231031GA1091+999999999GF109991091999999999999999MD1710071+9999MW1861
0133010010999991992010306004+70933-008667FM-12+0009ENJA V0203501N00821009001CN0030001N9-00981-01131097401ADDAA199001091AG10002AY181061AY231061GF108991081081004501999999KA1120N-01241MD1410001+9999MW1861OA149902571REMSYN017333   21124 91150
0072010010999991992010309004+70933-008667FM-12+0009ENJA V0203601N00621004201CN0020001N9-00941-01071097421ADDAG12002AY181031AY231031GF108991081091004501999999MD1310021+9999MW1861
0134010010999991992010312004+70933-008667FM-12+0009ENJA V0203601N01081004201CN0010001N9-00911-01011097421ADDAA106001091AG10002AY181061AY231061GF108991081091004501999999MD1410001+9999MW1861OA149902111SA1-0039REMSYN023222// 01003 333   91141
0072010010999991992010315004+70933-008667FM-12+0009ENJA V0200101N00871004201CN0015001N9-00881-01011097431ADDAG12002AY181031AY231031GF108991081051004501999999MD1210011+9999MW1731
0197010010999991992010318004+70933-008667FM-12+0009ENJA V0203401N01441000301CN0005001N9-00911-00941097271ADDAA199003091AG10002AY181061AY231061GA1091+999999999GF109991091999999999999999KA1120M-00851KA2120N-00981MD1810161+9999MW1731OA149902371OA259901441REMSYN041333   11085 91146 555   04028 21098 457//
0088010010999991992010321004+70933-008667FM-12+0009ENJA V0203501N01591000301CN0002001N9-00581-00601097221ADDAG12002AY171031AY231031GA1091+999999999GF109991091999999999999999MD1710051+9999MW1731
0114010010999991992010400004+70933-008667FM-12+0009ENJA V0200301N01181220001CN0250001N9-00401-00811097501ADDAA106003091AG19001AY171061AY231061GF104991041081004501001001MD1310281+9999MW1011OA149902991REMSYN011333   91158
0088010010999991992010403004+70933-008667FM-12+0009ENJA V0200201N01081000301CN0002001N9-00321-00321097731ADDAG12002AY181031AY231031GA1091+999999999GF109991091999999999999999MD1210231+9999MW1861
0149010010999991992010404004+70933-008667FM-12+0009ENJA V0200101N01591000301CN0004001N9-00451-00461098222ADDAA199005091AG10999AY181011AY231011GA1091+999999999GF109991091999999999999999KA1120N-00941MD1210491+9999MW1861OA149902831REMSYN017333   21094 91155
0149010010999991992010406004+70933-008667FM-12+0009ENJA V0200101N01591000301CN0004001N9-00451-00461098221ADDAA199005091AG10002AY181061AY231061GA1091+999999999GF109991091999999999999999KA1120N-00941MD1210491+9999MW1861OA149902831REMSYN017333   21094 91155
0072010010999991992010409004+70933-008667FM-12+0009ENJA V0200101N01801004201CN0030001N9-00681-00791098711ADDAG12002AY181031AY231031GF108991081091004501999999MD1210491+9999MW1861
0111010010999991992010412004+70933-008667FM-12+0009ENJA V0203401N01491009001CN0020001N9-00821-00961099001ADDAA106001091AG19002AY181061AY231061GF107991071081004501999999MD1210291+9999MW1861SA1-0079REMSYN011222// 01007
0072010010999991992010415004+70933-008667FM-12+0009ENJA V0203501N01591009001CN0020001N9-00941-01161099271ADDAG12002AY181031AY231031GF106991061081004501001001MD1210271+9999MW1861
0133010010999991992010418004+70933-008667FM-12+0009ENJA V0203501N01441009001CN0015001N9-01031-01251099591ADDAA199002091AG19002AY181061AY231061GF105991051081004501001001KA1120M-00431MD1210321+9999MW1861OA149903041REMSYN017333   11043 91159
0072010010999991992010421004+70933-008667FM-12+0009ENJA V0203501N01341009001CN0040001N9-01061-01411099821ADDAG12001AY181031AY231031GF105991051081004501001001MD1210281+9999MW1361
0114010010999991992010500004+70933-008667FM-12+0009ENJA V0203501N01181004201CN0080001N9-01121-01561100221ADDAA106000391AG19001AY181061AY231061GF107991071091004501999999MD1210351+9999MW1361OA149902731REMSYN011333   91153
0072010010999991992010503004+70933-008667FM-12+0009ENJA V0203501N00981004201CN0150001N9-01111-01631100461ADDAG12001AY181031AY231031GF106991061091004501001001MD1210241+9999MW1151
0133010010999991992010506004+70933-008667FM-12+0009ENJA V0203401N00871004201CN0090001N9-01101-01541100661ADDAA199000391AG19001AY181061AY231061GF107991071091004501999999KA1120N-01131MD1210201+9999MW1851OA149902371REMSYN017333   21113 91146
0072010010999991992010509004+70933-008667FM-12+0009ENJA V0203501N00721009001CN0200001N9-01091-01551100861ADDAG12001AY181031AY231031GF108991081081004501999999MD1210201+9999MW1851
0134010010999991992010512004+70933-008667FM-12+0009ENJA V0203401N00721009001CN0250001N9-01111-01651101081ADDAA106000191AG19001AY181061AY231061GF105991051081004501001011MD1210221+9999MW1011OA149901851SA1-0079REMSYN023222// 01007 333   91136
0072010010999991992010515004+70933-008667FM-12+0009ENJA V0203301N00771009001CN0080001N9-01141-01381101161ADDAG12001AY181031AY231031GF105991051081004501001011MD1110101+9999MW1261
0133010010999991992010518004+70933-008667FM-12+0009ENJA V0203401N01031004201CN0015001N9-01101-01281101231ADDAA199000391AG10002AY181061AY231061GF108991081091004501999999KA1120M-01071MD1210071+9999MW1861OA149901961REMSYN017333   11107 91138
0072010010999991992010521004+70933-008667FM-12+0009ENJA V0203401N00981004201CN0030001N9-01011-01211101291ADDAG12001AY181031AY231031GF107991071091004501999999MD1210061+9999MW1851
0130010010999991992010600004+70933-008667FM-12+0009ENJA V0203501N00931001201CN0020001N9-00971-01141101241ADDAA106000191AG10001AY181061AY231061GA1091+999999999GF109991091999999999999999MD1710051+9999MW1851OA149902011REMSYN011333   91139
0088010010999991992010603004+70933-008667FM-12+0009ENJA V0203501N00931000301CN0005001N9-00931-01081101221ADDAG12002AY181031AY281031GA1091+999999999GF109991091999999999999999MD1710021+9999MW1861
0133010010999991992010606004+70933-008667FM-12+0009ENJA V0203501N01131004201CN0050001N9-00951-01131101051ADDAA199000391AG10001AY181061AY231061GF107991061031004501001011KA1120N-01111MD1710171+9999MW1851OA149901491REMSYN017333   21111 91129
0072010010999991992010615004+70933-008667FM-12+0009ENJA V0200301N01081220001CN0150001N9-00911-01071100761ADDAG12001AY181031AY231031GF105991041081004501001081MD1710171+9999MW1851
0133010010999991992010618004+70933-008667FM-12+0009ENJA V0200201N01131220001CN0250001N9-00891-01081100611ADDAA199999929AG10001AY181061AY231061GF104991041081004501001001KA1120M-00871MD1710151+9999MW1361OA149902111REMSYN017333   11087 91141
0072010010999991992010621004+70933-008667FM-12+0009ENJA V0203601N01541220001CN0500001N9-00881-01111100411ADDAG12000AY131031AY211031GF103991021081004501001011MD1710201+9999MW1381
0114010010999991992010700004+70933-008667FM-12+0009ENJA V0203601N01341220001CN0300001N9-00861-01131100401ADDAA106999929AG10001AY181061AY231061GF102991021081004501001001MD1710011+9999MW1851OA149902321REMSYN011333   91145
0072010010999991992010703004+70933-008667FM-12+0009ENJA V0203601N01131009001CN0050001N9-00821-00931100351ADDAG12001AY181031AY231031GF105991051081004501999999MD1710051+9999MW1851
0133010010999991992010706004+70933-008667FM-12+0009ENJA V0200101N01031009001CN0100001N9-00711-00871100281ADDAA199000191AG19001AY181061AY231061GF106991061081004501999999KA1120N-00901MD1710071+9999MW1851OA149902111REMSYN017333   21090 91141
0088010010999991992010709004+70933-008667FM-12+0009ENJA V0203601N01031000601CN0010001N9-00511-00581100231ADDAG12002AY181031AY231031GA1091+999999999GF109991091999999999999999MD1710051+9999MW1861
0134010010999991992010712004+70933-008667FM-12+0009ENJA V0200201N00931220001CN0300001N9-00481-00801100311ADDAA106000191AG19001AY181061AY231061GF103991031081004501001001MD1310081+9999MW1361OA149901801SA1-0149REMSYN023222// 01014 333   91135
0072010010999991992010715004+70933-008667FM-12+0009ENJA V0203501N00931009001CN0400001N9-00521-00661100351ADDAG12000AY131031AY211031GF107991071081004501071999MD1210041+9999MW1031
0133010010999991992010718004+70933-008667FM-12+0009ENJA V0200101N00671009001CN0040001N9-00391-00521100411ADDAA199000191AG19001AY181061AY231061GF106991061081004501999999KA1120M-00391MD1210061+9999MW1851OA149901491REMSYN017333   11039 91129
0072010010999991992010721004+70933-008667FM-12+0009ENJA V0203601N00721220001CN0300001N9-00471-00911100481ADDAG12001AY181031AY231031GF102991021081004501001001MD1210071+9999MW1011
0083010010999991992010800004+70933-008667FM-12+0009ENJA V0200201N00721220001CN0300001N9-00471-00951100591ADDAA106999929AG10001AY181061AY231061GF101991011081004501001001MD1210111+9999MW1011
0050010010999991992010803004+70933-008667FM-12+0009ENJA V0203601N00461220001CN0300001N9-00511-00941100641ADDAG12000GF101991011081004501001001MD1210051+9999
0133010010999991992010806004+70933-008667FM-12+0009ENJA V0203401N00361220001CN0300001N9-00521-00781100641ADDAA199999929AG10001AY181061AY201061GF102991021081004501001001KA1120N-00531MD1410001+9999MW1021OA149901031REMSYN017333   21053 91120
0072010010999991992010809004+70933-008667FM-12+0009ENJA V0203501N00511220001CN0100001N9-00471-00651100691ADDAG12001AY181031AY211031GF104991041081004501001001MD1210051+9999MW1851
0134010010999991992010812004+70933-008667FM-12+0009ENJA V0200201N00311002101CN0030001N9-00511-00521100721ADDAA106001091AG10002AY181061AY221061GF107991061091002501061999MD1210031+9999MW1861OA149900821SA1-0089REMSYN023222// 01008 333   91116
0072010010999991992010815004+70933-008667FM-12+0009ENJA V0203501N00511009001CN0080001N9-00611-00761100751ADDAG12001AY181031AY221031GF105991051081004501001001MD1210031+9999MW1261
0133010010999991992010818004+70933-008667FM-12+0009ENJA V0203201N00671009001CN0150001N9-00641-00761100711ADDAA199002091AG19001AY181061AY221061GF107991071081004501999999KA1120M-00411MD1810041+9999MW1851OA149900881REMSYN017333   11041 91117
0072010010999991992010821004+70933-008667FM-12+0009ENJA V0202801N00571009001CN0150001N9-00681-00861100621ADDAG12001AY181031AY221031GF107991071081004501999999MD1710091+9999MW1851
0114010010999991992010900004+70933-008667FM-12+0009ENJA V0202701N00721009001CN0200001N9-00791-01171100491ADDAA106000191AG19001AY181061AY221061GF107991061081004501999999MD1710131+9999MW1021OA149901241REMSYN011333   91124
0072010010999991992010903004+70933-008667FM-12+0009ENJA V0202401N00261009001CN0150001N9-00671-00901100281ADDAG12001AY181031AY221031GF107991071081004501999999MD1710211+9999MW1151
0133010010999991992010906004+70933-008667FM-12+0009ENJA V0201901N01081002101CN0035001N9-00291-00291099851ADDAA199001091AG10001AY181061AY271061GF108991081071002501999999KA1120N-00821MD1710431+9999MW1711OA149901441REMSYN017333   21082 91128
0088010010999991992010909004+70933-008667FM-12+0009ENJA V0202201N01131000301CN0002001N9-00151-00151099621ADDAG12002AY171031AY231031GA1091+999999999GF109991091999999999999999MD1710231+9999MW1731
0127010010999991992010912004+70933-008667FM-12+0009ENJA V0202101N01341000301CN0002001N9-00171-00171099581ADDAA106008091AG10002AY171061AY231061GA1091+999999999GF109991091999999999999999MD1710041+9999MW1731SA1-0069REMSYN011222// 01006
0128010010999991992010915004+70933-008667FM-12+0009ENJA V0202101N01341000301CN0002001N9-00171-00171999999ADDAA106008091AG10002AY171031AY231031GA1091+999999999GF109991091999999999999999MD1710041+9999MW1731WA1199909REMSYN011222// 610/6
0133010010999991992010918004+70933-008667FM-12+0009ENJA V0201801N01231004201CN0200001N9-00061-00331099101ADDAA199008091AG19001AY171061AY231061GF108991081051004501999999KA1120M-00031MD1710311+9999MW1021OA149901961REMSYN017333   11003 91138
0072010010999991992010921004+70933-008667FM-12+0009ENJA V0201701N01231002101CN0120001N9+00001+00001098531ADDAG12001AY171031AY221031GF108991081061002501999999MD1710571+9999MW1701
0114010010999991992011000004+70933-008667FM-12+0009ENJA V0201701N00981004201CN0025001N9+00001+00001097651ADDAA106001091AG19001AY171061AY221061GF108991081071004501999999MD1710881+9999MW1711OA149901751REMSYN011333   91134
0072010010999991992011003004+70933-008667FM-12+0009ENJA V0201801N00821004201CN0030001N9+00011+00011096691ADDAG12001AY171031AY271031GF108991081071004501999999MD1710961+9999MW1711
0133010010999991992011006004+70933-008667FM-12+0009ENJA V0202401N01031009001CN0015001N9-00411-00451096301ADDAA199005091AG19002AY181061AY271061GF108991081081004501999999KA1120N-00411MD1610391+9999MW1861OA149901701REMSYN017333   21041 91133
0088010010999991992011009004+70933-008667FM-12+0009ENJA V0202801N02211000151CN0000001N9-01111-01121096241ADDAG12002AY181031AY231031GA1091+999999999GF109991091999999999999999MD1510071+9999MW1861
0150010010999991992011012004+70933-008667FM-12+0009ENJA V0202801N02211000151CN0000001N9-01151-01181096491ADDAA106028091AG10002AY181061AY231061GA1091+999999999GF109991091999999999999999MD1210251+9999MW1861OA149903091SA1-0099REMSYN023222// 01009 333   91160
0088010010999991992011015004+70933-008667FM-12+0009ENJA V0202701N02361000151CN0001001N9-01051-01211096861ADDAG12001AY181031AY231031GA1091+999999999GF109991091999999999999999MD1210371+9999MW1391
0127010010999991992011018004+70933-008667FM-12+0009ENJA V0202801N021119999999N0002001N9-00951-01151097101ADDAA199037091AG10000GA1091+999999999GF109991081061999999081031KA1120M-00411MD1210241+9999OA149903601REMSYN017333   11041 91170
0088010010999991992011021004+70933-008667FM-12+0009ENJA V0202801N02061000301CN0002001N9-00821-01051097261ADDAG12001AY181031AY231031GA1091+999999999GF109991091999999999999999MD1210161+9999MW1851
0130010010999991992011100004+70933-008667FM-12+0009ENJA V0202801N02111000301CN0002001N9-00741-00971097241ADDAA106003091AG19001AY181061AY231061GA1091+999999999GF109991091999999999999999MD1810021+9999MW1851OA149903711REMSYN011333   91172
0072010010999991992011103004+70933-008667FM-12+0009ENJA V0203501N00931009001CN0150001N9-00331-00351097441ADDAG12001AY181031AY231031GF108991081081004501999999MD1310201+9999MW1241
0133010010999991992011106004+70933-008667FM-12+0009ENJA V0203601N01131004201CN0040001N9-00101-00141098321ADDAA199005091AG10001AY181061AY231061GF108991081091004501999999KA1120N-00981MD1210881+9999MW1851OA149903351REMSYN017333   21098 91165
0072010010999991992011109004+70933-008667FM-12+0009ENJA V0203601N01131004201CN0030001N9+99999+99999099491ADDAG12001AY181031AY231031GF108991081091004501999999MD1211171+9999MW1851
0134010010999991992011112004+70933-008667FM-12+0009ENJA V0203501N01541004201CN0015001N9-00261-00271100331ADDAA106000391AG19001AY181061AY231061GF107991071091004501999999MD1210841+9999MW1851OA149902681SA1-0029REMSYN023222// 01002 333   91152
0072010010999991992011115004+70933-008667FM-12+0009ENJA V0203601N01031009001CN0100001N9-00271-00321101151ADDAG12001AY181031AY231031GF107991051081004501071999MD1210821+9999MW1261
0133010010999991992011118004+70933-008667FM-12+0009ENJA V0203401N00931009001CN0200001N9-00311-00381101711ADDAA199000391AG10001AY181061AY231061GF107991071081004501999999KA1120M-00081MD1210561+9999MW1151OA149902681REMSYN017333   11008 91152
0072010010999991992011121004+70933-008667FM-12+0009ENJA V0203401N00511009001CN0300001N9-00381-00521102081ADDAG12000AY121031AY221031GF107991071081004501999999MD1210371+9999MW1151
0133010010999991992011200004+70933-008667FM-12+0009ENJA V0203601N00151009001CN0300001N9-00491-00531102301ADDAA106999929AG10000AY121061AY221061GF107991071081004501999999MD1210221+9999MW1151OA149901341REMSYN011333   91126EQDQ01+000552APC3  
0050010010999991992011203004+70933-008667FM-12+0009ENJA V0202801N00311009001CN0250001N9-00571-00611102361ADDAG12000GF107991071081004501999999MD1110061+9999
0111010010999991992011206004+70933-008667FM-12+0009ENJA V0202801N00261009001CN0250001N9-00601-00671102291ADDAA199999929AG10000GF105991051081004501999999KA1120N-00621MD1810071+9999OA149901181REMSYN017333   21062 91123
0072010010999991992011209004+70933-008667FM-12+0009ENJA V0209991C00001004201CN0400001N9-00451-00521102101ADDAG12000AY121031AY221031GF108991061051004501021999MD1710191+9999MW1151
0134010010999991992011212004+70933-008667FM-12+0009ENJA V0201701N00821004201CN0150001N9-00151-00281101801ADDAA106000091AG14000AY121061AY221061GF108991071051004501021999MD1710301+9999MW1151OA149901031SA1-0019REMSYN023222// 01001 333   91120
0088010010999991992011215004+70933-008667FM-12+0009ENJA V0201701N01031002401CN0030001N9-00101-00101101241ADDAG12001AY171031AY221031GA1091+999999999GF109991091999999999999999MD1710561+9999MW1711
0133010010999991992011218004+70933-008667FM-12+0009ENJA V0201601N00621002101CN0040001N9-00011-00011100731ADDAA199001091AG19001AY171061AY221061GF108991081071002501999999KA1120M-00011MD1710511+9999MW1701OA149901441REMSYN017333   11001 91128
0088010010999991992011221004+70933-008667FM-12+0009ENJA V0209991C00001000601CN0008001N9+00001+00001100261ADDAG12003AY171031AY251031GA1091+999999999GF109991091999999999999999MD1710461+9999MW1551
0083010010999991992011300004+70933-008667FM-12+0009ENJA V0200801N00211004201CN0200001N9+00031+00031099981ADDAA106004091AG19004AY171061AY261061GF108991081051004501999999MD1710281+9999MW1631
0072010010999991992011303004+70933-008667FM-12+0009ENJA V0202601N01081220001CN0200001N9+00171-00161099801ADDAG12001AY161031AY221031GF103991031051004501001001MD1710181+9999MW1011
0111010010999991992011306004+70933-008667FM-12+0009ENJA V0201001N00411004201CN0200001N9+00021+00001099671ADDAA199004091AG10000GF108991081051004501999999KA1120N-00021MD1710131+9999OA149901801REMSYN017333   21002 91135
0050010010999991992011309004+70933-008667FM-12+0009ENJA V0202501N00101007501CN0200001N9-00061-00071099481ADDAG12000GF108991071051008001999999MD1710191+9999
0134010010999991992011312004+70933-008667FM-12+0009ENJA V0201401N00261002101CN0030001N9-00021-00021099071ADDAA106002091AG19000AY151061AY271061GF108991071061002501999999MD1710411+9999MW1521OA149900981SA1+0009REMSYN023222// 00000 333   91119
0072010010999991992011315004+70933-008667FM-12+0009ENJA V0202701N01441002101CN0060001N9+00191+00191098591ADDAG12004AY161031AY251031GF108991051061002501051999MD1710481+9999MW1691
0133010010999991992011318004+70933-008667FM-12+0009ENJA V0203601N00411002101CN0050001N9-00101-00101098741ADDAA199006091AG10001AY171061AY251061GF107991071071002501999999KA1120M+00271MD1310151+9999MW1501OA149903091REMSYN017333   10027 91160
0072010010999991992011321004+70933-008667FM-12+0009ENJA V0202701N00151002101CN0050001N9-00241-00241099191ADDAG12001AY171031AY251031GF108991081071002501999999MD1210451+9999MW1701
0114010010999991992011400004+70933-008667FM-12+0009ENJA V0202701N00261002101CN0120001N9-00251-00251099261ADDAA106001091AG19001AY171061AY251061GF108991081061002501999999MD1110071+9999MW1221OA149901651REMSYN011333   91132
0072010010999991992011403004+70933-008667FM-12+0009ENJA V0202401N00101001201CN0045001N9-00271-00271099151ADDAG12000AY121031AY221031GF108991081061001501999999MD1810111+9999MW1101
0133010010999991992011406004+70933-008667FM-12+0009ENJA V0203501N00511001201CN0030001N9-00471-00471099261ADDAA199001091AG10001AY171061AY221061GF108991081061001501999999KA1120N-00471MD1310111+9999MW1771OA149901391REMSYN017333   21047 91127
0072010010999991992011409004+70933-008667FM-12+0009ENJA V0203501N01231009001CN0150001N9-00851-00861099841ADDAG12001AY181031AY221031GF108991081081004501999999MD1210581+9999MW1851
0111010010999991992011412004+70933-008667FM-12+0009ENJA V0203501N01441004201CN0150001N9-01051-01241100371ADDAA106001091AG10001AY181061AY231061GF106991061071004501001001MD1210531+9999MW1381SA1-0019REMSYN011222// 01001
0072010010999991992011415004+70933-008667FM-12+0009ENJA V0203501N01181004201CN0150001N9-00111-01311100891ADDAG12000AY131031AY221031GF107991071051004501999999MD1210621+9999MW1381
0133010010999991992011418004+70933-008667FM-12+0009ENJA V0203501N01231009001CN0150001N9-01171-01301101001ADDAA199001091AG19001AY181061AY231061GF106991061081004501999999KA1120M-00471MD1110111+9999MW1361OA149902321REMSYN017333   11047 91145
0072010010999991992011421004+70933-008667FM-12+0009ENJA V0203401N01231004201CN0200001N9-01171-01311100881ADDAG12000AY131031AY221031GF107991071051004501999999MD1810121+9999MW1021
0114010010999991992011500004+70933-008667FM-12+0009ENJA V0200101N00571004201CN0200001N9-01111-01201100781ADDAA106999929AG19001AY171061AY231061GF107991051051004501071999MD1810101+9999MW1221OA149901901REMSYN011333   91137
0072010010999991992011503004+70933-008667FM-12+0009ENJA V0203601N00511000601CN0030001N9-00901-00911100611ADDAG12002AY171031AY221031GF108991081071000751999999MD1710171+9999MW1731
0133010010999991992011506004+70933-008667FM-12+0009ENJA V0203601N00981000601CN0030001N9-00831-00841100771ADDAA199001091AG19001AY171061AY221061GF108991061071000751021999KA1120N-01211MD1310161+9999MW1711OA149901541REMSYN017333   21121 91130
0072010010999991992011509004+70933-008667FM-12+0009ENJA V0203501N00671009001CN0150001N9-00791-01081101201ADDAG12001AY181031AY271031GF107991071081004501999999MD1210431+9999MW1261
0134010010999991992011512004+70933-008667FM-12+0009ENJA V0203601N00721009001CN0200001N9-00921-01221101571ADDAA106000191AG10001AY181061AY271061GF107991071081004501999999MD1210371+9999MW1151OA149901541SA1-0069REMSYN023222// 01006 333   91130
0072010010999991992011515004+70933-008667FM-12+0009ENJA V0203601N00571009001CN0200001N9-01051-01321101701ADDAG12001AY181031AY221031GF106991061081004501001001MD1110131+9999MW1851
0122010010999991992011518004+70933-008667FM-12+0009ENJA V0200101N00461012001CN0300001N9-01111-01411101761ADDAG12001AY181061AY221061GF106991061081008001001001KA1120M-00781MD1210061+9999MW1261OA149901341REMSYN017333   11078 91126
0072010010999991992011521004+70933-008667FM-12+0009ENJA V0200101N00571024001CN0500001N9-01151-01451101671ADDAG12001AY181031AY221031GF107991041081008001071999MD1710091+9999MW1151
0114010010999991992011600004+70933-008667FM-12+0009ENJA V0203601N00571012001CN0500001N9-01191-01551101581ADDAA106999929AG19001AY181061AY221061GF107991051081008001061011MD1710091+9999MW1151OA149901031REMSYN011333   91120
0072010010999991992011603004+70933-008667FM-12+0009ENJA V0203501N00931004201CN0100001N9-01181-01401101631ADDAG12001AY181031AY231031GF108991081031004501999999MD1310051+9999MW1851
0133010010999991992011606004+70933-008667FM-12+0009ENJA V0203601N00871004201CN0200001N9-01231-01541101791ADDAA199999929AG19001AY181061AY231061GF107991071031004501999999KA1120N-01231MD1210161+9999MW1361OA149901601REMSYN017333   21123 91131
0072010010999991992011609004+70933-008667FM-12+0009ENJA V0203601N00671009001CN0080001N9-01231-01481101971ADDAG12001AY181031AY231031GF107991071081004501999999MD1210181+9999MW1261
0120010010999991992011612004+70933-008667FM-12+0009ENJA V0203601N00671012001CN0500001N9-01251-01551102091ADDAA199999929AG19001AY181061AY231061GF106991051081008001001011MD1210121+9999MW1261OA149902061REMSYN017222// 333   91140
0072010010999991992011615004+70933-008667FM-12+0009ENJA V0203501N00871012001CN0500001N9-01271-01501102191ADDAG12001AY181031AY231031GF106991061081008001001001MD1210101+9999MW1361
0133010010999991992011618004+70933-008667FM-12+0009ENJA V0203401N00721024001CN0500001N9-01281-01501102231ADDAA199999929AG19001AY181061AY231061GF105991041081004501061001KA1120M-01201MD1210041+9999MW1151OA149901751REMSYN017333   11120 91134
0050010010999991992011621004+70933-008667FM-12+0009ENJA V0203301N00771220001CN0600001N9-01221-01461102201ADDAG12000GF103991031081004501061001MD1710031+9999
0092010010999991992011700004+70933-008667FM-12+0009ENJA V0203201N00411220001CN0500001N9-01131-01461101991ADDAA106000091AG14000GF101991001001999999001011MD1710211+9999OA149901441REMSYN011333   91128
0050010010999991992011703004+70933-008667FM-12+0009ENJA V0202701N00211220001CN0300001N9-01211-01341102101ADDAG12000GF102991021081008001001001MD1210111+9999
0133010010999991992011706004+70933-008667FM-12+0009ENJA V0202701N00101009001CN0150001N9-00961-01001101921ADDAA199999929AG19001AY181061AY211061GF107991061081004501999999KA1120N-01371MD1810181+9999MW1851OA149900671REMSYN017333   21137 91113
0072010010999991992011709004+70933-008667FM-12+0009ENJA V0201101N00571004201CN0100001N9-00621-00631101601ADDAG12001AY181031AY271031GF108991081001004501021999MD1710321+9999MW1701
0134010010999991992011712004+70933-008667FM-12+0009ENJA V0201501N00981004201CN0150001N9-00281-00281101311ADDAA106999929AG19001AY181061AY271061GF108991071051004501021999MD1710291+9999MW1241OA149901241SA1-0109REMSYN023222// 01010 333   91124
0072010010999991992011715004+70933-008667FM-12+0009ENJA V0201701N00721004201CN0200001N9-00091-00091100991ADDAG12001AY171031AY221031GF108991071051004501021999MD1710321+9999MW1221
0133010010999991992011718004+70933-008667FM-12+0009ENJA V0201901N00511004201CN0040001N9-00091-00091100791ADDAA199001091AG19002AY171061AY221061GF108991071051004501999999KA1120M-00061MD1710201+9999MW1681OA149901291REMSYN017333   11006 91125
0072010010999991992011721004+70933-008667FM-12+0009ENJA V0201701N00511002101CN0030001N9-00061-00061100571ADDAG12001AY171031AY271031GF108991081051002501999999MD1710221+9999MW1711
0083010010999991992011800004+70933-008667FM-12+0009ENJA V0202101N00151002101CN0040001N9-00051-00051100371ADDAA106003091AG19001AY171061AY221061GF108991081051002501999999MD1710201+9999MW1711
0072010010999991992011803004+70933-008667FM-12+0009ENJA V0201501N00101000601CN0003001N9+00001+00001100191ADDAG12001AY171031AY251031GF108991081061000751999999MD1710181+9999MW1511
0133010010999991992011806004+70933-008667FM-12+0009ENJA V0202301N00101001201CN0030001N9-00041-00041100171ADDAA199004091AG10000AY151061AY241061GF107991071061001501999999KA1120N-00111MD1710021+9999MW1511OA149900571REMSYN017333   21011 91111
0072010010999991992011809004+70933-008667FM-12+0009ENJA V0209991V00151220001CN0090001N9-00071-00071100221ADDAG12000AY151031AY241031GF103991021061001501001041MD1310051+9999MW1281
0134010010999991992011812004+70933-008667FM-12+0009ENJA V0203101N01231001201CN0030001N9-00171-00171100441ADDAA106000191AG19000AY151061AY241061GF107991061061001501001081MD1210221+9999MW1151OA149902011SA1-0119REMSYN023222// 01011 333   91139
0050010010999991992011815004+70933-008667FM-12+0009ENJA V0203501N00261220001CN0080001N9-00251-00261100731ADDAG12000GF103991031061000751001001MD1210291+9999
0111010010999991992011818004+70933-008667FM-12+0009ENJA V0209991C00001004201CN0250001N9-00341-00351100861ADDAA199000191AG10000GF107991071051004501999999KA1120M-00021MD1210131+9999OA149901751REMSYN017333   11002 91134
0072010010999991992011821004+70933-008667FM-12+0009ENJA V0201801N00211004201CN0250001N9-00351-00351101101ADDAG12001AY171031AY221031GF108991081051004501999999MD1210241+9999MW1701
0114010010999991992011900004+70933-008667FM-12+0009ENJA V0202101N00151060001CN0300001N9-00421-00421101161ADDAA106000191AG19001AY171061AY221061GF108991041051004501001071MD1110061+9999MW1021OA149900261REMSYN011333   91105
0050010010999991992011903004+70933-008667FM-12+0009ENJA V0209991C00001060001CN0500001N9-00581-00581101171ADDAG12000GF108991011051008001001071MD1010011+9999
0133010010999991992011906004+70933-008667FM-12+0009ENJA V0202101N00571000601CN0040001N9-00171-00171100981ADDAA199000191AG13000AY121061AY221061GF108991081061000751999999KA1120N-00591MD1710191+9999MW1101OA149900671REMSYN017333   21059 91113
0088010010999991992011909004+70933-008667FM-12+0009ENJA V0202101N00511000301CN0002001N9-00071-00071100801ADDAG12002AY151031AY241031GA1091+999999999GF109991091999999999999999MD1710181+9999MW1551
0111010010999991992011912004+70933-008667FM-12+0009ENJA V0202101N00671001201CN0005001N9+00081+00081100491ADDAA106000191AG19002AY151061AY241061GF108991081061001501999999MD1710311+9999MW1551SA1-0119REMSYN011222// 01011
0072010010999991992011915004+70933-008667FM-12+0009ENJA V0202701N01801004201CN0300001N9+99999+99999100251ADDAG12004AY161031AY251031GF107991071071004501999999MD1710241+9999MW1631
0133010010999991992011918004+70933-008667FM-12+0009ENJA V0202601N01441024001CN0300001N9+00241-00191100341ADDAA199001091AG19001AY161061AY251061GF106991021051004501071001KA1120M+00341MD1310091+9999MW1021OA149903451REMSYN017333   10034 91167
0072010010999991992011921004+70933-008667FM-12+0009ENJA V0202301N01751220001CN0300001N9+00121-00111100191ADDAG12000AY131031AY211031GF102991011051004501071001MD1810151+9999MW1361
0114010010999991992012000004+70933-008667FM-12+0009ENJA V0202501N01851220001CN0150001N9+00121-00251100191ADDAA106000091AG14000AY131061AY211061GF100991001001999999001001MD1510001+9999MW1361OA149903241REMSYN011333   91163
0133010010999991992012006004+70933-008667FM-12+0009ENJA V0202501N01591220001CN0200001N9+00171-00381101011ADDAA106000091AG14000AY131061AY201061GF100991001001999999001001KA1120N+00091MD1210411+9999MW1381OA149903241REMSYN017333   20009 91163
0072010010999991992012009004+70933-008667FM-12+0009ENJA V0202701N02471220001CN0250001N9+00481+00021101071ADDAG12000AY131031AY201031GF102991011051004501001011MD1110061+9999MW1031
0153010010999991992012012004+70933-008667FM-12+0009ENJA V0209991C000019999999N0250001N9+00081+00031101171ADDAA106000091AG14000AY131061AY201061GF105991001001999999001061MD1010101+9999MW1031OA149903241SA1-0069REMSYN023222// 01006 333   91163EQDQ01+000942SCOLCB
0050010010999991992012015004+70933-008667FM-12+0009ENJA V0202401N00361220001CN0200001N9+00051+00041101091ADDAG12000GF104991011061004501001081MD1610081+9999
0111010010999991992012018004+70933-008667FM-12+0009ENJA V0209991V00311220001CN0200001N9+00311-00021101121ADDAA106000091AG14000GF102991011051008001001081KA1120M+00641MD1310031+9999OA149902681REMSYN017333   10064 91152
0050010010999991992012021004+70933-008667FM-12+0009ENJA V0202301N00151060001CN0150001N9+00061+00061101141ADDAG12000GF107991041001017501031081MD1110021+9999
0130010010999991992012100004+70933-008667FM-12+0009ENJA V0202001N00771001201CN0020001N9+00031+00031100881ADDAA106000591AG19000AY151061AY241061GA1091+999999999GF109991091999999999999999MD1810261+9999MW1511OA149900981REMSYN011333   91119
0072010010999991992012103004+70933-008667FM-12+0009ENJA V0201901N00931002101CN0070001N9+00111+00111100541ADDAG12000AY151031AY221031GF108991081071002501999999MD1710341+9999MW1101
0133010010999991992012106004+70933-008667FM-12+0009ENJA V0201901N00671002101CN0050001N9+00171+00171100261ADDAA199000591AG10000AY151061AY221061GF108991081071002501999999KA1120N-00011MD1610281+9999MW1101OA149901491REMSYN017333   21001 91129
0072010010999991992012109004+70933-008667FM-12+0009ENJA V0202101N00821001201CN0035001N9+00241+00241100061ADDAG11000AY121031AY221031GF108991081061001501999999MD1210201+9999MW1101
0134010010999991992012112004+70933-008667FM-12+0009ENJA V0202101N00931001201CN0025001N9+00171+00171099851ADDAA106999929AG10000AY151061AY221061GF108991081061001501999999MD1710211+9999MW1501OA149901391SA1+0019REMSYN023222// 00001 333   91127
0072010010999991992012115004+70933-008667FM-12+0009ENJA V0202001N00311001201CN0025001N9+00091+00091099731ADDAG12000AY151031AY221031GF108991081061001501999999MD1710121+9999MW1501
0131010010999991992012118004+70933-008667FM-12+0009ENJA V0202001N00621004201CN0070001N9+00041+00041099721ADDAA124003091AA299001091AG10001AY171061AY251061GF108991081061004501999999MD1510011+9999MW1701OA149901391REMSYN017333   70026 91127
0072010010999991992012121004+70933-008667FM-12+0009ENJA V0202401N01441024001CN0500001N9+00161-00141100011ADDAG12001AY171031AY221031GF105991031051008001041081MD1310291+9999MW1011
0050010010999991992012203004+70933-008667FM-12+0009ENJA V0202101N01031009001CN0150001N9+99999+99999099811ADDAG12000GF106991051081004501071001MD1810121+9999
0133010010999991992012206004+70933-008667FM-12+0009ENJA V0201801N00871002101CN0060001N9+00091+00091099361ADDAA199999929AG19000AY121061AY221061GF108991071061002501999999KA1120N+00041MD1710451+9999MW1151OA149901751REMSYN017333   20004 91134
0072010010999991992012209004+70933-008667FM-12+0009ENJA V0201901N00931002101CN0030001N9+00071+00071098341ADDAG12002AY171031AY221031GF108991081071002501999999MD1711021+9999MW1681
0134010010999991992012212004+70933-008667FM-12+0009ENJA V0202401N00981024001CN0090001N9+00211+00201097791ADDAA106002091AG19001AY171061AY261061GF107991041071002501061011MD1610551+9999MW1211OA149901541SA1+0049REMSYN023222// 00004 333   91130
0050010010999991992012215004+70933-008667FM-12+0009ENJA V0202601N01541220001CN0300001N9-00151-00521098271ADDAG12000GF102991011071004501041011MD1310481+9999
0111010010999991992012218004+70933-008667FM-12+0009ENJA V0202701N01291220001CN0250001N9-00241-00501098741ADDAA199002091AG10000GF103991021071004501071011KA1120M+00211MD1210471+9999OA149902831REMSYN017333   10021 91155
0050010010999991992012221004+70933-008667FM-12+0009ENJA V0202401N01341220001CN0300001N9-00061-00601099221ADDAG12000GF102991021051004501001001MD1210481+9999
0099010010999991992012300004+70933-008667FM-12+0009ENJA V0202501N01181000301CN0002001N9-00121-00121099401ADDAA106003091AG19002AY171061AY231061GA1091+999999999GF109991091999999999999999MD1210181+9999MW1721
0072010010999991992012303004+70933-008667FM-12+0009ENJA V0202401N01081220001CN0200001N9+00001-00251099551ADDAG12001AY171031AY231031GF103991031071004501001001MD1210151+9999MW1381
0133010010999991992012306004+70933-008667FM-12+0009ENJA V0202401N00721220001CN0250001N9-00051-00391099621ADDAA199003091AG10001AY171061AY231061GF103991031071004501001001KA1120N-00241MD1210071+9999MW1011OA149902161REMSYN017333   21024 91142
0072010010999991992012309004+70933-008667FM-12+0009ENJA V0202701N00101004201CN0150001N9-00141-00281099571ADDAG12001AY171031AY221031GF107991051071004501999999MD1810051+9999MW1031
0134010010999991992012312004+70933-008667FM-12+0009ENJA V0200801N00311024001CN0200001N9-00081-00171099251ADDAA106999929AG19001AY171061AY221061GF108991031071004501021999MD1710321+9999MW1031OA149901131SA1+0029REMSYN023222// 00002 333   91122
0072010010999991992012315004+70933-008667FM-12+0009ENJA V0200401N00361002101CN0080001N9-00201-00201099021ADDAG12001AY171031AY221031GF108991051071002501021999MD1710231+9999MW1221
0133010010999991992012318004+70933-008667FM-12+0009ENJA V0200901N01131002101CN0200001N9+00051-00081098531ADDAA199001091AG10001AY171061AY231061GF108991081071002501999999KA1120M+00061MD1710381+9999MW1701OA149901651REMSYN017333   10006 91132
0072010010999991992012321004+70933-008667FM-12+0009ENJA V0200501N00571002101CN0200001N9+00101-00041098281ADDAG12001AY171031AY231031GF107991071071002501999999MD1710361+9999MW1221
0114010010999991992012400004+70933-008667FM-12+0009ENJA V0201001N00411001201CN0045001N9+00141+00141097891ADDAA106001091AG19002AY171061AY261061GF108991081071001501999999MD1710391+9999MW1611OA149901901REMSYN011333   91137
0088010010999991992012403004+70933-008667FM-12+0009ENJA V0202001N00361000601CN0007001N9+00141+00141097571ADDAG12002AY161031AY241031GA1091+999999999GF109991091999999999999999MD1710321+9999MW1611
0149010010999991992012406004+70933-008667FM-12+0009ENJA V0203301N00261000301CN0005001N9+00111+00111097551ADDAA199007091AG10001AY161061AY251061GA1091+999999999GF109991091999999999999999KA1120N+00031MD1310021+9999MW1501OA149900931REMSYN017333   20003 91118
0072010010999991992012409004+70933-008667FM-12+0009ENJA V0203601N01131002101CN0030001N9-00231-00231097801ADDAG12001AY181031AY251031GF108991081061002501999999MD1210251+9999MW1831
0111010010999991992012412004+70933-008667FM-12+0009ENJA V0203601N011819999999N0005001N9-00351-00351098481ADDAA106000391AG19002AY181061AY221061GF108991999999000751999999MD1210681+9999MW1861SA1+0039REMSYN011222// 00003
0088010010999991992012415004+70933-008667FM-12+0009ENJA V0203201N00771000301CN0005001N9-00571-00591099651ADDAG12002AY181031AY231031GA1091+999999999GF109991091999999999999999MD1211171+9999MW1861
0133010010999991992012418004+70933-008667FM-12+0009ENJA V0202601N00411009001CN0120001N9-00641-00861100121ADDAA199004091AG19001AY181061AY231061GF107991071081004501999999KA1120M+00141MD1210471+9999MW1851OA149902571REMSYN017333   10014 91150
0072010010999991992012421004+70933-008667FM-12+0009ENJA V0202701N00621009001CN0200001N9-00641-00921100231ADDAG12001AY181031AY221031GF105991051081004501001001MD1010111+9999MW1151
0114010010999991992012500004+70933-008667FM-12+0009ENJA V0203101N00051012001CN0200001N9-00481-00771100191ADDAA106999929AG19001AY181061AY221061GF106991061081008001999999MD1710041+9999MW1851OA149901491REMSYN011333   91129
0072010010999991992012503004+70933-008667FM-12+0009ENJA V0202401N00411012001CN0200001N9-00321-00731100101ADDAG12001AY181031AY221031GF108991081081008001999999MD1710091+9999MW1151
0133010010999991992012506004+70933-008667FM-12+0009ENJA V0202101N00821009001CN0200001N9-00331-00681099971ADDAA199999929AG10001AY181061AY231061GF108991081081004501999999KA1120N-00681MD1710131+9999MW1851OA149901701REMSYN017333   21068 91133
0088010010999991992012509004+70933-008667FM-12+0009ENJA V0201701N01341000601CN0007001N9-00191-00191099561ADDAG12002AY181031AY231031GA1091+999999999GF109991091999999999999999MD1710411+9999MW1861
0134010010999991992012512004+70933-008667FM-12+0009ENJA V0202701N01391024001CN0060001N9-00501-00891099771ADDAA106001091AG10001AY181061AY231061GF105991041081004501071001MD1310211+9999MW1361OA149902421SA1+0029REMSYN023222// 00002 333   91147
0072010010999991992012515004+70933-008667FM-12+0009ENJA V0202901N01131220001CN0200001N9-00851-01391100281ADDAG12000AY131031AY221031GF104991041051004501001011MD1210511+9999MW1011
0133010010999991992012518004+70933-008667FM-12+0009ENJA V0202801N00821220001CN0250001N9-00811-01341100611ADDAA199001091AG19001AY181061AY231061GF103991021081004501001081KA1120M-00141MD1210331+9999MW1361OA149902571REMSYN017333   11014 91150
0072010010999991992012521004+70933-008667FM-12+0009ENJA V0202301N00261220001CN0500001N9-00721-01211100671ADDAG12000AY131031AY201031GF102991021051008001001001MD1110061+9999MW1021
0130010010999991992012600004+70933-008667FM-12+0009ENJA V0200601N00101002401CN0030001N9-00521-00531100441ADDAA106000191AG19001AY171061AY231061GA1091+999999999GF109991091999999999999999MD1810231+9999MW1701OA149901651REMSYN011333   91132
0088010010999991992012603004+70933-008667FM-12+0009ENJA V0202301N00511002401CN0030001N9-00221-00221100381ADDAG12001AY171031AY221031GA1091+999999999GF109991091999999999999999MD1610061+9999MW1701
0149010010999991992012606004+70933-008667FM-12+0009ENJA V0202501N00771002401CN0030001N9+00011+00001100351ADDAA199000591AG19001AY171061AY221061GA1091+999999999GF109991091999999999999999KA1120N-00811MD1710031+9999MW1701OA149901241REMSYN017333   21081 91124
0134010010999991992012612004+70933-008667FM-12+0009ENJA V0202601N01081001201CN0040001N9+00171+00161100391ADDAA106000591AG19001AY171061AY251061GF108991081061001501999999MD1810071+9999MW1511OA149902631SA1+0019REMSYN023222// 00001 333   91151
0072010010999991992012615004+70933-008667FM-12+0009ENJA V0202701N01641001201CN0080001N9+00271+00211100361ADDAG12001AY171031AY251031GF108991061071001501999999MD1710031+9999MW1221
0133010010999991992012618004+70933-008667FM-12+0009ENJA V0202501N01541220001CN0400001N9+00311+00271100181ADDAA199000591AG19000AY151061AY211061GF104991021071004501041011KA1120M+00371MD1710181+9999MW1011OA149902991REMSYN017333   10037 91158
0050010010999991992012621004+70933-008667FM-12+0009ENJA V0202501N01591220001CN0500001N9+00441+00401099961ADDAG12000GF103991011071004501041011MD1710221+9999
0092010010999991992012700004+70933-008667FM-12+0009ENJA V0202701N01641220001CN0300001N9+00501+00411099891ADDAA106000091AG14000GF102991011071004501041001MD1710071+9999OA149902931REMSYN011333   91157
0050010010999991992012703004+70933-008667FM-12+0009ENJA V0202701N01901220001CN0400001N9+00631+00521099711ADDAG12000GF101991011071004501001001MD1710181+9999
0111010010999991992012706004+70933-008667FM-12+0009ENJA V0202601N01231220001CN0300001N9+00711+00571099631ADDAA106000091AG14000GF104991031071004501041001KA1120N+00291MD1710081+9999OA149903091REMSYN017333   20029 91160
0050010010999991992012709004+70933-008667FM-12+0009ENJA V0202501N01541024001CN0400001N9+00681+00461099451ADDAG12000GF106991031071004501071011MD1710181+9999
0112010010999991992012712004+70933-008667FM-12+0009ENJA V0202601N01901220001CN0400001N9+00391+00121099391ADDAA106000091AG14000GF104991011071004501041011MD1710061+9999OA149903091SA1+0079REMSYN023222// 00007 333   91160
0050010010999991992012715004+70933-008667FM-12+0009ENJA V0202601N01591024001CN0400001N9+00391-00341099261ADDAG12000GF107991011051008001071999MD1710131+9999
0111010010999991992012718004+70933-008667FM-12+0009ENJA V0202501N01441024001CN0400001N9+00261-00331099041ADDAA106000091AG14000GF106991011051008001071999KA1120M+00771MD1710221+9999OA149903401REMSYN017333   10077 91166
0050010010999991992012721004+70933-008667FM-12+0009ENJA V0202601N01591220001CN0500001N9+00161-00231098921ADDAG12000GF102991011051008001071001MD1710121+9999
0061010010999991992012800004+70933-008667FM-12+0009ENJA V0202401N01491220001CN0500001N9+00101-00291098851ADDAA106000091AG14000GF101991011051008001001001MD1710071+9999
0050010010999991992012803004+70933-008667FM-12+0009ENJA V0202401N01491220001CN0500001N9-00041-00761098861ADDAG12000GF101991011051008001001001MD1310011+9999
0111010010999991992012806004+70933-008667FM-12+0009ENJA V0202301N01851220001CN0500001N9-00101-00841099001ADDAA106000091AG14000GF100991001001999999001001KA1120N-00141MD1210141+9999OA149903091REMSYN017333   21014 91160
0050010010999991992012809004+70933-008667FM-12+0009ENJA V0202501N01951220001CN0400001N9-00341-01061099121ADDAG12000GF103991021081008001041001MD1210121+9999
0134010010999991992012812004+70933-008667FM-12+0009ENJA V0202901N00821009001CN0080001N9-00941-01061100151ADDAA106000191AG19001AY181061AY211061GF107991071081004501999999MD1211031+9999MW1851OA149903351SA1+0049REMSYN023222// 00004 333   91165
0072010010999991992012815004+70933-008667FM-12+0009ENJA V0203601N00931009001CN0180001N9-01121-01331100961ADDAG12001AY181031AY221031GF106991051081004501001011MD1210811+9999MW1261
0133010010999991992012818004+70933-008667FM-12+0009ENJA V0203301N00931009001CN0200001N9-01071-01261101541ADDAA199000191AG19001AY181061AY221061GF105991051081004501001001KA1120M-00091MD1210581+9999MW1261OA149902471REMSYN017333   11009 91148
0072010010999991992012821004+70933-008667FM-12+0009ENJA V0203301N00411009001CN0200001N9-01021-01161102051ADDAG12001AY181031AY221031GF107991071081004501999999MD1210511+9999MW1851
0114010010999991992012900004+70933-008667FM-12+0009ENJA V0203601N00411220001CN0300001N9-00971-01081102141ADDAA106999929AG19001AY181061AY221061GF103991031081004501001001MD1110081+9999MW1011OA149901901REMSYN011333   91137
0050010010999991992012903004+70933-008667FM-12+0009ENJA V0201301N00621007501CN0300001N9-00741-00751102061ADDAG12000GF108991081051008001999999MD1810071+9999
0133010010999991992012906004+70933-008667FM-12+0009ENJA V0201301N01081002101CN0030001N9-00481-00481101611ADDAA199000191AG10001AY171061AY221061GF108991081071002501999999KA1120N-01081MD1710451+9999MW1711OA149901291REMSYN017333   21108 91125
0072010010999991992012909004+70933-008667FM-12+0009ENJA V0209991C00001002101CN0030001N9-00191-00191101031ADDAG12002AY171031AY221031GF108991081071002501999999MD1710581+9999MW1681
0111010010999991992012912004+70933-008667FM-12+0009ENJA V0202601N01591004201CN0100001N9+00501+00051100741ADDAA106003091AG19001AY171061AY221061GF106991061071004501001001MD1710291+9999MW1501SA1+0019REMSYN011222// 00001
0058010010999991992012915004+70933-008667FM-12+0009ENJA V0202401N00931024001CN0100001N9+00241+00051999999ADDAG12000AY151031AY221031GF105991031061002501071001MW1011
0133010010999991992012918004+70933-008667FM-12+0009ENJA V0202501N01031024001CN0200001N9+00261-00131100891ADDAA199003091AG19000AY151061AY221061GF105991041051004501071001KA1120M+00531MD1410001+9999MW1021OA149902991REMSYN017333   10053 91158
0050010010999991992012921004+70933-008667FM-12+0009ENJA V0202201N00571004201CN0150001N9+00141+00131100861ADDAG12000GF108991081051004501999999MD1810031+9999
0114010010999991992013000004+70933-008667FM-12+0009ENJA V0202601N01131004201CN0500001N9+00201-00061100781ADDAA106999929AG19000AY151061AY221061GF106991051051004501071999MD1710081+9999MW1011OA149901801REMSYN011333   91135
0050010010999991992013003004+70933-008667FM-12+0009ENJA V0202501N00671220001CN0600001N9+00311-00031100671ADDAG12000GF104991041051004501001001MD1610111+9999
0111010010999991992013006004+70933-008667FM-12+0009ENJA V0201901N00721007501CN0400001N9+00061+00061100731ADDAA199999929AG10000GF108991071051008001999999KA1120N+00061MD1310061+9999OA149901851REMSYN017333   20006 91136
0050010010999991992013009004+70933-008667FM-12+0009ENJA V0201901N00151002101CN0080001N9+00091+00091100751ADDAG12000GF108991081061002501999999MD1210021+9999
0134010010999991992013012004+70933-008667FM-12+0009ENJA V0209991C00001001201CN0030001N9+00061+00061100721ADDAA106999929AG10000AY151061AY221061GF108991071071001501999999MD1810031+9999MW1201OA149900881SA1+0039REMSYN023222// 00003 333   91117
0072010010999991992013015004+70933-008667FM-12+0009ENJA V0209991C00001000601CN0015001N9+00031+00031100521ADDAG12002AY171031AY261031GF108991081061000751999999MD1710201+9999MW1611
0133010010999991992013018004+70933-008667FM-12+0009ENJA V0202101N00261000601CN0020001N9+00031+00031100241ADDAA199003091AG19001AY171061AY261061GF108991081061000751999999KA1120M+00111MD1710281+9999MW1501OA149900721REMSYN017333   10011 91114
0072010010999991992013021004+70933-008667FM-12+0009ENJA V0202301N01591024001CN0300001N9+00331-00011100071ADDAG12001AY171031AY251031GF107991021071002501071999MD1710171+9999MW1021
0114010010999991992013100004+70933-008667FM-12+0009ENJA V0202401N01641220001CN0400001N9+00181-00251100161ADDAA106000391AG19001AY171061AY251061GF103991021071004501041011MD1310091+9999MW1011OA149902831REMSYN011333   91155
0050010010999991992013103004+70933-008667FM-12+0009ENJA V0202501N01701220001CN0600001N9-00161-00751100271ADDAG12000GF103991021071004501041011MD1210111+9999
0149010010999991992013106004+70933-008667FM-12+0009ENJA V0202801N01641001201CN0020001N9-00961-01141100681ADDAA199000391AG10001AY181061AY231061GA1091+999999999GF109991091999999999999999KA1120N-00961MD1310411+9999MW1851OA149903191REMSYN017333   21096 91162
0072010010999991992013109004+70933-008667FM-12+0009ENJA V0202701N00821024001CN0600001N9-01091-01231101201ADDAG12001AY181031AY231031GF106991041081004501061001MD1210511+9999MW1851
0134010010999991992013112004+70933-008667FM-12+0009ENJA V0202701N003119999999N0600001N9-00881-01001101291ADDAA106000191AG10001AY181061AY221061GF106991999999004501999999MD1110091+9999MW1851OA149902681SA1+0009REMSYN023222// 00000 333   91152
0072010010999991992013115004+70933-008667FM-12+0009ENJA V0209991V00051009001CN0600001N9-00691-00741101201ADDAG12001AY181031AY221031GF107991071081004501999999MD1810091+9999MW1021
0133010010999991992013118004+70933-008667FM-12+0009ENJA V0202201N00411009001CN0500001N9-00201-00271101171ADDAA199000191AG10001AY181061AY221061GF107991071081004501999999KA1120M-00171MD1710031+9999MW1021OA149901241REMSYN017333   11017 91124
0050010010999991992013121004+70933-008667FM-12+0009ENJA V0202501N00211024001CN0700001N9-00271-00331101061ADDAG12000GF106991031051004501071011MD1810111+9999
0092010010999991992020100004+70933-008667FM-12+0009ENJA V0209991C00001024001CN0400001N9-00291-00301100881ADDAA106000091AG14000GF107991041051004501071999MD1710181+9999OA149900411REMSYN011333   91108
0072010010999991992020103004+70933-008667FM-12+0009ENJA V0203201N00101004201CN0300001N9-00261-00271100671ADDAG11000AY121031AY221031GF108991051051004501071999MD1710211+9999MW1151
0133010010999991992020106004+70933-008667FM-12+0009ENJA V0203601N00871024001CN0300001N9-00421-00421100571ADDAA106000091AG14000AY121061AY221061GF106991041051004501071999KA1120N-00421MD1710101+9999MW1151OA149901241REMSYN017333   21042 91124
0050010010999991992020109004+70933-008667FM-12+0009ENJA V0200101N00261220001CN0750001N9-00341-00601100491ADDAG12000GF101991011001017501071011MD1710081+9999
0112010010999991992020112004+70933-008667FM-12+0009ENJA V0203601N00211024001CN0750001N9-00421-00441100461ADDAA106000091AG14000GF107991011051008001071081MD1710031+9999OA149901031SA1+0029REMSYN023222// 00002 333   91120
0050010010999991992020115004+70933-008667FM-12+0009ENJA V0200101N00511024001CN0700001N9-00481-00491100291ADDAG12000GF108991011071004501071081MD1510171+9999
0091010010999991992020121004+70933-008667FM-12+0009ENJA V0200901N01441024001CN0300001N9-00421-00541099391ADDAG12001AY171031AY221031GF107991031051008001071999MD1710602+9999MW1221EQDQ01+000602APC3  
0083010010999991992020200004+70933-008667FM-12+0009ENJA V0200101N00871007501CN0300001N9-00381-00541098891ADDAA106999929AG19001AY171061AY221061GF108991081051008001999999MD1710501+9999MW1701
0091010010999991992020203004+70933-008667FM-12+0009ENJA V0200101N00821007501CN0300001N9-00511-00731098651ADDAG12001AY171031AY221031GF108991081051008001999999MD1710241+9999MW1701EQDQ01+000512APC3  
0149010010999991992020206004+70933-008667FM-12+0009ENJA V0203601N01701000301CN0005001N9-00751-00761098601ADDAA199000191AG10001AY171061AY231061GA1091+999999999GF109991091999999999999999KA1120N-00771MD1710051+9999MW1701OA149902781REMSYN017333   21077 91154
0088010010999991992020209004+70933-008667FM-12+0009ENJA V0203601N01441000601CN0008001N9-00761-00801098711ADDAG12002AY171031AY231031GA1091+999999999GF109991091999999999999999MD1510111+9999MW1721
0150010010999991992020212004+70933-008667FM-12+0009ENJA V0200201N01851000301CN0005001N9-00791-00801098891ADDAA199000591AG10002AY181061AY231061GA1091+999999999GF109991091999999999999999MD1210181+9999MW1861OA149902931SA1-0099REMSYN023222// 01009 333   91157
0072010010999991992020215004+70933-008667FM-12+0009ENJA V0203601N01491024001CN0015001N9-00831-00951099051ADDAG12001AY181031AY231031GF107991041081004501041011MD1210121+9999MW1851
0133010010999991992020218004+70933-008667FM-12+0009ENJA V0203601N01541220001CN0250001N9-00841-01171099261ADDAA199000591AG10001AY181061AY231061GF103991031081004501001001KA1120M-00701MD1210211+9999MW1851OA149902831REMSYN017333   11070 91155
0072010010999991992020221004+70933-008667FM-12+0009ENJA V0203601N01181220001CN0300001N9-00871-01211099571ADDAG12001AY181031AY231031GF102991021081004501001001MD1210311+9999MW1851
0114010010999991992020300004+70933-008667FM-12+0009ENJA V0200101N00671009001CN0250001N9-00931-01251099771ADDAA106999929AG19001AY181061AY231061GF106991061081004501001001MD1210201+9999MW1851OA149902421REMSYN011333   91147
0072010010999991992020303004+70933-008667FM-12+0009ENJA V0200101N00721009001CN0250001N9-00971-01371099881ADDAG12001AY181031AY221031GF106991061081004501001001MD1210111+9999MW1261
0133010010999991992020306004+70933-008667FM-12+0009ENJA V0203501N00871009001CN0030001N9-01131-01221099981ADDAA199000391AG19001AY181061AY231061GF108991081081004501999999KA1120N-01141MD1210101+9999MW1851OA149901651REMSYN017333   21114 91132
0072010010999991992020309004+70933-008667FM-12+0009ENJA V0203501N01081009001CN0030001N9-01411-01471100121ADDAG12001AY181031AY231031GF107991071081004501999999MD1210141+9999MW1851
0111010010999991992020312004+70933-008667FM-12+0009ENJA V0203601N00871006001CN0020001N9-01661-01761100131ADDAA106000391AG19001AY181061AY231061GF107991071081002501999999MD1110011+9999MW1851SA1-0129REMSYN011222// 01012
0072010010999991992020315004+70933-008667FM-12+0009ENJA V0203501N01391000601CN0002001N9-01781-01871100101ADDAG12001AY181031AY231031GF108991081061000751999999MD1810031+9999MW1381
0149010010999991992020318004+70933-008667FM-12+0009ENJA V0203401N01231000301CN0002001N9-01801-01861100101ADDAA199001091AG10002AY181061AY231061GA1091+999999999GF109991091999999999999999KA1120M-01061MD1410001+9999MW1861OA149902731REMSYN017333   11106 91153
0072010010999991992020321004+70933-008667FM-12+0009ENJA V0203001N00821006001CN0020001N9-01811-01871100121ADDAG12001AY181031AY231031GF108991081081002501999999MD1310011+9999MW1361
0130010010999991992020400004+70933-008667FM-12+0009ENJA V0202901N01081000301CN0003001N9-01791-01891099941ADDAA106001091AG10001AY181061AY221061GA1091+999999999GF109991091999999999999999MD1810171+9999MW1851OA149902681REMSYN011333   91152
0088010010999991992020403004+70933-008667FM-12+0009ENJA V0202901N01491000301CN0003001N9-01561-01631099691ADDAG12001AY181031AY231031GA1091+999999999GF109991091999999999999999MD1710251+9999MW1851
0127010010999991992020406004+70933-008667FM-12+0009ENJA V0203401N01441000151CN0001001N9-01141-01141099641ADDAA199006091AG10000GA1091+999999999GF109991091999999999999999KA1120N-01911MD1510051+9999OA149903041REMSYN017333   21191 91159
0088010010999991992020409004+70933-008667FM-12+0009ENJA V0203301N01231000301CN0002001N9-00961-00961099841ADDAG12001AY181031AY231031GA1091+999999999GF109991091999999999999999MD1210201+9999MW1851
0134010010999991992020412004+70933-008667FM-12+0009ENJA V0203601N00671009001CN0050001N9-00821-00831100101ADDAA106003091AG19001AY181061AY231061GF108991061081004501071999MD1210261+9999MW1261OA149902631SA1-0159REMSYN023222// 01015 333   91151
0133010010999991992020418004+70933-008667FM-12+0009ENJA V0200901N01231024001CN0300001N9-00841-00981100471ADDAA199003091AG19001AY181061AY231061GF108991031071004501071999KA1120M-00771MD1210141+9999MW1361OA149902161REMSYN017333   11077 91142
0072010010999991992020421004+70933-008667FM-12+0009ENJA V0203501N00511024001CN0400001N9-00921-01191100701ADDAG12001AY171031AY231031GF108991021071004501071999MD1210231+9999MW1701
0159010010999991992020500004+70933-008667FM-12+0009ENJA V0200201N01291000151CN0001001N9-01111-01121100771ADDAA106000191AG10002AY181061AY271061GA1091+999999999GF109991091999999999999999MD1210071+9999MW1861OA149902161OA259901391REMSYN029333   91142 555   04127 4172/
0088010010999991992020503004+70933-008667FM-12+0009ENJA V0200101N01181000151CN0000001N9-01251-01261100861ADDAG12002AY181031AY281031GA1091+999999999GF109991091999999999999999MD1210091+9999MW1861
0149010010999991992020506004+70933-008667FM-12+0009ENJA V0200101N01291000151CN0000001N9-01311-01321100821ADDAA199001091AG19002AY181061AY231061GA1091+999999999GF109991091999999999999999KA1120N-01321MD1510041+9999MW1861OA149902111REMSYN017333   21132 91141
0088010010999991992020509004+70933-008667FM-12+0009ENJA V0200101N01081000301CN0002001N9-01291-01301100791ADDAG12002AY181031AY231031GA1091+999999999GF109991091999999999999999MD1810031+9999MW1861
0150010010999991992020512004+70933-008667FM-12+0009ENJA V0200101N00931000301CN0003001N9-01271-01281100711ADDAA106000391AG19002AY181061AY231061GA1091+999999999GF109991091999999999999999MD1710081+9999MW1861OA149901751SA1-0179REMSYN023222// 01017 333   91134
0072010010999991992020515004+70933-008667FM-12+0009ENJA V0200201N00721002101CN0050001N9-01161-01231100541ADDAG12001AY181031AY231031GF108991071061002501999999MD1710171+9999MW1361
0149010010999991992020518004+70933-008667FM-12+0009ENJA V0200201N00931000601CN0010001N9-01111-01141100251ADDAA199000391AG19002AY181061AY231061GA1091+999999999GF109991091999999999999999KA1120M-01111MD1710291+9999MW1861OA149901491REMSYN017333   11111 91129
0072010010999991992020521004+70933-008667FM-12+0009ENJA V0203601N00721009001CN0050001N9-01001-01031099901ADDAG12001AY181031AY231031GF108991081081004501999999MD1710351+9999MW1851
0130010010999991992020600004+70933-008667FM-12+0009ENJA V0200101N01131001201CN0015001N9-00931-00961099561ADDAA106000191AG19001AY181061AY231061GA1091+999999999GF109991091999999999999999MD1710341+9999MW1851OA149901801REMSYN011333   91135
0088010010999991992020603004+70933-008667FM-12+0009ENJA V0200101N01591000151CN0001001N9-01011-01011099301ADDAG12002AY181031AY231031GA1091+999999999GF109991091999999999999999MD1710261+9999MW1861
0149010010999991992020606004+70933-008667FM-12+0009ENJA V0203601N01901000301CN0002001N9-01061-01101099141ADDAA199000391AG19002AY181061AY231061GA1091+999999999GF109991091999999999999999KA1120N-01151MD1710161+9999MW1861OA149902781REMSYN017333   21115 91154
0072010010999991992020609004+70933-008667FM-12+0009ENJA V0203501N01951004201CN0010001N9-01251-01281099201ADDAG12002AY181031AY231031GF107991071091004501061999MD1310061+9999MW1861
0134010010999991992020612004+70933-008667FM-12+0009ENJA V0203401N01951009001CN0002001N9-01431-01471099231ADDAA106003091AG10001AY181061AY231061GF106991061081004501061011MD1210031+9999MW1391OA149903091SA1-0179REMSYN023222// 01017 333   91160
0088010010999991992020615004+70933-008667FM-12+0009ENJA V0203301N01801000151CN0000001N9-01551-01561099191ADDAG12001AY181031AY231031GA1091+999999999GF109991091999999999999999MD1710041+9999MW1391
0149010010999991992020618004+70933-008667FM-12+0009ENJA V0203301N02061000151CN0001001N9-01521-01531098861ADDAA199010091AG10001AY181061AY231061GA1091+999999999GF109991091999999999999999KA1120M-01041MD1710331+9999MW1391OA149902931REMSYN017333   11104 91157
0088010010999991992020621004+70933-008667FM-12+0009ENJA V0203301N01641000301CN0004001N9-01411-01421098361ADDAG12001AY181031AY231031GA1091+999999999GF109991091999999999999999MD1710501+9999MW1391
0123010010999991992020703004+70933-008667FM-12+0009ENJA V0203601N01081000301CN0004001N9-00441-00451096592ADDAG12002AY181031AY231031GA1091+999999999GF109991091999999999999999MD1711002+9999MW1861EQDQ01+096593APOSLPQ02+001002APC3  
0133010010999991992020706004+70933-008667FM-12+0009ENJA V0200801N01441220001CN0030001N9+00081-00091095651ADDAA199009091AG10001AY181061AY231061GF101991011081008001001001KA1120N-01521MD1710941+9999MW1381OA149902471REMSYN017333   21152 91148
0072010010999991992020709004+70933-008667FM-12+0009ENJA V0203401N00931009001CN0030001N9-00031-00201095411ADDAG12001AY181031AY231031GF108991081081004501999999MD1710241+9999MW1851
0150010010999991992020712004+70933-008667FM-12+0009ENJA V0200201N02671000151CN0000001N9-00621-00621096091ADDAA106003091AG19002AY181061AY231061GA1091+999999999GF109991091999999999999999MD1310681+9999MW1861OA149903711SA1-0179REMSYN023222// 01017 333   91172
0107010010999991992020715004+70933-008667FM-12+0009ENJA V0200201N02061000151CN0000001N9-00791-00791097522ADDAG12002AY181031AY231031GA1091+999999999GF109991091999999999999999MD1211431+9999MW1861EQDQ01+097523APOSLP
0149010010999991992020718004+70933-008667FM-12+0009ENJA V0200101N01591000301CN0003001N9-00871-00881098631ADDAA199008091AG19002AY181061AY231061GA1091+999999999GF109991091999999999999999KA1120M+00141MD1211111+9999MW1861OA149903711REMSYN017333   10014 91172
0088010010999991992020721004+70933-008667FM-12+0009ENJA V0200101N01181000301CN0004001N9-00921-00941099391ADDAG12002AY181031AY231031GA1091+999999999GF109991091999999999999999MD1210761+9999MW1861
0114010010999991992020800004+70933-008667FM-12+0009ENJA V0203501N01031009001CN0150001N9-00981-01211099911ADDAA106000591AG19001AY181061AY231061GF105991051081004501001001MD1210521+9999MW1261OA149902781REMSYN011333   91154
0050010010999991992020803004+70933-008667FM-12+0009ENJA V0203501N00671220001CN0300001N9-01031-01321100241ADDAG12000GF103991031051004501001001MD1210331+9999
0111010010999991992020806004+70933-008667FM-12+0009ENJA V0201001N00821220001CN0300001N9-00921-01151100361ADDAA199000591AG10000GF103991031051004501001001KA1120N-01061MD1210121+9999OA149901651REMSYN017333   21106 91132
0050010010999991992020809004+70933-008667FM-12+0009ENJA V0200901N00821220001CN0150001N9-00801-01001100321ADDAG12000GF103991031051004501001001MD1810041+9999
0111010010999991992020812004+70933-008667FM-12+0009ENJA V0201201N00871002101CN0020001N9-00551-00651100051ADDAA106999929AG19001AY171061AY231061GF108991081061002501999999MD1710271+9999MW1711SA1-0189REMSYN011222// 01018
0088010010999991992020815004+70933-008667FM-12+0009ENJA V0200901N01231000301CN0003001N9-00461-00461099461ADDAG12002AY171031AY231031GA1091+999999999GF109991091999999999999999MD1710591+9999MW1731
0149010010999991992020818004+70933-008667FM-12+0009ENJA V0200901N01291000301CN0002001N9-00181-00181098561ADDAA199002091AG10002AY171061AY231061GA1091+999999999GF109991091999999999999999KA1120M-00181MD1710901+9999MW1731OA149902421REMSYN017333   11018 91147
0114010010999991992020900004+70933-008667FM-12+0009ENJA V0201801N00311024001CN0100001N9+00151+00151097651ADDAA106017091AG19004AY171061AY261061GF108991031061002501021999MD1610191+9999MW1631OA149902421REMSYN011333   91147
0072010010999991992020903004+70933-008667FM-12+0009ENJA V0201901N00261024001CN0100001N9+00131+00131097491ADDAG12004AY161031AY221031GF108991031061002501021999MD1710161+9999MW1631
0133010010999991992020906004+70933-008667FM-12+0009ENJA V0200601N00361001201CN0010001N9+00041+00041097351ADDAA199029091AG10001AY161061AY251061GF108991081061001501999999KA1120N-00181MD1710141+9999MW1581OA149900881REMSYN017333   21018 91117
0072010010999991992020909004+70933-008667FM-12+0009ENJA V0209991C00001000601CN0035001N9+00011+00011097311ADDAG12002AY171031AY261031GF108991081061000751999999MD1610041+9999MW1681
0083010010999991992020912004+70933-008667FM-12+0009ENJA V0203501N00671001201CN0110001N9-00161-00161097381ADDAA106005091AG19001AY171061AY261061GF108991081061001501999999MD1310061+9999MW1021
0072010010999991992020915004+70933-008667FM-12+0009ENJA V0203601N01291002101CN0080001N9-00271-00271097461ADDAG12000AY151031AY221031GF108991081061002501999999MD1210081+9999MW1101
0149010010999991992020918004+70933-008667FM-12+0009ENJA V0200101N01391000301CN0003001N9-00351-00351097491ADDAA199005091AG10001AY181061AY221061GA1091+999999999GF109991091999999999999999KA1120M+00051MD1110031+9999MW1851OA149902211REMSYN017333   10005 91143
0072010010999991992020921004+70933-008667FM-12+0009ENJA V0200201N01391006001CN0040001N9-00331-00331097641ADDAG12001AY181031AY231031GF108991071081002501999999MD1310151+9999MW1381
0130010010999991992021000004+70933-008667FM-12+0009ENJA V0200101N01591000151CN0000001N9-00461-00461097871ADDAA106000391AG19002AY181061AY271061GA1091+999999999GF109991091999999999999999MD1210231+9999MW1721OA149902571REMSYN011333   91150
0088010010999991992021003004+70933-008667FM-12+0009ENJA V0200201N01641000151CN0000001N9-00491-00491098051ADDAG12003AY171031AY231031GA1091+999999999GF109991091999999999999999MD1210181+9999MW1751
0149010010999991992021006004+70933-008667FM-12+0009ENJA V0200201N01641000151CN0000001N9-00531-00531098251ADDAA199003091AG10003AY171061AY231061GA1091+999999999GF109991091999999999999999KA1120N-00531MD1210201+9999MW1751OA149902931REMSYN017333   21053 91157
0088010010999991992021009004+70933-008667FM-12+0009ENJA V0200301N01231000151CN0000001N9-00551-00551098491ADDAG12002AY171031AY231031GA1091+999999999GF109991091999999999999999MD1210241+9999MW1731
0150010010999991992021012004+70933-008667FM-12+0009ENJA V0200201N01491000151CN0001001N9-00591-00591098721ADDAA106003091AG19002AY171061AY231061GA1091+999999999GF109991091999999999999999MD1210231+9999MW1731OA149902681SA1-0189REMSYN023222// 01018 333   91152
0088010010999991992021015004+70933-008667FM-12+0009ENJA V0200201N01491000151CN0001001N9-00661-00661098941ADDAG12001AY171031AY231031GA1091+999999999GF109991091999999999999999MD1210221+9999MW1711
0149010010999991992021018004+70933-008667FM-12+0009ENJA V0200101N01441000301CN0003001N9-00631-00631099081ADDAA199004091AG10002AY171061AY231061GA1091+999999999GF109991091999999999999999KA1120M-00441MD1210141+9999MW1721OA149902571REMSYN017333   11044 91150
0088010010999991992021021004+70933-008667FM-12+0009ENJA V0203601N01391000301CN0005001N9-00621-00621099271ADDAG12002AY171031AY231031GA1091+999999999GF109991091999999999999999MD1210191+9999MW1731
0130010010999991992021100004+70933-008667FM-12+0009ENJA V0203601N01541000301CN0004001N9-00701-00701099481ADDAA106000391AG19002AY171061AY231061GA1091+999999999GF109991091999999999999999MD1210211+9999MW1731OA149902321REMSYN011333   91145
0088010010999991992021103004+70933-008667FM-12+0009ENJA V0203601N01081000601CN0008001N9-00741-00741099601ADDAG12001AY171031AY231031GA1091+999999999GF109991091999999999999999MD1210121+9999MW1701
0149010010999991992021106004+70933-008667FM-12+0009ENJA V0203601N01031000601CN0008001N9-00721-00731099691ADDAA199000391AG10001AY171061AY221061GA1091+999999999GF109991091999999999999999KA1120N-00751MD1210091+9999MW1701OA149902211REMSYN017333   21075 91143
0072010010999991992021109004+70933-008667FM-12+0009ENJA V0203601N00871009001CN0080001N9-00681-00701099821ADDAG12001AY181031AY271031GF108991081081004501999999MD1210131+9999MW1261
0134010010999991992021112004+70933-008667FM-12+0009ENJA V0203501N00721004201CN0250001N9-00661-00711099901ADDAA106999929AG19001AY181061AY271061GF107991061021004501061011MD1210081+9999MW1151OA149901701SA1-0179REMSYN023222// 01017 333   91133
0050010010999991992021115004+70933-008667FM-12+0009ENJA V0203501N00621024001CN0400001N9-00611-00681099911ADDAG12000GF105991031021004501061011MD1210011+9999
0111010010999991992021118004+70933-008667FM-12+0009ENJA V0200201N00771220001CN0280001N9-00601-00681100021ADDAA199999929AG10000GF104991031021004501061011KA1120M-00581MD1210111+9999OA149901241REMSYN017333   11058 91124
0050010010999991992021121004+70933-008667FM-12+0009ENJA V0200201N00671220001CN0400001N9-00581-00871100161ADDAG12000GF102991011081004501001011MD1210141+9999
0083010010999991992021200004+70933-008667FM-12+0009ENJA V0200301N00771220001CN0400001N9-00651-01001100321ADDAA106999929AG19001AY181061AY221061GF102991021081008001001001MD1210161+9999MW1011
0050010010999991992021203004+70933-008667FM-12+0009ENJA V0200101N00771220001CN0400001N9-00641-01071100451ADDAG12000GF102991021081008001001001MD1210131+9999
0111010010999991992021206004+70933-008667FM-12+0009ENJA V0203601N00461220001CN0300001N9-00671-00891100621ADDAA199999929AG10000GF102991021081004501001001KA1120N-00731MD1210211+9999OA149901181REMSYN017333   21073 91123
0050010010999991992021209004+70933-008667FM-12+0009ENJA V0200101N00411220001CN0300001N9-00681-00991100751ADDAG12000GF102991021081004501001001MD1210131+9999
0050010010999991992021215004+70933-008667FM-12+0009ENJA V0200501N00211220001CN0300001N9-00731-01091101031ADDAG12000GF104991041081004501001001MD1210141+9999
0130010010999991992021218004+70933-008667FM-12+0009ENJA V0201001N00771220001CN0300001N9-00621-00951101061ADDAA106000091AG14000GF104991041081004501001001KA1120M+99999MD1210031+9999OA149900981REMSYN017333   11081 91119EQDQ01 -00812ATMX  
0072010010999991992021221004+70933-008667FM-12+0009ENJA V0200801N00671009001CN0300001N9-00561-00821101081ADDAG12001AY181031AY211031GF106991061081004501001001MD1110021+9999MW1851
0072010010999991992021222004+70933-008667FM-12+0009ENJA V0200801N00671009001CN0300001N9-00561-00821101081ADDAG12999AY181011AY211011GF106991061081004501001001MD1110021+9999MW1851
0114010010999991992021300004+70933-008667FM-12+0009ENJA V0200701N00771009001CN0250001N9-00501-00761101071ADDAA106999929AG19001AY181061AY221061GF107991071081004501999999MD1810011+9999MW1151OA149901131REMSYN011333   91122
0050010010999991992021303004+70933-008667FM-12+0009ENJA V0200701N00981009001CN0250001N9-00461-00661101041ADDAG12000GF107991071081004501999999MD1710031+9999
0111010010999991992021306004+70933-008667FM-12+0009ENJA V0200801N01131024001CN0400001N9-00381-00551101021ADDAA199999929AG10000GF105991041051004501071001KA1120N-00651MD1710021+9999OA149901541REMSYN017333   21065 91130
0050010010999991992021309004+70933-008667FM-12+0009ENJA V0200801N01081004201CN0400001N9-00341-00491101131ADDAG12000GF106991061051004501001001MD1310111+9999
0089010010999991992021312004+70933-008667FM-12+0009ENJA V0200801N00981220001CN0400001N9-00361-00441101121ADDAA106000091AG14000GF104991041021004501001001MD1810011+9999SA1-0189REMSYN011222// 01018
0050010010999991992021315004+70933-008667FM-12+0009ENJA V0200801N00981004201CN0200001N9-00311-00381101231ADDAG12000GF106991061071004501001001MD1310111+9999
0133010010999991992021318004+70933-008667FM-12+0009ENJA V0200801N00981024001CN0200001N9-00351-00361101331ADDAA106999929AG19001AY181061AY221061GF106991031081004501071001KA1120M-00291MD1210101+9999MW1851OA149901441REMSYN017333   11029 91128
0072010010999991992021321004+70933-008667FM-12+0009ENJA V0200701N00771009001CN0080001N9-00341-00351101431ADDAG12001AY181031AY221031GF107991051081004501071999MD1210101+9999MW1851
0114010010999991992021400004+70933-008667FM-12+0009ENJA V0200301N00311009001CN0600001N9-00361-00401101561ADDAA106999929AG19001AY181061AY221061GF107991051081004501071999MD1210131+9999MW1261OA149901341REMSYN011333   91126
0072010010999991992021403004+70933-008667FM-12+0009ENJA V0203401N00051024001CN0600001N9-00351-00421101631ADDAG12001AY181031AY221031GF106991041081004501031001MD1110071+9999MW1261
0133010010999991992021406004+70933-008667FM-12+0009ENJA V0201001N00311024001CN0600001N9-00271-00341101671ADDAA199999929AG10001AY181061AY221061GF107991041081004501031999KA1120N-00401MD1210041+9999MW1021OA149900621REMSYN017333   21040 91112
0050010010999991992021409004+70933-008667FM-12+0009ENJA V0200801N00361024001CN0600001N9-00301-00371101771ADDAG12000GF105991021051004501051001MD1210101+9999
0112010010999991992021412004+70933-008667FM-12+0009ENJA V0203401N00101024001CN0200001N9-00431-00501101851ADDAA106000091AG14000GF105991011051004501051001MD1210081+9999OA149900361SA1-0179REMSYN023222// 01017 333   91107
0050010010999991992021415004+70933-008667FM-12+0009ENJA V0203001N00211220001CN0150001N9-00601-00631101821ADDAG12000GF101991011001022501051001MD1810031+9999
0111010010999991992021418004+70933-008667FM-12+0009ENJA V0203301N00151220001CN0300001N9-00541-00551101841ADDAA106000091AG14000GF101991011051004501071001KA1120M-00261MD1310021+9999OA149900311REMSYN017333   11026 91106
0050010010999991992021421004+70933-008667FM-12+0009ENJA V0203101N00151004201CN0300001N9-00581-00591101881ADDAG12000GF105991051051004501001001MD1210041+9999
0092010010999991992021500004+70933-008667FM-12+0009ENJA V0203101N00101004201CN0500001N9-00501-00511101881ADDAA106000091AG14000GF107991071051004501999999MD1410001+9999OA149900261REMSYN011333   91105
0050010010999991992021503004+70933-008667FM-12+0009ENJA V0209991C00001004201CN0500001N9-00511-00521101861ADDAG12000GF107991071051004501999999MD1710021+9999
0111010010999991992021506004+70933-008667FM-12+0009ENJA V0202901N00261220001CN0700001N9-00711-00721101811ADDAA106000091AG14000GF102991021051004501001001KA1120N-00731MD1710051+9999OA149900311REMSYN017333   21073 91106
0050010010999991992021509004+70933-008667FM-12+0009ENJA V0202901N00211024001CN0700001N9-00641-00651101841ADDAG12000GF106991041051004501031001MD1310031+9999
0112010010999991992021512004+70933-008667FM-12+0009ENJA V0201001N00411012001CN0700001N9-00341-00351101871ADDAA106000091AG14000GF106991061081008001001001MD1210031+9999OA149900511SA1-0159REMSYN023222// 01015 333   91110
0050010010999991992021515004+70933-008667FM-12+0009ENJA V0209991V00051220001CN0700001N9-00371-00451101901ADDAG12000GF102991011051008001071001MD1210031+9999
0111010010999991992021518004+70933-008667FM-12+0009ENJA V0202701N00261007501CN0400001N9-00511-00541101951ADDAA106000091AG14000GF107991071051008001999999KA1120M-00261MD1210051+9999OA149900571REMSYN017333   11026 91111
0050010010999991992021521004+70933-008667FM-12+0009ENJA V0203001N00101007501CN0400001N9-00321-00361102081ADDAG12000GF108991081051008001999999MD1210131+9999
0114010010999991992021600004+70933-008667FM-12+0009ENJA V0209991C00001007501CN0250001N9-00271-00341102151ADDAA106999929AG19001AY171061AY221061GF108991071051008001999999MD1210071+9999MW1701OA149900311REMSYN011333   91106
0072010010999991992021603004+70933-008667FM-12+0009ENJA V0203201N00101004201CN0300001N9-00251-00361102181ADDAG12001AY171031AY221031GF108991071051004501999999MD1210031+9999MW1221
0133010010999991992021606004+70933-008667FM-12+0009ENJA V0209991V00051004201CN0250001N9-00191-00231102161ADDAA199999929AG19001AY171061AY221061GF108991071051004501999999KA1120N-00521MD1810021+9999MW1701OA149900211REMSYN017333   21052 91104
0072010010999991992021609004+70933-008667FM-12+0009ENJA V0202101N00211004201CN0250001N9-00131-00141102141ADDAG12001AY171031AY221031GF108991081051004501999999MD1710021+9999MW1221
0109010010999991992021611004+70933-008667FM-12+0009ENJA V0202201N00461012001CN0280001N9+00001-00161102151ADDAG12001AY171021AY221021GF107991071051012501999999MW1001OA149900821SA1-0159REMSYN023222// 01015 333   91116
0134010010999991992021612004+70933-008667FM-12+0009ENJA V0202201N00461012001CN0700001N9+00001-00161102151ADDAA106999929AG19001AY171061AY221061GF107991071051012501999999MD1210011+9999MW1011OA149900821SA1-0159REMSYN023222// 01015 333   91116
0050010010999991992021615004+70933-008667FM-12+0009ENJA V0202101N00211007501CN0600001N9-00021-00051102131ADDAG12000GF107991071051008001999999MD1710021+9999
0133010010999991992021618004+70933-008667FM-12+0009ENJA V0202101N00571004201CN0200001N9-00071-00081101991ADDAA199999929AG10000AY121061AY221061GF107991071051004501999999KA1120M+00001MD1710141+9999MW1151OA149900771REMSYN017333   10000 91115
0050010010999991992021621004+70933-008667FM-12+0009ENJA V0201901N00821024001CN0150001N9-00041-00051101831ADDAG12000GF107991041051004501071999MD1710161+9999
0083010010999991992021700004+70933-008667FM-12+0009ENJA V0201901N00571004201CN0150001N9-00031-00041101561ADDAA106999929AG19001AY171061AY221061GF108991081051004501999999MD1710271+9999MW1701
0072010010999991992021703004+70933-008667FM-12+0009ENJA V0201901N00721004201CN0150001N9+00001-00021101441ADDAG12001AY171031AY221031GF108991081051004501999999MD1710121+9999MW1701
0133010010999991992021706004+70933-008667FM-12+0009ENJA V0201801N00821004201CN0150001N9-00011-00021101131ADDAA199999929AG19001AY171061AY221061GF108991081051004501999999KA1120N-00091MD1710111+9999MW1701OA149901441REMSYN017333   21009 91128
0072010010999991992021709004+70933-008667FM-12+0009ENJA V0202001N00511002101CN0080001N9+00001+00001100981ADDAG12001AY171031AY221031GF108991071061002501999999MD1710151+9999MW1101
0134010010999991992021712004+70933-008667FM-12+0009ENJA V0201801N01031002101CN0025001N9+00011+00011100721ADDAA106000391AG19001AY171061AY221061GF108991081061002501999999MD1710261+9999MW1701OA149901441SA1-0139REMSYN023222// 01013 333   91128
0072010010999991992021715004+70933-008667FM-12+0009ENJA V0201801N01081002101CN0020001N9+00021+00021100521ADDAG12002AY171031AY221031GF108991081061002501999999MD1710201+9999MW1681
0133010010999991992021718004+70933-008667FM-12+0009ENJA V0201801N00821002101CN0070001N9+00011+00011100381ADDAA199000391AG10001AY171061AY251061GF108991081061002501999999KA1120M+00031MD1710141+9999MW1501OA149901601REMSYN017333   10003 91131
0072010010999991992021721004+70933-008667FM-12+0009ENJA V0201701N00871002101CN0070001N9-00021-00021100331ADDAG12002AY171031AY251031GF108991081061002501999999MD1710051+9999MW1681
0114010010999991992021800004+70933-008667FM-12+0009ENJA V0202001N00671002101CN0110001N9-00031-00031100381ADDAA106999929AG19001AY171061AY251061GF107991051071002501071999MD1310051+9999MW1011OA149901181REMSYN011333   91123
0050010010999991992021803004+70933-008667FM-12+0009ENJA V0202501N00411220001CN0250001N9-00161-00221100561ADDAG12000GF102991021051004501041001MD1210181+9999
0111010010999991992021806004+70933-008667FM-12+0009ENJA V0201901N00571220001CN0300001N9-00161-00171100601ADDAA199999929AG10000GF102991021051004501041001KA1120N-00281MD1110041+9999OA149901181REMSYN017333   21028 91123
0050010010999991992021809004+70933-008667FM-12+0009ENJA V0201701N00511220001CN0200001N9-00141-00151100671ADDAG12000GF103991021081004501041001MD1210071+9999
0089010010999991992021812004+70933-008667FM-12+0009ENJA V0202301N00261220001CN0150001N9-00191-00471100781ADDAA106000091AG14000GF102991021021004501001001MD1210111+9999SA1-0089REMSYN011222// 01008
0072010010999991992021815004+70933-008667FM-12+0009ENJA V0203101N00771220001CN0200001N9-00261-00331100961ADDAG12001AY181031AY211031GF103991031021002501001001MD1210181+9999MW1261
0133010010999991992021818004+70933-008667FM-12+0009ENJA V0202401N00151220001CN0300001N9-00301-00451101241ADDAA199999929AG10001AY181061AY201061GF103991031081004501001001KA1120M-00111MD1210281+9999MW1021OA149901031REMSYN017333   11011 91120
0050010010999991992021821004+70933-008667FM-12+0009ENJA V0201801N00311220001CN0300001N9-00411-00591101391ADDAG12000GF102991021041004501001001MD1210151+9999
0092010010999991992021900004+70933-008667FM-12+0009ENJA V0202401N00151024001CN0500001N9-00491-00571101421ADDAA106000091AG14000GF106991011051004501031071MD1110031+9999OA149900881REMSYN011333   91117
0050010010999991992021903004+70933-008667FM-12+0009ENJA V0201401N00621060001CN0500001N9-00221-00291101351ADDAG12000GF106991021051008001001021MD1810071+9999
0111010010999991992021906004+70933-008667FM-12+0009ENJA V0201401N00771024001CN0500001N9-00111-00181101111ADDAA106000091AG14000GF107991041051004501071071KA1120N-00661MD1710241+9999OA149901131REMSYN017333   21066 91122
0072010010999991992021909004+70933-008667FM-12+0009ENJA V0201201N01231001201CN0030001N9-00121-00131100831ADDAG12001AY171031AY221031GF108991081061001501999999MD1710281+9999MW1711
0134010010999991992021912004+70933-008667FM-12+0009ENJA V0201201N00931001201CN0030001N9-00031-00031100491ADDAA106000591AG19001AY171061AY221061GF108991081061001501999999MD1710341+9999MW1711OA149901751SA1-0099REMSYN023222// 01009 333   91134
0072010010999991992021915004+70933-008667FM-12+0009ENJA V0201001N00821000601CN0013001N9-00011-00011100101ADDAG12001AY171031AY251031GF108991081061000751999999MD1710391+9999MW1531
0133010010999991992021918004+70933-008667FM-12+0009ENJA V0201001N00721001201CN0005001N9+00071+00071099711ADDAA199001091AG10001AY171061AY251061GF108991081061001501999999KA1120M+00081MD1710391+9999MW1531OA149901341REMSYN017333   10008 91126
0066010010999991992021921004+70933-008667FM-12+0009ENJA V0202001N00261000301CN0003001N9+00051+00051099301ADDAG12000GA1091+999999999GF109991091999999999999999MD1710401+9999
0130010010999991992022000004+70933-008667FM-12+0009ENJA V0202101N00511000301CN0002001N9+00081+00081098931ADDAA106001091AG19001AY161061AY251061GA1091+999999999GF109991091999999999999999MD1710371+9999MW1601OA149900931REMSYN011333   91118
0064010010999991992022003004+70933-008667FM-12+0009ENJA V0202201N00511002101CN0050001N9+00001+00001098921ADDAG12001AY161031GF108991081061002501999999MD1510011+9999MW1771
0133010010999991992022006004+70933-008667FM-12+0009ENJA V0202801N01701021001CN0300001N9+00031-00861099021ADDAA199003091AG10001AY171061AY261061GF107991071001022501071999KA1120N-00021MD1310101+9999MW1361OA149902371REMSYN017333   21002 91146
0072010010999991992022009004+70933-008667FM-12+0009ENJA V0202501N00511220001CN0600001N9-00181-00411099461ADDAG11000AY131031AY211031GF103991021021004501071011MD1210431+9999MW1011
0112010010999991992022012004+70933-008667FM-12+0009ENJA V0202101N00621220001CN0600001N9-00151-00241099601ADDAA106000091AG14000GF104991031021004501071001MD1110151+9999OA149900821SA1-0109REMSYN023222// 01010 333   91116
0050010010999991992022015004+70933-008667FM-12+0009ENJA V0201701N00511060001CN0500001N9-00131-00181099561ADDAG12000GF107991011051004501001061MD1810041+9999
0111010010999991992022018004+70933-008667FM-12+0009ENJA V0201001N00771220001CN0700001N9-00081-00121099201ADDAA106000091AG14000GF102991011071004501001041KA1120M+00031MD1710361+9999OA149901131REMSYN017333   10003 91122
0050010010999991992022021004+70933-008667FM-12+0009ENJA V0201001N00981004201CN0300001N9-00021-00021098701ADDAG12000GF108991061051004501071999MD1710501+9999
0149010010999991992022100004+70933-008667FM-12+0009ENJA V0200901N01131000151CN0001001N9+00001+00001097912ADDAA106000191AG19002AY171061AY221061GA1091+999999999GF109991091999999999999999MD1710791+9999MW1721OA149901751REMSYN011333   91134EQDQ01+097913APOSLP
0133010010999991992022106004+70933-008667FM-12+0009ENJA V0202301N00511220001CN0300001N9-00291-00821098271ADDAA199001091AG19001AY181061AY271061GF103991021081008001071011KA1120N-00301MD1210171+9999MW1261OA149902321REMSYN017333   21030 91145
0088010010999991992022109004+70933-008667FM-12+0009ENJA V0201601N00981002401CN0030001N9-00271-00281098311ADDAG12001AY181031AY221031GA1091+999999999GF109991091999999999999999MD1110041+9999MW1851
0134010010999991992022112004+70933-008667FM-12+0009ENJA V0201401N00361004201CN0300001N9-00321-00331098281ADDAA106000191AG19001AY181061AY221061GF107991051091004501061999MD1710031+9999MW1151OA149901241SA1-0109REMSYN023222// 01010 333   91124
0072010010999991992022115004+70933-008667FM-12+0009ENJA V0202201N00261004201CN0040001N9-00311-00421098351ADDAG12001AY181031AY221031GF107991051091004501061081MD1210071+9999MW1871
0133010010999991992022118004+70933-008667FM-12+0009ENJA V0202701N00461220001CN0300001N9-00471-00611098381ADDAA199000391AG19001AY181061AY221061GF104991031091004501061001KA1120M-00201MD1210031+9999MW1151OA149900931REMSYN017333   11020 91118
0072010010999991992022121004+70933-008667FM-12+0009ENJA V0202601N00101220001CN0400001N9-00501-00681098361ADDAG12001AY181031AY221031GF101991011081004501001001MD1710021+9999MW1011
0083010010999991992022200004+70933-008667FM-12+0009ENJA V0209991C00001220001CN0400001N9-00661-00741098171ADDAA106000191AG19001AY181061AY221061GF102991021081004501001001MD1710191+9999MW1021
0050010010999991992022203004+70933-008667FM-12+0009ENJA V0200901N00571220001CN0250001N9-00371-00391097811ADDAG12000GF103991031071004501001001MD1710301+9999
0111010010999991992022206004+70933-008667FM-12+0009ENJA V0200301N00211220001CN0250001N9-00521-00731097541ADDAA199000191AG10000GF103991031071004501001001KA1120N-00711MD1710271+9999OA149900881REMSYN017333   21071 91117
0050010010999991992022209004+70933-008667FM-12+0009ENJA V0203101N00361024001CN0200001N9-00431-00771097361ADDAG12000GF107991011051004501071999MD1710181+9999
0134010010999991992022212004+70933-008667FM-12+0009ENJA V0200201N00571004201CN0150001N9-00381-00471097321ADDAA106000191AG10001AY171061AY221061GF107991051071004501061999MD1710041+9999MW1701OA149900881SA1-0119REMSYN023222// 01011 333   91117
0072010010999991992022215004+70933-008667FM-12+0009ENJA V0203601N00621009001CN0250001N9-00451-00711097361ADDAG12001AY181031AY271031GF107991061081004501061999MD1310041+9999MW1151
0133010010999991992022218004+70933-008667FM-12+0009ENJA V0202601N00821006001CN0250001N9-00621-00701097461ADDAA106000191AG19001AY181061AY221061GF107991071081002501999999KA1120M-00341MD1210101+9999MW1851OA149901701REMSYN017333   11034 91133
0072010010999991992022221004+70933-008667FM-12+0009ENJA V0202601N01131006001CN0050001N9-00661-00741097451ADDAG12001AY181031AY231031GF107991071081002501999999MD1810011+9999MW1381
0114010010999991992022300004+70933-008667FM-12+0009ENJA V0202901N00721006001CN0040001N9-00671-00851097651ADDAA106001091AG19001AY181061AY231061GF108991071081002501999999MD1310201+9999MW1851OA149902421REMSYN011333   91147
0072010010999991992022303004+70933-008667FM-12+0009ENJA V0202701N00461006001CN0050001N9-00591-00751097931ADDAG12001AY181031AY231031GF108991071081002501999999MD1210281+9999MW1851
0133010010999991992022306004+70933-008667FM-12+0009ENJA V0202701N01181220001CN0200001N9-00651-01031098251ADDAA199001091AG10001AY181061AY231061GF104991041081004501001001KA1120N-00701MD1210321+9999MW1361OA149902471REMSYN017333   21070 91148
0072010010999991992022309004+70933-008667FM-12+0009ENJA V0202701N01591220001CN0200001N9-00681-01061098491ADDAG12000AY131031AY221031GF104991999999004501999999MD1210241+9999MW1381
0130010010999991992022312004+70933-008667FM-12+0009ENJA V0209999999999220001CN0300001N9-00681-00921999999ADDAA106000091AG14000AY131061AY221061GF104991041081004501061041MD1210271+9999MW1011SA1-0139UA1I112909999REMSYN017222// 01013 11158
0050010010999991992022315004+70933-008667FM-12+0009ENJA V0202701N01131220001CN0300001N9-00661-00971099131ADDAG12000GF103991021021004501061041MD1210371+9999
0111010010999991992022318004+70933-008667FM-12+0009ENJA V0202701N01231220001CN0300001N9-00641-01051099201ADDAA106000091AG14000GF103991011011004501071001KA1120M-00631MD1210131+9999OA149902321REMSYN017333   11063 91145
0050010010999991992022321004+70933-008667FM-12+0009ENJA V0203001N01081220001CN0400001N9-00811-00891099521ADDAG12000GF103991011011004501071001MD1210261+9999
0092010010999991992022400004+70933-008667FM-12+0009ENJA V0203001N01441220001CN0400001N9-00881-00941099561ADDAA106000091AG14000GF103991031001017501071001MD1110041+9999OA149901961REMSYN011333   91138
0072010010999991992022403004+70933-008667FM-12+0009ENJA V0203301N01541220001CN0400001N9-00961-00971099321ADDAG11000AY131031AY201031GF103991031001017501071001MD1810241+9999MW1381
0133010010999991992022406004+70933-008667FM-12+0009ENJA V0200101N00571060001CN0400001N9-00841-00861099071ADDAA106000091AG14000AY131061AY211061GF106991031001017501071021KA1120N-00971MD1710251+9999MW1031OA149902261REMSYN017333   21097 91144
0072010010999991992022409004+70933-008667FM-12+0009ENJA V0202401N00571024001CN0300001N9-00671-00711098651ADDAG12000AY121031AY221031GF107991021081004501071081MD1710421+9999MW1151
0134010010999991992022412004+70933-008667FM-12+0009ENJA V0203601N01491024001CN0250001N9-00611-00621098091ADDAA106000091AG14000AY131061AY221061GF108991021081004501021999MD1710561+9999MW1361OA149902371SA1-0129REMSYN023222// 01012 333   91146
0072010010999991992022415004+70933-008667FM-12+0009ENJA V0200201N01541024001CN0200001N9-00511-00521097851ADDAG12000AY131031AY221031GF107991021081004501071081MD1710241+9999MW1381
0133010010999991992022418004+70933-008667FM-12+0009ENJA V0200201N02001024001CN0400001N9-00291-00391097651ADDAA106000091AG14000AY131061AY221061GF107991021081004501071999KA1120M-00281MD1210201+9999MW1381OA149902881REMSYN017333   11028 91156
0072010010999991992022421004+70933-008667FM-12+0009ENJA V0200201N01951024001CN0250001N9-00231-00241097891ADDAG11000AY131031AY221031GF108991041071002501071999MD1310241+9999MW1381
0114010010999991992022500004+70933-008667FM-12+0009ENJA V0200101N01541004201CN0250001N9-00251-00251098211ADDAA106000091AG19000AY131061AY221061GF107991071051004501999999MD1210321+9999MW1381OA149902991REMSYN011333   91158
0088010010999991992022503004+70933-008667FM-12+0009ENJA V0200101N01291000301CN0005001N9-00411-00411098741ADDAG12002AY181031AY231031GA1091+999999999GF109991091999999999999999MD1210531+9999MW1861
0133010010999991992022506004+70933-008667FM-12+0009ENJA V0200101N00821004201CN0050001N9-00491-00501099211ADDAA199000391AG19001AY181061AY231061GF108991081031004501999999KA1120N-00501MD1210471+9999MW1851OA149902471REMSYN017333   21050 91148
0072010010999991992022509004+70933-008667FM-12+0009ENJA V0203501N00721009001CN0300001N9-00611-00731099531ADDAG12001AY181031AY221031GF108991071081004501999999MD1210321+9999MW1851
0134010010999991992022512004+70933-008667FM-12+0009ENJA V0203301N00771009001CN0400001N9-00671-00771099721ADDAA199000191AG19001AY181061AY221061GF107991071081004501999999MD1110191+9999MW1261OA149901341SA1-0119REMSYN023222// 01011 333   91126
0072010010999991992022515004+70933-008667FM-12+0009ENJA V0200201N00311009001CN0400001N9-00611-00711099831ADDAG12001AY181031AY221031GF108991071081004501999999MD1010111+9999MW1261
0133010010999991992022518004+70933-008667FM-12+0009ENJA V0200101N00211007501CN0400001N9-00591-00631099761ADDAA199000191AG19001AY181061AY221061GF108991081051008001999999KA1120M-00491MD1810071+9999MW1151OA149901031REMSYN017333   11049 91120
0072010010999991992022521004+70933-008667FM-12+0009ENJA V0200901N00871007501CN0060001N9-00471-00481099731ADDAG12001AY171031AY221031GF108991081051008001999999MD1710031+9999MW1701
0114010010999991992022600004+70933-008667FM-12+0009ENJA V0200901N01031007501CN0250001N9-00241-00251099581ADDAA106000191AG10001AY171061AY221061GF108991081051008001999999MD1710151+9999MW1151OA149901601REMSYN011333   91131
0072010010999991992022603004+70933-008667FM-12+0009ENJA V0200901N00981004201CN0100001N9-00081-00081099481ADDAG12002AY171031AY221031GF108991081051004501999999MD1710101+9999MW1681
0133010010999991992022606004+70933-008667FM-12+0009ENJA V0200901N00821002101CN0025001N9+99999+99999099131ADDAA199000391AG10001AY171061AY221061GF108991081061002501999999KA1120N-00591MD1710351+9999MW1701OA149901701REMSYN017333   21059 91133
0169010010999991992022612004+70933-008667FM-12+0009ENJA V0200801N01131001201CN0030001N9+00061+00061098152ADDAA106002091AG10002AY171061AY261061GF108991081061001501999999MD1710532+9999MW1611OA149901961SA1-0129REMSYN023222// 01012 333   91138EQDQ01+098153APOSLPQ02+000532APC3  
0072010010999991992022615004+70933-008667FM-12+0009ENJA V0202101N01181009001CN0150001N9+00031+00031098271ADDAG12001AY181031AY261031GF107991071081004501999999MD1310121+9999MW1251
0133010010999991992022618004+70933-008667FM-12+0009ENJA V0201301N00261002101CN0080001N9-00051-00051098721ADDAA199004091AG10001AY181061AY271061GF107991061061002501999999KA1120M+00201MD1210451+9999MW1151OA149902161REMSYN017333   10020 91142
0072010010999991992022621004+70933-008667FM-12+0009ENJA V0202101N00151220001CN0100001N9-00081-00081098931ADDAG12001AY181031AY221031GF103991031061004501001001MD1210211+9999MW1101
0083010010999991992022700004+70933-008667FM-12+0009ENJA V0200801N00621220001CN0300001N9+00001+00001098981ADDAA106999929AG19001AY181061AY221061GF101991011051004501001001MD1210051+9999MW1011
0072010010999991992022703004+70933-008667FM-12+0009ENJA V0202201N00361009001CN0300001N9-00031-00061099401ADDAG12001AY181031AY221031GF107991071081004501999999MD1210421+9999MW1261
0133010010999991992022706004+70933-008667FM-12+0009ENJA V0201901N00311220001CN0300001N9-00121-00141099671ADDAA199001091AG10001AY181061AY221061GF102991021081004501001001KA1120N-00161MD1210271+9999MW1011OA149902011REMSYN017333   21016 91139
0072010010999991992022709004+70933-008667FM-12+0009ENJA V0201601N00411024001CN0150001N9-00091-00101099881ADDAG12000AY121031AY211031GF107991021081004501071081MD1210211+9999MW1151
0112010010999991992022712004+70933-008667FM-12+0009ENJA V0202501N00101024001CN0200001N9-00041-00041099871ADDAA106000091AG14000GF107991031081004501041081MD1810041+9999OA149900821SA1-0129REMSYN023222// 01012 333   91116
0072010010999991992022715004+70933-008667FM-12+0009ENJA V0200901N00511002101CN0080001N9+99999+99999099531ADDAG12000AY121031AY221031GF108991051061002501021999MD1710341+9999MW1151
0103010010999991992022718004+70933-008667FM-12+0009ENJA V0200801N01081002101CN0080001N9+00091+00071099171ADDAA106000091AG14000AY121061AY221061GF108991081051002501999999MD1710361+9999MW1101REMSYN011333   100//
0072010010999991992022721004+70933-008667FM-12+0009ENJA V0200801N01901006001CN0050001N9+00111+00091098321ADDAG12002AY181031AY221031GF108991081081002501999999MD1710851+9999MW1841
0114010010999991992022800004+70933-008667FM-12+0009ENJA V0200701N01901002101CN0030001N9+00051+00051097351ADDAA106001091AG10004AY181061AY271061GF108991081061002501999999MD1710971+9999MW1691OA149902831REMSYN011333   91155
0072010010999991992022803004+70933-008667FM-12+0009ENJA V0200701N01181002101CN0030001N9+00061+00061096971ADDAG12002AY171031AY221031GF108991081061002501999999MD1710381+9999MW1681
0133010010999991992022806004+70933-008667FM-12+0009ENJA V0200601N01341002101CN0045001N9+00131+00131096891ADDAA199001091AG19001AY171061AY221061GF108991081061002501999999KA1120N+00031MD1510081+9999MW1101OA149902731REMSYN017333   20003 91153
0072010010999991992022809004+70933-008667FM-12+0009ENJA V0200201N01231001201CN0020001N9+00121+00101096991ADDAG12004AY171031AY221031GF108991081061001501999999MD1210101+9999MW1691
0111010010999991992022812004+70933-008667FM-12+0009ENJA V0200201N01441001201CN0020001N9-00041-00041097501ADDAA106000591AG10004AY171061AY221061GF108991081061001501999999MD1210511+9999MW1691SA1-0069REMSYN011222// 01006
0072010010999991992022815004+70933-008667FM-12+0009ENJA V0203401N01541001201CN0020001N9-00081-00081097991ADDAG12001AY181031AY221031GF108991081061001501999999MD1210491+9999MW1831
0133010010999991992022818004+70933-008667FM-12+0009ENJA V0203501N01181001201CN0035001N9-00111-00111098601ADDAA199001091AG19001AY181061AY221061GF108991081061001501999999KA1120M+00181MD1210611+9999MW1161OA149902571REMSYN017333   10018 91150
0072010010999991992022821004+70933-008667FM-12+0009ENJA V0203501N01291002101CN0080001N9-00201-00201098981ADDAG12000AY121031AY221031GF108991081061002501999999MD1210381+9999MW1101
0050010010999991992022903004+70933-008667FM-12+0009ENJA V0203501N00671002101CN0250001N9-00381-00381099311ADDAG12000GF105991051061002501001001MD1510001+9999
0111010010999991992022906004+70933-008667FM-12+0009ENJA V0203601N00871001201CN0250001N9-00421-00421099411ADDAA106000091AG14000GF108991081061001501999999KA1120N-00421MD1110101+9999OA149901801REMSYN017333   21042 91135
0050010010999991992022909004+70933-008667FM-12+0009ENJA V0203501N00821004201CN0200001N9-00471-00471099501ADDAG12000GF106991061051004501001001MD1210091+9999
0112010010999991992022912004+70933-008667FM-12+0009ENJA V0203601N00771004201CN0250001N9-00521-00521099581ADDAA106000091AG14000GF105991051051004501001001MD1110081+9999OA149901601SA1-0099REMSYN023222// 01009 333   91131
0050010010999991992022915004+70933-008667FM-12+0009ENJA V0203601N00621220001CN0300001N9-00451-00461099611ADDAG12000GF105991031051004501001041MD1210031+9999
0111010010999991992022918004+70933-008667FM-12+0009ENJA V0203501N00771060001CN0500001N9-00361-00361099571ADDAA106000091AG14000GF105991031051004501001051KA1120M-00361MD1810041+9999OA149901801REMSYN017333   11036 91135
0050010010999991992022921004+70933-008667FM-12+0009ENJA V0203501N00871002101CN0400001N9-00231-00231099641ADDAG12000GF107991071051002501999999MD1310071+9999
0092010010999991992030100004+70933-008667FM-12+0009ENJA V0202101N00571024001CN0400001N9-00211-00211099701ADDAA106000091AG14000GF107991041051004501071011MD1210061+9999OA149901341REMSYN011333   91126
0050010010999991992030103004+70933-008667FM-12+0009ENJA V0203001N00411004201CN0300001N9-00251-00261099781ADDAG12000GF108991071051004501071999MD1210081+9999
0111010010999991992030106004+70933-008667FM-12+0009ENJA V0202701N00211002101CN0300001N9-00301-00311099841ADDAA106000091AG14000GF107991051061002501071011KA1120N-00361MD1210061+9999OA149901031REMSYN017333   21036 91120
0050010010999991992030109004+70933-008667FM-12+0009ENJA V0202201N00511024001CN0300001N9-00331-00331099861ADDAG12000GF105991031061002501071011MD1210021+9999
0112010010999991992030112004+70933-008667FM-12+0009ENJA V0201101N00721024001CN0400001N9-00241-00251099961ADDAA106000091AG14000GF105991031061004501071011MD1210101+9999OA149901181SA1-0099REMSYN023222// 01009 333   91123
0050010010999991992030115004+70933-008667FM-12+0009ENJA V0201101N00821024001CN0400001N9-00221-00241099921ADDAG12000GF106991021051004501031011MD1810041+9999
0111010010999991992030118004+70933-008667FM-12+0009ENJA V0201101N00261024001CN0400001N9-00211-00221099971ADDAA106000091AG14000GF106991031061004501071999KA1120M-00181MD1310051+9999OA149901341REMSYN017333   11018 91126
0050010010999991992030121004+70933-008667FM-12+0009ENJA V0200901N00721012001CN0400001N9-00141-00151099961ADDAG12000GF107991051051012501071999MD1710011+9999
0092010010999991992030200004+70933-008667FM-12+0009ENJA V0209991V00211012001CN0400001N9-00121-00121100011ADDAA106000091AG14000GF108991051051012501071999MD1210051+9999OA149901131REMSYN011333   91122
0050010010999991992030203004+70933-008667FM-12+0009ENJA V0200901N00101007501CN0400001N9-00101-00111100051ADDAG12000GF107991051051008001999999MD1210041+9999
0111010010999991992030206004+70933-008667FM-12+0009ENJA V0202201N00411007501CN0400001N9-00081-00091100091ADDAA106000091AG14000GF107991061051008001999999KA1120N-00211MD1210041+9999OA149900771REMSYN017333   21021 91115
0050010010999991992030209004+70933-008667FM-12+0009ENJA V0202301N00411024001CN0400001N9-00031-00041100151ADDAG12000GF107991011061004501051999MD1210061+9999
0112010010999991992030212004+70933-008667FM-12+0009ENJA V0201501N00211024001CN0400001N9+00011+00001100241ADDAA106000091AG14000GF107991021061004501031999MD1210091+9999OA149900881SA1-0099REMSYN023222// 01009 333   91117
0050010010999991992030215004+70933-008667FM-12+0009ENJA V0203301N00151024001CN0400001N9+00081-00091100311ADDAG12000GF107991011061002501031999MD1210071+9999
0111010010999991992030218004+70933-008667FM-12+0009ENJA V0202601N00151024001CN0400001N9-00081-00101100471ADDAA106000091AG14000GF107991011061002501051999KA1120M+00111MD1210161+9999OA149900821REMSYN017333   10011 91116
0050010010999991992030221004+70933-008667FM-12+0009ENJA V0209991V00101220001CN0500001N9-00031-00071100411ADDAG12000GF101991011061004501001001MD1010061+9999
0083010010999991992030300004+70933-008667FM-12+0009ENJA V0209991C00001009001CN0300001N9+00011+00011100431ADDAA106999929AG19001AY181061AY211061GF107991071081004501999999MD1310021+9999MW1851
0050010010999991992030303004+70933-008667FM-12+0009ENJA V0202201N00261009001CN0300001N9+00041+00041100461ADDAG12000GF108991081081004501999999MD1210031+9999
0111010010999991992030306004+70933-008667FM-12+0009ENJA V0209991C00001220001CN0400001N9+00011-00021100271ADDAA199999929AG10000GF101991011051004501001001KA1120N-00081MD1810191+9999OA149900571REMSYN017333   21008 91111
0050010010999991992030309004+70933-008667FM-12+0009ENJA V0202401N00101004201CN0400001N9+00021-00021100351ADDAG12000GF107991071051004501999999MD1210081+9999
0112010010999991992030312004+70933-008667FM-12+0009ENJA V0202201N00151006001CN0200001N9+00101+00091100401ADDAA106000091AG14000GF106991061081002501001001MD1210051+9999OA149900571SA1-0089REMSYN023222// 01008 333   91111
0050010010999991992030315004+70933-008667FM-12+0009ENJA V0202001N00101002101CN0200001N9+00021+00021100401ADDAG12000GF107991061061002501999999MD1410001+9999
0111010010999991992030318004+70933-008667FM-12+0009ENJA V0202101N00311024001CN0150001N9-00011-00011100411ADDAA106000091AG14000GF106991041061002501041001KA1120M+00121MD1110011+9999OA149900571REMSYN017333   10012 91111
0050010010999991992030321004+70933-008667FM-12+0009ENJA V0201801N00211220001CN0300001N9+00001+00001100301ADDAG12000GF101991011051004501001001MD1810111+9999
