0133010010999991991010100004+70933-008667FM-12+0009ENJA V0201301N01081024001CN0300001N9+00161+00151099751ADDAA106000191AG10000AY181061AY261061GF107991041081004501071999MD1210151+9999MW1021OA149999999REMSYN011333   91118EQDQ01  00932WGOSPD
0072010010999991991010103004+70933-008667FM-12+0009ENJA V0201101N01031006001CN0120001N9+00081+00081099741ADDAG12000AY181031AY221031GF108991071081002501999999MD1810011+9999MW1831
0133010010999991991010106004+70933-008667FM-12+0009ENJA V0201101N00771006001CN0150001N9+00151+00151099731ADDAA199002091AG10001AY181061AY221061GF108991071081002501999999KA1120N+00061MD1610011+9999MW1801OA149901961REMSYN017333   20006 91138
0072010010999991991010109004+70933-008667FM-12+0009ENJA V0201001N00931009001CN0180001N9+00101+00101099781ADDAG12000AY181031AY221031GF108991081081004501999999MD1110051+9999MW1021
0134010010999991991010112004+70933-008667FM-12+0009ENJA V0201001N00931000601CN0040001N9+00061+00061099881ADDAA106002091AG10001AY181061AY221061GF108991081071000751999999MD1210101+9999MW1691OA149901391SA1+0089REMSYN023222// 00008 333   91127
0088010010999991991010115004+70933-008667FM-12+0009ENJA V0200901N00721000301CN0002001N9+00021+00021099881ADDAG12001AY171031AY271031GA1091+999999999GF109991091999999999999999MD1410001+9999MW1731
0133010010999991991010118004+70933-008667FM-12+0009ENJA V0200901N00931001201CN0070001N9+00091+00091099801ADDAA199005091AG10001AY171061AY271061GF108991081071001501999999KA1120M+00161MD1610081+9999MW1681OA149901801REMSYN017333   10016 91135
0072010010999991991010121004+70933-008667FM-12+0009ENJA V0200901N01031004201CN0120001N9+00101+00091099741ADDAG12000AY171031AY221031GF107991071071004501999999MD1710061+9999MW1021
0114010010999991991010200004+70933-008667FM-12+0009ENJA V0200901N01081024001CN0300001N9+00091+00001099691ADDAA106001091AG10000AY171061AY221061GF105991021051008001041001MD1710051+9999MW1011OA149901601REMSYN011333   91131
0050010010999991991010203004+70933-008667FM-12+0009ENJA V0200901N01031024001CN0300001N9+00021-00041099571ADDAG12000GF108991021051008001071999MD1710121+9999
0111010010999991991010206004+70933-008667FM-12+0009ENJA V0201001N01131024001CN0300001N9-00011-00061099361ADDAA199001091AG10000GF106991041051008001041001KA1120N-00031MD1710211+9999OA149901801REMSYN017333   21003 91135
0112010010999991991010212004+70933-008667FM-12+0009ENJA V0200101N00981024001CN0250001N9-00121-00371099101ADDAA106000091AG14000GF105991041081008001041001MD1710121+9999OA149901851SA1+0069REMSYN023222// 00006 333   91136
0050010010999991991010215004+70933-008667FM-12+0009ENJA V0200101N00721220001CN0220001N9-00151-00461098941ADDAG12000GF104991031081008001041001MD1710161+9999
0111010010999991991010218004+70933-008667FM-12+0009ENJA V0209991V00261220001CN0500001N9-00181-00541098781ADDAA106000091AG14000GF101991011051008001001001KA1120M+00061MD1610161+9999OA149901701REMSYN017333   10006 91133
0050010010999991991010221004+70933-008667FM-12+0009ENJA V0201701N00361220001CN0500001N9-00191-00631098721ADDAG12000GF101991011051008001041011MD1710061+9999
0050010010999991991010303004+70933-008667FM-12+0009ENJA V0203601N00621220001CN0500001N9-00141-00481098471ADDAG12000GF103991011081008001001051MD1710131+9999
0111010010999991991010306004+70933-008667FM-12+0009ENJA V0203601N00871220001CN0500001N9-00061-00261098401ADDAA106000091AG14000GF102991011081004501071001KA1120N-00231MD1710071+9999OA149902061REMSYN017333   21023 91140
0050010010999991991010309004+70933-008667FM-12+0009ENJA V0200601N01291220001CN0500001N9+99999+99999098351ADDAG12000GF101991011051008001041001MD1710051+9999
0112010010999991991010312004+70933-008667FM-12+0009ENJA V0200201N00671024001CN0500001N9-00041-00301098501ADDAA106000091AG14000GF107991011051008001071061MD1210151+9999OA149902781SA1+0049REMSYN023222// 00004 333   91154
0050010010999991991010315004+70933-008667FM-12+0009ENJA V0200301N01231024001CN0500001N9-00041-00211098491ADDAG12000GF107991011051008001071061MD1710011+9999
0111010010999991991010318004+70933-008667FM-12+0009ENJA V0200101N00931024001CN0500001N9+00041-00381098521ADDAA106000091AG14000GF108991011051008001071071KA1120M+00101MD1210031+9999OA149902831REMSYN017333   10010 91155
0050010010999991991010321004+70933-008667FM-12+0009ENJA V0200101N00931024001CN0500001N9+00071-00381098631ADDAG12000GF108991031081008001071071MD1210111+9999
0092010010999991991010400004+70933-008667FM-12+0009ENJA V0200301N00721060001CN0600001N9+00101-00431098641ADDAA106000091AG14000GF107991011001022501041071MD1110011+9999OA149902321REMSYN011333   91145
0050010010999991991010403004+70933-008667FM-12+0009ENJA V0200201N00571024001CN0400001N9+00011-00291098791ADDAG12000GF107991021081012501041071MD1310151+9999
0133010010999991991010406004+70933-008667FM-12+0009ENJA V0200401N01081009001CN0150001N9-00051-00251098881ADDAA199999929AG10000AY181061AY221061GF108991071081004501999999KA1120N-00061MD1210081+9999MW1851OA149902161REMSYN017333   21006 91142
0072010010999991991010409004+70933-008667FM-12+0009ENJA V0200201N01291009001CN0250001N9-00071-00191098981ADDAG12000AY181031AY221031GF108991051081004501071999MD1210101+9999MW1701
0134010010999991991010412004+70933-008667FM-12+0009ENJA V0200301N01391009001CN0250001N9-00131-00181099111ADDAA106999929AG10000AY181061AY271061GF108991061081004501071999MD1210131+9999MW1701OA149902731SA1+0049REMSYN023222// 00004 333   91153
0072010010999991991010415004+70933-008667FM-12+0009ENJA V0200101N01031024001CN0200001N9-00101-00431099171ADDAG12000AY171031AY221031GF108991041081004501071999MD1210061+9999MW1221
0133010010999991991010418004+70933-008667FM-12+0009ENJA V0209991V00411220001CN0400001N9-00071-00301099181ADDAA199999929AG10000AY171061AY211061GF104991021081008001061011KA1120M-00021MD1110011+9999MW1011OA149902321REMSYN017333   11002 91145
0050010010999991991010421004+70933-008667FM-12+0009ENJA V0200201N01031024001CN0400001N9-00121-00301099211ADDAG12000GF106991031081008001071999MD1210031+9999
0050010010999991991010503004+70933-008667FM-12+0009ENJA V0203501N00361220001CN0400001N9-00111-00341099291ADDAG12000GF104991031081008001071001MD1110021+9999
0111010010999991991010506004+70933-008667FM-12+0009ENJA V0203001N00571220001CN0400001N9-00141-00391099271ADDAA106000091AG14000GF104991021081008001061011KA1120N-00161MD1510021+9999OA149901701REMSYN017333   21016 91133
0050010010999991991010509004+70933-008667FM-12+0009ENJA V0200201N01081220001CN0500001N9-00121-00521099331ADDAG12000GF104991011081008001041021MD1210061+9999
0072010010999991991010515004+70933-008667FM-12+0009ENJA V0200201N01081012001CN0250001N9-00181-00371099371ADDAG12000AY181031AY221031GF106991051081008001061021MD1210021+9999MW1851
0133010010999991991010518004+70933-008667FM-12+0009ENJA V0200301N01591012001CN0150001N9-00221-00371099331ADDAA199999929AG10000AY181061AY231061GF107991071081008001999999KA1120M-00051MD1710041+9999MW1361OA149902571REMSYN017333   11005 91150
0050010010999991991010521004+70933-008667FM-12+0009ENJA V0200301N01801012001CN0042001N9-00301-00311099391ADDAG12000GF107991071081008001999999MD1710061+9999
0114010010999991991010600004+70933-008667FM-12+0009ENJA V0200201N01851009001CN0050001N9-00291-00411099401ADDAA106000191AG10000AY181061AY231061GF106991061081004501999999MD1210011+9999MW1381OA149903041REMSYN011333   91159
0088010010999991991010603004+70933-008667FM-12+0009ENJA V0200201N01641001201CN0020001N9-00361-00451099421ADDAG12000AY181031AY231031GA1091+999999999GF109991091999999999999999MD1210021+9999MW1851
0133010010999991991010606004+70933-008667FM-12+0009ENJA V0203601N01181009001CN0040001N9-00321-00401099411ADDAA199000191AG10000AY181061AY231061GF108991081081004501999999KA1120N-00381MD1710011+9999MW1851OA149902631REMSYN017333   21038 91151
0088010010999991991010609004+70933-008667FM-12+0009ENJA V0203601N01491000301CN0003001N9-00341-00351099371ADDAG12000AY181031AY231031GA1091+999999999GF109991091999999999999999MD1710071+9999MW1851
0134010010999991991010612004+70933-008667FM-12+0009ENJA V0200101N01491024001CN0180001N9-00351-00711099351ADDAA106000191AG10000AY181061AY231061GF107991041081008001071011MD1810021+9999MW1021OA149902731SA1+0019REMSYN023222// 00001 333   91153
0072010010999991991010615004+70933-008667FM-12+0009ENJA V0200101N01181009001CN0150001N9-00341-00651099291ADDAG12000AY181031AY231031GF107991051081004501071999MD1810061+9999MW1851
0133010010999991991010618004+70933-008667FM-12+0009ENJA V0203401N01081009001CN0030001N9-00301-00311099151ADDAA199000391AG10000AY181061AY231061GF107991071081004501999999KA1120M-00291MD1710141+9999MW1851OA149902111REMSYN017333   11029 91141
0072010010999991991010621004+70933-008667FM-12+0009ENJA V0200201N01131009001CN0060001N9-00191-00211099001ADDAG12000AY181031AY231031GF108991081081004501999999MD1710151+9999MW1381
0114010010999991991010700004+70933-008667FM-12+0009ENJA V0203601N01341009001CN0035001N9-00211-00231098901ADDAA106000391AG10000AY181061AY231061GF108991061081004501061999MD1610101+9999MW1851OA149902321REMSYN011333   91145
0072010010999991991010703004+70933-008667FM-12+0009ENJA V0203601N01231009001CN0040001N9-00331-00341098801ADDAG12000AY181031AY281031GF107991051081004501061999MD1710101+9999MW1851
0149010010999991991010706004+70933-008667FM-12+0009ENJA V0203601N01081000301CN0005001N9-00141-00141098551ADDAA199001091AG10001AY181061AY281061GA1091+999999999GF109991091999999999999999KA1120N-00371MD1710251+9999MW1861OA149902421REMSYN017333   21037 91147
0072010010999991991010709004+70933-008667FM-12+0009ENJA V0200201N01231009001CN0080001N9-00191-00361098601ADDAG12000AY181031AY231031GF107991071081004501999999MD1210051+9999MW1381
0134010010999991991010712004+70933-008667FM-12+0009ENJA V0200201N01181002101CN0050001N9-00171-00181098591ADDAA106000591AG10000AY181061AY231061GF107991071091002501061999MD1810011+9999MW1851OA149902321SA1-0029REMSYN023222// 01002 333   91145
0072010010999991991010715004+70933-008667FM-12+0009ENJA V0200201N01081004201CN0100001N9-00221-00411098651ADDAG12000AY181031AY231031GF107991071091004501061999MD1210061+9999MW1151
0133010010999991991010718004+70933-008667FM-12+0009ENJA V0203601N01131220001CN0200001N9-00241-00601098671ADDAA199000591AG10000AY181061AY231061GF104991031091004501061999KA1120M-00121MD1210021+9999MW1261OA149902111REMSYN017333   11012 91141
0072010010999991991010721004+70933-008667FM-12+0009ENJA V0203601N00821009001CN0200001N9-00251-00451098641ADDAG12000AY181031AY211031GF107991071081004501999999MD1710031+9999MW1151
0114010010999991991010800004+70933-008667FM-12+0009ENJA V0203601N01291004201CN0400001N9-00261-00361098521ADDAA106000191AG19000AY181061AY231061GF107991061091004501061999MD1710121+9999MW1361OA149901851REMSYN011333   91136
0088010010999991991010803004+70933-008667FM-12+0009ENJA V0203501N00771000301CN0003001N9-00381-00381098331ADDAG12001AY181031AY231031GA1091+999999999GF109991091999999999999999MD1710191+9999MW1861
0149010010999991991010806004+70933-008667FM-12+0009ENJA V0203501N01231000301CN0002001N9-00431-00431098081ADDAA199003091AG10001AY181061AY231061GA1091+999999999GF109991091999999999999999KA1120N-00441MD1710251+9999MW1861OA149902991REMSYN017333   21044 91158
0088010010999991991010809004+70933-008667FM-12+0009ENJA V0203501N01231000601CN0008001N9-00471-00471098001ADDAG12001AY181031AY231031GA1091+999999999GF109991091999999999999999MD1710081+9999MW1861
0150010010999991991010812004+70933-008667FM-12+0009ENJA V0203501N01131000601CN0006001N9-00361-00361097991ADDAA106004091AG10001AY181061AY231061GA1091+999999999GF109991091999999999999999MD1710011+9999MW1861OA149902781SA1+0009REMSYN023222// 00000 333   91154
0088010010999991991010815004+70933-008667FM-12+0009ENJA V0203501N00931000601CN0008001N9-00211-00211097971ADDAG12001AY181031AY231031GA1091+999999999GF109991091999999999999999MD1710021+9999MW1861
0152010010999991991010818004+70933-008667FM-12+0009ENJA V0203401N00821009001CN0030001N9-00221-00221098091ADDAA199005091AG10000AY181061AY231061GF108991071081004501999999KA1120M+99999MD1310121+9999MW1851OA149902471REMSYN017333   11048 91148EQDQ01 -00482ATMX  
0072010010999991991010821004+70933-008667FM-12+0009ENJA V0203201N00461024001CN0200001N9-00221-00221098161ADDAG12000AY181031AY231031GF108991041081004501071999MD1210071+9999MW1261
0114010010999991991010900004+70933-008667FM-12+0009ENJA V0203501N00621002101CN0120001N9+99999+99999098191ADDAA106000191AG10000AY181061AY271061GF108991081061002501999999MD1110031+9999MW1771OA149901801REMSYN011333   91135
0072010010999991991010903004+70933-008667FM-12+0009ENJA V0203401N00511009001CN0140001N9-00161-00171098211ADDAG12000AY181031AY271031GF107991071081004501999999MD1310021+9999MW1851
0133010010999991991010906004+70933-008667FM-12+0009ENJA V0203101N00821220001CN0250001N9-00241-00341098211ADDAA199000391AG10000AY181061AY271061GF104991041081008001001001KA1120N-00271MD1510001+9999MW1011OA149901541REMSYN017333   21027 91130
0050010010999991991010909004+70933-008667FM-12+0009ENJA V0203101N00571220001CN0250001N9-00191-00421098261ADDAG12000GF102991021081008001001001MD1210051+9999
0112010010999991991010912004+70933-008667FM-12+0009ENJA V0202801N00101012001CN0300001N9-00161-00361098321ADDAA106000091AG14000GF107991061081008001061999MD1210061+9999OA149901181SA1+0039REMSYN023222// 00003 333   91123
0050010010999991991010915004+70933-008667FM-12+0009ENJA V0203001N00671220001CN0400001N9-00221-00251098341ADDAG12000GF104991041081008001001001MD1110021+9999
0111010010999991991010918004+70933-008667FM-12+0009ENJA V0202501N00261012001CN0300001N9-00211-00461098391ADDAA106000091AG14000GF106991061081008001999999KA1120M-00121MD1210051+9999OA149900981REMSYN017333   11012 91119
0050010010999991991010921004+70933-008667FM-12+0009ENJA V0202501N00151012001CN0250001N9-00291-00531098511ADDAG12000GF108991081081008001999999MD1210121+9999
0050010010999991991011003004+70933-008667FM-12+0009ENJA V0209991C00001007501CN0300001N9-00251-00481098681ADDAG12000GF108991081051008001999999MD1210061+9999
0133010010999991991011006004+70933-008667FM-12+0009ENJA V0203601N00101024001CN0200001N9-00301-00311098701ADDAA199000591AG19000AY181061AY221061GF106991041081004501071011KA1120N-00361MD1210021+9999MW1021OA149900511REMSYN017333   21036 91110
0072010010999991991011009004+70933-008667FM-12+0009ENJA V0203501N00361012001CN0200001N9-00211-00461098741ADDAG12000AY181031AY221031GF107991071081008001999999MD1310041+9999MW1021
0134010010999991991011012004+70933-008667FM-12+0009ENJA V0203601N00211001201CN0045001N9-00141-00351098711ADDAA106000391AG10000AY181061AY271061GF108991081071001501999999MD1810031+9999MW1771OA149900931SA1+0029REMSYN023222// 00002 333   91118
0072010010999991991011015004+70933-008667FM-12+0009ENJA V0200101N00361004201CN0120001N9+00001-00161098661ADDAG12000AY171031AY221031GF108991081051004501999999MD1510031+9999MW1021
0133010010999991991011018004+70933-008667FM-12+0009ENJA V0201001N00871004201CN0200001N9+00051+00051098761ADDAA199001091AG10000AY171061AY221061GF107991071051004501999999KA1120M+00071MD1210091+9999MW1021OA149901291REMSYN017333   10007 91125
0050010010999991991011021004+70933-008667FM-12+0009ENJA V0200901N00671002101CN0200001N9+00021+00021098891ADDAG12000GF107991061051002501071999MD1210131+9999
0114010010999991991011100004+70933-008667FM-12+0009ENJA V0201001N00461004201CN0200001N9+00031+00031099031ADDAA106999929AG10000AY171061AY221061GF108991081061004501999999MD1210141+9999MW1221OA149901341REMSYN011333   91126
0072010010999991991011103004+70933-008667FM-12+0009ENJA V0200901N00671009001CN0200001N9+00071+00061099121ADDAG12000AY171031AY221031GF108991061081004501071999MD1210091+9999MW1021
0133010010999991991011106004+70933-008667FM-12+0009ENJA V0201001N00671001201CN0100001N9+00031+00031099271ADDAA199000591AG10000AY181061AY271061GF108991081061001501999999KA1120N+00001MD1210151+9999MW1831OA149901241REMSYN017333   21000 91124
0072010010999991991011109004+70933-008667FM-12+0009ENJA V0200901N00771024001CN0200001N9+00091+00081099471ADDAG12000AY181031AY221031GF107991041081004501071999MD1210201+9999MW1021
0134010010999991991011112004+70933-008667FM-12+0009ENJA V0200901N00771004201CN0300001N9+00071+00061099611ADDAA106999929AG10000AY181061AY221061GF108991071051004501071999MD1210141+9999MW1021OA149901031SA1+0009REMSYN023222// 00000 333   91120
0050010010999991991011115004+70933-008667FM-12+0009ENJA V0200901N00721009001CN0300001N9+00031+00031099751ADDAG12000GF108991061081004501071999MD1210141+9999
0111010010999991991011118004+70933-008667FM-12+0009ENJA V0200901N00871006001CN0250001N9+99999+99999099851ADDAA199999929AG10000GF108991061081002501071999KA1120M+00091MD1210101+9999OA149901241REMSYN017333   10009 91124
0072010010999991991011121004+70933-008667FM-12+0009ENJA V0201001N00981024001CN0200001N9-00011-00011100001ADDAG12000AY181031AY221031GF106991021081004501071011MD1210151+9999MW1851
0114010010999991991011200004+70933-008667FM-12+0009ENJA V0200901N00821006001CN0080001N9-00011-00011100151ADDAA106999929AG10000AY181061AY221061GF108991071081002501999999MD1210151+9999MW1851OA149901241REMSYN011333   91124
0072010010999991991011203004+70933-008667FM-12+0009ENJA V0201001N00671024001CN0300001N9+00041+00041100221ADDAG12000AY181031AY221031GF107991041081008001031021MD1210071+9999MW1261
0133010010999991991011206004+70933-008667FM-12+0009ENJA V0209991C00001002101CN0050001N9-00021-00021100331ADDAA199000591AG10000AY181061AY271061GF108991081071002501999999KA1120N-00021MD1010111+9999MW1701OA149901181REMSYN017333   21002 91123
0088010010999991991011209004+70933-008667FM-12+0009ENJA V0201701N00461002401CN0025001N9+00021+00021100411ADDAG12000AY171031AY271031GA1091+999999999GF109991091999999999999999MD1210081+9999MW1711
0134010010999991991011212004+70933-008667FM-12+0009ENJA V0202301N00671004201CN0200001N9-00161-00161100531ADDAA106003091AG10000AY171061AY271061GF108991071051004501071999MD1210121+9999MW1221OA149901131SA1+0009REMSYN023222// 00000 333   91122
0133010010999991991011218004+70933-008667FM-12+0009ENJA V0202501N00621004201CN0050001N9-00571-00611100761ADDAA199003091AG10000AY171061AY221061GF108991071051004501999999KA1120M+00031MD1110071+9999MW1701OA149900931REMSYN017333   10003 91118
0072010010999991991011221004+70933-008667FM-12+0009ENJA V0202401N00721004201CN0050001N9-00431-00481100801ADDAG12000AY171031AY271031GF108991071051004501999999MD1210041+9999MW1711
0114010010999991991011300004+70933-008667FM-12+0009ENJA V0202701N00821009001CN0080001N9-00271-00411100911ADDAA106000591AG10000AY171061AY231061GF108991081081004501999999MD1310111+9999MW1361OA149901701REMSYN011333   91133
0072010010999991991011303004+70933-008667FM-12+0009ENJA V0202801N01031009001CN0060001N9-00401-00511101261ADDAG12000AY181031AY231031GF108991081081004501999999MD1210351+9999MW1361
0133010010999991991011306004+70933-008667FM-12+0009ENJA V0203301N00721009001CN0060001N9-00491-00601101661ADDAA199001091AG10000AY181061AY231061GF108991081081004501999999KA1120N-00581MD1210401+9999MW1851OA149902371REMSYN017333   21058 91146
0072010010999991991011309004+70933-008667FM-12+0009ENJA V0203401N00771009001CN0100001N9-00511-00711102101ADDAG12000AY181031AY231031GF108991081081004501999999MD1210441+9999MW1851
0134010010999991991011312004+70933-008667FM-12+0009ENJA V0203601N00361009001CN0200001N9-00541-00761102331ADDAA106000191AG10000AY181061AY231061GF107991071081004501061999MD1210231+9999MW1261OA149901801SA1+0019REMSYN023222// 00001 333   91135
0050010010999991991011315004+70933-008667FM-12+0009ENJA V0203101N00151024001CN0300001N9-00651-00821102351ADDAG12000GF108991021081008001071999MD1810021+9999
0111010010999991991011318004+70933-008667FM-12+0009ENJA V0201701N00461012001CN0250001N9-00401-00611102241ADDAA199000191AG10000GF108991081081008001999999KA1120M-00401MD1710111+9999OA149900621REMSYN017333   11040 91112
0072010010999991991011321004+70933-008667FM-12+0009ENJA V0201201N00981009001CN0080001N9-00151-00281101941ADDAG12000AY181031AY221031GF108991081081004501999999MD1810301+9999MW1851
0130010010999991991011400004+70933-008667FM-12+0009ENJA V0201201N01081001201CN0015001N9+00041+00041101361ADDAA106000191AG10001AY181061AY271061GA1091+999999999GF109991091999999999999999MD1710581+9999MW1731OA149901651REMSYN011333   91132
0072010010999991991011403004+70933-008667FM-12+0009ENJA V0201501N01231002101CN0030001N9+00161+00161100671ADDAG12001AY171031AY261031GF108991071061002501021999MD1710691+9999MW1611
0133010010999991991011406004+70933-008667FM-12+0009ENJA V0201701N01341002101CN0050001N9+00151+00151100111ADDAA199004091AG10001AY171061AY261061GF108991071061002501021999KA1120N-00401MD1710561+9999MW1681OA149901961REMSYN017333   21040 91138
0072010010999991991011409004+70933-008667FM-12+0009ENJA V0202101N01181001201CN0050001N9+00171+00171099541ADDAG12001AY171031AY261031GF108991051071001501021999MD1710571+9999MW1631
0134010010999991991011412004+70933-008667FM-12+0009ENJA V0202201N00931000601CN0022001N9+00211+00211099201ADDAA106006091AG10001AY171061AY261061GF108991061071000751021999MD1710341+9999MW1631OA149901801SA1+0039REMSYN023222// 00003 333   91135
0072010010999991991011415004+70933-008667FM-12+0009ENJA V0202201N01231001201CN0035001N9+00231+00231098861ADDAG12000AY161031AY221031GF108991081071001501999999MD1710341+9999MW1101
0133010010999991991011418004+70933-008667FM-12+0009ENJA V0202201N00981002101CN0035001N9+00231+00231098561ADDAA199007091AG10000AY161061AY221061GF108991081061002501999999KA1120M+00271MD1710301+9999MW1101OA149901751REMSYN017333   10027 91134
0088010010999991991011421004+70933-008667FM-12+0009ENJA V0202701N01751002401CN0025001N9-00061-00151098721ADDAG12000AY181031AY221031GA1091+999999999GF109991091999999999999999MD1310161+9999MW1851
0114010010999991991011500004+70933-008667FM-12+0009ENJA V0202701N01491220001CN0300001N9-00231-00421099341ADDAA106000191AG10000AY181061AY211061GF103991011081004501071011MD1210621+9999MW1261OA149903091REMSYN011333   91160
0050010010999991991011503004+70933-008667FM-12+0009ENJA V0202701N00821024001CN0300001N9-00061-00131099801ADDAG12000GF106991031081004501071011MD1210461+9999
0111010010999991991011506004+70933-008667FM-12+0009ENJA V0202301N01031220001CN0300001N9+00141-00131099881ADDAA199000191AG10000GF104991011081004501071011KA1120N-00251MD1110081+9999OA149902781REMSYN017333   21025 91154
0050010010999991991011509004+70933-008667FM-12+0009ENJA V0201901N00621012001CN0200001N9+00111+00101099971ADDAG12000GF107991071081008001999999MD1210091+9999
0134010010999991991011512004+70933-008667FM-12+0009ENJA V0202101N00621004201CN0100001N9+00121+00111099941ADDAA106000091AG14000AY111061AY211061GF108991061051004501021999MD1710031+9999MW1101OA149901441SA1+0079REMSYN023222// 00007 333   91128
0072010010999991991011515004+70933-008667FM-12+0009ENJA V0201901N00411001201CN0010001N9+00121+00121099711ADDAG12000AY151031AY221031GF108991081061001501999999MD1810231+9999MW1501
0149010010999991991011518004+70933-008667FM-12+0009ENJA V0201901N00311000601CN0008001N9+00091+00091099471ADDAA199001091AG10000AY151061AY241061GA1091+999999999GF109991091999999999999999KA1120M+00161MD1710241+9999MW1511OA149900881REMSYN017333   10016 91117
0072010010999991991011521004+70933-008667FM-12+0009ENJA V0202101N00571001201CN0035001N9+00181+00181099351ADDAG12000AY151031AY241031GF108991061061001501021999MD1710121+9999MW1611
0114010010999991991011600004+70933-008667FM-12+0009ENJA V0202101N00621001201CN0040001N9+00151+00151099241ADDAA106007091AG10001AY171061AY261061GF108991071071001501021999MD1710111+9999MW1681OA149901181REMSYN011333   91123
0088010010999991991011603004+70933-008667FM-12+0009ENJA V0202101N00721000301CN0003001N9+00171+00171099101ADDAG12000AY171031AY261031GA1091+999999999GF109991091999999999999999MD1710141+9999MW1511
0133010010999991991011606004+70933-008667FM-12+0009ENJA V0202101N00621001201CN0010001N9+00171+00171098911ADDAA199014091AG10000AY171061AY261061GF108991081071001501999999KA1120N+00081MD1710191+9999MW1581OA149901181REMSYN017333   20008 91123
0072010010999991991011609004+70933-008667FM-12+0009ENJA V0202101N00621001201CN0025001N9+00171+00171098741ADDAG12000AY161031AY251031GF108991081061001501999999MD1710171+9999MW1581
0134010010999991991011612004+70933-008667FM-12+0009ENJA V0202101N00981001201CN0015001N9+00161+00161098611ADDAA106006091AG10000AY161061AY251061GF108991081061001501999999MD1710131+9999MW1201OA149901291SA1+0119REMSYN023222// 00011 333   91125
0072010010999991991011615004+70933-008667FM-12+0009ENJA V0202201N01231024001CN0150001N9+00191+00191098681ADDAG12000AY151031AY221031GF105991031081002501071999MD1310071+9999MW1011
0133010010999991991011618004+70933-008667FM-12+0009ENJA V0202201N01231220001CN0200001N9+00161+00031099071ADDAA199006091AG10000AY151061AY211061GF102991011081008001001011KA1120M+00301MD1210391+9999MW1011OA149902571REMSYN017333   10030 91150
0050010010999991991011621004+70933-008667FM-12+0009ENJA V0202201N01131220001CN0250001N9+00161+00031099271ADDAG12000GF101991001001999999001011MD1210201+9999
0092010010999991991011700004+70933-008667FM-12+0009ENJA V0202401N01181220001CN0250001N9+00201-00271099471ADDAA106000091AG14000GF101991001001999999001011MD1210201+9999OA149902161REMSYN011333   91142
0050010010999991991011703004+70933-008667FM-12+0009ENJA V0202401N01081220001CN0250001N9+00171-00201099681ADDAG12000GF101991001001999999001011MD1210211+9999
0111010010999991991011706004+70933-008667FM-12+0009ENJA V0202101N00261220001CN0200001N9+00081+00021099781ADDAA106000091AG14000GF102991001001999999001011KA1120N+00071MD1110101+9999OA149901851REMSYN017333   20007 91136
0050010010999991991011709004+70933-008667FM-12+0009ENJA V0202001N00411220001CN0200001N9+00071+00061099861ADDAG12000GF102991001001999999001011MD1210081+9999
0112010010999991991011712004+70933-008667FM-12+0009ENJA V0202101N00311024001CN0250001N9+00041+00041099741ADDAA106000091AG14000GF107991011061000751071021MD1810121+9999OA149900571SA1+0109REMSYN023222// 00010 333   91111
0072010010999991991011715004+70933-008667FM-12+0009ENJA V0201901N00311000301CN0015001N9+00081+00081099421ADDAG12000AY121031AY221031GF108991081061000251999999MD1710321+9999MW1101
0136010010999991991011718004+70933-008667FM-12+0009ENJA V0201201N00151000301CN0003001N9+00061+00061099101ADDAA106000091AG14000AY141061AY221061GA1091+999999999GF109991091999999999999999MD1710321+9999MW1471OA149900461REMSYN017333   07717 91109
0088010010999991991011721004+70933-008667FM-12+0009ENJA V0200701N00101000301CN0003001N9+00021+00021098861ADDAG12000AY141031AY221031GA1091+999999999GF109991091999999999999999MD1710241+9999MW1471
0130010010999991991011800004+70933-008667FM-12+0009ENJA V0201101N00361000301CN0005001N9+00041+00041098711ADDAA106999929AG10000AY171061AY241061GA1091+999999999GF109991091999999999999999MD1710151+9999MW1451OA149900411REMSYN011333   91108
0072010010999991991011803004+70933-008667FM-12+0009ENJA V0201101N00821001201CN0025001N9+00081+00081098481ADDAG12000AY171031AY241031GF108991081061001501999999MD1810231+9999MW1101
0133010010999991991011806004+70933-008667FM-12+0009ENJA V0201901N00871004201CN0150001N9+00011+00011098441ADDAA199001091AG10000AY171061AY241061GF108991081051004501999999KA1120N-00021MD1610041+9999MW1021OA149901341REMSYN017333   21002 91126
0072010010999991991011809004+70933-008667FM-12+0009ENJA V0201701N01231006001CN0060001N9+00071+00061098231ADDAG12000AY181031AY221031GF108991081081002501999999MD1710211+9999MW1261
0134010010999991991011812004+70933-008667FM-12+0009ENJA V0202601N01181006001CN0120001N9+00031-00031098481ADDAA106000591AG10000AY181061AY221061GF107991061081002501071999MD1310251+9999MW1011OA149901851SA1+0099REMSYN023222// 00009 333   91136
0050010010999991991011815004+70933-008667FM-12+0009ENJA V0202801N01441006001CN0120001N9-00311-00391099471ADDAG12000GF107991061081002501071999MD1210991+9999
0111010010999991991011818004+70933-008667FM-12+0009ENJA V0202301N00571024001CN0250001N9-00281-00401099681ADDAA199000591AG10000GF108991031051004501071999KA1120M+00111MD1110211+9999OA149902631REMSYN017333   10011 91151
0072010010999991991011821004+70933-008667FM-12+0009ENJA V0200601N00311024001CN0150001N9-00271-00281099171ADDAG12000AY171031AY221031GF108991041051004501021999MD1810511+9999MW1021
0130010010999991991011900004+70933-008667FM-12+0009ENJA V0201001N01541000601CN0010001N9-00041-00041098481ADDAA106001091AG10001AY171061AY231061GA1091+999999999GF109991091999999999999999MD1710691+9999MW1731OA149902211REMSYN011333   91143
0072010010999991991011903004+70933-008667FM-12+0009ENJA V0201401N00721001201CN0030001N9+00201+00201097571ADDAG12001AY171031AY261031GF108991051071001501021999MD1710911+9999MW1631
0133010010999991991011906004+70933-008667FM-12+0009ENJA V0201201N00671001201CN0040001N9+00181+00181096701ADDAA199008091AG10001AY171061AY261061GF108991051071001501021999KA1120N-00301MD1710871+9999MW1611OA149902211REMSYN017333   21030 91143
0072010010999991991011909004+70933-008667FM-12+0009ENJA V0201001N00821001201CN0040001N9+00051+00051095771ADDAG12001AY171031AY261031GF108991081061001501999999MD1710931+9999MW1681
0134010010999991991011912004+70933-008667FM-12+0009ENJA V0202601N00771006001CN0050001N9+00101+00101095671ADDAA106004091AG10000AY171061AY261061GF108991061081002501071999MD1510101+9999MW1101OA149901341SA1+0089REMSYN023222// 00008 333   91126
0072010010999991991011915004+70933-008667FM-12+0009ENJA V0203101N01541006001CN0010001N9-00241-00251095991ADDAG12000AY181031AY221031GF108991081081001501999999MD1210321+9999MW1851
0149010010999991991011918004+70933-008667FM-12+0009ENJA V0203501N01441002401CN0025001N9-00481-00551096541ADDAA199007091AG10000AY181061AY231061GA1091+999999999GF109991091999999999999999KA1120M+00211MD1210551+9999MW1851OA149902471REMSYN017333   10021 91148
0072010010999991991011921004+70933-008667FM-12+0009ENJA V0203501N01231006001CN0030001N9-00591-00721097231ADDAG12000AY181031AY231031GF108991081081002501999999MD1210691+9999MW1851
0130010010999991991012000004+70933-008667FM-12+0009ENJA V0203601N01441000301CN0005001N9-00741-00891097821ADDAA106000591AG10000AY181061AY231061GA1091+999999999GF109991091999999999999999MD1210591+9999MW1851OA149902881REMSYN011333   91156
0072010010999991991012003004+70933-008667FM-12+0009ENJA V0203601N01441009001CN0040001N9-00751-00981098401ADDAG12000AY181031AY231031GF108991081081004501999999MD1210581+9999MW1851
0133010010999991991012006004+70933-008667FM-12+0009ENJA V0203501N01341009001CN0050001N9-00721-00871098931ADDAA199001091AG10000AY181061AY231061GF108991081081004501999999KA1120N-00801MD1210531+9999MW1851OA149902681REMSYN017333   21080 91152
0092010010999991991012009004+70933-008667FM-12+0009ENJA V0203501N01181009001CN0050001N9-00751-00971099441ADDAG12000AY181031AY231031GF107991071081004501999999MD1210511+9999MW1851REMSYN011333   05326
0134010010999991991012012004+70933-008667FM-12+0009ENJA V0203301N00981009001CN0250001N9-00761-01231100021ADDAA106999929AG10000AY181061AY231061GF105991051081004501001011MD1210581+9999MW1011OA149902421SA1+0039REMSYN023222// 00003 333   91147
0050010010999991991012015004+70933-008667FM-12+0009ENJA V0203001N00571220001CN0300001N9-00701-01231100471ADDAG12000GF101991011081004501001001MD1210451+9999
0133010010999991991012018004+70933-008667FM-12+0009ENJA V0202701N00151009001CN0200001N9-00621-01071100721ADDAA199999929AG10000AY181061AY221061GF107991061081004501061999KA1120M-00611MD1110251+9999MW1851OA149902261REMSYN017333   11061 91144
0072010010999991991012021004+70933-008667FM-12+0009ENJA V0202601N00311009001CN0250001N9-00341-00771100801ADDAG12000AY181031AY221031GF107991051081004501061999MD1010081+9999MW1851
0114010010999991991012100004+70933-008667FM-12+0009ENJA V0202401N00821012001CN0300001N9-00211-00671100771ADDAA106999929AG10000AY181061AY221061GF106991061081008001999999MD1510031+9999MW1011OA149901181REMSYN011333   91123
0072010010999991991012103004+70933-008667FM-12+0009ENJA V0202701N02061012001CN0200001N9-00081-00481100661ADDAG11000AY131031AY221031GF106991061081008001999999MD1510111+9999MW1021
0133010010999991991012106004+70933-008667FM-12+0009ENJA V0202601N01231012001CN0200001N9+00061-00201100811ADDAA199999929AG10000AY131061AY221061GF108991081081008001999999KA1120N-00621MD1210151+9999MW1031OA149903091REMSYN017333   21062 91160
0050010010999991991012109004+70933-008667FM-12+0009ENJA V0202501N00621012001CN0300001N9-00021-00251100741ADDAG12000GF108991081081008001999999MD1210131+9999
0112010010999991991012112004+70933-008667FM-12+0009ENJA V0202101N01031024001CN0500001N9-00011-00131100341ADDAA106000091AG14000GF108991021081008001071999MD1710401+9999OA149902061SA1+0039REMSYN023222// 00003 333   91140
0168010010999991991012118004+70933-008667FM-12+0009ENJA V0202701N00151000601CN0022001N9+00031+00031098952ADDAA199005091AG10000AY171061AY251061GF108991081061000751999999KA1120M+00081MD1710582+9999MW1511OA149901291REMSYN017333   10008 91125EQDQ01+098953APOSLPQ02+000582APC3  
0072010010999991991012121004+70933-008667FM-12+0009ENJA V0202601N01641012001CN0100001N9+00431+00011098751ADDAG12000AY151031AY221031GF107991071081008001999999MD1510201+9999MW1011
0114010010999991991012200004+70933-008667FM-12+0009ENJA V0202701N01701009001CN0150001N9+00141-00181098901ADDAA106000391AG10000AY151061AY221061GF107991071081004501999999MD1210151+9999MW1021OA149902931REMSYN011333   91157
0050010010999991991012203004+70933-008667FM-12+0009ENJA V0202601N01641009001CN0250001N9-00151-00341099131ADDAG12000GF107991071081004501999999MD1210231+9999
0111010010999991991012206004+70933-008667FM-12+0009ENJA V0202601N01901009001CN0250001N9-00191-00411099481ADDAA199000391AG10000GF108991081081004501999999KA1120N-00201MD1210351+9999OA149903191REMSYN017333   21020 91162
0050010010999991991012209004+70933-008667FM-12+0009ENJA V0202501N01341012001CN0250001N9-00081-00381099671ADDAG12000GF107991071081008001999999MD1210191+9999
0112010010999991991012212004+70933-008667FM-12+0009ENJA V0202501N01181009001CN0220001N9+00031-00371099691ADDAA106000091AG14000GF106991051081004501041011MD1110021+9999OA149902991SA1+0059REMSYN023222// 00005 333   91158
0088010010999991991012215004+70933-008667FM-12+0009ENJA V0202701N01181000301CN0002001N9-00111-00121099371ADDAG12000AY171031AY221031GA1091+999999999GF109991091999999999999999MD1710321+9999MW1721
0149010010999991991012218004+70933-008667FM-12+0009ENJA V0202601N01541000601CN0008001N9-00461-00591099341ADDAA199001091AG19000AY181061AY271061GA1091+999999999GF109991091999999999999999KA1120M+00081MD1710031+9999MW1851OA149902881REMSYN017333   10008 91156
0072010010999991991012221004+70933-008667FM-12+0009ENJA V0202101N00931004201CN0050001N9-00541-00551099961ADDAG12000AY181031AY231031GF108991081091004501999999MD1310621+9999MW1261
0130010010999991991012300004+70933-008667FM-12+0009ENJA V0202701N01231000601CN0010001N9-00381-00381100661ADDAA106000591AG10001AY181061AY231061GA1091+999999999GF109991091999999999999999MD1210701+9999MW1861OA149903191REMSYN011333   91162
0088010010999991991012303004+70933-008667FM-12+0009ENJA V0203501N00721001201CN0015001N9-00271-00331101361ADDAG12001AY181031AY231031GA1091+999999999GF109991091999999999999999MD1210701+9999MW1861
0133010010999991991012306004+70933-008667FM-12+0009ENJA V0203501N00411004201CN0030001N9-00321-00391101891ADDAA199003091AG10000AY181061AY231061GF108991081091004501999999KA1120N-00581MD1210531+9999MW1851OA149902261REMSYN017333   21058 91144
0072010010999991991012309004+70933-008667FM-12+0009ENJA V0203401N00721004201CN0050001N9-00401-00531102361ADDAG12000AY181031AY221031GF108991081091004501999999MD1210471+9999MW1851
0134010010999991991012312004+70933-008667FM-12+0009ENJA V0203101N00211012001CN0300001N9-00511-00901102691ADDAA106000191AG10000AY181061AY221061GF107991061081008001041011MD1110291+9999MW1021OA149901441SA1+0049REMSYN023222// 00004 333   91128
0050010010999991991012315004+70933-008667FM-12+0009ENJA V0202801N00261024001CN0400001N9-00581-00991102621ADDAG12000GF106991031051008001041051MD1710031+9999
0111010010999991991012318004+70933-008667FM-12+0009ENJA V0202101N00621007501CN0400001N9-00431-00731102401ADDAA199000191AG10000GF108991051051008001071999KA1120M-00231MD1710221+9999OA149900721REMSYN017333   11023 91114
0050010010999991991012321004+70933-008667FM-12+0009ENJA V0202101N01031007501CN0400001N9-00221-00341102091ADDAG12000GF108991071051008001071999MD1710311+9999
0114010010999991991012400004+70933-008667FM-12+0009ENJA V0202101N01131002101CN0035001N9-00051-00051101541ADDAA106999929AG10000AY151061AY221061GF108991081071002501999999MD1710551+9999MW1561OA149901341REMSYN011333   91126
0072010010999991991012403004+70933-008667FM-12+0009ENJA V0202501N01231002101CN0100001N9+00271+00271100911ADDAG12001AY161031AY251031GF108991081071002501999999MD1710631+9999MW1611
0133010010999991991012406004+70933-008667FM-12+0009ENJA V0202601N01541220001CN0400001N9+00321-00081100461ADDAA199000591AG10000AY161061AY251061GF103991011021008001001011KA1120N-00431MD1710451+9999MW1011OA149902681REMSYN017333   21043 91152
0050010010999991991012409004+70933-008667FM-12+0009ENJA V0202501N01801024001CN0400001N9+00201-00121100161ADDAG12000GF108991011051008001071011MD1710301+9999
0112010010999991991012412004+70933-008667FM-12+0009ENJA V0202601N01541024001CN0250001N9+99999+99999099901ADDAA106000091AG14000GF107991011011004501071999MD1710261+9999OA149902931SA1+0049REMSYN023222// 00004 333   91157
0050010010999991991012415004+70933-008667FM-12+0009ENJA V0202601N01641024001CN0250001N9+00201-00121099611ADDAG12000GF107991011011004501071011MD1710291+9999
0111010010999991991012418004+70933-008667FM-12+0009ENJA V0202601N01441012001CN0250001N9+00171-00041099481ADDAA106000091AG14000GF107991051081008001061011KA1120M+00331MD1610131+9999OA149903091REMSYN017333   10033 91160
0050010010999991991012421004+70933-008667FM-12+0009ENJA V0202701N01341012001CN0200001N9+00021-00351099501ADDAG12000GF107991051081008001061011MD1210021+9999
0092010010999991991012500004+70933-008667FM-12+0009ENJA V0203301N00771004201CN0180001N9-00501-00671099981ADDAA106000091AG14000GF108991051051004501071999MD1210481+9999OA149902881REMSYN011333   91156
0072010010999991991012503004+70933-008667FM-12+0009ENJA V0203301N00931009001CN0150001N9-00751-00941100471ADDAG12000AY181031AY221031GF108991081081004501999999MD1210491+9999MW1261
0133010010999991991012506004+70933-008667FM-12+0009ENJA V0203501N00931004201CN0150001N9-00641-00851100841ADDAA199000191AG10000AY181061AY271061GF108991071051004501999999KA1120N-00781MD1210371+9999MW1711OA149902321REMSYN017333   21078 91145
0072010010999991991012509004+70933-008667FM-12+0009ENJA V0203301N01231009001CN0090001N9-00581-00781101011ADDAG12000AY181031AY221031GF108991071081004501999999MD1110171+9999MW1851
0134010010999991991012512004+70933-008667FM-12+0009ENJA V0203601N00511004201CN0200001N9-00471-00541101261ADDAA106999929AG10000AY181061AY221061GF108991071051004501999999MD1210251+9999MW1021OA149902471SA1+0049REMSYN023222// 00004 333   91148
0036010010999991991012514004+70933-008667FM-12+0009ENJA V02099999999999999999N0250001N9-00361-00461101321ADDAG12999GF107991999999004501999999
0072010010999991991012515004+70933-008667FM-12+0009ENJA V0200101N00461009001CN0250001N9-00361-00461101321ADDAG12000AY171031AY221031GF107991071081004501999999MD1010061+9999MW1011
0133010010999991991012518004+70933-008667FM-12+0009ENJA V0203201N00051004201CN0250001N9-00351-00431101321ADDAA199999929AG10000AY171061AY221061GF108991081051004501999999KA1120M+00311MD1510001+9999MW1031OA149901181REMSYN017333   10031 91123
0050010010999991991012521004+70933-008667FM-12+0009ENJA V0201201N00511007501CN0250001N9-00301-00441101201ADDAG12000GF108991081051008001999999MD1710081+9999
0092010010999991991012600004+70933-008667FM-12+0009ENJA V0201201N00511007501CN0300001N9-00281-00381100961ADDAA106000091AG14000GF108991081051008001999999MD1710241+9999OA149900671REMSYN011333   91113
0072010010999991991012603004+70933-008667FM-12+0009ENJA V0201001N00931002101CN0070001N9-00091-00091100471ADDAG11000AY121031AY221031GF108991081061002501999999MD1710491+9999MW1101
0149010010999991991012606004+70933-008667FM-12+0009ENJA V0202101N00821000301CN0005001N9+00071+00071100101ADDAA199000391AG10000AY171061AY241061GA1091+999999999GF109991091999999999999999KA1120N-00351MD1710371+9999MW1451OA149901341REMSYN017333   21035 91126
0088010010999991991012609004+70933-008667FM-12+0009ENJA V0202001N00361000301CN0003001N9+00051+00051099951ADDAG12000AY151031AY241031GA1091+999999999GF109991091999999999999999MD1710151+9999MW1511
0134010010999991991012612004+70933-008667FM-12+0009ENJA V0202401N00871002101CN0100001N9-00041-00101099871ADDAA106000391AG10000AY151061AY241061GF108991081061002501999999MD1510081+9999MW1101OA149901751SA1+0049REMSYN023222// 00004 333   91134
0072010010999991991012615004+70933-008667FM-12+0009ENJA V0202001N014419999999N0100001N9-00111-00251100001ADDAG12000AY121031AY221031GF107991999999002501999999MD1310131+9999MW1101
0133010010999991991012618004+70933-008667FM-12+0009ENJA V0202601N01031009001CN0150001N9-00301-00601100401ADDAA199000591AG10000AY181061AY231061GF107991071081004501041999KA1120M+00081MD1210401+9999MW1151OA149902681REMSYN017333   10008 91152
0072010010999991991012621004+70933-008667FM-12+0009ENJA V0202401N01341009001CN0250001N9+00101-00161100261ADDAG12000AY181031AY221031GF107991071081004501999999MD1810141+9999MW1021
0114010010999991991012700004+70933-008667FM-12+0009ENJA V0202401N01591004201CN0150001N9+00101-00331100161ADDAA106999929AG10000AY181061AY221061GF107991071091004501999999MD1610101+9999MW1851OA149902731REMSYN011333   91153
0072010010999991991012703004+70933-008667FM-12+0009ENJA V0202501N01391220001CN0300001N9-00061-00471100271ADDAG12000AY181031AY211031GF102991021081004501001011MD1210111+9999MW1011
0133010010999991991012706004+70933-008667FM-12+0009ENJA V0202801N01081220001CN0300001N9-00131-00491100621ADDAA199999929AG10000AY181061AY211061GF101991011081004501001001KA1120N-00311MD1210351+9999MW1011OA149902881REMSYN017333   21031 91156
0050010010999991991012709004+70933-008667FM-12+0009ENJA V0202901N00981024001CN0500001N9-00121-00481100951ADDAG12000GF107991011051008001051999MD1210331+9999
0112010010999991991012712004+70933-008667FM-12+0009ENJA V0202601N00411024001CN0500001N9-00081-00381101271ADDAA106000091AG14000GF107991011051004501071001MD1210321+9999OA149901801SA1+0039REMSYN023222// 00003 333   91135
0050010010999991991012715004+70933-008667FM-12+0009ENJA V0203601N00151024001CN0500001N9-00061-00501101361ADDAG12000GF107991011051008001071061MD1210091+9999
0111010010999991991012718004+70933-008667FM-12+0009ENJA V0203201N00101024001CN0500001N9-00081-00271101401ADDAA106000091AG14000GF107991011051004501071999KA1120M-00011MD1210041+9999OA149900881REMSYN017333   11001 91117
0050010010999991991012721004+70933-008667FM-12+0009ENJA V0202101N00721060001CN0400001N9+00021-00041101301ADDAG12000GF106991011051008001071061MD1710101+9999
0130010010999991991012800004+70933-008667FM-12+0009ENJA V0201901N00571000301CN0003001N9+00061+00061101121ADDAA106999929AG10000AY151061AY241061GA1091+999999999GF109991091999999999999999MD1710181+9999MW1501OA149900981REMSYN011333   91119
0088010010999991991012803004+70933-008667FM-12+0009ENJA V0202101N00981000301CN0002001N9+00101+00101100901ADDAG12000AY151031AY241031GA1091+999999999GF109991091999999999999999MD1710221+9999MW1511
0149010010999991991012806004+70933-008667FM-12+0009ENJA V0202101N00771000301CN0003001N9+00111+00111100661ADDAA199000391AG10000AY151061AY241061GA1091+999999999GF109991091999999999999999KA1120N-00111MD1710241+9999MW1511OA149901291REMSYN017333   21011 91125
0088010010999991991012809004+70933-008667FM-12+0009ENJA V0201801N00411000301CN0005001N9+00161+00161100521ADDAG12000AY151031AY241031GA1091+999999999GF109991091999999999999999MD1710141+9999MW1511
0150010010999991991012812004+70933-008667FM-12+0009ENJA V0201901N00621000151CN0001001N9+00151+00151100411ADDAA106000391AG10000AY151061AY241061GA1091+999999999GF109991091999999999999999MD1710111+9999MW1511OA149901081SA1+0039REMSYN023222// 00003 333   91121
0088010010999991991012815004+70933-008667FM-12+0009ENJA V0202001N00671000301CN0004001N9+00131+00131100311ADDAG12000AY151031AY241031GA1091+999999999GF109991091999999999999999MD1710101+9999MW1451
0133010010999991991012818004+70933-008667FM-12+0009ENJA V0202801N01081002101CN0080001N9+00081-00121100401ADDAA199000591AG10001AY171061AY261061GF108991081071002501999999KA1120M+00201MD1310091+9999MW1681OA149901391REMSYN017333   10020 91127
0072010010999991991012821004+70933-008667FM-12+0009ENJA V0202301N00621006001CN0150001N9+00051+00041100521ADDAG12000AY181031AY271031GF107991071081002501999999MD1210121+9999MW1261
0114010010999991991012900004+70933-008667FM-12+0009ENJA V0202101N00411006001CN0090001N9+00071-00061100611ADDAA106999929AG10000AY181061AY271061GF107991071081002501999999MD1210091+9999MW1101OA149900821REMSYN011333   91116
0072010010999991991012903004+70933-008667FM-12+0009ENJA V0202001N00311006001CN0090001N9+00031-00041100611ADDAG12000AY121031AY221031GF107991071081002501999999MD1410001+9999MW1101
0133010010999991991012906004+70933-008667FM-12+0009ENJA V0209991C00001002101CN0060001N9-00011-00021100481ADDAA199999929AG10000AY171061AY221061GF108991081061002501999999KA1120N-00011MD1810131+9999MW1101OA149900511REMSYN017333   21001 91110
0072010010999991991012909004+70933-008667FM-12+0009ENJA V0200101N00511002101CN9999999N9-00041-00041100111ADDAG12000AY171031AY221031GF108991081071002501999999MD1710371+9999MW1711
0139010010999991991012912004+70933-008667FM-12+0009ENJA V0201001N00771001201CN0015001N9+00071+00071099411ADDAA106004091AG10001AY171061AY261061GF108991081071001501999999MD1710691+9999MW1681OA149900931UA1M009999999REMSYN023222// 2000/ 333   91118
0091010010999991991012915004+70933-008667FM-12+0009ENJA V0201201N00721001201CN0015001N9+00001+00001098452ADDAG12000AY171031AY261031GF108991081071001501999999MD1710961+9999MW1711EQDQ01+098453APOSLP
0133010010999991991012918004+70933-008667FM-12+0009ENJA V0202701N00721001201CN0020001N9+00011+00001098711ADDAA199009091AG10000AY171061AY261061GF108991081071001501999999KA1120M+00141MD1310261+9999MW1711OA149901391REMSYN017333   10014 91127
0107010010999991991012921004+70933-008667FM-12+0009ENJA V0203001N00821000301CN0002001N9-00421-00421100212ADDAG12000AY181031AY231031GA1091+999999999GF109991091999999999999999MD1211501+9999MW1381EQDQ01+100213APOSLP
0114010010999991991013000004+70933-008667FM-12+0009ENJA V0202701N00721009001CN0200001N9-00401-00861101101ADDAA106006091AG10000AY181061AY231061GF107991051081004501071999MD1210891+9999MW1021OA149903091REMSYN011333   91160
0050010010999991991013003004+70933-008667FM-12+0009ENJA V0203001N00721220001CN0500001N9-00481-00941101461ADDAG12000GF102991011011008001001021MD1110361+9999
0111010010999991991013006004+70933-008667FM-12+0009ENJA V0202801N00261220001CN0500001N9-00551-00971101631ADDAA199006091AG10000GF101991011001022501041011KA1120N-00571MD1210171+9999OA149901241REMSYN017333   21057 91124
0050010010999991991013009004+70933-008667FM-12+0009ENJA V0201901N00931220001CN0500001N9-00131-00401101671ADDAG12000GF103991031011008001041011MD1110041+9999
0112010010999991991013012004+70933-008667FM-12+0009ENJA V0201901N01291009001CN0200001N9+00021-00201101481ADDAA106000091AG14000GF108991061081004501071999MD1710191+9999OA149901651SA1+0029REMSYN023222// 00002 333   91132
0050010010999991991013015004+70933-008667FM-12+0009ENJA V0202201N00981024001CN0200001N9+00071+00001101361ADDAG12000GF107991041081004501071011MD1610121+9999
0111010010999991991013018004+70933-008667FM-12+0009ENJA V0202201N00871004201CN0200001N9+00061+00051101281ADDAA106000091AG14000GF108991071051004501071999KA1120M+00091MD1710081+9999OA149901851REMSYN017333   10009 91136
0050010010999991991013021004+70933-008667FM-12+0009ENJA V0202201N01131004201CN0100001N9+00111+00101101221ADDAG12000GF108991081051004501999999MD1710061+9999
0092010010999991991013100004+70933-008667FM-12+0009ENJA V0202201N01131024001CN0200001N9+00151+00071101241ADDAA106000091AG14000GF105991041081004501071011MD1310021+9999OA149901901REMSYN011333   91137
0050010010999991991013103004+70933-008667FM-12+0009ENJA V0202101N01131024001CN0200001N9+00131+00081101351ADDAG12000GF108991031051004501021999MD1210111+9999
0050010010999991991013109004+70933-008667FM-12+0009ENJA V0201801N00981024001CN0250001N9+00081+00031101431ADDAG12000GF106991011051008001071011MD1210031+9999
0112010010999991991013112004+70933-008667FM-12+0009ENJA V0201801N01081024001CN0300001N9+00071-00041101341ADDAA106000091AG14000GF108991011051008001071061MD1710091+9999OA149901541SA1+0049REMSYN023222// 00004 333   91130
0050010010999991991013115004+70933-008667FM-12+0009ENJA V0201801N01081024001CN0200001N9+00121-00111101071ADDAG12000GF108991011051004501071999MD1710271+9999
0111010010999991991013118004+70933-008667FM-12+0009ENJA V0201801N01391007501CN0200001N9+00171-00011100841ADDAA106000091AG14000GF108991061051008001071999KA1120M+00181MD1710231+9999OA149902211REMSYN017333   10018 91143
0072010010999991991013121004+70933-008667FM-12+0009ENJA V0201801N01541024001CN0150001N9+00181+00171100601ADDAG12001AY161031AY221031GF108991031071004501021999MD1710241+9999MW1611
0114010010999991991020100004+70933-008667FM-12+0009ENJA V0202001N01131002101CN0050001N9+00231+00231100561ADDAA106000591AG10000AY161061AY251061GF108991081061002501999999MD1610041+9999MW1501OA149902321REMSYN011333   91145
0072010010999991991020103004+70933-008667FM-12+0009ENJA V0202001N01341002101CN0060001N9+00231+00231100581ADDAG12000AY121031AY221031GF108991081061002501999999MD1210021+9999MW1501
0133010010999991991020106004+70933-008667FM-12+0009ENJA V0201901N01491002101CN0050001N9+00221+00221100561ADDAA199001091AG10001AY161061AY221061GF108991071071002501021999KA1120N+00171MD1710021+9999MW1631OA149902111REMSYN017333   20017 91141
0072010010999991991020109004+70933-008667FM-12+0009ENJA V0202001N01341004201CN0150001N9+00201+00201100561ADDAG12001AY161031AY261031GF108991071051004501021999MD1410001+9999MW1611
0134010010999991991020112004+70933-008667FM-12+0009ENJA V0202101N01081001201CN0060001N9+00171+00171100651ADDAA106000391AG10000AY161061AY221061GF108991071071001501999999MD1310091+9999MW1211OA149901901SA1+0089REMSYN023222// 00008 333   91137
0072010010999991991020115004+70933-008667FM-12+0009ENJA V0202601N00821009001CN0200001N9+00071-00111100991ADDAG12001AY181031AY261031GF108991071081004501999999MD1210341+9999MW1801
0072010010999991991020121004+70933-008667FM-12+0009ENJA V0202201N00981024001CN0150001N9+00021-00201101361ADDAG12000AY181031AY221031GF106991031081008001071999MD1210131+9999MW1011
0114010010999991991020200004+70933-008667FM-12+0009ENJA V0202301N00871220001CN0500001N9+00051-00201101541ADDAA106999929AG10000AY181061AY211061GF102991021011008001001001MD1210181+9999MW1021OA149901801REMSYN011333   91135
0050010010999991991020203004+70933-008667FM-12+0009ENJA V0202301N00671220001CN0500001N9+00101-00431101721ADDAG12000GF101991011001999999041001MD1210181+9999
0111010010999991991020206004+70933-008667FM-12+0009ENJA V0202101N00571060001CN0300001N9+00021+00001101801ADDAA199999929AG10000GF106991011051008001041061KA1120N-00051MD1110081+9999OA149901541REMSYN017333   21005 91130
0050010010999991991020209004+70933-008667FM-12+0009ENJA V0201601N01031024001CN0250001N9+00061+00051101721ADDAG12000GF107991031051004501071999MD1610081+9999
0112010010999991991020212004+70933-008667FM-12+0009ENJA V0201701N01231004201CN0150001N9+00141+00131101511ADDAA106000091AG14000GF107991051051004501071999MD1710211+9999OA149901801SA1+0089REMSYN023222// 00008 333   91135
0072010010999991991020215004+70933-008667FM-12+0009ENJA V0201701N01231002101CN0060001N9+00181+00181101341ADDAG12000AY121031AY221031GF108991081071002501999999MD1710171+9999MW1101
0133010010999991991020218004+70933-008667FM-12+0009ENJA V0201801N01391002101CN0080001N9+00201+00191101091ADDAA106000091AG14000AY121061AY221061GF108991081051002501999999KA1120M+00201MD1710251+9999MW1101OA149901851REMSYN017333   10020 91136
0072010010999991991020221004+70933-008667FM-12+0009ENJA V0201801N01641002101CN0060001N9+00221+00211100811ADDAG12001AY161031AY221031GF108991081061002501999999MD1710281+9999MW1611
0114010010999991991020300004+70933-008667FM-12+0009ENJA V0201901N01851002101CN0080001N9+00241+00241100681ADDAA106001091AG10000AY161061AY221061GF108991081061002501999999MD1510131+9999MW1211OA149902421REMSYN011333   91147
0072010010999991991020303004+70933-008667FM-12+0009ENJA V0202201N00821001201CN0050001N9+00181+00181101001ADDAG12000AY161031AY221031GF108991081061001501999999MD1210321+9999MW1101
0149010010999991991020306004+70933-008667FM-12+0009ENJA V0202101N00721000601CN0008001N9+00041+00041101151ADDAA199001091AG10000AY161061AY241061GA1091+999999999GF109991091999999999999999KA1120N+00041MD1210151+9999MW1451OA149902371REMSYN017333   20004 91146
0072010010999991991020309004+70933-008667FM-12+0009ENJA V0201601N00211002101CN0030001N9+00021+00021101171ADDAG12000AY141031AY221031GF108991081061002501999999MD1010021+9999MW1101
0134010010999991991020312004+70933-008667FM-12+0009ENJA V0201701N01231001201CN0020001N9+00191+00191100921ADDAA106000591AG10000AY161061AY251061GF108991081061001501999999MD1710251+9999MW1101OA149901601SA1+0109REMSYN023222// 00010 333   91131
0072010010999991991020315004+70933-008667FM-12+0009ENJA V0201701N01341002101CN0045001N9+00221+00211100751ADDAG12000AY121031AY221031GF108991081051002501999999MD1710171+9999MW1101
0133010010999991991020318004+70933-008667FM-12+0009ENJA V0201801N01591002101CN0050001N9+00241+00181100421ADDAA199000591AG10000AY161061AY221061GF108991081051002501999999KA1120M+00261MD1710331+9999MW1581OA149902471REMSYN017333   10026 91148
0103010010999991991020321004+70933-008667FM-12+0009ENJA V0201801N01441004201CN0060001N9+00231+00221100501ADDAG12000AY161031AY251031GF108991081051004501999999MD1310081+9999MW1211OA159901801REMSYN011555   04235
0114010010999991991020400004+70933-008667FM-12+0009ENJA V0202101N01031002101CN0060001N9+00171+00161100681ADDAA106000191AG10000AY161061AY251061GF108991081061002501999999MD1210181+9999MW1101OA149902321REMSYN011333   91145
0072010010999991991020403004+70933-008667FM-12+0009ENJA V0202201N00871002101CN0060001N9+00151+00141100941ADDAG12000AY121031AY221031GF108991081061002501999999MD1210261+9999MW1101
0130010010999991991020406004+70933-008667FM-12+0009ENJA V0202201N00871220001CN0150001N9+00121-00011101191ADDAA199000191AG10000GF102991021051004501001001KA1120N+99999MD1210251+9999OA149901651REMSYN017333   20025 91132EQDQ01 +00252ATMN  
0050010010999991991020409004+70933-008667FM-12+0009ENJA V0202201N00931220001CN0200001N9+00081+00021101391ADDAG12000GF101991011011004501001011MD1210201+9999
0112010010999991991020412004+70933-008667FM-12+0009ENJA V0202101N00931220001CN0200001N9+00081-00031101571ADDAA106000091AG14000GF102991011011004501041051MD1210181+9999OA149901601SA1+0109REMSYN023222// 00010 333   91131
0050010010999991991020415004+70933-008667FM-12+0009ENJA V0202001N00981009001CN0200001N9+00071+00061101651ADDAG12000GF106991051081004501041999MD1210081+9999
0111010010999991991020418004+70933-008667FM-12+0009ENJA V0202001N01181009001CN0300001N9+00071+00061101591ADDAA106000091AG14000GF107991051081004501071999KA1120M+00121MD1710061+9999OA149901751REMSYN017333   10012 91134
0050010010999991991020421004+70933-008667FM-12+0009ENJA V0202001N01341009001CN0300001N9+00171+00141101481ADDAG12000GF108991081081004501999999MD1710111+9999
0092010010999991991020500004+70933-008667FM-12+0009ENJA V0202101N01341004201CN0250001N9+00221+00191101221ADDAA106000091AG14000GF108991071051004501999999MD1710261+9999OA149902161REMSYN011333   91142
0072010010999991991020503004+70933-008667FM-12+0009ENJA V0202301N01541002101CN0150001N9+00271+00221101031ADDAG12001AY171031AY261031GF108991081071002501999999MD1710191+9999MW1611
0133010010999991991020506004+70933-008667FM-12+0009ENJA V0202201N01441004201CN0250001N9+00311+00301101031ADDAA199000191AG10000AY171061AY261061GF108991081071004501999999KA1120N+00071MD1410001+9999MW1211OA149902321REMSYN017333   20007 91145
0072010010999991991020509004+70933-008667FM-12+0009ENJA V0202201N01591002101CN0060001N9+00301+00291101221ADDAG12000AY121031AY221031GF107991071071002501999999MD1210191+9999MW1101
0134010010999991991020512004+70933-008667FM-12+0009ENJA V0202201N01391002101CN0050001N9+00301+00291101501ADDAA106000091AG10000AY121061AY221061GF107991071061002501999999MD1210281+9999MW1101OA149902521SA1+0119REMSYN023222// 00011 333   91149
0072010010999991991020515004+70933-008667FM-12+0009ENJA V0202101N01391002101CN0040001N9+00251+00241101641ADDAG12000AY121031AY221031GF108991081061002501999999MD1110141+9999MW1101
0111010010999991991020518004+70933-008667FM-12+0009ENJA V0202101N01291004201CN0150001N9+00241+00231101671ADDAA106000091AG14000GF108991081061004501999999KA1120M+00331MD1010031+9999OA149902061REMSYN017333   10033 91140
0050010010999991991020521004+70933-008667FM-12+0009ENJA V0202101N01081004201CN0120001N9+00241+00231101741ADDAG12000GF108991081061004501999999MD1310071+9999
0114010010999991991020600004+70933-008667FM-12+0009ENJA V0202101N01181004201CN0060001N9+00251+00241101701ADDAA106000091AG10000AY121061AY221061GF108991081061004501999999MD1110041+9999MW1101OA149902061REMSYN011333   91140
0072010010999991991020603004+70933-008667FM-12+0009ENJA V0202101N01181002101CN0060001N9+00241+00231101641ADDAG11000AY121031AY221031GF108991081061002501999999MD1810061+9999MW1101
0133010010999991991020606004+70933-008667FM-12+0009ENJA V0202101N01181002101CN0060001N9+00231+00221101601ADDAA106000091AG14000AY121061AY221061GF108991081061002501999999KA1120N+00221MD1710041+9999MW1101OA149901851REMSYN017333   20022 91136
0050010010999991991020609004+70933-008667FM-12+0009ENJA V0202301N01031004201CN0150001N9+00211+00201101651ADDAG12000GF108991081061004501999999MD1310051+9999
0134010010999991991020612004+70933-008667FM-12+0009ENJA V0202101N00721001201CN0070001N9+00211+00201101841ADDAA106999929AG10000AY161061AY221061GF108991081071001501999999MD1210191+9999MW1601OA149901901SA1+0139REMSYN023222// 00013 333   91137
0092010010999991991020615004+70933-008667FM-12+0009ENJA V0202201N00511006001CN0150001N9+00121+00121101921ADDAG12000AY161031AY221031GF108991061081002501071999MD1210081+9999MW1211REMSYN011333   04315
0133010010999991991020618004+70933-008667FM-12+0009ENJA V0202001N00511001201CN0050001N9+00111+00111101991ADDAA199000591AG10000AY161061AY221061GF108991081071001501999999KA1120M+00261MD1210071+9999MW1601OA149900881REMSYN017333   10026 91117
0072010010999991991020621004+70933-008667FM-12+0009ENJA V0202101N00771001201CN0050001N9+00161+00161102051ADDAG12000AY161031AY221031GF108991081061001501999999MD1210061+9999MW1101
0114010010999991991020700004+70933-008667FM-12+0009ENJA V0202001N00931001201CN0020001N9+00151+00151101911ADDAA106999929AG10000AY161061AY221061GF108991081061001501999999MD1710021+9999MW1101OA149901651REMSYN011333   91132
0072010010999991991020703004+70933-008667FM-12+0009ENJA V0202201N00771001201CN0020001N9+00181+00181101861ADDAG12000AY121031AY221031GF108991081061001501999999MD1710051+9999MW1101
0133010010999991991020706004+70933-008667FM-12+0009ENJA V0202101N00821001201CN0020001N9+00181+00181101901ADDAA199999929AG10000AY121061AY221061GF108991081061001501999999KA1120N+00051MD1710081+9999MW1101OA149901181REMSYN017333   20005 91123
0072010010999991991020709004+70933-008667FM-12+0009ENJA V0202101N00821001201CN0050001N9+00171+00171101951ADDAG12000AY121031AY221031GF108991081061001501999999MD1310051+9999MW1101
0134010010999991991020712004+70933-008667FM-12+0009ENJA V0202201N00211004201CN0080001N9+00191+00191102091ADDAA106000091AG14000AY121061AY221061GF108991061051004501071999MD1210141+9999MW1101OA149901241SA1+0129REMSYN023222// 00012 333   91124
0072010010999991991020715004+70933-008667FM-12+0009ENJA V0202301N00621024001CN0060001N9+00151+00151102241ADDAG12000AY121031AY221031GF107991021051004501071011MD1210151+9999MW1101
0133010010999991991020718004+70933-008667FM-12+0009ENJA V0202301N00571024001CN0060001N9+00201+00201102381ADDAA106000091AG14000AY121061AY221061GF108991041051004501071999KA1120M+00221MD1210141+9999MW1101OA149901131REMSYN017333   10022 91122
0072010010999991991020721004+70933-008667FM-12+0009ENJA V0202101N00771004201CN0050001N9+00161+00161102571ADDAG12000AY121031AY221031GF108991081051004501999999MD1210191+9999MW1101
0114010010999991991020800004+70933-008667FM-12+0009ENJA V0202201N00621002101CN0025001N9+00101+00101102671ADDAA106000091AG14000AY121061AY221061GF108991081061002501999999MD1210101+9999MW1101OA149901031REMSYN011333   91120
0072010010999991991020803004+70933-008667FM-12+0009ENJA V0202201N00411002101CN0030001N9+00091+00091102701ADDAG12000AY121031AY221031GF108991081061002501999999MD1110031+9999MW1101
0133010010999991991020806004+70933-008667FM-12+0009ENJA V0202001N00571002101CN0030001N9+00121+00121102651ADDAA106000091AG14000AY121061AY221061GF108991081061002501999999KA1120N+00091MD1710051+9999MW1101OA149900671REMSYN017333   20009 91113
0072010010999991991020809004+70933-008667FM-12+0009ENJA V0202101N00461002101CN0030001N9+00101+00101102731ADDAG12000AY121031AY221031GF108991081061002501999999MD1210081+9999MW1101
0134010010999991991020812004+70933-008667FM-12+0009ENJA V0202101N00311002101CN0050001N9+00111+00111102791ADDAA106000091AG14000AY121061AY221061GF107991051061002501071999MD1210061+9999MW1101OA149900981SA1+0119REMSYN023222// 00011 333   91119
0072010010999991991020815004+70933-008667FM-12+0009ENJA V0202201N00211060001CN0060001N9+00071+00071102801ADDAG12000AY121031AY221031GF105991011061004501071011MD1210011+9999MW1101
0133010010999991991020818004+70933-008667FM-12+0009ENJA V0202201N00511001201CN0040001N9+00041+00041102831ADDAA106000091AG14000AY121061AY221061GF107991071061001501999999KA1120M+00121MD1210031+9999MW1101OA149900721REMSYN017333   10012 91114
0050010010999991991020821004+70933-008667FM-12+0009ENJA V0202601N00101220001CN0150001N9+99999+99999102841ADDAG12000GF102991011061001501071011MD1210011+9999
0114010010999991991020900004+70933-008667FM-12+0009ENJA V0209991C00001001201CN0030001N9-00031-00031102861ADDAA106000091AG14000AY121061AY221061GF106991061061001501001001MD1210021+9999MW1101OA149900721REMSYN011333   91114
0072010010999991991020903004+70933-008667FM-12+0009ENJA V0200501N00311220001CN0080001N9+00011+00011102781ADDAG12000AY111031AY201031GF102991021061001501001001MD1710081+9999MW1101
0133010010999991991020906004+70933-008667FM-12+0009ENJA V0209991C00001220001CN0070001N9-00061-00061102731ADDAA106000091AG14000AY111061AY201061GF101991011051004501001001KA1120N-00111MD1710051+9999MW1101OA149900621REMSYN017333   21011 91112
0050010010999991991020909004+70933-008667FM-12+0009ENJA V0209991C00001220001CN0150001N9-00101-00101102751ADDAG12000GF102991011081004501071001MD1210021+9999
0134010010999991991020912004+70933-008667FM-12+0009ENJA V0200601N00211024001CN0080001N9-00101-00101102751ADDAA106000091AG14000AY111061AY211061GF105991031081001501071011MD1410001+9999MW1101OA149900261SA1+0099REMSYN023222// 00009 333   91105
0050010010999991991020915004+70933-008667FM-12+0009ENJA V0209991C00001024001CN0200001N9-00141-00141102661ADDAG12000GF106991021061001501071011MD1710091+9999
0111010010999991991020918004+70933-008667FM-12+0009ENJA V0202901N01081220001CN0200001N9+00111-00391102601ADDAA106000091AG14000GF102991011051004501071001KA1120M+00141MD1710061+9999OA149901441REMSYN017333   10014 91128
0050010010999991991020921004+70933-008667FM-12+0009ENJA V0203001N00871220001CN0300001N9+00091-00391102601ADDAG12000GF103991011051004501071001MD1410001+9999
0092010010999991991021000004+70933-008667FM-12+0009ENJA V0202201N00261220001CN0500001N9+00041-00071102601ADDAA106000091AG14000GF101991001001999999001011MD1410001+9999OA149901341REMSYN011333   91126
0050010010999991991021003004+70933-008667FM-12+0009ENJA V0209991C00001220001CN0500001N9-00151-00341102571ADDAG12000GF101991001001999999001011MD1810031+9999
0111010010999991991021006004+70933-008667FM-12+0009ENJA V0209991C00001220001CN0500001N9-00241-00251102511ADDAA106000091AG14000GF101991001001999999001011KA1120N-00261MD1710061+9999OA149900311REMSYN017333   21026 91106
0050010010999991991021009004+70933-008667FM-12+0009ENJA V0203001N00151220001CN0300001N9-00261-00451102531ADDAG12000GF104991011051008001071011MD1310021+9999
0112010010999991991021012004+70933-008667FM-12+0009ENJA V0203101N00051220001CN0200001N9-00241-00291102511ADDAA106000091AG14000GF103991011081004501001081MD1810021+9999OA149900261SA1+0099REMSYN023222// 00009 333   91105
0123010010999991991021015004+70933-008667FM-12+0009ENJA V0202501N00151220001CN0500001N9+99999+99999999999ADDAG12000AY171031AY231031GF102991021011012501001001MD1210441+9999MW1361EQDQ01+025443ATOT  Q02+025033ATOD  Q03+100673APOSLP
0111010010999991991021018004+70933-008667FM-12+0009ENJA V0203101N00511220001CN0400001N9-00231-00301102411ADDAA106000091AG14000GF102991011081004501001011KA1120M-00161MD1710031+9999OA149900721REMSYN017333   11016 91114
0050010010999991991021021004+70933-008667FM-12+0009ENJA V0203001N00411220001CN0500001N9-00251-00361102431ADDAG12000GF101991001001999999001011MD1310021+9999
0092010010999991991021100004+70933-008667FM-12+0009ENJA V0202801N00211012001CN0150001N9-00261-00321102381ADDAA106000091AG14000GF108991071081008001999999MD1810051+9999OA149900771REMSYN011333   91115
0050010010999991991021103004+70933-008667FM-12+0009ENJA V0203301N00151220001CN0250001N9-00381-00511102321ADDAG12000GF102991011081008001071001MD1710061+9999
0111010010999991991021106004+70933-008667FM-12+0009ENJA V0203101N00461220001CN0300001N9-00421-00551102291ADDAA106000091AG14000GF102991011081008001071001KA1120N-00431MD1710031+9999OA149901391REMSYN017333   21043 91127
0050010010999991991021109004+70933-008667FM-12+0009ENJA V0203201N00721220001CN0400001N9+99999+99999102321ADDAG12000GF101991011011004501001011MD1310031+9999
0112010010999991991021112004+70933-008667FM-12+0009ENJA V0203401N00311220001CN0600001N9-00411-00441102291ADDAA106000091AG14000GF103991021081008001031001MD1810031+9999OA149900981SA1+0059REMSYN023222// 00005 333   91119
0050010010999991991021115004+70933-008667FM-12+0009ENJA V0200101N00361007501CN0400001N9-00471-00481102251ADDAG12000GF107991071051008001999999MD1710041+9999
0111010010999991991021118004+70933-008667FM-12+0009ENJA V0203301N00411004201CN0250001N9-00491-00501102221ADDAA106000091AG14000GF108991081051004501999999KA1120M-00391MD1610031+9999OA149900771REMSYN017333   11039 91115
0050010010999991991021121004+70933-008667FM-12+0009ENJA V0202701N00101004201CN0250001N9-00471-00471999999ADDAG12000GF108991081051004501999999MD1810021+9999
0092010010999991991021200004+70933-008667FM-12+0009ENJA V0201401N00461002101CN0150001N9-00471-00471102171ADDAA106000091AG14000GF108991081061002501999999MD1710031+9999OA149900511REMSYN011333   91110
0050010010999991991021203004+70933-008667FM-12+0009ENJA V0201401N00211002101CN0150001N9-00531-00531102111ADDAG12000GF108991081061002501999999MD1710061+9999
0111010010999991991021206004+70933-008667FM-12+0009ENJA V0209991C00001004201CN0200001N9-00501-00501102051ADDAA106000091AG14000GF108991081051004501999999KA1120N-00561MD1710061+9999OA149900511REMSYN017333   21056 91110
0050010010999991991021209004+70933-008667FM-12+0009ENJA V0209991C00001004201CN0200001N9-00421-00421102021ADDAG12000GF108991081051004501999999MD1710031+9999
0112010010999991991021212004+70933-008667FM-12+0009ENJA V0201501N00411004201CN0300001N9-00311-00311101961ADDAA106000091AG14000GF108991081051004501999999MD1710061+9999OA149900411SA1+0049REMSYN023222// 00004 333   91108
0072010010999991991021215004+70933-008667FM-12+0009ENJA V0201201N00721000601CN0010001N9-00191-00191101841ADDAG12000AY171031AY221031GF108991081071000751999999MD1710121+9999MW1701
0133010010999991991021218004+70933-008667FM-12+0009ENJA V0202001N00511007501CN0300001N9-00051-00191101771ADDAA199000191AG10000AY171061AY221061GF108991081051008001999999KA1120M-00041MD1710071+9999MW1021OA149900931REMSYN017333   11004 91118
0050010010999991991021221004+70933-008667FM-12+0009ENJA V0201901N00931004201CN0300001N9-00011-00021101641ADDAG12000GF108991081051004501999999MD1710131+9999
0130010010999991991021300004+70933-008667FM-12+0009ENJA V0202001N00981002401CN0025001N9-00021-00021101471ADDAA106000391AG10000AY171061AY221061GA1091+999999999GF109991091999999999999999MD1710171+9999MW1711OA149901341REMSYN011333   91126
0088010010999991991021303004+70933-008667FM-12+0009ENJA V0202201N00721002401CN0025001N9+00011+00011101341ADDAG12000AY171031AY271031GA1091+999999999GF109991091999999999999999MD1710131+9999MW1711
0133010010999991991021306004+70933-008667FM-12+0009ENJA V0202401N00411001201CN0040001N9+00021+00021101251ADDAA199004091AG10000AY171061AY271061GF108991081061001501999999KA1120N-00061MD1710111+9999MW1711OA149901291REMSYN017333   21006 91125
0072010010999991991021309004+70933-008667FM-12+0009ENJA V0202701N01181009001CN0150001N9-00171-00181101231ADDAG12000AY171031AY221031GF105991051081004501041001MD1710021+9999MW1151
0134010010999991991021312004+70933-008667FM-12+0009ENJA V0203201N01131220001CN0300001N9-00301-00311101301ADDAA106999929AG10000AY171061AY221061GF106991011051004501001011MD1210071+9999MW1021OA149901491SA1+0039REMSYN023222// 00003 333   91129
0072010010999991991021315004+70933-008667FM-12+0009ENJA V0203601N00411004201CN0150001N9-00431-00441101381ADDAG12000AY121031AY221031GF107991071091004501999999MD1210081+9999MW1151
0133010010999991991021318004+70933-008667FM-12+0009ENJA V0203601N00671006001CN0150001N9-00561-00581101381ADDAA199000391AG10000AY181061AY221061GF107991071081002501999999KA1120M+00041MD1410001+9999MW1851OA149901701REMSYN017333   10004 91133
0072010010999991991021321004+70933-008667FM-12+0009ENJA V0203601N00511009001CN0200001N9-00601-00661101341ADDAG12000AY181031AY281031GF107991071081004501999999MD1710041+9999MW1851
0114010010999991991021400004+70933-008667FM-12+0009ENJA V0203601N00511009001CN0150001N9-00661-00831101361ADDAA106000191AG10000AY181061AY281061GF107991071081004501999999MD1210021+9999MW1851OA149901131REMSYN011333   91122
0072010010999991991021403004+70933-008667FM-12+0009ENJA V0203601N00511009001CN0200001N9-00731-00891101321ADDAG12000AY181031AY281031GF107991071081004501999999MD1710041+9999MW1851
0133010010999991991021406004+70933-008667FM-12+0009ENJA V0203501N00671009001CN0200001N9-00771-00961101331ADDAA199000191AG10000AY181061AY281061GF108991081081004501999999KA1120N-00781MD1310011+9999MW1851OA149901131REMSYN017333   21078 91122
0072010010999991991021409004+70933-008667FM-12+0009ENJA V0203601N00671009001CN0200001N9-00851-01071101371ADDAG12000AY181031AY281031GF107991071081004501999999MD1210041+9999MW1851
0134010010999991991021412004+70933-008667FM-12+0009ENJA V0203601N00821004201CN0100001N9-00931-01071101451ADDAA106999929AG10000AY181061AY281061GF106991051091004501061011MD1210081+9999MW1851OA149901391SA1+0009REMSYN023222// 00000 333   91127
0072010010999991991021415004+70933-008667FM-12+0009ENJA V0203601N00981004201CN0030001N9-00991-01181101391ADDAG12000AY181031AY281031GF107991061091004501061011MD1710061+9999MW1851
0133010010999991991021418004+70933-008667FM-12+0009ENJA V0203601N00821004201CN0050001N9-00981-01141101311ADDAA199000191AG10000AY181061AY281061GF107991051091004501061999KA1120M-00771MD1710081+9999MW1851OA149901541REMSYN017333   11077 91130
0072010010999991991021421004+70933-008667FM-12+0009ENJA V0203601N00721004201CN0080001N9-00941-01171101301ADDAG12000AY181031AY281031GF107991071091004501999999MD1710011+9999MW1851
0114010010999991991021500004+70933-008667FM-12+0009ENJA V0203601N00671004201CN0070001N9-00861-01061101281ADDAA106999929AG19000AY181061AY221061GF108991071091004501999999MD1710021+9999MW1851OA149901541REMSYN011333   91130
0072010010999991991021503004+70933-008667FM-12+0009ENJA V0203501N00821220001CN0500001N9-00841-01081101221ADDAG12000AY181031AY221031GF101991011091008001061001MD1710061+9999MW1261
0133010010999991991021506004+70933-008667FM-12+0009ENJA V0203601N00571220001CN0500001N9-00801-01031101191ADDAA199999929AG10000AY181061AY221061GF103991021091008001061001KA1120N-01001MD1710031+9999MW1031OA149901341REMSYN017333   21100 91126
0050010010999991991021509004+70933-008667FM-12+0009ENJA V0203601N00411220001CN0300001N9-00811-01091101181ADDAG12000GF104991031081008001031001MD1310011+9999
0134010010999991991021512004+70933-008667FM-12+0009ENJA V0203601N00261024001CN0300001N9-00791-01011101191ADDAA106999929AG10000AY181061AY211061GF105991031081008001071011MD1010011+9999MW1851OA149901131SA1-0049REMSYN023222// 01004 333   91122
0072010010999991991021515004+70933-008667FM-12+0009ENJA V0200101N00461220001CN0100001N9-00751-01081101201ADDAG12000AY181031AY221031GF105991041081008001001011MD1210011+9999MW1161
0133010010999991991021518004+70933-008667FM-12+0009ENJA V0200101N00511009001CN0200001N9-00771-00961101201ADDAA199999929AG10000AY181061AY221061GF107991061081004501061999KA1120M-00741MD1410001+9999MW1851OA149900721REMSYN017333   11074 91114
0072010010999991991021521004+70933-008667FM-12+0009ENJA V0200101N00461220001CN0400001N9-00781-01001101201ADDAG12000AY181031AY221031GF102991021081004501061001MD1410001+9999MW1261
0114010010999991991021600004+70933-008667FM-12+0009ENJA V0203601N00511220001CN0250001N9-00821-01031101201ADDAA106999929AG10000AY181061AY221061GF102991011081008001071001MD1410001+9999MW1851OA149900881REMSYN011333   91117
0072010010999991991021603004+70933-008667FM-12+0009ENJA V0200301N00571220001CN0250001N9-00821-01031101171ADDAG12000AY181031AY221031GF103991011081008001071001MD1610031+9999MW1851
0133010010999991991021606004+70933-008667FM-12+0009ENJA V0203601N00621009001CN0150001N9-00841-01031101171ADDAA199000191AG10000AY181061AY221061GF107991071081004501999999KA1120N-00851MD1410001+9999MW1851OA149900931REMSYN017333   21085 91118
0072010010999991991021609004+70933-008667FM-12+0009ENJA V0203601N00821009001CN0150001N9-00821-01091101211ADDAG12000AY181031AY221031GF107991071081004501999999MD1310041+9999MW1851
0134010010999991991021612004+70933-008667FM-12+0009ENJA V0203601N00931024001CN0250001N9-00811-01131101211ADDAA106999929AG10000AY181061AY221061GF106991031021004501061011MD1410001+9999MW1011OA149901341SA1-0079REMSYN023222// 01007 333   91126
0072010010999991991021615004+70933-008667FM-12+0009ENJA V0203601N01031024001CN0200001N9-00851-01171101291ADDAG12000AY181031AY231031GF107991041021004501061011MD1310081+9999MW1361
0133010010999991991021618004+70933-008667FM-12+0009ENJA V0200101N01181006001CN0060001N9-00921-01071101371ADDAA199999929AG10000AY181061AY231061GF107991051081001501061999KA1120M-00791MD1210081+9999MW1361OA149901801REMSYN017333   11079 91135
0072010010999991991021621004+70933-008667FM-12+0009ENJA V0200101N01031006001CN0025001N9-01031-01151101591ADDAG12000AY181031AY231031GF108991081081001501999999MD1210221+9999MW1361
0133010010999991991021700004+70933-008667FM-12+0009ENJA V0200101N01441220001CN0030001N9-01091-01251101591ADDAA106000191AG10000AY181061AY231061GF103991031091004501001001MD1410001+9999MW1381OA149902161REMSYN011333   91142EQDQ01+000082APCTEN
0072010010999991991021703004+70933-008667FM-12+0009ENJA V0203601N01131009001CN0040001N9-01051-01221101661ADDAG12000AY181031AY231031GF107991071081004501999999MD1210071+9999MW1381
0149010010999991991021706004+70933-008667FM-12+0009ENJA V0203601N01031000601CN0010001N9-00951-01011101621ADDAA199000591AG10000AY181061AY231061GA1091+999999999GF109991091999999999999999KA1120N-01121MD1710041+9999MW1851OA149902571REMSYN017333   21112 91150
0072010010999991991021709004+70933-008667FM-12+0009ENJA V0203601N01031006001CN0120001N9-00801-00911101681ADDAG12000AY181031AY221031GF108991061081001501061011MD1210061+9999MW1851
0134010010999991991021712004+70933-008667FM-12+0009ENJA V0200101N00821006001CN0050001N9-00781-00861101751ADDAA106000191AG10000AY181061AY231061GF108991061081002501071999MD1110071+9999MW1851OA149901901SA1-0149REMSYN023222// 01014 333   91137
0072010010999991991021715004+70933-008667FM-12+0009ENJA V0200101N00821012001CN0250001N9-00771-01021101691ADDAG12000AY181031AY231031GF107991051081008001071001MD1510061+9999MW1011
0133010010999991991021718004+70933-008667FM-12+0009ENJA V0203601N00771024001CN0300001N9-00761-00991101671ADDAA199000391AG10000AY181061AY231061GF108991021081008001071999KA1120M-00751MD1710021+9999MW1021OA149901541REMSYN017333   11075 91130
0050010010999991991021721004+70933-008667FM-12+0009ENJA V0203601N00571024001CN0300001N9-00791-01091101561ADDAG12000GF107991021051008001071061MD1710111+9999
0092010010999991991021800004+70933-008667FM-12+0009ENJA V0203601N00261024001CN0300001N9-00801-01031101431ADDAA106000091AG14000GF107991011081004501071061MD1710131+9999OA149901181REMSYN011333   91123
0072010010999991991021803004+70933-008667FM-12+0009ENJA V0200101N00511024001CN0200001N9-00801-00921101201ADDAG12000AY181031AY221031GF108991031081004501071999MD1710231+9999MW1851
0133010010999991991021806004+70933-008667FM-12+0009ENJA V0201101N00511004201CN0300001N9-00741-00861100951ADDAA199000191AG10000AY181061AY221061GF108991051051004501071999KA1120N-00831MD1710251+9999MW1261OA149900771REMSYN017333   21083 91115
0072010010999991991021809004+70933-008667FM-12+0009ENJA V0201101N00721004201CN0020001N9-00711-00721100721ADDAG12000AY171031AY221031GF108991081051004501999999MD1710231+9999MW1701
0150010010999991991021812004+70933-008667FM-12+0009ENJA V0201001N01131000601CN0010001N9-00611-00611100311ADDAA106000191AG10000AY171061AY231061GA1091+999999999GF109991091999999999999999MD1710411+9999MW1711OA149901441SA1-0159REMSYN023222// 01015 333   91128
0088010010999991991021815004+70933-008667FM-12+0009ENJA V0201001N01341000601CN0008001N9-00481-00481099951ADDAG12000AY171031AY231031GA1091+999999999GF109991091999999999999999MD1710361+9999MW1711
0149010010999991991021818004+70933-008667FM-12+0009ENJA V0201001N01341000601CN0008001N9-00401-00401099621ADDAA199000591AG10000AY171061AY231061GA1091+999999999GF109991091999999999999999KA1120M-00371MD1710331+9999MW1711OA149901901REMSYN017333   11037 91137
0088010010999991991021821004+70933-008667FM-12+0009ENJA V0201001N01231000601CN0010001N9-00351-00351099451ADDAG12000AY171031AY231031GA1091+999999999GF109991091999999999999999MD1710171+9999MW1711
0114010010999991991021900004+70933-008667FM-12+0009ENJA V0200901N01181002101CN0100001N9-00281-00291099381ADDAA106000591AG10000AY171061AY231061GF107991061071002501021001MD1610071+9999MW1361OA149901851REMSYN011333   91136
0072010010999991991021903004+70933-008667FM-12+0009ENJA V0200901N01181220001CN0150001N9-00251-00321099301ADDAG12000AY131031AY221031GF104991041081002501001001MD1710081+9999MW1361
0133010010999991991021906004+70933-008667FM-12+0009ENJA V0200901N01231220001CN0150001N9-00261-00341099231ADDAA199000591AG10000AY131061AY221061GF102991021081002501001001KA1120N-00391MD1610071+9999MW1361OA149901901REMSYN017333   21039 91137
0072010010999991991021909004+70933-008667FM-12+0009ENJA V0200201N00511009001CN0300001N9-00281-00471099251ADDAG12000AY131031AY211031GF107991051081004501071011MD1210021+9999MW1031
0134010010999991991021912004+70933-008667FM-12+0009ENJA V0200101N01131060001CN0300001N9-00321-00341099211ADDAA106000091AG14000AY131061AY211061GF105991021081004501071011MD1710041+9999MW1361OA149902011SA1-0129REMSYN023222// 01012 333   91139
0072010010999991991021915004+70933-008667FM-12+0009ENJA V0200201N01181024001CN0200001N9-00241-00241099081ADDAG12000AY131031AY231031GF106991031081004501071011MD1710131+9999MW1361
0133010010999991991021918004+70933-008667FM-12+0009ENJA V0203601N00871220001CN0200001N9-00151-00161098851ADDAA106000091AG14000AY131061AY231061GF104991041081002501001001KA1120M-00141MD1710231+9999MW1361OA149902111REMSYN017333   11014 91141
0072010010999991991021921004+70933-008667FM-12+0009ENJA V0200901N00981006001CN0150001N9+00041-00261098701ADDAG12000AY131031AY231031GF107991071081002501999999MD1710151+9999MW1361
0114010010999991991022000004+70933-008667FM-12+0009ENJA V0200101N00721006001CN0200001N9+00011-00061098681ADDAA106999929AG10000AY181061AY231061GF107991071081002501999999MD1610021+9999MW1851OA149902371REMSYN011333   91146
0072010010999991991022003004+70933-008667FM-12+0009ENJA V0200701N01131006001CN0080001N9-00021-00031098721ADDAG12000AY181031AY231031GF108991081081002501999999MD1310041+9999MW1851
0133010010999991991022006004+70933-008667FM-12+0009ENJA V0200101N00511009001CN0200001N9-00011-00201098821ADDAA199999929AG10000AY181061AY231061GF107991071081004501999999KA1120N-00161MD1210101+9999MW1011OA149901751REMSYN017333   21016 91134
0072010010999991991022009004+70933-008667FM-12+0009ENJA V0203601N01131220001CN0150001N9-00151-00161098911ADDAG12000AY131031AY221031GF104991041081002501001001MD1210091+9999MW1361
0134010010999991991022012004+70933-008667FM-12+0009ENJA V0200201N01441220001CN0100001N9-00191-00261099101ADDAA106000091AG14000AY131061AY221061GF104991999999004501999999MD1110111+9999MW1361OA149902261SA1-0069REMSYN023222// 01006 333   91144
0072010010999991991022015004+70933-008667FM-12+0009ENJA V0200101N01131006001CN0080001N9-00211-00321099171ADDAG12000AY131031AY231031GF107991071081002501001001MD1210071+9999MW1851
0133010010999991991022018004+70933-008667FM-12+0009ENJA V0200101N01231006001CN0080001N9-00191-00201099081ADDAA199999929AG10000AY181061AY231061GF107991071081002501999999KA1120M+00001MD1810091+9999MW1851OA149902161REMSYN017333   10000 91142
0072010010999991991022021004+70933-008667FM-12+0009ENJA V0200101N01441006001CN0100001N9-00141-00151099101ADDAG12000AY181031AY231031GF107991071081002501999999MD1310021+9999MW1361
0114010010999991991022100004+70933-008667FM-12+0009ENJA V0200101N01031006001CN0025001N9-00161-00161099061ADDAA106000391AG10000AY181061AY231061GF108991081081002501999999MD1810041+9999MW1851OA149902261REMSYN011333   91144
0091010010999991991022103004+70933-008667FM-12+0009ENJA V0200101N00931006001CN0040001N9-00121-00121099021ADDAG12000AY181031AY231031GF108991081081002501999999MD1710041+9999MW1361EQDQ01+000842APC3  
0133010010999991991022106004+70933-008667FM-12+0009ENJA V0200201N01291006001CN0040001N9-00141-00141099001ADDAA199001091AG19000AY181061AY231061GF108991081081002501999999KA1120N-00201MD1610021+9999MW1851OA149902321REMSYN017333   21020 91145
0072010010999991991022109004+70933-008667FM-12+0009ENJA V0200101N01391006001CN0070001N9-00131-00131099111ADDAG12000AY181031AY231031GF107991071081002501999999MD1310111+9999MW1361
0134010010999991991022112004+70933-008667FM-12+0009ENJA V0200101N01081006001CN0080001N9-00151-00161099261ADDAA106000391AG10000AY181061AY231061GF107991071081002501999999MD1210151+9999MW1851OA149902261SA1-0059REMSYN023222// 01005 333   91144
0072010010999991991022115004+70933-008667FM-12+0009ENJA V0200101N01231006001CN0040001N9-00221-00251099321ADDAG12000AY181031AY231031GF107991071081002501999999MD1210061+9999MW1381
0133010010999991991022118004+70933-008667FM-12+0009ENJA V0200101N01031006001CN0070001N9-00281-00421099441ADDAA199000391AG10000AY181061AY231061GF108991081081002501999999KA1120M-00111MD1210121+9999MW1361OA149901961REMSYN017333   11011 91138
0072010010999991991022121004+70933-008667FM-12+0009ENJA V0200101N01231006001CN0070001N9-00341-00471099511ADDAG12000AY181031AY231031GF107991071081002501999999MD1210071+9999MW1851
0114010010999991991022200004+70933-008667FM-12+0009ENJA V0203401N00871006001CN0030001N9-00371-00431099641ADDAA106000191AG10000AY181061AY231061GF108991081081002501999999MD1210131+9999MW1851OA149901751REMSYN011333   91134
0072010010999991991022203004+70933-008667FM-12+0009ENJA V0203401N00621009001CN0050001N9-00421-00501099731ADDAG12000AY181031AY231031GF108991081081004501999999MD1210091+9999MW1851
0133010010999991991022206004+70933-008667FM-12+0009ENJA V0203601N00411009001CN0100001N9-00471-00661099791ADDAA199000391AG10000AY181061AY231061GF107991071081004501999999KA1120N-00471MD1210061+9999MW1151OA149901241REMSYN017333   21047 91124
0072010010999991991022209004+70933-008667FM-12+0009ENJA V0203401N00511009001CN0140001N9-00531-00701099861ADDAG12000AY181031AY221031GF106991051081004501041011MD1210071+9999MW1261
0134010010999991991022212004+70933-008667FM-12+0009ENJA V0203301N00511024001CN0300001N9-00601-00761099911ADDAA106999929AG10000AY181061AY221061GF105991031081008001071011MD1210051+9999MW1261OA149900821SA1-0059REMSYN023222// 01005 333   91116
0072010010999991991022215004+70933-008667FM-12+0009ENJA V0203501N00411220001CN0300001N9-00651-00761099851ADDAG12000AY181031AY211031GF103991011081004501071011MD1710061+9999MW1151
0133010010999991991022218004+70933-008667FM-12+0009ENJA V0203601N00261024001CN0120001N9-00631-00671099771ADDAA199999929AG10000AY181061AY211061GF105991031081008001041001KA1120M-00461MD1710081+9999MW1261OA149900671REMSYN017333   11046 91113
0072010010999991991022221004+70933-008667FM-12+0009ENJA V0203601N00211012001CN0100001N9-00571-00661099751ADDAG12000AY181031AY221031GF108991081081008001999999MD1710021+9999MW1851
0114010010999991991022300004+70933-008667FM-12+0009ENJA V0203401N00511009001CN0100001N9-00481-00531099671ADDAA106000191AG10000AY181061AY221061GF107991071081004501999999MD1710081+9999MW1851OA149900671REMSYN011333   91113
0072010010999991991022303004+70933-008667FM-12+0009ENJA V0203601N00671009001CN0060001N9-00501-00511099601ADDAG12000AY181031AY281031GF106991061081004501999999MD1710071+9999MW1851
0133010010999991991022306004+70933-008667FM-12+0009ENJA V0203601N00621060001CN0300001N9-00501-00671099561ADDAA199000391AG10000AY181061AY221061GF105991011081004501071011KA1120N-00731MD1710041+9999MW1261OA149900981REMSYN017333   21073 91119
0050010010999991991022309004+70933-008667FM-12+0009ENJA V0203501N00621220001CN0400001N9-00511-00841099591ADDAG12000GF103991011051008001041001MD1210031+9999
0112010010999991991022312004+70933-008667FM-12+0009ENJA V0203501N00931024001CN0300001N9-00521-00701099651ADDAA106000091AG14000GF106991021081008001071011MD1210061+9999OA149901291SA1-0069REMSYN023222// 01006 333   91125
0072010010999991991022315004+70933-008667FM-12+0009ENJA V0203501N00771220001CN0100001N9-00531-00751099751ADDAG12000AY121031AY211031GF104991041081002501001001MD1210101+9999MW1851
0133010010999991991022318004+70933-008667FM-12+0009ENJA V0203601N00461060001CN0200001N9-00571-00901099881ADDAA199999929AG10000AY181061AY211061GF105991021081004501071011KA1120M-00491MD1210131+9999MW1151OA149901291REMSYN017333   11049 91125
0072010010999991991022321004+70933-008667FM-12+0009ENJA V0203601N00411009001CN0150001N9-00551-00961100061ADDAG12000AY181031AY211031GF107991071081004501999999MD1210181+9999MW1851
0114010010999991991022400004+70933-008667FM-12+0009ENJA V0200201N00361006001CN0100001N9-00561-00801100241ADDAA106000191AG10000AY181061AY211061GF107991071081002501999999MD1210181+9999MW1261OA149900821REMSYN011333   91116
0072010010999991991022403004+70933-008667FM-12+0009ENJA V0203501N00771220001CN0200001N9-00691-00931100381ADDAG12000AY181031AY211031GF104991041081004501001001MD1210141+9999MW1261
0133010010999991991022406004+70933-008667FM-12+0009ENJA V0203601N00771009001CN0100001N9-00701-00991100481ADDAA199000391AG10000AY181061AY211061GF108991081081004501999999KA1120N-00761MD1210101+9999MW1851OA149901391REMSYN017333   21076 91127
0072010010999991991022409004+70933-008667FM-12+0009ENJA V0200201N00511220001CN0300001N9-00671-00781100661ADDAG12000AY181031AY211031GF104991041081004501001001MD1210181+9999MW1851
0134010010999991991022412004+70933-008667FM-12+0009ENJA V0200301N00361009001CN0300001N9-00631-00971100821ADDAA106999929AG10000AY181061AY211061GF107991071081004501999999MD1210161+9999MW1261OA149900881SA1-0129REMSYN023222// 01012 333   91117
0050010010999991991022415004+70933-008667FM-12+0009ENJA V0200101N00361012001CN0300001N9-00661-00941100991ADDAG12000GF106991061081008001999999MD1210171+9999
0111010010999991991022418004+70933-008667FM-12+0009ENJA V0200201N00211220001CN0300001N9-00771-00991101171ADDAA199999929AG10000GF104991041051008001001001KA1120M-00611MD1210181+9999OA149900721REMSYN017333   11061 91114
0050010010999991991022421004+70933-008667FM-12+0009ENJA V0203101N00211220001CN0300001N9-00941-01071101321ADDAG12000GF101991011051008001001001MD1210151+9999
0092010010999991991022500004+70933-008667FM-12+0009ENJA V0202801N00211220001CN0750001N9-00871-00991101421ADDAA106000091AG14000GF101991011051008001001001MD1210101+9999OA149900461REMSYN011333   91109
0050010010999991991022503004+70933-008667FM-12+0009ENJA V0202701N00311220001CN0750001N9-00761-00921101491ADDAG12000GF101991011051008001001001MD1210071+9999
0111010010999991991022506004+70933-008667FM-12+0009ENJA V0202701N00101220001CN0750001N9-00771-00901101601ADDAA106000091AG14000GF101991011051008001001001KA1120N-01021MD1210111+9999OA149900461REMSYN017333   21102 91109
0050010010999991991022509004+70933-008667FM-12+0009ENJA V0202601N00311220001CN0750001N9-00501-00641101701ADDAG12000GF103991031051008001001001MD1210101+9999
0112010010999991991022512004+70933-008667FM-12+0009ENJA V0202301N00571007501CN0500001N9-00411-00531101841ADDAA106000091AG14000GF106991061051008001001001MD1210141+9999OA149900821SA1-0109REMSYN023222// 01010 333   91116
0050010010999991991022515004+70933-008667FM-12+0009ENJA V0202001N00821007501CN0500001N9-00291-00431101871ADDAG12000GF107991071051008001001001MD1210031+9999
0111010010999991991022518004+70933-008667FM-12+0009ENJA V0202001N00931007501CN0500001N9-00261-00421102011ADDAA106000091AG14000GF107991071051008001999999KA1120M-00251MD1210141+9999OA149901241REMSYN017333   11025 91124
0050010010999991991022521004+70933-008667FM-12+0009ENJA V0201901N00931007501CN0500001N9-00151-00421102011ADDAG12000GF107991071051008001999999MD1410001+9999
0092010010999991991022600004+70933-008667FM-12+0009ENJA V0201601N00821007501CN0300001N9-00031-00241101961ADDAA106000091AG14000GF108991061051008001011999MD1810051+9999OA149901391REMSYN011333   91127
0050010010999991991022603004+70933-008667FM-12+0009ENJA V0201201N00771024001CN0250001N9+00001-00011101821ADDAG12000GF108991041051004501011999MD1710141+9999
0111010010999991991022606004+70933-008667FM-12+0009ENJA V0201701N00671004201CN0250001N9+00021+00001101711ADDAA106000091AG14000GF108991061051004501999999KA1120N-00281MD1710111+9999OA149902321REMSYN017333   21028 91145
0072010010999991991022609004+70933-008667FM-12+0009ENJA V0201801N00771004201CN0200001N9+00131+00121101581ADDAG12000AY161031AY221031GF108991081051004501999999MD1710131+9999MW1601
0134010010999991991022612004+70933-008667FM-12+0009ENJA V0201701N01031004201CN0150001N9+00161+00151101411ADDAA106999929AG10000AY161061AY221061GF108991081051004501999999MD1710171+9999MW1601OA149901601SA1-0079REMSYN023222// 01007 333   91131
0072010010999991991022615004+70933-008667FM-12+0009ENJA V0201701N01131002101CN0100001N9+00181+00171101231ADDAG12000AY161031AY221031GF108991081051002501999999MD1710181+9999MW1211
0133010010999991991022618004+70933-008667FM-12+0009ENJA V0201801N01131002101CN0070001N9+00181+00171101101ADDAA199999929AG10000AY161061AY221061GF108991081061002501999999KA1120M+00191MD1710131+9999MW1101OA149901801REMSYN017333   10019 91135
0072010010999991991022621004+70933-008667FM-12+0009ENJA V0201701N01181002101CN0080001N9+00181+00181100851ADDAG12000AY161031AY221031GF108991081071002501999999MD1710251+9999MW1101
0114010010999991991022700004+70933-008667FM-12+0009ENJA V0201801N01031002101CN0025001N9+00151+00151100741ADDAA106000191AG10000AY161061AY221061GF108991081061002501999999MD1710111+9999MW1211OA149901651REMSYN011333   91132
0072010010999991991022703004+70933-008667FM-12+0009ENJA V0202001N00721001201CN0015001N9+00101+00101100711ADDAG12000AY151031AY221031GF108991081061001501999999MD1710031+9999MW1501
0133010010999991991022706004+70933-008667FM-12+0009ENJA V0202001N00461001201CN0010001N9+00091+00091100581ADDAA199001091AG19001AY161061AY251061GF108991081061001501999999KA1120N+00071MD1710131+9999MW1611OA149901541REMSYN017333   20007 91130
0072010010999991991022709004+70933-008667FM-12+0009ENJA V0201701N00871000601CN0025001N9+00131+00131100541ADDAG12001AY161031AY251031GF108991081071000751999999MD1710041+9999MW1611
0134010010999991991022712004+70933-008667FM-12+0009ENJA V0201501N00511000601CN0025001N9+00111+00111100351ADDAA106005091AG10000AY161061AY251061GF108991081071000751999999MD1810191+9999MW1581OA149901131SA1-0029REMSYN023222// 01002 333   91122
0072010010999991991022715004+70933-008667FM-12+0009ENJA V0201701N007719999999N0025001N9+00161+00161100041ADDAG12000AY161031AY251031GF108991999999000751999999MD1710311+9999MW1581
0133010010999991991022718004+70933-008667FM-12+0009ENJA V0202001N00671002101CN0050001N9+00031+00031100211ADDAA199009091AG10000AY171061AY261061GF107991071071002501999999KA1120M+00171MD1310171+9999MW1231OA149901341REMSYN017333   10017 91126
0072010010999991991022721004+70933-008667FM-12+0009ENJA V0202301N00721001201CN0030001N9+00031+00031100961ADDAG12000AY121031AY221031GF106991061061001501999999MD1210751+9999MW1101
0114010010999991991022800004+70933-008667FM-12+0009ENJA V0201401N00411000601CN0020001N9-00041-00041101311ADDAA106000091AG10000AY121061AY221061GF108991081061000751999999MD1210351+9999MW1101OA149902061REMSYN011333   91140
0072010010999991991022803004+70933-008667FM-12+0009ENJA V0202101N00461000601CN0015001N9+00081+00081101341ADDAG12000AY161031AY251031GF108991081061000751999999MD1110031+9999MW1581
0149010010999991991022806004+70933-008667FM-12+0009ENJA V0201801N00721000601CN0009001N9+00101+00101101391ADDAA199001091AG10000AY161061AY251061GA1091+999999999GF109991091999999999999999KA1120N-00051MD1210051+9999MW1451OA149901131REMSYN017333   21005 91122
0072010010999991991022809004+70933-008667FM-12+0009ENJA V0201701N00821001201CN0020001N9+00121+00121101451ADDAG12000AY141031AY221031GF108991081061001501999999MD1210061+9999MW1101
0134010010999991991022812004+70933-008667FM-12+0009ENJA V0201801N00721001201CN0040001N9+00111+00111101501ADDAA106000391AG10000AY161061AY241061GF108991081061001501999999MD1210051+9999MW1101OA149901181SA1+0009REMSYN023222// 00000 333   91123
0072010010999991991022815004+70933-008667FM-12+0009ENJA V0201801N00771001201CN0045001N9+00111+00111101531ADDAG12000AY161031AY221031GF108991081061001501999999MD1210031+9999MW1601
0133010010999991991022818004+70933-008667FM-12+0009ENJA V0201801N00511001201CN0060001N9+00091+00091101551ADDAA199000391AG10000AY161061AY251061GF108991081051001501999999KA1120M+00141MD1210021+9999MW1211OA149901241REMSYN017333   10014 91124
0050010010999991991022821004+70933-008667FM-12+0009ENJA V0201401N00411060001CN0250001N9+00061+00061101551ADDAG12000GF106991011081004501071061MD1410001+9999
0114010010999991991030100004+70933-008667FM-12+0009ENJA V0201201N00571024001CN0120001N9+00081+00071101491ADDAA106000191AG10000AY151061AY221061GF108991011051004501071999MD1810061+9999MW1101OA149900671REMSYN011333   91113
0072010010999991991030103004+70933-008667FM-12+0009ENJA V0201601N00461006001CN0080001N9+00081+00081101381ADDAG12000AY181031AY221031GF107991071081002501999999MD1710111+9999MW1101
0072010010999991991030109004+70933-008667FM-12+0009ENJA V0201001N00821001201CN0060001N9+00101+00101101141ADDAG12001AY181031AY261031GF108991081061001501999999MD1710121+9999MW1681
0134010010999991991030112004+70933-008667FM-12+0009ENJA V0201601N00821006001CN0150001N9+00131+00121101121ADDAA106000391AG10000AY181061AY271061GF108991081081002501999999MD1610021+9999MW1021OA149901131SA1+0009REMSYN023222// 00000 333   91122
0072010010999991991030115004+70933-008667FM-12+0009ENJA V0201801N00871024001CN0100001N9+00101+00091101141ADDAG12001AY161031AY221031GF108991021071002501021999MD1210021+9999MW1611
0133010010999991991030118004+70933-008667FM-12+0009ENJA V0201901N00931009001CN0120001N9+00011+00011101321ADDAA199000591AG10000AY181061AY261061GF108991081081004501999999KA1120M+00151MD1310181+9999MW1021OA149901441REMSYN017333   10015 91128
0050010010999991991030121004+70933-008667FM-12+0009ENJA V0202001N01031004201CN0120001N9+00001-00011101551ADDAG12000GF108991081051004501999999MD1210231+9999
0092010010999991991030200004+70933-008667FM-12+0009ENJA V0201801N00721009001CN0200001N9+00001-00011101691ADDAA106000091AG14000GF107991071081004501999999MD1210141+9999OA149901391REMSYN011333   91127
0072010010999991991030203004+70933-008667FM-12+0009ENJA V0201801N00211006001CN0050001N9-00011-00011101751ADDAG12000AY181031AY221031GF108991081081002501999999MD1210061+9999MW1851
0133010010999991991030206004+70933-008667FM-12+0009ENJA V0201101N00511001201CN0050001N9+00081+00081101751ADDAA199000391AG10000AY181061AY261061GF108991081071001501999999KA1120N-00031MD1410001+9999MW1601OA149900821REMSYN017333   21003 91116
0072010010999991991030209004+70933-008667FM-12+0009ENJA V0201201N00361006001CN0080001N9+00051+00051101871ADDAG12000AY181031AY221031GF108991061081002501071999MD1310121+9999MW1831
0134010010999991991030212004+70933-008667FM-12+0009ENJA V0200901N00311024001CN0180001N9+00071+00071101931ADDAA106001091AG10000AY181061AY221061GF108991031081002501071999MD1210061+9999MW1021OA149900881SA1+0009REMSYN023222// 00000 333   91117
0050010010999991991030215004+70933-008667FM-12+0009ENJA V0201001N00671024001CN0400001N9+00121+00121101901ADDAG12000GF107991031081004501041999MD1810031+9999
0111010010999991991030218004+70933-008667FM-12+0009ENJA V0201001N00621024001CN0400001N9+00111+00101101871ADDAA199001091AG10000GF107991021081004501041021KA1120M+00141MD1310031+9999OA149900931REMSYN017333   10014 91118
0050010010999991991030221004+70933-008667FM-12+0009ENJA V0209999999999024001CN0400001N9+00101+00091101861ADDAG12000GF107991031081017501041999MD1610011+9999
0114010010999991991030300004+70933-008667FM-12+0009ENJA V0201201N00621002101CN0140001N9+00081+00081101821ADDAA106001091AG10001AY181061AY261061GF108991081061002501999999MD1710041+9999MW1681OA149901131REMSYN011333   91122
0072010010999991991030303004+70933-008667FM-12+0009ENJA V0202101N00511001201CN0020001N9+00011+00011101771ADDAG12000AY171031AY251031GF108991081071001501999999MD1710051+9999MW1711
0133010010999991991030306004+70933-008667FM-12+0009ENJA V0201501N00311001201CN0080001N9+00071+00071101751ADDAA199003091AG10000AY171061AY251061GF108991081071001501999999KA1120N+00001MD1510021+9999MW1511OA149900931REMSYN017333   20000 91118
0072010010999991991030309004+70933-008667FM-12+0009ENJA V0202001N00411001201CN0030001N9+00051+00051101791ADDAG12000AY171031AY251031GF108991081071001501999999MD1210041+9999MW1101
0134010010999991991030312004+70933-008667FM-12+0009ENJA V0201801N00411001201CN0150001N9+00061+00061101881ADDAA106003091AG10001AY171061AY261061GF108991081061001501999999MD1210091+9999MW1611OA149900981SA1+0009REMSYN023222// 00000 333   91119
0072010010999991991030315004+70933-008667FM-12+0009ENJA V0202101N00411006001CN0150001N9+00111+00111101881ADDAG12001AY181031AY261031GF107991061081001501061999MD1410001+9999MW1801
0133010010999991991030318004+70933-008667FM-12+0009ENJA V0209991C00001006001CN0025001N9+00071+00071101861ADDAA199003091AG10000AY181061AY261061GF108991081081001501999999KA1120M+00121MD1610021+9999MW1101OA149900511REMSYN017333   10012 91110
0050010010999991991030321004+70933-008667FM-12+0009ENJA V0202001N00211009001CN0150001N9+00091+00091101881ADDAG12000GF107991071081004501999999MD1310021+9999
0114010010999991991030400004+70933-008667FM-12+0009ENJA V0201201N00151024001CN0060001N9+00071+00071101891ADDAA106000091AG14000AY121061AY221061GF105991031081004501041001MD1210011+9999MW1101OA149900571REMSYN011333   91111
0088010010999991991030403004+70933-008667FM-12+0009ENJA V0209991C00001000301CN0005001N9+00021+00021101891ADDAG11000AY141031AY221031GA1091+999999999GF109991091999999999999999MD1410001+9999MW1451
0149010010999991991030406004+70933-008667FM-12+0009ENJA V0200101N00101000301CN0003001N9-00011-00011101881ADDAA106000091AG14000AY141061AY221061GA1091+999999999GF109991091999999999999999KA1120N-00021MD1710011+9999MW1451OA149900261REMSYN017333   21002 91105
0072010010999991991030409004+70933-008667FM-12+0009ENJA V0202901N00101000601CN0025001N9+00011+00011101961ADDAG12000AY141031AY221031GF108991081061000751999999MD1210081+9999MW1101
0134010010999991991030412004+70933-008667FM-12+0009ENJA V0209991C00001024001CN0180001N9+00071+00071102041ADDAA106000091AG14000AY141061AY221061GF106991041081004501071999MD1210081+9999MW1011OA149900151SA1+0019REMSYN023222// 00001 333   91103
0050010010999991991030415004+70933-008667FM-12+0009ENJA V0201901N00101060001CN0200001N9+00091+00091102051ADDAG12000GF105991021081002501071011MD1210011+9999
0133010010999991991030418004+70933-008667FM-12+0009ENJA V0200901N00461006001CN0250001N9+00031+00031102081ADDAA106000091AG14000AY111061AY211061GF107991061081002501041999KA1120M+00121MD1210031+9999MW1151OA149900571REMSYN017333   10012 91111
0072010010999991991030421004+70933-008667FM-12+0009ENJA V0201001N00461004201CN0150001N9+00071+00071102151ADDAG12000AY181031AY221031GF107991071091004501999999MD1210071+9999MW1871
0114010010999991991030500004+70933-008667FM-12+0009ENJA V0209991C00001220001CN0300001N9+00041+00041102191ADDAA106999929AG10000AY181061AY211061GF103991021081002501071999MD1210041+9999MW1011OA149900621REMSYN011333   91112
