0044010015999991990010109004+00000+999999FM-15+9999ENBL V0203401N00211220001CN0112001N1-00701-01101999999ADDAG12000MA1102101999999EQDQ01+000000PRSWM2
0044010015999991990010109504+00000+999999FM-15+9999ENBL V0203201N00211220001CN0112001N1-00801-01201999999ADDAG12999MA1102101999999EQDQ01+000000PRSWM2
0044010015999991990010110504+00000+999999FM-15+9999ENBL V0203001N00101220001CN0112001N1-00601-01201999999ADDAG12999MA1102101999999EQDQ01+000000PRSWM2
0060010015999991990010111504+00000+999999FM-15+9999ENBL V0203101N00101220001CN0112001N1-00501-01401999999ADDAG12000GA1011+030009039MA1102101999999EQDQ01+000000PRSWM2
0060010015999991990010113504+00000+999999FM-15+9999ENBL V0203001N00051220001CN0112001N1-00601-01401999999ADDAG12999GA1011+030009039MA1102001999999EQDQ01+000000PRSWM2
0060010015999991990010115004+00000+999999FM-15+9999ENBL V0203301N00101220001CN0112001N1-00601-01301999999ADDAG12000GA1011+030009039MA1102001999999EQDQ01+000000PRSWM2
0060010015999991990010116004+00000+999999FM-15+9999ENBL V0209991C00001220001CN0112001N1-00801-01401999999ADDAG12999GA1011+060009009MA1102001999999EQDQ01+000000PRSWM2
0060010015999991990010117004+00000+999999FM-15+9999ENBL V0209991V00101220001CN0112001N1-00601-01401999999ADDAG12999GA1011+060009009MA1102001999999EQDQ01+000000PRSWM2
0044010015999991990010117504+00000+999999FM-15+9999ENBL V0203201N00151220001CN0112001N1-00801-01401999999ADDAG12000MA1102001999999EQDQ01+000000PRSWM2
0044010015999991990010118504+00000+999999FM-15+9999ENBL V0203301N00101220001CN0112001N1-00701-01301999999ADDAG12999MA1102001999999EQDQ01+000000PRSWM2
0060010015999991990010205504+00000+999999FM-15+9999ENBL V0202801N00101220001CN0112001N1-00701-01401999999ADDAG12000GA1021+012009059MA1101901999999EQDQ01+000000PRSWM2
0060010015999991990010206304+00000+999999FM-15+9999ENBL V0203001N00151220001CN0112001N1-00701-01401999999ADDAG12999GA1031+009009059MA1101901999999EQDQ01+000000PRSWM2
0060010015999991990010207004+00000+999999FM-15+9999ENBL V0203001N00151220001CN0112001N1-00701-01401999999ADDAG12999GA1031+009009059MA1101901999999EQDQ01+000000PRSWM2
0060010015999991990010207504+00000+999999FM-15+9999ENBL V0202901N00101009001CN0112001N1-00601-01401999999ADDAG12999GA1061+009009059MA1101901999999EQDQ01+000000PRSWM2
0060010015999991990010208004+00000+999999FM-15+9999ENBL V0202901N00101009001CN0112001N1-00601-01401999999ADDAG12999GA1061+009009059MA1101901999999EQDQ01+000000PRSWM2
0060010015999991990010208504+00000+999999FM-15+9999ENBL V0203001N00101009001CN0112001N1-00601-01301999999ADDAG12000GA1061+009009059MA1101901999999EQDQ01+000000PRSWM2
0060010015999991990010209004+00000+999999FM-15+9999ENBL V0203001N00101009001CN0112001N1-00601-01301999999ADDAG12000GA1061+009009059MA1101901999999EQDQ01+000000PRSWM2
0060010015999991990010209204+00000+999999FM-15+9999ENBL V0203001N00101009001CN0112001N1-00601-01301999999ADDAG12000GA1061+009009059MA1101901999999EQDQ01+000000PRSWM2
0060010015999991990010209504+00000+999999FM-15+9999ENBL V0202601N00101010501CN0112001N1-00501-01301999999ADDAG12999GA1061+010509059MA1101901999999EQDQ01+000000PRSWM2
0060010015999991990010211004+00000+999999FM-15+9999ENBL V0209991V00101010501CN0112001N1-00501-01201999999ADDAG12999GA1061+010509059MA1101901999999EQDQ01+000000PRSWM2
0060010015999991990010211484+00000+999999FM-15+9999ENBL V0209991V00101010501CN0112001N1-00501-01201999999ADDAG12000GA1061+010509059MA1101901999999EQDQ01+000000PRSWM2
0060010015999991990010212004+00000+999999FM-15+9999ENBL V0209991C00001010501CN0112001N1-00401-01201999999ADDAG12000GA1061+010509059MA1101901999999EQDQ01+000000PRSWM2
0060010015999991990010213004+00000+999999FM-15+9999ENBL V0209991C00001010501CN0112001N1-00401-01201999999ADDAG12999GA1061+010509059MA1101901999999EQDQ01+000000PRSWM2
0060010015999991990010214004+00000+999999FM-15+9999ENBL V0201801N00101010501CN0112001N1-00401-01201999999ADDAG12999GA1061+010509059MA1101901999999EQDQ01+000000PRSWM2
0060010015999991990010215004+00000+999999FM-15+9999ENBL V0202801N00101009001CN0112001N1-00301-01101999999ADDAG12000GA1071+009009059MA1101901999999EQDQ01+000000PRSWM2
0060010015999991990010216004+00000+999999FM-15+9999ENBL V0202901N00101010501CN0112001N1-00301-01101999999ADDAG12999GA1071+010509059MA1101901999999EQDQ01+000000PRSWM2
0060010015999991990010217004+00000+999999FM-15+9999ENBL V0203101N00101010501CN0112001N1-00301-01101999999ADDAG12999GA1071+010509059MA1101901999999EQDQ01+000000PRSWM2
0060010015999991990010218004+00000+999999FM-15+9999ENBL V0202901N00101010501CN0112001N1-00301-01001999999ADDAG12000GA1071+010509059MA1101901999999EQDQ01+000000PRSWM2
0060010015999991990010218504+00000+999999FM-15+9999ENBL V0203001N00101010501CN0112001N1-00301-00901999999ADDAG12999GA1071+010509059MA1101901999999EQDQ01+000000PRSWM2
0060010015999991990010306004+00000+999999FM-15+9999ENBL V0203001N00101012001CN0112001N1-00201-00801999999ADDAG12000GA1061+012009059MA1101901999999EQDQ01+000000PRSWM2
0060010015999991990010306504+00000+999999FM-15+9999ENBL V0203501N00151012001CN0112001N1-00201-00801999999ADDAG12999GA1061+012009059MA1101901999999EQDQ01+000000PRSWM2
0047010015999991990010308004+00000+999999FM-15+9999ENBL V0209991C00001012001CN0112001N1-00101-00801999999ADDAG12999GA1071+012009059MA1101901999999MW1701
0047010015999991990010308254+00000+999999FM-15+9999ENBL V0209991C00001012001CN0112001N1-00101-00801999999ADDAG12999GA1071+012009059MA1101901999999MW1701
0076010015999991990010309004+00000+999999FM-15+9999ENBL V0209991C00001010501CN0112001N1-00101-00801999999ADDAG12000GA1021+007509059GA2061+010509059MA1101801999999EQDQ01+000000PRSWM2
0063010015999991990010309504+00000+999999FM-15+9999ENBL V0202901N00101010501CN0112001N1+00001-00601999999ADDAG12999GA1021+007509059GA2061+010509059MA1101801999999MW1851
0063010015999991990010310004+00000+999999FM-15+9999ENBL V0202901N00101010501CN0112001N1+00001-00601999999ADDAG12999GA1021+007509059GA2061+010509059MA1101801999999MW1851
0063010015999991990010311184+00000+999999FM-15+9999ENBL V0201401N00211009001CN0112001N1+00001-00501999999ADDAG12999GA1021+003009079GA2061+009009059MA1101801999999MW1851
0047010015999991990010312004+00000+999999FM-15+9999ENBL V0203001N00151004501CN0025001N1+00001-00101999999ADDAG12000GA1091+004509999MA1101801999999MW1701
0047010015999991990010312304+00000+999999FM-15+9999ENBL V0203001N00151004501CN0025001N1+00001-00101999999ADDAG12999GA1091+004509999MA1101801999999MW1701
0047010015999991990010313004+00000+999999FM-15+9999ENBL V0202001N00151004501CN0020001N1+00001-00101999999ADDAG12999GA1091+004509999MA1101691999999MW1731
0047010015999991990010313204+00000+999999FM-15+9999ENBL V0202001N00151004501CN0020001N1+00001-00101999999ADDAG12999GA1091+004509999MA1101691999999MW1731
0047010015999991990010313504+00000+999999FM-15+9999ENBL V0203301N00101004501CN0025001N1+00001+00001999999ADDAG12999GA1091+004509999MA1101691999999MW1731
0079010015999991990010317004+00000+999999FM-15+9999ENBL V0202001N00361003601CN0030001N1+00101+00001999999ADDAG12999GA1021+000909079GA2061+003609059GA3021+999999079MA1101691999999MW1711
0063010015999991990010318004+00000+999999FM-15+9999ENBL V0201901N00411999999CN0025001N1+00001-00101999999ADDAG12003GA1021+000909079GA2021+999999079MA1101591999999MW1731
0047010015999991990010319504+00000+999999FM-15+9999ENBL V0202201N00211003001CN0020001N1+00001-00101999999ADDAG12999GA1091+003009999MA1101591999999MW1731
0047010015999991990010405004+00000+999999FM-15+9999ENBL V0202501N00151006001CN0030001N1+00001-00101999999ADDAG12999GA1091+006009999MA1101691999999MW1711
0047010015999991990010405504+00000+999999FM-15+9999ENBL V0209991V00051006001CN0030001N1+00001-00101999999ADDAG12009GA1091+006009999MA1101691999999MW1711
0047010015999991990010406504+00000+999999FM-15+9999ENBL V0209991V00051006001CN0112001N1+00001-00101999999ADDAG12999GA1061+006009059MA1101591999999MW1221
0047010015999991990010407004+00000+999999FM-15+9999ENBL V0209991V00051006001CN0112001N1+00001-00101999999ADDAG12999GA1061+006009059MA1101591999999MW1221
0047010015999991990010407504+00000+999999FM-15+9999ENBL V0200101N00101220001CN0112001N1+00001-00101999999ADDAG12999GA1031+006009059MA1101591999999MW1221
0047010015999991990010408004+00000+999999FM-15+9999ENBL V0200101N00101220001CN0112001N1+00001-00101999999ADDAG12999GA1031+006009059MA1101591999999MW1221
0060010015999991990010410004+00000+999999FM-15+9999ENBL V0200401N00211010501CN0112001N1+00001-00101999999ADDAG12999GA1051+010509059MA1101591999999EQDQ01+000000PRSWM2
0060010015999991990010410304+00000+999999FM-15+9999ENBL V0200401N00211010501CN0112001N1+00001-00101999999ADDAG12999GA1051+010509059MA1101591999999EQDQ01+000000PRSWM2
0060010015999991990010410504+00000+999999FM-15+9999ENBL V0200501N00151010501CN0112001N1+00001-00101999999ADDAG12999GA1051+010509059MA1101591999999EQDQ01+000000PRSWM2
0060010015999991990010411504+00000+999999FM-15+9999ENBL V0203601N00151010501CN0112001N1+00001-00201999999ADDAG12000GA1061+010509059MA1101591999999EQDQ01+000000PRSWM2
0060010015999991990010412204+00000+999999FM-15+9999ENBL V0203601N00151010501CN0112001N1+00001-00201999999ADDAG12000GA1061+010509059MA1101591999999EQDQ01+000000PRSWM2
0060010015999991990010412304+00000+999999FM-15+9999ENBL V0203601N00151010501CN0112001N1+00001-00201999999ADDAG12999GA1061+010509059MA1101591999999EQDQ01+000000PRSWM2
0060010015999991990010413004+00000+999999FM-15+9999ENBL V0209991V00101010501CN0112001N1+00001-00201999999ADDAG12999GA1061+010509059MA1101491999999EQDQ01+000000PRSWM2
0076010015999991990010414004+00000+999999FM-15+9999ENBL V0200501N00101018001CN0112001N1+00001-00201999999ADDAG12999GA1041+010509059GA2071+018009039MA1101491999999EQDQ01+000000PRSWM2
0076010015999991990010414304+00000+999999FM-15+9999ENBL V0200501N00101018001CN0112001N1+00001-00201999999ADDAG12000GA1041+010509059GA2071+018009039MA1101491999999EQDQ01+000000PRSWM2
0060010015999991990010415004+00000+999999FM-15+9999ENBL V0209991C00001010501CN0112001N1+00001-00301999999ADDAG12000GA1061+010509059MA1101491999999EQDQ01+000000PRSWM2
0060010015999991990010416004+00000+999999FM-15+9999ENBL V0209991C00001010501CN0112001N1+00001-00301999999ADDAG12999GA1051+010509059MA1101491999999EQDQ01+000000PRSWM2
0060010015999991990010418004+00000+999999FM-15+9999ENBL V0209991C00001012001CN0112001N1-00101-00301999999ADDAG12000GA1051+012009059MA1101391999999EQDQ01+000000PRSWM2
0076010015999991990010505504+00000+999999FM-15+9999ENBL V0200401N00101012001CN0112001N1-00201-00501999999ADDAG12000GA1021+007509059GA2061+012009059MA1101491999999EQDQ01+000000PRSWM2
0076010015999991990010507084+00000+999999FM-15+9999ENBL V0203401N00211012001CN0112001N1-00101-00501999999ADDAG12999GA1021+009009059GA2061+012009059MA1101491999999EQDQ01+000000PRSWM2
0076010015999991990010509004+00000+999999FM-15+9999ENBL V0209991V00051012001CN0112001N1-00101-00501999999ADDAG12000GA1031+009009059GA2061+012009059MA1101491999999EQDQ01+000000PRSWM2
0076010015999991990010510004+00000+999999FM-15+9999ENBL V0202201N00261012001CN0112001N1-00101-00501999999ADDAG12999GA1041+009009059GA2061+012009059MA1101591999999EQDQ01+000000PRSWM2
0076010015999991990010510504+00000+999999FM-15+9999ENBL V0202201N00151012001CN0112001N1+00001-00501999999ADDAG12999GA1041+007509059GA2071+012009059MA1101591999999EQDQ01+000000PRSWM2
0076010015999991990010510534+00000+999999FM-15+9999ENBL V0202201N00261012001CN0112001N1-00101-00501999999ADDAG12999GA1041+009009059GA2061+012009059MA1101591999999EQDQ01+000000PRSWM2
0076010015999991990010511004+00000+999999FM-15+9999ENBL V0202301N00151012001CN0112001N1-00101-00501999999ADDAG12999GA1041+007509059GA2061+012009059MA1101591999999EQDQ01+000000PRSWM2
0076010015999991990010511514+00000+999999FM-15+9999ENBL V0202301N00151012001CN0112001N1-00101-00501999999ADDAG12000GA1041+007509059GA2061+012009059MA1101591999999EQDQ01+000000PRSWM2
0076010015999991990010512004+00000+999999FM-15+9999ENBL V0202201N00151012001CN0112001N1+00001-00501999999ADDAG12000GA1041+007509059GA2071+012009059MA1101591999999EQDQ01+000000PRSWM2
0047010015999991990010513004+00000+999999FM-15+9999ENBL V0202601N00261006001CN0050001N1+00001-00501999999ADDAG12999GA1091+006009999MA1101591999999MW1701
0047010015999991990010514004+00000+999999FM-15+9999ENBL V0202401N00151004501CN0030001N1-00101-00201999999ADDAG12999GA1091+004509999MA1101591999999MW1711
0047010015999991990010514504+00000+999999FM-15+9999ENBL V0202701N00211003001CN0020001N1-00101-00101999999ADDAG12009GA1091+003009999MA1101591999999MW1711
0079010015999991990010516004+00000+999999FM-15+9999ENBL V0202501N00101006001CN0015001N1-00101-00101999999ADDAG12999GA1031+000909079GA2061+006009059GA3021+999999079MA1101591999999MW1711
0092010015999991990010517004+00000+999999FM-15+9999ENBL V0201201N00101004501CN0030001N1-00101-00101999999ADDAG12999GA1031+000909079GA2061+004509059GA3021+999999079MA1101591999999EQDQ01+000000PRSWM2
0063010015999991990010518004+00000+999999FM-15+9999ENBL V0202901N00051004501CN0030001N1-00101-00101999999ADDAG12001GA1031+000909079GA2061+004509059MA1101691999999MW1711
0079010015999991990010519004+00000+999999FM-15+9999ENBL V0202001N00101004501CN0015001N1-00101-00101999999ADDAG12999GA1031+000909079GA2061+004509059GA3021+999999079MA1101691999999MW1681
0068010015999991990010607004+00000+999999FM-15+9999ENBL V0201901N00771013501CN0112001N1+00401-00101999999ADDAG12999GA1061+013509059MA1101391999999OC101131EQDQ01+000000PRSWM2
0055010015999991990010608084+00000+999999FM-15+9999ENBL V0202001N00511010501CN0112001N1+00401+00001999999ADDAG12999GA1071+010509089MA1101491999999MW1681OC100981
0084010015999991990010610004+00000+999999FM-15+9999ENBL V0202001N00671010501CN0112001N1+00401+00001999999ADDAG12999GA1021+007509089GA2061+010509089MA1101391999999OC101081EQDQ01+000000PRSWM2
0076010015999991990010611004+00000+999999FM-15+9999ENBL V0201701N00411010501CN0112001N1+00501-00101999999ADDAG12999GA1021+007509089GA2061+010509089MA1101391999999EQDQ01+000000PRSWM2
0076010015999991990010612004+00000+999999FM-15+9999ENBL V0201801N00411010501CN0112001N1+00501-00101999999ADDAG12000GA1021+007509089GA2061+010509089MA1101291999999EQDQ01+000000PRSWM2
0084010015999991990010613004+00000+999999FM-15+9999ENBL V0201901N00511010501CN0112001N1+00501-00101999999ADDAG12999GA1021+007509089GA2061+010509089MA1101191999999OC101031EQDQ01+000000PRSWM2
0084010015999991990010614004+00000+999999FM-15+9999ENBL V0201901N00511010501CN0112001N1+00501-00201999999ADDAG12999GA1021+007509089GA2061+010509089MA1101081999999OC101031EQDQ01+000000PRSWM2
0084010015999991990010615004+00000+999999FM-15+9999ENBL V0201901N00621009001CN0112001N1+00401+00001999999ADDAG12000GA1021+004509079GA2061+009009089MA1101081999999OC101031EQDQ01+000000PRSWM2
0076010015999991990010712104+00000+999999FM-15+9999ENBL V0202201N00311006001CN0112001N1+00201-00101999999ADDAG12000GA1011+003609079GA2051+006009089MA1101081999999EQDQ01+000000PRSWM2
0068010015999991990010714004+00000+999999FM-15+9999ENBL V0202001N00511007501CN0112001N1+00301-00101999999ADDAG12999GA1061+007509089MA1101081999999OC100981EQDQ01+000000PRSWM2
0084010015999991990010715004+00000+999999FM-15+9999ENBL V0202101N00771007501CN0112001N1+00401+00201999999ADDAG12000GA1021+004509089GA2071+007509089MA1101021999999OC101341EQDQ01+000000PRSWM2
0071010015999991990010717504+00000+999999FM-15+9999ENBL V0202001N00411006001CN0112001N1+00301+00201999999ADDAG12011GA1021+003609079GA2071+006009089MA1100911999999MW1801OC100821
0063010015999991990010718504+00000+999999FM-15+9999ENBL V0209999999999006001CN0112001N1+00301+00101999999ADDAG12999GA1021+003009079GA2071+006009089MA1100911999999MW1801
0060010015999991990010805504+00000+999999FM-15+9999ENBL V0201501N00151004501CN0112001N1+00101+00001999999ADDAG12000GA1051+004509059MA1101291999999EQDQ01+000000PRSWM2
0047010015999991990010806504+00000+999999FM-15+9999ENBL V0201301N00151004501CN0112001N1+00001-00101999999ADDAG12999GA1051+004509089MA1101391999999MW1851
0063010015999991990010808504+00000+999999FM-15+9999ENBL V0202301N00211006001CN0112001N1+00001+00001999999ADDAG12000GA1021+000609079GA2041+006009089MA1101591999999MW1411
0063010015999991990010810004+00000+999999FM-15+9999ENBL V0202601N00211006001CN0112001N1+00001+00001999999ADDAG12999GA1021+001209079GA2051+006009089MA1101591999999MW1851
0063010015999991990010811004+00000+999999FM-15+9999ENBL V0202701N00311006001CN0112001N1+00001+00001999999ADDAG12999GA1031+001209079GA2051+006009089MA1101691999999MW1851
0063010015999991990010813004+00000+999999FM-15+9999ENBL V0202101N00311006001CN0112001N1+00001+00001999999ADDAG12999GA1021+001209079GA2051+006009089MA1101691999999MW1261
0063010015999991990010814004+00000+999999FM-15+9999ENBL V0202301N00261006001CN0112001N1+00101+00001999999ADDAG12999GA1011+001509079GA2051+006009089MA1101691999999MW1851
0063010015999991990010814504+00000+999999FM-15+9999ENBL V0202001N00261006001CN0112001N1+00001+00001999999ADDAG12001GA1021+000609079GA2051+006009089MA1101801999999MW1261
0063010015999991990010816204+00000+999999FM-15+9999ENBL V0202301N00151006001CN0112001N1+00101+00101999999ADDAG12999GA1021+002409089GA2051+006009089MA1101801999999MW1851
0063010015999991990010816504+00000+999999FM-15+9999ENBL V0201701N00151006001CN0112001N1+00101+00001999999ADDAG12999GA1011+002409089GA2051+006009089MA1101801999999MW1261
0063010015999991990010819004+00000+999999FM-15+9999ENBL V0202301N00211006001CN0112001N1+00101+00001999999ADDAG12999GA1021+003009079GA2041+006009089MA1101691999999MW1251
0063010015999991990010819304+00000+999999FM-15+9999ENBL V0202101N00151006001CN0112001N1+00201+00101999999ADDAG12999GA1031+002409079GA2051+006009089MA1101691999999MW1801
0063010015999991990010820004+00000+999999FM-15+9999ENBL V0202101N00151006001CN0112001N1+00201+00101999999ADDAG12999GA1031+002409079GA2051+006009089MA1101691999999MW1801
0079010015999991990010904504+00000+999999FM-15+9999ENBL V0202101N00361004501CN0050001N1+00201+00101999999ADDAG12999GA1011+000909079GA2031+001809079GA3061+004509059MA1100611999999MW1621
0079010015999991990010907054+00000+999999FM-15+9999ENBL V0202701N00311004501CN0070001N1+00201+00001999999ADDAG12999GA1011+000909079GA2021+001509079GA3061+004509059MA1100511999999MW1601
0071010015999991990010908004+00000+999999FM-15+9999ENBL V0202401N00511005401CN0112001N1+00301+00001999999ADDAG12999GA1021+002409079GA2061+005409089MA1100611999999MW1251OC101031
0089010015999991990010908504+00000+999999FM-15+9999ENBL V0202701N00621006001CN0112001N1+00201+00001999999ADDAG12004GA1011+004509079GA2051+006009089MA1100711999999MW1251OC101131REMMET009PM 33KTS?
0071010015999991990010909204+00000+999999FM-15+9999ENBL V0202501N00771006001CN0112001N1+00201-00101999999ADDAG12011GA1011+004509079GA2051+006009089MA1100711999999MW1801OC101391
0071010015999991990010909254+00000+999999FM-15+9999ENBL V0202401N00511005401CN0112001N1+00301+00001999999ADDAG12004GA1021+002409079GA2061+005409089MA1100611999999MW1251OC101031
0089010015999991990010909504+00000+999999FM-15+9999ENBL V0202701N00621006001CN0112001N1+00201+00001999999ADDAG12999GA1011+004509079GA2051+006009089MA1100711999999MW1251OC101131REMMET009PM 33KTS?
0071010015999991990010910104+00000+999999FM-15+9999ENBL V0202501N00771006001CN0112001N1+00201-00101999999ADDAG12999GA1011+004509079GA2051+006009089MA1100711999999MW1801OC101391
0081010015999991990010911004+00000+999999FM-15+9999ENBL V0202701N00721004501CN0112001N1+00101-00101999999ADDAG12999GA1021+003009079GA2051+004509089MA1100811999999MW1271REMMET009PM 30KTS?
0071010015999991990010911044+00000+999999FM-15+9999ENBL V0202501N00771006001CN0112001N1+00201-00101999999ADDAG12999GA1011+004509079GA2051+006009089MA1100711999999MW1801OC101391
0081010015999991990010911484+00000+999999FM-15+9999ENBL V0202701N00721004501CN0112001N1+00101-00101999999ADDAG12005GA1021+003009079GA2051+004509089MA1100811999999MW1271REMMET009PM 30KTS?
0071010015999991990010912004+00000+999999FM-15+9999ENBL V0202601N00461006001CN0040001N1+00201-00101999999ADDAG12000GA1031+003609099GA2051+006009089MA1100811999999MW1871OC100981
0071010015999991990010912254+00000+999999FM-15+9999ENBL V0202601N00461006001CN0040001N1+00201-00101999999ADDAG12002GA1031+003609099GA2051+006009089MA1100811999999MW1871OC100981
0081010015999991990010913004+00000+999999FM-15+9999ENBL V0202401N00311006001CN0112001N1+99999+99999999999ADDAG12999GA1021+004509089GA2051+006009089MA1100811999999MW1271REMMET009PM 37KTS?
0081010015999991990010913334+00000+999999FM-16+9999ENBL V0202401N00311006001CN0112001N1+99999+99999999999ADDAG12999GA1021+004509089GA2051+006009089MA1100811999999MW1271REMMET009PM 37KTS?
0071010015999991990010914004+00000+999999FM-15+9999ENBL V0202501N00571006001CN0112001N1+00101-00201999999ADDAG12999GA1021+004509089GA2051+006009089MA1100911999999MW1271OC101081
0071010015999991990010914304+00000+999999FM-15+9999ENBL V0202501N00571006001CN0112001N1+00101-00201999999ADDAG12005GA1021+004509089GA2051+006009089MA1100911999999MW1271OC101081
0080010015999991990010916004+00000+999999FM-15+9999ENBL V0202401N00411006001CN0060001N1+00101+00001999999ADDAG12999GA1021+004509099GA2051+006009089MA1101021999999MW1871REMMET008PM 18KT?
0071010015999991990010917004+00000+999999FM-15+9999ENBL V0202901N00931006001CN0050001N1+00101+00001999999ADDAG12999GA1021+004509099GA2051+006009089MA1101021999999MW1951OC101441
0063010015999991990010918004+00000+999999FM-15+9999ENBL V0202701N00261006001CN0112001N1+00001+00001999999ADDAG12001GA1021+004509099GA2061+006009089MA1101021999999MW1271
0079010015999991990011006004+00000+999999FM-15+9999ENBL V0201901N00211002401CN0060001N1+00101+00001999999ADDAG12000GA1021+001209079GA2041+002409079GA3071+003609059MA1101021999999MW1831
0079010015999991990011008004+00000+999999FM-15+9999ENBL V0202101N00511006001CN0112001N1+00201+00101999999ADDAG12999GA1011+002109079GA2031+004509089GA3061+006009059MA1100911999999MW1251
0079010015999991990011008504+00000+999999FM-15+9999ENBL V0202101N00361030001CN0112001N1+00201+00101999999ADDAG12004GA1011+003009079GA2041+006009059GA3061+030009039MA1100811999999MW1251
0079010015999991990011009304+00000+999999FM-15+9999ENBL V0202101N00361030001CN0112001N1+00201+00101999999ADDAG12999GA1011+003009079GA2041+006009059GA3061+030009039MA1100811999999MW1251
0076010015999991990011009504+00000+999999FM-15+9999ENBL V0202101N00311030001CN0112001N1+00201-00101999999ADDAG12999GA1041+006009059GA2061+030009039MA1100611999999EQDQ01+000000PRSWM2
0093010015999991990011011004+00000+999999FM-15+9999ENBL V0202201N00311006001CN0112001N1+00201-00201999999ADDAG10999GA1031+003609059GA2061+006009059MA1100511999999REMMET008DIST SH?EQDQ01+000000PRSWM2
0093010015999991990011011464+00000+999999FM-15+9999ENBL V0202201N00311006001CN0112001N1+00201-00201999999ADDAG10000GA1031+003609059GA2061+006009059MA1100511999999REMMET008DIST SH?EQDQ01+000000PRSWM2
0079010015999991990011013004+00000+999999FM-15+9999ENBL V0201901N00361005401CN0112001N1+00201-00101999999ADDAG12999GA1011+003009079GA2031+003909059GA3061+005409059MA1099901999999MW1251
0079010015999991990011014004+00000+999999FM-15+9999ENBL V0201601N00361005401CN0112001N1+00201-00201999999ADDAG12999GA1011+003009079GA2031+003909059GA3061+005409059MA1099591999999MW1251
0081010015999991990011016004+00000+999999FM-15+9999ENBL V0202201N00511003601CN0060001N1+00101+00001999999ADDAG12999GA1021+001509079GA2061+003609059MA1099491999999MW1611REMMET009PM 30KTS?
0071010015999991990011017004+00000+999999FM-15+9999ENBL V0202701N00411007501CN0112001N1+00301+00201999999ADDAG12999GA1011+004509089GA2051+007509089MA1099701999999MW1211OC100931
0076010015999991990011018004+00000+999999FM-15+9999ENBL V0202601N00511006001CN0112001N1+00401+00001999999ADDAG12000GA1011+004509089GA2051+006009089MA1099801999999EQDQ01+000000PRSWM2
0063010015999991990011018504+00000+999999FM-15+9999ENBL V0202501N00511006001CN0112001N1+00401-00101999999ADDAG12999GA1011+004509089GA2051+006009089MA1099801999999MW1251
0055010015999991990011105004+00000+999999FM-15+9999ENBL V0202601N00671006001CN0112001N1+00401+00001999999ADDAG12999GA1061+006009089MA1099801999999MW1251OC101181
0047010015999991990011106084+00000+999999FM-15+9999ENBL V0202501N00411006001CN0112001N1+00201+00001999999ADDAG12004GA1051+006009089MA1099901999999MW1251
0063010015999991990011107004+00000+999999FM-15+9999ENBL V0202501N00461006001CN0112001N1+00301+00101999999ADDAG12999GA1031+004509099GA2061+006009089MA1100001999999MW1871
0063010015999991990011107204+00000+999999FM-15+9999ENBL V0202501N00461006001CN0112001N1+00301+00101999999ADDAG12999GA1031+004509099GA2061+006009089MA1100001999999MW1871
0063010015999991990011107504+00000+999999FM-15+9999ENBL V0202601N00511006001CN0112001N1+00301-00101999999ADDAG12999GA1021+004509099GA2061+006009089MA1100101999999MW1271
0063010015999991990011108304+00000+999999FM-15+9999ENBL V0202601N00511006001CN0112001N1+00301-00101999999ADDAG12005GA1021+004509099GA2061+006009089MA1100101999999MW1271
0076010015999991990011109114+00000+999999FM-15+9999ENBL V0202601N00511006001CN0112001N1+00301-00101999999ADDAG12000GA1021+004509089GA2051+006009089MA1100311999999EQDQ01+000000PRSWM2
0060010015999991990011109504+00000+999999FM-15+9999ENBL V0202501N00311006001CN0112001N1+00201-00201999999ADDAG12999GA1061+006009089MA1100411999999EQDQ01+000000PRSWM2
0076010015999991990011110004+00000+999999FM-15+9999ENBL V0202601N00511006001CN0112001N1+00301-00101999999ADDAG12999GA1021+004509089GA2051+006009089MA1100311999999EQDQ01+000000PRSWM2
0060010015999991990011110204+00000+999999FM-15+9999ENBL V0202501N00311006001CN0112001N1+00201-00201999999ADDAG12999GA1061+006009089MA1100411999999EQDQ01+000000PRSWM2
0060010015999991990011111004+00000+999999FM-15+9999ENBL V0202401N00411006001CN0112001N1+00301-00101999999ADDAG12999GA1051+006009089MA1100511999999EQDQ01+000000PRSWM2
0076010015999991990011112004+00000+999999FM-15+9999ENBL V0202501N00411006001CN0112001N1+00301-00101999999ADDAG12000GA1051+006009089GA2071+021009039MA1100511999999EQDQ01+000000PRSWM2
0101010015999991990011113004+00000+999999FM-15+9999ENBL V0202701N00311006001CN0112001N1+00301-00101999999ADDAG10999GA1061+006009089MA1100611999999REMMET032VIS W 5000 DIST        ?     SH?EQDQ01+000000PRSWM2
0063010015999991990011114004+00000+999999FM-15+9999ENBL V0202501N00411006001CN0112001N1+99999+99999999999ADDAG12999GA1021+003009079GA2061+006009089MA1100711999999MW1251
0076010015999991990011115004+00000+999999FM-15+9999ENBL V0202401N00361006001CN0112001N1+00201+00101999999ADDAG12000GA1011+003009079GA2061+006009089MA1100711999999EQDQ01+000000PRSWM2
0076010015999991990011115504+00000+999999FM-15+9999ENBL V0202201N00261006001CN0112001N1+00301+00101999999ADDAG12999GA1021+003009079GA2061+006009089MA1100711999999EQDQ01+000000PRSWM2
0076010015999991990011117004+00000+999999FM-15+9999ENBL V0202201N00311007501CN0112001N1+00301+00101999999ADDAG12999GA1021+003009079GA2061+007509089MA1100811999999EQDQ01+000000PRSWM2
0063010015999991990011117504+00000+999999FM-15+9999ENBL V0202101N00411006001CN0112001N1+00301+00101999999ADDAG12007GA1031+002409079GA2061+006009089MA1100811999999MW1601
0063010015999991990011118204+00000+999999FM-15+9999ENBL V0202201N00311004501CN0080001N1+00201+00101999999ADDAG12007GA1031+002409079GA2061+004509089MA1100811999999MW1601
0063010015999991990011204504+00000+999999FM-15+9999ENBL V0202001N00311004201CN0080001N1+00401+00401999999ADDAG12999GA1021+001209079GA2071+004209089MA1100511999999MW1601
0071010015999991990011206004+00000+999999FM-15+9999ENBL V0202201N00571007501CN0080001N1+00501+00401999999ADDAG12001GA1021+003009079GA2071+007509089MA1100411999999MW1601OC100981
0071010015999991990011207004+00000+999999FM-15+9999ENBL V0202201N00571007501CN0080001N1+00501+00401999999ADDAG12999GA1021+003009079GA2071+007509089MA1100411999999MW1601OC100981
0063010015999991990011208004+00000+999999FM-15+9999ENBL V0202101N00361006001CN0080001N1+00501+00401999999ADDAG12999GA1021+002409079GA2071+006009089MA1100511999999MW1601
0079010015999991990011210004+00000+999999FM-15+9999ENBL V0202001N00411004501CN0080001N1+00601+00501999999ADDAG12999GA1021+001509079GA2021+003009059GA3061+004509089MA1100511999999MW1601
0063010015999991990011211004+00000+999999FM-15+9999ENBL V0202101N00411004501CN0112001N1+00601+00501999999ADDAG12999GA1021+001809079GA2061+004509089MA1100511999999MW1211
0063010015999991990011212004+00000+999999FM-15+9999ENBL V0202001N00361003001CN0040001N1+00501+00401999999ADDAG12000GA1031+001209079GA2061+003009089MA1100511999999MW1501
0071010015999991990011213004+00000+999999FM-15+9999ENBL V0202301N00771003601CN0080001N1+00501+00401999999ADDAG12999GA1031+001209079GA2061+003609089MA1100411999999MW1801OC101291
0071010015999991990011215004+00000+999999FM-15+9999ENBL V0202301N00721004501CN0112001N1+00501+00201999999ADDAG12000GA1031+003009089GA2061+004509089MA1100411999999MW1251OC101291
0063010015999991990011216004+00000+999999FM-15+9999ENBL V0202301N00671006001CN0112001N1+00501+00201999999ADDAG12999GA1021+003009089GA2061+006009089MA1100411999999MW1801
0047010015999991990011217004+00000+999999FM-15+9999ENBL V0202201N00621004501CN0060001N1+00401+00201999999ADDAG12999GA1061+004509089MA1100411999999MW1811
0063010015999991990011218004+00000+999999FM-15+9999ENBL V0202301N00771007501CN0112001N1+00501+00101999999ADDAG12000GA1031+004509089GA2061+007509089MA1100411999999MW1251
0071010015999991990011218504+00000+999999FM-15+9999ENBL V0202201N00571007501CN0112001N1+00401+00101999999ADDAG12999GA1021+004509089GA2061+007509089MA1100411999999MW1801OC101131
0063010015999991990011219504+00000+999999FM-15+9999ENBL V0202201N00671007501CN0112001N1+00301+00001999999ADDAG12999GA1031+004509089GA2061+007509089MA1100411999999MW1251
0076010015999991990011305004+00000+999999FM-15+9999ENBL V0202301N00261006001CN0112001N1+00001+00001999999ADDAG12999GA1021+001509079GA2051+006009089MA1100411999999EQDQ01+000000PRSWM2
0047010015999991990011306504+00000+999999FM-15+9999ENBL V0202201N00361002401CN0020001N1+00001-00101999999ADDAG12999GA1091+002409999MA1100411999999MW1861
0094010015999991990011308004+00000+999999FM-15+9999ENBL V0202701N00151006001CN0112001N1+00001-00101999999ADDAG12999GA1031+000309079GA2061+006009089MA1100511999999MW1261REMMET022VIS NW     ?     2000?
0063010015999991990011309004+00000+999999FM-15+9999ENBL V0202401N00261004501CN0070001N1+00001-00101999999ADDAG12000GA1031+000909079GA2061+004509089MA1100511999999MW1851
0047010015999991990011311004+00000+999999FM-15+9999ENBL V0202201N00151220001CN0015001N1+00001-00101999999ADDAG12999GA1021+000909079MA1100711999999MW1861
0047010015999991990011311304+00000+999999FM-15+9999ENBL V0200501N00101003001CN0025001N1+00001+00001999999ADDAG12019GA1091+003009999MA1100811999999MW1861
0063010015999991990011313004+00000+999999FM-15+9999ENBL V0202601N00211003001CN0040001N1+00001+00001999999ADDAG12999GA1031+000609079GA2061+003009089MA1100911999999MW1401
0076010015999991990011313504+00000+999999FM-15+9999ENBL V0202201N00261004501CN0112001N1+00101+00101999999ADDAG12999GA1011+000609079GA2051+004509089MA1100911999999EQDQ01+000000PRSWM2
0076010015999991990011315004+00000+999999FM-15+9999ENBL V0202001N00261004501CN0112001N1+00101+00101999999ADDAG12000GA1021+001509079GA2061+004509089MA1101021999999EQDQ01+000000PRSWM2
0071010015999991990011411004+00000+999999FM-15+9999ENBL V0202101N00571004501CN0112001N1+00201+00001999999ADDAG12999GA1031+003009059GA2071+004509059MA1100811999999MW1611OC101081
0055010015999991990011412004+00000+999999FM-15+9999ENBL V0202101N00621004501CN0112001N1+00301-00101999999ADDAG12001GA1071+004509059MA1100711999999MW1211OC101031
0071010015999991990011413004+00000+999999FM-15+9999ENBL V0202101N00621005101CN0112001N1+00301-00101999999ADDAG12999GA1031+003609059GA2071+005109059MA1100711999999MW1601OC101181
0071010015999991990011413504+00000+999999FM-15+9999ENBL V0201901N00671005101CN0112001N1+00301+00001999999ADDAG12999GA1031+003609059GA2071+005109059MA1100611999999MW1601OC101181
0055010015999991990011415004+00000+999999FM-15+9999ENBL V0201901N00671004501CN0080001N1+00301+00001999999ADDAG12022GA1061+004509059MA1100511999999MW1621OC101181
0071010015999991990011416004+00000+999999FM-15+9999ENBL V0201901N00821004501CN0080001N1+00301+00001999999ADDAG12999GA1031+003009059GA2061+004509059MA1100411999999MW1621OC101391
0086010015999991990011417124+00000+999999FM-15+9999ENBL V0202001N00571004501CN0080001N1+00301+00101999999ADDAG12999GA1031+003009059GA2061+004509059MA1100411999999MW1621OC100981REMMET006PM 26?
0071010015999991990011418004+00000+999999FM-15+9999ENBL V0202101N00461004501CN0060001N1+00201+00101999999ADDAG12006GA1031+002409059GA2071+004509059MA1100311999999MW1631OC100821
0071010015999991990011419004+00000+999999FM-15+9999ENBL V0202501N00771004501CN0112001N1+00301+00001999999ADDAG12999GA1021+002409079GA2071+004509059MA1100201999999MW1211OC101291
0071010015999991990011420004+00000+999999FM-15+9999ENBL V0201901N00771004501CN0080001N1+00301+00001999999ADDAG12999GA1021+002409079GA2061+004509059MA1100101999999MW1621OC101181
0063010015999991990011506004+00000+999999FM-15+9999ENBL V0202701N00411004201CN0112001N1+00201+00101999999ADDAG12001GA1021+001509079GA2061+004209089MA1098002999999MW1801
0101010015999991990011507004+00000+999999FM-15+9999ENBL V0202701N00361004501CN0112001N1+00201+00101999999ADDAG12999GA1011+003009079GA2061+004509089MA1098101999999MW1811REMMET029PAST MAX         ?     32KTS?
0101010015999991990011508004+00000+999999FM-15+9999ENBL V0202701N00361004501CN0112001N1+00201+00101999999ADDAG12999GA1011+003009079GA2061+004509089MA1098101999999MW1811REMMET029PAST MAX         ?     32KTS?
0055010015999991990011508504+00000+999999FM-15+9999ENBL V0202701N00721006001CN0112001N1+00201+00101999999ADDAG12034GA1061+006009089MA1098311999999MW1811OC101491
0055010015999991990011509304+00000+999999FM-15+9999ENBL V0202701N00721006001CN0112001N1+00201+00101999999ADDAG12999GA1061+006009089MA1098311999999MW1811OC101491
0079010015999991990011509314+00000+999999FM-15+9999ENBL V0202501N00511005401CN0112001N1+00401+00201999999ADDAG12999GA1061+005409089MA1098211999999MW1811OC100931REMMET015PAST MAX 35KTS?
0105010015999991990011510004+00000+999999FM-15+9999ENBL V0202601N00931006001CN0112001N1+00301+00101999999ADDAG12999GA1021+003609089GA2061+006009089MA1098211999999MW1251OC101241REMMET025PAST M.29KT      ?     S?
0105010015999991990011510204+00000+999999FM-15+9999ENBL V0202601N00931006001CN0112001N1+00301+00101999999ADDAG12999GA1021+003609089GA2061+006009089MA1098211999999MW1251OC101241REMMET025PAST M.29KT      ?     S?
0071010015999991990011511004+00000+999999FM-15+9999ENBL V0202601N00771004501CN0080001N1+00301+00201999999ADDAG12999GA1021+003009089GA2061+004509089MA1098211999999MW1801OC101391
0071010015999991990011512004+00000+999999FM-15+9999ENBL V0202701N00771004501CN0080001N1+00301+00201999999ADDAG12001GA1021+002409059GA2061+004509089MA1098311999999MW1801OC101291
0071010015999991990011513004+00000+999999FM-15+9999ENBL V0202601N01031004501CN0080001N1+00301+00201999999ADDAG12999GA1021+003009089GA2061+004509089MA1098411999999MW1811OC101851
0072010015999991990011513434+00000+999999FM-16+9999ENBL V0202601N01031004501CN0080001N1+00301+99999999999ADDAG12999GA1021+003009089GA2061+004509089MW1811OC101851REMMET00702D984?
0071010015999991990011514004+00000+999999FM-15+9999ENBL V0202701N00771004501CN0112001N1+00401+00101999999ADDAG12999GA1021+003009089GA2061+004509089MA1098511999999MW1801OC101241
0071010015999991990011514414+00000+999999FM-15+9999ENBL V0202701N00771004501CN0112001N1+00401+00101999999ADDAG12011GA1021+003009089GA2061+004509089MA1098511999999MW1801OC101241
0071010015999991990011516004+00000+999999FM-15+9999ENBL V0202601N00571005401CN0080001N1+00401+00201999999ADDAG12999GA1021+004209089GA2061+005409089MA1098611999999MW1801OC101031
0071010015999991990011517504+00000+999999FM-15+9999ENBL V0202601N00461003901CN0112001N1+00301+00201999999ADDAG12005GA1021+002409079GA2061+003909089MA1098711999999MW1271OC101031
0079010015999991990011518504+00000+999999FM-15+9999ENBL V0202501N00411002401CN0040001N1+00201+00101999999ADDAG12999GA1021+000909079GA2041+002409079GA3061+004509089MA1098821999999MW1601
0063010015999991990011606004+00000+999999FM-15+9999ENBL V0202201N00211003001CN0015001N1+00001+00001999999ADDAG12000GA1021+000609079GA2061+003009089MA1098981999999MW1411
0047010015999991990011606304+00000+999999FM-15+9999ENBL V0202201N00101001501CN0005001N1+00001+00001999999ADDAG12999GA1091+001509999MA1099191999999MW1731
0079010015999991990011608504+00000+999999FM-15+9999ENBL V0202301N00151003601CN0025001N1+00001+00001999999ADDAG12001GA1031+000609079GA2061+003609089GA3011+999999079MA1099491999999MW1221
0079010015999991990011609504+00000+999999FM-15+9999ENBL V0202301N00151003601CN0025001N1+00001+00001999999ADDAG12999GA1031+000609079GA2061+003609089GA3011+999999079MA1099491999999MW1221
0076010015999991990011610004+00000+999999FM-15+9999ENBL V0203301N00051004501CN0112001N1+00001+00001999999ADDAG12999GA1031+000609079GA2041+004509089MA1099491999999EQDQ01+000000PRSWM2
0063010015999991990011610504+00000+999999FM-15+9999ENBL V0202301N00211004501CN0112001N1+00101+00101999999ADDAG12999GA1021+001809079GA2051+004509089MA1099701999999MW1801
0063010015999991990011612004+00000+999999FM-15+9999ENBL V0202201N00101004501CN0112001N1+00101+00101999999ADDAG12001GA1021+001809079GA2051+004509089MA1099801999999MW1801
0076010015999991990011612504+00000+999999FM-15+9999ENBL V0202301N00261004501CN0112001N1+00101+00001999999ADDAG12999GA1021+001509079GA2051+004509089MA1099901999999EQDQ01+000000PRSWM2
0076010015999991990011614004+00000+999999FM-15+9999ENBL V0202501N00101004501CN0112001N1+00101+00001999999ADDAG12999GA1011+001509079GA2051+004509089MA1099901999999EQDQ01+000000PRSWM2
0076010015999991990011615124+00000+999999FM-15+9999ENBL V0202401N00101004501CN0112001N1+00101+00001999999ADDAG12000GA1021+003009079GA2051+004509089MA1099901999999EQDQ01+000000PRSWM2
0087010015999991990011615504+00000+999999FM-15+9999ENBL V0202401N00411004501CN0070001N1+00101+00001999999ADDAG12999GA1011+000909079GA2031+002109079GA3061+004509089MA1099901999999MW1801OC100881
0063010015999991990011617004+00000+999999FM-15+9999ENBL V0202201N00411005101CN0112001N1+00101+00001999999ADDAG12999GA1011+001509079GA2051+005109089MA1099801999999MW1251
0084010015999991990011618004+00000+999999FM-15+9999ENBL V0202101N00411005101CN0112001N1+00101-00101999999ADDAG12000GA1011+002409079GA2051+005109089MA1099591999999OC100931EQDQ01+000000PRSWM2
0076010015999991990011619004+00000+999999FM-15+9999ENBL V0202101N00311007501CN0112001N1+00201-00101999999ADDAG12999GA1021+004509089GA2051+007509089MA1099391999999EQDQ01+000000PRSWM2
0100010015999991990011706004+00000+999999FM-15+9999ENBL V0202201N00771005101CN0050001N1+00201+00101999999ADDAG12000GA1011+001509079GA2031+003009079GA3061+005109089MA1097291999999OC101601EQDQ01+000000PRSWM2
0071010015999991990011706504+00000+999999FM-15+9999ENBL V0202101N00721005101CN0060001N1+00201+00101999999ADDAG12999GA1031+003009079GA2061+005109089MA1097191999999MW1601OC101541
0071010015999991990011707214+00000+999999FM-15+9999ENBL V0202101N00721005101CN0060001N1+00201+00101999999ADDAG12999GA1031+003009079GA2061+005109089MA1097191999999MW1601OC101541
0087010015999991990011710004+00000+999999FM-15+9999ENBL V0202301N00771005101CN0060001N1+00301+00001999999ADDAG12999GA1011+002409079GA2031+003609099GA3061+005109089MA1096881999999MW1871OC101241
0087010015999991990011710304+00000+999999FM-15+9999ENBL V0202301N00771005101CN0060001N1+00301+00001999999ADDAG12999GA1011+002409079GA2031+003609099GA3061+005109089MA1096881999999MW1871OC101241
0087010015999991990011711004+00000+999999FM-15+9999ENBL V0202301N01031004501CN0080001N1+00201+00001999999ADDAG12999GA1011+002409079GA2031+003009079GA3061+004509089MA1096881999999MW1811OC101851
0087010015999991990011712004+00000+999999FM-15+9999ENBL V0202301N00721004501CN0112001N1+00201+00101999999ADDAG12000GA1011+003009079GA2041+003009079GA3061+004509089MA1096881999999MW1251OC101701
0071010015999991990011713004+00000+999999FM-15+9999ENBL V0202601N00721004501CN0060001N1+00301+00201999999ADDAG12999GA1031+002409079GA2061+004509089MA1096991999999MW1801OC101291
0071010015999991990011713534+00000+999999FM-15+9999ENBL V0202601N00721004501CN0060001N1+00301+00201999999ADDAG12999GA1031+002409079GA2061+004509089MA1096991999999MW1801OC101291
0071010015999991990011714004+00000+999999FM-15+9999ENBL V0202601N00721004501CN0060001N1+00301+00201999999ADDAG12999GA1031+002409079GA2061+004509089MA1097091999999MW1801OC101391
0071010015999991990011714504+00000+999999FM-15+9999ENBL V0202801N00931004501CN0060001N1+00301+00201999999ADDAG12034GA1031+002409079GA2061+004509089MA1097191999999MW1811OC101541
0075010015999991990011716504+00000+999999FM-15+9999ENBL V0202701N00931005401CN0080001N1+00201+00101999999ADDAG12999GA1021+002409079GA2061+005409089MW1801OC101341EQDQ01+029383APOA  
0074010015999991990011720004+00000+999999FM-15+9999ENBL V0202701N00621007501CN0112001N1+00201+00001999999ADDAG12999GA1061+007509089MA1098002999999MW1801OC101181EQDQ01+028943APOA  
0047010015999991990011807094+00000+999999FM-15+9999ENBL V0202801N00311002401CN0008001N1+00001+00001999999ADDAG12999GA1091+002409999MA1099191999999MW1701
0047010015999991990011807254+00000+999999FM-15+9999ENBL V0202801N00311002401CN0008001N1+00001+00001999999ADDAG12999GA1091+002409999MA1099191999999MW1701
0047010015999991990011808004+00000+999999FM-15+9999ENBL V0202701N00261002401CN0008001N1+00001+00001999999ADDAG12999GA1091+002409999MA1099291999999MW1731
0047010015999991990011809004+00000+999999FM-15+9999ENBL V0202601N00101002401CN0006001N1+00001+00001999999ADDAG12003GA1091+002409999MA1099391999999MW1731
0047010015999991990011810004+00000+999999FM-15+9999ENBL V0201701N00051002401CN0008001N1+00001+00001999999ADDAG12999GA1091+002409999MA1099591999999MW1431
0047010015999991990011811134+00000+999999FM-15+9999ENBL V0203001N00101002401CN0008001N1+00001+00001999999ADDAG12999GA1091+002409999MA1099591999999MW1431
0047010015999991990011811304+00000+999999FM-15+9999ENBL V0203001N00101002401CN0008001N1+00001+00001999999ADDAG12000GA1091+002409999MA1099591999999MW1431
0047010015999991990011812004+00000+999999FM-15+9999ENBL V0202901N00101002401CN0010001N1+00001+00001999999ADDAG12003GA1091+002409999MA1099801999999MW1731
0047010015999991990011813204+00000+999999FM-15+9999ENBL V0202301N00101001501CN0005001N1+00001+00001999999ADDAG12999GA1091+001509999MA1099901999999MW1431
0047010015999991990011813304+00000+999999FM-15+9999ENBL V0202301N00101001501CN0005001N1+00001+00001999999ADDAG12999GA1091+001509999MA1099901999999MW1431
0047010015999991990011814004+00000+999999FM-15+9999ENBL V0202401N00051001501CN0005001N1+00001+00001999999ADDAG12999GA1091+001509999MA1100001999999MW1431
0047010015999991990011814304+00000+999999FM-15+9999ENBL V0202401N00051001501CN0005001N1+00001+00001999999ADDAG12000GA1091+001509999MA1100001999999MW1431
0047010015999991990011815004+00000+999999FM-15+9999ENBL V0202001N00101001501CN0005001N1-00101-00101999999ADDAG12000GA1091+001509999MA1100001999999MW1851
0047010015999991990011816504+00000+999999FM-15+9999ENBL V0209991V00051220001CN0030001N1+00001+00001999999ADDAG12999GA1021+000909079MA1100311999999MW1851
0063010015999991990011819504+00000+999999FM-15+9999ENBL V0209991V00051220001CN0112001N1+00001+00001999999ADDAG12999GA1011+001509079GA2041+004509059MA1100511999999MW1261
0076010015999991990011905504+00000+999999FM-15+9999ENBL V0202201N00311220001CN0112001N1+00001-00201999999ADDAG12000GA1011+003009079GA2031+006009059MA1100101999999EQDQ01+000000PRSWM2
0076010015999991990011907004+00000+999999FM-15+9999ENBL V0201901N00461012001CN0112001N1+00001-00301999999ADDAG12999GA1031+006009059GA2061+012009059MA1099901999999EQDQ01+000000PRSWM2
0055010015999991990011908004+00000+999999FM-15+9999ENBL V0201901N00461003001CN0030001N1+00001-00201999999ADDAG12999GA1091+003009999MA1099701999999MW1831OC101081
0055010015999991990011909324+00000+999999FM-15+9999ENBL V0201901N00511220001CN0040001N1+00001-00201999999ADDAG12999GA1011+000909079MA1099491999999MW1701OC101081
0055010015999991990011909504+00000+999999FM-15+9999ENBL V0201901N00571220001CN0035001N1+00101-00101999999ADDAG12999GA1021+000909079MA1099291999999MW1701OC101081
0055010015999991990011910204+00000+999999FM-15+9999ENBL V0201901N00571220001CN0032001N1+00101-00101999999ADDAG11999GA1021+000909079MA1099091999999MW1681OC101081
0055010015999991990011911504+00000+999999FM-15+9999ENBL V0202001N00461220001CN0035001N1+00101+00001999999ADDAG12017GA1021+000909079MA1098611999999MW1681OC101031
0055010015999991990011914504+00000+999999FM-15+9999ENBL V0202101N00621220001CN0060001N1+00101+00001999999ADDAG12007GA1021+001509079MA1098611999999MW1601OC101391
0113010015999991990011915304+00000+999999FM-15+9999ENBL V0202701N00621004501CN0080001N1+00101+00001999999ADDAG12999GA1011+000909079GA2041+002409079GA3061+004509089MA1098711999999MW1251REMMET025VIS        ?     SE 4000?
0084010015999991990011917174+00000+999999FM-15+9999ENBL V0202401N00771220001CN0112001N1+00101-00401999999ADDAG12999GA1011+003609079GA2041+004509089MA1098821999999OC101391EQDQ01+000000PRSWM2
0084010015999991990011917504+00000+999999FM-15+9999ENBL V0202301N00621006001CN0112001N1+00201-00201999999ADDAG12000GA1011+004509089GA2061+006009089MA1098821999999OC101131EQDQ01+000000PRSWM2
0052010015999991990011919004+00000+999999FM-15+9999ENBL V0202701N00821220001CN0020001N1+00901+99999999999ADDAG12999MA1098921999999OC101701EQDQ01+000852PRSWM2
0087010015999991990012006504+00000+999999FM-15+9999ENBL V0202601N00411006001CN0070001N1+00101+00001999999ADDAG12999GA1011+001509079GA2031+002409079GA3061+006009089MA1099191999999MW1261OC100931
0055010015999991990012008004+00000+999999FM-15+9999ENBL V0200601N00411220001CN0050001N1+00101+00001999999ADDAG12999GA1021+001509079MA1099291999999MW1851OC100931
0101010015999991990012009064+00000+999999FM-15+9999ENBL V0202701N00411006001CN0112001N1+00101-00201999999ADDAG12001GA1011+002409079GA2031+004509089GA3061+006009089MA1099391999999MW1261REMMET013DIST SNSH SW?
0108010015999991990012010004+00000+999999FM-15+9999ENBL V0202801N00461006001CN0112001N1+00101-00201999999ADDAG12999GA1021+004509089GA2061+006009089MA1099391999999MW1261OC101031REMMET028DIST       ?     SNSH SEC W?
0101010015999991990012012004+00000+999999FM-15+9999ENBL V0201901N00151004501CN0112001N1+00001-00101999999ADDAG12000GA1021+000909079GA2051+004509089MA1099491999999MW1261REMMET029DIST       ?     SNSH SEC SW?
0047010015999991990012013004+00000+999999FM-15+9999ENBL V0202001N00151000301CN0003001N1+00001-00101999999ADDAG12999GA1091+000309999MA1099491999999MW1471
0047010015999991990012014004+00000+999999FM-15+9999ENBL V0202401N00151220001CN0030001N1+00001-00101999999ADDAG12999GA1021+000909079MA1099391999999MW1851
0047010015999991990012015004+00000+999999FM-15+9999ENBL V0202301N00151220001CN0015001N1+00001-00101999999ADDAG12000GA1021+000159079MA1099391999999MW1851
0047010015999991990012110504+00000+999999FM-15+9999ENBL V0200601N00151220001CN0050001N1+00101+00001999999ADDAG12999GA1021+002409079MA1101191999999MW1581
0079010015999991990012111504+00000+999999FM-15+9999ENBL V0209991V00101003901CN0080001N1+00101+00001999999ADDAG12000GA1011+000909079GA2031+001809079GA3071+003909079MA1101191999999MW1401
0113010015999991990012114004+00000+999999FM-15+9999ENBL V0200301N00101003601CN0030001N1+00201+00101999999ADDAG12999GA1021+000909079GA2071+003609079GA3091+999999999MA1101191999999MW1501REMMET025ST         ?     BLW STN?
0076010015999991990012115504+00000+999999FM-15+9999ENBL V0202001N00151003601CN0112001N1+00201+00001999999ADDAG12999GA1021+000609079GA2051+003609059MA1101191999999EQDQ01+000000PRSWM2
0076010015999991990012117004+00000+999999FM-15+9999ENBL V0202201N00151004501CN0112001N1+00201+00101999999ADDAG12999GA1011+002409079GA2051+004509059MA1101191999999EQDQ01+000000PRSWM2
0060010015999991990012118004+00000+999999FM-15+9999ENBL V0202001N00311005101CN0112001N1+00301+00001999999ADDAG12000GA1061+005109059MA1101191999999EQDQ01+000000PRSWM2
0076010015999991990012118504+00000+999999FM-15+9999ENBL V0202301N00621006001CN0112001N1+00401+00001999999ADDAG12999GA1021+005109059GA2061+006009059MA1101191999999EQDQ01+000000PRSWM2
0063010015999991990012206064+00000+999999FM-15+9999ENBL V0202001N00571006001CN0112001N1+00601+00401999999ADDAG12021GA1031+005109059GA2061+006009059MA1100101999999MW1611
0071010015999991990012207004+00000+999999FM-15+9999ENBL V0201901N00771006001CN0080001N1+00601+00401999999ADDAG12999GA1021+005109059GA2061+006009059MA1100101999999MW1631OC101701
0084010015999991990012208004+00000+999999FM-15+9999ENBL V0202001N00671006001CN0080001N1+00601+00401999999ADDAG12999GA1021+004509059GA2061+006009059MA1100001999999OC101441EQDQ01+000000PRSWM2
0079010015999991990012208504+00000+999999FM-15+9999ENBL V0202001N00571006001CN0070001N1+00501+00301999999ADDAG12022GA1011+001809079GA2031+004509059GA3061+006009059MA1100001999999MW1621
0079010015999991990012209004+00000+999999FM-15+9999ENBL V0202001N00571006001CN0070001N1+00501+00301999999ADDAG12002GA1011+001809079GA2031+004509059GA3061+006009059MA1100001999999MW1621
0079010015999991990012210004+00000+999999FM-15+9999ENBL V0201901N00511006001CN0070001N1+00501+00401999999ADDAG12999GA1011+000909079GA2031+003609079GA3061+006009059MA1100001999999MW1631
0087010015999991990012211004+00000+999999FM-15+9999ENBL V0201901N00771006001CN0090001N1+00501+00301999999ADDAG12999GA1011+000909079GA2031+003609079GA3061+006009089MA1100001999999MW1621OC101241
0071010015999991990012212004+00000+999999FM-15+9999ENBL V0202701N00621004501CN0060001N1+00301+00201999999ADDAG12001GA1021+000909079GA2061+004509089MA1100201999999MW1801OC101241
0063010015999991990012214004+00000+999999FM-15+9999ENBL V0209999999999007501CN0112001N1+00301+00201999999ADDAG12999GA1011+003009079GA2051+007509089MA1100201999999MW1251
0060010015999991990012215004+00000+999999FM-15+9999ENBL V0202501N00211007501CN0112001N1+00301+00201999999ADDAG12000GA1061+007509089MA1100311999999EQDQ01+000000PRSWM2
0076010015999991990012215504+00000+999999FM-15+9999ENBL V0202501N00211007501CN0112001N1+00301+00001999999ADDAG12999GA1021+003009079GA2061+007509089MA1100311999999EQDQ01+000000PRSWM2
0076010015999991990012217004+00000+999999FM-15+9999ENBL V0209991C00001007501CN0112001N1+00301+00001999999ADDAG12999GA1021+003009079GA2061+007509089MA1100311999999EQDQ01+000000PRSWM2
0063010015999991990012217504+00000+999999FM-15+9999ENBL V0202101N00411006001CN0060001N1+00201+00101999999ADDAG12007GA1021+002409079GA2061+006009089MA1100411999999MW1601
0063010015999991990012219004+00000+999999FM-15+9999ENBL V0202101N00411004501CN0080001N1+00201+00101999999ADDAG12999GA1021+002409079GA2061+004509089MA1100411999999MW1601
0084010015999991990012307004+00000+999999FM-15+9999ENBL V0201701N00881009001CN0112001N1+00401-00401999999ADDAG12999GA1021+006009059GA2051+009009059MA1099291999999OC101391EQDQ01+000000PRSWM2
0055010015999991990012307504+00000+999999FM-15+9999ENBL V0201601N00621006001CN0090001N1+00201-00201999999ADDAG12999GA1061+006009059MA1098981999999MW1601OC101291
0055010015999991990012308144+00000+999999FM-15+9999ENBL V0201601N00621006001CN0090001N1+00201-00201999999ADDAG12999GA1061+006009059MA1098981999999MW1601OC101291
0071010015999991990012309004+00000+999999FM-15+9999ENBL V0201701N00671006001CN0080001N1+00201-00201999999ADDAG12001GA1021+004509059GA2061+006009059MA1098821999999MW1601OC101291
0071010015999991990012311194+00000+999999FM-15+9999ENBL V0201601N00821006301CN0112001N1+00401-00101999999ADDAG12999GA1021+004809059GA2061+006309059MA1098411999999MW1601OC101701
0071010015999991990012311204+00000+999999FM-15+9999ENBL V0201601N00821006301CN0112001N1+00401-00101999999ADDAG12999GA1021+004809059GA2061+006309059MA1098411999999MW1601OC101701
0071010015999991990012312004+00000+999999FM-15+9999ENBL V0201601N00821007501CN0112001N1+00401-00101999999ADDAG12001GA1021+006009059GA2061+007509059MA1098101999999MW1211OC101441
0071010015999991990012313004+00000+999999FM-15+9999ENBL V0201701N00721007501CN0112001N1+00401-00101999999ADDAG12999GA1021+006009059GA2061+007509059MA1097901999999MW1601OC101651
0071010015999991990012313204+00000+999999FM-15+9999ENBL V0201701N00721007501CN0112001N1+00401-00101999999ADDAG12999GA1021+006009059GA2061+007509059MA1097901999999MW1601OC101651
0071010015999991990012314004+00000+999999FM-15+9999ENBL V0201701N00571005701CN0070001N1+00301+00101999999ADDAG12999GA1021+004509059GA2061+005709059MA1097801999999MW1601OC101181
0071010015999991990012314304+00000+999999FM-15+9999ENBL V0201701N00571005701CN0070001N1+00301+00101999999ADDAG12007GA1021+004509059GA2061+005709059MA1097801999999MW1601OC101181
0063010015999991990012315004+00000+999999FM-15+9999ENBL V0202701N00621004501CN0070001N1+00001-00101999999ADDAG12000GA1021+003009059GA2061+004509059MA1097901999999MW1831
0047010015999991990012316004+00000+999999FM-15+9999ENBL V0202201N00101001801CN0006001N1+00001+00001999999ADDAG12999GA1091+001809999MA1098001999999MW1471
0047010015999991990012317004+00000+999999FM-15+9999ENBL V0202801N00411003001CN0020001N1+00001+00001999999ADDAG12999GA1091+003009999MA1098001999999MW1701
0079010015999991990012317504+00000+999999FM-15+9999ENBL V0202401N00101004201CN0112001N1+00001+00001999999ADDAG12001GA1021+000909079GA2051+004209059GA3011+999999079MA1098001999999MW1261
0060010015999991990012318504+00000+999999FM-15+9999ENBL V0202001N00211004501CN0112001N1+00001+00001999999ADDAG12999GA1061+004509059MA1098001999999EQDQ01+000000PRSWM2
0076010015999991990012405004+00000+999999FM-15+9999ENBL V0203201N00151009001CN0112001N1+00001-00101999999ADDAG12999GA1021+004509059GA2071+009009059MA1097801999999EQDQ01+000000PRSWM2
0044010015999991990012407124+00000+999999FM-15+9999ENBL V0201801N00151220001CN0020001N1+00001+00001999999ADDAG12999MA1097801999999EQDQ01+000000PRSWM2
0044010015999991990012407204+00000+999999FM-15+9999ENBL V0201801N00151220001CN0020001N1+00001+00001999999ADDAG12999MA1097801999999EQDQ01+000000PRSWM2
0047010015999991990012408004+00000+999999FM-15+9999ENBL V0202301N00151220001CN0020001N1-00101-00201999999ADDAG12999GA1021+000609079MA1097801999999MW1731
0047010015999991990012408504+00000+999999FM-15+9999ENBL V0202301N00151220001CN0020001N1-00101-00201999999ADDAG12026GA1021+000609079MA1097801999999MW1731
0060010015999991990012409394+00000+999999FM-15+9999ENBL V0202201N00151001501CN0005001N1-00101-00101999999ADDAG12999GA1091+001509999MA1097801999999EQDQ01+000000PRSWM2
0047010015999991990012410004+00000+999999FM-15+9999ENBL V0202101N00101001501CN0005001N1-00101-00101999999ADDAG12999GA1091+001509999MA1097801999999MW1451
0047010015999991990012411504+00000+999999FM-15+9999ENBL V0202701N00211001801CN0015001N1-00101-00101999999ADDAG12002GA1091+001809999MA1097901999999MW1701
0047010015999991990012413004+00000+999999FM-15+9999ENBL V0202501N00151001801CN0015001N1-00101-00201999999ADDAG12999GA1091+001809999MA1098001999999MW1731
0047010015999991990012414204+00000+999999FM-15+9999ENBL V0209999999999220001CN0050001N1-00101-00201999999ADDAG12999GA1031+000609079MA1098001999999MW1221
0047010015999991990012414434+00000+999999FM-15+9999ENBL V0209999999999220001CN0050001N1-00101-00201999999ADDAG12001GA1031+000609079MA1098001999999MW1221
0063010015999991990012415004+00000+999999FM-15+9999ENBL V0202101N00211006001CN0050001N1-00101-00201999999ADDAG12000GA1021+000909079GA2061+006009059MA1098001999999MW1261
0063010015999991990012417004+00000+999999FM-15+9999ENBL V0202401N00211006001CN0050001N1-00101-00201999999ADDAG12999GA1021+001209079GA2051+006009089MA1098001999999MW1851
0047010015999991990012505504+00000+999999FM-15+9999ENBL V0201901N00311220001CN0040001N1-00101-00201999999ADDAG12001GA1021+002409079MA1098001999999MW1851
0047010015999991990012506504+00000+999999FM-15+9999ENBL V0201801N00311001501CN0009001N1-00101-00201999999ADDAG12999GA1091+001509999MA1098001999999MW1731
0047010015999991990012507004+00000+999999FM-15+9999ENBL V0201801N00311001501CN0009001N1-00101-00201999999ADDAG12999GA1091+001509999MA1098001999999MW1731
0063010015999991990012507504+00000+999999FM-15+9999ENBL V0202101N00261004801CN0112001N1-00101-00201999999ADDAG12999GA1021+000609079GA2061+004809089MA1098001999999MW1221
0063010015999991990012508004+00000+999999FM-15+9999ENBL V0202101N00261004801CN0112001N1-00101-00201999999ADDAG12999GA1021+000609079GA2061+004809089MA1098001999999MW1221
0076010015999991990012510004+00000+999999FM-15+9999ENBL V0201901N00311220001CN0112001N1+00001-00201999999ADDAG12999GA1011+003609079GA2041+006009089MA1097901999999EQDQ01+000000PRSWM2
0076010015999991990012511004+00000+999999FM-15+9999ENBL V0201901N00311220001CN0112001N1+00001-00201999999ADDAG12999GA1011+003609079GA2041+006009089MA1097901999999EQDQ01+000000PRSWM2
0060010015999991990012512204+00000+999999FM-15+9999ENBL V0209991V00211220001CN0112001N1+00001-00301999999ADDAG12000GA1041+006009089MA1097901999999EQDQ01+000000PRSWM2
0060010015999991990012513004+00000+999999FM-15+9999ENBL V0201701N00151220001CN0112001N1+00101-00301999999ADDAG12999GA1031+006609089MA1097801999999EQDQ01+000000PRSWM2
0076010015999991990012514004+00000+999999FM-15+9999ENBL V0200901N00211220001CN0112001N1+00001-00601999999ADDAG12999GA1011+007509089GA2041+060009009MA1097701999999EQDQ01+000000PRSWM2
0076010015999991990012514464+00000+999999FM-15+9999ENBL V0200901N00211220001CN0112001N1+00001-00601999999ADDAG12000GA1011+007509089GA2041+060009009MA1097701999999EQDQ01+000000PRSWM2
0076010015999991990012515004+00000+999999FM-15+9999ENBL V0200501N00261220001CN0112001N1-00101-00701999999ADDAG12000GA1011+007509089GA2041+060009009MA1097491999999EQDQ01+000000PRSWM2
0060010015999991990012518004+00000+999999FM-15+9999ENBL V0201101N00511220001CN0112001N1-00101-00901999999ADDAG12000GA1031+060009009MA1097191999999EQDQ01+000000PRSWM2
0060010015999991990012518504+00000+999999FM-15+9999ENBL V0200801N00461060001CN0112001N1-00101-00901999999ADDAG12999GA1051+060009009MA1096991999999EQDQ01+000000PRSWM2
0076010015999991990012606004+00000+999999FM-15+9999ENBL V0200701N00361018001CN0112001N1+00001-00901999999ADDAG12000GA1011+012009059GA2061+018009039MA1096211999999EQDQ01+000000PRSWM2
0076010015999991990012606504+00000+999999FM-15+9999ENBL V0200101N00211018001CN0112001N1+00001-00901999999ADDAG12999GA1011+012009059GA2051+018009039MA1096311999999EQDQ01+000000PRSWM2
0076010015999991990012607004+00000+999999FM-15+9999ENBL V0200101N00211018001CN0112001N1+00001-00901999999ADDAG12999GA1011+012009059GA2051+018009039MA1096311999999EQDQ01+000000PRSWM2
0076010015999991990012608004+00000+999999FM-15+9999ENBL V0201001N00361024001CN0112001N1+00201-00901999999ADDAG12999GA1011+015009059GA2051+024009039MA1096311999999EQDQ01+000000PRSWM2
0076010015999991990012609004+00000+999999FM-15+9999ENBL V0209991V00261024001CN0112001N1+00101-00901999999ADDAG12000GA1011+015009059GA2051+024009039MA1096411999999EQDQ01+000000PRSWM2
0076010015999991990012611114+00000+999999FM-15+9999ENBL V0200901N00261021001CN0112001N1+00101-00901999999ADDAG12999GA1011+015009059GA2061+021009049MA1096611999999EQDQ01+000000PRSWM2
0076010015999991990012612004+00000+999999FM-15+9999ENBL V0200801N00211015001CN0112001N1+00001-00901999999ADDAG12000GA1011+010509059GA2061+015009059MA1096611999999EQDQ01+000000PRSWM2
0076010015999991990012612484+00000+999999FM-15+9999ENBL V0200801N00211015001CN0112001N1+00001-00901999999ADDAG12999GA1011+010509059GA2061+015009059MA1096611999999EQDQ01+000000PRSWM2
0060010015999991990012613004+00000+999999FM-15+9999ENBL V0201001N00311010501CN0112001N1+00101-00901999999ADDAG12999GA1061+010509059MA1096611999999EQDQ01+000000PRSWM2
0060010015999991990012613504+00000+999999FM-15+9999ENBL V0201001N00311010501CN0112001N1+00101-00901999999ADDAG12999GA1061+010509059MA1096611999999EQDQ01+000000PRSWM2
0076010015999991990012614004+00000+999999FM-15+9999ENBL V0200901N00411018001CN0112001N1+00101-00901999999ADDAG12999GA1041+009009059GA2061+018009039MA1096721999999EQDQ01+000000PRSWM2
0076010015999991990012615004+00000+999999FM-15+9999ENBL V0200901N00261018001CN0112001N1+00001-00801999999ADDAG12000GA1021+009009059GA2071+018009039MA1096821999999EQDQ01+000000PRSWM2
0076010015999991990012616004+00000+999999FM-15+9999ENBL V0201301N00211018001CN0112001N1+00001-00801999999ADDAG12999GA1021+003009079GA2071+018009039MA1096881999999EQDQ01+000000PRSWM2
0063010015999991990012617154+00000+999999FM-15+9999ENBL V0201101N00151007501CN0060001N1-00101-00401999999ADDAG12999GA1021+003009079GA2061+007509059MA1096991999999MW1711
0047010015999991990012618004+00000+999999FM-15+9999ENBL V0200301N00101006001CN0030001N1-00201-00301999999ADDAG12001GA1091+006009999MA1097091999999MW1711
0047010015999991990012619004+00000+999999FM-15+9999ENBL V0200401N00101006001CN0030001N1-00201-00301999999ADDAG12999GA1091+006009999MA1097191999999MW1711
0063010015999991990012708004+00000+999999FM-15+9999ENBL V0200101N00101006001CN0112001N1-00201-00301999999ADDAG12999GA1021+000309079GA2051+006009089MA1098211999999MW1851
0063010015999991990012708204+00000+999999FM-15+9999ENBL V0200201N00101004201CN0080001N1-00101-00201999999ADDAG12999GA1021+002109079GA2061+004209089MA1098101999999MW1711
0076010015999991990012710004+00000+999999FM-15+9999ENBL V0200101N00101006001CN0112001N1-00201-00301999999ADDAG12999GA1021+003009079GA2051+006009089MA1098411999999EQDQ01+000000PRSWM2
0063010015999991990012711004+00000+999999FM-15+9999ENBL V0200101N00051004501CN0080001N1-00101-00201999999ADDAG12999GA1031+001209079GA2051+004509089MA1098511999999MW1711
0047010015999991990012712004+00000+999999FM-15+9999ENBL V0203201N00051003001CN0020001N1-00101-00201999999ADDAG12003GA1091+003009999MA1098611999999MW1731
0076010015999991990012713504+00000+999999FM-15+9999ENBL V0203401N00101006001CN0112001N1-00101-00201999999ADDAG12999GA1021+002409079GA2041+006009089MA1098711999999EQDQ01+000000PRSWM2
0076010015999991990012715304+00000+999999FM-15+9999ENBL V0200201N00101007501CN0112001N1+00001-00201999999ADDAG12999GA1021+003609079GA2051+007509089MA1098711999999EQDQ01+000000PRSWM2
0076010015999991990012717004+00000+999999FM-15+9999ENBL V0200201N00101007501CN0112001N1+00001-00201999999ADDAG12999GA1021+003609079GA2051+007509089MA1098711999999EQDQ01+000000PRSWM2
0084010015999991990012810504+00000+999999FM-15+9999ENBL V0200801N00511010501CN0112001N1+00201-00401999999ADDAG12999GA1031+007509059GA2071+010509059MA1098411999999OC100881EQDQ01+000000PRSWM2
0076010015999991990012812004+00000+999999FM-15+9999ENBL V0200801N00621010501CN0112001N1+00201-00501999999ADDAG12000GA1021+007509059GA2071+010509059MA1098311999999EQDQ01+000000PRSWM2
0060010015999991990012812504+00000+999999FM-15+9999ENBL V0200701N00721220001CN0112001N1+00201-00501999999ADDAG12999GA1031+009009059MA1098211999999EQDQ01+000000PRSWM2
0093010015999991990012813504+00000+999999FM-15+9999ENBL V0200801N00671015001CN0112001N1+00201-00501999999ADDAG12999GA1031+009009059GA2071+015009059MA1098001999999REMMET008PM 26KT?EQDQ01+000000PRSWM2
0084010015999991990012815004+00000+999999FM-15+9999ENBL V0200701N00931015001CN0112001N1+00101-00601999999ADDAG12000GA1031+009009059GA2071+015009059MA1097801999999OC101491EQDQ01+000000PRSWM2
0084010015999991990012815504+00000+999999FM-15+9999ENBL V0200801N00821018001CN0112001N1+00101-00601999999ADDAG12999GA1031+009009059GA2071+018009059MA1097701999999OC101291EQDQ01+000000PRSWM2
0076010015999991990012817004+00000+999999FM-15+9999ENBL V0200801N00621018001CN0112001N1+00101-00601999999ADDAG12999GA1031+009009059GA2071+018009039MA1097601999999EQDQ01+000000PRSWM2
0047010015999991990012818004+00000+999999FM-15+9999ENBL V0209991V00311007501CN0080001N1+00101-00601999999ADDAG12002GA1051+007509059MA1097601999999MW1701
0047010015999991990012820004+00000+999999FM-15+9999ENBL V0200601N00411006001CN0025001N1+00001-00301999999ADDAG12999GA1091+006009999MA1097491999999MW1701
0047010015999991990012907004+00000+999999FM-15+9999ENBL V0202201N00101001801CN0015001N1+00001+00001999999ADDAG12999GA1091+001809999MA1098211999999MW1731
0079010015999991990012908004+00000+999999FM-15+9999ENBL V0202001N00101004501CN0020001N1+00001+00001999999ADDAG12999GA1031+000609079GA2061+004509059GA3011+999999079MA1098411999999MW1221
0079010015999991990012908204+00000+999999FM-15+9999ENBL V0202001N00101004501CN0020001N1+00001+00001999999ADDAG12999GA1031+000609079GA2061+004509059GA3011+999999079MA1098411999999MW1221
0063010015999991990012909124+00000+999999FM-15+9999ENBL V0202201N00101004501CN0080001N1+00001-00101999999ADDAG12001GA1031+000909079GA2061+004509089MA1098511999999MW1851
0063010015999991990012910004+00000+999999FM-15+9999ENBL V0203001N00051004501CN0080001N1+00001-00101999999ADDAG12999GA1031+001209079GA2061+004509089MA1098611999999MW1851
0063010015999991990012910204+00000+999999FM-15+9999ENBL V0203001N00051004501CN0080001N1+00001-00101999999ADDAG12999GA1031+001209079GA2061+004509089MA1098611999999MW1851
0079010015999991990012910504+00000+999999FM-15+9999ENBL V0209999999999004501CN0050001N1+00001+00001999999ADDAG12999GA1031+000609079GA2061+004509089GA3011+999999079MA1098711999999MW1851
0079010015999991990012911304+00000+999999FM-15+9999ENBL V0209999999999004501CN0050001N1+00001+00001999999ADDAG12001GA1031+000609079GA2061+004509089GA3011+999999079MA1098711999999MW1851
0063010015999991990012912004+00000+999999FM-15+9999ENBL V0209991C00001004501CN0112001N1+00101+00001999999ADDAG12000GA1021+001509079GA2061+004509089MA1098821999999MW1261
0076010015999991990012913004+00000+999999FM-15+9999ENBL V0201901N00211006001CN0112001N1+00101+00001999999ADDAG12999GA1021+002409079GA2061+006009089MA1098821999999EQDQ01+000000PRSWM2
0092010015999991990012914004+00000+999999FM-15+9999ENBL V0201901N00151004501CN0112001N1+00101+00001999999ADDAG12999GA1021+002409079GA2031+004509089GA3041+009009089MA1098921999999EQDQ01+000000PRSWM2
0092010015999991990012914184+00000+999999FM-15+9999ENBL V0201901N00151004501CN0112001N1+00101+00001999999ADDAG12999GA1021+002409079GA2031+004509089GA3041+009009089MA1098921999999EQDQ01+000000PRSWM2
0076010015999991990012914504+00000+999999FM-15+9999ENBL V0202101N00211009001CN0112001N1+00101-00101999999ADDAG12000GA1031+004509059GA2051+009009059MA1098921999999EQDQ01+000000PRSWM2
0092010015999991990012916004+00000+999999FM-15+9999ENBL V0201801N00211009001CN0112001N1+00101+00001999999ADDAG12999GA1011+002409079GA2021+004509059GA3051+009009059MA1098921999999EQDQ01+000000PRSWM2
0063010015999991990012916504+00000+999999FM-15+9999ENBL V0201701N00511009001CN0112001N1+00101-00201999999ADDAG12999GA1031+004509059GA2051+009009059MA1098921999999MW1701
0076010015999991990012917504+00000+999999FM-15+9999ENBL V0201901N00411220001CN0112001N1+00101-00301999999ADDAG12000GA1011+004509059GA2041+009009059MA1098921999999EQDQ01+000000PRSWM2
0076010015999991990012919004+00000+999999FM-15+9999ENBL V0209991V00051009001CN0112001N1+00101-00301999999ADDAG12999GA1011+004509059GA2051+009009059MA1098921999999EQDQ01+000000PRSWM2
0071010015999991990013005504+00000+999999FM-15+9999ENBL V0201501N00771009001CN0112001N1+00501+00001999999ADDAG12007GA1021+006009059GA2061+009009059MA1098411999999MW1601OC101601
0071010015999991990013007504+00000+999999FM-15+9999ENBL V0201601N00621007501CN0112001N1+00501+00001999999ADDAG12999GA1021+005109059GA2061+007509059MA1098411999999MW1601OC101081
0063010015999991990013009004+00000+999999FM-15+9999ENBL V0201501N00511007501CN0112001N1+00401-00201999999ADDAG12001GA1021+005109059GA2061+007509059MA1098411999999MW1601
0071010015999991990013009504+00000+999999FM-15+9999ENBL V0201501N00311007501CN0112001N1+00401-00101999999ADDAG12999GA1021+005109059GA2061+007509059MA1098411999999MW1601OC100821
0071010015999991990013010134+00000+999999FM-15+9999ENBL V0201501N00311007501CN0112001N1+00401-00101999999ADDAG12999GA1021+005109059GA2061+007509059MA1098411999999MW1601OC100821
0071010015999991990013011004+00000+999999FM-15+9999ENBL V0201301N00571007501CN0112001N1+00501-00101999999ADDAG12999GA1011+006009059GA2051+007509059MA1098411999999MW1211OC101081
0084010015999991990013012004+00000+999999FM-15+9999ENBL V0201401N00571012001CN0112001N1+00501-00101999999ADDAG12000GA1041+007509059GA2061+012009059MA1098411999999OC101341EQDQ01+000000PRSWM2
0047010015999991990013013004+00000+999999FM-15+9999ENBL V0201401N00621007501CN0112001N1+00501-00201999999ADDAG12999GA1061+007509059MA1098411999999MW1601
0063010015999991990013014004+00000+999999FM-15+9999ENBL V0201301N00511009001CN0112001N1+00501-00201999999ADDAG12999GA1021+007509059GA2061+009009059MA1098411999999MW1211
0093010015999991990013015004+00000+999999FM-15+9999ENBL V0201401N00311009001CN0112001N1+00501-00201999999ADDAG10000GA1021+007509059GA2061+009009059MA1098411999999REMMET008DIST SH?EQDQ01+000000PRSWM2
0076010015999991990013016004+00000+999999FM-15+9999ENBL V0201201N00511009001CN0112001N1+00501-00401999999ADDAG12999GA1021+007509059GA2051+009009059MA1098311999999EQDQ01+000000PRSWM2
0076010015999991990013017004+00000+999999FM-15+9999ENBL V0201101N00511009001CN0112001N1+00601-00401999999ADDAG12999GA1021+007509059GA2051+009009059MA1098311999999EQDQ01+000000PRSWM2
0071010015999991990013020004+00000+999999FM-15+9999ENBL V0201701N00621012001CN0112001N1+00501-00201999999ADDAG12999GA1031+009009059GA2061+012009059MA1098411999999MW1211OC101241
0060010015999991990013105504+00000+999999FM-15+9999ENBL V0201101N00621220001CN0112001N1+00601-00501999999ADDAG12000GA1021+009009059MA1098211999999EQDQ01+000000PRSWM2
0076010015999991990013106504+00000+999999FM-15+9999ENBL V0201001N00621027001CN0112001N1+00601-00501999999ADDAG12999GA1011+009009059GA2061+027009039MA1098001999999EQDQ01+000000PRSWM2
0076010015999991990013107004+00000+999999FM-15+9999ENBL V0201001N00621027001CN0112001N1+00601-00501999999ADDAG12999GA1011+009009059GA2061+027009039MA1098001999999EQDQ01+000000PRSWM2
0117010015999991990013108004+00000+999999FM-15+9999ENBL V0201201N00571027001CN0112001N1+00701-00301999999ADDAG12999GA1011+009009059GA2041+012009059GA3061+027009039MA1097801999999OC101131REMMET008PM 30KT?EQDQ01+000000PRSWM2
0071010015999991990013109004+00000+999999FM-15+9999ENBL V0201201N00621009001CN0112001N1+00501+00001999999ADDAG12001GA1041+007509059GA2061+009009059MA1097901999999MW1601OC101291
0071010015999991990013109204+00000+999999FM-15+9999ENBL V0201201N00621009001CN0112001N1+00501+00001999999ADDAG12007GA1041+007509059GA2061+009009059MA1097901999999MW1601OC101291
0071010015999991990013110004+00000+999999FM-15+9999ENBL V0201401N00771006601CN0112001N1+00401+00101999999ADDAG12999GA1041+005409059GA2061+006609059MA1097901999999MW1611OC101391
0109010015999991990013111004+00000+999999FM-15+9999ENBL V0201901N00671007501CN0070001N1+00301+00201999999ADDAG12999GA1011+001509079GA2041+004809059GA3061+007509059MA1098001999999MW1621OC101341REMMET013PM34KT     ??
0109010015999991990013111204+00000+999999FM-15+9999ENBL V0201901N00671007501CN0070001N1+00301+00201999999ADDAG12999GA1011+001509079GA2041+004809059GA3061+007509059MA1098001999999MW1621OC101341REMMET013PM34KT     ??
0071010015999991990013112504+00000+999999FM-15+9999ENBL V0202001N00621006001CN0112001N1+00301+00001999999ADDAG12999GA1011+004509079GA2061+006009089MA1098001999999MW1211OC101131
0088010015999991990013114004+00000+999999FM-15+9999ENBL V0202101N00671007501CN0112001N1+00401+00001999999ADDAG12999GA1011+004509099GA2061+007509089MA1098101999999MW1271OC101391REMMET008PM 38KT?
0089010015999991990013116094+00000+999999FM-15+9999ENBL V0202001N00511007501CN0112001N1+00201+00101999999ADDAG12999GA1041+004509089GA2061+007509089MA1098101999999MW1251OC101031REMMET009PM 37KTS?
0063010015999991990013116504+00000+999999FM-15+9999ENBL V0202701N00211006001CN0112001N1+00201+00101999999ADDAG12999GA1021+003009079GA2061+006009089MA1098101999999MW1251
0063010015999991990013117504+00000+999999FM-15+9999ENBL V0201901N00461006001CN0112001N1+00301+00101999999ADDAG12011GA1021+003009079GA2061+006009089MA1098101999999MW1801
0079010015999991990013119004+00000+999999FM-15+9999ENBL V0201801N00311006001CN0080001N1+00301+00001999999ADDAG12999GA1011+002409079GA2031+004509089GA3061+006009089MA1098001999999MW1801
0076010015999991990020105504+00000+999999FM-15+9999ENBL V0201701N00311009001CN0112001N1+00301-00201999999ADDAG12000GA1021+006909059GA2061+009009059MA1098311999999EQDQ01+000000PRSWM2
0076010015999991990020106504+00000+999999FM-15+9999ENBL V0201901N00311009001CN0112001N1+00401-00201999999ADDAG12999GA1021+006909059GA2051+009009089MA1098311999999EQDQ01+000000PRSWM2
0084010015999991990020108004+00000+999999FM-15+9999ENBL V0201701N00461009001CN0112001N1+00401-00201999999ADDAG12999GA1031+007509089GA2061+009009089MA1098311999999OC100981EQDQ01+000000PRSWM2
0084010015999991990020108304+00000+999999FM-15+9999ENBL V0201701N00461009001CN0112001N1+00401-00201999999ADDAG12000GA1031+007509089GA2061+009009089MA1098311999999OC100981EQDQ01+000000PRSWM2
0081010015999991990020109004+00000+999999FM-15+9999ENBL V0201801N00311009001CN0112001N1+00401-00201999999ADDAG12000GA1031+007509089GA2061+009009089MA1098311999999MW1251REMMET009PM 24KTS?
0081010015999991990020109204+00000+999999FM-15+9999ENBL V0201801N00311009001CN0112001N1+00401-00201999999ADDAG12005GA1031+007509089GA2061+009009089MA1098311999999MW1251REMMET009PM 24KTS?
0118010015999991990020109504+00000+999999FM-15+9999ENBL V0201901N00721007501CN0112001N1+00501-00201999999ADDAG10999GA1021+006009089GA2061+007509089MA1098311999999OC101341REMMET025DIST SH SEC      ?     W?EQDQ01+000000PRSWM2
0071010015999991990020111004+00000+999999FM-15+9999ENBL V0202001N00821009001CN0112001N1+00501-00201999999ADDAG12999GA1031+007509089GA2061+009009089MA1098411999999MW1801OC101901
0071010015999991990020113004+00000+999999FM-15+9999ENBL V0201901N00931006001CN0070001N1+00301+00101999999ADDAG12999GA1031+003609089GA2061+006009089MA1098411999999MW1801OC101601
0055010015999991990020113504+00000+999999FM-15+9999ENBL V0202001N00571003601CN0040001N1+00101+00001999999ADDAG12999GA1091+003609999MA1098611999999MW1831OC101181
0055010015999991990020115004+00000+999999FM-15+9999ENBL V0202001N00721002401CN0020001N1+00101+00001999999ADDAG12000GA1091+002409999MA1098611999999MW1831OC101241
0055010015999991990020116504+00000+999999FM-15+9999ENBL V0202001N00461003601CN0112001N1+00201+00101999999ADDAG12999GA1061+003609089MA1098921999999MW1801OC100881
0063010015999991990020118004+00000+999999FM-15+9999ENBL V0201801N00311005101CN0112001N1+00201+00001999999ADDAG12000GA1031+003009089GA2061+005109089MA1098981999999MW1251
0063010015999991990020119504+00000+999999FM-15+9999ENBL V0202201N00211004501CN0112001N1+00101+00001999999ADDAG12999GA1021+003009089GA2061+004509089MA1099091999999MW1251
0068010015999991990020206004+00000+999999FM-15+9999ENBL V0201201N00511012001CN0112001N1+00601-00401999999ADDAG12000GA1051+012009089MA1098411999999OC100771EQDQ01+000000PRSWM2
0068010015999991990020207504+00000+999999FM-15+9999ENBL V0201701N01031013501CN0112001N1+00701-00401999999ADDAG12999GA1051+013509089MA1098101999999OC102061EQDQ01+000000PRSWM2
0084010015999991990020209004+00000+999999FM-15+9999ENBL V0201701N00931013501CN0112001N1+00701-00401999999ADDAG12000GA1021+009009089GA2051+013509089MA1098101999999OC101701EQDQ01+000000PRSWM2
0084010015999991990020210004+00000+999999FM-15+9999ENBL V0201601N00621013501CN0112001N1+00601-00401999999ADDAG12999GA1021+009009089GA2051+013509089MA1098101999999OC101391EQDQ01+000000PRSWM2
0071010015999991990020211104+00000+999999FM-15+9999ENBL V0201701N00771012001CN0112001N1+00501-00201999999ADDAG12999GA1021+007509089GA2061+012009089MA1098101999999MW1801OC101491
0071010015999991990020211204+00000+999999FM-15+9999ENBL V0201701N00771012001CN0112001N1+00501-00201999999ADDAG12999GA1021+007509089GA2061+012009089MA1098101999999MW1801OC101491
0063010015999991990020212004+00000+999999FM-15+9999ENBL V0202101N00511007501CN0080001N1+00301+00201999999ADDAG12002GA1021+004509089GA2061+007509089MA1098211999999MW1611
0084010015999991990020213004+00000+999999FM-15+9999ENBL V0201801N00771012001CN0112001N1+00301-00201999999ADDAG12999GA1021+006009089GA2061+012009089MA1098101999999OC101541EQDQ01+000000PRSWM2
0084010015999991990020214004+00000+999999FM-15+9999ENBL V0201901N00621012001CN0112001N1+00401-00201999999ADDAG12999GA1031+006009089GA2061+012009089MA1098101999999OC101181EQDQ01+000000PRSWM2
0087010015999991990020217004+00000+999999FM-15+9999ENBL V0201801N00671009001CN0112001N1+00201+00001999999ADDAG12999GA1011+004509099GA2031+006009089GA3051+009009089MA1098101999999MW1251OC101181
0084010015999991990020217504+00000+999999FM-15+9999ENBL V0201901N00721009001CN0112001N1+00401-00201999999ADDAG12000GA1031+007509089GA2051+009009089MA1098101999999OC101241EQDQ01+000000PRSWM2
0055010015999991990020218504+00000+999999FM-15+9999ENBL V0202001N00821005701CN0070001N1+00301-00201999999ADDAG12999GA1091+005709999MA1098101999999MW1831OC101751
0064010015999991990020219504+00000+999999FM-15+9999ENBL V0202001N00621220001CN0050001N1+00101+00001999999ADDAG12999GA1021+002709099MA1098101999999MW1831REMMET008PM 37KT?
0055010015999991990020220504+00000+999999FM-15+9999ENBL V0202001N00771003301CN0045001N1+00101+00001999999ADDAG12019GA1091+003309999MA1098101999999MW1681OC101651
0072010015999991990020222004+00000+999999FM-15+9999ENBL V0202001N00771003301CN0035001N1+00101+00001999999ADDAG12999GA1091+003309999MA1098101999999MW1831OC101291REMMET008PM 32KT?
0071010015999991990020306504+00000+999999FM-15+9999ENBL V0202101N00571006001CN0112001N1+00301+00001999999ADDAG12999GA1031+003609089GA2061+006009089MA1098511999999MW1251OC101081
0071010015999991990020307504+00000+999999FM-15+9999ENBL V0202101N00571003601CN0070001N1+00301+00101999999ADDAG12999GA1021+002409079GA2061+003609089MA1098611999999MW1811OC101081
0063010015999991990020308504+00000+999999FM-15+9999ENBL V0201901N00511003601CN0112001N1+00201+00101999999ADDAG12005GA1011+002409079GA2061+003609089MA1098611999999MW1251
0110010015999991990020310004+00000+999999FM-15+9999ENBL V0202201N00671004201CN0070001N1+00301+00101999999ADDAG12999GA1021+003009099GA2041+004209089GA3061+005409089MA1098711999999MW1811REMMET022PM         ?     22KT?
0110010015999991990020311004+00000+999999FM-15+9999ENBL V0202001N00511005401CN0060001N1+00301+00201999999ADDAG12999GA1011+003009099GA2041+004509089GA3061+005409089MA1098711999999MW1801REMMET022PM         ?     25KT?
0087010015999991990020313004+00000+999999FM-15+9999ENBL V0202201N00721004501CN0060001N1+00301+00101999999ADDAG12999GA1021+003009099GA2041+004509089GA3061+005409089MA1098921999999MW1811OC101241
0063010015999991990020314004+00000+999999FM-15+9999ENBL V0202201N00411005101CN0112001N1+00201+00101999999ADDAG12999GA1041+004209089GA2061+005109089MA1098981999999MW1801
0068010015999991990020411004+00000+999999FM-15+9999ENBL V0201901N00511007801CN0112001N1+00401-00201999999ADDAG12999GA1061+007809089MA1099901999999OC101031EQDQ01+000000PRSWM2
0071010015999991990020412004+00000+999999FM-15+9999ENBL V0201801N00571007501CN0112001N1+00301-00101999999ADDAG12001GA1021+006009089GA2061+007509089MA1099801999999MW1601OC101081
0075010015999991990020413504+00000+999999FM-15+9999ENBL V0201801N00721006001CN0080001N1+00301+00001999999ADDAG12999GA1021+004509059GA2061+006009059MW1611OC101241EQDQ01+029093APOA  
0071010015999991990020415004+00000+999999FM-15+9999ENBL V0202001N00621005101CN0080001N1+00201+00101999999ADDAG12002GA1031+003909059GA2061+005109059MA1099391999999MW1611OC101131
0087010015999991990020416004+00000+999999FM-15+9999ENBL V0201901N00881004201CN0060001N1+00301+00201999999ADDAG12999GA1021+001509079GA2041+004209059GA3061+005709059MA1099291999999MW1611OC101601
0087010015999991990020418004+00000+999999FM-15+9999ENBL V0202001N00721003001CN0035001N1+00301+00201999999ADDAG12004GA1021+001509079GA2051+003009059GA3071+006009059MA1099091999999MW1591OC101241
0087010015999991990020418504+00000+999999FM-15+9999ENBL V0201901N00771003001CN0040001N1+00301+00201999999ADDAG12999GA1021+001209079GA2051+003009059GA3071+004509059MA1099091999999MW1581OC101341
0080010015999991990020419504+00000+999999FM-15+9999ENBL V0202201N00721004501CN0045001N1+00501+00401999999ADDAG12999GA1041+003009059GA2071+004509059MA1099091999999MW1581REMMET008PM 26KT?
0110010015999991990020420504+00000+999999FM-15+9999ENBL V0202101N00511004501CN0045001N1+00501+00401999999ADDAG12009GA1011+000909079GA2041+003009059GA3071+004509059MA1099091999999MW1581REMMET022PM         ?     19KT?
0063010015999991990020421504+00000+999999FM-15+9999ENBL V0202001N00461004801CN0060001N1+00501+00401999999ADDAG12999GA1041+003309059GA2071+004809059MA1099091999999MW1581
0071010015999991990020505004+00000+999999FM-15+9999ENBL V0202201N00881004501CN0060001N1+00701+00601999999ADDAG12999GA1021+002409079GA2061+004509089MA1099091999999MW1811OC101441
0071010015999991990020505504+00000+999999FM-15+9999ENBL V0202201N01181004501CN0060001N1+00701+00501999999ADDAG12062GA1031+003609059GA2071+004509059MA1099191999999MW1631OC101701
0071010015999991990020506504+00000+999999FM-15+9999ENBL V0202201N01081004501CN0112001N1+00701+00601999999ADDAG12999GA1031+003009059GA2071+004509059MA1099191999999MW1631OC102011
0071010015999991990020507004+00000+999999FM-15+9999ENBL V0202201N01081004501CN0112001N1+00701+00601999999ADDAG12999GA1031+003009059GA2071+004509059MA1099191999999MW1631OC102011
0071010015999991990020507504+00000+999999FM-15+9999ENBL V0202201N01031004501CN0060001N1+00701+00501999999ADDAG12999GA1041+003009059GA2071+004509059MA1099191999999MW1631OC101751
0071010015999991990020508004+00000+999999FM-15+9999ENBL V0202201N01031004501CN0060001N1+00701+00501999999ADDAG12999GA1041+003009059GA2071+004509059MA1099191999999MW1631OC101751
0071010015999991990020509004+00000+999999FM-15+9999ENBL V0202201N01031004501CN0060001N1+00601+00401999999ADDAG12006GA1031+003009059GA2071+004509059MA1099291999999MW1631OC102161
0071010015999991990020510004+00000+999999FM-15+9999ENBL V0202201N01491004501CN0055001N1+00601+00401999999ADDAG12999GA1031+003009059GA2071+004509059MA1099291999999MW1621OC102371
0071010015999991990020510504+00000+999999FM-15+9999ENBL V0202201N01491004501CN0055001N1+00601+00401999999ADDAG12999GA1031+003009059GA2071+004509059MA1099291999999MW1621OC102371
0088010015999991990020511504+00000+999999FM-15+9999ENBL V0202201N01031004501CN0060001N1+00701+00501999999ADDAG12024GA1031+003009059GA2061+004509059MA1099391999999MW1621OC101601REMMET008PM 47KT?
0071010015999991990020513504+00000+999999FM-15+9999ENBL V0202201N01131004501CN0060001N1+00701+00601999999ADDAG12999GA1031+003009059GA2061+004509059MA1099491999999MW1581OC101901
0071010015999991990020514004+00000+999999FM-15+9999ENBL V0202201N01131004501CN0060001N1+00701+00601999999ADDAG12999GA1031+003009059GA2061+004509059MA1099491999999MW1581OC101901
0071010015999991990020514504+00000+999999FM-15+9999ENBL V0202201N01241004501CN0060001N1+00701+00601999999ADDAG12012GA1031+003009089GA2061+004509089MA1099591999999MW1801OC102161
0071010015999991990020516004+00000+999999FM-15+9999ENBL V0202201N00821004501CN0080001N1+00701+00601999999ADDAG12999GA1031+003009089GA2061+004509089MA1099591999999MW1801OC101541
0071010015999991990020517004+00000+999999FM-15+9999ENBL V0202201N00931004501CN0080001N1+00701+00601999999ADDAG12999GA1031+003009089GA2061+004509089MA1099701999999MW1581OC101441
0071010015999991990020517504+00000+999999FM-15+9999ENBL V0202201N00621004501CN0060001N1+00701+00601999999ADDAG12009GA1031+003009089GA2061+004509089MA1099701999999MW1581OC101131
0071010015999991990020518004+00000+999999FM-15+9999ENBL V0202201N00621004501CN0060001N1+00701+00601999999ADDAG12001GA1031+003009089GA2061+004509089MA1099701999999MW1581OC101131
0071010015999991990020519004+00000+999999FM-15+9999ENBL V0202201N00721005401CN0060001N1+00701+00601999999ADDAG12999GA1021+002409079GA2061+005409089MA1099701999999MW1581OC101391
0071010015999991990020520004+00000+999999FM-15+9999ENBL V0202101N01031005401CN0060001N1+00701+00601999999ADDAG12999GA1021+002409079GA2061+005409089MA1099701999999MW1581OC101651
0071010015999991990020604304+00000+999999FM-15+9999ENBL V0202301N00931004501CN0050001N1+00701+00601999999ADDAG12999GA1021+001809079GA2061+004509089MA1099701999999MW1581OC101541
0071010015999991990020605004+00000+999999FM-15+9999ENBL V0202301N00931004501CN0050001N1+00701+00601999999ADDAG12999GA1021+001809079GA2061+004509089MA1099701999999MW1581OC101541
0071010015999991990020606004+00000+999999FM-15+9999ENBL V0202301N01181004501CN0060001N1+00701+00601999999ADDAG12001GA1021+002409079GA2061+004509089MA1099701999999MW1581OC101901
0071010015999991990020606204+00000+999999FM-15+9999ENBL V0202301N01181004501CN0060001N1+00701+00601999999ADDAG12009GA1021+002409079GA2061+004509089MA1099701999999MW1581OC101901
0071010015999991990020606504+00000+999999FM-15+9999ENBL V0202301N01031004501CN0040001N1+00701+00601999999ADDAG12999GA1021+002409079GA2061+004509089MA1099701999999MW1581OC101541
0071010015999991990020607004+00000+999999FM-15+9999ENBL V0202301N01031004501CN0040001N1+00701+00601999999ADDAG12999GA1021+002409079GA2061+004509089MA1099701999999MW1581OC101541
0055010015999991990020608004+00000+999999FM-15+9999ENBL V0202201N00931004501CN0050001N1+00701+00601999999ADDAG12999GA1061+004509089MA1099801999999MW1581OC101651
0071010015999991990020609004+00000+999999FM-15+9999ENBL V0202301N01031004501CN0112001N1+00701+00501999999ADDAG12001GA1031+002409089GA2061+004509089MA1099801999999MW1801OC101701
0071010015999991990020609504+00000+999999FM-15+9999ENBL V0202201N00671003601CN0080001N1+00601+00501999999ADDAG12999GA1021+001509079GA2071+003609089MA1099801999999MW1581OC101181
0071010015999991990020610504+00000+999999FM-15+9999ENBL V0202201N00721004501CN0112001N1+00701+00601999999ADDAG12999GA1021+001809079GA2061+004509089MA1099801999999MW1801OC101181
0071010015999991990020611004+00000+999999FM-15+9999ENBL V0202201N00721004501CN0112001N1+00701+00601999999ADDAG12999GA1021+001809079GA2061+004509089MA1099801999999MW1801OC101181
0071010015999991990020612004+00000+999999FM-15+9999ENBL V0202101N00721004201CN0112001N1+00701+00501999999ADDAG12001GA1021+001809079GA2061+004209089MA1099701999999MW1801OC101291
0071010015999991990020613004+00000+999999FM-15+9999ENBL V0202101N00721004201CN0112001N1+00701+00501999999ADDAG12999GA1021+001809079GA2061+004209089MA1099701999999MW1801OC101291
0071010015999991990020613504+00000+999999FM-15+9999ENBL V0202101N00981004201CN0080001N1+00701+00601999999ADDAG12999GA1021+001809079GA2061+004209089MA1099801999999MW1581OC101961
0071010015999991990020614004+00000+999999FM-15+9999ENBL V0202101N00981004201CN0080001N1+00701+00601999999ADDAG12999GA1021+001809079GA2061+004209089MA1099801999999MW1581OC101961
0071010015999991990020614504+00000+999999FM-15+9999ENBL V0202301N00821004501CN0070001N1+00701+00501999999ADDAG12024GA1031+003009079GA2061+004509089MA1099701999999MW1621OC101751
0071010015999991990020616004+00000+999999FM-15+9999ENBL V0202301N00881005101CN0080001N1+00701+00501999999ADDAG12999GA1021+003009079GA2061+005109059MA1099701999999MW1621OC101751
0071010015999991990020616504+00000+999999FM-15+9999ENBL V0202201N00721005101CN0112001N1+00701+00501999999ADDAG12999GA1021+003609059GA2061+005109059MA1099701999999MW1601OC101391
0071010015999991990020617124+00000+999999FM-15+9999ENBL V0202201N00721005101CN0112001N1+00701+00501999999ADDAG12999GA1021+003609059GA2061+005109059MA1099701999999MW1601OC101391
0063010015999991990020618004+00000+999999FM-15+9999ENBL V0209999999999012001CN0018001N1+00701+00501999999ADDAG12000GA1031+006009059GA2061+012009059MA1099591999999MW1221
0081010015999991990020706004+00000+999999FM-15+9999ENBL V0202201N00671007501CN0070001N1+00501+00301999999ADDAG12002GA1031+004509059GA2061+007509059MA1098311999999MW1621REMMET009PM 36KTS?
0081010015999991990020706274+00000+999999FM-15+9999ENBL V0202201N00671007501CN0070001N1+00501+00301999999ADDAG12024GA1031+004509059GA2061+007509059MA1098311999999MW1621REMMET009PM 36KTS?
0110010015999991990020708004+00000+999999FM-15+9999ENBL V0202301N00361004501CN0070001N1+00301+00201999999ADDAG12999GA1011+001809079GA2031+003009079GA3071+004509089MA1098211999999MW1801REMMET022PM         ?     30KT?
0087010015999991990020708074+00000+999999FM-15+9999ENBL V0202301N00671006001CN0112001N1+00401+00201999999ADDAG12999GA1011+003009079GA2041+004509089GA3061+006009089MA1098311999999MW1211OC101181
0110010015999991990020709004+00000+999999FM-15+9999ENBL V0202301N00361004501CN0070001N1+00301+00201999999ADDAG12001GA1011+001809079GA2031+003009079GA3071+004509089MA1098211999999MW1801REMMET022PM         ?     30KT?
0079010015999991990020709504+00000+999999FM-15+9999ENBL V0200501N00211005101CN0112001N1+00301+00301999999ADDAG12999GA1011+001809079GA2031+003009079GA3061+005109089MA1098101999999MW1251
0063010015999991990020710504+00000+999999FM-15+9999ENBL V0201701N00211004501CN0112001N1+00301+00201999999ADDAG12999GA1021+002409079GA2061+004509059MA1098001999999MW1611
0063010015999991990020711004+00000+999999FM-15+9999ENBL V0201701N00211004501CN0112001N1+00301+00201999999ADDAG12999GA1021+002409079GA2061+004509059MA1098001999999MW1611
0112010015999991990020712504+00000+999999FM-15+9999ENBL V0200101N00151003901CN0112001N1+00301+00201999999ADDAG12999GA1011+001509079GA2061+003909059GA3091+999999999MA1097601999999MW1601REMMET024ST         ?     BLW STN
0112010015999991990020713254+00000+999999FM-15+9999ENBL V0200101N00151003901CN0112001N1+00301+00201999999ADDAG12999GA1011+001509079GA2061+003909059GA3091+999999999MA1097601999999MW1601REMMET024ST         ?     BLW STN
0063010015999991990020714004+00000+999999FM-15+9999ENBL V0209991V00101003601CN0112001N1+00301+00201999999ADDAG12999GA1011+000309079GA2071+003609059MA1097391999999MW1601
0063010015999991990020715004+00000+999999FM-15+9999ENBL V0209991V00101999999CN0025001N1+00101+00001999999ADDAG12001GA1031+000609079GA2021+999999079MA1097391999999MW1711
0047010015999991990020715504+00000+999999FM-15+9999ENBL V0202201N00151001501CN0006001N1+00001+00001999999ADDAG12999GA1091+001509999MA1097491999999MW1471
0047010015999991990020716004+00000+999999FM-15+9999ENBL V0202201N00151001501CN0006001N1+00001+00001999999ADDAG12999GA1091+001509999MA1097491999999MW1471
0068010015999991990020717004+00000+999999FM-15+9999ENBL V0202201N00151001801CN0010001N1+00001+00001999999ADDAG12999GA1091+001809999MA1097601999999MW1731REMMET012RJCT42  0777
0047010015999991990020718504+00000+999999FM-15+9999ENBL V0209991C00001002401CN0010001N1-00101-00101999999ADDAG12999GA1091+002409999MA1097601999999MW1731
0060010015999991990020805504+00000+999999FM-15+9999ENBL V0200501N00211220001CN0112001N1+00001-00101999999ADDAG12000GA1041+007509059MA1097801999999EQDQ01+000000PRSWM2
0076010015999991990020806504+00000+999999FM-15+9999ENBL V0200601N00311007501CN0112001N1-00101-00201999999ADDAG12999GA1021+001809079GA2041+007509059MA1097901999999EQDQ01+000000PRSWM2
0076010015999991990020808504+00000+999999FM-15+9999ENBL V0200601N00361220001CN0112001N1-00101-00201999999ADDAG12000GA1021+001809079GA2021+007509059MA1098101999999EQDQ01+000000PRSWM2
0076010015999991990020809004+00000+999999FM-15+9999ENBL V0200601N00361220001CN0112001N1-00101-00201999999ADDAG12000GA1021+001809079GA2021+007509059MA1098101999999EQDQ01+000000PRSWM2
0076010015999991990020809204+00000+999999FM-15+9999ENBL V0200601N00361220001CN0112001N1-00101-00201999999ADDAG12000GA1021+001809079GA2021+007509059MA1098101999999EQDQ01+000000PRSWM2
0076010015999991990020810004+00000+999999FM-15+9999ENBL V0200601N00311220001CN0112001N1-00101-00201999999ADDAG12999GA1021+001509079GA2021+006009079MA1098101999999EQDQ01+000000PRSWM2
0076010015999991990020812004+00000+999999FM-15+9999ENBL V0209991C00001220001CN0112001N1+00001-00101999999ADDAG12000GA1021+006009059GA2031+018009039MA1098511999999EQDQ01+000000PRSWM2
0076010015999991990020813004+00000+999999FM-15+9999ENBL V0209991C00001220001CN0112001N1+00001-00101999999ADDAG12999GA1021+006009059GA2031+018009039MA1098511999999EQDQ01+000000PRSWM2
0076010015999991990020813504+00000+999999FM-15+9999ENBL V0200601N00211220001CN0112001N1-00101-00201999999ADDAG12999GA1011+006009059GA2031+018009039MA1098511999999EQDQ01+000000PRSWM2
0076010015999991990020814004+00000+999999FM-15+9999ENBL V0200601N00211220001CN0112001N1-00101-00201999999ADDAG12999GA1011+006009059GA2031+018009039MA1098511999999EQDQ01+000000PRSWM2
0092010015999991990020815504+00000+999999FM-15+9999ENBL V0203501N00101003601CN0112001N1-00101-00201999999ADDAG12999GA1021+001509079GA2031+003609079GA3051+015009039MA1098611999999EQDQ01+000000PRSWM2
0092010015999991990020816004+00000+999999FM-15+9999ENBL V0203501N00101003601CN0112001N1-00101-00201999999ADDAG12999GA1021+001509079GA2031+003609079GA3051+015009039MA1098611999999EQDQ01+000000PRSWM2
0047010015999991990020817504+00000+999999FM-15+9999ENBL V0201901N00101003001CN0015001N1-00101-00101999999ADDAG12009GA1091+003009999MA1098921999999MW1711
0047010015999991990020818004+00000+999999FM-15+9999ENBL V0201901N00101003001CN0015001N1-00101-00101999999ADDAG12001GA1091+003009999MA1098921999999MW1711
0047010015999991990020818504+00000+999999FM-15+9999ENBL V0202301N00101001201CN0010001N1-00101-00101999999ADDAG12999GA1091+001209999MA1098981999999MW1701
0047010015999991990020906004+00000+999999FM-15+9999ENBL V0202401N00411220001CN0060001N1+00101+00001999999ADDAG12001GA1021+001509079MA1099591999999MW1801
0055010015999991990020908004+00000+999999FM-15+9999ENBL V0202001N00311220001CN0015001N1+00001-00101999999ADDAG12999GA1021+000909079MA1099701999999MW1851OC100881
0096010015999991990020908504+00000+999999FM-15+9999ENBL V0202201N00211004201CN0008001N1+00001-00101999999ADDAG12001GA1031+000159079GA2061+004209089MA1099701999999MW1261REMMET024VIS SEC          ?     S
0096010015999991990020909224+00000+999999FM-15+9999ENBL V0202201N00211004201CN0008001N1+00001-00101999999ADDAG12001GA1031+000159079GA2061+004209089MA1099701999999MW1261REMMET024VIS SEC          ?     S
0063010015999991990020909504+00000+999999FM-15+9999ENBL V0202701N00311003301CN0015001N1+00001-00101999999ADDAG12999GA1031+000159079GA2061+003309089MA1099901999999MW1261
0063010015999991990020910004+00000+999999FM-15+9999ENBL V0202701N00311003301CN0015001N1+00001-00101999999ADDAG12999GA1031+000159079GA2061+003309089MA1099901999999MW1261
0102010015999991990020911004+00000+999999FM-15+9999ENBL V0209991V00101000601CN0015001N1+00001-00101999999ADDAG12999GA1021+000159079GA2041+000609079GA3061+002409059MA1099901999999MW1261REMMET014VIS SEC S 10+?
0092010015999991990020912004+00000+999999FM-15+9999ENBL V0202201N00311024001CN0112001N1+00201+00001999999ADDAG12000GA1011+002409079GA2041+007509089GA3071+024009049MA1099901999999EQDQ01+000000PRSWM2
0092010015999991990020913004+00000+999999FM-15+9999ENBL V0202201N00311024001CN0112001N1+00201+00001999999ADDAG12999GA1011+002409079GA2041+007509089GA3071+024009049MA1099901999999EQDQ01+000000PRSWM2
0055010015999991990020914004+00000+999999FM-15+9999ENBL V0202201N00671220001CN0050001N1+00201+00001999999ADDAG12999GA1021+001509079MA1099801999999MW1801OC101181
0047010015999991990020914504+00000+999999FM-15+9999ENBL V0202201N00511220001CN0030001N1+00001-00101999999ADDAG12001GA1021+000909079MA1099491999999MW1851
0063010015999991990020916004+00000+999999FM-15+9999ENBL V0202301N00621003001CN0040001N1+00101+00001999999ADDAG12999GA1031+000909079GA2061+003009079MA1099391999999MW1601
0084010015999991990020917004+00000+999999FM-15+9999ENBL V0202301N00931003601CN0050001N1+00201+00101999999ADDAG12999GA1021+001509079GA2061+003609079MA1099291999999OC101701EQDQ01+000000PRSWM2
0063010015999991990020918304+00000+999999FM-15+9999ENBL V0202601N00411003601CN0060001N1+00201+00101999999ADDAG12999GA1021+001509079GA2061+003609079MA1099391999999MW1261
0063010015999991990020918504+00000+999999FM-15+9999ENBL V0202601N00411003601CN0060001N1+00201+00101999999ADDAG12999GA1021+001509079GA2061+003609079MA1099391999999MW1261
0071010015999991990020921004+00000+999999FM-15+9999ENBL V0202801N00821007501CN0112001N1+00201-00201999999ADDAG12001GA1021+004509089GA2051+007509089MA1099391999999MW1271OC101341
0076010015999991990020921504+00000+999999FM-15+9999ENBL V0202601N00571007501CN0112001N1+00201-00201999999ADDAG12999GA1021+004509089GA2051+007509089MA1099391999999EQDQ01+000000PRSWM2
0076010015999991990021006504+00000+999999FM-15+9999ENBL V0202601N00461005101CN0112001N1+00001-00101999999ADDAG12999GA1021+003009099GA2061+005109089MA1099491999999EQDQ01+000000PRSWM2
0076010015999991990021007004+00000+999999FM-15+9999ENBL V0202601N00461005101CN0112001N1+00001-00101999999ADDAG12999GA1021+003009099GA2061+005109089MA1099491999999EQDQ01+000000PRSWM2
0092010015999991990021008504+00000+999999FM-15+9999ENBL V0203001N00211004501CN0112001N1+00001-00101999999ADDAG12000GA1011+000609079GA2031+003009089GA3051+004509089MA1099491999999EQDQ01+000000PRSWM2
0092010015999991990021009004+00000+999999FM-15+9999ENBL V0203001N00211004501CN0112001N1+00001-00101999999ADDAG12000GA1011+000609079GA2031+003009089GA3051+004509089MA1099491999999EQDQ01+000000PRSWM2
0097010015999991990021010004+00000+999999FM-15+9999ENBL V0200801N00211005401CN0112001N1+00101+00001999999ADDAG12999GA1031+003009079GA2061+005409089MA1099591999999REMMET012DIST SNSH W?EQDQ01+000000PRSWM2
0047010015999991990021011004+00000+999999FM-15+9999ENBL V0202201N00151220001CN0050001N1+00001-00101999999ADDAG12999GA1021+000909079MA1099491999999MW1851
0063010015999991990021011504+00000+999999FM-15+9999ENBL V0202101N00101003601CN0050001N1+00101+00001999999ADDAG12001GA1031+000909079GA2051+003609079MA1099491999999MW1261
0092010015999991990021012004+00000+999999FM-15+9999ENBL V0200601N00261007501CN0112001N1+00101+00001999999ADDAG12000GA1011+000309079GA2031+003009079GA3051+007509059MA1099391999999EQDQ01+000000PRSWM2
0092010015999991990021013004+00000+999999FM-15+9999ENBL V0200601N00261007501CN0112001N1+00101+00001999999ADDAG12999GA1011+000309079GA2031+003009079GA3051+007509059MA1099391999999EQDQ01+000000PRSWM2
0094010015999991990021111004+00000+999999FM-15+9999ENBL V0201501N00511010501CN0112001N1+00301-00501999999ADDAG12999GA1011+006009089GA2051+010509059MA1097291999999REMMET009PM 25KTS?EQDQ01+000000PRSWM2
0084010015999991990021112004+00000+999999FM-15+9999ENBL V0201801N00621010501CN0112001N1+00401-00401999999ADDAG12000GA1021+009009059GA2061+010509059MA1097191999999OC101081EQDQ01+000000PRSWM2
0055010015999991990021114004+00000+999999FM-15+9999ENBL V0201801N00721004501CN0040001N1+00201-00201999999ADDAG12999GA1091+004509999MA1097191999999MW1851OC101291
0055010015999991990021114134+00000+999999FM-15+9999ENBL V0201801N00721004501CN0040001N1+00201-00201999999ADDAG12999GA1091+004509999MA1097191999999MW1851OC101291
0047010015999991990021115004+00000+999999FM-15+9999ENBL V0202001N00511220001CN0030001N1+00101+00001999999ADDAG12000GA1021+001509079MA1097191999999MW1851
0112010015999991990021115504+00000+999999FM-15+9999ENBL V0202201N00311003601CN0050001N1+00001-00101999999ADDAG12999GA1011+000309079GA2041+000909079GA3061+003609089MA1097291999999MW1261REMMET024VIS        ?     W 1500?
0082010015999991990021116504+00000+999999FM-15+9999ENBL V0202101N00511004501CN0090001N1+00001-00101999999ADDAG10999GA1021+001509079GA2061+004509089MA1097391999999MW1261REMMET010DIST SH W?
0063010015999991990021117554+00000+999999FM-15+9999ENBL V0202101N00361006001CN0112001N1+00001-00101999999ADDAG12001GA1011+004509089GA2051+006009089MA1097491999999MW1261
0063010015999991990021118004+00000+999999FM-15+9999ENBL V0202101N00361006001CN0112001N1+00001-00101999999ADDAG12000GA1011+004509089GA2051+006009089MA1097491999999MW1261
0079010015999991990021118504+00000+999999FM-15+9999ENBL V0202201N00411006001CN0030001N1+00001-00101999999ADDAG12999GA1011+001509079GA2021+003009079GA3061+006009089MA1097491999999MW1851
0079010015999991990021119004+00000+999999FM-15+9999ENBL V0202201N00411006001CN0030001N1+00001-00101999999ADDAG12999GA1011+001509079GA2021+003009079GA3061+006009089MA1097491999999MW1851
0076010015999991990021205504+00000+999999FM-15+9999ENBL V0201101N00361018001CN0112001N1+00201-00601999999ADDAG12000GA1011+012009059GA2061+018009039MA1097091999999EQDQ01+000000PRSWM2
0076010015999991990021206004+00000+999999FM-15+9999ENBL V0201101N00361018001CN0112001N1+00201-00601999999ADDAG12000GA1011+012009059GA2061+018009039MA1097091999999EQDQ01+000000PRSWM2
0076010015999991990021206204+00000+999999FM-15+9999ENBL V0201401N00621021001CN0112001N1+00301-00601999999ADDAG12000GA1011+009009059GA2051+021009039MA1097091999999EQDQ01+000000PRSWM2
0076010015999991990021206504+00000+999999FM-15+9999ENBL V0201301N00621021001CN0112001N1+00301-00601999999ADDAG12999GA1011+012009059GA2051+021009039MA1097091999999EQDQ01+000000PRSWM2
0076010015999991990021207504+00000+999999FM-15+9999ENBL V0201401N00621021001CN0112001N1+00301-00601999999ADDAG12999GA1011+009009059GA2051+021009039MA1097091999999EQDQ01+000000PRSWM2
