0060010014999991990010122504+59800+005350FM-15+0049ENSO V0201001N00571010501CN0112001N1+00201-00501999999ADDAG12999GA1061+010509059MA1102101999999EQDQ01+000000PRSWM2
0060010014999991990010206304+59800+005350FM-15+0049ENSO V0201101N00571012001CN0112001N1+00301-00601999999ADDAG12999GA1051+012009059MA1101901999999EQDQ01+000000PRSWM2
0060010014999991990010207004+59800+005350FM-15+0049ENSO V0201101N00571012001CN0112001N1+00301-00601999999ADDAG12999GA1051+012009059MA1101901999999EQDQ01+000000PRSWM2
0060010014999991990010207504+59800+005350FM-15+0049ENSO V0201001N00621012001CN0112001N1+00301-00501999999ADDAG12999GA1051+012009059MA1101901999999EQDQ01+000000PRSWM2
0060010014999991990010208004+59800+005350FM-15+0049ENSO V0201001N00621012001CN0112001N1+00301-00501999999ADDAG12999GA1051+012009059MA1101901999999EQDQ01+000000PRSWM2
0060010014999991990010209504+59800+005350FM-15+0049ENSO V0201001N00461010501CN0112001N1+00301-00501999999ADDAG12999GA1061+010509059MA1102001999999EQDQ01+000000PRSWM2
0076010014999991990010212004+59800+005350FM-15+0049ENSO V0201101N00461013501CN0112001N1+00301-00501999999ADDAG12000GA1011+009009089GA2061+013509059MA1101901999999EQDQ01+000000PRSWM2
0076010014999991990010213004+59800+005350FM-15+0049ENSO V0201101N00571012001CN0112001N1+00301-00501999999ADDAG12999GA1021+009009089GA2061+012009059MA1101901999999EQDQ01+000000PRSWM2
0076010014999991990010214004+59800+005350FM-15+0049ENSO V0201101N00411010501CN0112001N1+00301-00501999999ADDAG12999GA1031+009009089GA2061+010509059MA1101901999999EQDQ01+000000PRSWM2
0076010014999991990010215004+59800+005350FM-15+0049ENSO V0201101N00511012001CN0112001N1+00301-00501999999ADDAG12000GA1031+009009059GA2061+012009059MA1101901999999EQDQ01+000000PRSWM2
0076010014999991990010216004+59800+005350FM-15+0049ENSO V0201401N00361012001CN0112001N1+00301-00501999999ADDAG12999GA1031+009009059GA2061+012009059MA1102001999999EQDQ01+000000PRSWM2
0063010014999991990010217004+59800+005350FM-15+0049ENSO V0201201N00311010501CN0112001N1+00301-00201999999ADDAG12999GA1031+007509059GA2061+010509059MA1102001999999MW1601
0079010014999991990010306004+59800+005350FM-15+0049ENSO V0201201N00621004501CN0112001N1+00501+00001999999ADDAG12003GA1021+003009079GA2031+004509059GA3061+008409059MA1101901999999MW1211
0076010014999991990010306504+59800+005350FM-15+0049ENSO V0201401N00571007501CN0112001N1+00501-00101999999ADDAG12999GA1021+003009079GA2061+007509059MA1101901999999EQDQ01+000000PRSWM2
0063010014999991990010308004+59800+005350FM-15+0049ENSO V0201401N00461006001CN0112001N1+00501-00101999999ADDAG12999GA1021+003009079GA2061+006009059MA1101901999999MW1611
0063010014999991990010308254+59800+005350FM-15+0049ENSO V0201401N00461006001CN0112001N1+00501-00101999999ADDAG12999GA1021+003009079GA2061+006009059MA1101901999999MW1611
0079010014999991990010309004+59800+005350FM-15+0049ENSO V0201501N00621007501CN0112001N1+00501+00001999999ADDAG12002GA1021+004509059GA2031+007509059GA3061+009009059MA1101901999999MW1601
0079010014999991990010309504+59800+005350FM-15+0049ENSO V0201501N00721006001CN0112001N1+00501+00001999999ADDAG12999GA1021+004509059GA2031+006009059GA3061+007509059MA1101901999999MW1601
0079010014999991990010310004+59800+005350FM-15+0049ENSO V0201501N00721006001CN0112001N1+00501+00001999999ADDAG12999GA1021+004509059GA2031+006009059GA3061+007509059MA1101901999999MW1601
0079010014999991990010311184+59800+005350FM-15+0049ENSO V0201501N00881006001CN0112001N1+00501+00101999999ADDAG12999GA1021+004509059GA2031+006009059GA3061+007509059MA1101901999999MW1591
0063010014999991990010312004+59800+005350FM-15+0049ENSO V0201501N00881007501CN0112001N1+00501+00001999999ADDAG12003GA1031+005409059GA2061+007509059MA1101901999999MW1211
0063010014999991990010312304+59800+005350FM-15+0049ENSO V0201501N00881007501CN0112001N1+00501+00001999999ADDAG12999GA1031+005409059GA2061+007509059MA1101901999999MW1211
0129010014999991990010313004+59800+005350FM-15+0049ENSO V0201501N00881009001CN0112001N1+00501+00001999999ADDAG12999GA1011+004209059GA2031+006009059GA3061+009009059MA1101901999999REMMET028PAST MAX         ?     28KT?EQDQ01+000000PRSWM2
0129010014999991990010313204+59800+005350FM-15+0049ENSO V0201501N00881009001CN0112001N1+00501+00001999999ADDAG12999GA1011+004209059GA2031+006009059GA3061+009009059MA1101901999999REMMET028PAST MAX         ?     28KT?EQDQ01+000000PRSWM2
0107010014999991990010313504+59800+005350FM-15+0049ENSO V0201601N00721009001CN0112001N1+00501-00101999999ADDAG12999GA1031+005409059GA2061+009009059MA1101901999999OC101241REMMET014PAST MAX 33KT?EQDQ01+000000PRSWM2
0107010014999991990010314304+59800+005350FM-15+0049ENSO V0201601N00721009001CN0112001N1+00501-00101999999ADDAG12000GA1031+005409059GA2061+009009059MA1101901999999OC101241REMMET014PAST MAX 33KT?EQDQ01+000000PRSWM2
0129010014999991990010316004+59800+005350FM-15+0049ENSO V0201601N01031006001CN0112001N1+00501+00001999999ADDAG12999GA1021+004509059GA2041+006009059GA3061+009009059MA1101901999999REMMET028PAST MAX         ?     38KT?EQDQ01+000000PRSWM2
0084010014999991990010317004+59800+005350FM-15+0049ENSO V0201601N00821007501CN0112001N1+00401+00101999999ADDAG12999GA1031+004209059GA2061+007509059MA1101901999999OC101441EQDQ01+000000PRSWM2
0076010014999991990010406504+59800+005350FM-15+0049ENSO V0201501N00671009001CN0112001N1+00401-00101999999ADDAG12999GA1021+007509059GA2051+009009059MA1101691999999EQDQ01+000000PRSWM2
0076010014999991990010407004+59800+005350FM-15+0049ENSO V0201501N00671009001CN0112001N1+00401-00101999999ADDAG12999GA1021+007509059GA2051+009009059MA1101691999999EQDQ01+000000PRSWM2
0076010014999991990010407504+59800+005350FM-15+0049ENSO V0201401N00511009001CN0112001N1+00401-00201999999ADDAG12999GA1021+006009059GA2051+009009059MA1101591999999EQDQ01+000000PRSWM2
0076010014999991990010408004+59800+005350FM-15+0049ENSO V0201401N00511009001CN0112001N1+00401-00201999999ADDAG12999GA1021+006009059GA2051+009009059MA1101591999999EQDQ01+000000PRSWM2
0076010014999991990010409004+59800+005350FM-15+0049ENSO V0201401N00511009001CN0112001N1+00501-00101999999ADDAG12000GA1021+006009059GA2061+009009059MA1101591999999EQDQ01+000000PRSWM2
0063010014999991990010410004+59800+005350FM-15+0049ENSO V0201401N00671009001CN0112001N1+00501-00101999999ADDAG12999GA1011+006009059GA2061+009009059MA1101591999999MW1211
0063010014999991990010410304+59800+005350FM-15+0049ENSO V0201401N00671009001CN0112001N1+00501-00101999999ADDAG12999GA1011+006009059GA2061+009009059MA1101591999999MW1211
0063010014999991990010410504+59800+005350FM-15+0049ENSO V0201301N00511006001CN0112001N1+00501-00101999999ADDAG12999GA1021+004509059GA2061+006009059MA1101591999999MW1601
0063010014999991990010411504+59800+005350FM-15+0049ENSO V0201401N00671007501CN0112001N1+00401-00201999999ADDAG12001GA1031+005409059GA2061+007509059MA1101491999999MW1501
0063010014999991990010412204+59800+005350FM-15+0049ENSO V0201401N00671007501CN0112001N1+00401-00201999999ADDAG12001GA1031+005409059GA2061+007509059MA1101491999999MW1501
0063010014999991990010412304+59800+005350FM-15+0049ENSO V0201401N00671007501CN0112001N1+00401-00201999999ADDAG12999GA1031+005409059GA2061+007509059MA1101491999999MW1501
0063010014999991990010413004+59800+005350FM-15+0049ENSO V0201301N00571007501CN0112001N1+00401-00201999999ADDAG12999GA1031+005409059GA2061+007509059MA1101491999999MW1201
0063010014999991990010414004+59800+005350FM-15+0049ENSO V0201401N00511006001CN0112001N1+00401-00201999999ADDAG12999GA1031+003609079GA2061+006009059MA1101491999999MW1591
0063010014999991990010414304+59800+005350FM-15+0049ENSO V0201401N00511006001CN0112001N1+00401-00201999999ADDAG12014GA1031+003609079GA2061+006009059MA1101491999999MW1591
0063010014999991990010415004+59800+005350FM-15+0049ENSO V0201401N00511005401CN0112001N1+00401+00001999999ADDAG12002GA1031+003009079GA2061+005409059MA1101491999999MW1601
0063010014999991990010416004+59800+005350FM-15+0049ENSO V0201401N00511006001CN0112001N1+00401+00001999999ADDAG12999GA1021+003909079GA2061+006009059MA1101491999999MW1231
0076010014999991990010417004+59800+005350FM-15+0049ENSO V0201201N00311006001CN0112001N1+00401-00101999999ADDAG12999GA1021+003909079GA2061+006009059MA1101491999999EQDQ01+000000PRSWM2
0060010014999991990010507084+59800+005350FM-15+0049ENSO V0201801N00411010501CN0112001N1+00301-00401999999ADDAG12999GA1061+010509059MA1101691999999EQDQ01+000000PRSWM2
0060010014999991990010508094+59800+005350FM-15+0049ENSO V0201501N00571012001CN0112001N1+00401-00401999999ADDAG12999GA1051+012009059MA1101691999999EQDQ01+000000PRSWM2
0060010014999991990010508204+59800+005350FM-15+0049ENSO V0201501N00571012001CN0112001N1+00401-00401999999ADDAG12999GA1051+012009059MA1101691999999EQDQ01+000000PRSWM2
0060010014999991990010508304+59800+005350FM-15+0049ENSO V0201501N00571012001CN0112001N1+00401-00401999999ADDAG12000GA1051+012009059MA1101691999999EQDQ01+000000PRSWM2
0076010014999991990010509004+59800+005350FM-15+0049ENSO V0201401N00211024001CN0112001N1+00301-00401999999ADDAG12000GA1021+010509059GA2041+024009039MA1101691999999EQDQ01+000000PRSWM2
0076010014999991990010511004+59800+005350FM-15+0049ENSO V0201601N00461018001CN0112001N1+00401-00401999999ADDAG12999GA1041+009009059GA2061+018009039MA1101801999999EQDQ01+000000PRSWM2
0076010014999991990010511514+59800+005350FM-15+0049ENSO V0201601N00461018001CN0112001N1+00401-00401999999ADDAG12000GA1041+009009059GA2061+018009039MA1101801999999EQDQ01+000000PRSWM2
0079010014999991990010513004+59800+005350FM-15+0049ENSO V0201401N00461006001CN0112001N1+00401-00401999999ADDAG12999GA1021+004509059GA2041+006009059GA3061+009009059MA1101691999999MW1701
0063010014999991990010514004+59800+005350FM-15+0049ENSO V0201501N00671004201CN0070001N1+00301-00101999999ADDAG12999GA1041+002409079GA2061+004209059MA1101691999999MW1681
0063010014999991990010514504+59800+005350FM-15+0049ENSO V0201401N00511004501CN0080001N1+00301+00201999999ADDAG12003GA1031+002409079GA2061+004509059MA1101801999999MW1211
0079010014999991990010516004+59800+005350FM-15+0049ENSO V0201301N00461003001CN0080001N1+00301+00201999999ADDAG12999GA1021+001809079GA2031+003009079GA3061+004509079MA1101801999999MW1591
0063010014999991990010517004+59800+005350FM-15+0049ENSO V0201301N00511004201CN0090001N1+00301+00201999999ADDAG12999GA1031+002409079GA2061+004209059MA1101801999999MW1211
0060010014999991990010805504+59800+005350FM-15+0049ENSO V0203001N00051220001CN0112001N1+00401+00101999999ADDAG12000GA1021+009009089MA1101691999999EQDQ01+000000PRSWM2
0060010014999991990010806504+59800+005350FM-15+0049ENSO V0202801N00101220001CN0112001N1+00501+00301999999ADDAG12999GA1021+007509089MA1101801999999EQDQ01+000000PRSWM2
0060010014999991990010808004+59800+005350FM-15+0049ENSO V0209991V00151220001CN0112001N1+00501+00301999999ADDAG12999GA1041+007509089MA1101801999999EQDQ01+000000PRSWM2
0060010014999991990010808504+59800+005350FM-15+0049ENSO V0202801N00311007501CN0112001N1+00601+00201999999ADDAG12000GA1051+007509089MA1101901999999EQDQ01+000000PRSWM2
0060010014999991990010810004+59800+005350FM-15+0049ENSO V0202801N00211220001CN0112001N1+00601+00201999999ADDAG12999GA1031+007509089MA1102001999999EQDQ01+000000PRSWM2
0060010014999991990010811004+59800+005350FM-15+0049ENSO V0202801N00361220001CN0112001N1+00601+00201999999ADDAG12999GA1041+007509089MA1102001999999EQDQ01+000000PRSWM2
0060010014999991990010814004+59800+005350FM-15+0049ENSO V0202601N00211220001CN0112001N1+00701+00301999999ADDAG12999GA1031+007509089MA1102101999999EQDQ01+000000PRSWM2
0076010014999991990010814504+59800+005350FM-15+0049ENSO V0202601N00361054001CN0112001N1+00701+00301999999ADDAG12000GA1021+007509089GA2041+054009019MA1102201999999EQDQ01+000000PRSWM2
0092010014999991990010816204+59800+005350FM-15+0049ENSO V0209991V00151054001CN0112001N1+00701+00301999999ADDAG12999GA1011+004509089GA2031+027009039GA3051+054009019MA1102201999999EQDQ01+000000PRSWM2
0076010014999991990010816504+59800+005350FM-15+0049ENSO V0202201N00261021001CN0112001N1+00701+00401999999ADDAG12999GA1021+005409089GA2051+021009039MA1102201999999EQDQ01+000000PRSWM2
0071010014999991990010907054+59800+005350FM-15+0049ENSO V0202201N00771002701CN0070001N1+00901+00801999999ADDAG12999GA1031+001509079GA2061+002709079MA1101081999999MW1631OC101541
0063010014999991990010908004+59800+005350FM-15+0049ENSO V0202501N00621007501CN0112001N1+00801+00401999999ADDAG12999GA1021+005409059GA2041+007509059MA1101191999999MW1211
0063010014999991990010908504+59800+005350FM-15+0049ENSO V0202601N00671007501CN0112001N1+00801+00401999999ADDAG12003GA1031+005409059GA2061+007509059MA1101191999999MW1211
0076010014999991990010909204+59800+005350FM-15+0049ENSO V0202701N00621007501CN0112001N1+00701+00201999999ADDAG12000GA1021+005409089GA2051+007509059MA1101291999999EQDQ01+000000PRSWM2
0063010014999991990010909254+59800+005350FM-15+0049ENSO V0202501N00621007501CN0112001N1+00801+00401999999ADDAG12003GA1021+005409059GA2041+007509059MA1101191999999MW1211
0063010014999991990010909504+59800+005350FM-15+0049ENSO V0202601N00671007501CN0112001N1+00801+00401999999ADDAG12999GA1031+005409059GA2061+007509059MA1101191999999MW1211
0076010014999991990010910104+59800+005350FM-15+0049ENSO V0202701N00621007501CN0112001N1+00701+00201999999ADDAG12999GA1021+005409089GA2051+007509059MA1101291999999EQDQ01+000000PRSWM2
0071010014999991990010911004+59800+005350FM-15+0049ENSO V0202801N00821006001CN0112001N1+00601+00001999999ADDAG12999GA1031+004509089GA2051+006009059MA1101391999999MW1211OC101341
0076010014999991990010911044+59800+005350FM-15+0049ENSO V0202701N00621007501CN0112001N1+00701+00201999999ADDAG12999GA1021+005409089GA2051+007509059MA1101291999999EQDQ01+000000PRSWM2
0071010014999991990010911484+59800+005350FM-15+0049ENSO V0202801N00821006001CN0112001N1+00601+00001999999ADDAG12003GA1031+004509089GA2051+006009059MA1101391999999MW1211OC101341
0084010014999991990010912004+59800+005350FM-15+0049ENSO V0202601N00721007501CN0112001N1+00701+00101999999ADDAG12000GA1031+004509089GA2051+007509059MA1101391999999OC101241EQDQ01+000000PRSWM2
0084010014999991990010912254+59800+005350FM-15+0049ENSO V0202601N00721007501CN0112001N1+00701+00101999999ADDAG12000GA1031+004509089GA2051+007509059MA1101391999999OC101241EQDQ01+000000PRSWM2
0100010014999991990010913004+59800+005350FM-15+0049ENSO V0202701N00821220001CN0112001N1+00601+00101999999ADDAG12999GA1011+003609099GA2031+004509089MA1101491999999MW1251REMMET028PAST MAX         ?     38KT?
0100010014999991990010913334+59800+005350FM-15+0049ENSO V0202701N00821220001CN0112001N1+00601+00101999999ADDAG12999GA1011+003609099GA2031+004509089MA1101491999999MW1251REMMET028PAST MAX         ?     38KT?
0063010014999991990010914004+59800+005350FM-15+0049ENSO V0202701N00771004501CN0080001N1+00701+00101999999ADDAG12999GA1021+003609099GA2041+004509089MA1101491999999MW1251
0063010014999991990010914304+59800+005350FM-15+0049ENSO V0202701N00771004501CN0080001N1+00701+00101999999ADDAG12001GA1021+003609099GA2041+004509089MA1101491999999MW1251
0071010014999991990010914504+59800+005350FM-15+0049ENSO V0209991V00461003601CN0050001N1+00401+00201999999ADDAG12001GA1051+003609099GA2041+005409089MA1101591999999MW1831OC101341
0063010014999991990010916004+59800+005350FM-15+0049ENSO V0202701N00511005401CN0112001N1+00601+00301999999ADDAG12999GA1021+003609099GA2041+005409089MA1101591999999MW1251
0076010014999991990010917004+59800+005350FM-15+0049ENSO V0202601N00771220001CN0112001N1+00601+00301999999ADDAG12999GA1011+003609099GA2041+005409089MA1101591999999EQDQ01+000000PRSWM2
0063010014999991990011008504+59800+005350FM-15+0049ENSO V0201601N00411004201CN0080001N1+00701+00601999999ADDAG12003GA1031+002409079GA2051+004209059MA1101081999999MW1211
0063010014999991990011009304+59800+005350FM-15+0049ENSO V0201601N00411004201CN0080001N1+00701+00601999999ADDAG12999GA1031+002409079GA2051+004209059MA1101081999999MW1211
0063010014999991990011009504+59800+005350FM-15+0049ENSO V0201601N00461004501CN0112001N1+00601+00501999999ADDAG12999GA1021+003009079GA2051+004509059MA1100911999999MW1211
0063010014999991990011011004+59800+005350FM-15+0049ENSO V0201701N00771004501CN0090001N1+00601+00401999999ADDAG12999GA1021+002409079GA2051+004509059MA1100711999999MW1601
0063010014999991990011011464+59800+005350FM-15+0049ENSO V0201701N00771004501CN0090001N1+00601+00401999999ADDAG12002GA1021+002409079GA2051+004509059MA1100711999999MW1601
0063010014999991990011011504+59800+005350FM-15+0049ENSO V0201601N00821003901CN0070001N1+00601+00501999999ADDAG12019GA1021+002409079GA2061+003909079MA1100511999999MW1631
0063010014999991990011013004+59800+005350FM-15+0049ENSO V0201501N00881003901CN0080001N1+00501+00401999999ADDAG12999GA1031+003009079GA2061+003909079MA1100101999999MW1611
0071010014999991990011014004+59800+005350FM-15+0049ENSO V0202601N01031005401CN0112001N1+00901+00701999999ADDAG12999GA1031+004209079GA2061+005409059MA1100001999999MW1211OC101541
0084010014999991990011016004+59800+005350FM-15+0049ENSO V0202801N00771007501CN0112001N1+00801+00401999999ADDAG12999GA1031+005409059GA2051+007509059MA1100201999999OC101291EQDQ01+000000PRSWM2
0100010014999991990011017004+59800+005350FM-15+0049ENSO V0202601N00571007501CN0112001N1+00901+00501999999ADDAG12999GA1011+003009099GA2031+005409089GA3051+007509059MA1100311999999OC101081EQDQ01+000000PRSWM2
0076010014999991990011107004+59800+005350FM-15+0049ENSO V0202301N00261009001CN0112001N1+00701+00301999999ADDAG12999GA1031+004509089GA2051+009009059MA1100611999999EQDQ01+000000PRSWM2
0076010014999991990011107504+59800+005350FM-15+0049ENSO V0202401N00361007501CN0112001N1+00701+00301999999ADDAG12999GA1031+004509089GA2051+007509059MA1100711999999EQDQ01+000000PRSWM2
0076010014999991990011108304+59800+005350FM-15+0049ENSO V0202401N00361007501CN0112001N1+00701+00301999999ADDAG12000GA1031+004509089GA2051+007509059MA1100711999999EQDQ01+000000PRSWM2
0079010014999991990011109504+59800+005350FM-15+0049ENSO V0202201N00151006001CN0112001N1+00701+00501999999ADDAG12999GA1011+002109079GA2031+003609059GA3051+006009059MA1100811999999MW1211
0079010014999991990011110204+59800+005350FM-15+0049ENSO V0202201N00151006001CN0112001N1+00701+00501999999ADDAG12999GA1011+002109079GA2031+003609059GA3051+006009059MA1100811999999MW1211
0092010014999991990011111004+59800+005350FM-15+0049ENSO V0200601N00151006001CN0112001N1+00501+00401999999ADDAG12999GA1011+003009079GA2031+004209059GA3051+006009059MA1100911999999EQDQ01+000000PRSWM2
0063010014999991990011112004+59800+005350FM-15+0049ENSO V0202101N00211021001CN0112001N1+00701+00601999999ADDAG12003GA1031+006009059GA2051+021009039MA1100911999999MW1211
0076010014999991990011113004+59800+005350FM-15+0049ENSO V0202301N00211012001CN0112001N1+00801+00701999999ADDAG12999GA1021+006009089GA2051+012009059MA1101021999999EQDQ01+000000PRSWM2
0092010014999991990011114004+59800+005350FM-15+0049ENSO V0202401N00261012001CN0112001N1+00701+00501999999ADDAG12999GA1011+003909079GA2031+006009089GA3051+012009059MA1101021999999EQDQ01+000000PRSWM2
0092010014999991990011115004+59800+005350FM-15+0049ENSO V0201701N00101013501CN0112001N1+00601+00401999999ADDAG12000GA1011+006009089GA2031+009009059GA3051+013509059MA1101021999999EQDQ01+000000PRSWM2
0092010014999991990011115504+59800+005350FM-15+0049ENSO V0201501N00261012001CN0112001N1+00701+00601999999ADDAG12999GA1011+003609079GA2031+006009059GA3061+012009059MA1101081999999EQDQ01+000000PRSWM2
0079010014999991990011117004+59800+005350FM-15+0049ENSO V0201501N00311009001CN0090001N1+00701+00601999999ADDAG12999GA1011+004509059GA2031+006009059GA3051+009009059MA1101021999999MW1621
0079010014999991990011117504+59800+005350FM-15+0049ENSO V0201301N00411012001CN0112001N1+00701+00601999999ADDAG12007GA1011+003009079GA2031+006009059GA3061+012009059MA1101021999999MW1611
0063010014999991990011206004+59800+005350FM-15+0049ENSO V0201901N00461004201CN0112001N1+00901+00701999999ADDAG11003GA1021+002709079GA2061+004209059MA1100911999999MW1211
0076010014999991990011207004+59800+005350FM-15+0049ENSO V0201901N00461004201CN0112001N1+00901+00701999999ADDAG12999GA1021+003009079GA2061+004209059MA1100911999999EQDQ01+000000PRSWM2
0084010014999991990011208004+59800+005350FM-15+0049ENSO V0201901N00771003901CN0112001N1+00901+00601999999ADDAG12999GA1021+003009079GA2061+003909079MA1100911999999OC101391EQDQ01+000000PRSWM2
0076010014999991990011209094+59800+005350FM-15+0049ENSO V0201801N00621005401CN0112001N1+00901+00601999999ADDAG12000GA1031+003009079GA2061+005409059MA1100911999999EQDQ01+000000PRSWM2
0076010014999991990011210004+59800+005350FM-15+0049ENSO V0201901N00721005401CN0112001N1+00901+00701999999ADDAG11999GA1031+003009079GA2061+005409059MA1101021999999EQDQ01+000000PRSWM2
0076010014999991990011211004+59800+005350FM-15+0049ENSO V0201901N00721004501CN0112001N1+00901+00701999999ADDAG12999GA1031+003009079GA2061+004509059MA1100911999999EQDQ01+000000PRSWM2
0076010014999991990011212004+59800+005350FM-15+0049ENSO V0201901N00671004201CN0112001N1+00901+00701999999ADDAG12000GA1031+003009079GA2061+004209079MA1101021999999EQDQ01+000000PRSWM2
0084010014999991990011213004+59800+005350FM-15+0049ENSO V0201901N00771003901CN0112001N1+00901+00701999999ADDAG12999GA1031+003009079GA2061+003909079MA1100911999999OC101341EQDQ01+000000PRSWM2
0084010014999991990011215004+59800+005350FM-15+0049ENSO V0201901N00621004201CN0112001N1+00901+00801999999ADDAG12000GA1031+002709079GA2061+004209079MA1100911999999OC101131EQDQ01+000000PRSWM2
0084010014999991990011216004+59800+005350FM-15+0049ENSO V0201901N00511003601CN0112001N1+00901+00701999999ADDAG12999GA1031+002709079GA2061+003609079MA1100911999999OC101031EQDQ01+000000PRSWM2
0076010014999991990011217004+59800+005350FM-15+0049ENSO V0202001N00461003901CN0112001N1+00901+00701999999ADDAG12999GA1031+002709079GA2061+003909079MA1100911999999EQDQ01+000000PRSWM2
0076010014999991990011506004+59800+005350FM-15+0049ENSO V0202501N00671006001CN0112001N1+00901+00701999999ADDAG12000GA1031+004509089GA2051+006009059MA1098821999999EQDQ01+000000PRSWM2
0071010014999991990011507004+59800+005350FM-15+0049ENSO V0202601N00621006001CN0112001N1+00901+00601999999ADDAG12999GA1031+004509089GA2051+006009059MA1098821999999MW1801OC101131
0063010014999991990011508004+59800+005350FM-15+0049ENSO V0202601N00721007501CN0112001N1+00901+00401999999ADDAG12999GA1031+004509089GA2051+007509059MA1098921999999MW1251
0084010014999991990011508504+59800+005350FM-15+0049ENSO V0202501N00771009001CN0112001N1+00901+00401999999ADDAG12000GA1031+005409089GA2051+009009059MA1098921999999OC101291EQDQ01+000000PRSWM2
0084010014999991990011509304+59800+005350FM-15+0049ENSO V0202501N00771009001CN0112001N1+00901+00401999999ADDAG12999GA1031+005409089GA2051+009009059MA1098921999999OC101291EQDQ01+000000PRSWM2
0063010014999991990011509314+59800+005350FM-15+0049ENSO V0202601N00721007501CN0112001N1+00901+00401999999ADDAG12999GA1031+004509089GA2051+007509059MA1098921999999MW1251
0084010014999991990011510004+59800+005350FM-15+0049ENSO V0202701N00931007501CN0112001N1+00901+00301999999ADDAG12999GA1031+005409089GA2051+007509059MA1099091999999OC101541EQDQ01+000000PRSWM2
0084010014999991990011510204+59800+005350FM-15+0049ENSO V0202701N00931007501CN0112001N1+00901+00301999999ADDAG12999GA1031+005409089GA2051+007509059MA1099091999999OC101541EQDQ01+000000PRSWM2
0087010014999991990011511004+59800+005350FM-15+0049ENSO V0202801N00821007501CN0112001N1+00901+00301999999ADDAG12999GA1021+003009079GA2021+003609099GA3041+007509089MA1099091999999MW1801OC101341
0063010014999991990011512004+59800+005350FM-15+0049ENSO V0202701N00771007501CN0080001N1+00801+00301999999ADDAG12004GA1021+003009099GA2051+007509089MA1099191999999MW1801
0071010014999991990011513004+59800+005350FM-15+0049ENSO V0202701N00821007501CN0112001N1+00901+00401999999ADDAG12999GA1021+003009099GA2051+007509089MA1099291999999MW1251OC101341
0071010014999991990011513434+59800+005350FM-15+0049ENSO V0202701N00821007501CN0112001N1+00901+00401999999ADDAG12999GA1021+003009099GA2051+007509089MA1099291999999MW1251OC101341
0055010014999991990011514004+59800+005350FM-15+0049ENSO V0202701N00821006001CN0112001N1+00901+00401999999ADDAG12999GA1061+006009089MA1099291999999MW1251OC101341
0055010014999991990011514414+59800+005350FM-15+0049ENSO V0202701N00821006001CN0112001N1+00901+00401999999ADDAG12001GA1061+006009089MA1099291999999MW1251OC101341
0063010014999991990011516004+59800+005350FM-15+0049ENSO V0202601N00821007501CN0112001N1+00901+00601999999ADDAG12999GA1021+004509089GA2051+007509089MA1099291999999MW1251
0063010014999991990011517004+59800+005350FM-15+0049ENSO V0202501N00511007501CN0112001N1+00801+00501999999ADDAG12999GA1021+004509089GA2051+007509089MA1099291999999MW1251
0087010014999991990011606004+59800+005350FM-15+0049ENSO V0203001N00721012001CN0112001N1+00701+00301999999ADDAG11001GA1011+003009079GA2031+006009089GA3051+012009059MA1099491999999MW1251OC101491
0100010014999991990011606304+59800+005350FM-15+0049ENSO V0203001N00621009001CN0112001N1+00801+00301999999ADDAG12999GA1011+003009079GA2031+006009089GA3051+009009059MA1099591999999OC101291EQDQ01+000000PRSWM2
0071010014999991990011608204+59800+005350FM-15+0049ENSO V0203101N00881006001CN0112001N1+00701+00301999999ADDAG12999GA1021+003609099GA2051+006009089MA1099801999999MW1811OC101751
0063010014999991990011608504+59800+005350FM-15+0049ENSO V0203201N00671006001CN0112001N1+00801+00401999999ADDAG12001GA1021+003609099GA2051+006009089MA1100001999999MW1251
0063010014999991990011609504+59800+005350FM-15+0049ENSO V0203201N00671006001CN0112001N1+00801+00401999999ADDAG12999GA1021+003609099GA2051+006009089MA1100001999999MW1251
0084010014999991990011610004+59800+005350FM-15+0049ENSO V0203101N00621006001CN0112001N1+00801+00401999999ADDAG12999GA1021+003609099GA2041+006009089MA1100001999999OC101131EQDQ01+000000PRSWM2
0076010014999991990011610504+59800+005350FM-15+0049ENSO V0203001N00411006001CN0112001N1+00801+00201999999ADDAG12999GA1021+003609099GA2051+006009089MA1100201999999EQDQ01+000000PRSWM2
0075010014999991990011611154+59800+005350FM-15+0049ENSO V0203101N00881006001CN0112001N1+00701+00301999999ADDAG12999GA1021+003609099GA2051+006009089MW1811OC101751EQDQ01+029473APOA  
0063010014999991990011612004+59800+005350FM-15+0049ENSO V0203201N00571006001CN0112001N1+00701+00301999999ADDAG12004GA1021+003609099GA2051+006009089MA1100311999999MW1801
0076010014999991990011612504+59800+005350FM-15+0049ENSO V0203001N00211030001CN0112001N1+00801+00301999999ADDAG12999GA1031+006009089GA2051+030009039MA1100311999999EQDQ01+000000PRSWM2
0063010014999991990011614004+59800+005350FM-15+0049ENSO V0202201N00261021001CN0112001N1+00801+00301999999ADDAG12999GA1031+006009089GA2051+021009039MA1100311999999MW1251
0076010014999991990011615124+59800+005350FM-15+0049ENSO V0201901N00151009001CN0112001N1+00701+00301999999ADDAG12000GA1011+005409089GA2051+009009089MA1100311999999EQDQ01+000000PRSWM2
0092010014999991990011615504+59800+005350FM-15+0049ENSO V0201601N00261024001CN0112001N1+00701+00501999999ADDAG12999GA1011+005409089GA2031+007509089GA3051+024009049MA1100311999999EQDQ01+000000PRSWM2
0076010014999991990011617004+59800+005350FM-15+0049ENSO V0201601N00411021001CN0112001N1+00701+00501999999ADDAG12999GA1031+007509089GA2061+021009039MA1100101999999EQDQ01+000000PRSWM2
0084010014999991990011706504+59800+005350FM-15+0049ENSO V0202301N00981008401CN0112001N1+00801+00101999999ADDAG12999GA1021+004509089GA2061+008409059MA1098101999999OC101751EQDQ01+000000PRSWM2
0084010014999991990011707214+59800+005350FM-15+0049ENSO V0202301N00981008401CN0112001N1+00801+00101999999ADDAG12999GA1021+004509089GA2061+008409059MA1098101999999OC101751EQDQ01+000000PRSWM2
0084010014999991990011708004+59800+005350FM-15+0049ENSO V0202301N01031009001CN0112001N1+00801+00201999999ADDAG12999GA1021+004509089GA2061+009009059MA1098001999999OC101601EQDQ01+000000PRSWM2
0071010014999991990011709004+59800+005350FM-15+0049ENSO V0202301N01341007501CN0112001N1+00801+00201999999ADDAG12004GA1021+005409089GA2061+007509059MA1097901999999MW1801OC101961
0071010014999991990011709504+59800+005350FM-15+0049ENSO V0202301N01341007501CN0112001N1+00801+00201999999ADDAG12999GA1021+005409089GA2061+007509059MA1097901999999MW1801OC101961
0108010014999991990011710004+59800+005350FM-15+0049ENSO V0202501N01131006001CN0112001N1+00701+00301999999ADDAG12999GA1021+005409089GA2061+006009059MA1097901999999MW1251OC101801REMMET028PAST MAX         ?     40KT?
0108010014999991990011710304+59800+005350FM-15+0049ENSO V0202501N01131006001CN0112001N1+00701+00301999999ADDAG12999GA1021+005409089GA2061+006009059MA1097901999999MW1251OC101801REMMET028PAST MAX         ?     40KT?
0108010014999991990011711004+59800+005350FM-15+0049ENSO V0202501N00981006001CN0112001N1+00601+00301999999ADDAG12999GA1021+003609099GA2051+006009089MA1097901999999MW1251OC101491REMMET028PAST MAX         ?     35KT?
0108010014999991990011712004+59800+005350FM-15+0049ENSO V0202501N00931006001CN0112001N1+00601+00301999999ADDAG12004GA1031+003609099GA2061+006009089MA1097901999999MW1801OC101541REMMET028PAST MAX         ?     37KT?
0071010014999991990011713004+59800+005350FM-15+0049ENSO V0202601N00881005401CN0090001N1+00701+00501999999ADDAG12999GA1031+003609099GA2061+005409089MA1097901999999MW1251OC101541
0071010014999991990011713534+59800+005350FM-15+0049ENSO V0202601N00881005401CN0090001N1+00701+00501999999ADDAG12999GA1031+003609099GA2061+005409089MA1097901999999MW1251OC101541
0071010014999991990011714004+59800+005350FM-15+0049ENSO V0202701N01081005401CN0112001N1+00601+00201999999ADDAG12999GA1031+003609099GA2051+005409089MA1097901999999MW1251OC101751
0108010014999991990011714504+59800+005350FM-15+0049ENSO V0202801N00721005401CN0112001N1+00801+00501999999ADDAG12001GA1021+003609099GA2051+005409089MA1098001999999MW1251OC101541REMMET028PAST MAX         ?     35KT?
0108010014999991990011716004+59800+005350FM-15+0049ENSO V0202801N00931006001CN0112001N1+00701+00301999999ADDAG12999GA1021+004509099GA2051+006009089MA1098211999999MW1801OC101651REMMET028PAST MAX         ?     40KT?
0084010014999991990011806004+59800+005350FM-15+0049ENSO V0202801N00881007501CN0112001N1+00601+00101999999ADDAG11000GA1021+004509099GA2051+007509089MA1099591999999OC101961EQDQ01+000000PRSWM2
0084010014999991990011807094+59800+005350FM-15+0049ENSO V0203101N00671220001CN0112001N1+00601+00101999999ADDAG12999GA1011+004509099GA2041+006009089MA1099701999999OC101181EQDQ01+000000PRSWM2
0084010014999991990011807254+59800+005350FM-15+0049ENSO V0203101N00671220001CN0112001N1+00601+00101999999ADDAG12999GA1011+004509099GA2041+006009089MA1099701999999OC101181EQDQ01+000000PRSWM2
0071010014999991990011808004+59800+005350FM-15+0049ENSO V0203001N00671006001CN0112001N1+00501+00101999999ADDAG12999GA1021+004509099GA2051+006009089MA1099801999999MW1801OC101701
0087010014999991990011809004+59800+005350FM-15+0049ENSO V0203001N00461006001CN0112001N1+00401+00101999999ADDAG12001GA1011+003609079GA2021+004509099GA3051+006009089MA1099901999999MW1251OC100981
0071010014999991990011810004+59800+005350FM-15+0049ENSO V0202801N00411006001CN0112001N1+00601+00201999999ADDAG12999GA1021+004509099GA2051+006009089MA1100101999999MW1251OC100931
0063010014999991990011811134+59800+005350FM-15+0049ENSO V0203101N00771006001CN0112001N1+00501+00201999999ADDAG12999GA1031+004509099GA2051+006009089MA1100201999999MW1871
0063010014999991990011811304+59800+005350FM-15+0049ENSO V0203101N00771006001CN0112001N1+00501+00201999999ADDAG12001GA1031+004509099GA2051+006009089MA1100201999999MW1871
0071010014999991990011812004+59800+005350FM-15+0049ENSO V0202901N00571006001CN0112001N1+00601+00001999999ADDAG12002GA1031+003609099GA2051+006009089MA1100311999999MW1271OC101291
0063010014999991990011814004+59800+005350FM-15+0049ENSO V0209991V00361005401CN0112001N1+00501+00301999999ADDAG12999GA1021+003609099GA2061+005409059MA1100411999999MW1271
0063010014999991990011814304+59800+005350FM-15+0049ENSO V0209991V00361005401CN0112001N1+00501+00301999999ADDAG12002GA1021+003609099GA2061+005409059MA1100411999999MW1271
0063010014999991990011815004+59800+005350FM-15+0049ENSO V0209991V00621007501CN0112001N1+00501+00201999999ADDAG12001GA1021+003609099GA2051+007509089MA1100411999999MW1251
0087010014999991990011815504+59800+005350FM-15+0049ENSO V0209991V00411005401CN0070001N1+00601+00101999999ADDAG12999GA1021+003609099GA2031+005409089GA3051+007509059MA1100611999999MW1961OC101181
0063010014999991990011816504+59800+005350FM-15+0049ENSO V0203401N00311005401CN0090001N1+00301+00201999999ADDAG12999GA1031+003609099GA2051+005409059MA1100711999999MW1871
0071010014999991990011905504+59800+005350FM-15+0049ENSO V0201601N00821007501CN0112001N1+00601+00201999999ADDAG12003GA1031+005409059GA2061+007509059MA1100311999999MW1581OC101341
0087010014999991990011907004+59800+005350FM-15+0049ENSO V0201601N00821005401CN0090001N1+00501+00301999999ADDAG11999GA1021+003009079GA2031+005409059GA3061+009009059MA1100201999999MW1611OC101391
0063010014999991990011908004+59800+005350FM-15+0049ENSO V0201601N00931005101CN0090001N1+00601+00501999999ADDAG12999GA1031+003009079GA2061+005109059MA1100001999999MW1611
0071010014999991990011909324+59800+005350FM-15+0049ENSO V0201601N00771003601CN0060001N1+00601+00601999999ADDAG12999GA1031+003009079GA2061+003609079MA1099801999999MW1621OC101441
0071010014999991990011909504+59800+005350FM-15+0049ENSO V0201701N00931004501CN0070001N1+99999+99999999999ADDAG12999GA1031+003009079GA2061+004509079MA1099591999999MW1631OC101491
0063010014999991990011910204+59800+005350FM-15+0049ENSO V0201801N01081004501CN0070001N1+00601+00401999999ADDAG11999GA1031+002409079GA2061+004509059MA1099491999999MW1611
0071010014999991990011911504+59800+005350FM-15+0049ENSO V0201901N00771003601CN0070001N1+00601+00501999999ADDAG12007GA1031+002109079GA2061+003609079MA1099091999999MW1611OC101341
0100010014999991990011914504+59800+005350FM-15+0049ENSO V0202601N00621008401CN0112001N1+00701+00201999999ADDAG12000GA1031+004509089GA2031+008409059GA3051+015009059MA1099191999999OC101131EQDQ01+000000PRSWM2
0060010014999991990011915304+59800+005350FM-15+0049ENSO V0202601N00671220001CN0112001N1+00701-00101999999ADDAG12999GA1041+006009089MA1099291999999EQDQ01+000000PRSWM2
0063010014999991990011917174+59800+005350FM-15+0049ENSO V0202501N00571005401CN0090001N1+00601-00101999999ADDAG12999GA1021+004509099GA2051+005409089MA1099391999999MW1871
0079010014999991990012207004+59800+005350FM-15+0049ENSO V0201801N00621003001CN0080001N1+00901+00801999999ADDAG12999GA1011+000909079GA2041+001809079GA3061+003009079MA1100411999999MW1621
0079010014999991990012208004+59800+005350FM-15+0049ENSO V0201801N00511002101CN0050001N1+00901+00801999999ADDAG12999GA1011+000309079GA2041+001209079GA3071+002109079MA1100311999999MW1631
0063010014999991990012208504+59800+005350FM-15+0049ENSO V0201901N00771002101CN0090001N1+00901+00801999999ADDAG12007GA1031+000909079GA2061+002109079MA1100311999999MW1611
0063010014999991990012209004+59800+005350FM-15+0049ENSO V0201901N00771002101CN0090001N1+00901+00801999999ADDAG12007GA1031+000909079GA2061+002109079MA1100311999999MW1611
0071010014999991990012210004+59800+005350FM-15+0049ENSO V0209991V00461002401CN0090001N1+00901+00801999999ADDAG12999GA1031+001209079GA2061+002409079MA1100411999999MW1211OC100981
0076010014999991990012214004+59800+005350FM-15+0049ENSO V0202101N00511021001CN0112001N1+00801+00401999999ADDAG12999GA1031+004509089GA2031+021009039MA1100611999999EQDQ01+000000PRSWM2
0076010014999991990012214514+59800+005350FM-15+0049ENSO V0202101N00511021001CN0112001N1+00801+00401999999ADDAG12000GA1031+004509089GA2031+021009039MA1100611999999EQDQ01+000000PRSWM2
0060010014999991990012215004+59800+005350FM-15+0049ENSO V0202001N00411005401CN0112001N1+00801+00401999999ADDAG12000GA1051+005409089MA1100611999999EQDQ01+000000PRSWM2
0076010014999991990012215504+59800+005350FM-15+0049ENSO V0202001N00461005401CN0112001N1+00701+00401999999ADDAG12999GA1011+003609099GA2051+005409089MA1100611999999EQDQ01+000000PRSWM2
0076010014999991990012217004+59800+005350FM-15+0049ENSO V0202001N00411004501CN0112001N1+00701+00301999999ADDAG12999GA1011+003609099GA2051+004509089MA1100611999999EQDQ01+000000PRSWM2
0063010014999991990012219004+59800+005350FM-15+0049ENSO V0202201N00461220001CN0112001N1+00701+00501999999ADDAG12999GA1011+003009079GA2031+004509089MA1100711999999MW1251
0087010014999991990012306504+59800+005350FM-15+0049ENSO V0201601N00771004501CN0070001N1+00701+00501999999ADDAG12999GA1021+003009079GA2031+004509089GA3061+006009059MA1099391999999MW1621OC101291
0087010014999991990012307004+59800+005350FM-15+0049ENSO V0201601N00771004501CN0070001N1+00701+00501999999ADDAG12999GA1021+003009079GA2031+004509089GA3061+006009059MA1099391999999MW1621OC101291
0071010014999991990012307504+59800+005350FM-15+0049ENSO V0201601N00981004501CN0070001N1+00701+00501999999ADDAG12999GA1031+003009079GA2061+004509059MA1099191999999MW1631OC101491
0071010014999991990012308144+59800+005350FM-15+0049ENSO V0201601N00981004501CN0070001N1+00701+00501999999ADDAG12999GA1031+003009079GA2061+004509059MA1099191999999MW1631OC101491
0071010014999991990012309004+59800+005350FM-15+0049ENSO V0201701N00931004501CN0080001N1+00701+00501999999ADDAG12004GA1031+003009079GA2061+004509089MA1099091999999MW1801OC101801
0071010014999991990012310004+59800+005350FM-15+0049ENSO V0201701N00771004501CN0080001N1+00701+00601999999ADDAG12999GA1031+003009079GA2061+004509059MA1098921999999MW1621OC101291
0071010014999991990012311194+59800+005350FM-15+0049ENSO V0201501N00771004501CN0080001N1+00701+00601999999ADDAG12999GA1031+003009079GA2061+004509059MA1098611999999MW1621OC101291
0071010014999991990012311204+59800+005350FM-15+0049ENSO V0201501N00771004501CN0080001N1+00701+00601999999ADDAG12999GA1031+003009079GA2061+004509059MA1098611999999MW1621OC101291
0071010014999991990012312004+59800+005350FM-15+0049ENSO V0201601N00771005401CN0112001N1+00601+00501999999ADDAG12007GA1031+003009079GA2061+005409059MA1098411999999MW1621OC101291
0071010014999991990012314004+59800+005350FM-15+0049ENSO V0209991V00821003601CN0080001N1+00501+00301999999ADDAG12999GA1031+002109079GA2061+003609079MA1098101999999MW1631OC101601
0071010014999991990012314304+59800+005350FM-15+0049ENSO V0209991V00821003601CN0080001N1+00501+00301999999ADDAG12019GA1031+002109079GA2061+003609079MA1098101999999MW1631OC101601
0063010014999991990012315004+59800+005350FM-15+0049ENSO V0209991V00151007501CN0112001N1+00401+00201999999ADDAG12003GA1011+003009079GA2061+007509059MA1098211999999MW1211
0076010014999991990012316004+59800+005350FM-15+0049ENSO V0201101N00151004801CN0112001N1+00401+00301999999ADDAG12999GA1011+003609079GA2051+004809089MA1098211999999EQDQ01+000000PRSWM2
0076010014999991990012317004+59800+005350FM-15+0049ENSO V0201501N00361004501CN0112001N1+00401+00101999999ADDAG12999GA1011+003609079GA2051+004509089MA1098211999999EQDQ01+000000PRSWM2
0076010014999991990012407124+59800+005350FM-15+0049ENSO V0202301N00101220001CN0112001N1+00301+00201999999ADDAG12999GA1011+003609099GA2041+007509059MA1098001999999EQDQ01+000000PRSWM2
0076010014999991990012407204+59800+005350FM-15+0049ENSO V0202301N00101220001CN0112001N1+00301+00201999999ADDAG12999GA1011+003609099GA2041+007509059MA1098001999999EQDQ01+000000PRSWM2
0047010014999991990012408004+59800+005350FM-15+0049ENSO V0202101N00211001201CN0012001N1+00101+00001999999ADDAG12999GA1091+001209999MA1098101999999MW1711
0063010014999991990012408504+59800+005350FM-15+0049ENSO V0209991V00311002401CN0070001N1+00201+00201999999ADDAG12006GA1031+001209079GA2051+002409079MA1098101999999MW1681
0063010014999991990012409394+59800+005350FM-15+0049ENSO V0209991V00311002401CN0070001N1+00201+00201999999ADDAG12999GA1031+001209079GA2051+002409079MA1098101999999MW1681
0079010014999991990012410004+59800+005350FM-15+0049ENSO V0202101N00151004501CN0112001N1+00201+00201999999ADDAG12999GA1021+001209079GA2031+004509059GA3051+012009059MA1098211999999MW1231
0092010014999991990012411004+59800+005350FM-15+0049ENSO V0202501N00051018001CN0112001N1+00201+00201999999ADDAG12999GA1011+003009079GA2031+004509089GA3051+018009039MA1098211999999EQDQ01+000000PRSWM2
0092010014999991990012411504+59800+005350FM-15+0049ENSO V0200501N00101009001CN0112001N1+00201+00101999999ADDAG12000GA1011+003609099GA2031+004509089GA3051+009009059MA1098211999999EQDQ01+000000PRSWM2
0063010014999991990012413004+59800+005350FM-15+0049ENSO V0202101N00211007501CN0112001N1+00301+00201999999ADDAG12999GA1021+004509099GA2061+007509089MA1098311999999MW1831
0063010014999991990012414204+59800+005350FM-15+0049ENSO V0202101N00261006601CN0112001N1+00301+00101999999ADDAG12999GA1021+004509099GA2061+006609089MA1098311999999MW1831
0063010014999991990012414434+59800+005350FM-15+0049ENSO V0202101N00261006601CN0112001N1+00301+00101999999ADDAG12001GA1021+004509099GA2061+006609089MA1098311999999MW1831
0071010014999991990012415004+59800+005350FM-15+0049ENSO V0202301N00461006001CN0112001N1+00301-00101999999ADDAG12001GA1031+004509099GA2061+006009089MA1098311999999MW1831OC100981
0063010014999991990012415304+59800+005350FM-15+0049ENSO V0202301N00411006001CN0112001N1+00301-00101999999ADDAG12999GA1031+004509099GA2051+006009089MA1098311999999MW1271
0063010014999991990012417004+59800+005350FM-15+0049ENSO V0202301N00361006001CN0112001N1+00401+00001999999ADDAG12999GA1021+004509099GA2051+006009089MA1098311999999MW1831
0076010014999991990012505504+59800+005350FM-15+0049ENSO V0201401N00151220001CN0112001N1+00301+00201999999ADDAG12000GA1011+003009079GA2031+004509099MA1098311999999EQDQ01+000000PRSWM2
0076010014999991990012506504+59800+005350FM-15+0049ENSO V0201501N00511220001CN0112001N1+00301+00201999999ADDAG12999GA1011+003009079GA2031+003609099MA1098311999999EQDQ01+000000PRSWM2
0076010014999991990012507004+59800+005350FM-15+0049ENSO V0201501N00511220001CN0112001N1+00301+00201999999ADDAG12999GA1011+003009079GA2031+003609099MA1098311999999EQDQ01+000000PRSWM2
0076010014999991990012507504+59800+005350FM-15+0049ENSO V0201501N00361005401CN0112001N1+00301+00201999999ADDAG12999GA1021+003609099GA2031+005409089MA1098311999999EQDQ01+000000PRSWM2
0076010014999991990012508004+59800+005350FM-15+0049ENSO V0201501N00361005401CN0112001N1+00301+00201999999ADDAG12999GA1021+003609099GA2031+005409089MA1098311999999EQDQ01+000000PRSWM2
0060010014999991990012509154+59800+005350FM-15+0049ENSO V0201501N00411220001CN0112001N1+00301+00101999999ADDAG12000GA1031+004509099MA1098211999999EQDQ01+000000PRSWM2
0076010014999991990012509504+59800+005350FM-15+0049ENSO V0201501N00571006001CN0112001N1+00301+00101999999ADDAG12999GA1021+004509099GA2041+006009089MA1098211999999EQDQ01+000000PRSWM2
0076010014999991990012510004+59800+005350FM-15+0049ENSO V0201401N00511220001CN0112001N1+00301+00001999999ADDAG12999GA1021+004509099GA2021+006009089MA1098101999999EQDQ01+000000PRSWM2
0076010014999991990012511004+59800+005350FM-15+0049ENSO V0201401N00511220001CN0112001N1+00301+00001999999ADDAG12999GA1021+004509099GA2021+006009089MA1098101999999EQDQ01+000000PRSWM2
0076010014999991990012512204+59800+005350FM-15+0049ENSO V0201201N00571220001CN0112001N1+00301-00101999999ADDAG12000GA1011+004509099GA2011+006009089MA1097901999999EQDQ01+000000PRSWM2
0092010014999991990012513004+59800+005350FM-15+0049ENSO V0201101N00571060001CN0112001N1+00401-00201999999ADDAG12999GA1011+004509089GA2031+018009039GA3061+060009029MA1097701999999EQDQ01+000000PRSWM2
0076010014999991990012515004+59800+005350FM-15+0049ENSO V0201101N00881033001CN0112001N1+00401-00501999999ADDAG12000GA1011+009009059GA2061+033009049MA1097191999999EQDQ01+000000PRSWM2
0084010014999991990012516504+59800+005350FM-15+0049ENSO V0200901N00981024001CN0112001N1+00401-00501999999ADDAG12999GA1011+009009059GA2061+024009049MA1096821999999OC101651EQDQ01+000000PRSWM2
0063010014999991990012606504+59800+005350FM-15+0049ENSO V0200401N00051018001CN0090001N1+00201+00001999999ADDAG12999GA1031+006009059GA2061+018009039MA1096111999999MW1701
0063010014999991990012607004+59800+005350FM-15+0049ENSO V0200401N00051018001CN0090001N1+00201+00001999999ADDAG12999GA1031+006009059GA2061+018009039MA1096111999999MW1701
0063010014999991990012608004+59800+005350FM-15+0049ENSO V0209991C00001024001CN0112001N1+00201+00101999999ADDAG12999GA1031+007509059GA2061+024009039MA1096211999999MW1221
0092010014999991990012609004+59800+005350FM-15+0049ENSO V0200101N00051027001CN0112001N1+00201+00101999999ADDAG12000GA1011+004509089GA2031+009009059GA3061+027009039MA1096311999999EQDQ01+000000PRSWM2
0076010014999991990012610274+59800+005350FM-15+0049ENSO V0209991C00001007501CN0112001N1+00201+00101999999ADDAG12999GA1021+003609089GA2051+007509059MA1096511999999EQDQ01+000000PRSWM2
0063010014999991990012612004+59800+005350FM-15+0049ENSO V0202601N00151004501CN0112001N1+00301+00201999999ADDAG12003GA1021+003009079GA2061+004509059MA1096721999999MW1581
0063010014999991990012612484+59800+005350FM-15+0049ENSO V0202601N00151004501CN0112001N1+00301+00201999999ADDAG12999GA1021+003009079GA2061+004509059MA1096721999999MW1581
0063010014999991990012613004+59800+005350FM-15+0049ENSO V0201401N00051004501CN0112001N1+00301+00201999999ADDAG12999GA1031+003009079GA2061+004509059MA1096721999999MW1581
0063010014999991990012613504+59800+005350FM-15+0049ENSO V0201401N00051004501CN0112001N1+00301+00201999999ADDAG12999GA1031+003009079GA2061+004509059MA1096721999999MW1581
0063010014999991990012614004+59800+005350FM-15+0049ENSO V0201701N00261003601CN0112001N1+00201+00201999999ADDAG12999GA1031+002109079GA2061+003609079MA1096821999999MW1581
0063010014999991990012615004+59800+005350FM-15+0049ENSO V0201701N00261003601CN0080001N1+00201+00201999999ADDAG12006GA1031+002109079GA2061+003609079MA1096881999999MW1681
0063010014999991990012616004+59800+005350FM-15+0049ENSO V0201601N00261003001CN0080001N1+00201+00201999999ADDAG12999GA1031+001809079GA2061+003009079MA1096991999999MW1231
0063010014999991990012617154+59800+005350FM-15+0049ENSO V0201501N00311003001CN0080001N1+00201+00201999999ADDAG12999GA1031+001809079GA2061+003009079MA1097091999999MW1231
0063010014999991990012907004+59800+005350FM-15+0049ENSO V0203601N00051220001CN0112001N1+00401+00301999999ADDAG12999GA1011+004509089GA2041+012009059MA1098611999999MW1251
0063010014999991990012908004+59800+005350FM-15+0049ENSO V0209991V00051007501CN0112001N1+00401+00301999999ADDAG12999GA1021+004509089GA2051+007509059MA1098711999999MW1251
0063010014999991990012909124+59800+005350FM-15+0049ENSO V0201701N00101007501CN0112001N1+00401+00301999999ADDAG12001GA1021+004509089GA2041+007509059MA1098821999999MW1251
0079010014999991990012910004+59800+005350FM-15+0049ENSO V0202201N00261006001CN0112001N1+00501+00301999999ADDAG12999GA1021+003609099GA2021+004509089GA3041+006009059MA1098921999999MW1251
0079010014999991990012910204+59800+005350FM-15+0049ENSO V0202201N00261006001CN0112001N1+00501+00301999999ADDAG12999GA1021+003609099GA2021+004509089GA3041+006009059MA1098921999999MW1251
0076010014999991990012910504+59800+005350FM-15+0049ENSO V0201801N00261006001CN0112001N1+00601+00201999999ADDAG12999GA1021+003609099GA2051+006009089MA1098981999999EQDQ01+000000PRSWM2
0076010014999991990012911304+59800+005350FM-15+0049ENSO V0201801N00261006001CN0112001N1+00601+00201999999ADDAG12000GA1021+003609099GA2051+006009089MA1098981999999EQDQ01+000000PRSWM2
0076010014999991990012912004+59800+005350FM-15+0049ENSO V0201701N00361006001CN0112001N1+00601+00201999999ADDAG12000GA1021+003609099GA2051+006009089MA1098981999999EQDQ01+000000PRSWM2
0079010014999991990012913004+59800+005350FM-15+0049ENSO V0201501N00261006001CN0112001N1+00401+00201999999ADDAG12999GA1031+003609099GA2031+006009089GA3051+054009029MA1099091999999MW1251
0076010014999991990012914004+59800+005350FM-15+0049ENSO V0201601N00311054001CN0112001N1+00501+00301999999ADDAG12999GA1031+005409089GA2041+054009029MA1099091999999EQDQ01+000000PRSWM2
0076010014999991990012914184+59800+005350FM-15+0049ENSO V0201601N00311054001CN0112001N1+00501+00301999999ADDAG12999GA1031+005409089GA2041+054009029MA1099091999999EQDQ01+000000PRSWM2
0092010014999991990012914504+59800+005350FM-15+0049ENSO V0201501N00461054001CN0112001N1+00501+00201999999ADDAG12000GA1021+005409089GA2031+015009049GA3061+054009029MA1099091999999EQDQ01+000000PRSWM2
0076010014999991990012916004+59800+005350FM-15+0049ENSO V0201501N00671018001CN0112001N1+00501+00201999999ADDAG12999GA1021+004209089GA2061+018009049MA1099091999999EQDQ01+000000PRSWM2
0063010014999991990013007004+59800+005350FM-15+0049ENSO V0201401N00671007501CN0090001N1+00601+00401999999ADDAG11999GA1031+003609079GA2061+007509059MA1098511999999MW1611
0063010014999991990013007504+59800+005350FM-15+0049ENSO V0201401N00721007501CN0112001N1+00601+00401999999ADDAG12999GA1031+003609079GA2061+007509059MA1098511999999MW1591
0079010014999991990013009504+59800+005350FM-15+0049ENSO V0201401N00771006001CN0112001N1+00601+00401999999ADDAG12999GA1011+002409079GA2031+003609079GA3061+006009059MA1098511999999MW1591
0079010014999991990013010134+59800+005350FM-15+0049ENSO V0201401N00771006001CN0112001N1+00601+00401999999ADDAG12999GA1011+002409079GA2031+003609079GA3061+006009059MA1098511999999MW1591
0063010014999991990013012004+59800+005350FM-15+0049ENSO V0201401N00881007501CN0112001N1+00601+00301999999ADDAG11014GA1031+004509079GA2061+007509059MA1098511999999MW1591
0063010014999991990013012314+59800+005350FM-15+0049ENSO V0201401N00881007501CN0112001N1+00601+00301999999ADDAG12999GA1031+004509079GA2061+007509059MA1098511999999MW1591
0063010014999991990013013004+59800+005350FM-15+0049ENSO V0201501N00821007501CN0112001N1+00701+00401999999ADDAG11999GA1031+004509079GA2061+007509059MA1098511999999MW1601
0063010014999991990013014004+59800+005350FM-15+0049ENSO V0201301N00721007501CN0112001N1+00601+00301999999ADDAG11999GA1031+005409059GA2061+007509059MA1098411999999MW1211
0063010014999991990013015004+59800+005350FM-15+0049ENSO V0201201N00721006901CN0112001N1+00701+00401999999ADDAG11002GA1031+004509059GA2061+006909059MA1098411999999MW1601
0063010014999991990013016004+59800+005350FM-15+0049ENSO V0201401N00771006001CN0112001N1+00601+00401999999ADDAG12999GA1031+004209079GA2061+006009059MA1098411999999MW1591
0063010014999991990013017004+59800+005350FM-15+0049ENSO V0201301N00571005401CN0112001N1+00601+00401999999ADDAG12999GA1031+004209079GA2061+005409059MA1098411999999MW1601
0079010014999991990013106504+59800+005350FM-15+0049ENSO V0201501N01031006001CN0070001N1+00701+00501999999ADDAG12999GA1011+002409079GA2031+003009079GA3061+006009059MA1098001999999MW1631
0079010014999991990013107004+59800+005350FM-15+0049ENSO V0201501N01031006001CN0070001N1+00701+00501999999ADDAG12999GA1011+002409079GA2031+003009079GA3061+006009059MA1098001999999MW1631
0071010014999991990013108004+59800+005350FM-15+0049ENSO V0201601N00821005401CN0080001N1+00801+00801999999ADDAG12999GA1031+003009079GA2061+005409059MA1097901999999MW1211OC101341
0071010014999991990013109004+59800+005350FM-15+0049ENSO V0201701N00821005101CN0112001N1+00801+00701999999ADDAG12003GA1031+003009079GA2061+005109059MA1098001999999MW1211OC101341
0071010014999991990013109204+59800+005350FM-15+0049ENSO V0201701N00821005101CN0112001N1+00801+00701999999ADDAG12003GA1031+003009079GA2061+005109059MA1098001999999MW1211OC101341
0071010014999991990013110004+59800+005350FM-15+0049ENSO V0209991V00671003601CN0040001N1+00501+00201999999ADDAG12999GA1031+002409099GA2061+003609059MA1098101999999MW1961OC101341
0071010014999991990013111004+59800+005350FM-15+0049ENSO V0209991V00671003601CN0040001N1+00501+00201999999ADDAG12999GA1031+002409099GA2061+003609059MA1098101999999MW1961OC101341
0085010014999991990013111204+59800+005350FM-15+0049ENSO V0201801N01131004501CN0112001N1+99999+99999999999ADDAG12999GA1021+003009099GA2031+004509089GA3061+005409059MW1291OC101651REMMET00409!?
0071010014999991990013112004+59800+005350FM-15+0049ENSO V0201701N00931005401CN0112001N1+00901+00601999999ADDAG12001GA1011+003609099GA2051+005409089MA1098211999999MW1251OC101491
0084010014999991990013112504+59800+005350FM-15+0049ENSO V0201901N00821006001CN0112001N1+00901+00501999999ADDAG12999GA1031+004209089GA2061+006009089MA1098211999999OC101441EQDQ01+000000PRSWM2
0087010014999991990013116094+59800+005350FM-15+0049ENSO V0201701N00671005401CN0112001N1+00801+00601999999ADDAG12999GA1011+003609099GA2031+004509089GA3051+005409059MA1098211999999MW1271OC101181
0076010014999991990013116504+59800+005350FM-15+0049ENSO V0201701N00671005401CN0112001N1+00801+00601999999ADDAG12999GA1031+004209089GA2061+005409059MA1098211999999EQDQ01+000000PRSWM2
0071010014999991990020106504+59800+005350FM-15+0049ENSO V0201601N00881005401CN0112001N1+00801+00501999999ADDAG12999GA1011+003609099GA2061+005409089MA1098411999999MW1251OC101541
0087010014999991990020108004+59800+005350FM-15+0049ENSO V0201701N00981006601CN0112001N1+00801+00501999999ADDAG12999GA1011+003009079GA2031+003909089GA3061+006609059MA1098511999999MW1251OC101801
0087010014999991990020108304+59800+005350FM-15+0049ENSO V0201701N00981006601CN0112001N1+00801+00501999999ADDAG12001GA1011+003009079GA2031+003909089GA3061+006609059MA1098511999999MW1251OC101801
0071010014999991990020109004+59800+005350FM-15+0049ENSO V0201701N00881004501CN0112001N1+00801+00401999999ADDAG12001GA1011+003609099GA2051+004509089MA1098511999999MW1251OC101541
0071010014999991990020109204+59800+005350FM-15+0049ENSO V0201701N00881004501CN0112001N1+00801+00401999999ADDAG12001GA1011+003609099GA2051+004509089MA1098511999999MW1251OC101541
0071010014999991990020109504+59800+005350FM-15+0049ENSO V0201701N00881004501CN0112001N1+00801+00401999999ADDAG12999GA1021+003609099GA2051+004509089MA1098611999999MW1251OC101441
0071010014999991990020111004+59800+005350FM-15+0049ENSO V0201701N00931005401CN0112001N1+00801+00401999999ADDAG12999GA1021+003609099GA2051+005409089MA1098711999999MW1251OC101701
0071010014999991990020112004+59800+005350FM-15+0049ENSO V0201901N00931005401CN0112001N1+00701+00501999999ADDAG12004GA1021+003609099GA2061+005409089MA1098821999999MW1801OC101801
0071010014999991990020113004+59800+005350FM-15+0049ENSO V0201901N00931005401CN0112001N1+00701+00501999999ADDAG12999GA1021+003609099GA2061+005409089MA1098821999999MW1801OC101801
0071010014999991990020113504+59800+005350FM-15+0049ENSO V0201901N00721005401CN0112001N1+00801+00401999999ADDAG12999GA1031+004209079GA2061+005409089MA1098981999999MW1251OC101241
0071010014999991990020115004+59800+005350FM-15+0049ENSO V0201801N00671006001CN0112001N1+00801+00401999999ADDAG12001GA1021+004209079GA2051+006009089MA1098981999999MW1251OC101241
0079010014999991990020115504+59800+005350FM-15+0049ENSO V0201901N00571005401CN0112001N1+00701+00401999999ADDAG12999GA1011+003009079GA2021+003909099GA3051+005409089MA1099091999999MW1251
0079010014999991990020116504+59800+005350FM-15+0049ENSO V0201901N00511005401CN0112001N1+00701+00501999999ADDAG12999GA1011+003009079GA2031+003909099GA3051+005409089MA1099191999999MW1801
0087010014999991990020206004+59800+005350FM-15+0049ENSO V0201401N00771005401CN0112001N1+00701+00501999999ADDAG12002GA1021+003009079GA2041+005409059GA3061+006009059MA1098311999999MW1601OC101341
0087010014999991990020207004+59800+005350FM-15+0049ENSO V0201501N00931004501CN0112001N1+00701+00501999999ADDAG12999GA1021+003009079GA2041+004509059GA3061+006009059MA1098311999999MW1611OC101441
0087010014999991990020207504+59800+005350FM-15+0049ENSO V0201501N00931004501CN0090001N1+00701+00501999999ADDAG12999GA1021+003009079GA2031+004509059GA3061+006009059MA1098311999999MW1621OC101441
0087010014999991990020209004+59800+005350FM-15+0049ENSO V0201601N01031004501CN0090001N1+00701+00501999999ADDAG12019GA1021+003009079GA2031+004509059GA3061+005409059MA1098211999999MW1631OC101541
0087010014999991990020210004+59800+005350FM-15+0049ENSO V0201501N01031005401CN0112001N1+00601+00501999999ADDAG12999GA1021+003009079GA2031+005409059GA3061+007509059MA1098311999999MW1591OC101541
0071010014999991990020211104+59800+005350FM-15+0049ENSO V0201501N00931005401CN0112001N1+00601+00501999999ADDAG12999GA1031+003009079GA2061+005409059MA1098311999999MW1591OC101441
0071010014999991990020211204+59800+005350FM-15+0049ENSO V0201501N00931005401CN0112001N1+00601+00501999999ADDAG12999GA1031+003009079GA2061+005409059MA1098311999999MW1591OC101441
0079010014999991990020213004+59800+005350FM-15+0049ENSO V0201601N00721004501CN0090001N1+00601+00401999999ADDAG12999GA1021+003609099GA2031+004509059GA3061+007509059MA1098311999999MW1251
0084010014999991990020214004+59800+005350FM-15+0049ENSO V0201701N00671006601CN0112001N1+00701+00501999999ADDAG12999GA1021+004209089GA2051+006609059MA1098311999999OC101241EQDQ01+000000PRSWM2
0084010014999991990020216004+59800+005350FM-15+0049ENSO V0201601N00881007501CN0112001N1+00701+00201999999ADDAG12999GA1021+003609099GA2031+007509089MA1098411999999OC101441EQDQ01+000000PRSWM2
0071010014999991990020506504+59800+005350FM-15+0049ENSO V0201701N00721004501CN0112001N1+00901+00701999999ADDAG12999GA1031+003009079GA2061+004509059MA1099901999999MW1211OC101291
0071010014999991990020507004+59800+005350FM-15+0049ENSO V0201701N00721004501CN0112001N1+00901+00701999999ADDAG11999GA1031+003009079GA2061+004509059MA1099901999999MW1211OC101291
0084010014999991990020507504+59800+005350FM-15+0049ENSO V0201701N00771004501CN0112001N1+01001+00701999999ADDAG12999GA1031+003009079GA2061+004509059MA1099901999999OC101341EQDQ01+000000PRSWM2
0084010014999991990020508004+59800+005350FM-15+0049ENSO V0201701N00771004501CN0112001N1+01001+00701999999ADDAG12999GA1031+003009079GA2061+004509059MA1099901999999OC101341EQDQ01+000000PRSWM2
0100010014999991990020509004+59800+005350FM-15+0049ENSO V0201701N00881004501CN0112001N1+00901+00601999999ADDAG12000GA1031+003609079GA2041+004509059GA3061+005409059MA1100001999999OC101391EQDQ01+000000PRSWM2
0071010014999991990020510004+59800+005350FM-15+0049ENSO V0201701N00881005401CN0112001N1+01001+00601999999ADDAG12999GA1031+004509059GA2071+005409059MA1100001999999MW1101OC101601
0071010014999991990020510504+59800+005350FM-15+0049ENSO V0201701N00931006001CN0112001N1+01001+00601999999ADDAG12999GA1031+004509059GA2071+006009059MA1100001999999MW1101OC101441
0084010014999991990020511504+59800+005350FM-15+0049ENSO V0201701N01031007501CN0112001N1+01001+00601999999ADDAG12000GA1031+004509059GA2061+007509059MA1100101999999OC101701EQDQ01+000000PRSWM2
0063010014999991990020513004+59800+005350FM-15+0049ENSO V0201701N00931006001CN0112001N1+01001+00701999999ADDAG12999GA1031+003609059GA2061+006009059MA1100201999999MW1101
0071010014999991990020514504+59800+005350FM-15+0049ENSO V0201701N00771006601CN0090001N1+01001+00701999999ADDAG12000GA1031+004209059GA2061+006609059MA1100201999999MW1101OC101291
0071010014999991990020516004+59800+005350FM-15+0049ENSO V0201601N00821004501CN0090001N1+01001+00801999999ADDAG12999GA1041+003009079GA2061+004509059MA1100201999999MW1101OC101491
0071010014999991990020517004+59800+005350FM-15+0049ENSO V0201601N00881003001CN0080001N1+01001+00801999999ADDAG12999GA1021+001809079GA2061+003009079MA1100311999999MW1101OC101391
0071010014999991990020606504+59800+005350FM-15+0049ENSO V0201701N00721004801CN0070001N1+00901+00601999999ADDAG12999GA1021+003009079GA2051+004809059MA1100311999999MW1101OC101241
0071010014999991990020607004+59800+005350FM-15+0049ENSO V0201701N00721004801CN0070001N1+00901+00601999999ADDAG11999GA1021+003009079GA2051+004809059MA1100311999999MW1101OC101241
0063010014999991990020608004+59800+005350FM-15+0049ENSO V0201701N00671004501CN0080001N1+00901+00701999999ADDAG12999GA1031+003009079GA2061+004509059MA1100311999999MW1581
0063010014999991990020608244+59800+005350FM-15+0049ENSO V0201701N00671004501CN0080001N1+00901+00701999999ADDAG12999GA1031+003009079GA2061+004509059MA1100311999999MW1581
0071010014999991990020609004+59800+005350FM-15+0049ENSO V0201701N00671005401CN0090001N1+00901+00701999999ADDAG12003GA1031+003009999GA2051+005409059MA1100311999999MW1211OC101241
0063010014999991990020610504+59800+005350FM-15+0049ENSO V0201601N00881004501CN0090001N1+00901+00701999999ADDAG12999GA1011+003009079GA2051+004509059MA1100201999999MW1601
0063010014999991990020611004+59800+005350FM-15+0049ENSO V0201601N00881004501CN0090001N1+00901+00701999999ADDAG12999GA1011+003009079GA2051+004509059MA1100201999999MW1601
0071010014999991990020611504+59800+005350FM-15+0049ENSO V0201701N00671004501CN0090001N1+00901+00701999999ADDAG12003GA1021+003009079GA2051+004509059MA1100201999999MW1581OC101181
0079010014999991990020612004+59800+005350FM-15+0049ENSO V0201601N00721005401CN0112001N1+00901+00701999999ADDAG12003GA1021+003009079GA2041+005409059GA3071+021009039MA1100101999999MW1581
0079010014999991990020613004+59800+005350FM-15+0049ENSO V0201601N00721005401CN0112001N1+00901+00701999999ADDAG12999GA1021+003009079GA2041+005409059GA3071+021009039MA1100101999999MW1581
0079010014999991990020613504+59800+005350FM-15+0049ENSO V0201601N00821012001CN0112001N1+00901+00701999999ADDAG12999GA1021+006009059GA2031+012009059GA3071+021009039MA1100101999999MW1591
0079010014999991990020614004+59800+005350FM-15+0049ENSO V0201601N00821012001CN0112001N1+00901+00701999999ADDAG12999GA1021+006009059GA2031+012009059GA3071+021009039MA1100101999999MW1591
0079010014999991990020614504+59800+005350FM-15+0049ENSO V0201601N00621012001CN0112001N1+01001+00701999999ADDAG12003GA1021+006009059GA2031+012009059GA3071+021009039MA1100001999999MW1211
0076010014999991990020616004+59800+005350FM-15+0049ENSO V0201701N00771021001CN0112001N1+01001+00501999999ADDAG12999GA1031+010509059GA2051+021009039MA1100001999999EQDQ01+000000PRSWM2
0084010014999991990020616504+59800+005350FM-15+0049ENSO V0201701N00721015001CN0112001N1+01001+00401999999ADDAG12999GA1031+010509059GA2051+015009039MA1099901999999OC101241EQDQ01+000000PRSWM2
0084010014999991990020617124+59800+005350FM-15+0049ENSO V0201701N00721015001CN0112001N1+01001+00401999999ADDAG12999GA1031+010509059GA2051+015009039MA1099901999999OC101241EQDQ01+000000PRSWM2
0071010014999991990020706004+59800+005350FM-15+0049ENSO V0201701N00721006001CN0112001N1+00801+00601999999ADDAG12001GA1021+003009079GA2061+006009089MA1098711999999MW1251OC101241
0071010014999991990020706274+59800+005350FM-15+0049ENSO V0201701N00721006001CN0112001N1+00801+00601999999ADDAG12001GA1021+003009079GA2061+006009089MA1098711999999MW1251OC101241
0084010014999991990020707004+59800+005350FM-15+0049ENSO V0201701N00771005401CN0112001N1+00801+00501999999ADDAG12999GA1021+003009079GA2061+005409089MA1098611999999OC101441EQDQ01+000000PRSWM2
0084010014999991990020707204+59800+005350FM-15+0049ENSO V0201701N00771005401CN0112001N1+00801+00501999999ADDAG12999GA1021+003009079GA2061+005409089MA1098611999999OC101441EQDQ01+000000PRSWM2
0071010014999991990020708074+59800+005350FM-15+0049ENSO V0201701N00771005401CN0112001N1+00801+00501999999ADDAG12999GA1021+003009079GA2061+005409089MA1098611999999MW1101OC101341
0071010014999991990020709504+59800+005350FM-15+0049ENSO V0201701N00721004501CN0090001N1+00701+00601999999ADDAG12999GA1031+003009079GA2071+004509089MA1098311999999MW1621OC101291
0071010014999991990020710504+59800+005350FM-15+0049ENSO V0201701N00721004501CN0090001N1+00701+00601999999ADDAG12999GA1031+003009079GA2071+004509089MA1098311999999MW1621OC101291
0063010014999991990020711004+59800+005350FM-15+0049ENSO V0201401N00671005401CN0112001N1+00501+00401999999ADDAG12999GA1031+003009079GA2071+005409059MA1097901999999MW1621
0063010014999991990020712004+59800+005350FM-15+0049ENSO V0201601N00621004501CN0070001N1+00801+00701999999ADDAG12019GA1031+002409079GA2061+004509059MA1097701999999MW1631
0071010014999991990020712504+59800+005350FM-15+0049ENSO V0202301N00511004501CN0112001N1+00701+00601999999ADDAG12999GA1041+003009079GA2061+004509059MA1097701999999MW1211OC101031
0071010014999991990020713254+59800+005350FM-15+0049ENSO V0202301N00511004501CN0112001N1+00701+00601999999ADDAG12999GA1041+003009079GA2061+004509059MA1097701999999MW1211OC101031
0071010014999991990020715004+59800+005350FM-15+0049ENSO V0209991V00571004501CN0070001N1+00601+00301999999ADDAG12004GA1031+003609099GA2051+004509089MA1097801999999MW1801OC101241
0079010014999991990020715504+59800+005350FM-15+0049ENSO V0201901N00571004501CN0090001N1+00601+00501999999ADDAG12999GA1011+002409079GA2011+003609099GA3051+004509089MA1097801999999MW1251
0079010014999991990020716004+59800+005350FM-15+0049ENSO V0201901N00571004501CN0090001N1+00601+00501999999ADDAG12999GA1011+002409079GA2011+003609099GA3051+004509089MA1097801999999MW1251
0063010014999991990020717004+59800+005350FM-15+0049ENSO V0201901N00571003601CN0060001N1+00601+00501999999ADDAG12999GA1041+002109079GA2061+003609059MA1097701999999MW1631
0076010014999991990020805504+59800+005350FM-15+0049ENSO V0209991C00001009001CN0112001N1+00401+00301999999ADDAG12000GA1021+006009089GA2051+009009059MA1097701999999EQDQ01+000000PRSWM2
0076010014999991990020806504+59800+005350FM-15+0049ENSO V0203001N00051010501CN0112001N1+00401+00301999999ADDAG12999GA1011+006009089GA2051+010509059MA1097801999999EQDQ01+000000PRSWM2
0076010014999991990020807004+59800+005350FM-15+0049ENSO V0203001N00051010501CN0112001N1+00401+00301999999ADDAG12999GA1011+006009089GA2051+010509059MA1097801999999EQDQ01+000000PRSWM2
0076010014999991990020807504+59800+005350FM-15+0049ENSO V0203601N00101010501CN0112001N1+00401+00401999999ADDAG12999GA1011+006009089GA2051+010509059MA1097901999999EQDQ01+000000PRSWM2
0076010014999991990020808094+59800+005350FM-15+0049ENSO V0203601N00101010501CN0112001N1+00401+00401999999ADDAG12999GA1011+006009089GA2051+010509059MA1097901999999EQDQ01+000000PRSWM2
0076010014999991990020809004+59800+005350FM-15+0049ENSO V0203301N00151010501CN0112001N1+00501+00501999999ADDAG12000GA1011+006009089GA2051+010509059MA1098001999999EQDQ01+000000PRSWM2
0076010014999991990020809204+59800+005350FM-15+0049ENSO V0203301N00151010501CN0112001N1+00501+00501999999ADDAG12000GA1011+006009089GA2051+010509059MA1098001999999EQDQ01+000000PRSWM2
0076010014999991990020810004+59800+005350FM-15+0049ENSO V0203301N00261012001CN0112001N1+00601+00501999999ADDAG12999GA1021+006009089GA2051+012009059MA1098101999999EQDQ01+000000PRSWM2
0092010014999991990020812004+59800+005350FM-15+0049ENSO V0203301N00361054001CN0112001N1+00601+00201999999ADDAG12000GA1011+006009089GA2031+010509059GA3061+054009029MA1098511999999EQDQ01+000000PRSWM2
0076010014999991990020813004+59800+005350FM-15+0049ENSO V0203201N00311012001CN0112001N1+00601+00101999999ADDAG12999GA1011+007509999GA2051+012009059MA1098611999999EQDQ01+000000PRSWM2
0079010014999991990020813504+59800+005350FM-15+0049ENSO V0202701N00211021001CN0112001N1+00601+00301999999ADDAG12999GA1011+003009079GA2031+006009059GA3061+021009039MA1098711999999MW1211
0079010014999991990020814004+59800+005350FM-15+0049ENSO V0202701N00211021001CN0112001N1+00601+00301999999ADDAG12999GA1011+003009079GA2031+006009059GA3061+021009039MA1098711999999MW1211
0092010014999991990020815214+59800+005350FM-15+0049ENSO V0209991C00001021001CN0112001N1+00601+00401999999ADDAG12000GA1011+001809079GA2031+003609059GA3061+021009039MA1098821999999EQDQ01+000000PRSWM2
0087010014999991990020815504+59800+005350FM-15+0049ENSO V0209991V00621003601CN0060001N1+00501+00401999999ADDAG12999GA1021+001809079GA2031+003609099GA3071+004509059MA1098981999999MW1811OC101131
0087010014999991990020816004+59800+005350FM-15+0049ENSO V0209991V00621003601CN0060001N1+00501+00401999999ADDAG12999GA1021+001809079GA2031+003609099GA3071+004509059MA1098981999999MW1811OC101131
0071010014999991990020907004+59800+005350FM-15+0049ENSO V0202601N00571220001CN0112001N1+00501+00301999999ADDAG12999GA1011+003609099GA2041+005409089MA1100311999999MW1251OC101081
0071010014999991990020907204+59800+005350FM-15+0049ENSO V0202601N00571220001CN0112001N1+00501+00301999999ADDAG12999GA1011+003609099GA2041+005409089MA1100311999999MW1251OC101081
0067010014999991990020907304+59800+005350FM-15+0049ENSO V0202601N00571220001CN0112001N1+00501+00301999999ADDAG12999GA1011+003609099GA2041+005409089MW1251OC101081REMMET0021?
0063010014999991990020908004+59800+005350FM-15+0049ENSO V0202701N00621005401CN0112001N1+00601+00401999999ADDAG12999GA1011+003609099GA2051+005409089MA1100311999999MW1251
0071010014999991990020908504+59800+005350FM-15+0049ENSO V0202701N00821005401CN0090001N1+00501+00301999999ADDAG12001GA1021+003609099GA2041+005409089MA1100311999999MW1251OC101441
0071010014999991990020909224+59800+005350FM-15+0049ENSO V0202701N00821005401CN0090001N1+00501+00301999999ADDAG12001GA1021+003609099GA2041+005409089MA1100311999999MW1251OC101441
0076010014999991990020909504+59800+005350FM-15+0049ENSO V0202701N00311220001CN0112001N1+00601+00301999999ADDAG12999GA1011+003609099GA2041+006009089MA1100311999999EQDQ01+000000PRSWM2
0076010014999991990020910004+59800+005350FM-15+0049ENSO V0202701N00311220001CN0112001N1+00601+00301999999ADDAG12999GA1011+003609099GA2041+006009089MA1100311999999EQDQ01+000000PRSWM2
0076010014999991990020911004+59800+005350FM-15+0049ENSO V0202701N00571220001CN0112001N1+00801+00201999999ADDAG12999GA1011+003609099GA2031+007509089MA1100511999999EQDQ01+000000PRSWM2
0076010014999991990020913004+59800+005350FM-15+0049ENSO V0202301N00621021001CN0112001N1+00701+00101999999ADDAG12999GA1011+005409059GA2061+021009039MA1100411999999EQDQ01+000000PRSWM2
0076010014999991990020914004+59800+005350FM-15+0049ENSO V0201901N00621012001CN0112001N1+00701+00301999999ADDAG12999GA1021+005409059GA2061+012009059MA1100411999999EQDQ01+000000PRSWM2
0063010014999991990020914504+59800+005350FM-15+0049ENSO V0201901N00511005401CN0112001N1+00701+00501999999ADDAG12000GA1021+003309079GA2071+005409089MA1100201999999MW1101
0071010014999991990020916004+59800+005350FM-15+0049ENSO V0202001N00571004501CN0060001N1+00601+00401999999ADDAG12999GA1031+003009079GA2071+004509059MA1100101999999MW1801OC101131
0071010014999991990020917004+59800+005350FM-15+0049ENSO V0202301N00771004501CN0070001N1+00601+00501999999ADDAG12999GA1031+003009079GA2071+004509059MA1100101999999MW1801OC101291
0076010014999991990021205504+59800+005350FM-15+0049ENSO V0201201N00821015001CN0112001N1+00701-00101999999ADDAG12000GA1021+009009059GA2051+015009059MA1096881999999EQDQ01+000000PRSWM2
0076010014999991990021206004+59800+005350FM-15+0049ENSO V0201201N00821015001CN0112001N1+00701-00101999999ADDAG12000GA1021+009009059GA2051+015009059MA1096881999999EQDQ01+000000PRSWM2
0084010014999991990021206204+59800+005350FM-15+0049ENSO V0201401N01031021001CN0112001N1+00701-00301999999ADDAG12000GA1031+009009059GA2051+021009059MA1096881999999OC101541EQDQ01+000000PRSWM2
0084010014999991990021206504+59800+005350FM-15+0049ENSO V0201401N00881015001CN0112001N1+00701-00201999999ADDAG12999GA1031+009009059GA2051+015009059MA1096881999999OC101541EQDQ01+000000PRSWM2
0084010014999991990021207504+59800+005350FM-15+0049ENSO V0201401N01031021001CN0112001N1+00701-00301999999ADDAG12999GA1031+009009059GA2051+021009059MA1096881999999OC101541EQDQ01+000000PRSWM2
0084010014999991990021209004+59800+005350FM-15+0049ENSO V0201401N00981015001CN0112001N1+00701-00201999999ADDAG12000GA1031+009009059GA2061+015009059MA1096991999999OC101541EQDQ01+000000PRSWM2
0084010014999991990021209504+59800+005350FM-15+0049ENSO V0201401N00981015001CN0112001N1+00701-00201999999ADDAG12999GA1031+009009059GA2061+015009059MA1096991999999OC101541EQDQ01+000000PRSWM2
0076010014999991990021210204+59800+005350FM-15+0049ENSO V0201301N00621010501CN0112001N1+00601-00301999999ADDAG12999GA1021+006009059GA2051+010509059MA1096881999999EQDQ01+000000PRSWM2
0076010014999991990021211004+59800+005350FM-15+0049ENSO V0201401N00671010501CN0112001N1+00701-00301999999ADDAG12999GA1021+007509059GA2051+010509059MA1096881999999EQDQ01+000000PRSWM2
0076010014999991990021211224+59800+005350FM-15+0049ENSO V0201401N00671010501CN0112001N1+00701-00301999999ADDAG12999GA1021+007509059GA2051+010509059MA1096881999999EQDQ01+000000PRSWM2
0076010014999991990021212004+59800+005350FM-15+0049ENSO V0201401N00771010501CN0112001N1+00701-00301999999ADDAG12000GA1031+007509089GA2051+010509059MA1096881999999EQDQ01+000000PRSWM2
0076010014999991990021213004+59800+005350FM-15+0049ENSO V0201401N00771010501CN0112001N1+00701-00301999999ADDAG12999GA1031+007509089GA2051+010509059MA1096881999999EQDQ01+000000PRSWM2
0076010014999991990021213504+59800+005350FM-15+0049ENSO V0201301N00571024001CN0112001N1+00701-00401999999ADDAG12999GA1031+007509059GA2061+024009039MA1096881999999EQDQ01+000000PRSWM2
0076010014999991990021214004+59800+005350FM-15+0049ENSO V0201301N00571024001CN0112001N1+00701-00401999999ADDAG12999GA1031+007509059GA2061+024009039MA1096881999999EQDQ01+000000PRSWM2
0076010014999991990021215004+59800+005350FM-15+0049ENSO V0201301N00931021001CN0112001N1+00701-00401999999ADDAG12000GA1021+006009059GA2061+021009039MA1096881999999EQDQ01+000000PRSWM2
0076010014999991990021216004+59800+005350FM-15+0049ENSO V0201301N00771021001CN0112001N1+00701-00301999999ADDAG12999GA1021+007509059GA2061+021009039MA1096881999999EQDQ01+000000PRSWM2
0076010014999991990021216144+59800+005350FM-15+0049ENSO V0201301N00771021001CN0112001N1+00701-00301999999ADDAG12999GA1021+007509059GA2061+021009039MA1096881999999EQDQ01+000000PRSWM2
0076010014999991990021216504+59800+005350FM-15+0049ENSO V0201301N00881021001CN0112001N1+00701-00201999999ADDAG12999GA1031+009009059GA2061+021009039MA1096881999999EQDQ01+000000PRSWM2
0076010014999991990021217004+59800+005350FM-15+0049ENSO V0201301N00881021001CN0112001N1+00701-00201999999ADDAG12999GA1031+009009059GA2061+021009039MA1096881999999EQDQ01+000000PRSWM2
0079010014999991990021309504+59800+005350FM-15+0049ENSO V0201601N00051005401CN0112001N1+00401+00301999999ADDAG12999GA1021+003009079GA2031+005409059GA3051+010509059MA1097601999999MW1581
0079010014999991990021310504+59800+005350FM-15+0049ENSO V0201401N00261009001CN0112001N1+00401+00301999999ADDAG12999GA1011+001809079GA2031+003009079GA3051+009009059MA1097601999999MW1211
0092010014999991990021312004+59800+005350FM-15+0049ENSO V0201401N00311009001CN0112001N1+00401+00301999999ADDAG12000GA1011+002409079GA2031+004509089GA3051+009009059MA1097601999999EQDQ01+000000PRSWM2
0092010014999991990021312134+59800+005350FM-15+0049ENSO V0201401N00311009001CN0112001N1+00401+00301999999ADDAG12000GA1011+002409079GA2031+004509089GA3051+009009059MA1097601999999EQDQ01+000000PRSWM2
0076010014999991990021312504+59800+005350FM-15+0049ENSO V0201401N00361009001CN0112001N1+00501+00401999999ADDAG12999GA1031+003009079GA2051+009009059MA1097701999999EQDQ01+000000PRSWM2
0076010014999991990021313504+59800+005350FM-15+0049ENSO V0201501N00411007501CN0112001N1+00501+00201999999ADDAG12999GA1021+003609089GA2031+007509059MA1097601999999EQDQ01+000000PRSWM2
0060010014999991990021314004+59800+005350FM-15+0049ENSO V0201501N00511220001CN0112001N1+00601+00201999999ADDAG12999GA1041+006009089MA1097601999999EQDQ01+000000PRSWM2
0060010014999991990021315004+59800+005350FM-15+0049ENSO V0201501N00511220001CN0112001N1+00601+00201999999ADDAG12000GA1041+006009089MA1097601999999EQDQ01+000000PRSWM2
0060010014999991990021316004+59800+005350FM-15+0049ENSO V0201401N00461220001CN0112001N1+00501+00301999999ADDAG12999GA1041+006009089MA1097601999999EQDQ01+000000PRSWM2
0076010014999991990021316504+59800+005350FM-15+0049ENSO V0201201N00621006001CN0112001N1+00401+00101999999ADDAG12999GA1011+003609099GA2051+006009089MA1097601999999EQDQ01+000000PRSWM2
0076010014999991990021317004+59800+005350FM-15+0049ENSO V0201201N00621006001CN0112001N1+00401+00101999999ADDAG12999GA1011+003609099GA2051+006009089MA1097601999999EQDQ01+000000PRSWM2
0076010014999991990021406004+59800+005350FM-15+0049ENSO V0201101N00261010501CN0112001N1+00401-00201999999ADDAG12000GA1021+006009089GA2041+010509059MA1098001999999EQDQ01+000000PRSWM2
0076010014999991990021406504+59800+005350FM-15+0049ENSO V0201101N00261009001CN0112001N1+00401-00201999999ADDAG12999GA1021+006009089GA2041+009009059MA1098101999999EQDQ01+000000PRSWM2
0076010014999991990021407004+59800+005350FM-15+0049ENSO V0201101N00261009001CN0112001N1+00401-00201999999ADDAG12999GA1021+006009089GA2041+009009059MA1098101999999EQDQ01+000000PRSWM2
0076010014999991990021407504+59800+005350FM-15+0049ENSO V0201001N00461012001CN0112001N1+00401-00201999999ADDAG12999GA1021+004509089GA2051+012009059MA1098211999999EQDQ01+000000PRSWM2
0076010014999991990021409004+59800+005350FM-15+0049ENSO V0201101N00361013501CN0112001N1+00401-00101999999ADDAG12000GA1021+006009089GA2051+013509059MA1098311999999EQDQ01+000000PRSWM2
0092010014999991990021410004+59800+005350FM-15+0049ENSO V0201201N00361012001CN0112001N1+00501-00101999999ADDAG12999GA1011+003609099GA2031+007509089GA3051+012009059MA1098411999999EQDQ01+000000PRSWM2
0092010014999991990021410304+59800+005350FM-15+0049ENSO V0201201N00361012001CN0112001N1+00501-00101999999ADDAG12999GA1011+003609099GA2031+007509089GA3051+012009059MA1098411999999EQDQ01+000000PRSWM2
0092010014999991990021411004+59800+005350FM-15+0049ENSO V0201101N00361024001CN0112001N1+00501+00001999999ADDAG12999GA1011+003609099GA2031+007509089GA3051+024009049MA1098411999999EQDQ01+000000PRSWM2
0092010014999991990021412004+59800+005350FM-15+0049ENSO V0201101N00361024001CN0112001N1+00501+00001999999ADDAG12000GA1011+003609099GA2031+007509089GA3051+024009049MA1098411999999EQDQ01+000000PRSWM2
0063010014999991990021413004+59800+005350FM-15+0049ENSO V0201501N00261007501CN0090001N1+00501+00101999999ADDAG12999GA1031+003609099GA2041+007509059MA1098511999999MW1801
0047010014999991990021413504+59800+005350FM-15+0049ENSO V0202601N00151001801CN0040001N1+00201+00101999999ADDAG12999GA1091+001809999MA1098611999999MW1681
0079010014999991990021415004+59800+005350FM-15+0049ENSO V0201201N00211009001CN0112001N1+00201+00201999999ADDAG12002GA1011+000909079GA2011+003609099GA3041+009009059MA1098611999999MW1231
0079010014999991990021417004+59800+005350FM-15+0049ENSO V0201501N00211005401CN0112001N1+00301+00301999999ADDAG12999GA1021+001509079GA2011+003609099GA3051+005409059MA1098611999999MW1601
0060010014999991990021505504+59800+005350FM-15+0049ENSO V0201201N00411220001CN0112001N1+00301-00201999999ADDAG12000GA1031+007509089MA1098611999999EQDQ01+000000PRSWM2
0060010014999991990021506504+59800+005350FM-15+0049ENSO V0201001N00361220001CN0112001N1+00301-00301999999ADDAG12999GA1041+012009059MA1098611999999EQDQ01+000000PRSWM2
0060010014999991990021508004+59800+005350FM-15+0049ENSO V0201101N00211220001CN0112001N1+00301-00301999999ADDAG12999GA1031+013509059MA1098611999999EQDQ01+000000PRSWM2
0076010014999991990021508504+59800+005350FM-15+0049ENSO V0201701N00151220001CN0112001N1+00301-00101999999ADDAG12000GA1011+004509099GA2031+013509059MA1098711999999EQDQ01+000000PRSWM2
0060010014999991990021510004+59800+005350FM-15+0049ENSO V0201301N00151013501CN0112001N1+00401-00201999999ADDAG12999GA1051+013509059MA1098821999999EQDQ01+000000PRSWM2
0076010014999991990021511004+59800+005350FM-15+0049ENSO V0201301N00051013501CN0112001N1+00401-00201999999ADDAG12999GA1011+007509089GA2051+013509059MA1098821999999EQDQ01+000000PRSWM2
0076010014999991990021512004+59800+005350FM-15+0049ENSO V0202301N00151012001CN0112001N1+00401-00201999999ADDAG12000GA1021+007509089GA2051+012009059MA1098921999999EQDQ01+000000PRSWM2
0076010014999991990021512504+59800+005350FM-15+0049ENSO V0201401N00151021001CN0112001N1+00501-00201999999ADDAG12999GA1021+009009089GA2041+021009039MA1098921999999EQDQ01+000000PRSWM2
0076010014999991990021513004+59800+005350FM-15+0049ENSO V0201601N00151220001CN0112001N1+00501-00301999999ADDAG12999GA1011+010509089GA2041+078009009MA1098981999999EQDQ01+000000PRSWM2
0076010014999991990021514004+59800+005350FM-15+0049ENSO V0201601N00151220001CN0112001N1+00501-00301999999ADDAG12999GA1011+010509089GA2041+078009009MA1098981999999EQDQ01+000000PRSWM2
0076010014999991990021514504+59800+005350FM-15+0049ENSO V0201701N00151060001CN0112001N1+00501-00201999999ADDAG12000GA1021+009009089GA2041+060009019MA1098981999999EQDQ01+000000PRSWM2
0076010014999991990021515004+59800+005350FM-15+0049ENSO V0201701N00151060001CN0112001N1+00501-00201999999ADDAG12000GA1021+009009089GA2041+060009019MA1098981999999EQDQ01+000000PRSWM2
0076010014999991990021515504+59800+005350FM-15+0049ENSO V0201901N00151021001CN0112001N1+00401-00101999999ADDAG12999GA1021+007509089GA2051+021009039MA1099091999999EQDQ01+000000PRSWM2
0076010014999991990021516114+59800+005350FM-15+0049ENSO V0201901N00151021001CN0112001N1+00401-00101999999ADDAG12999GA1021+007509089GA2051+021009039MA1099091999999EQDQ01+000000PRSWM2
0076010014999991990021516504+59800+005350FM-15+0049ENSO V0201901N00211010501CN0112001N1+00401-00101999999ADDAG12999GA1021+006009059GA2061+010509059MA1099091999999EQDQ01+000000PRSWM2
0076010014999991990021517304+59800+005350FM-15+0049ENSO V0201901N00211010501CN0112001N1+00401-00101999999ADDAG12000GA1021+006009059GA2061+010509059MA1099091999999EQDQ01+000000PRSWM2
0076010014999991990021606504+59800+005350FM-15+0049ENSO V0201501N00361007501CN0112001N1+00201+00201999999ADDAG12999GA1021+000909079GA2041+007509059MA1099391999999EQDQ01+000000PRSWM2
0076010014999991990021607004+59800+005350FM-15+0049ENSO V0201501N00361007501CN0112001N1+00201+00201999999ADDAG12999GA1021+000909079GA2041+007509059MA1099391999999EQDQ01+000000PRSWM2
0063010014999991990021608004+59800+005350FM-15+0049ENSO V0201401N00311006001CN0112001N1+00201+00201999999ADDAG12999GA1031+002109079GA2041+006009089MA1099491999999MW1401
0076010014999991990021609004+59800+005350FM-15+0049ENSO V0201401N00151006001CN0112001N1+00201+00201999999ADDAG12000GA1021+003609099GA2041+006009089MA1099491999999EQDQ01+000000PRSWM2
0076010014999991990021610004+59800+005350FM-15+0049ENSO V0201401N00101006001CN0112001N1+00301+00301999999ADDAG12999GA1021+003609099GA2041+006009089MA1099491999999EQDQ01+000000PRSWM2
0079010014999991990021611004+59800+005350FM-15+0049ENSO V0201401N00211003001CN0112001N1+00201+00201999999ADDAG12999GA1021+002409079GA2031+003009099GA3051+006009089MA1099491999999MW1831
0079010014999991990021612004+59800+005350FM-15+0049ENSO V0202101N00261003601CN0112001N1+00301+00301999999ADDAG12001GA1031+003009079GA2031+003609099GA3051+006009089MA1099591999999MW1831
0079010014999991990021612504+59800+005350FM-15+0049ENSO V0201601N00311003601CN0112001N1+00301+00301999999ADDAG12999GA1021+003009079GA2031+003609099GA3041+006009089MA1099591999999MW1231
0079010014999991990021613004+59800+005350FM-15+0049ENSO V0201601N00311003601CN0112001N1+00301+00301999999ADDAG12999GA1021+003009079GA2031+003609099GA3041+006009089MA1099591999999MW1231
0076010014999991990021613504+59800+005350FM-15+0049ENSO V0201401N00311006001CN0112001N1+00301+00201999999ADDAG12999GA1021+003609099GA2041+006009089MA1099591999999EQDQ01+000000PRSWM2
0063010014999991990021615004+59800+005350FM-15+0049ENSO V0209991V00051006001CN0112001N1+00301+00201999999ADDAG12002GA1031+003609099GA2051+006009089MA1099591999999MW1231
0079010014999991990021615504+59800+005350FM-15+0049ENSO V0201501N00211003601CN0112001N1+00301+00201999999ADDAG12999GA1021+003009079GA2031+003609099GA3051+006009089MA1099701999999MW1831
0047010014999991990021907004+59800+005350FM-15+0049ENSO V0201501N00621007501CN0112001N1+00601+00301999999ADDAG12999GA1051+007509059MA1099801999999MW1211
0084010014999991990021907504+59800+005350FM-15+0049ENSO V0201601N00881007501CN0112001N1+00701+00301999999ADDAG12999GA1021+005409059GA2051+007509059MA1099701999999OC101541EQDQ01+000000PRSWM2
0084010014999991990021909004+59800+005350FM-15+0049ENSO V0201601N01031007501CN0112001N1+00801+00401999999ADDAG12000GA1021+004209059GA2051+007509059MA1099591999999OC101701EQDQ01+000000PRSWM2
0084010014999991990021910004+59800+005350FM-15+0049ENSO V0201601N00981018001CN0112001N1+00801+00301999999ADDAG12999GA1021+005409089GA2061+018009039MA1099291999999OC101541EQDQ01+000000PRSWM2
0068010014999991990021911004+59800+005350FM-15+0049ENSO V0201601N01131007501CN0112001N1+00901+00301999999ADDAG12999GA1051+007509059MA1099191999999OC101961EQDQ01+000000PRSWM2
0068010014999991990021912004+59800+005350FM-15+0049ENSO V0201701N01081007501CN0112001N1+00801+00401999999ADDAG11000GA1061+007509059MA1099191999999OC101801EQDQ01+000000PRSWM2
0071010014999991990021913004+59800+005350FM-15+0049ENSO V0201701N00981003001CN0070001N1+00701+00601999999ADDAG11999GA1031+002109079GA2071+003009079MA1098981999999MW1631OC101651
0063010014999991990022007004+59800+005350FM-15+0049ENSO V0201601N00571009001CN0112001N1+00701+00501999999ADDAG12999GA1031+003909059GA2061+009009059MA1099291999999MW1581
0063010014999991990022007084+59800+005350FM-15+0049ENSO V0201601N00571009001CN0112001N1+00701+00501999999ADDAG12999GA1031+003909059GA2061+009009059MA1099291999999MW1581
0063010014999991990022008094+59800+005350FM-15+0049ENSO V0201501N00771004501CN0070001N1+00701+00601999999ADDAG12999GA1031+002409079GA2051+004509059MA1099191999999MW1611
0079010014999991990022008504+59800+005350FM-15+0049ENSO V0201601N00821003601CN0040001N1+00701+00701999999ADDAG12007GA1011+000909079GA2031+002109079GA3051+003609079MA1099091999999MW1611
0063010014999991990022008554+59800+005350FM-15+0049ENSO V0201501N00771004501CN0070001N1+00701+00601999999ADDAG12007GA1031+002409079GA2051+004509059MA1099191999999MW1611
0079010014999991990022009004+59800+005350FM-15+0049ENSO V0201601N00821003601CN0040001N1+00701+00701999999ADDAG12007GA1011+000909079GA2031+002109079GA3051+003609079MA1099091999999MW1611
0079010014999991990022009204+59800+005350FM-15+0049ENSO V0201601N00821003601CN0040001N1+00701+00701999999ADDAG12007GA1011+000909079GA2031+002109079GA3051+003609079MA1099091999999MW1611
0087010014999991990022010504+59800+005350FM-15+0049ENSO V0202001N01031004201CN0090001N1+01001+00901999999ADDAG12999GA1011+001509079GA2031+002409079GA3051+004209059MA1099191999999MW1101OC101701
0068010014999991990022014504+59800+005350FM-15+0049ENSO V0202301N01031220001CN0112001N1+01001+00401999999ADDAG12000GA1011+006009089MA1099591999999OC101801EQDQ01+000000PRSWM2
0076010014999991990022106004+59800+005350FM-15+0049ENSO V0201601N00511220001CN0112001N1+00601+00401999999ADDAG12000GA1011+006009089GA2041+021009039MA1100911999999EQDQ01+000000PRSWM2
0092010014999991990022107054+59800+005350FM-15+0049ENSO V0201601N00671021001CN0112001N1+00701+00501999999ADDAG12999GA1011+003009079GA2031+006009089GA3051+021009039MA1100911999999EQDQ01+000000PRSWM2
0076010014999991990022107504+59800+005350FM-15+0049ENSO V0201501N00621220001CN0112001N1+00701+00501999999ADDAG12999GA1011+003009079GA2041+021009039MA1100811999999EQDQ01+000000PRSWM2
0076010014999991990022109004+59800+005350FM-15+0049ENSO V0201601N00621021001CN0112001N1+00701+00301999999ADDAG12000GA1041+007509059GA2061+021009039MA1100711999999EQDQ01+000000PRSWM2
0068010014999991990022111004+59800+005350FM-15+0049ENSO V0201601N00671007501CN0112001N1+00801+00201999999ADDAG12999GA1061+007509059MA1100611999999OC101181EQDQ01+000000PRSWM2
0060010014999991990022112504+59800+005350FM-15+0049ENSO V0201701N00671220001CN0112001N1+00901+00301999999ADDAG12999GA1041+009009089MA1100311999999EQDQ01+000000PRSWM2
0068010014999991990022114004+59800+005350FM-15+0049ENSO V0201701N00671007501CN0112001N1+00901+00501999999ADDAG12999GA1051+007509059MA1100201999999OC101181EQDQ01+000000PRSWM2
0084010014999991990022114504+59800+005350FM-15+0049ENSO V0201801N00721007501CN0112001N1+00901+00501999999ADDAG12000GA1031+004209059GA2051+007509059MA1100101999999OC101241EQDQ01+000000PRSWM2
0076010014999991990022116004+59800+005350FM-15+0049ENSO V0201901N00621006601CN0112001N1+00801+00601999999ADDAG12999GA1021+003609059GA2051+006609059MA1100001999999EQDQ01+000000PRSWM2
0087010014999991990022207094+59800+005350FM-15+0049ENSO V0201901N00881003301CN0060001N1+00701+00601999999ADDAG12999GA1011+001509079GA2031+002409079GA3051+003309079MA1101491999999MW1631OC101391
0087010014999991990022208174+59800+005350FM-15+0049ENSO V0202001N00821003601CN0080001N1+00801+00701999999ADDAG12999GA1011+001209079GA2031+002409079GA3051+003609079MA1101591999999MW1611OC101341
0087010014999991990022210504+59800+005350FM-15+0049ENSO V0201901N01031002101CN0060001N1+00801+00701999999ADDAG12999GA1021+000909079GA2041+002109079GA3061+003609079MA1101691999999MW1631OC101601
0087010014999991990022212004+59800+005350FM-15+0049ENSO V0202101N00621003601CN0070001N1+00901+00701999999ADDAG12007GA1021+002409079GA2041+003609079GA3061+004509059MA1101801999999MW1611OC101291
0071010014999991990022216004+59800+005350FM-15+0049ENSO V0201901N00621009001CN0070001N1+00901+00701999999ADDAG12999GA1011+003009079GA2061+009009059MA1101901999999MW1591OC101291
0092010014999991990022305004+59800+005350FM-15+0049ENSO V0201901N00881007501CN0112001N1+00901+00601999999ADDAG11999GA1011+003009079GA2031+004509059GA3051+007509059MA1101691999999EQDQ01+000000PRSWM2
0092010014999991990022307114+59800+005350FM-15+0049ENSO V0201801N00721004501CN0112001N1+01001+00701999999ADDAG12999GA1021+003009079GA2031+004509059GA3061+006009059MA1101591999999EQDQ01+000000PRSWM2
0076010014999991990022308084+59800+005350FM-15+0049ENSO V0201701N00621005401CN0112001N1+00901+00601999999ADDAG12999GA1031+003009079GA2061+005409059MA1101591999999EQDQ01+000000PRSWM2
0076010014999991990022309004+59800+005350FM-15+0049ENSO V0201901N00771005401CN0112001N1+00901+00601999999ADDAG12000GA1021+003009079GA2061+005409059MA1101591999999EQDQ01+000000PRSWM2
0084010014999991990022310004+59800+005350FM-15+0049ENSO V0201801N00571005401CN0112001N1+01001+00701999999ADDAG12999GA1021+003009079GA2061+005409059MA1101591999999OC101081EQDQ01+000000PRSWM2
0084010014999991990022311004+59800+005350FM-15+0049ENSO V0201901N00721005401CN0112001N1+01001+00701999999ADDAG12999GA1021+003909079GA2061+005409059MA1101591999999OC101241EQDQ01+000000PRSWM2
0063010014999991990022312004+59800+005350FM-15+0049ENSO V0201901N00621004201CN0080001N1+00901+00701999999ADDAG12000GA1021+002409079GA2061+004209059MA1101591999999MW1101
0063010014999991990022313284+59800+005350FM-15+0049ENSO V0201901N00771004201CN0070001N1+00901+00701999999ADDAG12999GA1021+002409079GA2061+004209059MA1101491999999MW1101
0063010014999991990022313304+59800+005350FM-15+0049ENSO V0201901N00771004201CN0070001N1+00901+00701999999ADDAG12999GA1021+002409079GA2061+004209059MA1101491999999MW1101
0098010014999991990022315004+59800+005350FM-15+0049ENSO V0202001N00511004501CN0080001N1+00901+00701999999ADDAG11000GA1031+002409079GA2061+004509059MA1101391999999MW1101REMMET026PAST MAX         ?     27?
0063010014999991990022316004+59800+005350FM-15+0049ENSO V0202301N00621003601CN0070001N1+01001+00801999999ADDAG11999GA1031+002109079GA2061+003609079MA1101391999999MW1581
0063010014999991990022317004+59800+005350FM-15+0049ENSO V0202301N00571004501CN0080001N1+00901+00801999999ADDAG11999GA1031+002409079GA2051+004509059MA1101491999999MW1211
0076010014999991990022605504+59800+005350FM-15+0049ENSO V0201601N00621006001CN0112001N1+00501+00301999999ADDAG12000GA1021+003909079GA2061+006009059MA1096511999999EQDQ01+000000PRSWM2
0076010014999991990022606004+59800+005350FM-15+0049ENSO V0201601N00621006001CN0112001N1+00501+00301999999ADDAG12000GA1021+003909079GA2061+006009059MA1096511999999EQDQ01+000000PRSWM2
0076010014999991990022606504+59800+005350FM-15+0049ENSO V0201601N00621006001CN0112001N1+00501+00301999999ADDAG12999GA1031+003909079GA2061+006009059MA1096511999999EQDQ01+000000PRSWM2
0071010014999991990022608004+59800+005350FM-15+0049ENSO V0201501N00821006001CN0112001N1+00501+00201999999ADDAG12999GA1021+004209079GA2051+006009059MA1096111999999MW1801OC101341
0063010014999991990022610304+59800+005350FM-15+0049ENSO V0201001N00721015001CN0112001N1+00501+00001999999ADDAG12999GA1031+006009059GA2051+015009059MA1095391999999MW1211
0071010014999991990022611004+59800+005350FM-15+0049ENSO V0201101N01031012001CN0112001N1+00601-00101999999ADDAG12999GA1031+006009059GA2051+012009059MA1095191999999MW1211OC101541
0063010014999991990022612004+59800+005350FM-15+0049ENSO V0201101N00931006001CN0112001N1+00501+00101999999ADDAG12002GA1021+003609079GA2051+006009059MA1094991999999MW1601
0063010014999991990022612504+59800+005350FM-15+0049ENSO V0201101N00671009001CN0090001N1+00501+00201999999ADDAG12999GA1031+004509059GA2051+009009059MA1094891999999MW1611
0063010014999991990022613304+59800+005350FM-15+0049ENSO V0201201N00361007501CN0080001N1+00501+00301999999ADDAG12999GA1031+003909059GA2051+007509059MA1094891999999MW1631
0063010014999991990022614004+59800+005350FM-15+0049ENSO V0201201N00361007501CN0080001N1+00501+00301999999ADDAG12999GA1031+003909059GA2051+007509059MA1094891999999MW1631
0063010014999991990022615004+59800+005350FM-15+0049ENSO V0203501N00571002401CN0090001N1+00301+00201999999ADDAG12006GA1021+001209079GA2051+002409079MA1094991999999MW1681
0047010014999991990022615504+59800+005350FM-15+0049ENSO V0203501N00721000601CN0008001N1+00101+00101999999ADDAG12999GA1091+000609999MA1094991999999MW1731
0047010014999991990022616004+59800+005350FM-15+0049ENSO V0203501N00721000601CN0008001N1+00101+00101999999ADDAG12999GA1091+000609999MA1094991999999MW1731
0063010014999991990022617004+59800+005350FM-15+0049ENSO V0203401N00671002401CN0112001N1+00301+00301999999ADDAG12999GA1031+001509079GA2061+002409079MA1095291999999MW1681
0063010014999991990022623254+59800+005350FM-15+0049ENSO V0203401N00671002401CN0112001N1+00301+00301999999ADDAG12999GA1031+001509079GA2061+002409079MA1095291999999MW1681
0063010014999991990022707004+59800+005350FM-15+0049ENSO V0202401N00101006001CN0112001N1+00301+00101999999ADDAG12999GA1021+003609099GA2061+006009089MA1095701999999MW1231
0063010014999991990022707504+59800+005350FM-15+0049ENSO V0202601N00461006001CN0112001N1+00401+00001999999ADDAG12999GA1021+003609099GA2061+006009089MA1095701999999MW1231
0063010014999991990022708004+59800+005350FM-15+0049ENSO V0202601N00461006001CN0112001N1+00401+00001999999ADDAG12999GA1021+003609099GA2061+006009089MA1095701999999MW1231
0092010014999991990022708504+59800+005350FM-15+0049ENSO V0202501N00311007501CN0112001N1+00401+00001999999ADDAG12000GA1021+003609099GA2021+004509089GA3051+007509089MA1095701999999EQDQ01+000000PRSWM2
0092010014999991990022709004+59800+005350FM-15+0049ENSO V0202501N00311007501CN0112001N1+00401+00001999999ADDAG12000GA1021+003609099GA2021+004509089GA3051+007509089MA1095701999999EQDQ01+000000PRSWM2
0076010014999991990022710004+59800+005350FM-15+0049ENSO V0202401N00511007501CN0112001N1+00501+00101999999ADDAG12999GA1021+003609099GA2051+007509089MA1095601999999EQDQ01+000000PRSWM2
0087010014999991990022710504+59800+005350FM-15+0049ENSO V0202301N00411003601CN0112001N1+00401+00201999999ADDAG12999GA1021+003009079GA2031+003609099GA3061+006009089MA1095601999999MW1801OC100931
0087010014999991990022711004+59800+005350FM-15+0049ENSO V0202301N00411003601CN0112001N1+00401+00201999999ADDAG12999GA1021+003009079GA2031+003609099GA3061+006009089MA1095601999999MW1801OC100931
0079010014999991990022711554+59800+005350FM-15+0049ENSO V0201701N00361003001CN0080001N1+00301+00201999999ADDAG12004GA1031+002409079GA2031+003009099GA3061+003909089MA1095601999999MW1801
0079010014999991990022712004+59800+005350FM-15+0049ENSO V0201701N00361003001CN0080001N1+00301+00201999999ADDAG12004GA1031+002409079GA2031+003009099GA3061+003909089MA1095601999999MW1801
0047010014999991990022713004+59800+005350FM-15+0049ENSO V0201501N00311220001CN0112001N1+00401+00301999999ADDAG12999GA1041+002109079MA1095701999999MW1211
0047010014999991990022713114+59800+005350FM-15+0049ENSO V0201501N00311220001CN0112001N1+00401+00301999999ADDAG12999GA1041+002109079MA1095701999999MW1211
0092010014999991990022713504+59800+005350FM-15+0049ENSO V0201501N00411006001CN0112001N1+00401+00301999999ADDAG12999GA1011+002109079GA2021+003609099GA3041+006009059MA1095601999999EQDQ01+000000PRSWM2
0092010014999991990022714004+59800+005350FM-15+0049ENSO V0201501N00411006001CN0112001N1+00401+00301999999ADDAG12999GA1011+002109079GA2021+003609099GA3041+006009059MA1095601999999EQDQ01+000000PRSWM2
0092010014999991990022714504+59800+005350FM-15+0049ENSO V0201301N00261005401CN0112001N1+00501+00401999999ADDAG12000GA1011+003009079GA2011+003609099GA3041+005409089MA1095601999999EQDQ01+000000PRSWM2
0092010014999991990022715304+59800+005350FM-15+0049ENSO V0201501N00411004501CN0112001N1+00401+00301999999ADDAG12999GA1011+002109079GA2021+003609099GA3041+004509089MA1095601999999EQDQ01+000000PRSWM2
0092010014999991990022716124+59800+005350FM-15+0049ENSO V0201501N00411004501CN0112001N1+00401+00301999999ADDAG12999GA1011+002109079GA2021+003609099GA3041+004509089MA1095601999999EQDQ01+000000PRSWM2
0092010014999991990022716504+59800+005350FM-15+0049ENSO V0201501N00511005401CN0112001N1+00401+00301999999ADDAG12999GA1011+002109079GA2031+003609059GA3051+005409059MA1095601999999EQDQ01+000000PRSWM2
0076010014999991990022805504+59800+005350FM-15+0049ENSO V0209991C00001009001CN0112001N1+00201+00201999999ADDAG12000GA1021+005409089GA2051+009009089MA1096991999999EQDQ01+000000PRSWM2
0076010014999991990022806004+59800+005350FM-15+0049ENSO V0209991C00001009001CN0112001N1+00201+00201999999ADDAG12000GA1021+005409089GA2051+009009089MA1096991999999EQDQ01+000000PRSWM2
0115010014999991990022807104+59800+005350FM-15+0049ENSO V0201401N00051004501CN0070001N1+00201+00201999999ADDAG12999GA1021+003009079GA2031+004509089GA3061+006009089MA1097091999999MW1801REMMET027VIS        ?     TO S 9999?
0079010014999991990022807504+59800+005350FM-15+0049ENSO V0203001N00051006001CN0112001N1+00301+00301999999ADDAG12999GA1021+003009079GA2021+003609099GA3051+006009089MA1097191999999MW1251
0063010014999991990022808004+59800+005350FM-15+0049ENSO V0203601N00151006001CN0112001N1+00301+00301999999ADDAG12999GA1021+003609099GA2051+006009089MA1097091999999MW1801
0079010014999991990022808504+59800+005350FM-15+0049ENSO V0203001N00051006001CN0112001N1+00301+00301999999ADDAG12001GA1021+003009079GA2021+003609099GA3051+006009089MA1097191999999MW1251
0079010014999991990022810004+59800+005350FM-15+0049ENSO V0209991V00051006001CN0112001N1+00401+00401999999ADDAG12999GA1021+002709079GA2021+003609099GA3041+006009089MA1097291999999MW1251
0076010014999991990022810504+59800+005350FM-15+0049ENSO V0209991V00051004501CN0112001N1+00501+00501999999ADDAG12999GA1021+003009089GA2031+004509089MA1097291999999EQDQ01+000000PRSWM2
0076010014999991990022811284+59800+005350FM-15+0049ENSO V0209991V00051004501CN0112001N1+00501+00501999999ADDAG12999GA1021+003009089GA2031+004509089MA1097291999999EQDQ01+000000PRSWM2
0076010014999991990022812174+59800+005350FM-15+0049ENSO V0203301N00261005401CN0112001N1+00601+00301999999ADDAG12000GA1021+003609089GA2041+005409089MA1097391999999EQDQ01+000000PRSWM2
0076010014999991990022813004+59800+005350FM-15+0049ENSO V0203301N00311220001CN0112001N1+00601+00201999999ADDAG12999GA1011+004509089GA2041+006009089MA1097391999999EQDQ01+000000PRSWM2
0076010014999991990022814004+59800+005350FM-15+0049ENSO V0203401N00261036001CN0112001N1+00601+00001999999ADDAG12999GA1031+006009089GA2041+036009039MA1097391999999EQDQ01+000000PRSWM2
0092010014999991990022815004+59800+005350FM-15+0049ENSO V0203401N00101027001CN0112001N1+00601+00101999999ADDAG12000GA1011+004509089GA2031+009009089GA3061+027009039MA1097391999999EQDQ01+000000PRSWM2
0076010014999991990022815504+59800+005350FM-15+0049ENSO V0200201N00101027001CN0112001N1+00501+00101999999ADDAG12999GA1021+005409089GA2061+027009049MA1097391999999EQDQ01+000000PRSWM2
0076010014999991990022816554+59800+005350FM-15+0049ENSO V0200601N00101027001CN0112001N1+00401+00201999999ADDAG12999GA1021+005409089GA2061+027009049MA1097391999999EQDQ01+000000PRSWM2
0076010014999991990022817004+59800+005350FM-15+0049ENSO V0200601N00101027001CN0112001N1+00401+00201999999ADDAG12999GA1021+005409089GA2061+027009049MA1097391999999EQDQ01+000000PRSWM2
0071010014999991990030107004+59800+005350FM-15+0049ENSO V0203401N00621009001CN0040001N1+00101-00501999999ADDAG12999GA1031+003609099GA2031+009009089MA1098311999999MW1871OC101341
0071010014999991990030107504+59800+005350FM-15+0049ENSO V0203401N00511007501CN0112001N1+00001-00401999999ADDAG12999GA1021+003609099GA2041+007509089MA1098411999999MW1271OC101081
0071010014999991990030108004+59800+005350FM-15+0049ENSO V0203401N00511007501CN0112001N1+00001-00401999999ADDAG12999GA1021+003609099GA2041+007509089MA1098411999999MW1271OC101081
0063010014999991990030109004+59800+005350FM-15+0049ENSO V0203401N00151220001CN0112001N1+00001-00101999999ADDAG12000GA1011+003609099GA2031+007509089MA1098511999999MW1261
0063010014999991990030109504+59800+005350FM-15+0049ENSO V0203401N00151220001CN0112001N1+00001-00101999999ADDAG12999GA1011+003609099GA2031+007509089MA1098511999999MW1261
0076010014999991990030110224+59800+005350FM-15+0049ENSO V0200101N00311220001CN0112001N1+00201-00501999999ADDAG12999GA1021+003609099GA2021+007509089MA1098511999999EQDQ01+000000PRSWM2
0076010014999991990030110234+59800+005350FM-15+0049ENSO V0200101N00311220001CN0112001N1+00201-00501999999ADDAG12999GA1021+003609099GA2021+007509089MA1098511999999EQDQ01+000000PRSWM2
0063010014999991990030111154+59800+005350FM-15+0049ENSO V0202701N00411220001CN0112001N1+00201-00601999999ADDAG12999GA1011+003609099GA2041+007509089MA1098611999999MW1271
